{
	"abi": [
		{
			"type": "constructor",
			"inputs": [],
			"stateMutability": "nonpayable"
		},
		{
			"type": "function",
			"name": "DOMAIN_SEPARATOR",
			"inputs": [],
			"outputs": [
				{
					"name": "",
					"type": "bytes32",
					"internalType": "bytes32"
				}
			],
			"stateMutability": "view"
		},
		{
			"type": "function",
			"name": "allowance",
			"inputs": [
				{
					"name": "owner",
					"type": "address",
					"internalType": "address"
				},
				{
					"name": "spender",
					"type": "address",
					"internalType": "address"
				}
			],
			"outputs": [
				{
					"name": "",
					"type": "uint256",
					"internalType": "uint256"
				}
			],
			"stateMutability": "view"
		},
		{
			"type": "function",
			"name": "approve",
			"inputs": [
				{
					"name": "spender",
					"type": "address",
					"internalType": "address"
				},
				{
					"name": "value",
					"type": "uint256",
					"internalType": "uint256"
				}
			],
			"outputs": [
				{
					"name": "",
					"type": "bool",
					"internalType": "bool"
				}
			],
			"stateMutability": "nonpayable"
		},
		{
			"type": "function",
			"name": "balanceOf",
			"inputs": [
				{
					"name": "account",
					"type": "address",
					"internalType": "address"
				}
			],
			"outputs": [
				{
					"name": "",
					"type": "uint256",
					"internalType": "uint256"
				}
			],
			"stateMutability": "view"
		},
		{
			"type": "function",
			"name": "decimals",
			"inputs": [],
			"outputs": [
				{
					"name": "",
					"type": "uint8",
					"internalType": "uint8"
				}
			],
			"stateMutability": "view"
		},
		{
			"type": "function",
			"name": "eip712Domain",
			"inputs": [],
			"outputs": [
				{
					"name": "fields",
					"type": "bytes1",
					"internalType": "bytes1"
				},
				{
					"name": "name",
					"type": "string",
					"internalType": "string"
				},
				{
					"name": "version",
					"type": "string",
					"internalType": "string"
				},
				{
					"name": "chainId",
					"type": "uint256",
					"internalType": "uint256"
				},
				{
					"name": "verifyingContract",
					"type": "address",
					"internalType": "address"
				},
				{
					"name": "salt",
					"type": "bytes32",
					"internalType": "bytes32"
				},
				{
					"name": "extensions",
					"type": "uint256[]",
					"internalType": "uint256[]"
				}
			],
			"stateMutability": "view"
		},
		{
			"type": "function",
			"name": "mint",
			"inputs": [],
			"outputs": [],
			"stateMutability": "nonpayable"
		},
		{
			"type": "function",
			"name": "name",
			"inputs": [],
			"outputs": [
				{
					"name": "",
					"type": "string",
					"internalType": "string"
				}
			],
			"stateMutability": "view"
		},
		{
			"type": "function",
			"name": "nonces",
			"inputs": [
				{
					"name": "owner",
					"type": "address",
					"internalType": "address"
				}
			],
			"outputs": [
				{
					"name": "",
					"type": "uint256",
					"internalType": "uint256"
				}
			],
			"stateMutability": "view"
		},
		{
			"type": "function",
			"name": "permit",
			"inputs": [
				{
					"name": "owner",
					"type": "address",
					"internalType": "address"
				},
				{
					"name": "spender",
					"type": "address",
					"internalType": "address"
				},
				{
					"name": "value",
					"type": "uint256",
					"internalType": "uint256"
				},
				{
					"name": "deadline",
					"type": "uint256",
					"internalType": "uint256"
				},
				{
					"name": "v",
					"type": "uint8",
					"internalType": "uint8"
				},
				{
					"name": "r",
					"type": "bytes32",
					"internalType": "bytes32"
				},
				{
					"name": "s",
					"type": "bytes32",
					"internalType": "bytes32"
				}
			],
			"outputs": [],
			"stateMutability": "nonpayable"
		},
		{
			"type": "function",
			"name": "symbol",
			"inputs": [],
			"outputs": [
				{
					"name": "",
					"type": "string",
					"internalType": "string"
				}
			],
			"stateMutability": "view"
		},
		{
			"type": "function",
			"name": "totalSupply",
			"inputs": [],
			"outputs": [
				{
					"name": "",
					"type": "uint256",
					"internalType": "uint256"
				}
			],
			"stateMutability": "view"
		},
		{
			"type": "function",
			"name": "transfer",
			"inputs": [
				{
					"name": "to",
					"type": "address",
					"internalType": "address"
				},
				{
					"name": "value",
					"type": "uint256",
					"internalType": "uint256"
				}
			],
			"outputs": [
				{
					"name": "",
					"type": "bool",
					"internalType": "bool"
				}
			],
			"stateMutability": "nonpayable"
		},
		{
			"type": "function",
			"name": "transferAndCall",
			"inputs": [
				{
					"name": "to",
					"type": "address",
					"internalType": "address"
				},
				{
					"name": "value",
					"type": "uint256",
					"internalType": "uint256"
				},
				{
					"name": "data",
					"type": "bytes",
					"internalType": "bytes"
				}
			],
			"outputs": [
				{
					"name": "",
					"type": "bool",
					"internalType": "bool"
				}
			],
			"stateMutability": "nonpayable"
		},
		{
			"type": "function",
			"name": "transferFrom",
			"inputs": [
				{
					"name": "from",
					"type": "address",
					"internalType": "address"
				},
				{
					"name": "to",
					"type": "address",
					"internalType": "address"
				},
				{
					"name": "value",
					"type": "uint256",
					"internalType": "uint256"
				}
			],
			"outputs": [
				{
					"name": "",
					"type": "bool",
					"internalType": "bool"
				}
			],
			"stateMutability": "nonpayable"
		},
		{
			"type": "event",
			"name": "Approval",
			"inputs": [
				{
					"name": "owner",
					"type": "address",
					"indexed": true,
					"internalType": "address"
				},
				{
					"name": "spender",
					"type": "address",
					"indexed": true,
					"internalType": "address"
				},
				{
					"name": "value",
					"type": "uint256",
					"indexed": false,
					"internalType": "uint256"
				}
			],
			"anonymous": false
		},
		{
			"type": "event",
			"name": "EIP712DomainChanged",
			"inputs": [],
			"anonymous": false
		},
		{
			"type": "event",
			"name": "Transfer",
			"inputs": [
				{
					"name": "from",
					"type": "address",
					"indexed": true,
					"internalType": "address"
				},
				{
					"name": "to",
					"type": "address",
					"indexed": true,
					"internalType": "address"
				},
				{
					"name": "value",
					"type": "uint256",
					"indexed": false,
					"internalType": "uint256"
				}
			],
			"anonymous": false
		},
		{
			"type": "error",
			"name": "ECDSAInvalidSignature",
			"inputs": []
		},
		{
			"type": "error",
			"name": "ECDSAInvalidSignatureLength",
			"inputs": [
				{
					"name": "length",
					"type": "uint256",
					"internalType": "uint256"
				}
			]
		},
		{
			"type": "error",
			"name": "ECDSAInvalidSignatureS",
			"inputs": [
				{
					"name": "s",
					"type": "bytes32",
					"internalType": "bytes32"
				}
			]
		},
		{
			"type": "error",
			"name": "ERC1363ReceiveFailed",
			"inputs": [
				{
					"name": "to",
					"type": "address",
					"internalType": "address"
				}
			]
		},
		{
			"type": "error",
			"name": "ERC1363TransferFailed",
			"inputs": [
				{
					"name": "to",
					"type": "address",
					"internalType": "address"
				},
				{
					"name": "value",
					"type": "uint256",
					"internalType": "uint256"
				}
			]
		},
		{
			"type": "error",
			"name": "ERC20InsufficientAllowance",
			"inputs": [
				{
					"name": "spender",
					"type": "address",
					"internalType": "address"
				},
				{
					"name": "allowance",
					"type": "uint256",
					"internalType": "uint256"
				},
				{
					"name": "needed",
					"type": "uint256",
					"internalType": "uint256"
				}
			]
		},
		{
			"type": "error",
			"name": "ERC20InsufficientBalance",
			"inputs": [
				{
					"name": "sender",
					"type": "address",
					"internalType": "address"
				},
				{
					"name": "balance",
					"type": "uint256",
					"internalType": "uint256"
				},
				{
					"name": "needed",
					"type": "uint256",
					"internalType": "uint256"
				}
			]
		},
		{
			"type": "error",
			"name": "ERC20InvalidApprover",
			"inputs": [
				{
					"name": "approver",
					"type": "address",
					"internalType": "address"
				}
			]
		},
		{
			"type": "error",
			"name": "ERC20InvalidReceiver",
			"inputs": [
				{
					"name": "receiver",
					"type": "address",
					"internalType": "address"
				}
			]
		},
		{
			"type": "error",
			"name": "ERC20InvalidSender",
			"inputs": [
				{
					"name": "sender",
					"type": "address",
					"internalType": "address"
				}
			]
		},
		{
			"type": "error",
			"name": "ERC20InvalidSpender",
			"inputs": [
				{
					"name": "spender",
					"type": "address",
					"internalType": "address"
				}
			]
		},
		{
			"type": "error",
			"name": "ERC2612ExpiredSignature",
			"inputs": [
				{
					"name": "deadline",
					"type": "uint256",
					"internalType": "uint256"
				}
			]
		},
		{
			"type": "error",
			"name": "ERC2612InvalidSigner",
			"inputs": [
				{
					"name": "signer",
					"type": "address",
					"internalType": "address"
				},
				{
					"name": "owner",
					"type": "address",
					"internalType": "address"
				}
			]
		},
		{
			"type": "error",
			"name": "InvalidAccountNonce",
			"inputs": [
				{
					"name": "account",
					"type": "address",
					"internalType": "address"
				},
				{
					"name": "currentNonce",
					"type": "uint256",
					"internalType": "uint256"
				}
			]
		},
		{
			"type": "error",
			"name": "InvalidShortString",
			"inputs": []
		},
		{
			"type": "error",
			"name": "StringTooLong",
			"inputs": [
				{
					"name": "str",
					"type": "string",
					"internalType": "string"
				}
			]
		}
	],
	"bytecode": {
		"object": "0x61016060405234801561001157600080fd5b506040518060400160405280600581526020016448756c696f60d81b81525080604051806040016040528060018152602001603160f81b8152506040518060400160405280600581526020016448756c696f60d81b81525060405180604001604052806002815260200161485560f01b81525081600390816100939190610274565b5060046100a08282610274565b506100b09150839050600561015b565b610120526100bf81600661015b565b61014052815160208084019190912060e052815190820120610100524660a05261014c60e05161010051604080517f8b73c3c69bb8fe3d512ecc4cf759cc79239f7b179b0ffacaa9a75d522b39400f60208201529081019290925260608201524660808201523060a082015260009060c00160405160208183030381529060405280519060200120905090565b60805250503060c052506103a4565b6000602083511015610177576101708361018e565b9050610188565b816101828482610274565b5060ff90505b92915050565b600080829050601f815111156101c2578260405163305a27a960e01b81526004016101b99190610332565b60405180910390fd5b80516101cd82610380565b179392505050565b634e487b7160e01b600052604160045260246000fd5b600181811c908216806101ff57607f821691505b60208210810361021f57634e487b7160e01b600052602260045260246000fd5b50919050565b601f82111561026f57806000526020600020601f840160051c8101602085101561024c5750805b601f840160051c820191505b8181101561026c5760008155600101610258565b50505b505050565b81516001600160401b0381111561028d5761028d6101d5565b6102a18161029b84546101eb565b84610225565b6020601f8211600181146102d557600083156102bd5750848201515b600019600385901b1c1916600184901b17845561026c565b600084815260208120601f198516915b8281101561030557878501518255602094850194600190920191016102e5565b50848210156103235786840151600019600387901b60f8161c191681555b50505050600190811b01905550565b602081526000825180602084015260005b818110156103605760208186018101516040868401015201610343565b506000604082850101526040601f19601f83011684010191505092915050565b8051602080830151919081101561021f5760001960209190910360031b1b16919050565b60805160a05160c05160e05161010051610120516101405161120c6103fe600039600061091e015260006108f10152600061078101526000610759015260006106b4015260006106de01526000610708015261120c6000f3fe608060405234801561001057600080fd5b50600436106100f55760003560e01c80634000aea01161009757806395d89b411161006657806395d89b41146101eb578063a9059cbb146101f3578063d505accf14610206578063dd62ed3e1461021957600080fd5b80634000aea01461018157806370a08231146101945780637ecebe00146101bd57806384b0196e146101d057600080fd5b806318160ddd116100d357806318160ddd1461014557806323b872dd14610157578063313ce5671461016a5780633644e5151461017957600080fd5b806306fdde03146100fa578063095ea7b3146101185780631249c58b1461013b575b600080fd5b610102610252565b60405161010f9190610e7e565b60405180910390f35b61012b610126366004610eb4565b6102e4565b604051901515815260200161010f565b6101436102fe565b005b6002545b60405190815260200161010f565b61012b610165366004610ede565b61030e565b6040516012815260200161010f565b610149610332565b61012b61018f366004610f1b565b610341565b6101496101a2366004610fa5565b6001600160a01b031660009081526020819052604090205490565b6101496101cb366004610fa5565b6103c3565b6101d86103e1565b60405161010f9796959493929190610fc0565b610102610427565b61012b610201366004610eb4565b610436565b610143610214366004611058565b610444565b6101496102273660046110cb565b6001600160a01b03918216600090815260016020908152604080832093909416825291909152205490565b606060038054610261906110fe565b80601f016020809104026020016040519081016040528092919081815260200182805461028d906110fe565b80156102da5780601f106102af576101008083540402835291602001916102da565b820191906000526020600020905b8154815290600101906020018083116102bd57829003601f168201915b5050505050905090565b6000336102f281858561057e565b60019150505b92915050565b61030c33633b9aca00610590565b565b60003361031c8582856105ca565b610327858585610648565b506001949350505050565b600061033c6106a7565b905090565b600061034d8585610436565b6103815760405163118d81d760e11b81526001600160a01b0386166004820152602481018590526044015b60405180910390fd5b61032733868686868080601f0160208091040260200160405190810160405280939291908181526020018383808284376000920191909152506107d292505050565b6001600160a01b0381166000908152600760205260408120546102f8565b6000606080600080600060606103f56108ea565b6103fd610917565b60408051600080825260208201909252600f60f81b9b939a50919850469750309650945092509050565b606060048054610261906110fe565b6000336102f2818585610648565b834211156104685760405163313c898160e11b815260048101859052602401610378565b60007f6e71edae12b1b97f4d1f60370fef10105fa2faae0126114a169c64845d6126c98888886104b58c6001600160a01b0316600090815260076020526040902080546001810190915590565b6040805160208101969096526001600160a01b0394851690860152929091166060840152608083015260a082015260c0810186905260e001604051602081830303815290604052805190602001209050600061051082610944565b9050600061052082878787610971565b9050896001600160a01b0316816001600160a01b031614610567576040516325c0072360e11b81526001600160a01b0380831660048301528b166024820152604401610378565b6105728a8a8a61057e565b50505050505050505050565b61058b838383600161099f565b505050565b6001600160a01b0382166105ba5760405163ec442f0560e01b815260006004820152602401610378565b6105c660008383610a74565b5050565b6001600160a01b038381166000908152600160209081526040808320938616835292905220546000198114610642578181101561063357604051637dc7a0d960e11b81526001600160a01b03841660048201526024810182905260448101839052606401610378565b6106428484848403600061099f565b50505050565b6001600160a01b03831661067257604051634b637e8f60e11b815260006004820152602401610378565b6001600160a01b03821661069c5760405163ec442f0560e01b815260006004820152602401610378565b61058b838383610a74565b6000306001600160a01b037f00000000000000000000000000000000000000000000000000000000000000001614801561070057507f000000000000000000000000000000000000000000000000000000000000000046145b1561072a57507f000000000000000000000000000000000000000000000000000000000000000090565b61033c604080517f8b73c3c69bb8fe3d512ecc4cf759cc79239f7b179b0ffacaa9a75d522b39400f60208201527f0000000000000000000000000000000000000000000000000000000000000000918101919091527f000000000000000000000000000000000000000000000000000000000000000060608201524660808201523060a082015260009060c00160405160208183030381529060405280519060200120905090565b6001600160a01b0383163b1561064257604051632229f29760e21b81526001600160a01b038416906388a7ca5c90610814903390889087908790600401611138565b6020604051808303816000875af192505050801561084f575060408051601f3d908101601f1916820190925261084c91810190611175565b60015b6108a7573d80801561087d576040519150601f19603f3d011682016040523d82523d6000602084013e610882565b606091505b506040516306e78b8f60e31b81526001600160a01b0385166004820152602401610378565b6001600160e01b03198116632229f29760e21b146108e3576040516306e78b8f60e31b81526001600160a01b0385166004820152602401610378565b5050505050565b606061033c7f00000000000000000000000000000000000000000000000000000000000000006005610b9e565b606061033c7f00000000000000000000000000000000000000000000000000000000000000006006610b9e565b60006102f86109516106a7565b8360405161190160f01b8152600281019290925260228201526042902090565b60008060008061098388888888610c49565b9250925092506109938282610d18565b50909695505050505050565b6001600160a01b0384166109c95760405163e602df0560e01b815260006004820152602401610378565b6001600160a01b0383166109f357604051634a1406b160e11b815260006004820152602401610378565b6001600160a01b038085166000908152600160209081526040808320938716835292905220829055801561064257826001600160a01b0316846001600160a01b03167f8c5be1e5ebec7d5bd14f71427d1e84f3dd0314c0f7b2291e5b200ac8c7c3b92584604051610a6691815260200190565b60405180910390a350505050565b6001600160a01b038316610a9f578060026000828254610a94919061119f565b90915550610b119050565b6001600160a01b03831660009081526020819052604090205481811015610af25760405163391434e360e21b81526001600160a01b03851660048201526024810182905260448101839052606401610378565b6001600160a01b03841660009081526020819052604090209082900390555b6001600160a01b038216610b2d57600280548290039055610b4c565b6001600160a01b03821660009081526020819052604090208054820190555b816001600160a01b0316836001600160a01b03167fddf252ad1be2c89b69c2b068fc378daa952ba7f163c4a11628f55a4df523b3ef83604051610b9191815260200190565b60405180910390a3505050565b606060ff8314610bb857610bb183610dd1565b90506102f8565b818054610bc4906110fe565b80601f0160208091040260200160405190810160405280929190818152602001828054610bf0906110fe565b8015610c3d5780601f10610c1257610100808354040283529160200191610c3d565b820191906000526020600020905b815481529060010190602001808311610c2057829003601f168201915b505050505090506102f8565b600080807f7fffffffffffffffffffffffffffffff5d576e7357a4501ddfe92f46681b20a0841115610c845750600091506003905082610d0e565b604080516000808252602082018084528a905260ff891692820192909252606081018790526080810186905260019060a0016020604051602081039080840390855afa158015610cd8573d6000803e3d6000fd5b5050604051601f1901519150506001600160a01b038116610d0457506000925060019150829050610d0e565b9250600091508190505b9450945094915050565b6000826003811115610d2c57610d2c6111c0565b03610d35575050565b6001826003811115610d4957610d496111c0565b03610d675760405163f645eedf60e01b815260040160405180910390fd5b6002826003811115610d7b57610d7b6111c0565b03610d9c5760405163fce698f760e01b815260048101829052602401610378565b6003826003811115610db057610db06111c0565b036105c6576040516335e2f38360e21b815260048101829052602401610378565b60606000610dde83610e10565b604080516020808252818301909252919250600091906020820181803683375050509182525060208101929092525090565b600060ff8216601f8111156102f857604051632cd44ac360e21b815260040160405180910390fd5b6000815180845260005b81811015610e5e57602081850181015186830182015201610e42565b506000602082860101526020601f19601f83011685010191505092915050565b602081526000610e916020830184610e38565b9392505050565b80356001600160a01b0381168114610eaf57600080fd5b919050565b60008060408385031215610ec757600080fd5b610ed083610e98565b946020939093013593505050565b600080600060608486031215610ef357600080fd5b610efc84610e98565b9250610f0a60208501610e98565b929592945050506040919091013590565b60008060008060608587031215610f3157600080fd5b610f3a85610e98565b935060208501359250604085013567ffffffffffffffff811115610f5d57600080fd5b8501601f81018713610f6e57600080fd5b803567ffffffffffffffff811115610f8557600080fd5b876020828401011115610f9757600080fd5b949793965060200194505050565b600060208284031215610fb757600080fd5b610e9182610e98565b60ff60f81b8816815260e060208201526000610fdf60e0830189610e38565b8281036040840152610ff18189610e38565b606084018890526001600160a01b038716608085015260a0840186905283810360c08501528451808252602080870193509091019060005b81811015611047578351835260209384019390920191600101611029565b50909b9a5050505050505050505050565b600080600080600080600060e0888a03121561107357600080fd5b61107c88610e98565b965061108a60208901610e98565b95506040880135945060608801359350608088013560ff811681146110ae57600080fd5b9699959850939692959460a0840135945060c09093013592915050565b600080604083850312156110de57600080fd5b6110e783610e98565b91506110f560208401610e98565b90509250929050565b600181811c9082168061111257607f821691505b60208210810361113257634e487b7160e01b600052602260045260246000fd5b50919050565b6001600160a01b038581168252841660208201526040810183905260806060820181905260009061116b90830184610e38565b9695505050505050565b60006020828403121561118757600080fd5b81516001600160e01b031981168114610e9157600080fd5b808201808211156102f857634e487b7160e01b600052601160045260246000fd5b634e487b7160e01b600052602160045260246000fdfea264697066735822122041cffd642c348c38814e5738bff2db8fed4468455174241abe753758762ae65664736f6c634300081a0033",
		"linkReferences": {}
	},
	"methodIdentifiers": {
		"DOMAIN_SEPARATOR()": "3644e515",
		"allowance(address,address)": "dd62ed3e",
		"approve(address,uint256)": "095ea7b3",
		"balanceOf(address)": "70a08231",
		"decimals()": "313ce567",
		"eip712Domain()": "84b0196e",
		"mint()": "1249c58b",
		"name()": "06fdde03",
		"nonces(address)": "7ecebe00",
		"permit(address,address,uint256,uint256,uint8,bytes32,bytes32)": "d505accf",
		"symbol()": "95d89b41",
		"totalSupply()": "18160ddd",
		"transfer(address,uint256)": "a9059cbb",
		"transferAndCall(address,uint256,bytes)": "4000aea0",
		"transferFrom(address,address,uint256)": "23b872dd"
	},
	"id": 52
}