{
	"contracts/MyNft.sol": {
		"MyNFT": {
			"abi": [
				{
					"inputs": [
						{
							"internalType": "string",
							"name": "_tokenUriPrefix",
							"type": "string"
						},
						{
							"internalType": "string",
							"name": "_name",
							"type": "string"
						},
						{
							"internalType": "string",
							"name": "_symbol",
							"type": "string"
						}
					],
					"stateMutability": "nonpayable",
					"type": "constructor"
				},
				{
					"inputs": [
						{
							"internalType": "address",
							"name": "sender",
							"type": "address"
						},
						{
							"internalType": "uint256",
							"name": "tokenId",
							"type": "uint256"
						},
						{
							"internalType": "address",
							"name": "owner",
							"type": "address"
						}
					],
					"name": "ERC721IncorrectOwner",
					"type": "error"
				},
				{
					"inputs": [
						{
							"internalType": "address",
							"name": "operator",
							"type": "address"
						},
						{
							"internalType": "uint256",
							"name": "tokenId",
							"type": "uint256"
						}
					],
					"name": "ERC721InsufficientApproval",
					"type": "error"
				},
				{
					"inputs": [
						{
							"internalType": "address",
							"name": "approver",
							"type": "address"
						}
					],
					"name": "ERC721InvalidApprover",
					"type": "error"
				},
				{
					"inputs": [
						{
							"internalType": "address",
							"name": "operator",
							"type": "address"
						}
					],
					"name": "ERC721InvalidOperator",
					"type": "error"
				},
				{
					"inputs": [
						{
							"internalType": "address",
							"name": "owner",
							"type": "address"
						}
					],
					"name": "ERC721InvalidOwner",
					"type": "error"
				},
				{
					"inputs": [
						{
							"internalType": "address",
							"name": "receiver",
							"type": "address"
						}
					],
					"name": "ERC721InvalidReceiver",
					"type": "error"
				},
				{
					"inputs": [
						{
							"internalType": "address",
							"name": "sender",
							"type": "address"
						}
					],
					"name": "ERC721InvalidSender",
					"type": "error"
				},
				{
					"inputs": [
						{
							"internalType": "uint256",
							"name": "tokenId",
							"type": "uint256"
						}
					],
					"name": "ERC721NonexistentToken",
					"type": "error"
				},
				{
					"inputs": [
						{
							"internalType": "address",
							"name": "owner",
							"type": "address"
						}
					],
					"name": "OwnableInvalidOwner",
					"type": "error"
				},
				{
					"inputs": [
						{
							"internalType": "address",
							"name": "account",
							"type": "address"
						}
					],
					"name": "OwnableUnauthorizedAccount",
					"type": "error"
				},
				{
					"anonymous": false,
					"inputs": [
						{
							"indexed": true,
							"internalType": "address",
							"name": "owner",
							"type": "address"
						},
						{
							"indexed": true,
							"internalType": "address",
							"name": "approved",
							"type": "address"
						},
						{
							"indexed": true,
							"internalType": "uint256",
							"name": "tokenId",
							"type": "uint256"
						}
					],
					"name": "Approval",
					"type": "event"
				},
				{
					"anonymous": false,
					"inputs": [
						{
							"indexed": true,
							"internalType": "address",
							"name": "owner",
							"type": "address"
						},
						{
							"indexed": true,
							"internalType": "address",
							"name": "operator",
							"type": "address"
						},
						{
							"indexed": false,
							"internalType": "bool",
							"name": "approved",
							"type": "bool"
						}
					],
					"name": "ApprovalForAll",
					"type": "event"
				},
				{
					"anonymous": false,
					"inputs": [
						{
							"indexed": true,
							"internalType": "address",
							"name": "previousOwner",
							"type": "address"
						},
						{
							"indexed": true,
							"internalType": "address",
							"name": "newOwner",
							"type": "address"
						}
					],
					"name": "OwnershipTransferred",
					"type": "event"
				},
				{
					"anonymous": false,
					"inputs": [
						{
							"indexed": true,
							"internalType": "address",
							"name": "from",
							"type": "address"
						},
						{
							"indexed": true,
							"internalType": "address",
							"name": "to",
							"type": "address"
						},
						{
							"indexed": true,
							"internalType": "uint256",
							"name": "tokenId",
							"type": "uint256"
						}
					],
					"name": "Transfer",
					"type": "event"
				},
				{
					"inputs": [
						{
							"internalType": "address",
							"name": "to",
							"type": "address"
						},
						{
							"internalType": "uint256",
							"name": "tokenId",
							"type": "uint256"
						}
					],
					"name": "approve",
					"outputs": [],
					"stateMutability": "nonpayable",
					"type": "function"
				},
				{
					"inputs": [
						{
							"internalType": "address",
							"name": "owner",
							"type": "address"
						}
					],
					"name": "balanceOf",
					"outputs": [
						{
							"internalType": "uint256",
							"name": "",
							"type": "uint256"
						}
					],
					"stateMutability": "view",
					"type": "function"
				},
				{
					"inputs": [
						{
							"internalType": "uint256",
							"name": "_tokenId",
							"type": "uint256"
						}
					],
					"name": "createNft",
					"outputs": [],
					"stateMutability": "nonpayable",
					"type": "function"
				},
				{
					"inputs": [
						{
							"internalType": "uint256",
							"name": "tokenId",
							"type": "uint256"
						}
					],
					"name": "getApproved",
					"outputs": [
						{
							"internalType": "address",
							"name": "",
							"type": "address"
						}
					],
					"stateMutability": "view",
					"type": "function"
				},
				{
					"inputs": [
						{
							"internalType": "address",
							"name": "owner",
							"type": "address"
						},
						{
							"internalType": "address",
							"name": "operator",
							"type": "address"
						}
					],
					"name": "isApprovedForAll",
					"outputs": [
						{
							"internalType": "bool",
							"name": "",
							"type": "bool"
						}
					],
					"stateMutability": "view",
					"type": "function"
				},
				{
					"inputs": [],
					"name": "name",
					"outputs": [
						{
							"internalType": "string",
							"name": "",
							"type": "string"
						}
					],
					"stateMutability": "view",
					"type": "function"
				},
				{
					"inputs": [],
					"name": "owner",
					"outputs": [
						{
							"internalType": "address",
							"name": "",
							"type": "address"
						}
					],
					"stateMutability": "view",
					"type": "function"
				},
				{
					"inputs": [
						{
							"internalType": "uint256",
							"name": "tokenId",
							"type": "uint256"
						}
					],
					"name": "ownerOf",
					"outputs": [
						{
							"internalType": "address",
							"name": "",
							"type": "address"
						}
					],
					"stateMutability": "view",
					"type": "function"
				},
				{
					"inputs": [],
					"name": "renounceOwnership",
					"outputs": [],
					"stateMutability": "nonpayable",
					"type": "function"
				},
				{
					"inputs": [
						{
							"internalType": "address",
							"name": "from",
							"type": "address"
						},
						{
							"internalType": "address",
							"name": "to",
							"type": "address"
						},
						{
							"internalType": "uint256",
							"name": "tokenId",
							"type": "uint256"
						}
					],
					"name": "safeTransferFrom",
					"outputs": [],
					"stateMutability": "nonpayable",
					"type": "function"
				},
				{
					"inputs": [
						{
							"internalType": "address",
							"name": "from",
							"type": "address"
						},
						{
							"internalType": "address",
							"name": "to",
							"type": "address"
						},
						{
							"internalType": "uint256",
							"name": "tokenId",
							"type": "uint256"
						},
						{
							"internalType": "bytes",
							"name": "data",
							"type": "bytes"
						}
					],
					"name": "safeTransferFrom",
					"outputs": [],
					"stateMutability": "nonpayable",
					"type": "function"
				},
				{
					"inputs": [
						{
							"internalType": "address",
							"name": "operator",
							"type": "address"
						},
						{
							"internalType": "bool",
							"name": "approved",
							"type": "bool"
						}
					],
					"name": "setApprovalForAll",
					"outputs": [],
					"stateMutability": "nonpayable",
					"type": "function"
				},
				{
					"inputs": [
						{
							"internalType": "string",
							"name": "_newPrefix",
							"type": "string"
						}
					],
					"name": "setTokenUriPrefix",
					"outputs": [],
					"stateMutability": "nonpayable",
					"type": "function"
				},
				{
					"inputs": [
						{
							"internalType": "bytes4",
							"name": "interfaceId",
							"type": "bytes4"
						}
					],
					"name": "supportsInterface",
					"outputs": [
						{
							"internalType": "bool",
							"name": "",
							"type": "bool"
						}
					],
					"stateMutability": "view",
					"type": "function"
				},
				{
					"inputs": [],
					"name": "symbol",
					"outputs": [
						{
							"internalType": "string",
							"name": "",
							"type": "string"
						}
					],
					"stateMutability": "view",
					"type": "function"
				},
				{
					"inputs": [
						{
							"internalType": "uint256",
							"name": "_tokenId",
							"type": "uint256"
						}
					],
					"name": "tokenURI",
					"outputs": [
						{
							"internalType": "string",
							"name": "",
							"type": "string"
						}
					],
					"stateMutability": "view",
					"type": "function"
				},
				{
					"inputs": [
						{
							"internalType": "address",
							"name": "from",
							"type": "address"
						},
						{
							"internalType": "address",
							"name": "to",
							"type": "address"
						},
						{
							"internalType": "uint256",
							"name": "tokenId",
							"type": "uint256"
						}
					],
					"name": "transferFrom",
					"outputs": [],
					"stateMutability": "nonpayable",
					"type": "function"
				},
				{
					"inputs": [
						{
							"internalType": "address",
							"name": "newOwner",
							"type": "address"
						}
					],
					"name": "transferOwnership",
					"outputs": [],
					"stateMutability": "nonpayable",
					"type": "function"
				}
			],
			"devdoc": {
				"errors": {
					"ERC721IncorrectOwner(address,uint256,address)": [
						{
							"details": "Indicates an error related to the ownership over a particular token. Used in transfers.",
							"params": {
								"owner": "Address of the current owner of a token.",
								"sender": "Address whose tokens are being transferred.",
								"tokenId": "Identifier number of a token."
							}
						}
					],
					"ERC721InsufficientApproval(address,uint256)": [
						{
							"details": "Indicates a failure with the `operator`’s approval. Used in transfers.",
							"params": {
								"operator": "Address that may be allowed to operate on tokens without being their owner.",
								"tokenId": "Identifier number of a token."
							}
						}
					],
					"ERC721InvalidApprover(address)": [
						{
							"details": "Indicates a failure with the `approver` of a token to be approved. Used in approvals.",
							"params": {
								"approver": "Address initiating an approval operation."
							}
						}
					],
					"ERC721InvalidOperator(address)": [
						{
							"details": "Indicates a failure with the `operator` to be approved. Used in approvals.",
							"params": {
								"operator": "Address that may be allowed to operate on tokens without being their owner."
							}
						}
					],
					"ERC721InvalidOwner(address)": [
						{
							"details": "Indicates that an address can't be an owner. For example, `address(0)` is a forbidden owner in EIP-20. Used in balance queries.",
							"params": {
								"owner": "Address of the current owner of a token."
							}
						}
					],
					"ERC721InvalidReceiver(address)": [
						{
							"details": "Indicates a failure with the token `receiver`. Used in transfers.",
							"params": {
								"receiver": "Address to which tokens are being transferred."
							}
						}
					],
					"ERC721InvalidSender(address)": [
						{
							"details": "Indicates a failure with the token `sender`. Used in transfers.",
							"params": {
								"sender": "Address whose tokens are being transferred."
							}
						}
					],
					"ERC721NonexistentToken(uint256)": [
						{
							"details": "Indicates a `tokenId` whose `owner` is the zero address.",
							"params": {
								"tokenId": "Identifier number of a token."
							}
						}
					],
					"OwnableInvalidOwner(address)": [
						{
							"details": "The owner is not a valid owner account. (eg. `address(0)`)"
						}
					],
					"OwnableUnauthorizedAccount(address)": [
						{
							"details": "The caller account is not authorized to perform an operation."
						}
					]
				},
				"events": {
					"Approval(address,address,uint256)": {
						"details": "Emitted when `owner` enables `approved` to manage the `tokenId` token."
					},
					"ApprovalForAll(address,address,bool)": {
						"details": "Emitted when `owner` enables or disables (`approved`) `operator` to manage all of its assets."
					},
					"Transfer(address,address,uint256)": {
						"details": "Emitted when `tokenId` token is transferred from `from` to `to`."
					}
				},
				"kind": "dev",
				"methods": {
					"approve(address,uint256)": {
						"details": "See {IERC721-approve}."
					},
					"balanceOf(address)": {
						"details": "See {IERC721-balanceOf}."
					},
					"getApproved(uint256)": {
						"details": "See {IERC721-getApproved}."
					},
					"isApprovedForAll(address,address)": {
						"details": "See {IERC721-isApprovedForAll}."
					},
					"name()": {
						"details": "See {IERC721Metadata-name}."
					},
					"owner()": {
						"details": "Returns the address of the current owner."
					},
					"ownerOf(uint256)": {
						"details": "See {IERC721-ownerOf}."
					},
					"renounceOwnership()": {
						"details": "Leaves the contract without owner. It will not be possible to call `onlyOwner` functions. Can only be called by the current owner. NOTE: Renouncing ownership will leave the contract without an owner, thereby disabling any functionality that is only available to the owner."
					},
					"safeTransferFrom(address,address,uint256)": {
						"details": "See {IERC721-safeTransferFrom}."
					},
					"safeTransferFrom(address,address,uint256,bytes)": {
						"details": "See {IERC721-safeTransferFrom}."
					},
					"setApprovalForAll(address,bool)": {
						"details": "See {IERC721-setApprovalForAll}."
					},
					"supportsInterface(bytes4)": {
						"details": "See {IERC165-supportsInterface}."
					},
					"symbol()": {
						"details": "See {IERC721Metadata-symbol}."
					},
					"transferFrom(address,address,uint256)": {
						"details": "See {IERC721-transferFrom}."
					},
					"transferOwnership(address)": {
						"details": "Transfers ownership of the contract to a new account (`newOwner`). Can only be called by the current owner."
					}
				},
				"version": 1
			},
			"evm": {
				"assembly": "    /* \"contracts/MyNft.sol\":222:1163  contract MyNFT is Ownable, ERC721 {... */\n  mstore(0x40, 0x80)\n    /* \"contracts/MyNft.sol\":462:671  constructor(... */\n  callvalue\n  dup1\n  iszero\n  tag_1\n  jumpi\n  0x00\n  dup1\n  revert\ntag_1:\n  pop\n  mload(0x40)\n  sub(codesize, bytecodeSize)\n  dup1\n  bytecodeSize\n  dup4\n  codecopy\n  dup2\n  dup2\n  add\n  0x40\n  mstore\n  dup2\n  add\n  swap1\n  tag_2\n  swap2\n  swap1\n  tag_3\n  jump\t// in\ntag_2:\n    /* \"contracts/MyNft.sol\":606:611  _name */\n  dup2\n    /* \"contracts/MyNft.sol\":613:620  _symbol */\n  dup2\n    /* \"contracts/MyNft.sol\":587:597  msg.sender */\n  caller\n    /* \"@openzeppelin/contracts/access/Ownable.sol\":1297:1298  0 */\n  0x00\n    /* \"@openzeppelin/contracts/access/Ownable.sol\":1273:1299  initialOwner == address(0) */\n  0xffffffffffffffffffffffffffffffffffffffff\n  and\n    /* \"@openzeppelin/contracts/access/Ownable.sol\":1273:1285  initialOwner */\n  dup2\n    /* \"@openzeppelin/contracts/access/Ownable.sol\":1273:1299  initialOwner == address(0) */\n  0xffffffffffffffffffffffffffffffffffffffff\n  and\n  sub\n    /* \"@openzeppelin/contracts/access/Ownable.sol\":1269:1364  if (initialOwner == address(0)) {... */\n  tag_8\n  jumpi\n    /* \"@openzeppelin/contracts/access/Ownable.sol\":1350:1351  0 */\n  0x00\n    /* \"@openzeppelin/contracts/access/Ownable.sol\":1322:1353  OwnableInvalidOwner(address(0)) */\n  mload(0x40)\n  0x1e4fbdf700000000000000000000000000000000000000000000000000000000\n  dup2\n  mstore\n  0x04\n  add\n  tag_9\n  swap2\n  swap1\n  tag_10\n  jump\t// in\ntag_9:\n  mload(0x40)\n  dup1\n  swap2\n  sub\n  swap1\n  revert\n    /* \"@openzeppelin/contracts/access/Ownable.sol\":1269:1364  if (initialOwner == address(0)) {... */\ntag_8:\n    /* \"@openzeppelin/contracts/access/Ownable.sol\":1373:1405  _transferOwnership(initialOwner) */\n  tag_11\n    /* \"@openzeppelin/contracts/access/Ownable.sol\":1392:1404  initialOwner */\n  dup2\n    /* \"@openzeppelin/contracts/access/Ownable.sol\":1373:1391  _transferOwnership */\n  shl(0x20, tag_12)\n    /* \"@openzeppelin/contracts/access/Ownable.sol\":1373:1405  _transferOwnership(initialOwner) */\n  0x20\n  shr\n  jump\t// in\ntag_11:\n    /* \"@openzeppelin/contracts/access/Ownable.sol\":1225:1412  constructor(address initialOwner) {... */\n  pop\n    /* \"@openzeppelin/contracts/token/ERC721/ERC721.sol\":1455:1460  name_ */\n  dup2\n    /* \"@openzeppelin/contracts/token/ERC721/ERC721.sol\":1447:1452  _name */\n  0x01\n    /* \"@openzeppelin/contracts/token/ERC721/ERC721.sol\":1447:1460  _name = name_ */\n  swap1\n  dup2\n  tag_14\n  swap2\n  swap1\n  tag_15\n  jump\t// in\ntag_14:\n  pop\n    /* \"@openzeppelin/contracts/token/ERC721/ERC721.sol\":1480:1487  symbol_ */\n  dup1\n    /* \"@openzeppelin/contracts/token/ERC721/ERC721.sol\":1470:1477  _symbol */\n  0x02\n    /* \"@openzeppelin/contracts/token/ERC721/ERC721.sol\":1470:1487  _symbol = symbol_ */\n  swap1\n  dup2\n  tag_16\n  swap2\n  swap1\n  tag_15\n  jump\t// in\ntag_16:\n  pop\n    /* \"@openzeppelin/contracts/token/ERC721/ERC721.sol\":1381:1494  constructor(string memory name_, string memory symbol_) {... */\n  pop\n  pop\n    /* \"contracts/MyNft.sol\":649:664  _tokenUriPrefix */\n  dup3\n    /* \"contracts/MyNft.sol\":632:646  tokenUriPreFix */\n  0x07\n    /* \"contracts/MyNft.sol\":632:664  tokenUriPreFix = _tokenUriPrefix */\n  swap1\n  dup2\n  tag_18\n  swap2\n  swap1\n  tag_15\n  jump\t// in\ntag_18:\n  pop\n    /* \"contracts/MyNft.sol\":462:671  constructor(... */\n  pop\n  pop\n  pop\n    /* \"contracts/MyNft.sol\":222:1163  contract MyNFT is Ownable, ERC721 {... */\n  jump(tag_19)\n    /* \"@openzeppelin/contracts/access/Ownable.sol\":2912:3099  function _transferOwnership(address newOwner) internal virtual {... */\ntag_12:\n    /* \"@openzeppelin/contracts/access/Ownable.sol\":2985:3001  address oldOwner */\n  0x00\n    /* \"@openzeppelin/contracts/access/Ownable.sol\":3004:3010  _owner */\n  dup1\n  0x00\n  swap1\n  sload\n  swap1\n  0x0100\n  exp\n  swap1\n  div\n  0xffffffffffffffffffffffffffffffffffffffff\n  and\n    /* \"@openzeppelin/contracts/access/Ownable.sol\":2985:3010  address oldOwner = _owner */\n  swap1\n  pop\n    /* \"@openzeppelin/contracts/access/Ownable.sol\":3029:3037  newOwner */\n  dup2\n    /* \"@openzeppelin/contracts/access/Ownable.sol\":3020:3026  _owner */\n  0x00\n  dup1\n    /* \"@openzeppelin/contracts/access/Ownable.sol\":3020:3037  _owner = newOwner */\n  0x0100\n  exp\n  dup2\n  sload\n  dup2\n  0xffffffffffffffffffffffffffffffffffffffff\n  mul\n  not\n  and\n  swap1\n  dup4\n  0xffffffffffffffffffffffffffffffffffffffff\n  and\n  mul\n  or\n  swap1\n  sstore\n  pop\n    /* \"@openzeppelin/contracts/access/Ownable.sol\":3083:3091  newOwner */\n  dup2\n    /* \"@openzeppelin/contracts/access/Ownable.sol\":3052:3092  OwnershipTransferred(oldOwner, newOwner) */\n  0xffffffffffffffffffffffffffffffffffffffff\n  and\n    /* \"@openzeppelin/contracts/access/Ownable.sol\":3073:3081  oldOwner */\n  dup2\n    /* \"@openzeppelin/contracts/access/Ownable.sol\":3052:3092  OwnershipTransferred(oldOwner, newOwner) */\n  0xffffffffffffffffffffffffffffffffffffffff\n  and\n  0x8be0079c531659141344cd1fd0a4f28419497f9722a3daafe3b4186f6b6457e0\n  mload(0x40)\n  mload(0x40)\n  dup1\n  swap2\n  sub\n  swap1\n  log3\n    /* \"@openzeppelin/contracts/access/Ownable.sol\":2975:3099  {... */\n  pop\n    /* \"@openzeppelin/contracts/access/Ownable.sol\":2912:3099  function _transferOwnership(address newOwner) internal virtual {... */\n  pop\n  jump\t// out\n    /* \"#utility.yul\":7:82   */\ntag_21:\n    /* \"#utility.yul\":40:46   */\n  0x00\n    /* \"#utility.yul\":73:75   */\n  0x40\n    /* \"#utility.yul\":67:76   */\n  mload\n    /* \"#utility.yul\":57:76   */\n  swap1\n  pop\n    /* \"#utility.yul\":7:82   */\n  swap1\n  jump\t// out\n    /* \"#utility.yul\":88:205   */\ntag_22:\n    /* \"#utility.yul\":197:198   */\n  0x00\n    /* \"#utility.yul\":194:195   */\n  dup1\n    /* \"#utility.yul\":187:199   */\n  revert\n    /* \"#utility.yul\":211:328   */\ntag_23:\n    /* \"#utility.yul\":320:321   */\n  0x00\n    /* \"#utility.yul\":317:318   */\n  dup1\n    /* \"#utility.yul\":310:322   */\n  revert\n    /* \"#utility.yul\":334:451   */\ntag_24:\n    /* \"#utility.yul\":443:444   */\n  0x00\n    /* \"#utility.yul\":440:441   */\n  dup1\n    /* \"#utility.yul\":433:445   */\n  revert\n    /* \"#utility.yul\":457:574   */\ntag_25:\n    /* \"#utility.yul\":566:567   */\n  0x00\n    /* \"#utility.yul\":563:564   */\n  dup1\n    /* \"#utility.yul\":556:568   */\n  revert\n    /* \"#utility.yul\":580:682   */\ntag_26:\n    /* \"#utility.yul\":621:627   */\n  0x00\n    /* \"#utility.yul\":672:674   */\n  0x1f\n    /* \"#utility.yul\":668:675   */\n  not\n    /* \"#utility.yul\":663:665   */\n  0x1f\n    /* \"#utility.yul\":656:661   */\n  dup4\n    /* \"#utility.yul\":652:666   */\n  add\n    /* \"#utility.yul\":648:676   */\n  and\n    /* \"#utility.yul\":638:676   */\n  swap1\n  pop\n    /* \"#utility.yul\":580:682   */\n  swap2\n  swap1\n  pop\n  jump\t// out\n    /* \"#utility.yul\":688:868   */\ntag_27:\n    /* \"#utility.yul\":736:813   */\n  0x4e487b7100000000000000000000000000000000000000000000000000000000\n    /* \"#utility.yul\":733:734   */\n  0x00\n    /* \"#utility.yul\":726:814   */\n  mstore\n    /* \"#utility.yul\":833:837   */\n  0x41\n    /* \"#utility.yul\":830:831   */\n  0x04\n    /* \"#utility.yul\":823:838   */\n  mstore\n    /* \"#utility.yul\":857:861   */\n  0x24\n    /* \"#utility.yul\":854:855   */\n  0x00\n    /* \"#utility.yul\":847:862   */\n  revert\n    /* \"#utility.yul\":874:1155   */\ntag_28:\n    /* \"#utility.yul\":957:984   */\n  tag_65\n    /* \"#utility.yul\":979:983   */\n  dup3\n    /* \"#utility.yul\":957:984   */\n  tag_26\n  jump\t// in\ntag_65:\n    /* \"#utility.yul\":949:955   */\n  dup2\n    /* \"#utility.yul\":945:985   */\n  add\n    /* \"#utility.yul\":1087:1093   */\n  dup2\n    /* \"#utility.yul\":1075:1085   */\n  dup2\n    /* \"#utility.yul\":1072:1094   */\n  lt\n    /* \"#utility.yul\":1051:1069   */\n  0xffffffffffffffff\n    /* \"#utility.yul\":1039:1049   */\n  dup3\n    /* \"#utility.yul\":1036:1070   */\n  gt\n    /* \"#utility.yul\":1033:1095   */\n  or\n    /* \"#utility.yul\":1030:1118   */\n  iszero\n  tag_66\n  jumpi\n    /* \"#utility.yul\":1098:1116   */\n  tag_67\n  tag_27\n  jump\t// in\ntag_67:\n    /* \"#utility.yul\":1030:1118   */\ntag_66:\n    /* \"#utility.yul\":1138:1148   */\n  dup1\n    /* \"#utility.yul\":1134:1136   */\n  0x40\n    /* \"#utility.yul\":1127:1149   */\n  mstore\n    /* \"#utility.yul\":917:1155   */\n  pop\n    /* \"#utility.yul\":874:1155   */\n  pop\n  pop\n  jump\t// out\n    /* \"#utility.yul\":1161:1290   */\ntag_29:\n    /* \"#utility.yul\":1195:1201   */\n  0x00\n    /* \"#utility.yul\":1222:1242   */\n  tag_69\n  tag_21\n  jump\t// in\ntag_69:\n    /* \"#utility.yul\":1212:1242   */\n  swap1\n  pop\n    /* \"#utility.yul\":1251:1284   */\n  tag_70\n    /* \"#utility.yul\":1279:1283   */\n  dup3\n    /* \"#utility.yul\":1271:1277   */\n  dup3\n    /* \"#utility.yul\":1251:1284   */\n  tag_28\n  jump\t// in\ntag_70:\n    /* \"#utility.yul\":1161:1290   */\n  swap2\n  swap1\n  pop\n  jump\t// out\n    /* \"#utility.yul\":1296:1604   */\ntag_30:\n    /* \"#utility.yul\":1358:1362   */\n  0x00\n    /* \"#utility.yul\":1448:1466   */\n  0xffffffffffffffff\n    /* \"#utility.yul\":1440:1446   */\n  dup3\n    /* \"#utility.yul\":1437:1467   */\n  gt\n    /* \"#utility.yul\":1434:1490   */\n  iszero\n  tag_72\n  jumpi\n    /* \"#utility.yul\":1470:1488   */\n  tag_73\n  tag_27\n  jump\t// in\ntag_73:\n    /* \"#utility.yul\":1434:1490   */\ntag_72:\n    /* \"#utility.yul\":1508:1537   */\n  tag_74\n    /* \"#utility.yul\":1530:1536   */\n  dup3\n    /* \"#utility.yul\":1508:1537   */\n  tag_26\n  jump\t// in\ntag_74:\n    /* \"#utility.yul\":1500:1537   */\n  swap1\n  pop\n    /* \"#utility.yul\":1592:1596   */\n  0x20\n    /* \"#utility.yul\":1586:1590   */\n  dup2\n    /* \"#utility.yul\":1582:1597   */\n  add\n    /* \"#utility.yul\":1574:1597   */\n  swap1\n  pop\n    /* \"#utility.yul\":1296:1604   */\n  swap2\n  swap1\n  pop\n  jump\t// out\n    /* \"#utility.yul\":1610:1749   */\ntag_31:\n    /* \"#utility.yul\":1699:1705   */\n  dup3\n    /* \"#utility.yul\":1694:1697   */\n  dup2\n    /* \"#utility.yul\":1689:1692   */\n  dup4\n    /* \"#utility.yul\":1683:1706   */\n  mcopy\n    /* \"#utility.yul\":1740:1741   */\n  0x00\n    /* \"#utility.yul\":1731:1737   */\n  dup4\n    /* \"#utility.yul\":1726:1729   */\n  dup4\n    /* \"#utility.yul\":1722:1738   */\n  add\n    /* \"#utility.yul\":1715:1742   */\n  mstore\n    /* \"#utility.yul\":1610:1749   */\n  pop\n  pop\n  pop\n  jump\t// out\n    /* \"#utility.yul\":1755:2189   */\ntag_32:\n    /* \"#utility.yul\":1844:1849   */\n  0x00\n    /* \"#utility.yul\":1869:1935   */\n  tag_77\n    /* \"#utility.yul\":1885:1934   */\n  tag_78\n    /* \"#utility.yul\":1927:1933   */\n  dup5\n    /* \"#utility.yul\":1885:1934   */\n  tag_30\n  jump\t// in\ntag_78:\n    /* \"#utility.yul\":1869:1935   */\n  tag_29\n  jump\t// in\ntag_77:\n    /* \"#utility.yul\":1860:1935   */\n  swap1\n  pop\n    /* \"#utility.yul\":1958:1964   */\n  dup3\n    /* \"#utility.yul\":1951:1956   */\n  dup2\n    /* \"#utility.yul\":1944:1965   */\n  mstore\n    /* \"#utility.yul\":1996:2000   */\n  0x20\n    /* \"#utility.yul\":1989:1994   */\n  dup2\n    /* \"#utility.yul\":1985:2001   */\n  add\n    /* \"#utility.yul\":2034:2037   */\n  dup5\n    /* \"#utility.yul\":2025:2031   */\n  dup5\n    /* \"#utility.yul\":2020:2023   */\n  dup5\n    /* \"#utility.yul\":2016:2032   */\n  add\n    /* \"#utility.yul\":2013:2038   */\n  gt\n    /* \"#utility.yul\":2010:2122   */\n  iszero\n  tag_79\n  jumpi\n    /* \"#utility.yul\":2041:2120   */\n  tag_80\n  tag_25\n  jump\t// in\ntag_80:\n    /* \"#utility.yul\":2010:2122   */\ntag_79:\n    /* \"#utility.yul\":2131:2183   */\n  tag_81\n    /* \"#utility.yul\":2176:2182   */\n  dup5\n    /* \"#utility.yul\":2171:2174   */\n  dup3\n    /* \"#utility.yul\":2166:2169   */\n  dup6\n    /* \"#utility.yul\":2131:2183   */\n  tag_31\n  jump\t// in\ntag_81:\n    /* \"#utility.yul\":1850:2189   */\n  pop\n    /* \"#utility.yul\":1755:2189   */\n  swap4\n  swap3\n  pop\n  pop\n  pop\n  jump\t// out\n    /* \"#utility.yul\":2209:2564   */\ntag_33:\n    /* \"#utility.yul\":2276:2281   */\n  0x00\n    /* \"#utility.yul\":2325:2328   */\n  dup3\n    /* \"#utility.yul\":2318:2322   */\n  0x1f\n    /* \"#utility.yul\":2310:2316   */\n  dup4\n    /* \"#utility.yul\":2306:2323   */\n  add\n    /* \"#utility.yul\":2302:2329   */\n  slt\n    /* \"#utility.yul\":2292:2414   */\n  tag_83\n  jumpi\n    /* \"#utility.yul\":2333:2412   */\n  tag_84\n  tag_24\n  jump\t// in\ntag_84:\n    /* \"#utility.yul\":2292:2414   */\ntag_83:\n    /* \"#utility.yul\":2443:2449   */\n  dup2\n    /* \"#utility.yul\":2437:2450   */\n  mload\n    /* \"#utility.yul\":2468:2558   */\n  tag_85\n    /* \"#utility.yul\":2554:2557   */\n  dup5\n    /* \"#utility.yul\":2546:2552   */\n  dup3\n    /* \"#utility.yul\":2539:2543   */\n  0x20\n    /* \"#utility.yul\":2531:2537   */\n  dup7\n    /* \"#utility.yul\":2527:2544   */\n  add\n    /* \"#utility.yul\":2468:2558   */\n  tag_32\n  jump\t// in\ntag_85:\n    /* \"#utility.yul\":2459:2558   */\n  swap2\n  pop\n    /* \"#utility.yul\":2282:2564   */\n  pop\n    /* \"#utility.yul\":2209:2564   */\n  swap3\n  swap2\n  pop\n  pop\n  jump\t// out\n    /* \"#utility.yul\":2570:3752   */\ntag_3:\n    /* \"#utility.yul\":2688:2694   */\n  0x00\n    /* \"#utility.yul\":2696:2702   */\n  dup1\n    /* \"#utility.yul\":2704:2710   */\n  0x00\n    /* \"#utility.yul\":2753:2755   */\n  0x60\n    /* \"#utility.yul\":2741:2750   */\n  dup5\n    /* \"#utility.yul\":2732:2739   */\n  dup7\n    /* \"#utility.yul\":2728:2751   */\n  sub\n    /* \"#utility.yul\":2724:2756   */\n  slt\n    /* \"#utility.yul\":2721:2840   */\n  iszero\n  tag_87\n  jumpi\n    /* \"#utility.yul\":2759:2838   */\n  tag_88\n  tag_22\n  jump\t// in\ntag_88:\n    /* \"#utility.yul\":2721:2840   */\ntag_87:\n    /* \"#utility.yul\":2900:2901   */\n  0x00\n    /* \"#utility.yul\":2889:2898   */\n  dup5\n    /* \"#utility.yul\":2885:2902   */\n  add\n    /* \"#utility.yul\":2879:2903   */\n  mload\n    /* \"#utility.yul\":2930:2948   */\n  0xffffffffffffffff\n    /* \"#utility.yul\":2922:2928   */\n  dup2\n    /* \"#utility.yul\":2919:2949   */\n  gt\n    /* \"#utility.yul\":2916:3033   */\n  iszero\n  tag_89\n  jumpi\n    /* \"#utility.yul\":2952:3031   */\n  tag_90\n  tag_23\n  jump\t// in\ntag_90:\n    /* \"#utility.yul\":2916:3033   */\ntag_89:\n    /* \"#utility.yul\":3057:3131   */\n  tag_91\n    /* \"#utility.yul\":3123:3130   */\n  dup7\n    /* \"#utility.yul\":3114:3120   */\n  dup3\n    /* \"#utility.yul\":3103:3112   */\n  dup8\n    /* \"#utility.yul\":3099:3121   */\n  add\n    /* \"#utility.yul\":3057:3131   */\n  tag_33\n  jump\t// in\ntag_91:\n    /* \"#utility.yul\":3047:3131   */\n  swap4\n  pop\n    /* \"#utility.yul\":2850:3141   */\n  pop\n    /* \"#utility.yul\":3201:3203   */\n  0x20\n    /* \"#utility.yul\":3190:3199   */\n  dup5\n    /* \"#utility.yul\":3186:3204   */\n  add\n    /* \"#utility.yul\":3180:3205   */\n  mload\n    /* \"#utility.yul\":3232:3250   */\n  0xffffffffffffffff\n    /* \"#utility.yul\":3224:3230   */\n  dup2\n    /* \"#utility.yul\":3221:3251   */\n  gt\n    /* \"#utility.yul\":3218:3335   */\n  iszero\n  tag_92\n  jumpi\n    /* \"#utility.yul\":3254:3333   */\n  tag_93\n  tag_23\n  jump\t// in\ntag_93:\n    /* \"#utility.yul\":3218:3335   */\ntag_92:\n    /* \"#utility.yul\":3359:3433   */\n  tag_94\n    /* \"#utility.yul\":3425:3432   */\n  dup7\n    /* \"#utility.yul\":3416:3422   */\n  dup3\n    /* \"#utility.yul\":3405:3414   */\n  dup8\n    /* \"#utility.yul\":3401:3423   */\n  add\n    /* \"#utility.yul\":3359:3433   */\n  tag_33\n  jump\t// in\ntag_94:\n    /* \"#utility.yul\":3349:3433   */\n  swap3\n  pop\n    /* \"#utility.yul\":3151:3443   */\n  pop\n    /* \"#utility.yul\":3503:3505   */\n  0x40\n    /* \"#utility.yul\":3492:3501   */\n  dup5\n    /* \"#utility.yul\":3488:3506   */\n  add\n    /* \"#utility.yul\":3482:3507   */\n  mload\n    /* \"#utility.yul\":3534:3552   */\n  0xffffffffffffffff\n    /* \"#utility.yul\":3526:3532   */\n  dup2\n    /* \"#utility.yul\":3523:3553   */\n  gt\n    /* \"#utility.yul\":3520:3637   */\n  iszero\n  tag_95\n  jumpi\n    /* \"#utility.yul\":3556:3635   */\n  tag_96\n  tag_23\n  jump\t// in\ntag_96:\n    /* \"#utility.yul\":3520:3637   */\ntag_95:\n    /* \"#utility.yul\":3661:3735   */\n  tag_97\n    /* \"#utility.yul\":3727:3734   */\n  dup7\n    /* \"#utility.yul\":3718:3724   */\n  dup3\n    /* \"#utility.yul\":3707:3716   */\n  dup8\n    /* \"#utility.yul\":3703:3725   */\n  add\n    /* \"#utility.yul\":3661:3735   */\n  tag_33\n  jump\t// in\ntag_97:\n    /* \"#utility.yul\":3651:3735   */\n  swap2\n  pop\n    /* \"#utility.yul\":3453:3745   */\n  pop\n    /* \"#utility.yul\":2570:3752   */\n  swap3\n  pop\n  swap3\n  pop\n  swap3\n  jump\t// out\n    /* \"#utility.yul\":3758:3884   */\ntag_34:\n    /* \"#utility.yul\":3795:3802   */\n  0x00\n    /* \"#utility.yul\":3835:3877   */\n  0xffffffffffffffffffffffffffffffffffffffff\n    /* \"#utility.yul\":3828:3833   */\n  dup3\n    /* \"#utility.yul\":3824:3878   */\n  and\n    /* \"#utility.yul\":3813:3878   */\n  swap1\n  pop\n    /* \"#utility.yul\":3758:3884   */\n  swap2\n  swap1\n  pop\n  jump\t// out\n    /* \"#utility.yul\":3890:3986   */\ntag_35:\n    /* \"#utility.yul\":3927:3934   */\n  0x00\n    /* \"#utility.yul\":3956:3980   */\n  tag_100\n    /* \"#utility.yul\":3974:3979   */\n  dup3\n    /* \"#utility.yul\":3956:3980   */\n  tag_34\n  jump\t// in\ntag_100:\n    /* \"#utility.yul\":3945:3980   */\n  swap1\n  pop\n    /* \"#utility.yul\":3890:3986   */\n  swap2\n  swap1\n  pop\n  jump\t// out\n    /* \"#utility.yul\":3992:4110   */\ntag_36:\n    /* \"#utility.yul\":4079:4103   */\n  tag_102\n    /* \"#utility.yul\":4097:4102   */\n  dup2\n    /* \"#utility.yul\":4079:4103   */\n  tag_35\n  jump\t// in\ntag_102:\n    /* \"#utility.yul\":4074:4077   */\n  dup3\n    /* \"#utility.yul\":4067:4104   */\n  mstore\n    /* \"#utility.yul\":3992:4110   */\n  pop\n  pop\n  jump\t// out\n    /* \"#utility.yul\":4116:4338   */\ntag_10:\n    /* \"#utility.yul\":4209:4213   */\n  0x00\n    /* \"#utility.yul\":4247:4249   */\n  0x20\n    /* \"#utility.yul\":4236:4245   */\n  dup3\n    /* \"#utility.yul\":4232:4250   */\n  add\n    /* \"#utility.yul\":4224:4250   */\n  swap1\n  pop\n    /* \"#utility.yul\":4260:4331   */\n  tag_104\n    /* \"#utility.yul\":4328:4329   */\n  0x00\n    /* \"#utility.yul\":4317:4326   */\n  dup4\n    /* \"#utility.yul\":4313:4330   */\n  add\n    /* \"#utility.yul\":4304:4310   */\n  dup5\n    /* \"#utility.yul\":4260:4331   */\n  tag_36\n  jump\t// in\ntag_104:\n    /* \"#utility.yul\":4116:4338   */\n  swap3\n  swap2\n  pop\n  pop\n  jump\t// out\n    /* \"#utility.yul\":4344:4443   */\ntag_37:\n    /* \"#utility.yul\":4396:4402   */\n  0x00\n    /* \"#utility.yul\":4430:4435   */\n  dup2\n    /* \"#utility.yul\":4424:4436   */\n  mload\n    /* \"#utility.yul\":4414:4436   */\n  swap1\n  pop\n    /* \"#utility.yul\":4344:4443   */\n  swap2\n  swap1\n  pop\n  jump\t// out\n    /* \"#utility.yul\":4449:4629   */\ntag_38:\n    /* \"#utility.yul\":4497:4574   */\n  0x4e487b7100000000000000000000000000000000000000000000000000000000\n    /* \"#utility.yul\":4494:4495   */\n  0x00\n    /* \"#utility.yul\":4487:4575   */\n  mstore\n    /* \"#utility.yul\":4594:4598   */\n  0x22\n    /* \"#utility.yul\":4591:4592   */\n  0x04\n    /* \"#utility.yul\":4584:4599   */\n  mstore\n    /* \"#utility.yul\":4618:4622   */\n  0x24\n    /* \"#utility.yul\":4615:4616   */\n  0x00\n    /* \"#utility.yul\":4608:4623   */\n  revert\n    /* \"#utility.yul\":4635:4955   */\ntag_39:\n    /* \"#utility.yul\":4679:4685   */\n  0x00\n    /* \"#utility.yul\":4716:4717   */\n  0x02\n    /* \"#utility.yul\":4710:4714   */\n  dup3\n    /* \"#utility.yul\":4706:4718   */\n  div\n    /* \"#utility.yul\":4696:4718   */\n  swap1\n  pop\n    /* \"#utility.yul\":4763:4764   */\n  0x01\n    /* \"#utility.yul\":4757:4761   */\n  dup3\n    /* \"#utility.yul\":4753:4765   */\n  and\n    /* \"#utility.yul\":4784:4802   */\n  dup1\n    /* \"#utility.yul\":4774:4855   */\n  tag_108\n  jumpi\n    /* \"#utility.yul\":4840:4844   */\n  0x7f\n    /* \"#utility.yul\":4832:4838   */\n  dup3\n    /* \"#utility.yul\":4828:4845   */\n  and\n    /* \"#utility.yul\":4818:4845   */\n  swap2\n  pop\n    /* \"#utility.yul\":4774:4855   */\ntag_108:\n    /* \"#utility.yul\":4902:4904   */\n  0x20\n    /* \"#utility.yul\":4894:4900   */\n  dup3\n    /* \"#utility.yul\":4891:4905   */\n  lt\n    /* \"#utility.yul\":4871:4889   */\n  dup2\n    /* \"#utility.yul\":4868:4906   */\n  sub\n    /* \"#utility.yul\":4865:4949   */\n  tag_109\n  jumpi\n    /* \"#utility.yul\":4921:4939   */\n  tag_110\n  tag_38\n  jump\t// in\ntag_110:\n    /* \"#utility.yul\":4865:4949   */\ntag_109:\n    /* \"#utility.yul\":4686:4955   */\n  pop\n    /* \"#utility.yul\":4635:4955   */\n  swap2\n  swap1\n  pop\n  jump\t// out\n    /* \"#utility.yul\":4961:5102   */\ntag_40:\n    /* \"#utility.yul\":5010:5014   */\n  0x00\n    /* \"#utility.yul\":5033:5036   */\n  dup2\n    /* \"#utility.yul\":5025:5036   */\n  swap1\n  pop\n    /* \"#utility.yul\":5056:5059   */\n  dup2\n    /* \"#utility.yul\":5053:5054   */\n  0x00\n    /* \"#utility.yul\":5046:5060   */\n  mstore\n    /* \"#utility.yul\":5090:5094   */\n  0x20\n    /* \"#utility.yul\":5087:5088   */\n  0x00\n    /* \"#utility.yul\":5077:5095   */\n  keccak256\n    /* \"#utility.yul\":5069:5095   */\n  swap1\n  pop\n    /* \"#utility.yul\":4961:5102   */\n  swap2\n  swap1\n  pop\n  jump\t// out\n    /* \"#utility.yul\":5108:5201   */\ntag_41:\n    /* \"#utility.yul\":5145:5151   */\n  0x00\n    /* \"#utility.yul\":5192:5194   */\n  0x20\n    /* \"#utility.yul\":5187:5189   */\n  0x1f\n    /* \"#utility.yul\":5180:5185   */\n  dup4\n    /* \"#utility.yul\":5176:5190   */\n  add\n    /* \"#utility.yul\":5172:5195   */\n  div\n    /* \"#utility.yul\":5162:5195   */\n  swap1\n  pop\n    /* \"#utility.yul\":5108:5201   */\n  swap2\n  swap1\n  pop\n  jump\t// out\n    /* \"#utility.yul\":5207:5314   */\ntag_42:\n    /* \"#utility.yul\":5251:5259   */\n  0x00\n    /* \"#utility.yul\":5301:5306   */\n  dup3\n    /* \"#utility.yul\":5295:5299   */\n  dup3\n    /* \"#utility.yul\":5291:5307   */\n  shl\n    /* \"#utility.yul\":5270:5307   */\n  swap1\n  pop\n    /* \"#utility.yul\":5207:5314   */\n  swap3\n  swap2\n  pop\n  pop\n  jump\t// out\n    /* \"#utility.yul\":5320:5713   */\ntag_43:\n    /* \"#utility.yul\":5389:5395   */\n  0x00\n    /* \"#utility.yul\":5439:5440   */\n  0x08\n    /* \"#utility.yul\":5427:5437   */\n  dup4\n    /* \"#utility.yul\":5423:5441   */\n  mul\n    /* \"#utility.yul\":5462:5559   */\n  tag_115\n    /* \"#utility.yul\":5492:5558   */\n  0xffffffffffffffffffffffffffffffffffffffffffffffffffffffffffffffff\n    /* \"#utility.yul\":5481:5490   */\n  dup3\n    /* \"#utility.yul\":5462:5559   */\n  tag_42\n  jump\t// in\ntag_115:\n    /* \"#utility.yul\":5580:5619   */\n  tag_116\n    /* \"#utility.yul\":5610:5618   */\n  dup7\n    /* \"#utility.yul\":5599:5608   */\n  dup4\n    /* \"#utility.yul\":5580:5619   */\n  tag_42\n  jump\t// in\ntag_116:\n    /* \"#utility.yul\":5568:5619   */\n  swap6\n  pop\n    /* \"#utility.yul\":5652:5656   */\n  dup1\n    /* \"#utility.yul\":5648:5657   */\n  not\n    /* \"#utility.yul\":5641:5646   */\n  dup5\n    /* \"#utility.yul\":5637:5658   */\n  and\n    /* \"#utility.yul\":5628:5658   */\n  swap4\n  pop\n    /* \"#utility.yul\":5701:5705   */\n  dup1\n    /* \"#utility.yul\":5691:5699   */\n  dup7\n    /* \"#utility.yul\":5687:5706   */\n  and\n    /* \"#utility.yul\":5680:5685   */\n  dup5\n    /* \"#utility.yul\":5677:5707   */\n  or\n    /* \"#utility.yul\":5667:5707   */\n  swap3\n  pop\n    /* \"#utility.yul\":5396:5713   */\n  pop\n  pop\n    /* \"#utility.yul\":5320:5713   */\n  swap4\n  swap3\n  pop\n  pop\n  pop\n  jump\t// out\n    /* \"#utility.yul\":5719:5796   */\ntag_44:\n    /* \"#utility.yul\":5756:5763   */\n  0x00\n    /* \"#utility.yul\":5785:5790   */\n  dup2\n    /* \"#utility.yul\":5774:5790   */\n  swap1\n  pop\n    /* \"#utility.yul\":5719:5796   */\n  swap2\n  swap1\n  pop\n  jump\t// out\n    /* \"#utility.yul\":5802:5862   */\ntag_45:\n    /* \"#utility.yul\":5830:5833   */\n  0x00\n    /* \"#utility.yul\":5851:5856   */\n  dup2\n    /* \"#utility.yul\":5844:5856   */\n  swap1\n  pop\n    /* \"#utility.yul\":5802:5862   */\n  swap2\n  swap1\n  pop\n  jump\t// out\n    /* \"#utility.yul\":5868:6010   */\ntag_46:\n    /* \"#utility.yul\":5918:5927   */\n  0x00\n    /* \"#utility.yul\":5951:6004   */\n  tag_120\n    /* \"#utility.yul\":5969:6003   */\n  tag_121\n    /* \"#utility.yul\":5978:6002   */\n  tag_122\n    /* \"#utility.yul\":5996:6001   */\n  dup5\n    /* \"#utility.yul\":5978:6002   */\n  tag_44\n  jump\t// in\ntag_122:\n    /* \"#utility.yul\":5969:6003   */\n  tag_45\n  jump\t// in\ntag_121:\n    /* \"#utility.yul\":5951:6004   */\n  tag_44\n  jump\t// in\ntag_120:\n    /* \"#utility.yul\":5938:6004   */\n  swap1\n  pop\n    /* \"#utility.yul\":5868:6010   */\n  swap2\n  swap1\n  pop\n  jump\t// out\n    /* \"#utility.yul\":6016:6091   */\ntag_47:\n    /* \"#utility.yul\":6059:6062   */\n  0x00\n    /* \"#utility.yul\":6080:6085   */\n  dup2\n    /* \"#utility.yul\":6073:6085   */\n  swap1\n  pop\n    /* \"#utility.yul\":6016:6091   */\n  swap2\n  swap1\n  pop\n  jump\t// out\n    /* \"#utility.yul\":6097:6366   */\ntag_48:\n    /* \"#utility.yul\":6207:6246   */\n  tag_125\n    /* \"#utility.yul\":6238:6245   */\n  dup4\n    /* \"#utility.yul\":6207:6246   */\n  tag_46\n  jump\t// in\ntag_125:\n    /* \"#utility.yul\":6268:6359   */\n  tag_126\n    /* \"#utility.yul\":6317:6358   */\n  tag_127\n    /* \"#utility.yul\":6341:6357   */\n  dup3\n    /* \"#utility.yul\":6317:6358   */\n  tag_47\n  jump\t// in\ntag_127:\n    /* \"#utility.yul\":6309:6315   */\n  dup5\n    /* \"#utility.yul\":6302:6306   */\n  dup5\n    /* \"#utility.yul\":6296:6307   */\n  sload\n    /* \"#utility.yul\":6268:6359   */\n  tag_43\n  jump\t// in\ntag_126:\n    /* \"#utility.yul\":6262:6266   */\n  dup3\n    /* \"#utility.yul\":6255:6360   */\n  sstore\n    /* \"#utility.yul\":6173:6366   */\n  pop\n    /* \"#utility.yul\":6097:6366   */\n  pop\n  pop\n  pop\n  jump\t// out\n    /* \"#utility.yul\":6372:6445   */\ntag_49:\n    /* \"#utility.yul\":6417:6420   */\n  0x00\n    /* \"#utility.yul\":6372:6445   */\n  swap1\n  jump\t// out\n    /* \"#utility.yul\":6451:6640   */\ntag_50:\n    /* \"#utility.yul\":6528:6560   */\n  tag_130\n  tag_49\n  jump\t// in\ntag_130:\n    /* \"#utility.yul\":6569:6634   */\n  tag_131\n    /* \"#utility.yul\":6627:6633   */\n  dup2\n    /* \"#utility.yul\":6619:6625   */\n  dup5\n    /* \"#utility.yul\":6613:6617   */\n  dup5\n    /* \"#utility.yul\":6569:6634   */\n  tag_48\n  jump\t// in\ntag_131:\n    /* \"#utility.yul\":6504:6640   */\n  pop\n    /* \"#utility.yul\":6451:6640   */\n  pop\n  pop\n  jump\t// out\n    /* \"#utility.yul\":6646:6832   */\ntag_51:\n    /* \"#utility.yul\":6706:6826   */\ntag_133:\n    /* \"#utility.yul\":6723:6726   */\n  dup2\n    /* \"#utility.yul\":6716:6721   */\n  dup2\n    /* \"#utility.yul\":6713:6727   */\n  lt\n    /* \"#utility.yul\":6706:6826   */\n  iszero\n  tag_135\n  jumpi\n    /* \"#utility.yul\":6777:6816   */\n  tag_136\n    /* \"#utility.yul\":6814:6815   */\n  0x00\n    /* \"#utility.yul\":6807:6812   */\n  dup3\n    /* \"#utility.yul\":6777:6816   */\n  tag_50\n  jump\t// in\ntag_136:\n    /* \"#utility.yul\":6750:6751   */\n  0x01\n    /* \"#utility.yul\":6743:6748   */\n  dup2\n    /* \"#utility.yul\":6739:6752   */\n  add\n    /* \"#utility.yul\":6730:6752   */\n  swap1\n  pop\n    /* \"#utility.yul\":6706:6826   */\n  jump(tag_133)\ntag_135:\n    /* \"#utility.yul\":6646:6832   */\n  pop\n  pop\n  jump\t// out\n    /* \"#utility.yul\":6838:7381   */\ntag_52:\n    /* \"#utility.yul\":6939:6941   */\n  0x1f\n    /* \"#utility.yul\":6934:6937   */\n  dup3\n    /* \"#utility.yul\":6931:6942   */\n  gt\n    /* \"#utility.yul\":6928:7374   */\n  iszero\n  tag_138\n  jumpi\n    /* \"#utility.yul\":6973:7011   */\n  tag_139\n    /* \"#utility.yul\":7005:7010   */\n  dup2\n    /* \"#utility.yul\":6973:7011   */\n  tag_40\n  jump\t// in\ntag_139:\n    /* \"#utility.yul\":7057:7086   */\n  tag_140\n    /* \"#utility.yul\":7075:7085   */\n  dup5\n    /* \"#utility.yul\":7057:7086   */\n  tag_41\n  jump\t// in\ntag_140:\n    /* \"#utility.yul\":7047:7055   */\n  dup2\n    /* \"#utility.yul\":7043:7087   */\n  add\n    /* \"#utility.yul\":7240:7242   */\n  0x20\n    /* \"#utility.yul\":7228:7238   */\n  dup6\n    /* \"#utility.yul\":7225:7243   */\n  lt\n    /* \"#utility.yul\":7222:7271   */\n  iszero\n  tag_141\n  jumpi\n    /* \"#utility.yul\":7261:7269   */\n  dup2\n    /* \"#utility.yul\":7246:7269   */\n  swap1\n  pop\n    /* \"#utility.yul\":7222:7271   */\ntag_141:\n    /* \"#utility.yul\":7284:7364   */\n  tag_142\n    /* \"#utility.yul\":7340:7362   */\n  tag_143\n    /* \"#utility.yul\":7358:7361   */\n  dup6\n    /* \"#utility.yul\":7340:7362   */\n  tag_41\n  jump\t// in\ntag_143:\n    /* \"#utility.yul\":7330:7338   */\n  dup4\n    /* \"#utility.yul\":7326:7363   */\n  add\n    /* \"#utility.yul\":7313:7324   */\n  dup3\n    /* \"#utility.yul\":7284:7364   */\n  tag_51\n  jump\t// in\ntag_142:\n    /* \"#utility.yul\":6943:7374   */\n  pop\n  pop\n    /* \"#utility.yul\":6928:7374   */\ntag_138:\n    /* \"#utility.yul\":6838:7381   */\n  pop\n  pop\n  pop\n  jump\t// out\n    /* \"#utility.yul\":7387:7504   */\ntag_53:\n    /* \"#utility.yul\":7441:7449   */\n  0x00\n    /* \"#utility.yul\":7491:7496   */\n  dup3\n    /* \"#utility.yul\":7485:7489   */\n  dup3\n    /* \"#utility.yul\":7481:7497   */\n  shr\n    /* \"#utility.yul\":7460:7497   */\n  swap1\n  pop\n    /* \"#utility.yul\":7387:7504   */\n  swap3\n  swap2\n  pop\n  pop\n  jump\t// out\n    /* \"#utility.yul\":7510:7679   */\ntag_54:\n    /* \"#utility.yul\":7554:7560   */\n  0x00\n    /* \"#utility.yul\":7587:7638   */\n  tag_146\n    /* \"#utility.yul\":7635:7636   */\n  0x00\n    /* \"#utility.yul\":7631:7637   */\n  not\n    /* \"#utility.yul\":7623:7628   */\n  dup5\n    /* \"#utility.yul\":7620:7621   */\n  0x08\n    /* \"#utility.yul\":7616:7629   */\n  mul\n    /* \"#utility.yul\":7587:7638   */\n  tag_53\n  jump\t// in\ntag_146:\n    /* \"#utility.yul\":7583:7639   */\n  not\n    /* \"#utility.yul\":7668:7672   */\n  dup1\n    /* \"#utility.yul\":7662:7666   */\n  dup4\n    /* \"#utility.yul\":7658:7673   */\n  and\n    /* \"#utility.yul\":7648:7673   */\n  swap2\n  pop\n    /* \"#utility.yul\":7561:7679   */\n  pop\n    /* \"#utility.yul\":7510:7679   */\n  swap3\n  swap2\n  pop\n  pop\n  jump\t// out\n    /* \"#utility.yul\":7684:7979   */\ntag_55:\n    /* \"#utility.yul\":7760:7764   */\n  0x00\n    /* \"#utility.yul\":7906:7935   */\n  tag_148\n    /* \"#utility.yul\":7931:7934   */\n  dup4\n    /* \"#utility.yul\":7925:7929   */\n  dup4\n    /* \"#utility.yul\":7906:7935   */\n  tag_54\n  jump\t// in\ntag_148:\n    /* \"#utility.yul\":7898:7935   */\n  swap2\n  pop\n    /* \"#utility.yul\":7968:7971   */\n  dup3\n    /* \"#utility.yul\":7965:7966   */\n  0x02\n    /* \"#utility.yul\":7961:7972   */\n  mul\n    /* \"#utility.yul\":7955:7959   */\n  dup3\n    /* \"#utility.yul\":7952:7973   */\n  or\n    /* \"#utility.yul\":7944:7973   */\n  swap1\n  pop\n    /* \"#utility.yul\":7684:7979   */\n  swap3\n  swap2\n  pop\n  pop\n  jump\t// out\n    /* \"#utility.yul\":7984:9379   */\ntag_15:\n    /* \"#utility.yul\":8101:8138   */\n  tag_150\n    /* \"#utility.yul\":8134:8137   */\n  dup3\n    /* \"#utility.yul\":8101:8138   */\n  tag_37\n  jump\t// in\ntag_150:\n    /* \"#utility.yul\":8203:8221   */\n  0xffffffffffffffff\n    /* \"#utility.yul\":8195:8201   */\n  dup2\n    /* \"#utility.yul\":8192:8222   */\n  gt\n    /* \"#utility.yul\":8189:8245   */\n  iszero\n  tag_151\n  jumpi\n    /* \"#utility.yul\":8225:8243   */\n  tag_152\n  tag_27\n  jump\t// in\ntag_152:\n    /* \"#utility.yul\":8189:8245   */\ntag_151:\n    /* \"#utility.yul\":8269:8307   */\n  tag_153\n    /* \"#utility.yul\":8301:8305   */\n  dup3\n    /* \"#utility.yul\":8295:8306   */\n  sload\n    /* \"#utility.yul\":8269:8307   */\n  tag_39\n  jump\t// in\ntag_153:\n    /* \"#utility.yul\":8354:8421   */\n  tag_154\n    /* \"#utility.yul\":8414:8420   */\n  dup3\n    /* \"#utility.yul\":8406:8412   */\n  dup3\n    /* \"#utility.yul\":8400:8404   */\n  dup6\n    /* \"#utility.yul\":8354:8421   */\n  tag_52\n  jump\t// in\ntag_154:\n    /* \"#utility.yul\":8448:8449   */\n  0x00\n    /* \"#utility.yul\":8472:8476   */\n  0x20\n    /* \"#utility.yul\":8459:8476   */\n  swap1\n  pop\n    /* \"#utility.yul\":8504:8506   */\n  0x1f\n    /* \"#utility.yul\":8496:8502   */\n  dup4\n    /* \"#utility.yul\":8493:8507   */\n  gt\n    /* \"#utility.yul\":8521:8522   */\n  0x01\n    /* \"#utility.yul\":8516:9134   */\n  dup2\n  eq\n  tag_156\n  jumpi\n    /* \"#utility.yul\":9178:9179   */\n  0x00\n    /* \"#utility.yul\":9195:9201   */\n  dup5\n    /* \"#utility.yul\":9192:9269   */\n  iszero\n  tag_157\n  jumpi\n    /* \"#utility.yul\":9244:9253   */\n  dup3\n    /* \"#utility.yul\":9239:9242   */\n  dup8\n    /* \"#utility.yul\":9235:9254   */\n  add\n    /* \"#utility.yul\":9229:9255   */\n  mload\n    /* \"#utility.yul\":9220:9255   */\n  swap1\n  pop\n    /* \"#utility.yul\":9192:9269   */\ntag_157:\n    /* \"#utility.yul\":9295:9362   */\n  tag_158\n    /* \"#utility.yul\":9355:9361   */\n  dup6\n    /* \"#utility.yul\":9348:9353   */\n  dup3\n    /* \"#utility.yul\":9295:9362   */\n  tag_55\n  jump\t// in\ntag_158:\n    /* \"#utility.yul\":9289:9293   */\n  dup7\n    /* \"#utility.yul\":9282:9363   */\n  sstore\n    /* \"#utility.yul\":9151:9373   */\n  pop\n    /* \"#utility.yul\":8486:9373   */\n  jump(tag_155)\n    /* \"#utility.yul\":8516:9134   */\ntag_156:\n    /* \"#utility.yul\":8568:8572   */\n  0x1f\n    /* \"#utility.yul\":8564:8573   */\n  not\n    /* \"#utility.yul\":8556:8562   */\n  dup5\n    /* \"#utility.yul\":8552:8574   */\n  and\n    /* \"#utility.yul\":8602:8639   */\n  tag_159\n    /* \"#utility.yul\":8634:8638   */\n  dup7\n    /* \"#utility.yul\":8602:8639   */\n  tag_40\n  jump\t// in\ntag_159:\n    /* \"#utility.yul\":8661:8662   */\n  0x00\n    /* \"#utility.yul\":8675:8883   */\ntag_160:\n    /* \"#utility.yul\":8689:8696   */\n  dup3\n    /* \"#utility.yul\":8686:8687   */\n  dup2\n    /* \"#utility.yul\":8683:8697   */\n  lt\n    /* \"#utility.yul\":8675:8883   */\n  iszero\n  tag_162\n  jumpi\n    /* \"#utility.yul\":8768:8777   */\n  dup5\n    /* \"#utility.yul\":8763:8766   */\n  dup10\n    /* \"#utility.yul\":8759:8778   */\n  add\n    /* \"#utility.yul\":8753:8779   */\n  mload\n    /* \"#utility.yul\":8745:8751   */\n  dup3\n    /* \"#utility.yul\":8738:8780   */\n  sstore\n    /* \"#utility.yul\":8819:8820   */\n  0x01\n    /* \"#utility.yul\":8811:8817   */\n  dup3\n    /* \"#utility.yul\":8807:8821   */\n  add\n    /* \"#utility.yul\":8797:8821   */\n  swap2\n  pop\n    /* \"#utility.yul\":8866:8868   */\n  0x20\n    /* \"#utility.yul\":8855:8864   */\n  dup6\n    /* \"#utility.yul\":8851:8869   */\n  add\n    /* \"#utility.yul\":8838:8869   */\n  swap5\n  pop\n    /* \"#utility.yul\":8712:8716   */\n  0x20\n    /* \"#utility.yul\":8709:8710   */\n  dup2\n    /* \"#utility.yul\":8705:8717   */\n  add\n    /* \"#utility.yul\":8700:8717   */\n  swap1\n  pop\n    /* \"#utility.yul\":8675:8883   */\n  jump(tag_160)\ntag_162:\n    /* \"#utility.yul\":8911:8917   */\n  dup7\n    /* \"#utility.yul\":8902:8909   */\n  dup4\n    /* \"#utility.yul\":8899:8918   */\n  lt\n    /* \"#utility.yul\":8896:9075   */\n  iszero\n  tag_163\n  jumpi\n    /* \"#utility.yul\":8969:8978   */\n  dup5\n    /* \"#utility.yul\":8964:8967   */\n  dup10\n    /* \"#utility.yul\":8960:8979   */\n  add\n    /* \"#utility.yul\":8954:8980   */\n  mload\n    /* \"#utility.yul\":9012:9060   */\n  tag_164\n    /* \"#utility.yul\":9054:9058   */\n  0x1f\n    /* \"#utility.yul\":9046:9052   */\n  dup10\n    /* \"#utility.yul\":9042:9059   */\n  and\n    /* \"#utility.yul\":9031:9040   */\n  dup3\n    /* \"#utility.yul\":9012:9060   */\n  tag_54\n  jump\t// in\ntag_164:\n    /* \"#utility.yul\":9004:9010   */\n  dup4\n    /* \"#utility.yul\":8997:9061   */\n  sstore\n    /* \"#utility.yul\":8919:9075   */\n  pop\n    /* \"#utility.yul\":8896:9075   */\ntag_163:\n    /* \"#utility.yul\":9121:9122   */\n  0x01\n    /* \"#utility.yul\":9117:9118   */\n  0x02\n    /* \"#utility.yul\":9109:9115   */\n  dup9\n    /* \"#utility.yul\":9105:9119   */\n  mul\n    /* \"#utility.yul\":9101:9123   */\n  add\n    /* \"#utility.yul\":9095:9099   */\n  dup9\n    /* \"#utility.yul\":9088:9124   */\n  sstore\n    /* \"#utility.yul\":8523:9134   */\n  pop\n  pop\n  pop\n    /* \"#utility.yul\":8486:9373   */\ntag_155:\n  pop\n    /* \"#utility.yul\":8076:9379   */\n  pop\n  pop\n  pop\n    /* \"#utility.yul\":7984:9379   */\n  pop\n  pop\n  jump\t// out\n    /* \"contracts/MyNft.sol\":222:1163  contract MyNFT is Ownable, ERC721 {... */\ntag_19:\n  dataSize(sub_0)\n  dup1\n  dataOffset(sub_0)\n  0x00\n  codecopy\n  0x00\n  return\nstop\n\nsub_0: assembly {\n        /* \"contracts/MyNft.sol\":222:1163  contract MyNFT is Ownable, ERC721 {... */\n      mstore(0x40, 0x80)\n      callvalue\n      dup1\n      iszero\n      tag_1\n      jumpi\n      0x00\n      dup1\n      revert\n    tag_1:\n      pop\n      jumpi(tag_2, lt(calldatasize, 0x04))\n      shr(0xe0, calldataload(0x00))\n      dup1\n      0x715018a6\n      gt\n      tag_21\n      jumpi\n      dup1\n      0xb88d4fde\n      gt\n      tag_22\n      jumpi\n      dup1\n      0xb88d4fde\n      eq\n      tag_16\n      jumpi\n      dup1\n      0xc87b56dd\n      eq\n      tag_17\n      jumpi\n      dup1\n      0xe985e9c5\n      eq\n      tag_18\n      jumpi\n      dup1\n      0xf2fde38b\n      eq\n      tag_19\n      jumpi\n      dup1\n      0xf6459d47\n      eq\n      tag_20\n      jumpi\n      jump(tag_2)\n    tag_22:\n      dup1\n      0x715018a6\n      eq\n      tag_12\n      jumpi\n      dup1\n      0x8da5cb5b\n      eq\n      tag_13\n      jumpi\n      dup1\n      0x95d89b41\n      eq\n      tag_14\n      jumpi\n      dup1\n      0xa22cb465\n      eq\n      tag_15\n      jumpi\n      jump(tag_2)\n    tag_21:\n      dup1\n      0x23b872dd\n      gt\n      tag_23\n      jumpi\n      dup1\n      0x23b872dd\n      eq\n      tag_7\n      jumpi\n      dup1\n      0x42842e0e\n      eq\n      tag_8\n      jumpi\n      dup1\n      0x532e4849\n      eq\n      tag_9\n      jumpi\n      dup1\n      0x6352211e\n      eq\n      tag_10\n      jumpi\n      dup1\n      0x70a08231\n      eq\n      tag_11\n      jumpi\n      jump(tag_2)\n    tag_23:\n      dup1\n      0x01ffc9a7\n      eq\n      tag_3\n      jumpi\n      dup1\n      0x06fdde03\n      eq\n      tag_4\n      jumpi\n      dup1\n      0x081812fc\n      eq\n      tag_5\n      jumpi\n      dup1\n      0x095ea7b3\n      eq\n      tag_6\n      jumpi\n    tag_2:\n      0x00\n      dup1\n      revert\n        /* \"@openzeppelin/contracts/token/ERC721/ERC721.sol\":1561:1861  function supportsInterface(bytes4 interfaceId) public view virtual override(ERC165, IERC165) returns (bool) {... */\n    tag_3:\n      tag_24\n      0x04\n      dup1\n      calldatasize\n      sub\n      dup2\n      add\n      swap1\n      tag_25\n      swap2\n      swap1\n      tag_26\n      jump\t// in\n    tag_25:\n      tag_27\n      jump\t// in\n    tag_24:\n      mload(0x40)\n      tag_28\n      swap2\n      swap1\n      tag_29\n      jump\t// in\n    tag_28:\n      mload(0x40)\n      dup1\n      swap2\n      sub\n      swap1\n      return\n        /* \"@openzeppelin/contracts/token/ERC721/ERC721.sol\":2365:2454  function name() public view virtual returns (string memory) {... */\n    tag_4:\n      tag_30\n      tag_31\n      jump\t// in\n    tag_30:\n      mload(0x40)\n      tag_32\n      swap2\n      swap1\n      tag_33\n      jump\t// in\n    tag_32:\n      mload(0x40)\n      dup1\n      swap2\n      sub\n      swap1\n      return\n        /* \"@openzeppelin/contracts/token/ERC721/ERC721.sol\":3497:3651  function getApproved(uint256 tokenId) public view virtual returns (address) {... */\n    tag_5:\n      tag_34\n      0x04\n      dup1\n      calldatasize\n      sub\n      dup2\n      add\n      swap1\n      tag_35\n      swap2\n      swap1\n      tag_36\n      jump\t// in\n    tag_35:\n      tag_37\n      jump\t// in\n    tag_34:\n      mload(0x40)\n      tag_38\n      swap2\n      swap1\n      tag_39\n      jump\t// in\n    tag_38:\n      mload(0x40)\n      dup1\n      swap2\n      sub\n      swap1\n      return\n        /* \"@openzeppelin/contracts/token/ERC721/ERC721.sol\":3323:3436  function approve(address to, uint256 tokenId) public virtual {... */\n    tag_6:\n      tag_40\n      0x04\n      dup1\n      calldatasize\n      sub\n      dup2\n      add\n      swap1\n      tag_41\n      swap2\n      swap1\n      tag_42\n      jump\t// in\n    tag_41:\n      tag_43\n      jump\t// in\n    tag_40:\n      stop\n        /* \"@openzeppelin/contracts/token/ERC721/ERC721.sol\":4143:4721  function transferFrom(address from, address to, uint256 tokenId) public virtual {... */\n    tag_7:\n      tag_44\n      0x04\n      dup1\n      calldatasize\n      sub\n      dup2\n      add\n      swap1\n      tag_45\n      swap2\n      swap1\n      tag_46\n      jump\t// in\n    tag_45:\n      tag_47\n      jump\t// in\n    tag_44:\n      stop\n        /* \"@openzeppelin/contracts/token/ERC721/ERC721.sol\":4787:4919  function safeTransferFrom(address from, address to, uint256 tokenId) public {... */\n    tag_8:\n      tag_48\n      0x04\n      dup1\n      calldatasize\n      sub\n      dup2\n      add\n      swap1\n      tag_49\n      swap2\n      swap1\n      tag_46\n      jump\t// in\n    tag_49:\n      tag_50\n      jump\t// in\n    tag_48:\n      stop\n        /* \"contracts/MyNft.sol\":1047:1161  function setTokenUriPrefix(string memory _newPrefix) public onlyOwner {... */\n    tag_9:\n      tag_51\n      0x04\n      dup1\n      calldatasize\n      sub\n      dup2\n      add\n      swap1\n      tag_52\n      swap2\n      swap1\n      tag_53\n      jump\t// in\n    tag_52:\n      tag_54\n      jump\t// in\n    tag_51:\n      stop\n        /* \"@openzeppelin/contracts/token/ERC721/ERC721.sol\":2185:2303  function ownerOf(uint256 tokenId) public view virtual returns (address) {... */\n    tag_10:\n      tag_55\n      0x04\n      dup1\n      calldatasize\n      sub\n      dup2\n      add\n      swap1\n      tag_56\n      swap2\n      swap1\n      tag_36\n      jump\t// in\n    tag_56:\n      tag_57\n      jump\t// in\n    tag_55:\n      mload(0x40)\n      tag_58\n      swap2\n      swap1\n      tag_39\n      jump\t// in\n    tag_58:\n      mload(0x40)\n      dup1\n      swap2\n      sub\n      swap1\n      return\n        /* \"@openzeppelin/contracts/token/ERC721/ERC721.sol\":1920:2128  function balanceOf(address owner) public view virtual returns (uint256) {... */\n    tag_11:\n      tag_59\n      0x04\n      dup1\n      calldatasize\n      sub\n      dup2\n      add\n      swap1\n      tag_60\n      swap2\n      swap1\n      tag_61\n      jump\t// in\n    tag_60:\n      tag_62\n      jump\t// in\n    tag_59:\n      mload(0x40)\n      tag_63\n      swap2\n      swap1\n      tag_64\n      jump\t// in\n    tag_63:\n      mload(0x40)\n      dup1\n      swap2\n      sub\n      swap1\n      return\n        /* \"@openzeppelin/contracts/access/Ownable.sol\":2293:2394  function renounceOwnership() public virtual onlyOwner {... */\n    tag_12:\n      tag_65\n      tag_66\n      jump\t// in\n    tag_65:\n      stop\n        /* \"@openzeppelin/contracts/access/Ownable.sol\":1638:1723  function owner() public view virtual returns (address) {... */\n    tag_13:\n      tag_67\n      tag_68\n      jump\t// in\n    tag_67:\n      mload(0x40)\n      tag_69\n      swap2\n      swap1\n      tag_39\n      jump\t// in\n    tag_69:\n      mload(0x40)\n      dup1\n      swap2\n      sub\n      swap1\n      return\n        /* \"@openzeppelin/contracts/token/ERC721/ERC721.sol\":2518:2611  function symbol() public view virtual returns (string memory) {... */\n    tag_14:\n      tag_70\n      tag_71\n      jump\t// in\n    tag_70:\n      mload(0x40)\n      tag_72\n      swap2\n      swap1\n      tag_33\n      jump\t// in\n    tag_72:\n      mload(0x40)\n      dup1\n      swap2\n      sub\n      swap1\n      return\n        /* \"@openzeppelin/contracts/token/ERC721/ERC721.sol\":3718:3862  function setApprovalForAll(address operator, bool approved) public virtual {... */\n    tag_15:\n      tag_73\n      0x04\n      dup1\n      calldatasize\n      sub\n      dup2\n      add\n      swap1\n      tag_74\n      swap2\n      swap1\n      tag_75\n      jump\t// in\n    tag_74:\n      tag_76\n      jump\t// in\n    tag_73:\n      stop\n        /* \"@openzeppelin/contracts/token/ERC721/ERC721.sol\":4985:5193  function safeTransferFrom(address from, address to, uint256 tokenId, bytes memory data) public virtual {... */\n    tag_16:\n      tag_77\n      0x04\n      dup1\n      calldatasize\n      sub\n      dup2\n      add\n      swap1\n      tag_78\n      swap2\n      swap1\n      tag_79\n      jump\t// in\n    tag_78:\n      tag_80\n      jump\t// in\n    tag_77:\n      stop\n        /* \"contracts/MyNft.sol\":820:1041  function tokenURI(uint256 _tokenId) public view override returns (string memory) {... */\n    tag_17:\n      tag_81\n      0x04\n      dup1\n      calldatasize\n      sub\n      dup2\n      add\n      swap1\n      tag_82\n      swap2\n      swap1\n      tag_36\n      jump\t// in\n    tag_82:\n      tag_83\n      jump\t// in\n    tag_81:\n      mload(0x40)\n      tag_84\n      swap2\n      swap1\n      tag_33\n      jump\t// in\n    tag_84:\n      mload(0x40)\n      dup1\n      swap2\n      sub\n      swap1\n      return\n        /* \"@openzeppelin/contracts/token/ERC721/ERC721.sol\":3928:4081  function isApprovedForAll(address owner, address operator) public view virtual returns (bool) {... */\n    tag_18:\n      tag_85\n      0x04\n      dup1\n      calldatasize\n      sub\n      dup2\n      add\n      swap1\n      tag_86\n      swap2\n      swap1\n      tag_87\n      jump\t// in\n    tag_86:\n      tag_88\n      jump\t// in\n    tag_85:\n      mload(0x40)\n      tag_89\n      swap2\n      swap1\n      tag_29\n      jump\t// in\n    tag_89:\n      mload(0x40)\n      dup1\n      swap2\n      sub\n      swap1\n      return\n        /* \"@openzeppelin/contracts/access/Ownable.sol\":2543:2758  function transferOwnership(address newOwner) public virtual onlyOwner {... */\n    tag_19:\n      tag_90\n      0x04\n      dup1\n      calldatasize\n      sub\n      dup2\n      add\n      swap1\n      tag_91\n      swap2\n      swap1\n      tag_61\n      jump\t// in\n    tag_91:\n      tag_92\n      jump\t// in\n    tag_90:\n      stop\n        /* \"contracts/MyNft.sol\":688:814  function createNft(uint256 _tokenId) public onlyOwner() {... */\n    tag_20:\n      tag_93\n      0x04\n      dup1\n      calldatasize\n      sub\n      dup2\n      add\n      swap1\n      tag_94\n      swap2\n      swap1\n      tag_36\n      jump\t// in\n    tag_94:\n      tag_95\n      jump\t// in\n    tag_93:\n      stop\n        /* \"@openzeppelin/contracts/token/ERC721/ERC721.sol\":1561:1861  function supportsInterface(bytes4 interfaceId) public view virtual override(ERC165, IERC165) returns (bool) {... */\n    tag_27:\n        /* \"@openzeppelin/contracts/token/ERC721/ERC721.sol\":1663:1667  bool */\n      0x00\n        /* \"@openzeppelin/contracts/token/ERC721/ERC721.sol\":1713:1738  type(IERC721).interfaceId */\n      0x80ac58cd00000000000000000000000000000000000000000000000000000000\n        /* \"@openzeppelin/contracts/token/ERC721/ERC721.sol\":1698:1738  interfaceId == type(IERC721).interfaceId */\n      not(0xffffffffffffffffffffffffffffffffffffffffffffffffffffffff)\n      and\n        /* \"@openzeppelin/contracts/token/ERC721/ERC721.sol\":1698:1709  interfaceId */\n      dup3\n        /* \"@openzeppelin/contracts/token/ERC721/ERC721.sol\":1698:1738  interfaceId == type(IERC721).interfaceId */\n      not(0xffffffffffffffffffffffffffffffffffffffffffffffffffffffff)\n      and\n      eq\n        /* \"@openzeppelin/contracts/token/ERC721/ERC721.sol\":1698:1802  interfaceId == type(IERC721).interfaceId ||... */\n      dup1\n      tag_97\n      jumpi\n      pop\n        /* \"@openzeppelin/contracts/token/ERC721/ERC721.sol\":1769:1802  type(IERC721Metadata).interfaceId */\n      0x5b5e139f00000000000000000000000000000000000000000000000000000000\n        /* \"@openzeppelin/contracts/token/ERC721/ERC721.sol\":1754:1802  interfaceId == type(IERC721Metadata).interfaceId */\n      not(0xffffffffffffffffffffffffffffffffffffffffffffffffffffffff)\n      and\n        /* \"@openzeppelin/contracts/token/ERC721/ERC721.sol\":1754:1765  interfaceId */\n      dup3\n        /* \"@openzeppelin/contracts/token/ERC721/ERC721.sol\":1754:1802  interfaceId == type(IERC721Metadata).interfaceId */\n      not(0xffffffffffffffffffffffffffffffffffffffffffffffffffffffff)\n      and\n      eq\n        /* \"@openzeppelin/contracts/token/ERC721/ERC721.sol\":1698:1802  interfaceId == type(IERC721).interfaceId ||... */\n    tag_97:\n        /* \"@openzeppelin/contracts/token/ERC721/ERC721.sol\":1698:1854  interfaceId == type(IERC721).interfaceId ||... */\n      dup1\n      tag_98\n      jumpi\n      pop\n        /* \"@openzeppelin/contracts/token/ERC721/ERC721.sol\":1818:1854  super.supportsInterface(interfaceId) */\n      tag_99\n        /* \"@openzeppelin/contracts/token/ERC721/ERC721.sol\":1842:1853  interfaceId */\n      dup3\n        /* \"@openzeppelin/contracts/token/ERC721/ERC721.sol\":1818:1841  super.supportsInterface */\n      tag_100\n        /* \"@openzeppelin/contracts/token/ERC721/ERC721.sol\":1818:1854  super.supportsInterface(interfaceId) */\n      jump\t// in\n    tag_99:\n        /* \"@openzeppelin/contracts/token/ERC721/ERC721.sol\":1698:1854  interfaceId == type(IERC721).interfaceId ||... */\n    tag_98:\n        /* \"@openzeppelin/contracts/token/ERC721/ERC721.sol\":1679:1854  return... */\n      swap1\n      pop\n        /* \"@openzeppelin/contracts/token/ERC721/ERC721.sol\":1561:1861  function supportsInterface(bytes4 interfaceId) public view virtual override(ERC165, IERC165) returns (bool) {... */\n      swap2\n      swap1\n      pop\n      jump\t// out\n        /* \"@openzeppelin/contracts/token/ERC721/ERC721.sol\":2365:2454  function name() public view virtual returns (string memory) {... */\n    tag_31:\n        /* \"@openzeppelin/contracts/token/ERC721/ERC721.sol\":2410:2423  string memory */\n      0x60\n        /* \"@openzeppelin/contracts/token/ERC721/ERC721.sol\":2442:2447  _name */\n      0x01\n        /* \"@openzeppelin/contracts/token/ERC721/ERC721.sol\":2435:2447  return _name */\n      dup1\n      sload\n      tag_102\n      swap1\n      tag_103\n      jump\t// in\n    tag_102:\n      dup1\n      0x1f\n      add\n      0x20\n      dup1\n      swap2\n      div\n      mul\n      0x20\n      add\n      mload(0x40)\n      swap1\n      dup2\n      add\n      0x40\n      mstore\n      dup1\n      swap3\n      swap2\n      swap1\n      dup2\n      dup2\n      mstore\n      0x20\n      add\n      dup3\n      dup1\n      sload\n      tag_104\n      swap1\n      tag_103\n      jump\t// in\n    tag_104:\n      dup1\n      iszero\n      tag_105\n      jumpi\n      dup1\n      0x1f\n      lt\n      tag_106\n      jumpi\n      0x0100\n      dup1\n      dup4\n      sload\n      div\n      mul\n      dup4\n      mstore\n      swap2\n      0x20\n      add\n      swap2\n      jump(tag_105)\n    tag_106:\n      dup3\n      add\n      swap2\n      swap1\n      0x00\n      mstore\n      keccak256(0x00, 0x20)\n      swap1\n    tag_107:\n      dup2\n      sload\n      dup2\n      mstore\n      swap1\n      0x01\n      add\n      swap1\n      0x20\n      add\n      dup1\n      dup4\n      gt\n      tag_107\n      jumpi\n      dup3\n      swap1\n      sub\n      0x1f\n      and\n      dup3\n      add\n      swap2\n    tag_105:\n      pop\n      pop\n      pop\n      pop\n      pop\n      swap1\n      pop\n        /* \"@openzeppelin/contracts/token/ERC721/ERC721.sol\":2365:2454  function name() public view virtual returns (string memory) {... */\n      swap1\n      jump\t// out\n        /* \"@openzeppelin/contracts/token/ERC721/ERC721.sol\":3497:3651  function getApproved(uint256 tokenId) public view virtual returns (address) {... */\n    tag_37:\n        /* \"@openzeppelin/contracts/token/ERC721/ERC721.sol\":3564:3571  address */\n      0x00\n        /* \"@openzeppelin/contracts/token/ERC721/ERC721.sol\":3583:3605  _requireOwned(tokenId) */\n      tag_109\n        /* \"@openzeppelin/contracts/token/ERC721/ERC721.sol\":3597:3604  tokenId */\n      dup3\n        /* \"@openzeppelin/contracts/token/ERC721/ERC721.sol\":3583:3596  _requireOwned */\n      tag_110\n        /* \"@openzeppelin/contracts/token/ERC721/ERC721.sol\":3583:3605  _requireOwned(tokenId) */\n      jump\t// in\n    tag_109:\n      pop\n        /* \"@openzeppelin/contracts/token/ERC721/ERC721.sol\":3623:3644  _getApproved(tokenId) */\n      tag_111\n        /* \"@openzeppelin/contracts/token/ERC721/ERC721.sol\":3636:3643  tokenId */\n      dup3\n        /* \"@openzeppelin/contracts/token/ERC721/ERC721.sol\":3623:3635  _getApproved */\n      tag_112\n        /* \"@openzeppelin/contracts/token/ERC721/ERC721.sol\":3623:3644  _getApproved(tokenId) */\n      jump\t// in\n    tag_111:\n        /* \"@openzeppelin/contracts/token/ERC721/ERC721.sol\":3616:3644  return _getApproved(tokenId) */\n      swap1\n      pop\n        /* \"@openzeppelin/contracts/token/ERC721/ERC721.sol\":3497:3651  function getApproved(uint256 tokenId) public view virtual returns (address) {... */\n      swap2\n      swap1\n      pop\n      jump\t// out\n        /* \"@openzeppelin/contracts/token/ERC721/ERC721.sol\":3323:3436  function approve(address to, uint256 tokenId) public virtual {... */\n    tag_43:\n        /* \"@openzeppelin/contracts/token/ERC721/ERC721.sol\":3394:3429  _approve(to, tokenId, _msgSender()) */\n      tag_114\n        /* \"@openzeppelin/contracts/token/ERC721/ERC721.sol\":3403:3405  to */\n      dup3\n        /* \"@openzeppelin/contracts/token/ERC721/ERC721.sol\":3407:3414  tokenId */\n      dup3\n        /* \"@openzeppelin/contracts/token/ERC721/ERC721.sol\":3416:3428  _msgSender() */\n      tag_115\n        /* \"@openzeppelin/contracts/token/ERC721/ERC721.sol\":3416:3426  _msgSender */\n      tag_116\n        /* \"@openzeppelin/contracts/token/ERC721/ERC721.sol\":3416:3428  _msgSender() */\n      jump\t// in\n    tag_115:\n        /* \"@openzeppelin/contracts/token/ERC721/ERC721.sol\":3394:3402  _approve */\n      tag_117\n        /* \"@openzeppelin/contracts/token/ERC721/ERC721.sol\":3394:3429  _approve(to, tokenId, _msgSender()) */\n      jump\t// in\n    tag_114:\n        /* \"@openzeppelin/contracts/token/ERC721/ERC721.sol\":3323:3436  function approve(address to, uint256 tokenId) public virtual {... */\n      pop\n      pop\n      jump\t// out\n        /* \"@openzeppelin/contracts/token/ERC721/ERC721.sol\":4143:4721  function transferFrom(address from, address to, uint256 tokenId) public virtual {... */\n    tag_47:\n        /* \"@openzeppelin/contracts/token/ERC721/ERC721.sol\":4251:4252  0 */\n      0x00\n        /* \"@openzeppelin/contracts/token/ERC721/ERC721.sol\":4237:4253  to == address(0) */\n      0xffffffffffffffffffffffffffffffffffffffff\n      and\n        /* \"@openzeppelin/contracts/token/ERC721/ERC721.sol\":4237:4239  to */\n      dup3\n        /* \"@openzeppelin/contracts/token/ERC721/ERC721.sol\":4237:4253  to == address(0) */\n      0xffffffffffffffffffffffffffffffffffffffff\n      and\n      sub\n        /* \"@openzeppelin/contracts/token/ERC721/ERC721.sol\":4233:4320  if (to == address(0)) {... */\n      tag_119\n      jumpi\n        /* \"@openzeppelin/contracts/token/ERC721/ERC721.sol\":4306:4307  0 */\n      0x00\n        /* \"@openzeppelin/contracts/token/ERC721/ERC721.sol\":4276:4309  ERC721InvalidReceiver(address(0)) */\n      mload(0x40)\n      0x64a0ae9200000000000000000000000000000000000000000000000000000000\n      dup2\n      mstore\n      0x04\n      add\n      tag_120\n      swap2\n      swap1\n      tag_39\n      jump\t// in\n    tag_120:\n      mload(0x40)\n      dup1\n      swap2\n      sub\n      swap1\n      revert\n        /* \"@openzeppelin/contracts/token/ERC721/ERC721.sol\":4233:4320  if (to == address(0)) {... */\n    tag_119:\n        /* \"@openzeppelin/contracts/token/ERC721/ERC721.sol\":4538:4559  address previousOwner */\n      0x00\n        /* \"@openzeppelin/contracts/token/ERC721/ERC721.sol\":4562:4596  _update(to, tokenId, _msgSender()) */\n      tag_121\n        /* \"@openzeppelin/contracts/token/ERC721/ERC721.sol\":4570:4572  to */\n      dup4\n        /* \"@openzeppelin/contracts/token/ERC721/ERC721.sol\":4574:4581  tokenId */\n      dup4\n        /* \"@openzeppelin/contracts/token/ERC721/ERC721.sol\":4583:4595  _msgSender() */\n      tag_122\n        /* \"@openzeppelin/contracts/token/ERC721/ERC721.sol\":4583:4593  _msgSender */\n      tag_116\n        /* \"@openzeppelin/contracts/token/ERC721/ERC721.sol\":4583:4595  _msgSender() */\n      jump\t// in\n    tag_122:\n        /* \"@openzeppelin/contracts/token/ERC721/ERC721.sol\":4562:4569  _update */\n      tag_123\n        /* \"@openzeppelin/contracts/token/ERC721/ERC721.sol\":4562:4596  _update(to, tokenId, _msgSender()) */\n      jump\t// in\n    tag_121:\n        /* \"@openzeppelin/contracts/token/ERC721/ERC721.sol\":4538:4596  address previousOwner = _update(to, tokenId, _msgSender()) */\n      swap1\n      pop\n        /* \"@openzeppelin/contracts/token/ERC721/ERC721.sol\":4627:4631  from */\n      dup4\n        /* \"@openzeppelin/contracts/token/ERC721/ERC721.sol\":4610:4631  previousOwner != from */\n      0xffffffffffffffffffffffffffffffffffffffff\n      and\n        /* \"@openzeppelin/contracts/token/ERC721/ERC721.sol\":4610:4623  previousOwner */\n      dup2\n        /* \"@openzeppelin/contracts/token/ERC721/ERC721.sol\":4610:4631  previousOwner != from */\n      0xffffffffffffffffffffffffffffffffffffffff\n      and\n      eq\n        /* \"@openzeppelin/contracts/token/ERC721/ERC721.sol\":4606:4715  if (previousOwner != from) {... */\n      tag_124\n      jumpi\n        /* \"@openzeppelin/contracts/token/ERC721/ERC721.sol\":4675:4679  from */\n      dup4\n        /* \"@openzeppelin/contracts/token/ERC721/ERC721.sol\":4681:4688  tokenId */\n      dup3\n        /* \"@openzeppelin/contracts/token/ERC721/ERC721.sol\":4690:4703  previousOwner */\n      dup3\n        /* \"@openzeppelin/contracts/token/ERC721/ERC721.sol\":4654:4704  ERC721IncorrectOwner(from, tokenId, previousOwner) */\n      mload(0x40)\n      0x64283d7b00000000000000000000000000000000000000000000000000000000\n      dup2\n      mstore\n      0x04\n      add\n      tag_125\n      swap4\n      swap3\n      swap2\n      swap1\n      tag_126\n      jump\t// in\n    tag_125:\n      mload(0x40)\n      dup1\n      swap2\n      sub\n      swap1\n      revert\n        /* \"@openzeppelin/contracts/token/ERC721/ERC721.sol\":4606:4715  if (previousOwner != from) {... */\n    tag_124:\n        /* \"@openzeppelin/contracts/token/ERC721/ERC721.sol\":4223:4721  {... */\n      pop\n        /* \"@openzeppelin/contracts/token/ERC721/ERC721.sol\":4143:4721  function transferFrom(address from, address to, uint256 tokenId) public virtual {... */\n      pop\n      pop\n      pop\n      jump\t// out\n        /* \"@openzeppelin/contracts/token/ERC721/ERC721.sol\":4787:4919  function safeTransferFrom(address from, address to, uint256 tokenId) public {... */\n    tag_50:\n        /* \"@openzeppelin/contracts/token/ERC721/ERC721.sol\":4873:4912  safeTransferFrom(from, to, tokenId, \"\") */\n      tag_128\n        /* \"@openzeppelin/contracts/token/ERC721/ERC721.sol\":4890:4894  from */\n      dup4\n        /* \"@openzeppelin/contracts/token/ERC721/ERC721.sol\":4896:4898  to */\n      dup4\n        /* \"@openzeppelin/contracts/token/ERC721/ERC721.sol\":4900:4907  tokenId */\n      dup4\n        /* \"@openzeppelin/contracts/token/ERC721/ERC721.sol\":4873:4912  safeTransferFrom(from, to, tokenId, \"\") */\n      mload(0x40)\n      dup1\n      0x20\n      add\n      0x40\n      mstore\n      dup1\n      0x00\n      dup2\n      mstore\n      pop\n        /* \"@openzeppelin/contracts/token/ERC721/ERC721.sol\":4873:4889  safeTransferFrom */\n      tag_80\n        /* \"@openzeppelin/contracts/token/ERC721/ERC721.sol\":4873:4912  safeTransferFrom(from, to, tokenId, \"\") */\n      jump\t// in\n    tag_128:\n        /* \"@openzeppelin/contracts/token/ERC721/ERC721.sol\":4787:4919  function safeTransferFrom(address from, address to, uint256 tokenId) public {... */\n      pop\n      pop\n      pop\n      jump\t// out\n        /* \"contracts/MyNft.sol\":1047:1161  function setTokenUriPrefix(string memory _newPrefix) public onlyOwner {... */\n    tag_54:\n        /* \"@openzeppelin/contracts/access/Ownable.sol\":1531:1544  _checkOwner() */\n      tag_130\n        /* \"@openzeppelin/contracts/access/Ownable.sol\":1531:1542  _checkOwner */\n      tag_131\n        /* \"@openzeppelin/contracts/access/Ownable.sol\":1531:1544  _checkOwner() */\n      jump\t// in\n    tag_130:\n        /* \"contracts/MyNft.sol\":1144:1154  _newPrefix */\n      dup1\n        /* \"contracts/MyNft.sol\":1127:1141  tokenUriPreFix */\n      0x07\n        /* \"contracts/MyNft.sol\":1127:1154  tokenUriPreFix = _newPrefix */\n      swap1\n      dup2\n      tag_133\n      swap2\n      swap1\n      tag_134\n      jump\t// in\n    tag_133:\n      pop\n        /* \"contracts/MyNft.sol\":1047:1161  function setTokenUriPrefix(string memory _newPrefix) public onlyOwner {... */\n      pop\n      jump\t// out\n        /* \"@openzeppelin/contracts/token/ERC721/ERC721.sol\":2185:2303  function ownerOf(uint256 tokenId) public view virtual returns (address) {... */\n    tag_57:\n        /* \"@openzeppelin/contracts/token/ERC721/ERC721.sol\":2248:2255  address */\n      0x00\n        /* \"@openzeppelin/contracts/token/ERC721/ERC721.sol\":2274:2296  _requireOwned(tokenId) */\n      tag_136\n        /* \"@openzeppelin/contracts/token/ERC721/ERC721.sol\":2288:2295  tokenId */\n      dup3\n        /* \"@openzeppelin/contracts/token/ERC721/ERC721.sol\":2274:2287  _requireOwned */\n      tag_110\n        /* \"@openzeppelin/contracts/token/ERC721/ERC721.sol\":2274:2296  _requireOwned(tokenId) */\n      jump\t// in\n    tag_136:\n        /* \"@openzeppelin/contracts/token/ERC721/ERC721.sol\":2267:2296  return _requireOwned(tokenId) */\n      swap1\n      pop\n        /* \"@openzeppelin/contracts/token/ERC721/ERC721.sol\":2185:2303  function ownerOf(uint256 tokenId) public view virtual returns (address) {... */\n      swap2\n      swap1\n      pop\n      jump\t// out\n        /* \"@openzeppelin/contracts/token/ERC721/ERC721.sol\":1920:2128  function balanceOf(address owner) public view virtual returns (uint256) {... */\n    tag_62:\n        /* \"@openzeppelin/contracts/token/ERC721/ERC721.sol\":1983:1990  uint256 */\n      0x00\n        /* \"@openzeppelin/contracts/token/ERC721/ERC721.sol\":2023:2024  0 */\n      dup1\n        /* \"@openzeppelin/contracts/token/ERC721/ERC721.sol\":2006:2025  owner == address(0) */\n      0xffffffffffffffffffffffffffffffffffffffff\n      and\n        /* \"@openzeppelin/contracts/token/ERC721/ERC721.sol\":2006:2011  owner */\n      dup3\n        /* \"@openzeppelin/contracts/token/ERC721/ERC721.sol\":2006:2025  owner == address(0) */\n      0xffffffffffffffffffffffffffffffffffffffff\n      and\n      sub\n        /* \"@openzeppelin/contracts/token/ERC721/ERC721.sol\":2002:2089  if (owner == address(0)) {... */\n      tag_138\n      jumpi\n        /* \"@openzeppelin/contracts/token/ERC721/ERC721.sol\":2075:2076  0 */\n      0x00\n        /* \"@openzeppelin/contracts/token/ERC721/ERC721.sol\":2048:2078  ERC721InvalidOwner(address(0)) */\n      mload(0x40)\n      0x89c62b6400000000000000000000000000000000000000000000000000000000\n      dup2\n      mstore\n      0x04\n      add\n      tag_139\n      swap2\n      swap1\n      tag_39\n      jump\t// in\n    tag_139:\n      mload(0x40)\n      dup1\n      swap2\n      sub\n      swap1\n      revert\n        /* \"@openzeppelin/contracts/token/ERC721/ERC721.sol\":2002:2089  if (owner == address(0)) {... */\n    tag_138:\n        /* \"@openzeppelin/contracts/token/ERC721/ERC721.sol\":2105:2114  _balances */\n      0x04\n        /* \"@openzeppelin/contracts/token/ERC721/ERC721.sol\":2105:2121  _balances[owner] */\n      0x00\n        /* \"@openzeppelin/contracts/token/ERC721/ERC721.sol\":2115:2120  owner */\n      dup4\n        /* \"@openzeppelin/contracts/token/ERC721/ERC721.sol\":2105:2121  _balances[owner] */\n      0xffffffffffffffffffffffffffffffffffffffff\n      and\n      0xffffffffffffffffffffffffffffffffffffffff\n      and\n      dup2\n      mstore\n      0x20\n      add\n      swap1\n      dup2\n      mstore\n      0x20\n      add\n      0x00\n      keccak256\n      sload\n        /* \"@openzeppelin/contracts/token/ERC721/ERC721.sol\":2098:2121  return _balances[owner] */\n      swap1\n      pop\n        /* \"@openzeppelin/contracts/token/ERC721/ERC721.sol\":1920:2128  function balanceOf(address owner) public view virtual returns (uint256) {... */\n      swap2\n      swap1\n      pop\n      jump\t// out\n        /* \"@openzeppelin/contracts/access/Ownable.sol\":2293:2394  function renounceOwnership() public virtual onlyOwner {... */\n    tag_66:\n        /* \"@openzeppelin/contracts/access/Ownable.sol\":1531:1544  _checkOwner() */\n      tag_141\n        /* \"@openzeppelin/contracts/access/Ownable.sol\":1531:1542  _checkOwner */\n      tag_131\n        /* \"@openzeppelin/contracts/access/Ownable.sol\":1531:1544  _checkOwner() */\n      jump\t// in\n    tag_141:\n        /* \"@openzeppelin/contracts/access/Ownable.sol\":2357:2387  _transferOwnership(address(0)) */\n      tag_143\n        /* \"@openzeppelin/contracts/access/Ownable.sol\":2384:2385  0 */\n      0x00\n        /* \"@openzeppelin/contracts/access/Ownable.sol\":2357:2375  _transferOwnership */\n      tag_144\n        /* \"@openzeppelin/contracts/access/Ownable.sol\":2357:2387  _transferOwnership(address(0)) */\n      jump\t// in\n    tag_143:\n        /* \"@openzeppelin/contracts/access/Ownable.sol\":2293:2394  function renounceOwnership() public virtual onlyOwner {... */\n      jump\t// out\n        /* \"@openzeppelin/contracts/access/Ownable.sol\":1638:1723  function owner() public view virtual returns (address) {... */\n    tag_68:\n        /* \"@openzeppelin/contracts/access/Ownable.sol\":1684:1691  address */\n      0x00\n        /* \"@openzeppelin/contracts/access/Ownable.sol\":1710:1716  _owner */\n      dup1\n      0x00\n      swap1\n      sload\n      swap1\n      0x0100\n      exp\n      swap1\n      div\n      0xffffffffffffffffffffffffffffffffffffffff\n      and\n        /* \"@openzeppelin/contracts/access/Ownable.sol\":1703:1716  return _owner */\n      swap1\n      pop\n        /* \"@openzeppelin/contracts/access/Ownable.sol\":1638:1723  function owner() public view virtual returns (address) {... */\n      swap1\n      jump\t// out\n        /* \"@openzeppelin/contracts/token/ERC721/ERC721.sol\":2518:2611  function symbol() public view virtual returns (string memory) {... */\n    tag_71:\n        /* \"@openzeppelin/contracts/token/ERC721/ERC721.sol\":2565:2578  string memory */\n      0x60\n        /* \"@openzeppelin/contracts/token/ERC721/ERC721.sol\":2597:2604  _symbol */\n      0x02\n        /* \"@openzeppelin/contracts/token/ERC721/ERC721.sol\":2590:2604  return _symbol */\n      dup1\n      sload\n      tag_147\n      swap1\n      tag_103\n      jump\t// in\n    tag_147:\n      dup1\n      0x1f\n      add\n      0x20\n      dup1\n      swap2\n      div\n      mul\n      0x20\n      add\n      mload(0x40)\n      swap1\n      dup2\n      add\n      0x40\n      mstore\n      dup1\n      swap3\n      swap2\n      swap1\n      dup2\n      dup2\n      mstore\n      0x20\n      add\n      dup3\n      dup1\n      sload\n      tag_148\n      swap1\n      tag_103\n      jump\t// in\n    tag_148:\n      dup1\n      iszero\n      tag_149\n      jumpi\n      dup1\n      0x1f\n      lt\n      tag_150\n      jumpi\n      0x0100\n      dup1\n      dup4\n      sload\n      div\n      mul\n      dup4\n      mstore\n      swap2\n      0x20\n      add\n      swap2\n      jump(tag_149)\n    tag_150:\n      dup3\n      add\n      swap2\n      swap1\n      0x00\n      mstore\n      keccak256(0x00, 0x20)\n      swap1\n    tag_151:\n      dup2\n      sload\n      dup2\n      mstore\n      swap1\n      0x01\n      add\n      swap1\n      0x20\n      add\n      dup1\n      dup4\n      gt\n      tag_151\n      jumpi\n      dup3\n      swap1\n      sub\n      0x1f\n      and\n      dup3\n      add\n      swap2\n    tag_149:\n      pop\n      pop\n      pop\n      pop\n      pop\n      swap1\n      pop\n        /* \"@openzeppelin/contracts/token/ERC721/ERC721.sol\":2518:2611  function symbol() public view virtual returns (string memory) {... */\n      swap1\n      jump\t// out\n        /* \"@openzeppelin/contracts/token/ERC721/ERC721.sol\":3718:3862  function setApprovalForAll(address operator, bool approved) public virtual {... */\n    tag_76:\n        /* \"@openzeppelin/contracts/token/ERC721/ERC721.sol\":3803:3855  _setApprovalForAll(_msgSender(), operator, approved) */\n      tag_153\n        /* \"@openzeppelin/contracts/token/ERC721/ERC721.sol\":3822:3834  _msgSender() */\n      tag_154\n        /* \"@openzeppelin/contracts/token/ERC721/ERC721.sol\":3822:3832  _msgSender */\n      tag_116\n        /* \"@openzeppelin/contracts/token/ERC721/ERC721.sol\":3822:3834  _msgSender() */\n      jump\t// in\n    tag_154:\n        /* \"@openzeppelin/contracts/token/ERC721/ERC721.sol\":3836:3844  operator */\n      dup4\n        /* \"@openzeppelin/contracts/token/ERC721/ERC721.sol\":3846:3854  approved */\n      dup4\n        /* \"@openzeppelin/contracts/token/ERC721/ERC721.sol\":3803:3821  _setApprovalForAll */\n      tag_155\n        /* \"@openzeppelin/contracts/token/ERC721/ERC721.sol\":3803:3855  _setApprovalForAll(_msgSender(), operator, approved) */\n      jump\t// in\n    tag_153:\n        /* \"@openzeppelin/contracts/token/ERC721/ERC721.sol\":3718:3862  function setApprovalForAll(address operator, bool approved) public virtual {... */\n      pop\n      pop\n      jump\t// out\n        /* \"@openzeppelin/contracts/token/ERC721/ERC721.sol\":4985:5193  function safeTransferFrom(address from, address to, uint256 tokenId, bytes memory data) public virtual {... */\n    tag_80:\n        /* \"@openzeppelin/contracts/token/ERC721/ERC721.sol\":5098:5129  transferFrom(from, to, tokenId) */\n      tag_157\n        /* \"@openzeppelin/contracts/token/ERC721/ERC721.sol\":5111:5115  from */\n      dup5\n        /* \"@openzeppelin/contracts/token/ERC721/ERC721.sol\":5117:5119  to */\n      dup5\n        /* \"@openzeppelin/contracts/token/ERC721/ERC721.sol\":5121:5128  tokenId */\n      dup5\n        /* \"@openzeppelin/contracts/token/ERC721/ERC721.sol\":5098:5110  transferFrom */\n      tag_47\n        /* \"@openzeppelin/contracts/token/ERC721/ERC721.sol\":5098:5129  transferFrom(from, to, tokenId) */\n      jump\t// in\n    tag_157:\n        /* \"@openzeppelin/contracts/token/ERC721/ERC721.sol\":5139:5186  _checkOnERC721Received(from, to, tokenId, data) */\n      tag_158\n        /* \"@openzeppelin/contracts/token/ERC721/ERC721.sol\":5162:5166  from */\n      dup5\n        /* \"@openzeppelin/contracts/token/ERC721/ERC721.sol\":5168:5170  to */\n      dup5\n        /* \"@openzeppelin/contracts/token/ERC721/ERC721.sol\":5172:5179  tokenId */\n      dup5\n        /* \"@openzeppelin/contracts/token/ERC721/ERC721.sol\":5181:5185  data */\n      dup5\n        /* \"@openzeppelin/contracts/token/ERC721/ERC721.sol\":5139:5161  _checkOnERC721Received */\n      tag_159\n        /* \"@openzeppelin/contracts/token/ERC721/ERC721.sol\":5139:5186  _checkOnERC721Received(from, to, tokenId, data) */\n      jump\t// in\n    tag_158:\n        /* \"@openzeppelin/contracts/token/ERC721/ERC721.sol\":4985:5193  function safeTransferFrom(address from, address to, uint256 tokenId, bytes memory data) public virtual {... */\n      pop\n      pop\n      pop\n      pop\n      jump\t// out\n        /* \"contracts/MyNft.sol\":820:1041  function tokenURI(uint256 _tokenId) public view override returns (string memory) {... */\n    tag_83:\n        /* \"contracts/MyNft.sol\":886:899  string memory */\n      0x60\n        /* \"contracts/MyNft.sol\":911:939  string memory _valueAsString */\n      0x00\n        /* \"contracts/MyNft.sol\":942:961  _tokenId.toString() */\n      tag_161\n        /* \"contracts/MyNft.sol\":942:950  _tokenId */\n      dup4\n        /* \"contracts/MyNft.sol\":942:959  _tokenId.toString */\n      tag_162\n        /* \"contracts/MyNft.sol\":942:961  _tokenId.toString() */\n      jump\t// in\n    tag_161:\n        /* \"contracts/MyNft.sol\":911:961  string memory _valueAsString = _tokenId.toString() */\n      swap1\n      pop\n        /* \"contracts/MyNft.sol\":1002:1016  tokenUriPreFix */\n      0x07\n        /* \"contracts/MyNft.sol\":1018:1032  _valueAsString */\n      dup2\n        /* \"contracts/MyNft.sol\":985:1033  abi.encodePacked(tokenUriPreFix, _valueAsString) */\n      add(0x20, mload(0x40))\n      tag_163\n      swap3\n      swap2\n      swap1\n      tag_164\n      jump\t// in\n    tag_163:\n      mload(0x40)\n      0x20\n      dup2\n      dup4\n      sub\n      sub\n      dup2\n      mstore\n      swap1\n      0x40\n      mstore\n        /* \"contracts/MyNft.sol\":971:1034  return string(abi.encodePacked(tokenUriPreFix, _valueAsString)) */\n      swap2\n      pop\n      pop\n        /* \"contracts/MyNft.sol\":820:1041  function tokenURI(uint256 _tokenId) public view override returns (string memory) {... */\n      swap2\n      swap1\n      pop\n      jump\t// out\n        /* \"@openzeppelin/contracts/token/ERC721/ERC721.sol\":3928:4081  function isApprovedForAll(address owner, address operator) public view virtual returns (bool) {... */\n    tag_88:\n        /* \"@openzeppelin/contracts/token/ERC721/ERC721.sol\":4016:4020  bool */\n      0x00\n        /* \"@openzeppelin/contracts/token/ERC721/ERC721.sol\":4039:4057  _operatorApprovals */\n      0x06\n        /* \"@openzeppelin/contracts/token/ERC721/ERC721.sol\":4039:4064  _operatorApprovals[owner] */\n      0x00\n        /* \"@openzeppelin/contracts/token/ERC721/ERC721.sol\":4058:4063  owner */\n      dup5\n        /* \"@openzeppelin/contracts/token/ERC721/ERC721.sol\":4039:4064  _operatorApprovals[owner] */\n      0xffffffffffffffffffffffffffffffffffffffff\n      and\n      0xffffffffffffffffffffffffffffffffffffffff\n      and\n      dup2\n      mstore\n      0x20\n      add\n      swap1\n      dup2\n      mstore\n      0x20\n      add\n      0x00\n      keccak256\n        /* \"@openzeppelin/contracts/token/ERC721/ERC721.sol\":4039:4074  _operatorApprovals[owner][operator] */\n      0x00\n        /* \"@openzeppelin/contracts/token/ERC721/ERC721.sol\":4065:4073  operator */\n      dup4\n        /* \"@openzeppelin/contracts/token/ERC721/ERC721.sol\":4039:4074  _operatorApprovals[owner][operator] */\n      0xffffffffffffffffffffffffffffffffffffffff\n      and\n      0xffffffffffffffffffffffffffffffffffffffff\n      and\n      dup2\n      mstore\n      0x20\n      add\n      swap1\n      dup2\n      mstore\n      0x20\n      add\n      0x00\n      keccak256\n      0x00\n      swap1\n      sload\n      swap1\n      0x0100\n      exp\n      swap1\n      div\n      0xff\n      and\n        /* \"@openzeppelin/contracts/token/ERC721/ERC721.sol\":4032:4074  return _operatorApprovals[owner][operator] */\n      swap1\n      pop\n        /* \"@openzeppelin/contracts/token/ERC721/ERC721.sol\":3928:4081  function isApprovedForAll(address owner, address operator) public view virtual returns (bool) {... */\n      swap3\n      swap2\n      pop\n      pop\n      jump\t// out\n        /* \"@openzeppelin/contracts/access/Ownable.sol\":2543:2758  function transferOwnership(address newOwner) public virtual onlyOwner {... */\n    tag_92:\n        /* \"@openzeppelin/contracts/access/Ownable.sol\":1531:1544  _checkOwner() */\n      tag_167\n        /* \"@openzeppelin/contracts/access/Ownable.sol\":1531:1542  _checkOwner */\n      tag_131\n        /* \"@openzeppelin/contracts/access/Ownable.sol\":1531:1544  _checkOwner() */\n      jump\t// in\n    tag_167:\n        /* \"@openzeppelin/contracts/access/Ownable.sol\":2647:2648  0 */\n      0x00\n        /* \"@openzeppelin/contracts/access/Ownable.sol\":2627:2649  newOwner == address(0) */\n      0xffffffffffffffffffffffffffffffffffffffff\n      and\n        /* \"@openzeppelin/contracts/access/Ownable.sol\":2627:2635  newOwner */\n      dup2\n        /* \"@openzeppelin/contracts/access/Ownable.sol\":2627:2649  newOwner == address(0) */\n      0xffffffffffffffffffffffffffffffffffffffff\n      and\n      sub\n        /* \"@openzeppelin/contracts/access/Ownable.sol\":2623:2714  if (newOwner == address(0)) {... */\n      tag_169\n      jumpi\n        /* \"@openzeppelin/contracts/access/Ownable.sol\":2700:2701  0 */\n      0x00\n        /* \"@openzeppelin/contracts/access/Ownable.sol\":2672:2703  OwnableInvalidOwner(address(0)) */\n      mload(0x40)\n      0x1e4fbdf700000000000000000000000000000000000000000000000000000000\n      dup2\n      mstore\n      0x04\n      add\n      tag_170\n      swap2\n      swap1\n      tag_39\n      jump\t// in\n    tag_170:\n      mload(0x40)\n      dup1\n      swap2\n      sub\n      swap1\n      revert\n        /* \"@openzeppelin/contracts/access/Ownable.sol\":2623:2714  if (newOwner == address(0)) {... */\n    tag_169:\n        /* \"@openzeppelin/contracts/access/Ownable.sol\":2723:2751  _transferOwnership(newOwner) */\n      tag_171\n        /* \"@openzeppelin/contracts/access/Ownable.sol\":2742:2750  newOwner */\n      dup2\n        /* \"@openzeppelin/contracts/access/Ownable.sol\":2723:2741  _transferOwnership */\n      tag_144\n        /* \"@openzeppelin/contracts/access/Ownable.sol\":2723:2751  _transferOwnership(newOwner) */\n      jump\t// in\n    tag_171:\n        /* \"@openzeppelin/contracts/access/Ownable.sol\":2543:2758  function transferOwnership(address newOwner) public virtual onlyOwner {... */\n      pop\n      jump\t// out\n        /* \"contracts/MyNft.sol\":688:814  function createNft(uint256 _tokenId) public onlyOwner() {... */\n    tag_95:\n        /* \"@openzeppelin/contracts/access/Ownable.sol\":1531:1544  _checkOwner() */\n      tag_173\n        /* \"@openzeppelin/contracts/access/Ownable.sol\":1531:1542  _checkOwner */\n      tag_131\n        /* \"@openzeppelin/contracts/access/Ownable.sol\":1531:1544  _checkOwner() */\n      jump\t// in\n    tag_173:\n        /* \"contracts/MyNft.sol\":776:807  _safeMint(msg.sender, _tokenId) */\n      tag_175\n        /* \"contracts/MyNft.sol\":786:796  msg.sender */\n      caller\n        /* \"contracts/MyNft.sol\":798:806  _tokenId */\n      dup3\n        /* \"contracts/MyNft.sol\":776:785  _safeMint */\n      tag_176\n        /* \"contracts/MyNft.sol\":776:807  _safeMint(msg.sender, _tokenId) */\n      jump\t// in\n    tag_175:\n        /* \"contracts/MyNft.sol\":688:814  function createNft(uint256 _tokenId) public onlyOwner() {... */\n      pop\n      jump\t// out\n        /* \"@openzeppelin/contracts/utils/introspection/ERC165.sol\":762:908  function supportsInterface(bytes4 interfaceId) public view virtual returns (bool) {... */\n    tag_100:\n        /* \"@openzeppelin/contracts/utils/introspection/ERC165.sol\":838:842  bool */\n      0x00\n        /* \"@openzeppelin/contracts/utils/introspection/ERC165.sol\":876:901  type(IERC165).interfaceId */\n      0x01ffc9a700000000000000000000000000000000000000000000000000000000\n        /* \"@openzeppelin/contracts/utils/introspection/ERC165.sol\":861:901  interfaceId == type(IERC165).interfaceId */\n      not(0xffffffffffffffffffffffffffffffffffffffffffffffffffffffff)\n      and\n        /* \"@openzeppelin/contracts/utils/introspection/ERC165.sol\":861:872  interfaceId */\n      dup3\n        /* \"@openzeppelin/contracts/utils/introspection/ERC165.sol\":861:901  interfaceId == type(IERC165).interfaceId */\n      not(0xffffffffffffffffffffffffffffffffffffffffffffffffffffffff)\n      and\n      eq\n        /* \"@openzeppelin/contracts/utils/introspection/ERC165.sol\":854:901  return interfaceId == type(IERC165).interfaceId */\n      swap1\n      pop\n        /* \"@openzeppelin/contracts/utils/introspection/ERC165.sol\":762:908  function supportsInterface(bytes4 interfaceId) public view virtual returns (bool) {... */\n      swap2\n      swap1\n      pop\n      jump\t// out\n        /* \"@openzeppelin/contracts/token/ERC721/ERC721.sol\":16138:16379  function _requireOwned(uint256 tokenId) internal view returns (address) {... */\n    tag_110:\n        /* \"@openzeppelin/contracts/token/ERC721/ERC721.sol\":16201:16208  address */\n      0x00\n        /* \"@openzeppelin/contracts/token/ERC721/ERC721.sol\":16220:16233  address owner */\n      dup1\n        /* \"@openzeppelin/contracts/token/ERC721/ERC721.sol\":16236:16253  _ownerOf(tokenId) */\n      tag_179\n        /* \"@openzeppelin/contracts/token/ERC721/ERC721.sol\":16245:16252  tokenId */\n      dup4\n        /* \"@openzeppelin/contracts/token/ERC721/ERC721.sol\":16236:16244  _ownerOf */\n      tag_180\n        /* \"@openzeppelin/contracts/token/ERC721/ERC721.sol\":16236:16253  _ownerOf(tokenId) */\n      jump\t// in\n    tag_179:\n        /* \"@openzeppelin/contracts/token/ERC721/ERC721.sol\":16220:16253  address owner = _ownerOf(tokenId) */\n      swap1\n      pop\n        /* \"@openzeppelin/contracts/token/ERC721/ERC721.sol\":16284:16285  0 */\n      0x00\n        /* \"@openzeppelin/contracts/token/ERC721/ERC721.sol\":16267:16286  owner == address(0) */\n      0xffffffffffffffffffffffffffffffffffffffff\n      and\n        /* \"@openzeppelin/contracts/token/ERC721/ERC721.sol\":16267:16272  owner */\n      dup2\n        /* \"@openzeppelin/contracts/token/ERC721/ERC721.sol\":16267:16286  owner == address(0) */\n      0xffffffffffffffffffffffffffffffffffffffff\n      and\n      sub\n        /* \"@openzeppelin/contracts/token/ERC721/ERC721.sol\":16263:16351  if (owner == address(0)) {... */\n      tag_181\n      jumpi\n        /* \"@openzeppelin/contracts/token/ERC721/ERC721.sol\":16332:16339  tokenId */\n      dup3\n        /* \"@openzeppelin/contracts/token/ERC721/ERC721.sol\":16309:16340  ERC721NonexistentToken(tokenId) */\n      mload(0x40)\n      0x7e27328900000000000000000000000000000000000000000000000000000000\n      dup2\n      mstore\n      0x04\n      add\n      tag_182\n      swap2\n      swap1\n      tag_64\n      jump\t// in\n    tag_182:\n      mload(0x40)\n      dup1\n      swap2\n      sub\n      swap1\n      revert\n        /* \"@openzeppelin/contracts/token/ERC721/ERC721.sol\":16263:16351  if (owner == address(0)) {... */\n    tag_181:\n        /* \"@openzeppelin/contracts/token/ERC721/ERC721.sol\":16367:16372  owner */\n      dup1\n        /* \"@openzeppelin/contracts/token/ERC721/ERC721.sol\":16360:16372  return owner */\n      swap2\n      pop\n      pop\n        /* \"@openzeppelin/contracts/token/ERC721/ERC721.sol\":16138:16379  function _requireOwned(uint256 tokenId) internal view returns (address) {... */\n      swap2\n      swap1\n      pop\n      jump\t// out\n        /* \"@openzeppelin/contracts/token/ERC721/ERC721.sol\":5938:6065  function _getApproved(uint256 tokenId) internal view virtual returns (address) {... */\n    tag_112:\n        /* \"@openzeppelin/contracts/token/ERC721/ERC721.sol\":6008:6015  address */\n      0x00\n        /* \"@openzeppelin/contracts/token/ERC721/ERC721.sol\":6034:6049  _tokenApprovals */\n      0x05\n        /* \"@openzeppelin/contracts/token/ERC721/ERC721.sol\":6034:6058  _tokenApprovals[tokenId] */\n      0x00\n        /* \"@openzeppelin/contracts/token/ERC721/ERC721.sol\":6050:6057  tokenId */\n      dup4\n        /* \"@openzeppelin/contracts/token/ERC721/ERC721.sol\":6034:6058  _tokenApprovals[tokenId] */\n      dup2\n      mstore\n      0x20\n      add\n      swap1\n      dup2\n      mstore\n      0x20\n      add\n      0x00\n      keccak256\n      0x00\n      swap1\n      sload\n      swap1\n      0x0100\n      exp\n      swap1\n      div\n      0xffffffffffffffffffffffffffffffffffffffff\n      and\n        /* \"@openzeppelin/contracts/token/ERC721/ERC721.sol\":6027:6058  return _tokenApprovals[tokenId] */\n      swap1\n      pop\n        /* \"@openzeppelin/contracts/token/ERC721/ERC721.sol\":5938:6065  function _getApproved(uint256 tokenId) internal view virtual returns (address) {... */\n      swap2\n      swap1\n      pop\n      jump\t// out\n        /* \"@openzeppelin/contracts/utils/Context.sol\":656:752  function _msgSender() internal view virtual returns (address) {... */\n    tag_116:\n        /* \"@openzeppelin/contracts/utils/Context.sol\":709:716  address */\n      0x00\n        /* \"@openzeppelin/contracts/utils/Context.sol\":735:745  msg.sender */\n      caller\n        /* \"@openzeppelin/contracts/utils/Context.sol\":728:745  return msg.sender */\n      swap1\n      pop\n        /* \"@openzeppelin/contracts/utils/Context.sol\":656:752  function _msgSender() internal view virtual returns (address) {... */\n      swap1\n      jump\t// out\n        /* \"@openzeppelin/contracts/token/ERC721/ERC721.sol\":14418:14538  function _approve(address to, uint256 tokenId, address auth) internal {... */\n    tag_117:\n        /* \"@openzeppelin/contracts/token/ERC721/ERC721.sol\":14498:14531  _approve(to, tokenId, auth, true) */\n      tag_186\n        /* \"@openzeppelin/contracts/token/ERC721/ERC721.sol\":14507:14509  to */\n      dup4\n        /* \"@openzeppelin/contracts/token/ERC721/ERC721.sol\":14511:14518  tokenId */\n      dup4\n        /* \"@openzeppelin/contracts/token/ERC721/ERC721.sol\":14520:14524  auth */\n      dup4\n        /* \"@openzeppelin/contracts/token/ERC721/ERC721.sol\":14526:14530  true */\n      0x01\n        /* \"@openzeppelin/contracts/token/ERC721/ERC721.sol\":14498:14506  _approve */\n      tag_187\n        /* \"@openzeppelin/contracts/token/ERC721/ERC721.sol\":14498:14531  _approve(to, tokenId, auth, true) */\n      jump\t// in\n    tag_186:\n        /* \"@openzeppelin/contracts/token/ERC721/ERC721.sol\":14418:14538  function _approve(address to, uint256 tokenId, address auth) internal {... */\n      pop\n      pop\n      pop\n      jump\t// out\n        /* \"@openzeppelin/contracts/token/ERC721/ERC721.sol\":8838:9633  function _update(address to, uint256 tokenId, address auth) internal virtual returns (address) {... */\n    tag_123:\n        /* \"@openzeppelin/contracts/token/ERC721/ERC721.sol\":8924:8931  address */\n      0x00\n        /* \"@openzeppelin/contracts/token/ERC721/ERC721.sol\":8943:8955  address from */\n      dup1\n        /* \"@openzeppelin/contracts/token/ERC721/ERC721.sol\":8958:8975  _ownerOf(tokenId) */\n      tag_189\n        /* \"@openzeppelin/contracts/token/ERC721/ERC721.sol\":8967:8974  tokenId */\n      dup5\n        /* \"@openzeppelin/contracts/token/ERC721/ERC721.sol\":8958:8966  _ownerOf */\n      tag_180\n        /* \"@openzeppelin/contracts/token/ERC721/ERC721.sol\":8958:8975  _ownerOf(tokenId) */\n      jump\t// in\n    tag_189:\n        /* \"@openzeppelin/contracts/token/ERC721/ERC721.sol\":8943:8975  address from = _ownerOf(tokenId) */\n      swap1\n      pop\n        /* \"@openzeppelin/contracts/token/ERC721/ERC721.sol\":9051:9052  0 */\n      0x00\n        /* \"@openzeppelin/contracts/token/ERC721/ERC721.sol\":9035:9053  auth != address(0) */\n      0xffffffffffffffffffffffffffffffffffffffff\n      and\n        /* \"@openzeppelin/contracts/token/ERC721/ERC721.sol\":9035:9039  auth */\n      dup4\n        /* \"@openzeppelin/contracts/token/ERC721/ERC721.sol\":9035:9053  auth != address(0) */\n      0xffffffffffffffffffffffffffffffffffffffff\n      and\n      eq\n        /* \"@openzeppelin/contracts/token/ERC721/ERC721.sol\":9031:9117  if (auth != address(0)) {... */\n      tag_190\n      jumpi\n        /* \"@openzeppelin/contracts/token/ERC721/ERC721.sol\":9069:9106  _checkAuthorized(from, auth, tokenId) */\n      tag_191\n        /* \"@openzeppelin/contracts/token/ERC721/ERC721.sol\":9086:9090  from */\n      dup2\n        /* \"@openzeppelin/contracts/token/ERC721/ERC721.sol\":9092:9096  auth */\n      dup5\n        /* \"@openzeppelin/contracts/token/ERC721/ERC721.sol\":9098:9105  tokenId */\n      dup7\n        /* \"@openzeppelin/contracts/token/ERC721/ERC721.sol\":9069:9085  _checkAuthorized */\n      tag_192\n        /* \"@openzeppelin/contracts/token/ERC721/ERC721.sol\":9069:9106  _checkAuthorized(from, auth, tokenId) */\n      jump\t// in\n    tag_191:\n        /* \"@openzeppelin/contracts/token/ERC721/ERC721.sol\":9031:9117  if (auth != address(0)) {... */\n    tag_190:\n        /* \"@openzeppelin/contracts/token/ERC721/ERC721.sol\":9177:9178  0 */\n      0x00\n        /* \"@openzeppelin/contracts/token/ERC721/ERC721.sol\":9161:9179  from != address(0) */\n      0xffffffffffffffffffffffffffffffffffffffff\n      and\n        /* \"@openzeppelin/contracts/token/ERC721/ERC721.sol\":9161:9165  from */\n      dup2\n        /* \"@openzeppelin/contracts/token/ERC721/ERC721.sol\":9161:9179  from != address(0) */\n      0xffffffffffffffffffffffffffffffffffffffff\n      and\n      eq\n        /* \"@openzeppelin/contracts/token/ERC721/ERC721.sol\":9157:9413  if (from != address(0)) {... */\n      tag_193\n      jumpi\n        /* \"@openzeppelin/contracts/token/ERC721/ERC721.sol\":9277:9325  _approve(address(0), tokenId, address(0), false) */\n      tag_194\n        /* \"@openzeppelin/contracts/token/ERC721/ERC721.sol\":9294:9295  0 */\n      0x00\n        /* \"@openzeppelin/contracts/token/ERC721/ERC721.sol\":9298:9305  tokenId */\n      dup6\n        /* \"@openzeppelin/contracts/token/ERC721/ERC721.sol\":9315:9316  0 */\n      0x00\n        /* \"@openzeppelin/contracts/token/ERC721/ERC721.sol\":9319:9324  false */\n      dup1\n        /* \"@openzeppelin/contracts/token/ERC721/ERC721.sol\":9277:9285  _approve */\n      tag_187\n        /* \"@openzeppelin/contracts/token/ERC721/ERC721.sol\":9277:9325  _approve(address(0), tokenId, address(0), false) */\n      jump\t// in\n    tag_194:\n        /* \"@openzeppelin/contracts/token/ERC721/ERC721.sol\":9387:9388  1 */\n      0x01\n        /* \"@openzeppelin/contracts/token/ERC721/ERC721.sol\":9368:9377  _balances */\n      0x04\n        /* \"@openzeppelin/contracts/token/ERC721/ERC721.sol\":9368:9383  _balances[from] */\n      0x00\n        /* \"@openzeppelin/contracts/token/ERC721/ERC721.sol\":9378:9382  from */\n      dup4\n        /* \"@openzeppelin/contracts/token/ERC721/ERC721.sol\":9368:9383  _balances[from] */\n      0xffffffffffffffffffffffffffffffffffffffff\n      and\n      0xffffffffffffffffffffffffffffffffffffffff\n      and\n      dup2\n      mstore\n      0x20\n      add\n      swap1\n      dup2\n      mstore\n      0x20\n      add\n      0x00\n      keccak256\n      0x00\n        /* \"@openzeppelin/contracts/token/ERC721/ERC721.sol\":9368:9388  _balances[from] -= 1 */\n      dup3\n      dup3\n      sload\n      sub\n      swap3\n      pop\n      pop\n      dup2\n      swap1\n      sstore\n      pop\n        /* \"@openzeppelin/contracts/token/ERC721/ERC721.sol\":9157:9413  if (from != address(0)) {... */\n    tag_193:\n        /* \"@openzeppelin/contracts/token/ERC721/ERC721.sol\":9441:9442  0 */\n      0x00\n        /* \"@openzeppelin/contracts/token/ERC721/ERC721.sol\":9427:9443  to != address(0) */\n      0xffffffffffffffffffffffffffffffffffffffff\n      and\n        /* \"@openzeppelin/contracts/token/ERC721/ERC721.sol\":9427:9429  to */\n      dup6\n        /* \"@openzeppelin/contracts/token/ERC721/ERC721.sol\":9427:9443  to != address(0) */\n      0xffffffffffffffffffffffffffffffffffffffff\n      and\n      eq\n        /* \"@openzeppelin/contracts/token/ERC721/ERC721.sol\":9423:9530  if (to != address(0)) {... */\n      tag_195\n      jumpi\n        /* \"@openzeppelin/contracts/token/ERC721/ERC721.sol\":9504:9505  1 */\n      0x01\n        /* \"@openzeppelin/contracts/token/ERC721/ERC721.sol\":9487:9496  _balances */\n      0x04\n        /* \"@openzeppelin/contracts/token/ERC721/ERC721.sol\":9487:9500  _balances[to] */\n      0x00\n        /* \"@openzeppelin/contracts/token/ERC721/ERC721.sol\":9497:9499  to */\n      dup8\n        /* \"@openzeppelin/contracts/token/ERC721/ERC721.sol\":9487:9500  _balances[to] */\n      0xffffffffffffffffffffffffffffffffffffffff\n      and\n      0xffffffffffffffffffffffffffffffffffffffff\n      and\n      dup2\n      mstore\n      0x20\n      add\n      swap1\n      dup2\n      mstore\n      0x20\n      add\n      0x00\n      keccak256\n      0x00\n        /* \"@openzeppelin/contracts/token/ERC721/ERC721.sol\":9487:9505  _balances[to] += 1 */\n      dup3\n      dup3\n      sload\n      add\n      swap3\n      pop\n      pop\n      dup2\n      swap1\n      sstore\n      pop\n        /* \"@openzeppelin/contracts/token/ERC721/ERC721.sol\":9423:9530  if (to != address(0)) {... */\n    tag_195:\n        /* \"@openzeppelin/contracts/token/ERC721/ERC721.sol\":9559:9561  to */\n      dup5\n        /* \"@openzeppelin/contracts/token/ERC721/ERC721.sol\":9540:9547  _owners */\n      0x03\n        /* \"@openzeppelin/contracts/token/ERC721/ERC721.sol\":9540:9556  _owners[tokenId] */\n      0x00\n        /* \"@openzeppelin/contracts/token/ERC721/ERC721.sol\":9548:9555  tokenId */\n      dup7\n        /* \"@openzeppelin/contracts/token/ERC721/ERC721.sol\":9540:9556  _owners[tokenId] */\n      dup2\n      mstore\n      0x20\n      add\n      swap1\n      dup2\n      mstore\n      0x20\n      add\n      0x00\n      keccak256\n      0x00\n        /* \"@openzeppelin/contracts/token/ERC721/ERC721.sol\":9540:9561  _owners[tokenId] = to */\n      0x0100\n      exp\n      dup2\n      sload\n      dup2\n      0xffffffffffffffffffffffffffffffffffffffff\n      mul\n      not\n      and\n      swap1\n      dup4\n      0xffffffffffffffffffffffffffffffffffffffff\n      and\n      mul\n      or\n      swap1\n      sstore\n      pop\n        /* \"@openzeppelin/contracts/token/ERC721/ERC721.sol\":9596:9603  tokenId */\n      dup4\n        /* \"@openzeppelin/contracts/token/ERC721/ERC721.sol\":9592:9594  to */\n      dup6\n        /* \"@openzeppelin/contracts/token/ERC721/ERC721.sol\":9577:9604  Transfer(from, to, tokenId) */\n      0xffffffffffffffffffffffffffffffffffffffff\n      and\n        /* \"@openzeppelin/contracts/token/ERC721/ERC721.sol\":9586:9590  from */\n      dup3\n        /* \"@openzeppelin/contracts/token/ERC721/ERC721.sol\":9577:9604  Transfer(from, to, tokenId) */\n      0xffffffffffffffffffffffffffffffffffffffff\n      and\n      0xddf252ad1be2c89b69c2b068fc378daa952ba7f163c4a11628f55a4df523b3ef\n      mload(0x40)\n      mload(0x40)\n      dup1\n      swap2\n      sub\n      swap1\n      log4\n        /* \"@openzeppelin/contracts/token/ERC721/ERC721.sol\":9622:9626  from */\n      dup1\n        /* \"@openzeppelin/contracts/token/ERC721/ERC721.sol\":9615:9626  return from */\n      swap2\n      pop\n      pop\n        /* \"@openzeppelin/contracts/token/ERC721/ERC721.sol\":8838:9633  function _update(address to, uint256 tokenId, address auth) internal virtual returns (address) {... */\n      swap4\n      swap3\n      pop\n      pop\n      pop\n      jump\t// out\n        /* \"@openzeppelin/contracts/access/Ownable.sol\":1796:1958  function _checkOwner() internal view virtual {... */\n    tag_131:\n        /* \"@openzeppelin/contracts/access/Ownable.sol\":1866:1878  _msgSender() */\n      tag_197\n        /* \"@openzeppelin/contracts/access/Ownable.sol\":1866:1876  _msgSender */\n      tag_116\n        /* \"@openzeppelin/contracts/access/Ownable.sol\":1866:1878  _msgSender() */\n      jump\t// in\n    tag_197:\n        /* \"@openzeppelin/contracts/access/Ownable.sol\":1855:1878  owner() != _msgSender() */\n      0xffffffffffffffffffffffffffffffffffffffff\n      and\n        /* \"@openzeppelin/contracts/access/Ownable.sol\":1855:1862  owner() */\n      tag_198\n        /* \"@openzeppelin/contracts/access/Ownable.sol\":1855:1860  owner */\n      tag_68\n        /* \"@openzeppelin/contracts/access/Ownable.sol\":1855:1862  owner() */\n      jump\t// in\n    tag_198:\n        /* \"@openzeppelin/contracts/access/Ownable.sol\":1855:1878  owner() != _msgSender() */\n      0xffffffffffffffffffffffffffffffffffffffff\n      and\n      eq\n        /* \"@openzeppelin/contracts/access/Ownable.sol\":1851:1952  if (owner() != _msgSender()) {... */\n      tag_199\n      jumpi\n        /* \"@openzeppelin/contracts/access/Ownable.sol\":1928:1940  _msgSender() */\n      tag_200\n        /* \"@openzeppelin/contracts/access/Ownable.sol\":1928:1938  _msgSender */\n      tag_116\n        /* \"@openzeppelin/contracts/access/Ownable.sol\":1928:1940  _msgSender() */\n      jump\t// in\n    tag_200:\n        /* \"@openzeppelin/contracts/access/Ownable.sol\":1901:1941  OwnableUnauthorizedAccount(_msgSender()) */\n      mload(0x40)\n      0x118cdaa700000000000000000000000000000000000000000000000000000000\n      dup2\n      mstore\n      0x04\n      add\n      tag_201\n      swap2\n      swap1\n      tag_39\n      jump\t// in\n    tag_201:\n      mload(0x40)\n      dup1\n      swap2\n      sub\n      swap1\n      revert\n        /* \"@openzeppelin/contracts/access/Ownable.sol\":1851:1952  if (owner() != _msgSender()) {... */\n    tag_199:\n        /* \"@openzeppelin/contracts/access/Ownable.sol\":1796:1958  function _checkOwner() internal view virtual {... */\n      jump\t// out\n        /* \"@openzeppelin/contracts/access/Ownable.sol\":2912:3099  function _transferOwnership(address newOwner) internal virtual {... */\n    tag_144:\n        /* \"@openzeppelin/contracts/access/Ownable.sol\":2985:3001  address oldOwner */\n      0x00\n        /* \"@openzeppelin/contracts/access/Ownable.sol\":3004:3010  _owner */\n      dup1\n      0x00\n      swap1\n      sload\n      swap1\n      0x0100\n      exp\n      swap1\n      div\n      0xffffffffffffffffffffffffffffffffffffffff\n      and\n        /* \"@openzeppelin/contracts/access/Ownable.sol\":2985:3010  address oldOwner = _owner */\n      swap1\n      pop\n        /* \"@openzeppelin/contracts/access/Ownable.sol\":3029:3037  newOwner */\n      dup2\n        /* \"@openzeppelin/contracts/access/Ownable.sol\":3020:3026  _owner */\n      0x00\n      dup1\n        /* \"@openzeppelin/contracts/access/Ownable.sol\":3020:3037  _owner = newOwner */\n      0x0100\n      exp\n      dup2\n      sload\n      dup2\n      0xffffffffffffffffffffffffffffffffffffffff\n      mul\n      not\n      and\n      swap1\n      dup4\n      0xffffffffffffffffffffffffffffffffffffffff\n      and\n      mul\n      or\n      swap1\n      sstore\n      pop\n        /* \"@openzeppelin/contracts/access/Ownable.sol\":3083:3091  newOwner */\n      dup2\n        /* \"@openzeppelin/contracts/access/Ownable.sol\":3052:3092  OwnershipTransferred(oldOwner, newOwner) */\n      0xffffffffffffffffffffffffffffffffffffffff\n      and\n        /* \"@openzeppelin/contracts/access/Ownable.sol\":3073:3081  oldOwner */\n      dup2\n        /* \"@openzeppelin/contracts/access/Ownable.sol\":3052:3092  OwnershipTransferred(oldOwner, newOwner) */\n      0xffffffffffffffffffffffffffffffffffffffff\n      and\n      0x8be0079c531659141344cd1fd0a4f28419497f9722a3daafe3b4186f6b6457e0\n      mload(0x40)\n      mload(0x40)\n      dup1\n      swap2\n      sub\n      swap1\n      log3\n        /* \"@openzeppelin/contracts/access/Ownable.sol\":2975:3099  {... */\n      pop\n        /* \"@openzeppelin/contracts/access/Ownable.sol\":2912:3099  function _transferOwnership(address newOwner) internal virtual {... */\n      pop\n      jump\t// out\n        /* \"@openzeppelin/contracts/token/ERC721/ERC721.sol\":15591:15903  function _setApprovalForAll(address owner, address operator, bool approved) internal virtual {... */\n    tag_155:\n        /* \"@openzeppelin/contracts/token/ERC721/ERC721.sol\":15718:15719  0 */\n      0x00\n        /* \"@openzeppelin/contracts/token/ERC721/ERC721.sol\":15698:15720  operator == address(0) */\n      0xffffffffffffffffffffffffffffffffffffffff\n      and\n        /* \"@openzeppelin/contracts/token/ERC721/ERC721.sol\":15698:15706  operator */\n      dup3\n        /* \"@openzeppelin/contracts/token/ERC721/ERC721.sol\":15698:15720  operator == address(0) */\n      0xffffffffffffffffffffffffffffffffffffffff\n      and\n      sub\n        /* \"@openzeppelin/contracts/token/ERC721/ERC721.sol\":15694:15785  if (operator == address(0)) {... */\n      tag_204\n      jumpi\n        /* \"@openzeppelin/contracts/token/ERC721/ERC721.sol\":15765:15773  operator */\n      dup2\n        /* \"@openzeppelin/contracts/token/ERC721/ERC721.sol\":15743:15774  ERC721InvalidOperator(operator) */\n      mload(0x40)\n      0x5b08ba1800000000000000000000000000000000000000000000000000000000\n      dup2\n      mstore\n      0x04\n      add\n      tag_205\n      swap2\n      swap1\n      tag_39\n      jump\t// in\n    tag_205:\n      mload(0x40)\n      dup1\n      swap2\n      sub\n      swap1\n      revert\n        /* \"@openzeppelin/contracts/token/ERC721/ERC721.sol\":15694:15785  if (operator == address(0)) {... */\n    tag_204:\n        /* \"@openzeppelin/contracts/token/ERC721/ERC721.sol\":15832:15840  approved */\n      dup1\n        /* \"@openzeppelin/contracts/token/ERC721/ERC721.sol\":15794:15812  _operatorApprovals */\n      0x06\n        /* \"@openzeppelin/contracts/token/ERC721/ERC721.sol\":15794:15819  _operatorApprovals[owner] */\n      0x00\n        /* \"@openzeppelin/contracts/token/ERC721/ERC721.sol\":15813:15818  owner */\n      dup6\n        /* \"@openzeppelin/contracts/token/ERC721/ERC721.sol\":15794:15819  _operatorApprovals[owner] */\n      0xffffffffffffffffffffffffffffffffffffffff\n      and\n      0xffffffffffffffffffffffffffffffffffffffff\n      and\n      dup2\n      mstore\n      0x20\n      add\n      swap1\n      dup2\n      mstore\n      0x20\n      add\n      0x00\n      keccak256\n        /* \"@openzeppelin/contracts/token/ERC721/ERC721.sol\":15794:15829  _operatorApprovals[owner][operator] */\n      0x00\n        /* \"@openzeppelin/contracts/token/ERC721/ERC721.sol\":15820:15828  operator */\n      dup5\n        /* \"@openzeppelin/contracts/token/ERC721/ERC721.sol\":15794:15829  _operatorApprovals[owner][operator] */\n      0xffffffffffffffffffffffffffffffffffffffff\n      and\n      0xffffffffffffffffffffffffffffffffffffffff\n      and\n      dup2\n      mstore\n      0x20\n      add\n      swap1\n      dup2\n      mstore\n      0x20\n      add\n      0x00\n      keccak256\n      0x00\n        /* \"@openzeppelin/contracts/token/ERC721/ERC721.sol\":15794:15840  _operatorApprovals[owner][operator] = approved */\n      0x0100\n      exp\n      dup2\n      sload\n      dup2\n      0xff\n      mul\n      not\n      and\n      swap1\n      dup4\n      iszero\n      iszero\n      mul\n      or\n      swap1\n      sstore\n      pop\n        /* \"@openzeppelin/contracts/token/ERC721/ERC721.sol\":15877:15885  operator */\n      dup2\n        /* \"@openzeppelin/contracts/token/ERC721/ERC721.sol\":15855:15896  ApprovalForAll(owner, operator, approved) */\n      0xffffffffffffffffffffffffffffffffffffffff\n      and\n        /* \"@openzeppelin/contracts/token/ERC721/ERC721.sol\":15870:15875  owner */\n      dup4\n        /* \"@openzeppelin/contracts/token/ERC721/ERC721.sol\":15855:15896  ApprovalForAll(owner, operator, approved) */\n      0xffffffffffffffffffffffffffffffffffffffff\n      and\n      0x17307eab39ab6107e8899845ad3d59bd9653f200f220920489ca2b5937696c31\n        /* \"@openzeppelin/contracts/token/ERC721/ERC721.sol\":15887:15895  approved */\n      dup4\n        /* \"@openzeppelin/contracts/token/ERC721/ERC721.sol\":15855:15896  ApprovalForAll(owner, operator, approved) */\n      mload(0x40)\n      tag_206\n      swap2\n      swap1\n      tag_29\n      jump\t// in\n    tag_206:\n      mload(0x40)\n      dup1\n      swap2\n      sub\n      swap1\n      log3\n        /* \"@openzeppelin/contracts/token/ERC721/ERC721.sol\":15591:15903  function _setApprovalForAll(address owner, address operator, bool approved) internal virtual {... */\n      pop\n      pop\n      pop\n      jump\t// out\n        /* \"@openzeppelin/contracts/token/ERC721/ERC721.sol\":16918:17700  function _checkOnERC721Received(address from, address to, uint256 tokenId, bytes memory data) private {... */\n    tag_159:\n        /* \"@openzeppelin/contracts/token/ERC721/ERC721.sol\":17051:17052  0 */\n      0x00\n        /* \"@openzeppelin/contracts/token/ERC721/ERC721.sol\":17034:17036  to */\n      dup4\n        /* \"@openzeppelin/contracts/token/ERC721/ERC721.sol\":17034:17048  to.code.length */\n      0xffffffffffffffffffffffffffffffffffffffff\n      and\n      extcodesize\n        /* \"@openzeppelin/contracts/token/ERC721/ERC721.sol\":17034:17052  to.code.length > 0 */\n      gt\n        /* \"@openzeppelin/contracts/token/ERC721/ERC721.sol\":17030:17694  if (to.code.length > 0) {... */\n      iszero\n      tag_208\n      jumpi\n        /* \"@openzeppelin/contracts/token/ERC721/ERC721.sol\":17088:17090  to */\n      dup3\n        /* \"@openzeppelin/contracts/token/ERC721/ERC721.sol\":17072:17108  IERC721Receiver(to).onERC721Received */\n      0xffffffffffffffffffffffffffffffffffffffff\n      and\n      0x150b7a02\n        /* \"@openzeppelin/contracts/token/ERC721/ERC721.sol\":17109:17121  _msgSender() */\n      tag_209\n        /* \"@openzeppelin/contracts/token/ERC721/ERC721.sol\":17109:17119  _msgSender */\n      tag_116\n        /* \"@openzeppelin/contracts/token/ERC721/ERC721.sol\":17109:17121  _msgSender() */\n      jump\t// in\n    tag_209:\n        /* \"@openzeppelin/contracts/token/ERC721/ERC721.sol\":17123:17127  from */\n      dup7\n        /* \"@openzeppelin/contracts/token/ERC721/ERC721.sol\":17129:17136  tokenId */\n      dup6\n        /* \"@openzeppelin/contracts/token/ERC721/ERC721.sol\":17138:17142  data */\n      dup6\n        /* \"@openzeppelin/contracts/token/ERC721/ERC721.sol\":17072:17143  IERC721Receiver(to).onERC721Received(_msgSender(), from, tokenId, data) */\n      mload(0x40)\n      dup6\n      0xffffffff\n      and\n      0xe0\n      shl\n      dup2\n      mstore\n      0x04\n      add\n      tag_210\n      swap5\n      swap4\n      swap3\n      swap2\n      swap1\n      tag_211\n      jump\t// in\n    tag_210:\n      0x20\n      mload(0x40)\n      dup1\n      dup4\n      sub\n      dup2\n      0x00\n      dup8\n      gas\n      call\n      swap3\n      pop\n      pop\n      pop\n      dup1\n      iszero\n      tag_212\n      jumpi\n      pop\n      mload(0x40)\n      returndatasize\n      not(0x1f)\n      0x1f\n      dup3\n      add\n      and\n      dup3\n      add\n      dup1\n      0x40\n      mstore\n      pop\n      dup2\n      add\n      swap1\n      tag_213\n      swap2\n      swap1\n      tag_214\n      jump\t// in\n    tag_213:\n      0x01\n    tag_212:\n        /* \"@openzeppelin/contracts/token/ERC721/ERC721.sol\":17068:17684  try IERC721Receiver(to).onERC721Received(_msgSender(), from, tokenId, data) returns (bytes4 retval) {... */\n      tag_215\n      jumpi\n      returndatasize\n      dup1\n      0x00\n      dup2\n      eq\n      tag_220\n      jumpi\n      mload(0x40)\n      swap2\n      pop\n      and(add(returndatasize, 0x3f), not(0x1f))\n      dup3\n      add\n      0x40\n      mstore\n      returndatasize\n      dup3\n      mstore\n      returndatasize\n      0x00\n      0x20\n      dup5\n      add\n      returndatacopy\n      jump(tag_219)\n    tag_220:\n      0x60\n      swap2\n      pop\n    tag_219:\n      pop\n        /* \"@openzeppelin/contracts/token/ERC721/ERC721.sol\":17398:17399  0 */\n      0x00\n        /* \"@openzeppelin/contracts/token/ERC721/ERC721.sol\":17381:17387  reason */\n      dup2\n        /* \"@openzeppelin/contracts/token/ERC721/ERC721.sol\":17381:17394  reason.length */\n      mload\n        /* \"@openzeppelin/contracts/token/ERC721/ERC721.sol\":17381:17399  reason.length == 0 */\n      sub\n        /* \"@openzeppelin/contracts/token/ERC721/ERC721.sol\":17377:17670  if (reason.length == 0) {... */\n      tag_221\n      jumpi\n        /* \"@openzeppelin/contracts/token/ERC721/ERC721.sol\":17452:17454  to */\n      dup4\n        /* \"@openzeppelin/contracts/token/ERC721/ERC721.sol\":17430:17455  ERC721InvalidReceiver(to) */\n      mload(0x40)\n      0x64a0ae9200000000000000000000000000000000000000000000000000000000\n      dup2\n      mstore\n      0x04\n      add\n      tag_222\n      swap2\n      swap1\n      tag_39\n      jump\t// in\n    tag_222:\n      mload(0x40)\n      dup1\n      swap2\n      sub\n      swap1\n      revert\n        /* \"@openzeppelin/contracts/token/ERC721/ERC721.sol\":17377:17670  if (reason.length == 0) {... */\n    tag_221:\n        /* \"@openzeppelin/contracts/token/ERC721/ERC721.sol\":17622:17628  reason */\n      dup1\n        /* \"@openzeppelin/contracts/token/ERC721/ERC721.sol\":17616:17629  mload(reason) */\n      mload\n        /* \"@openzeppelin/contracts/token/ERC721/ERC721.sol\":17607:17613  reason */\n      dup2\n        /* \"@openzeppelin/contracts/token/ERC721/ERC721.sol\":17603:17605  32 */\n      0x20\n        /* \"@openzeppelin/contracts/token/ERC721/ERC721.sol\":17599:17614  add(32, reason) */\n      add\n        /* \"@openzeppelin/contracts/token/ERC721/ERC721.sol\":17592:17630  revert(add(32, reason), mload(reason)) */\n      revert\n        /* \"@openzeppelin/contracts/token/ERC721/ERC721.sol\":17068:17684  try IERC721Receiver(to).onERC721Received(_msgSender(), from, tokenId, data) returns (bytes4 retval) {... */\n    tag_215:\n        /* \"@openzeppelin/contracts/token/ERC721/ERC721.sol\":17200:17241  IERC721Receiver.onERC721Received.selector */\n      shl(0xe0, 0x150b7a02)\n        /* \"@openzeppelin/contracts/token/ERC721/ERC721.sol\":17190:17241  retval != IERC721Receiver.onERC721Received.selector */\n      not(0xffffffffffffffffffffffffffffffffffffffffffffffffffffffff)\n      and\n        /* \"@openzeppelin/contracts/token/ERC721/ERC721.sol\":17190:17196  retval */\n      dup2\n        /* \"@openzeppelin/contracts/token/ERC721/ERC721.sol\":17190:17241  retval != IERC721Receiver.onERC721Received.selector */\n      not(0xffffffffffffffffffffffffffffffffffffffffffffffffffffffff)\n      and\n      eq\n        /* \"@openzeppelin/contracts/token/ERC721/ERC721.sol\":17186:17316  if (retval != IERC721Receiver.onERC721Received.selector) {... */\n      tag_225\n      jumpi\n        /* \"@openzeppelin/contracts/token/ERC721/ERC721.sol\":17294:17296  to */\n      dup4\n        /* \"@openzeppelin/contracts/token/ERC721/ERC721.sol\":17272:17297  ERC721InvalidReceiver(to) */\n      mload(0x40)\n      0x64a0ae9200000000000000000000000000000000000000000000000000000000\n      dup2\n      mstore\n      0x04\n      add\n      tag_226\n      swap2\n      swap1\n      tag_39\n      jump\t// in\n    tag_226:\n      mload(0x40)\n      dup1\n      swap2\n      sub\n      swap1\n      revert\n        /* \"@openzeppelin/contracts/token/ERC721/ERC721.sol\":17186:17316  if (retval != IERC721Receiver.onERC721Received.selector) {... */\n    tag_225:\n        /* \"@openzeppelin/contracts/token/ERC721/ERC721.sol\":17144:17330  returns (bytes4 retval) {... */\n      pop\n        /* \"@openzeppelin/contracts/token/ERC721/ERC721.sol\":17030:17694  if (to.code.length > 0) {... */\n    tag_208:\n        /* \"@openzeppelin/contracts/token/ERC721/ERC721.sol\":16918:17700  function _checkOnERC721Received(address from, address to, uint256 tokenId, bytes memory data) private {... */\n      pop\n      pop\n      pop\n      pop\n      jump\t// out\n        /* \"@openzeppelin/contracts/utils/Strings.sol\":637:1335  function toString(uint256 value) internal pure returns (string memory) {... */\n    tag_162:\n        /* \"@openzeppelin/contracts/utils/Strings.sol\":693:706  string memory */\n      0x60\n        /* \"@openzeppelin/contracts/utils/Strings.sol\":742:756  uint256 length */\n      0x00\n        /* \"@openzeppelin/contracts/utils/Strings.sol\":779:780  1 */\n      0x01\n        /* \"@openzeppelin/contracts/utils/Strings.sol\":759:776  Math.log10(value) */\n      tag_228\n        /* \"@openzeppelin/contracts/utils/Strings.sol\":770:775  value */\n      dup5\n        /* \"@openzeppelin/contracts/utils/Strings.sol\":759:769  Math.log10 */\n      tag_229\n        /* \"@openzeppelin/contracts/utils/Strings.sol\":759:776  Math.log10(value) */\n      jump\t// in\n    tag_228:\n        /* \"@openzeppelin/contracts/utils/Strings.sol\":759:780  Math.log10(value) + 1 */\n      add\n        /* \"@openzeppelin/contracts/utils/Strings.sol\":742:780  uint256 length = Math.log10(value) + 1 */\n      swap1\n      pop\n        /* \"@openzeppelin/contracts/utils/Strings.sol\":794:814  string memory buffer */\n      0x00\n        /* \"@openzeppelin/contracts/utils/Strings.sol\":828:834  length */\n      dup2\n        /* \"@openzeppelin/contracts/utils/Strings.sol\":817:835  new string(length) */\n      0xffffffffffffffff\n      dup2\n      gt\n      iszero\n      tag_230\n      jumpi\n      tag_231\n      tag_232\n      jump\t// in\n    tag_231:\n    tag_230:\n      mload(0x40)\n      swap1\n      dup1\n      dup3\n      mstore\n      dup1\n      0x1f\n      add\n      not(0x1f)\n      and\n      0x20\n      add\n      dup3\n      add\n      0x40\n      mstore\n      dup1\n      iszero\n      tag_233\n      jumpi\n      dup2\n      0x20\n      add\n      0x01\n      dup3\n      mul\n      dup1\n      calldatasize\n      dup4\n      calldatacopy\n      dup1\n      dup3\n      add\n      swap2\n      pop\n      pop\n      swap1\n      pop\n    tag_233:\n      pop\n        /* \"@openzeppelin/contracts/utils/Strings.sol\":794:835  string memory buffer = new string(length) */\n      swap1\n      pop\n        /* \"@openzeppelin/contracts/utils/Strings.sol\":849:860  uint256 ptr */\n      0x00\n        /* \"@openzeppelin/contracts/utils/Strings.sol\":975:981  length */\n      dup3\n        /* \"@openzeppelin/contracts/utils/Strings.sol\":971:973  32 */\n      0x20\n        /* \"@openzeppelin/contracts/utils/Strings.sol\":967:982  add(32, length) */\n      add\n        /* \"@openzeppelin/contracts/utils/Strings.sol\":959:965  buffer */\n      dup3\n        /* \"@openzeppelin/contracts/utils/Strings.sol\":955:983  add(buffer, add(32, length)) */\n      add\n        /* \"@openzeppelin/contracts/utils/Strings.sol\":948:983  ptr := add(buffer, add(32, length)) */\n      swap1\n      pop\n        /* \"@openzeppelin/contracts/utils/Strings.sol\":1010:1292  while (true) {... */\n    tag_234:\n        /* \"@openzeppelin/contracts/utils/Strings.sol\":1017:1021  true */\n      0x01\n        /* \"@openzeppelin/contracts/utils/Strings.sol\":1010:1292  while (true) {... */\n      iszero\n      tag_235\n      jumpi\n        /* \"@openzeppelin/contracts/utils/Strings.sol\":1041:1046  ptr-- */\n      dup1\n      dup1\n      0x01\n      swap1\n      sub\n      swap2\n      pop\n      pop\n        /* \"@openzeppelin/contracts/utils/Strings.sol\":1180:1190  HEX_DIGITS */\n      0x3031323334353637383961626364656600000000000000000000000000000000\n        /* \"@openzeppelin/contracts/utils/Strings.sol\":1175:1177  10 */\n      0x0a\n        /* \"@openzeppelin/contracts/utils/Strings.sol\":1168:1173  value */\n      dup7\n        /* \"@openzeppelin/contracts/utils/Strings.sol\":1164:1178  mod(value, 10) */\n      mod\n        /* \"@openzeppelin/contracts/utils/Strings.sol\":1159:1191  byte(mod(value, 10), HEX_DIGITS) */\n      byte\n        /* \"@openzeppelin/contracts/utils/Strings.sol\":1154:1157  ptr */\n      dup2\n        /* \"@openzeppelin/contracts/utils/Strings.sol\":1146:1192  mstore8(ptr, byte(mod(value, 10), HEX_DIGITS)) */\n      mstore8\n        /* \"@openzeppelin/contracts/utils/Strings.sol\":1236:1238  10 */\n      0x0a\n        /* \"@openzeppelin/contracts/utils/Strings.sol\":1227:1238  value /= 10 */\n      dup6\n      dup2\n      tag_236\n      jumpi\n      tag_237\n      tag_238\n      jump\t// in\n    tag_237:\n    tag_236:\n      div\n      swap5\n      pop\n        /* \"@openzeppelin/contracts/utils/Strings.sol\":1269:1270  0 */\n      0x00\n        /* \"@openzeppelin/contracts/utils/Strings.sol\":1260:1265  value */\n      dup6\n        /* \"@openzeppelin/contracts/utils/Strings.sol\":1260:1270  value == 0 */\n      sub\n        /* \"@openzeppelin/contracts/utils/Strings.sol\":1010:1292  while (true) {... */\n      tag_234\n        /* \"@openzeppelin/contracts/utils/Strings.sol\":1256:1277  if (value == 0) break */\n      jumpi\n        /* \"@openzeppelin/contracts/utils/Strings.sol\":1010:1292  while (true) {... */\n    tag_235:\n        /* \"@openzeppelin/contracts/utils/Strings.sol\":1312:1318  buffer */\n      dup2\n        /* \"@openzeppelin/contracts/utils/Strings.sol\":1305:1318  return buffer */\n      swap4\n      pop\n      pop\n      pop\n      pop\n        /* \"@openzeppelin/contracts/utils/Strings.sol\":637:1335  function toString(uint256 value) internal pure returns (string memory) {... */\n      swap2\n      swap1\n      pop\n      jump\t// out\n        /* \"@openzeppelin/contracts/token/ERC721/ERC721.sol\":10633:10733  function _safeMint(address to, uint256 tokenId) internal {... */\n    tag_176:\n        /* \"@openzeppelin/contracts/token/ERC721/ERC721.sol\":10700:10726  _safeMint(to, tokenId, \"\") */\n      tag_241\n        /* \"@openzeppelin/contracts/token/ERC721/ERC721.sol\":10710:10712  to */\n      dup3\n        /* \"@openzeppelin/contracts/token/ERC721/ERC721.sol\":10714:10721  tokenId */\n      dup3\n        /* \"@openzeppelin/contracts/token/ERC721/ERC721.sol\":10700:10726  _safeMint(to, tokenId, \"\") */\n      mload(0x40)\n      dup1\n      0x20\n      add\n      0x40\n      mstore\n      dup1\n      0x00\n      dup2\n      mstore\n      pop\n        /* \"@openzeppelin/contracts/token/ERC721/ERC721.sol\":10700:10709  _safeMint */\n      tag_242\n        /* \"@openzeppelin/contracts/token/ERC721/ERC721.sol\":10700:10726  _safeMint(to, tokenId, \"\") */\n      jump\t// in\n    tag_241:\n        /* \"@openzeppelin/contracts/token/ERC721/ERC721.sol\":10633:10733  function _safeMint(address to, uint256 tokenId) internal {... */\n      pop\n      pop\n      jump\t// out\n        /* \"@openzeppelin/contracts/token/ERC721/ERC721.sol\":5707:5822  function _ownerOf(uint256 tokenId) internal view virtual returns (address) {... */\n    tag_180:\n        /* \"@openzeppelin/contracts/token/ERC721/ERC721.sol\":5773:5780  address */\n      0x00\n        /* \"@openzeppelin/contracts/token/ERC721/ERC721.sol\":5799:5806  _owners */\n      0x03\n        /* \"@openzeppelin/contracts/token/ERC721/ERC721.sol\":5799:5815  _owners[tokenId] */\n      0x00\n        /* \"@openzeppelin/contracts/token/ERC721/ERC721.sol\":5807:5814  tokenId */\n      dup4\n        /* \"@openzeppelin/contracts/token/ERC721/ERC721.sol\":5799:5815  _owners[tokenId] */\n      dup2\n      mstore\n      0x20\n      add\n      swap1\n      dup2\n      mstore\n      0x20\n      add\n      0x00\n      keccak256\n      0x00\n      swap1\n      sload\n      swap1\n      0x0100\n      exp\n      swap1\n      div\n      0xffffffffffffffffffffffffffffffffffffffff\n      and\n        /* \"@openzeppelin/contracts/token/ERC721/ERC721.sol\":5792:5815  return _owners[tokenId] */\n      swap1\n      pop\n        /* \"@openzeppelin/contracts/token/ERC721/ERC721.sol\":5707:5822  function _ownerOf(uint256 tokenId) internal view virtual returns (address) {... */\n      swap2\n      swap1\n      pop\n      jump\t// out\n        /* \"@openzeppelin/contracts/token/ERC721/ERC721.sol\":14720:15382  function _approve(address to, uint256 tokenId, address auth, bool emitEvent) internal virtual {... */\n    tag_187:\n        /* \"@openzeppelin/contracts/token/ERC721/ERC721.sol\":14880:14889  emitEvent */\n      dup1\n        /* \"@openzeppelin/contracts/token/ERC721/ERC721.sol\":14880:14911  emitEvent || auth != address(0) */\n      dup1\n      tag_245\n      jumpi\n      pop\n        /* \"@openzeppelin/contracts/token/ERC721/ERC721.sol\":14909:14910  0 */\n      0x00\n        /* \"@openzeppelin/contracts/token/ERC721/ERC721.sol\":14893:14911  auth != address(0) */\n      0xffffffffffffffffffffffffffffffffffffffff\n      and\n        /* \"@openzeppelin/contracts/token/ERC721/ERC721.sol\":14893:14897  auth */\n      dup3\n        /* \"@openzeppelin/contracts/token/ERC721/ERC721.sol\":14893:14911  auth != address(0) */\n      0xffffffffffffffffffffffffffffffffffffffff\n      and\n      eq\n      iszero\n        /* \"@openzeppelin/contracts/token/ERC721/ERC721.sol\":14880:14911  emitEvent || auth != address(0) */\n    tag_245:\n        /* \"@openzeppelin/contracts/token/ERC721/ERC721.sol\":14876:15336  if (emitEvent || auth != address(0)) {... */\n      iszero\n      tag_246\n      jumpi\n        /* \"@openzeppelin/contracts/token/ERC721/ERC721.sol\":14927:14940  address owner */\n      0x00\n        /* \"@openzeppelin/contracts/token/ERC721/ERC721.sol\":14943:14965  _requireOwned(tokenId) */\n      tag_247\n        /* \"@openzeppelin/contracts/token/ERC721/ERC721.sol\":14957:14964  tokenId */\n      dup5\n        /* \"@openzeppelin/contracts/token/ERC721/ERC721.sol\":14943:14956  _requireOwned */\n      tag_110\n        /* \"@openzeppelin/contracts/token/ERC721/ERC721.sol\":14943:14965  _requireOwned(tokenId) */\n      jump\t// in\n    tag_247:\n        /* \"@openzeppelin/contracts/token/ERC721/ERC721.sol\":14927:14965  address owner = _requireOwned(tokenId) */\n      swap1\n      pop\n        /* \"@openzeppelin/contracts/token/ERC721/ERC721.sol\":15109:15110  0 */\n      0x00\n        /* \"@openzeppelin/contracts/token/ERC721/ERC721.sol\":15093:15111  auth != address(0) */\n      0xffffffffffffffffffffffffffffffffffffffff\n      and\n        /* \"@openzeppelin/contracts/token/ERC721/ERC721.sol\":15093:15097  auth */\n      dup4\n        /* \"@openzeppelin/contracts/token/ERC721/ERC721.sol\":15093:15111  auth != address(0) */\n      0xffffffffffffffffffffffffffffffffffffffff\n      and\n      eq\n      iszero\n        /* \"@openzeppelin/contracts/token/ERC721/ERC721.sol\":15093:15128  auth != address(0) && owner != auth */\n      dup1\n      iszero\n      tag_248\n      jumpi\n      pop\n        /* \"@openzeppelin/contracts/token/ERC721/ERC721.sol\":15124:15128  auth */\n      dup3\n        /* \"@openzeppelin/contracts/token/ERC721/ERC721.sol\":15115:15128  owner != auth */\n      0xffffffffffffffffffffffffffffffffffffffff\n      and\n        /* \"@openzeppelin/contracts/token/ERC721/ERC721.sol\":15115:15120  owner */\n      dup2\n        /* \"@openzeppelin/contracts/token/ERC721/ERC721.sol\":15115:15128  owner != auth */\n      0xffffffffffffffffffffffffffffffffffffffff\n      and\n      eq\n      iszero\n        /* \"@openzeppelin/contracts/token/ERC721/ERC721.sol\":15093:15128  auth != address(0) && owner != auth */\n    tag_248:\n        /* \"@openzeppelin/contracts/token/ERC721/ERC721.sol\":15093:15162  auth != address(0) && owner != auth && !isApprovedForAll(owner, auth) */\n      dup1\n      iszero\n      tag_249\n      jumpi\n      pop\n        /* \"@openzeppelin/contracts/token/ERC721/ERC721.sol\":15133:15162  isApprovedForAll(owner, auth) */\n      tag_250\n        /* \"@openzeppelin/contracts/token/ERC721/ERC721.sol\":15150:15155  owner */\n      dup2\n        /* \"@openzeppelin/contracts/token/ERC721/ERC721.sol\":15157:15161  auth */\n      dup5\n        /* \"@openzeppelin/contracts/token/ERC721/ERC721.sol\":15133:15149  isApprovedForAll */\n      tag_88\n        /* \"@openzeppelin/contracts/token/ERC721/ERC721.sol\":15133:15162  isApprovedForAll(owner, auth) */\n      jump\t// in\n    tag_250:\n        /* \"@openzeppelin/contracts/token/ERC721/ERC721.sol\":15132:15162  !isApprovedForAll(owner, auth) */\n      iszero\n        /* \"@openzeppelin/contracts/token/ERC721/ERC721.sol\":15093:15162  auth != address(0) && owner != auth && !isApprovedForAll(owner, auth) */\n    tag_249:\n        /* \"@openzeppelin/contracts/token/ERC721/ERC721.sol\":15089:15231  if (auth != address(0) && owner != auth && !isApprovedForAll(owner, auth)) {... */\n      iszero\n      tag_251\n      jumpi\n        /* \"@openzeppelin/contracts/token/ERC721/ERC721.sol\":15211:15215  auth */\n      dup3\n        /* \"@openzeppelin/contracts/token/ERC721/ERC721.sol\":15189:15216  ERC721InvalidApprover(auth) */\n      mload(0x40)\n      0xa9fbf51f00000000000000000000000000000000000000000000000000000000\n      dup2\n      mstore\n      0x04\n      add\n      tag_252\n      swap2\n      swap1\n      tag_39\n      jump\t// in\n    tag_252:\n      mload(0x40)\n      dup1\n      swap2\n      sub\n      swap1\n      revert\n        /* \"@openzeppelin/contracts/token/ERC721/ERC721.sol\":15089:15231  if (auth != address(0) && owner != auth && !isApprovedForAll(owner, auth)) {... */\n    tag_251:\n        /* \"@openzeppelin/contracts/token/ERC721/ERC721.sol\":15249:15258  emitEvent */\n      dup2\n        /* \"@openzeppelin/contracts/token/ERC721/ERC721.sol\":15245:15326  if (emitEvent) {... */\n      iszero\n      tag_253\n      jumpi\n        /* \"@openzeppelin/contracts/token/ERC721/ERC721.sol\":15303:15310  tokenId */\n      dup4\n        /* \"@openzeppelin/contracts/token/ERC721/ERC721.sol\":15299:15301  to */\n      dup6\n        /* \"@openzeppelin/contracts/token/ERC721/ERC721.sol\":15283:15311  Approval(owner, to, tokenId) */\n      0xffffffffffffffffffffffffffffffffffffffff\n      and\n        /* \"@openzeppelin/contracts/token/ERC721/ERC721.sol\":15292:15297  owner */\n      dup3\n        /* \"@openzeppelin/contracts/token/ERC721/ERC721.sol\":15283:15311  Approval(owner, to, tokenId) */\n      0xffffffffffffffffffffffffffffffffffffffff\n      and\n      0x8c5be1e5ebec7d5bd14f71427d1e84f3dd0314c0f7b2291e5b200ac8c7c3b925\n      mload(0x40)\n      mload(0x40)\n      dup1\n      swap2\n      sub\n      swap1\n      log4\n        /* \"@openzeppelin/contracts/token/ERC721/ERC721.sol\":15245:15326  if (emitEvent) {... */\n    tag_253:\n        /* \"@openzeppelin/contracts/token/ERC721/ERC721.sol\":14913:15336  {... */\n      pop\n        /* \"@openzeppelin/contracts/token/ERC721/ERC721.sol\":14876:15336  if (emitEvent || auth != address(0)) {... */\n    tag_246:\n        /* \"@openzeppelin/contracts/token/ERC721/ERC721.sol\":15373:15375  to */\n      dup4\n        /* \"@openzeppelin/contracts/token/ERC721/ERC721.sol\":15346:15361  _tokenApprovals */\n      0x05\n        /* \"@openzeppelin/contracts/token/ERC721/ERC721.sol\":15346:15370  _tokenApprovals[tokenId] */\n      0x00\n        /* \"@openzeppelin/contracts/token/ERC721/ERC721.sol\":15362:15369  tokenId */\n      dup6\n        /* \"@openzeppelin/contracts/token/ERC721/ERC721.sol\":15346:15370  _tokenApprovals[tokenId] */\n      dup2\n      mstore\n      0x20\n      add\n      swap1\n      dup2\n      mstore\n      0x20\n      add\n      0x00\n      keccak256\n      0x00\n        /* \"@openzeppelin/contracts/token/ERC721/ERC721.sol\":15346:15375  _tokenApprovals[tokenId] = to */\n      0x0100\n      exp\n      dup2\n      sload\n      dup2\n      0xffffffffffffffffffffffffffffffffffffffff\n      mul\n      not\n      and\n      swap1\n      dup4\n      0xffffffffffffffffffffffffffffffffffffffff\n      and\n      mul\n      or\n      swap1\n      sstore\n      pop\n        /* \"@openzeppelin/contracts/token/ERC721/ERC721.sol\":14720:15382  function _approve(address to, uint256 tokenId, address auth, bool emitEvent) internal virtual {... */\n      pop\n      pop\n      pop\n      pop\n      jump\t// out\n        /* \"@openzeppelin/contracts/token/ERC721/ERC721.sol\":7082:7450  function _checkAuthorized(address owner, address spender, uint256 tokenId) internal view virtual {... */\n    tag_192:\n        /* \"@openzeppelin/contracts/token/ERC721/ERC721.sol\":7194:7232  _isAuthorized(owner, spender, tokenId) */\n      tag_255\n        /* \"@openzeppelin/contracts/token/ERC721/ERC721.sol\":7208:7213  owner */\n      dup4\n        /* \"@openzeppelin/contracts/token/ERC721/ERC721.sol\":7215:7222  spender */\n      dup4\n        /* \"@openzeppelin/contracts/token/ERC721/ERC721.sol\":7224:7231  tokenId */\n      dup4\n        /* \"@openzeppelin/contracts/token/ERC721/ERC721.sol\":7194:7207  _isAuthorized */\n      tag_256\n        /* \"@openzeppelin/contracts/token/ERC721/ERC721.sol\":7194:7232  _isAuthorized(owner, spender, tokenId) */\n      jump\t// in\n    tag_255:\n        /* \"@openzeppelin/contracts/token/ERC721/ERC721.sol\":7189:7444  if (!_isAuthorized(owner, spender, tokenId)) {... */\n      tag_257\n      jumpi\n        /* \"@openzeppelin/contracts/token/ERC721/ERC721.sol\":7269:7270  0 */\n      0x00\n        /* \"@openzeppelin/contracts/token/ERC721/ERC721.sol\":7252:7271  owner == address(0) */\n      0xffffffffffffffffffffffffffffffffffffffff\n      and\n        /* \"@openzeppelin/contracts/token/ERC721/ERC721.sol\":7252:7257  owner */\n      dup4\n        /* \"@openzeppelin/contracts/token/ERC721/ERC721.sol\":7252:7271  owner == address(0) */\n      0xffffffffffffffffffffffffffffffffffffffff\n      and\n      sub\n        /* \"@openzeppelin/contracts/token/ERC721/ERC721.sol\":7248:7434  if (owner == address(0)) {... */\n      tag_258\n      jumpi\n        /* \"@openzeppelin/contracts/token/ERC721/ERC721.sol\":7321:7328  tokenId */\n      dup1\n        /* \"@openzeppelin/contracts/token/ERC721/ERC721.sol\":7298:7329  ERC721NonexistentToken(tokenId) */\n      mload(0x40)\n      0x7e27328900000000000000000000000000000000000000000000000000000000\n      dup2\n      mstore\n      0x04\n      add\n      tag_259\n      swap2\n      swap1\n      tag_64\n      jump\t// in\n    tag_259:\n      mload(0x40)\n      dup1\n      swap2\n      sub\n      swap1\n      revert\n        /* \"@openzeppelin/contracts/token/ERC721/ERC721.sol\":7248:7434  if (owner == address(0)) {... */\n    tag_258:\n        /* \"@openzeppelin/contracts/token/ERC721/ERC721.sol\":7402:7409  spender */\n      dup2\n        /* \"@openzeppelin/contracts/token/ERC721/ERC721.sol\":7411:7418  tokenId */\n      dup2\n        /* \"@openzeppelin/contracts/token/ERC721/ERC721.sol\":7375:7419  ERC721InsufficientApproval(spender, tokenId) */\n      mload(0x40)\n      0x177e802f00000000000000000000000000000000000000000000000000000000\n      dup2\n      mstore\n      0x04\n      add\n      tag_261\n      swap3\n      swap2\n      swap1\n      tag_262\n      jump\t// in\n    tag_261:\n      mload(0x40)\n      dup1\n      swap2\n      sub\n      swap1\n      revert\n        /* \"@openzeppelin/contracts/token/ERC721/ERC721.sol\":7189:7444  if (!_isAuthorized(owner, spender, tokenId)) {... */\n    tag_257:\n        /* \"@openzeppelin/contracts/token/ERC721/ERC721.sol\":7082:7450  function _checkAuthorized(address owner, address spender, uint256 tokenId) internal view virtual {... */\n      pop\n      pop\n      pop\n      jump\t// out\n        /* \"@openzeppelin/contracts/utils/math/Math.sol\":12214:13130  function log10(uint256 value) internal pure returns (uint256) {... */\n    tag_229:\n        /* \"@openzeppelin/contracts/utils/math/Math.sol\":12267:12274  uint256 */\n      0x00\n        /* \"@openzeppelin/contracts/utils/math/Math.sol\":12286:12300  uint256 result */\n      dup1\n        /* \"@openzeppelin/contracts/utils/math/Math.sol\":12303:12304  0 */\n      0x00\n        /* \"@openzeppelin/contracts/utils/math/Math.sol\":12286:12304  uint256 result = 0 */\n      swap1\n      pop\n        /* \"@openzeppelin/contracts/utils/math/Math.sol\":12351:12359  10 ** 64 */\n      0x184f03e93ff9f4daa797ed6e38ed64bf6a1f010000000000000000\n        /* \"@openzeppelin/contracts/utils/math/Math.sol\":12342:12347  value */\n      dup4\n        /* \"@openzeppelin/contracts/utils/math/Math.sol\":12342:12359  value >= 10 ** 64 */\n      lt\n        /* \"@openzeppelin/contracts/utils/math/Math.sol\":12338:12441  if (value >= 10 ** 64) {... */\n      tag_264\n      jumpi\n        /* \"@openzeppelin/contracts/utils/math/Math.sol\":12388:12396  10 ** 64 */\n      0x184f03e93ff9f4daa797ed6e38ed64bf6a1f010000000000000000\n        /* \"@openzeppelin/contracts/utils/math/Math.sol\":12379:12396  value /= 10 ** 64 */\n      dup4\n      dup2\n      tag_265\n      jumpi\n      tag_266\n      tag_238\n      jump\t// in\n    tag_266:\n    tag_265:\n      div\n      swap3\n      pop\n        /* \"@openzeppelin/contracts/utils/math/Math.sol\":12424:12426  64 */\n      0x40\n        /* \"@openzeppelin/contracts/utils/math/Math.sol\":12414:12426  result += 64 */\n      dup2\n      add\n      swap1\n      pop\n        /* \"@openzeppelin/contracts/utils/math/Math.sol\":12338:12441  if (value >= 10 ** 64) {... */\n    tag_264:\n        /* \"@openzeppelin/contracts/utils/math/Math.sol\":12467:12475  10 ** 32 */\n      0x04ee2d6d415b85acef8100000000\n        /* \"@openzeppelin/contracts/utils/math/Math.sol\":12458:12463  value */\n      dup4\n        /* \"@openzeppelin/contracts/utils/math/Math.sol\":12458:12475  value >= 10 ** 32 */\n      lt\n        /* \"@openzeppelin/contracts/utils/math/Math.sol\":12454:12557  if (value >= 10 ** 32) {... */\n      tag_267\n      jumpi\n        /* \"@openzeppelin/contracts/utils/math/Math.sol\":12504:12512  10 ** 32 */\n      0x04ee2d6d415b85acef8100000000\n        /* \"@openzeppelin/contracts/utils/math/Math.sol\":12495:12512  value /= 10 ** 32 */\n      dup4\n      dup2\n      tag_268\n      jumpi\n      tag_269\n      tag_238\n      jump\t// in\n    tag_269:\n    tag_268:\n      div\n      swap3\n      pop\n        /* \"@openzeppelin/contracts/utils/math/Math.sol\":12540:12542  32 */\n      0x20\n        /* \"@openzeppelin/contracts/utils/math/Math.sol\":12530:12542  result += 32 */\n      dup2\n      add\n      swap1\n      pop\n        /* \"@openzeppelin/contracts/utils/math/Math.sol\":12454:12557  if (value >= 10 ** 32) {... */\n    tag_267:\n        /* \"@openzeppelin/contracts/utils/math/Math.sol\":12583:12591  10 ** 16 */\n      0x2386f26fc10000\n        /* \"@openzeppelin/contracts/utils/math/Math.sol\":12574:12579  value */\n      dup4\n        /* \"@openzeppelin/contracts/utils/math/Math.sol\":12574:12591  value >= 10 ** 16 */\n      lt\n        /* \"@openzeppelin/contracts/utils/math/Math.sol\":12570:12673  if (value >= 10 ** 16) {... */\n      tag_270\n      jumpi\n        /* \"@openzeppelin/contracts/utils/math/Math.sol\":12620:12628  10 ** 16 */\n      0x2386f26fc10000\n        /* \"@openzeppelin/contracts/utils/math/Math.sol\":12611:12628  value /= 10 ** 16 */\n      dup4\n      dup2\n      tag_271\n      jumpi\n      tag_272\n      tag_238\n      jump\t// in\n    tag_272:\n    tag_271:\n      div\n      swap3\n      pop\n        /* \"@openzeppelin/contracts/utils/math/Math.sol\":12656:12658  16 */\n      0x10\n        /* \"@openzeppelin/contracts/utils/math/Math.sol\":12646:12658  result += 16 */\n      dup2\n      add\n      swap1\n      pop\n        /* \"@openzeppelin/contracts/utils/math/Math.sol\":12570:12673  if (value >= 10 ** 16) {... */\n    tag_270:\n        /* \"@openzeppelin/contracts/utils/math/Math.sol\":12699:12706  10 ** 8 */\n      0x05f5e100\n        /* \"@openzeppelin/contracts/utils/math/Math.sol\":12690:12695  value */\n      dup4\n        /* \"@openzeppelin/contracts/utils/math/Math.sol\":12690:12706  value >= 10 ** 8 */\n      lt\n        /* \"@openzeppelin/contracts/utils/math/Math.sol\":12686:12786  if (value >= 10 ** 8) {... */\n      tag_273\n      jumpi\n        /* \"@openzeppelin/contracts/utils/math/Math.sol\":12735:12742  10 ** 8 */\n      0x05f5e100\n        /* \"@openzeppelin/contracts/utils/math/Math.sol\":12726:12742  value /= 10 ** 8 */\n      dup4\n      dup2\n      tag_274\n      jumpi\n      tag_275\n      tag_238\n      jump\t// in\n    tag_275:\n    tag_274:\n      div\n      swap3\n      pop\n        /* \"@openzeppelin/contracts/utils/math/Math.sol\":12770:12771  8 */\n      0x08\n        /* \"@openzeppelin/contracts/utils/math/Math.sol\":12760:12771  result += 8 */\n      dup2\n      add\n      swap1\n      pop\n        /* \"@openzeppelin/contracts/utils/math/Math.sol\":12686:12786  if (value >= 10 ** 8) {... */\n    tag_273:\n        /* \"@openzeppelin/contracts/utils/math/Math.sol\":12812:12819  10 ** 4 */\n      0x2710\n        /* \"@openzeppelin/contracts/utils/math/Math.sol\":12803:12808  value */\n      dup4\n        /* \"@openzeppelin/contracts/utils/math/Math.sol\":12803:12819  value >= 10 ** 4 */\n      lt\n        /* \"@openzeppelin/contracts/utils/math/Math.sol\":12799:12899  if (value >= 10 ** 4) {... */\n      tag_276\n      jumpi\n        /* \"@openzeppelin/contracts/utils/math/Math.sol\":12848:12855  10 ** 4 */\n      0x2710\n        /* \"@openzeppelin/contracts/utils/math/Math.sol\":12839:12855  value /= 10 ** 4 */\n      dup4\n      dup2\n      tag_277\n      jumpi\n      tag_278\n      tag_238\n      jump\t// in\n    tag_278:\n    tag_277:\n      div\n      swap3\n      pop\n        /* \"@openzeppelin/contracts/utils/math/Math.sol\":12883:12884  4 */\n      0x04\n        /* \"@openzeppelin/contracts/utils/math/Math.sol\":12873:12884  result += 4 */\n      dup2\n      add\n      swap1\n      pop\n        /* \"@openzeppelin/contracts/utils/math/Math.sol\":12799:12899  if (value >= 10 ** 4) {... */\n    tag_276:\n        /* \"@openzeppelin/contracts/utils/math/Math.sol\":12925:12932  10 ** 2 */\n      0x64\n        /* \"@openzeppelin/contracts/utils/math/Math.sol\":12916:12921  value */\n      dup4\n        /* \"@openzeppelin/contracts/utils/math/Math.sol\":12916:12932  value >= 10 ** 2 */\n      lt\n        /* \"@openzeppelin/contracts/utils/math/Math.sol\":12912:13012  if (value >= 10 ** 2) {... */\n      tag_279\n      jumpi\n        /* \"@openzeppelin/contracts/utils/math/Math.sol\":12961:12968  10 ** 2 */\n      0x64\n        /* \"@openzeppelin/contracts/utils/math/Math.sol\":12952:12968  value /= 10 ** 2 */\n      dup4\n      dup2\n      tag_280\n      jumpi\n      tag_281\n      tag_238\n      jump\t// in\n    tag_281:\n    tag_280:\n      div\n      swap3\n      pop\n        /* \"@openzeppelin/contracts/utils/math/Math.sol\":12996:12997  2 */\n      0x02\n        /* \"@openzeppelin/contracts/utils/math/Math.sol\":12986:12997  result += 2 */\n      dup2\n      add\n      swap1\n      pop\n        /* \"@openzeppelin/contracts/utils/math/Math.sol\":12912:13012  if (value >= 10 ** 2) {... */\n    tag_279:\n        /* \"@openzeppelin/contracts/utils/math/Math.sol\":13038:13045  10 ** 1 */\n      0x0a\n        /* \"@openzeppelin/contracts/utils/math/Math.sol\":13029:13034  value */\n      dup4\n        /* \"@openzeppelin/contracts/utils/math/Math.sol\":13029:13045  value >= 10 ** 1 */\n      lt\n        /* \"@openzeppelin/contracts/utils/math/Math.sol\":13025:13091  if (value >= 10 ** 1) {... */\n      tag_282\n      jumpi\n        /* \"@openzeppelin/contracts/utils/math/Math.sol\":13075:13076  1 */\n      0x01\n        /* \"@openzeppelin/contracts/utils/math/Math.sol\":13065:13076  result += 1 */\n      dup2\n      add\n      swap1\n      pop\n        /* \"@openzeppelin/contracts/utils/math/Math.sol\":13025:13091  if (value >= 10 ** 1) {... */\n    tag_282:\n        /* \"@openzeppelin/contracts/utils/math/Math.sol\":13117:13123  result */\n      dup1\n        /* \"@openzeppelin/contracts/utils/math/Math.sol\":13110:13123  return result */\n      swap2\n      pop\n      pop\n        /* \"@openzeppelin/contracts/utils/math/Math.sol\":12214:13130  function log10(uint256 value) internal pure returns (uint256) {... */\n      swap2\n      swap1\n      pop\n      jump\t// out\n        /* \"@openzeppelin/contracts/token/ERC721/ERC721.sol\":10954:11136  function _safeMint(address to, uint256 tokenId, bytes memory data) internal virtual {... */\n    tag_242:\n        /* \"@openzeppelin/contracts/token/ERC721/ERC721.sol\":11048:11066  _mint(to, tokenId) */\n      tag_284\n        /* \"@openzeppelin/contracts/token/ERC721/ERC721.sol\":11054:11056  to */\n      dup4\n        /* \"@openzeppelin/contracts/token/ERC721/ERC721.sol\":11058:11065  tokenId */\n      dup4\n        /* \"@openzeppelin/contracts/token/ERC721/ERC721.sol\":11048:11053  _mint */\n      tag_285\n        /* \"@openzeppelin/contracts/token/ERC721/ERC721.sol\":11048:11066  _mint(to, tokenId) */\n      jump\t// in\n    tag_284:\n        /* \"@openzeppelin/contracts/token/ERC721/ERC721.sol\":11076:11129  _checkOnERC721Received(address(0), to, tokenId, data) */\n      tag_286\n        /* \"@openzeppelin/contracts/token/ERC721/ERC721.sol\":11107:11108  0 */\n      0x00\n        /* \"@openzeppelin/contracts/token/ERC721/ERC721.sol\":11111:11113  to */\n      dup5\n        /* \"@openzeppelin/contracts/token/ERC721/ERC721.sol\":11115:11122  tokenId */\n      dup5\n        /* \"@openzeppelin/contracts/token/ERC721/ERC721.sol\":11124:11128  data */\n      dup5\n        /* \"@openzeppelin/contracts/token/ERC721/ERC721.sol\":11076:11098  _checkOnERC721Received */\n      tag_159\n        /* \"@openzeppelin/contracts/token/ERC721/ERC721.sol\":11076:11129  _checkOnERC721Received(address(0), to, tokenId, data) */\n      jump\t// in\n    tag_286:\n        /* \"@openzeppelin/contracts/token/ERC721/ERC721.sol\":10954:11136  function _safeMint(address to, uint256 tokenId, bytes memory data) internal virtual {... */\n      pop\n      pop\n      pop\n      jump\t// out\n        /* \"@openzeppelin/contracts/token/ERC721/ERC721.sol\":6376:6648  function _isAuthorized(address owner, address spender, uint256 tokenId) internal view virtual returns (bool) {... */\n    tag_256:\n        /* \"@openzeppelin/contracts/token/ERC721/ERC721.sol\":6479:6483  bool */\n      0x00\n        /* \"@openzeppelin/contracts/token/ERC721/ERC721.sol\":6533:6534  0 */\n      dup1\n        /* \"@openzeppelin/contracts/token/ERC721/ERC721.sol\":6514:6535  spender != address(0) */\n      0xffffffffffffffffffffffffffffffffffffffff\n      and\n        /* \"@openzeppelin/contracts/token/ERC721/ERC721.sol\":6514:6521  spender */\n      dup4\n        /* \"@openzeppelin/contracts/token/ERC721/ERC721.sol\":6514:6535  spender != address(0) */\n      0xffffffffffffffffffffffffffffffffffffffff\n      and\n      eq\n      iszero\n        /* \"@openzeppelin/contracts/token/ERC721/ERC721.sol\":6514:6641  spender != address(0) &&... */\n      dup1\n      iszero\n      tag_288\n      jumpi\n      pop\n        /* \"@openzeppelin/contracts/token/ERC721/ERC721.sol\":6561:6568  spender */\n      dup3\n        /* \"@openzeppelin/contracts/token/ERC721/ERC721.sol\":6552:6568  owner == spender */\n      0xffffffffffffffffffffffffffffffffffffffff\n      and\n        /* \"@openzeppelin/contracts/token/ERC721/ERC721.sol\":6552:6557  owner */\n      dup5\n        /* \"@openzeppelin/contracts/token/ERC721/ERC721.sol\":6552:6568  owner == spender */\n      0xffffffffffffffffffffffffffffffffffffffff\n      and\n      eq\n        /* \"@openzeppelin/contracts/token/ERC721/ERC721.sol\":6552:6604  owner == spender || isApprovedForAll(owner, spender) */\n      dup1\n      tag_289\n      jumpi\n      pop\n        /* \"@openzeppelin/contracts/token/ERC721/ERC721.sol\":6572:6604  isApprovedForAll(owner, spender) */\n      tag_290\n        /* \"@openzeppelin/contracts/token/ERC721/ERC721.sol\":6589:6594  owner */\n      dup5\n        /* \"@openzeppelin/contracts/token/ERC721/ERC721.sol\":6596:6603  spender */\n      dup5\n        /* \"@openzeppelin/contracts/token/ERC721/ERC721.sol\":6572:6588  isApprovedForAll */\n      tag_88\n        /* \"@openzeppelin/contracts/token/ERC721/ERC721.sol\":6572:6604  isApprovedForAll(owner, spender) */\n      jump\t// in\n    tag_290:\n        /* \"@openzeppelin/contracts/token/ERC721/ERC721.sol\":6552:6604  owner == spender || isApprovedForAll(owner, spender) */\n    tag_289:\n        /* \"@openzeppelin/contracts/token/ERC721/ERC721.sol\":6552:6640  owner == spender || isApprovedForAll(owner, spender) || _getApproved(tokenId) == spender */\n      dup1\n      tag_291\n      jumpi\n      pop\n        /* \"@openzeppelin/contracts/token/ERC721/ERC721.sol\":6633:6640  spender */\n      dup3\n        /* \"@openzeppelin/contracts/token/ERC721/ERC721.sol\":6608:6640  _getApproved(tokenId) == spender */\n      0xffffffffffffffffffffffffffffffffffffffff\n      and\n        /* \"@openzeppelin/contracts/token/ERC721/ERC721.sol\":6608:6629  _getApproved(tokenId) */\n      tag_292\n        /* \"@openzeppelin/contracts/token/ERC721/ERC721.sol\":6621:6628  tokenId */\n      dup4\n        /* \"@openzeppelin/contracts/token/ERC721/ERC721.sol\":6608:6620  _getApproved */\n      tag_112\n        /* \"@openzeppelin/contracts/token/ERC721/ERC721.sol\":6608:6629  _getApproved(tokenId) */\n      jump\t// in\n    tag_292:\n        /* \"@openzeppelin/contracts/token/ERC721/ERC721.sol\":6608:6640  _getApproved(tokenId) == spender */\n      0xffffffffffffffffffffffffffffffffffffffff\n      and\n      eq\n        /* \"@openzeppelin/contracts/token/ERC721/ERC721.sol\":6552:6640  owner == spender || isApprovedForAll(owner, spender) || _getApproved(tokenId) == spender */\n    tag_291:\n        /* \"@openzeppelin/contracts/token/ERC721/ERC721.sol\":6514:6641  spender != address(0) &&... */\n    tag_288:\n        /* \"@openzeppelin/contracts/token/ERC721/ERC721.sol\":6495:6641  return... */\n      swap1\n      pop\n        /* \"@openzeppelin/contracts/token/ERC721/ERC721.sol\":6376:6648  function _isAuthorized(address owner, address spender, uint256 tokenId) internal view virtual returns (bool) {... */\n      swap4\n      swap3\n      pop\n      pop\n      pop\n      jump\t// out\n        /* \"@openzeppelin/contracts/token/ERC721/ERC721.sol\":9955:10282  function _mint(address to, uint256 tokenId) internal {... */\n    tag_285:\n        /* \"@openzeppelin/contracts/token/ERC721/ERC721.sol\":10036:10037  0 */\n      0x00\n        /* \"@openzeppelin/contracts/token/ERC721/ERC721.sol\":10022:10038  to == address(0) */\n      0xffffffffffffffffffffffffffffffffffffffff\n      and\n        /* \"@openzeppelin/contracts/token/ERC721/ERC721.sol\":10022:10024  to */\n      dup3\n        /* \"@openzeppelin/contracts/token/ERC721/ERC721.sol\":10022:10038  to == address(0) */\n      0xffffffffffffffffffffffffffffffffffffffff\n      and\n      sub\n        /* \"@openzeppelin/contracts/token/ERC721/ERC721.sol\":10018:10105  if (to == address(0)) {... */\n      tag_294\n      jumpi\n        /* \"@openzeppelin/contracts/token/ERC721/ERC721.sol\":10091:10092  0 */\n      0x00\n        /* \"@openzeppelin/contracts/token/ERC721/ERC721.sol\":10061:10094  ERC721InvalidReceiver(address(0)) */\n      mload(0x40)\n      0x64a0ae9200000000000000000000000000000000000000000000000000000000\n      dup2\n      mstore\n      0x04\n      add\n      tag_295\n      swap2\n      swap1\n      tag_39\n      jump\t// in\n    tag_295:\n      mload(0x40)\n      dup1\n      swap2\n      sub\n      swap1\n      revert\n        /* \"@openzeppelin/contracts/token/ERC721/ERC721.sol\":10018:10105  if (to == address(0)) {... */\n    tag_294:\n        /* \"@openzeppelin/contracts/token/ERC721/ERC721.sol\":10114:10135  address previousOwner */\n      0x00\n        /* \"@openzeppelin/contracts/token/ERC721/ERC721.sol\":10138:10170  _update(to, tokenId, address(0)) */\n      tag_296\n        /* \"@openzeppelin/contracts/token/ERC721/ERC721.sol\":10146:10148  to */\n      dup4\n        /* \"@openzeppelin/contracts/token/ERC721/ERC721.sol\":10150:10157  tokenId */\n      dup4\n        /* \"@openzeppelin/contracts/token/ERC721/ERC721.sol\":10167:10168  0 */\n      0x00\n        /* \"@openzeppelin/contracts/token/ERC721/ERC721.sol\":10138:10145  _update */\n      tag_123\n        /* \"@openzeppelin/contracts/token/ERC721/ERC721.sol\":10138:10170  _update(to, tokenId, address(0)) */\n      jump\t// in\n    tag_296:\n        /* \"@openzeppelin/contracts/token/ERC721/ERC721.sol\":10114:10170  address previousOwner = _update(to, tokenId, address(0)) */\n      swap1\n      pop\n        /* \"@openzeppelin/contracts/token/ERC721/ERC721.sol\":10209:10210  0 */\n      0x00\n        /* \"@openzeppelin/contracts/token/ERC721/ERC721.sol\":10184:10211  previousOwner != address(0) */\n      0xffffffffffffffffffffffffffffffffffffffff\n      and\n        /* \"@openzeppelin/contracts/token/ERC721/ERC721.sol\":10184:10197  previousOwner */\n      dup2\n        /* \"@openzeppelin/contracts/token/ERC721/ERC721.sol\":10184:10211  previousOwner != address(0) */\n      0xffffffffffffffffffffffffffffffffffffffff\n      and\n      eq\n        /* \"@openzeppelin/contracts/token/ERC721/ERC721.sol\":10180:10276  if (previousOwner != address(0)) {... */\n      tag_297\n      jumpi\n        /* \"@openzeppelin/contracts/token/ERC721/ERC721.sol\":10262:10263  0 */\n      0x00\n        /* \"@openzeppelin/contracts/token/ERC721/ERC721.sol\":10234:10265  ERC721InvalidSender(address(0)) */\n      mload(0x40)\n      0x73c6ac6e00000000000000000000000000000000000000000000000000000000\n      dup2\n      mstore\n      0x04\n      add\n      tag_298\n      swap2\n      swap1\n      tag_39\n      jump\t// in\n    tag_298:\n      mload(0x40)\n      dup1\n      swap2\n      sub\n      swap1\n      revert\n        /* \"@openzeppelin/contracts/token/ERC721/ERC721.sol\":10180:10276  if (previousOwner != address(0)) {... */\n    tag_297:\n        /* \"@openzeppelin/contracts/token/ERC721/ERC721.sol\":10008:10282  {... */\n      pop\n        /* \"@openzeppelin/contracts/token/ERC721/ERC721.sol\":9955:10282  function _mint(address to, uint256 tokenId) internal {... */\n      pop\n      pop\n      jump\t// out\n        /* \"#utility.yul\":7:82   */\n    tag_299:\n        /* \"#utility.yul\":40:46   */\n      0x00\n        /* \"#utility.yul\":73:75   */\n      0x40\n        /* \"#utility.yul\":67:76   */\n      mload\n        /* \"#utility.yul\":57:76   */\n      swap1\n      pop\n        /* \"#utility.yul\":7:82   */\n      swap1\n      jump\t// out\n        /* \"#utility.yul\":88:205   */\n    tag_300:\n        /* \"#utility.yul\":197:198   */\n      0x00\n        /* \"#utility.yul\":194:195   */\n      dup1\n        /* \"#utility.yul\":187:199   */\n      revert\n        /* \"#utility.yul\":211:328   */\n    tag_301:\n        /* \"#utility.yul\":320:321   */\n      0x00\n        /* \"#utility.yul\":317:318   */\n      dup1\n        /* \"#utility.yul\":310:322   */\n      revert\n        /* \"#utility.yul\":334:483   */\n    tag_302:\n        /* \"#utility.yul\":370:377   */\n      0x00\n        /* \"#utility.yul\":410:476   */\n      0xffffffff00000000000000000000000000000000000000000000000000000000\n        /* \"#utility.yul\":403:408   */\n      dup3\n        /* \"#utility.yul\":399:477   */\n      and\n        /* \"#utility.yul\":388:477   */\n      swap1\n      pop\n        /* \"#utility.yul\":334:483   */\n      swap2\n      swap1\n      pop\n      jump\t// out\n        /* \"#utility.yul\":489:609   */\n    tag_303:\n        /* \"#utility.yul\":561:584   */\n      tag_363\n        /* \"#utility.yul\":578:583   */\n      dup2\n        /* \"#utility.yul\":561:584   */\n      tag_302\n      jump\t// in\n    tag_363:\n        /* \"#utility.yul\":554:559   */\n      dup2\n        /* \"#utility.yul\":551:585   */\n      eq\n        /* \"#utility.yul\":541:603   */\n      tag_364\n      jumpi\n        /* \"#utility.yul\":599:600   */\n      0x00\n        /* \"#utility.yul\":596:597   */\n      dup1\n        /* \"#utility.yul\":589:601   */\n      revert\n        /* \"#utility.yul\":541:603   */\n    tag_364:\n        /* \"#utility.yul\":489:609   */\n      pop\n      jump\t// out\n        /* \"#utility.yul\":615:752   */\n    tag_304:\n        /* \"#utility.yul\":660:665   */\n      0x00\n        /* \"#utility.yul\":698:704   */\n      dup2\n        /* \"#utility.yul\":685:705   */\n      calldataload\n        /* \"#utility.yul\":676:705   */\n      swap1\n      pop\n        /* \"#utility.yul\":714:746   */\n      tag_366\n        /* \"#utility.yul\":740:745   */\n      dup2\n        /* \"#utility.yul\":714:746   */\n      tag_303\n      jump\t// in\n    tag_366:\n        /* \"#utility.yul\":615:752   */\n      swap3\n      swap2\n      pop\n      pop\n      jump\t// out\n        /* \"#utility.yul\":758:1085   */\n    tag_26:\n        /* \"#utility.yul\":816:822   */\n      0x00\n        /* \"#utility.yul\":865:867   */\n      0x20\n        /* \"#utility.yul\":853:862   */\n      dup3\n        /* \"#utility.yul\":844:851   */\n      dup5\n        /* \"#utility.yul\":840:863   */\n      sub\n        /* \"#utility.yul\":836:868   */\n      slt\n        /* \"#utility.yul\":833:952   */\n      iszero\n      tag_368\n      jumpi\n        /* \"#utility.yul\":871:950   */\n      tag_369\n      tag_300\n      jump\t// in\n    tag_369:\n        /* \"#utility.yul\":833:952   */\n    tag_368:\n        /* \"#utility.yul\":991:992   */\n      0x00\n        /* \"#utility.yul\":1016:1068   */\n      tag_370\n        /* \"#utility.yul\":1060:1067   */\n      dup5\n        /* \"#utility.yul\":1051:1057   */\n      dup3\n        /* \"#utility.yul\":1040:1049   */\n      dup6\n        /* \"#utility.yul\":1036:1058   */\n      add\n        /* \"#utility.yul\":1016:1068   */\n      tag_304\n      jump\t// in\n    tag_370:\n        /* \"#utility.yul\":1006:1068   */\n      swap2\n      pop\n        /* \"#utility.yul\":962:1078   */\n      pop\n        /* \"#utility.yul\":758:1085   */\n      swap3\n      swap2\n      pop\n      pop\n      jump\t// out\n        /* \"#utility.yul\":1091:1181   */\n    tag_305:\n        /* \"#utility.yul\":1125:1132   */\n      0x00\n        /* \"#utility.yul\":1168:1173   */\n      dup2\n        /* \"#utility.yul\":1161:1174   */\n      iszero\n        /* \"#utility.yul\":1154:1175   */\n      iszero\n        /* \"#utility.yul\":1143:1175   */\n      swap1\n      pop\n        /* \"#utility.yul\":1091:1181   */\n      swap2\n      swap1\n      pop\n      jump\t// out\n        /* \"#utility.yul\":1187:1296   */\n    tag_306:\n        /* \"#utility.yul\":1268:1289   */\n      tag_373\n        /* \"#utility.yul\":1283:1288   */\n      dup2\n        /* \"#utility.yul\":1268:1289   */\n      tag_305\n      jump\t// in\n    tag_373:\n        /* \"#utility.yul\":1263:1266   */\n      dup3\n        /* \"#utility.yul\":1256:1290   */\n      mstore\n        /* \"#utility.yul\":1187:1296   */\n      pop\n      pop\n      jump\t// out\n        /* \"#utility.yul\":1302:1512   */\n    tag_29:\n        /* \"#utility.yul\":1389:1393   */\n      0x00\n        /* \"#utility.yul\":1427:1429   */\n      0x20\n        /* \"#utility.yul\":1416:1425   */\n      dup3\n        /* \"#utility.yul\":1412:1430   */\n      add\n        /* \"#utility.yul\":1404:1430   */\n      swap1\n      pop\n        /* \"#utility.yul\":1440:1505   */\n      tag_375\n        /* \"#utility.yul\":1502:1503   */\n      0x00\n        /* \"#utility.yul\":1491:1500   */\n      dup4\n        /* \"#utility.yul\":1487:1504   */\n      add\n        /* \"#utility.yul\":1478:1484   */\n      dup5\n        /* \"#utility.yul\":1440:1505   */\n      tag_306\n      jump\t// in\n    tag_375:\n        /* \"#utility.yul\":1302:1512   */\n      swap3\n      swap2\n      pop\n      pop\n      jump\t// out\n        /* \"#utility.yul\":1518:1617   */\n    tag_307:\n        /* \"#utility.yul\":1570:1576   */\n      0x00\n        /* \"#utility.yul\":1604:1609   */\n      dup2\n        /* \"#utility.yul\":1598:1610   */\n      mload\n        /* \"#utility.yul\":1588:1610   */\n      swap1\n      pop\n        /* \"#utility.yul\":1518:1617   */\n      swap2\n      swap1\n      pop\n      jump\t// out\n        /* \"#utility.yul\":1623:1792   */\n    tag_308:\n        /* \"#utility.yul\":1707:1718   */\n      0x00\n        /* \"#utility.yul\":1741:1747   */\n      dup3\n        /* \"#utility.yul\":1736:1739   */\n      dup3\n        /* \"#utility.yul\":1729:1748   */\n      mstore\n        /* \"#utility.yul\":1781:1785   */\n      0x20\n        /* \"#utility.yul\":1776:1779   */\n      dup3\n        /* \"#utility.yul\":1772:1786   */\n      add\n        /* \"#utility.yul\":1757:1786   */\n      swap1\n      pop\n        /* \"#utility.yul\":1623:1792   */\n      swap3\n      swap2\n      pop\n      pop\n      jump\t// out\n        /* \"#utility.yul\":1798:1937   */\n    tag_309:\n        /* \"#utility.yul\":1887:1893   */\n      dup3\n        /* \"#utility.yul\":1882:1885   */\n      dup2\n        /* \"#utility.yul\":1877:1880   */\n      dup4\n        /* \"#utility.yul\":1871:1894   */\n      mcopy\n        /* \"#utility.yul\":1928:1929   */\n      0x00\n        /* \"#utility.yul\":1919:1925   */\n      dup4\n        /* \"#utility.yul\":1914:1917   */\n      dup4\n        /* \"#utility.yul\":1910:1926   */\n      add\n        /* \"#utility.yul\":1903:1930   */\n      mstore\n        /* \"#utility.yul\":1798:1937   */\n      pop\n      pop\n      pop\n      jump\t// out\n        /* \"#utility.yul\":1943:2045   */\n    tag_310:\n        /* \"#utility.yul\":1984:1990   */\n      0x00\n        /* \"#utility.yul\":2035:2037   */\n      0x1f\n        /* \"#utility.yul\":2031:2038   */\n      not\n        /* \"#utility.yul\":2026:2028   */\n      0x1f\n        /* \"#utility.yul\":2019:2024   */\n      dup4\n        /* \"#utility.yul\":2015:2029   */\n      add\n        /* \"#utility.yul\":2011:2039   */\n      and\n        /* \"#utility.yul\":2001:2039   */\n      swap1\n      pop\n        /* \"#utility.yul\":1943:2045   */\n      swap2\n      swap1\n      pop\n      jump\t// out\n        /* \"#utility.yul\":2051:2428   */\n    tag_311:\n        /* \"#utility.yul\":2139:2142   */\n      0x00\n        /* \"#utility.yul\":2167:2206   */\n      tag_381\n        /* \"#utility.yul\":2200:2205   */\n      dup3\n        /* \"#utility.yul\":2167:2206   */\n      tag_307\n      jump\t// in\n    tag_381:\n        /* \"#utility.yul\":2222:2293   */\n      tag_382\n        /* \"#utility.yul\":2286:2292   */\n      dup2\n        /* \"#utility.yul\":2281:2284   */\n      dup6\n        /* \"#utility.yul\":2222:2293   */\n      tag_308\n      jump\t// in\n    tag_382:\n        /* \"#utility.yul\":2215:2293   */\n      swap4\n      pop\n        /* \"#utility.yul\":2302:2367   */\n      tag_383\n        /* \"#utility.yul\":2360:2366   */\n      dup2\n        /* \"#utility.yul\":2355:2358   */\n      dup6\n        /* \"#utility.yul\":2348:2352   */\n      0x20\n        /* \"#utility.yul\":2341:2346   */\n      dup7\n        /* \"#utility.yul\":2337:2353   */\n      add\n        /* \"#utility.yul\":2302:2367   */\n      tag_309\n      jump\t// in\n    tag_383:\n        /* \"#utility.yul\":2392:2421   */\n      tag_384\n        /* \"#utility.yul\":2414:2420   */\n      dup2\n        /* \"#utility.yul\":2392:2421   */\n      tag_310\n      jump\t// in\n    tag_384:\n        /* \"#utility.yul\":2387:2390   */\n      dup5\n        /* \"#utility.yul\":2383:2422   */\n      add\n        /* \"#utility.yul\":2376:2422   */\n      swap2\n      pop\n        /* \"#utility.yul\":2143:2428   */\n      pop\n        /* \"#utility.yul\":2051:2428   */\n      swap3\n      swap2\n      pop\n      pop\n      jump\t// out\n        /* \"#utility.yul\":2434:2747   */\n    tag_33:\n        /* \"#utility.yul\":2547:2551   */\n      0x00\n        /* \"#utility.yul\":2585:2587   */\n      0x20\n        /* \"#utility.yul\":2574:2583   */\n      dup3\n        /* \"#utility.yul\":2570:2588   */\n      add\n        /* \"#utility.yul\":2562:2588   */\n      swap1\n      pop\n        /* \"#utility.yul\":2634:2643   */\n      dup2\n        /* \"#utility.yul\":2628:2632   */\n      dup2\n        /* \"#utility.yul\":2624:2644   */\n      sub\n        /* \"#utility.yul\":2620:2621   */\n      0x00\n        /* \"#utility.yul\":2609:2618   */\n      dup4\n        /* \"#utility.yul\":2605:2622   */\n      add\n        /* \"#utility.yul\":2598:2645   */\n      mstore\n        /* \"#utility.yul\":2662:2740   */\n      tag_386\n        /* \"#utility.yul\":2735:2739   */\n      dup2\n        /* \"#utility.yul\":2726:2732   */\n      dup5\n        /* \"#utility.yul\":2662:2740   */\n      tag_311\n      jump\t// in\n    tag_386:\n        /* \"#utility.yul\":2654:2740   */\n      swap1\n      pop\n        /* \"#utility.yul\":2434:2747   */\n      swap3\n      swap2\n      pop\n      pop\n      jump\t// out\n        /* \"#utility.yul\":2753:2830   */\n    tag_312:\n        /* \"#utility.yul\":2790:2797   */\n      0x00\n        /* \"#utility.yul\":2819:2824   */\n      dup2\n        /* \"#utility.yul\":2808:2824   */\n      swap1\n      pop\n        /* \"#utility.yul\":2753:2830   */\n      swap2\n      swap1\n      pop\n      jump\t// out\n        /* \"#utility.yul\":2836:2958   */\n    tag_313:\n        /* \"#utility.yul\":2909:2933   */\n      tag_389\n        /* \"#utility.yul\":2927:2932   */\n      dup2\n        /* \"#utility.yul\":2909:2933   */\n      tag_312\n      jump\t// in\n    tag_389:\n        /* \"#utility.yul\":2902:2907   */\n      dup2\n        /* \"#utility.yul\":2899:2934   */\n      eq\n        /* \"#utility.yul\":2889:2952   */\n      tag_390\n      jumpi\n        /* \"#utility.yul\":2948:2949   */\n      0x00\n        /* \"#utility.yul\":2945:2946   */\n      dup1\n        /* \"#utility.yul\":2938:2950   */\n      revert\n        /* \"#utility.yul\":2889:2952   */\n    tag_390:\n        /* \"#utility.yul\":2836:2958   */\n      pop\n      jump\t// out\n        /* \"#utility.yul\":2964:3103   */\n    tag_314:\n        /* \"#utility.yul\":3010:3015   */\n      0x00\n        /* \"#utility.yul\":3048:3054   */\n      dup2\n        /* \"#utility.yul\":3035:3055   */\n      calldataload\n        /* \"#utility.yul\":3026:3055   */\n      swap1\n      pop\n        /* \"#utility.yul\":3064:3097   */\n      tag_392\n        /* \"#utility.yul\":3091:3096   */\n      dup2\n        /* \"#utility.yul\":3064:3097   */\n      tag_313\n      jump\t// in\n    tag_392:\n        /* \"#utility.yul\":2964:3103   */\n      swap3\n      swap2\n      pop\n      pop\n      jump\t// out\n        /* \"#utility.yul\":3109:3438   */\n    tag_36:\n        /* \"#utility.yul\":3168:3174   */\n      0x00\n        /* \"#utility.yul\":3217:3219   */\n      0x20\n        /* \"#utility.yul\":3205:3214   */\n      dup3\n        /* \"#utility.yul\":3196:3203   */\n      dup5\n        /* \"#utility.yul\":3192:3215   */\n      sub\n        /* \"#utility.yul\":3188:3220   */\n      slt\n        /* \"#utility.yul\":3185:3304   */\n      iszero\n      tag_394\n      jumpi\n        /* \"#utility.yul\":3223:3302   */\n      tag_395\n      tag_300\n      jump\t// in\n    tag_395:\n        /* \"#utility.yul\":3185:3304   */\n    tag_394:\n        /* \"#utility.yul\":3343:3344   */\n      0x00\n        /* \"#utility.yul\":3368:3421   */\n      tag_396\n        /* \"#utility.yul\":3413:3420   */\n      dup5\n        /* \"#utility.yul\":3404:3410   */\n      dup3\n        /* \"#utility.yul\":3393:3402   */\n      dup6\n        /* \"#utility.yul\":3389:3411   */\n      add\n        /* \"#utility.yul\":3368:3421   */\n      tag_314\n      jump\t// in\n    tag_396:\n        /* \"#utility.yul\":3358:3421   */\n      swap2\n      pop\n        /* \"#utility.yul\":3314:3431   */\n      pop\n        /* \"#utility.yul\":3109:3438   */\n      swap3\n      swap2\n      pop\n      pop\n      jump\t// out\n        /* \"#utility.yul\":3444:3570   */\n    tag_315:\n        /* \"#utility.yul\":3481:3488   */\n      0x00\n        /* \"#utility.yul\":3521:3563   */\n      0xffffffffffffffffffffffffffffffffffffffff\n        /* \"#utility.yul\":3514:3519   */\n      dup3\n        /* \"#utility.yul\":3510:3564   */\n      and\n        /* \"#utility.yul\":3499:3564   */\n      swap1\n      pop\n        /* \"#utility.yul\":3444:3570   */\n      swap2\n      swap1\n      pop\n      jump\t// out\n        /* \"#utility.yul\":3576:3672   */\n    tag_316:\n        /* \"#utility.yul\":3613:3620   */\n      0x00\n        /* \"#utility.yul\":3642:3666   */\n      tag_399\n        /* \"#utility.yul\":3660:3665   */\n      dup3\n        /* \"#utility.yul\":3642:3666   */\n      tag_315\n      jump\t// in\n    tag_399:\n        /* \"#utility.yul\":3631:3666   */\n      swap1\n      pop\n        /* \"#utility.yul\":3576:3672   */\n      swap2\n      swap1\n      pop\n      jump\t// out\n        /* \"#utility.yul\":3678:3796   */\n    tag_317:\n        /* \"#utility.yul\":3765:3789   */\n      tag_401\n        /* \"#utility.yul\":3783:3788   */\n      dup2\n        /* \"#utility.yul\":3765:3789   */\n      tag_316\n      jump\t// in\n    tag_401:\n        /* \"#utility.yul\":3760:3763   */\n      dup3\n        /* \"#utility.yul\":3753:3790   */\n      mstore\n        /* \"#utility.yul\":3678:3796   */\n      pop\n      pop\n      jump\t// out\n        /* \"#utility.yul\":3802:4024   */\n    tag_39:\n        /* \"#utility.yul\":3895:3899   */\n      0x00\n        /* \"#utility.yul\":3933:3935   */\n      0x20\n        /* \"#utility.yul\":3922:3931   */\n      dup3\n        /* \"#utility.yul\":3918:3936   */\n      add\n        /* \"#utility.yul\":3910:3936   */\n      swap1\n      pop\n        /* \"#utility.yul\":3946:4017   */\n      tag_403\n        /* \"#utility.yul\":4014:4015   */\n      0x00\n        /* \"#utility.yul\":4003:4012   */\n      dup4\n        /* \"#utility.yul\":3999:4016   */\n      add\n        /* \"#utility.yul\":3990:3996   */\n      dup5\n        /* \"#utility.yul\":3946:4017   */\n      tag_317\n      jump\t// in\n    tag_403:\n        /* \"#utility.yul\":3802:4024   */\n      swap3\n      swap2\n      pop\n      pop\n      jump\t// out\n        /* \"#utility.yul\":4030:4152   */\n    tag_318:\n        /* \"#utility.yul\":4103:4127   */\n      tag_405\n        /* \"#utility.yul\":4121:4126   */\n      dup2\n        /* \"#utility.yul\":4103:4127   */\n      tag_316\n      jump\t// in\n    tag_405:\n        /* \"#utility.yul\":4096:4101   */\n      dup2\n        /* \"#utility.yul\":4093:4128   */\n      eq\n        /* \"#utility.yul\":4083:4146   */\n      tag_406\n      jumpi\n        /* \"#utility.yul\":4142:4143   */\n      0x00\n        /* \"#utility.yul\":4139:4140   */\n      dup1\n        /* \"#utility.yul\":4132:4144   */\n      revert\n        /* \"#utility.yul\":4083:4146   */\n    tag_406:\n        /* \"#utility.yul\":4030:4152   */\n      pop\n      jump\t// out\n        /* \"#utility.yul\":4158:4297   */\n    tag_319:\n        /* \"#utility.yul\":4204:4209   */\n      0x00\n        /* \"#utility.yul\":4242:4248   */\n      dup2\n        /* \"#utility.yul\":4229:4249   */\n      calldataload\n        /* \"#utility.yul\":4220:4249   */\n      swap1\n      pop\n        /* \"#utility.yul\":4258:4291   */\n      tag_408\n        /* \"#utility.yul\":4285:4290   */\n      dup2\n        /* \"#utility.yul\":4258:4291   */\n      tag_318\n      jump\t// in\n    tag_408:\n        /* \"#utility.yul\":4158:4297   */\n      swap3\n      swap2\n      pop\n      pop\n      jump\t// out\n        /* \"#utility.yul\":4303:4777   */\n    tag_42:\n        /* \"#utility.yul\":4371:4377   */\n      0x00\n        /* \"#utility.yul\":4379:4385   */\n      dup1\n        /* \"#utility.yul\":4428:4430   */\n      0x40\n        /* \"#utility.yul\":4416:4425   */\n      dup4\n        /* \"#utility.yul\":4407:4414   */\n      dup6\n        /* \"#utility.yul\":4403:4426   */\n      sub\n        /* \"#utility.yul\":4399:4431   */\n      slt\n        /* \"#utility.yul\":4396:4515   */\n      iszero\n      tag_410\n      jumpi\n        /* \"#utility.yul\":4434:4513   */\n      tag_411\n      tag_300\n      jump\t// in\n    tag_411:\n        /* \"#utility.yul\":4396:4515   */\n    tag_410:\n        /* \"#utility.yul\":4554:4555   */\n      0x00\n        /* \"#utility.yul\":4579:4632   */\n      tag_412\n        /* \"#utility.yul\":4624:4631   */\n      dup6\n        /* \"#utility.yul\":4615:4621   */\n      dup3\n        /* \"#utility.yul\":4604:4613   */\n      dup7\n        /* \"#utility.yul\":4600:4622   */\n      add\n        /* \"#utility.yul\":4579:4632   */\n      tag_319\n      jump\t// in\n    tag_412:\n        /* \"#utility.yul\":4569:4632   */\n      swap3\n      pop\n        /* \"#utility.yul\":4525:4642   */\n      pop\n        /* \"#utility.yul\":4681:4683   */\n      0x20\n        /* \"#utility.yul\":4707:4760   */\n      tag_413\n        /* \"#utility.yul\":4752:4759   */\n      dup6\n        /* \"#utility.yul\":4743:4749   */\n      dup3\n        /* \"#utility.yul\":4732:4741   */\n      dup7\n        /* \"#utility.yul\":4728:4750   */\n      add\n        /* \"#utility.yul\":4707:4760   */\n      tag_314\n      jump\t// in\n    tag_413:\n        /* \"#utility.yul\":4697:4760   */\n      swap2\n      pop\n        /* \"#utility.yul\":4652:4770   */\n      pop\n        /* \"#utility.yul\":4303:4777   */\n      swap3\n      pop\n      swap3\n      swap1\n      pop\n      jump\t// out\n        /* \"#utility.yul\":4783:5402   */\n    tag_46:\n        /* \"#utility.yul\":4860:4866   */\n      0x00\n        /* \"#utility.yul\":4868:4874   */\n      dup1\n        /* \"#utility.yul\":4876:4882   */\n      0x00\n        /* \"#utility.yul\":4925:4927   */\n      0x60\n        /* \"#utility.yul\":4913:4922   */\n      dup5\n        /* \"#utility.yul\":4904:4911   */\n      dup7\n        /* \"#utility.yul\":4900:4923   */\n      sub\n        /* \"#utility.yul\":4896:4928   */\n      slt\n        /* \"#utility.yul\":4893:5012   */\n      iszero\n      tag_415\n      jumpi\n        /* \"#utility.yul\":4931:5010   */\n      tag_416\n      tag_300\n      jump\t// in\n    tag_416:\n        /* \"#utility.yul\":4893:5012   */\n    tag_415:\n        /* \"#utility.yul\":5051:5052   */\n      0x00\n        /* \"#utility.yul\":5076:5129   */\n      tag_417\n        /* \"#utility.yul\":5121:5128   */\n      dup7\n        /* \"#utility.yul\":5112:5118   */\n      dup3\n        /* \"#utility.yul\":5101:5110   */\n      dup8\n        /* \"#utility.yul\":5097:5119   */\n      add\n        /* \"#utility.yul\":5076:5129   */\n      tag_319\n      jump\t// in\n    tag_417:\n        /* \"#utility.yul\":5066:5129   */\n      swap4\n      pop\n        /* \"#utility.yul\":5022:5139   */\n      pop\n        /* \"#utility.yul\":5178:5180   */\n      0x20\n        /* \"#utility.yul\":5204:5257   */\n      tag_418\n        /* \"#utility.yul\":5249:5256   */\n      dup7\n        /* \"#utility.yul\":5240:5246   */\n      dup3\n        /* \"#utility.yul\":5229:5238   */\n      dup8\n        /* \"#utility.yul\":5225:5247   */\n      add\n        /* \"#utility.yul\":5204:5257   */\n      tag_319\n      jump\t// in\n    tag_418:\n        /* \"#utility.yul\":5194:5257   */\n      swap3\n      pop\n        /* \"#utility.yul\":5149:5267   */\n      pop\n        /* \"#utility.yul\":5306:5308   */\n      0x40\n        /* \"#utility.yul\":5332:5385   */\n      tag_419\n        /* \"#utility.yul\":5377:5384   */\n      dup7\n        /* \"#utility.yul\":5368:5374   */\n      dup3\n        /* \"#utility.yul\":5357:5366   */\n      dup8\n        /* \"#utility.yul\":5353:5375   */\n      add\n        /* \"#utility.yul\":5332:5385   */\n      tag_314\n      jump\t// in\n    tag_419:\n        /* \"#utility.yul\":5322:5385   */\n      swap2\n      pop\n        /* \"#utility.yul\":5277:5395   */\n      pop\n        /* \"#utility.yul\":4783:5402   */\n      swap3\n      pop\n      swap3\n      pop\n      swap3\n      jump\t// out\n        /* \"#utility.yul\":5408:5525   */\n    tag_320:\n        /* \"#utility.yul\":5517:5518   */\n      0x00\n        /* \"#utility.yul\":5514:5515   */\n      dup1\n        /* \"#utility.yul\":5507:5519   */\n      revert\n        /* \"#utility.yul\":5531:5648   */\n    tag_321:\n        /* \"#utility.yul\":5640:5641   */\n      0x00\n        /* \"#utility.yul\":5637:5638   */\n      dup1\n        /* \"#utility.yul\":5630:5642   */\n      revert\n        /* \"#utility.yul\":5654:5834   */\n    tag_232:\n        /* \"#utility.yul\":5702:5779   */\n      0x4e487b7100000000000000000000000000000000000000000000000000000000\n        /* \"#utility.yul\":5699:5700   */\n      0x00\n        /* \"#utility.yul\":5692:5780   */\n      mstore\n        /* \"#utility.yul\":5799:5803   */\n      0x41\n        /* \"#utility.yul\":5796:5797   */\n      0x04\n        /* \"#utility.yul\":5789:5804   */\n      mstore\n        /* \"#utility.yul\":5823:5827   */\n      0x24\n        /* \"#utility.yul\":5820:5821   */\n      0x00\n        /* \"#utility.yul\":5813:5828   */\n      revert\n        /* \"#utility.yul\":5840:6121   */\n    tag_322:\n        /* \"#utility.yul\":5923:5950   */\n      tag_424\n        /* \"#utility.yul\":5945:5949   */\n      dup3\n        /* \"#utility.yul\":5923:5950   */\n      tag_310\n      jump\t// in\n    tag_424:\n        /* \"#utility.yul\":5915:5921   */\n      dup2\n        /* \"#utility.yul\":5911:5951   */\n      add\n        /* \"#utility.yul\":6053:6059   */\n      dup2\n        /* \"#utility.yul\":6041:6051   */\n      dup2\n        /* \"#utility.yul\":6038:6060   */\n      lt\n        /* \"#utility.yul\":6017:6035   */\n      0xffffffffffffffff\n        /* \"#utility.yul\":6005:6015   */\n      dup3\n        /* \"#utility.yul\":6002:6036   */\n      gt\n        /* \"#utility.yul\":5999:6061   */\n      or\n        /* \"#utility.yul\":5996:6084   */\n      iszero\n      tag_425\n      jumpi\n        /* \"#utility.yul\":6064:6082   */\n      tag_426\n      tag_232\n      jump\t// in\n    tag_426:\n        /* \"#utility.yul\":5996:6084   */\n    tag_425:\n        /* \"#utility.yul\":6104:6114   */\n      dup1\n        /* \"#utility.yul\":6100:6102   */\n      0x40\n        /* \"#utility.yul\":6093:6115   */\n      mstore\n        /* \"#utility.yul\":5883:6121   */\n      pop\n        /* \"#utility.yul\":5840:6121   */\n      pop\n      pop\n      jump\t// out\n        /* \"#utility.yul\":6127:6256   */\n    tag_323:\n        /* \"#utility.yul\":6161:6167   */\n      0x00\n        /* \"#utility.yul\":6188:6208   */\n      tag_428\n      tag_299\n      jump\t// in\n    tag_428:\n        /* \"#utility.yul\":6178:6208   */\n      swap1\n      pop\n        /* \"#utility.yul\":6217:6250   */\n      tag_429\n        /* \"#utility.yul\":6245:6249   */\n      dup3\n        /* \"#utility.yul\":6237:6243   */\n      dup3\n        /* \"#utility.yul\":6217:6250   */\n      tag_322\n      jump\t// in\n    tag_429:\n        /* \"#utility.yul\":6127:6256   */\n      swap2\n      swap1\n      pop\n      jump\t// out\n        /* \"#utility.yul\":6262:6570   */\n    tag_324:\n        /* \"#utility.yul\":6324:6328   */\n      0x00\n        /* \"#utility.yul\":6414:6432   */\n      0xffffffffffffffff\n        /* \"#utility.yul\":6406:6412   */\n      dup3\n        /* \"#utility.yul\":6403:6433   */\n      gt\n        /* \"#utility.yul\":6400:6456   */\n      iszero\n      tag_431\n      jumpi\n        /* \"#utility.yul\":6436:6454   */\n      tag_432\n      tag_232\n      jump\t// in\n    tag_432:\n        /* \"#utility.yul\":6400:6456   */\n    tag_431:\n        /* \"#utility.yul\":6474:6503   */\n      tag_433\n        /* \"#utility.yul\":6496:6502   */\n      dup3\n        /* \"#utility.yul\":6474:6503   */\n      tag_310\n      jump\t// in\n    tag_433:\n        /* \"#utility.yul\":6466:6503   */\n      swap1\n      pop\n        /* \"#utility.yul\":6558:6562   */\n      0x20\n        /* \"#utility.yul\":6552:6556   */\n      dup2\n        /* \"#utility.yul\":6548:6563   */\n      add\n        /* \"#utility.yul\":6540:6563   */\n      swap1\n      pop\n        /* \"#utility.yul\":6262:6570   */\n      swap2\n      swap1\n      pop\n      jump\t// out\n        /* \"#utility.yul\":6576:6724   */\n    tag_325:\n        /* \"#utility.yul\":6674:6680   */\n      dup3\n        /* \"#utility.yul\":6669:6672   */\n      dup2\n        /* \"#utility.yul\":6664:6667   */\n      dup4\n        /* \"#utility.yul\":6651:6681   */\n      calldatacopy\n        /* \"#utility.yul\":6715:6716   */\n      0x00\n        /* \"#utility.yul\":6706:6712   */\n      dup4\n        /* \"#utility.yul\":6701:6704   */\n      dup4\n        /* \"#utility.yul\":6697:6713   */\n      add\n        /* \"#utility.yul\":6690:6717   */\n      mstore\n        /* \"#utility.yul\":6576:6724   */\n      pop\n      pop\n      pop\n      jump\t// out\n        /* \"#utility.yul\":6730:7155   */\n    tag_326:\n        /* \"#utility.yul\":6808:6813   */\n      0x00\n        /* \"#utility.yul\":6833:6899   */\n      tag_436\n        /* \"#utility.yul\":6849:6898   */\n      tag_437\n        /* \"#utility.yul\":6891:6897   */\n      dup5\n        /* \"#utility.yul\":6849:6898   */\n      tag_324\n      jump\t// in\n    tag_437:\n        /* \"#utility.yul\":6833:6899   */\n      tag_323\n      jump\t// in\n    tag_436:\n        /* \"#utility.yul\":6824:6899   */\n      swap1\n      pop\n        /* \"#utility.yul\":6922:6928   */\n      dup3\n        /* \"#utility.yul\":6915:6920   */\n      dup2\n        /* \"#utility.yul\":6908:6929   */\n      mstore\n        /* \"#utility.yul\":6960:6964   */\n      0x20\n        /* \"#utility.yul\":6953:6958   */\n      dup2\n        /* \"#utility.yul\":6949:6965   */\n      add\n        /* \"#utility.yul\":6998:7001   */\n      dup5\n        /* \"#utility.yul\":6989:6995   */\n      dup5\n        /* \"#utility.yul\":6984:6987   */\n      dup5\n        /* \"#utility.yul\":6980:6996   */\n      add\n        /* \"#utility.yul\":6977:7002   */\n      gt\n        /* \"#utility.yul\":6974:7086   */\n      iszero\n      tag_438\n      jumpi\n        /* \"#utility.yul\":7005:7084   */\n      tag_439\n      tag_321\n      jump\t// in\n    tag_439:\n        /* \"#utility.yul\":6974:7086   */\n    tag_438:\n        /* \"#utility.yul\":7095:7149   */\n      tag_440\n        /* \"#utility.yul\":7142:7148   */\n      dup5\n        /* \"#utility.yul\":7137:7140   */\n      dup3\n        /* \"#utility.yul\":7132:7135   */\n      dup6\n        /* \"#utility.yul\":7095:7149   */\n      tag_325\n      jump\t// in\n    tag_440:\n        /* \"#utility.yul\":6814:7155   */\n      pop\n        /* \"#utility.yul\":6730:7155   */\n      swap4\n      swap3\n      pop\n      pop\n      pop\n      jump\t// out\n        /* \"#utility.yul\":7175:7515   */\n    tag_327:\n        /* \"#utility.yul\":7231:7236   */\n      0x00\n        /* \"#utility.yul\":7280:7283   */\n      dup3\n        /* \"#utility.yul\":7273:7277   */\n      0x1f\n        /* \"#utility.yul\":7265:7271   */\n      dup4\n        /* \"#utility.yul\":7261:7278   */\n      add\n        /* \"#utility.yul\":7257:7284   */\n      slt\n        /* \"#utility.yul\":7247:7369   */\n      tag_442\n      jumpi\n        /* \"#utility.yul\":7288:7367   */\n      tag_443\n      tag_320\n      jump\t// in\n    tag_443:\n        /* \"#utility.yul\":7247:7369   */\n    tag_442:\n        /* \"#utility.yul\":7405:7411   */\n      dup2\n        /* \"#utility.yul\":7392:7412   */\n      calldataload\n        /* \"#utility.yul\":7430:7509   */\n      tag_444\n        /* \"#utility.yul\":7505:7508   */\n      dup5\n        /* \"#utility.yul\":7497:7503   */\n      dup3\n        /* \"#utility.yul\":7490:7494   */\n      0x20\n        /* \"#utility.yul\":7482:7488   */\n      dup7\n        /* \"#utility.yul\":7478:7495   */\n      add\n        /* \"#utility.yul\":7430:7509   */\n      tag_326\n      jump\t// in\n    tag_444:\n        /* \"#utility.yul\":7421:7509   */\n      swap2\n      pop\n        /* \"#utility.yul\":7237:7515   */\n      pop\n        /* \"#utility.yul\":7175:7515   */\n      swap3\n      swap2\n      pop\n      pop\n      jump\t// out\n        /* \"#utility.yul\":7521:8030   */\n    tag_53:\n        /* \"#utility.yul\":7590:7596   */\n      0x00\n        /* \"#utility.yul\":7639:7641   */\n      0x20\n        /* \"#utility.yul\":7627:7636   */\n      dup3\n        /* \"#utility.yul\":7618:7625   */\n      dup5\n        /* \"#utility.yul\":7614:7637   */\n      sub\n        /* \"#utility.yul\":7610:7642   */\n      slt\n        /* \"#utility.yul\":7607:7726   */\n      iszero\n      tag_446\n      jumpi\n        /* \"#utility.yul\":7645:7724   */\n      tag_447\n      tag_300\n      jump\t// in\n    tag_447:\n        /* \"#utility.yul\":7607:7726   */\n    tag_446:\n        /* \"#utility.yul\":7793:7794   */\n      0x00\n        /* \"#utility.yul\":7782:7791   */\n      dup3\n        /* \"#utility.yul\":7778:7795   */\n      add\n        /* \"#utility.yul\":7765:7796   */\n      calldataload\n        /* \"#utility.yul\":7823:7841   */\n      0xffffffffffffffff\n        /* \"#utility.yul\":7815:7821   */\n      dup2\n        /* \"#utility.yul\":7812:7842   */\n      gt\n        /* \"#utility.yul\":7809:7926   */\n      iszero\n      tag_448\n      jumpi\n        /* \"#utility.yul\":7845:7924   */\n      tag_449\n      tag_301\n      jump\t// in\n    tag_449:\n        /* \"#utility.yul\":7809:7926   */\n    tag_448:\n        /* \"#utility.yul\":7950:8013   */\n      tag_450\n        /* \"#utility.yul\":8005:8012   */\n      dup5\n        /* \"#utility.yul\":7996:8002   */\n      dup3\n        /* \"#utility.yul\":7985:7994   */\n      dup6\n        /* \"#utility.yul\":7981:8003   */\n      add\n        /* \"#utility.yul\":7950:8013   */\n      tag_327\n      jump\t// in\n    tag_450:\n        /* \"#utility.yul\":7940:8013   */\n      swap2\n      pop\n        /* \"#utility.yul\":7736:8023   */\n      pop\n        /* \"#utility.yul\":7521:8030   */\n      swap3\n      swap2\n      pop\n      pop\n      jump\t// out\n        /* \"#utility.yul\":8036:8365   */\n    tag_61:\n        /* \"#utility.yul\":8095:8101   */\n      0x00\n        /* \"#utility.yul\":8144:8146   */\n      0x20\n        /* \"#utility.yul\":8132:8141   */\n      dup3\n        /* \"#utility.yul\":8123:8130   */\n      dup5\n        /* \"#utility.yul\":8119:8142   */\n      sub\n        /* \"#utility.yul\":8115:8147   */\n      slt\n        /* \"#utility.yul\":8112:8231   */\n      iszero\n      tag_452\n      jumpi\n        /* \"#utility.yul\":8150:8229   */\n      tag_453\n      tag_300\n      jump\t// in\n    tag_453:\n        /* \"#utility.yul\":8112:8231   */\n    tag_452:\n        /* \"#utility.yul\":8270:8271   */\n      0x00\n        /* \"#utility.yul\":8295:8348   */\n      tag_454\n        /* \"#utility.yul\":8340:8347   */\n      dup5\n        /* \"#utility.yul\":8331:8337   */\n      dup3\n        /* \"#utility.yul\":8320:8329   */\n      dup6\n        /* \"#utility.yul\":8316:8338   */\n      add\n        /* \"#utility.yul\":8295:8348   */\n      tag_319\n      jump\t// in\n    tag_454:\n        /* \"#utility.yul\":8285:8348   */\n      swap2\n      pop\n        /* \"#utility.yul\":8241:8358   */\n      pop\n        /* \"#utility.yul\":8036:8365   */\n      swap3\n      swap2\n      pop\n      pop\n      jump\t// out\n        /* \"#utility.yul\":8371:8489   */\n    tag_328:\n        /* \"#utility.yul\":8458:8482   */\n      tag_456\n        /* \"#utility.yul\":8476:8481   */\n      dup2\n        /* \"#utility.yul\":8458:8482   */\n      tag_312\n      jump\t// in\n    tag_456:\n        /* \"#utility.yul\":8453:8456   */\n      dup3\n        /* \"#utility.yul\":8446:8483   */\n      mstore\n        /* \"#utility.yul\":8371:8489   */\n      pop\n      pop\n      jump\t// out\n        /* \"#utility.yul\":8495:8717   */\n    tag_64:\n        /* \"#utility.yul\":8588:8592   */\n      0x00\n        /* \"#utility.yul\":8626:8628   */\n      0x20\n        /* \"#utility.yul\":8615:8624   */\n      dup3\n        /* \"#utility.yul\":8611:8629   */\n      add\n        /* \"#utility.yul\":8603:8629   */\n      swap1\n      pop\n        /* \"#utility.yul\":8639:8710   */\n      tag_458\n        /* \"#utility.yul\":8707:8708   */\n      0x00\n        /* \"#utility.yul\":8696:8705   */\n      dup4\n        /* \"#utility.yul\":8692:8709   */\n      add\n        /* \"#utility.yul\":8683:8689   */\n      dup5\n        /* \"#utility.yul\":8639:8710   */\n      tag_328\n      jump\t// in\n    tag_458:\n        /* \"#utility.yul\":8495:8717   */\n      swap3\n      swap2\n      pop\n      pop\n      jump\t// out\n        /* \"#utility.yul\":8723:8839   */\n    tag_329:\n        /* \"#utility.yul\":8793:8814   */\n      tag_460\n        /* \"#utility.yul\":8808:8813   */\n      dup2\n        /* \"#utility.yul\":8793:8814   */\n      tag_305\n      jump\t// in\n    tag_460:\n        /* \"#utility.yul\":8786:8791   */\n      dup2\n        /* \"#utility.yul\":8783:8815   */\n      eq\n        /* \"#utility.yul\":8773:8833   */\n      tag_461\n      jumpi\n        /* \"#utility.yul\":8829:8830   */\n      0x00\n        /* \"#utility.yul\":8826:8827   */\n      dup1\n        /* \"#utility.yul\":8819:8831   */\n      revert\n        /* \"#utility.yul\":8773:8833   */\n    tag_461:\n        /* \"#utility.yul\":8723:8839   */\n      pop\n      jump\t// out\n        /* \"#utility.yul\":8845:8978   */\n    tag_330:\n        /* \"#utility.yul\":8888:8893   */\n      0x00\n        /* \"#utility.yul\":8926:8932   */\n      dup2\n        /* \"#utility.yul\":8913:8933   */\n      calldataload\n        /* \"#utility.yul\":8904:8933   */\n      swap1\n      pop\n        /* \"#utility.yul\":8942:8972   */\n      tag_463\n        /* \"#utility.yul\":8966:8971   */\n      dup2\n        /* \"#utility.yul\":8942:8972   */\n      tag_329\n      jump\t// in\n    tag_463:\n        /* \"#utility.yul\":8845:8978   */\n      swap3\n      swap2\n      pop\n      pop\n      jump\t// out\n        /* \"#utility.yul\":8984:9452   */\n    tag_75:\n        /* \"#utility.yul\":9049:9055   */\n      0x00\n        /* \"#utility.yul\":9057:9063   */\n      dup1\n        /* \"#utility.yul\":9106:9108   */\n      0x40\n        /* \"#utility.yul\":9094:9103   */\n      dup4\n        /* \"#utility.yul\":9085:9092   */\n      dup6\n        /* \"#utility.yul\":9081:9104   */\n      sub\n        /* \"#utility.yul\":9077:9109   */\n      slt\n        /* \"#utility.yul\":9074:9193   */\n      iszero\n      tag_465\n      jumpi\n        /* \"#utility.yul\":9112:9191   */\n      tag_466\n      tag_300\n      jump\t// in\n    tag_466:\n        /* \"#utility.yul\":9074:9193   */\n    tag_465:\n        /* \"#utility.yul\":9232:9233   */\n      0x00\n        /* \"#utility.yul\":9257:9310   */\n      tag_467\n        /* \"#utility.yul\":9302:9309   */\n      dup6\n        /* \"#utility.yul\":9293:9299   */\n      dup3\n        /* \"#utility.yul\":9282:9291   */\n      dup7\n        /* \"#utility.yul\":9278:9300   */\n      add\n        /* \"#utility.yul\":9257:9310   */\n      tag_319\n      jump\t// in\n    tag_467:\n        /* \"#utility.yul\":9247:9310   */\n      swap3\n      pop\n        /* \"#utility.yul\":9203:9320   */\n      pop\n        /* \"#utility.yul\":9359:9361   */\n      0x20\n        /* \"#utility.yul\":9385:9435   */\n      tag_468\n        /* \"#utility.yul\":9427:9434   */\n      dup6\n        /* \"#utility.yul\":9418:9424   */\n      dup3\n        /* \"#utility.yul\":9407:9416   */\n      dup7\n        /* \"#utility.yul\":9403:9425   */\n      add\n        /* \"#utility.yul\":9385:9435   */\n      tag_330\n      jump\t// in\n    tag_468:\n        /* \"#utility.yul\":9375:9435   */\n      swap2\n      pop\n        /* \"#utility.yul\":9330:9445   */\n      pop\n        /* \"#utility.yul\":8984:9452   */\n      swap3\n      pop\n      swap3\n      swap1\n      pop\n      jump\t// out\n        /* \"#utility.yul\":9458:9765   */\n    tag_331:\n        /* \"#utility.yul\":9519:9523   */\n      0x00\n        /* \"#utility.yul\":9609:9627   */\n      0xffffffffffffffff\n        /* \"#utility.yul\":9601:9607   */\n      dup3\n        /* \"#utility.yul\":9598:9628   */\n      gt\n        /* \"#utility.yul\":9595:9651   */\n      iszero\n      tag_470\n      jumpi\n        /* \"#utility.yul\":9631:9649   */\n      tag_471\n      tag_232\n      jump\t// in\n    tag_471:\n        /* \"#utility.yul\":9595:9651   */\n    tag_470:\n        /* \"#utility.yul\":9669:9698   */\n      tag_472\n        /* \"#utility.yul\":9691:9697   */\n      dup3\n        /* \"#utility.yul\":9669:9698   */\n      tag_310\n      jump\t// in\n    tag_472:\n        /* \"#utility.yul\":9661:9698   */\n      swap1\n      pop\n        /* \"#utility.yul\":9753:9757   */\n      0x20\n        /* \"#utility.yul\":9747:9751   */\n      dup2\n        /* \"#utility.yul\":9743:9758   */\n      add\n        /* \"#utility.yul\":9735:9758   */\n      swap1\n      pop\n        /* \"#utility.yul\":9458:9765   */\n      swap2\n      swap1\n      pop\n      jump\t// out\n        /* \"#utility.yul\":9771:10194   */\n    tag_332:\n        /* \"#utility.yul\":9848:9853   */\n      0x00\n        /* \"#utility.yul\":9873:9938   */\n      tag_474\n        /* \"#utility.yul\":9889:9937   */\n      tag_475\n        /* \"#utility.yul\":9930:9936   */\n      dup5\n        /* \"#utility.yul\":9889:9937   */\n      tag_331\n      jump\t// in\n    tag_475:\n        /* \"#utility.yul\":9873:9938   */\n      tag_323\n      jump\t// in\n    tag_474:\n        /* \"#utility.yul\":9864:9938   */\n      swap1\n      pop\n        /* \"#utility.yul\":9961:9967   */\n      dup3\n        /* \"#utility.yul\":9954:9959   */\n      dup2\n        /* \"#utility.yul\":9947:9968   */\n      mstore\n        /* \"#utility.yul\":9999:10003   */\n      0x20\n        /* \"#utility.yul\":9992:9997   */\n      dup2\n        /* \"#utility.yul\":9988:10004   */\n      add\n        /* \"#utility.yul\":10037:10040   */\n      dup5\n        /* \"#utility.yul\":10028:10034   */\n      dup5\n        /* \"#utility.yul\":10023:10026   */\n      dup5\n        /* \"#utility.yul\":10019:10035   */\n      add\n        /* \"#utility.yul\":10016:10041   */\n      gt\n        /* \"#utility.yul\":10013:10125   */\n      iszero\n      tag_476\n      jumpi\n        /* \"#utility.yul\":10044:10123   */\n      tag_477\n      tag_321\n      jump\t// in\n    tag_477:\n        /* \"#utility.yul\":10013:10125   */\n    tag_476:\n        /* \"#utility.yul\":10134:10188   */\n      tag_478\n        /* \"#utility.yul\":10181:10187   */\n      dup5\n        /* \"#utility.yul\":10176:10179   */\n      dup3\n        /* \"#utility.yul\":10171:10174   */\n      dup6\n        /* \"#utility.yul\":10134:10188   */\n      tag_325\n      jump\t// in\n    tag_478:\n        /* \"#utility.yul\":9854:10194   */\n      pop\n        /* \"#utility.yul\":9771:10194   */\n      swap4\n      swap3\n      pop\n      pop\n      pop\n      jump\t// out\n        /* \"#utility.yul\":10213:10551   */\n    tag_333:\n        /* \"#utility.yul\":10268:10273   */\n      0x00\n        /* \"#utility.yul\":10317:10320   */\n      dup3\n        /* \"#utility.yul\":10310:10314   */\n      0x1f\n        /* \"#utility.yul\":10302:10308   */\n      dup4\n        /* \"#utility.yul\":10298:10315   */\n      add\n        /* \"#utility.yul\":10294:10321   */\n      slt\n        /* \"#utility.yul\":10284:10406   */\n      tag_480\n      jumpi\n        /* \"#utility.yul\":10325:10404   */\n      tag_481\n      tag_320\n      jump\t// in\n    tag_481:\n        /* \"#utility.yul\":10284:10406   */\n    tag_480:\n        /* \"#utility.yul\":10442:10448   */\n      dup2\n        /* \"#utility.yul\":10429:10449   */\n      calldataload\n        /* \"#utility.yul\":10467:10545   */\n      tag_482\n        /* \"#utility.yul\":10541:10544   */\n      dup5\n        /* \"#utility.yul\":10533:10539   */\n      dup3\n        /* \"#utility.yul\":10526:10530   */\n      0x20\n        /* \"#utility.yul\":10518:10524   */\n      dup7\n        /* \"#utility.yul\":10514:10531   */\n      add\n        /* \"#utility.yul\":10467:10545   */\n      tag_332\n      jump\t// in\n    tag_482:\n        /* \"#utility.yul\":10458:10545   */\n      swap2\n      pop\n        /* \"#utility.yul\":10274:10551   */\n      pop\n        /* \"#utility.yul\":10213:10551   */\n      swap3\n      swap2\n      pop\n      pop\n      jump\t// out\n        /* \"#utility.yul\":10557:11500   */\n    tag_79:\n        /* \"#utility.yul\":10652:10658   */\n      0x00\n        /* \"#utility.yul\":10660:10666   */\n      dup1\n        /* \"#utility.yul\":10668:10674   */\n      0x00\n        /* \"#utility.yul\":10676:10682   */\n      dup1\n        /* \"#utility.yul\":10725:10728   */\n      0x80\n        /* \"#utility.yul\":10713:10722   */\n      dup6\n        /* \"#utility.yul\":10704:10711   */\n      dup8\n        /* \"#utility.yul\":10700:10723   */\n      sub\n        /* \"#utility.yul\":10696:10729   */\n      slt\n        /* \"#utility.yul\":10693:10813   */\n      iszero\n      tag_484\n      jumpi\n        /* \"#utility.yul\":10732:10811   */\n      tag_485\n      tag_300\n      jump\t// in\n    tag_485:\n        /* \"#utility.yul\":10693:10813   */\n    tag_484:\n        /* \"#utility.yul\":10852:10853   */\n      0x00\n        /* \"#utility.yul\":10877:10930   */\n      tag_486\n        /* \"#utility.yul\":10922:10929   */\n      dup8\n        /* \"#utility.yul\":10913:10919   */\n      dup3\n        /* \"#utility.yul\":10902:10911   */\n      dup9\n        /* \"#utility.yul\":10898:10920   */\n      add\n        /* \"#utility.yul\":10877:10930   */\n      tag_319\n      jump\t// in\n    tag_486:\n        /* \"#utility.yul\":10867:10930   */\n      swap5\n      pop\n        /* \"#utility.yul\":10823:10940   */\n      pop\n        /* \"#utility.yul\":10979:10981   */\n      0x20\n        /* \"#utility.yul\":11005:11058   */\n      tag_487\n        /* \"#utility.yul\":11050:11057   */\n      dup8\n        /* \"#utility.yul\":11041:11047   */\n      dup3\n        /* \"#utility.yul\":11030:11039   */\n      dup9\n        /* \"#utility.yul\":11026:11048   */\n      add\n        /* \"#utility.yul\":11005:11058   */\n      tag_319\n      jump\t// in\n    tag_487:\n        /* \"#utility.yul\":10995:11058   */\n      swap4\n      pop\n        /* \"#utility.yul\":10950:11068   */\n      pop\n        /* \"#utility.yul\":11107:11109   */\n      0x40\n        /* \"#utility.yul\":11133:11186   */\n      tag_488\n        /* \"#utility.yul\":11178:11185   */\n      dup8\n        /* \"#utility.yul\":11169:11175   */\n      dup3\n        /* \"#utility.yul\":11158:11167   */\n      dup9\n        /* \"#utility.yul\":11154:11176   */\n      add\n        /* \"#utility.yul\":11133:11186   */\n      tag_314\n      jump\t// in\n    tag_488:\n        /* \"#utility.yul\":11123:11186   */\n      swap3\n      pop\n        /* \"#utility.yul\":11078:11196   */\n      pop\n        /* \"#utility.yul\":11263:11265   */\n      0x60\n        /* \"#utility.yul\":11252:11261   */\n      dup6\n        /* \"#utility.yul\":11248:11266   */\n      add\n        /* \"#utility.yul\":11235:11267   */\n      calldataload\n        /* \"#utility.yul\":11294:11312   */\n      0xffffffffffffffff\n        /* \"#utility.yul\":11286:11292   */\n      dup2\n        /* \"#utility.yul\":11283:11313   */\n      gt\n        /* \"#utility.yul\":11280:11397   */\n      iszero\n      tag_489\n      jumpi\n        /* \"#utility.yul\":11316:11395   */\n      tag_490\n      tag_301\n      jump\t// in\n    tag_490:\n        /* \"#utility.yul\":11280:11397   */\n    tag_489:\n        /* \"#utility.yul\":11421:11483   */\n      tag_491\n        /* \"#utility.yul\":11475:11482   */\n      dup8\n        /* \"#utility.yul\":11466:11472   */\n      dup3\n        /* \"#utility.yul\":11455:11464   */\n      dup9\n        /* \"#utility.yul\":11451:11473   */\n      add\n        /* \"#utility.yul\":11421:11483   */\n      tag_333\n      jump\t// in\n    tag_491:\n        /* \"#utility.yul\":11411:11483   */\n      swap2\n      pop\n        /* \"#utility.yul\":11206:11493   */\n      pop\n        /* \"#utility.yul\":10557:11500   */\n      swap3\n      swap6\n      swap2\n      swap5\n      pop\n      swap3\n      pop\n      jump\t// out\n        /* \"#utility.yul\":11506:11980   */\n    tag_87:\n        /* \"#utility.yul\":11574:11580   */\n      0x00\n        /* \"#utility.yul\":11582:11588   */\n      dup1\n        /* \"#utility.yul\":11631:11633   */\n      0x40\n        /* \"#utility.yul\":11619:11628   */\n      dup4\n        /* \"#utility.yul\":11610:11617   */\n      dup6\n        /* \"#utility.yul\":11606:11629   */\n      sub\n        /* \"#utility.yul\":11602:11634   */\n      slt\n        /* \"#utility.yul\":11599:11718   */\n      iszero\n      tag_493\n      jumpi\n        /* \"#utility.yul\":11637:11716   */\n      tag_494\n      tag_300\n      jump\t// in\n    tag_494:\n        /* \"#utility.yul\":11599:11718   */\n    tag_493:\n        /* \"#utility.yul\":11757:11758   */\n      0x00\n        /* \"#utility.yul\":11782:11835   */\n      tag_495\n        /* \"#utility.yul\":11827:11834   */\n      dup6\n        /* \"#utility.yul\":11818:11824   */\n      dup3\n        /* \"#utility.yul\":11807:11816   */\n      dup7\n        /* \"#utility.yul\":11803:11825   */\n      add\n        /* \"#utility.yul\":11782:11835   */\n      tag_319\n      jump\t// in\n    tag_495:\n        /* \"#utility.yul\":11772:11835   */\n      swap3\n      pop\n        /* \"#utility.yul\":11728:11845   */\n      pop\n        /* \"#utility.yul\":11884:11886   */\n      0x20\n        /* \"#utility.yul\":11910:11963   */\n      tag_496\n        /* \"#utility.yul\":11955:11962   */\n      dup6\n        /* \"#utility.yul\":11946:11952   */\n      dup3\n        /* \"#utility.yul\":11935:11944   */\n      dup7\n        /* \"#utility.yul\":11931:11953   */\n      add\n        /* \"#utility.yul\":11910:11963   */\n      tag_319\n      jump\t// in\n    tag_496:\n        /* \"#utility.yul\":11900:11963   */\n      swap2\n      pop\n        /* \"#utility.yul\":11855:11973   */\n      pop\n        /* \"#utility.yul\":11506:11980   */\n      swap3\n      pop\n      swap3\n      swap1\n      pop\n      jump\t// out\n        /* \"#utility.yul\":11986:12166   */\n    tag_334:\n        /* \"#utility.yul\":12034:12111   */\n      0x4e487b7100000000000000000000000000000000000000000000000000000000\n        /* \"#utility.yul\":12031:12032   */\n      0x00\n        /* \"#utility.yul\":12024:12112   */\n      mstore\n        /* \"#utility.yul\":12131:12135   */\n      0x22\n        /* \"#utility.yul\":12128:12129   */\n      0x04\n        /* \"#utility.yul\":12121:12136   */\n      mstore\n        /* \"#utility.yul\":12155:12159   */\n      0x24\n        /* \"#utility.yul\":12152:12153   */\n      0x00\n        /* \"#utility.yul\":12145:12160   */\n      revert\n        /* \"#utility.yul\":12172:12492   */\n    tag_103:\n        /* \"#utility.yul\":12216:12222   */\n      0x00\n        /* \"#utility.yul\":12253:12254   */\n      0x02\n        /* \"#utility.yul\":12247:12251   */\n      dup3\n        /* \"#utility.yul\":12243:12255   */\n      div\n        /* \"#utility.yul\":12233:12255   */\n      swap1\n      pop\n        /* \"#utility.yul\":12300:12301   */\n      0x01\n        /* \"#utility.yul\":12294:12298   */\n      dup3\n        /* \"#utility.yul\":12290:12302   */\n      and\n        /* \"#utility.yul\":12321:12339   */\n      dup1\n        /* \"#utility.yul\":12311:12392   */\n      tag_499\n      jumpi\n        /* \"#utility.yul\":12377:12381   */\n      0x7f\n        /* \"#utility.yul\":12369:12375   */\n      dup3\n        /* \"#utility.yul\":12365:12382   */\n      and\n        /* \"#utility.yul\":12355:12382   */\n      swap2\n      pop\n        /* \"#utility.yul\":12311:12392   */\n    tag_499:\n        /* \"#utility.yul\":12439:12441   */\n      0x20\n        /* \"#utility.yul\":12431:12437   */\n      dup3\n        /* \"#utility.yul\":12428:12442   */\n      lt\n        /* \"#utility.yul\":12408:12426   */\n      dup2\n        /* \"#utility.yul\":12405:12443   */\n      sub\n        /* \"#utility.yul\":12402:12486   */\n      tag_500\n      jumpi\n        /* \"#utility.yul\":12458:12476   */\n      tag_501\n      tag_334\n      jump\t// in\n    tag_501:\n        /* \"#utility.yul\":12402:12486   */\n    tag_500:\n        /* \"#utility.yul\":12223:12492   */\n      pop\n        /* \"#utility.yul\":12172:12492   */\n      swap2\n      swap1\n      pop\n      jump\t// out\n        /* \"#utility.yul\":12498:12940   */\n    tag_126:\n        /* \"#utility.yul\":12647:12651   */\n      0x00\n        /* \"#utility.yul\":12685:12687   */\n      0x60\n        /* \"#utility.yul\":12674:12683   */\n      dup3\n        /* \"#utility.yul\":12670:12688   */\n      add\n        /* \"#utility.yul\":12662:12688   */\n      swap1\n      pop\n        /* \"#utility.yul\":12698:12769   */\n      tag_503\n        /* \"#utility.yul\":12766:12767   */\n      0x00\n        /* \"#utility.yul\":12755:12764   */\n      dup4\n        /* \"#utility.yul\":12751:12768   */\n      add\n        /* \"#utility.yul\":12742:12748   */\n      dup7\n        /* \"#utility.yul\":12698:12769   */\n      tag_317\n      jump\t// in\n    tag_503:\n        /* \"#utility.yul\":12779:12851   */\n      tag_504\n        /* \"#utility.yul\":12847:12849   */\n      0x20\n        /* \"#utility.yul\":12836:12845   */\n      dup4\n        /* \"#utility.yul\":12832:12850   */\n      add\n        /* \"#utility.yul\":12823:12829   */\n      dup6\n        /* \"#utility.yul\":12779:12851   */\n      tag_328\n      jump\t// in\n    tag_504:\n        /* \"#utility.yul\":12861:12933   */\n      tag_505\n        /* \"#utility.yul\":12929:12931   */\n      0x40\n        /* \"#utility.yul\":12918:12927   */\n      dup4\n        /* \"#utility.yul\":12914:12932   */\n      add\n        /* \"#utility.yul\":12905:12911   */\n      dup5\n        /* \"#utility.yul\":12861:12933   */\n      tag_317\n      jump\t// in\n    tag_505:\n        /* \"#utility.yul\":12498:12940   */\n      swap5\n      swap4\n      pop\n      pop\n      pop\n      pop\n      jump\t// out\n        /* \"#utility.yul\":12946:13087   */\n    tag_335:\n        /* \"#utility.yul\":12995:12999   */\n      0x00\n        /* \"#utility.yul\":13018:13021   */\n      dup2\n        /* \"#utility.yul\":13010:13021   */\n      swap1\n      pop\n        /* \"#utility.yul\":13041:13044   */\n      dup2\n        /* \"#utility.yul\":13038:13039   */\n      0x00\n        /* \"#utility.yul\":13031:13045   */\n      mstore\n        /* \"#utility.yul\":13075:13079   */\n      0x20\n        /* \"#utility.yul\":13072:13073   */\n      0x00\n        /* \"#utility.yul\":13062:13080   */\n      keccak256\n        /* \"#utility.yul\":13054:13080   */\n      swap1\n      pop\n        /* \"#utility.yul\":12946:13087   */\n      swap2\n      swap1\n      pop\n      jump\t// out\n        /* \"#utility.yul\":13093:13186   */\n    tag_336:\n        /* \"#utility.yul\":13130:13136   */\n      0x00\n        /* \"#utility.yul\":13177:13179   */\n      0x20\n        /* \"#utility.yul\":13172:13174   */\n      0x1f\n        /* \"#utility.yul\":13165:13170   */\n      dup4\n        /* \"#utility.yul\":13161:13175   */\n      add\n        /* \"#utility.yul\":13157:13180   */\n      div\n        /* \"#utility.yul\":13147:13180   */\n      swap1\n      pop\n        /* \"#utility.yul\":13093:13186   */\n      swap2\n      swap1\n      pop\n      jump\t// out\n        /* \"#utility.yul\":13192:13299   */\n    tag_337:\n        /* \"#utility.yul\":13236:13244   */\n      0x00\n        /* \"#utility.yul\":13286:13291   */\n      dup3\n        /* \"#utility.yul\":13280:13284   */\n      dup3\n        /* \"#utility.yul\":13276:13292   */\n      shl\n        /* \"#utility.yul\":13255:13292   */\n      swap1\n      pop\n        /* \"#utility.yul\":13192:13299   */\n      swap3\n      swap2\n      pop\n      pop\n      jump\t// out\n        /* \"#utility.yul\":13305:13698   */\n    tag_338:\n        /* \"#utility.yul\":13374:13380   */\n      0x00\n        /* \"#utility.yul\":13424:13425   */\n      0x08\n        /* \"#utility.yul\":13412:13422   */\n      dup4\n        /* \"#utility.yul\":13408:13426   */\n      mul\n        /* \"#utility.yul\":13447:13544   */\n      tag_510\n        /* \"#utility.yul\":13477:13543   */\n      0xffffffffffffffffffffffffffffffffffffffffffffffffffffffffffffffff\n        /* \"#utility.yul\":13466:13475   */\n      dup3\n        /* \"#utility.yul\":13447:13544   */\n      tag_337\n      jump\t// in\n    tag_510:\n        /* \"#utility.yul\":13565:13604   */\n      tag_511\n        /* \"#utility.yul\":13595:13603   */\n      dup7\n        /* \"#utility.yul\":13584:13593   */\n      dup4\n        /* \"#utility.yul\":13565:13604   */\n      tag_337\n      jump\t// in\n    tag_511:\n        /* \"#utility.yul\":13553:13604   */\n      swap6\n      pop\n        /* \"#utility.yul\":13637:13641   */\n      dup1\n        /* \"#utility.yul\":13633:13642   */\n      not\n        /* \"#utility.yul\":13626:13631   */\n      dup5\n        /* \"#utility.yul\":13622:13643   */\n      and\n        /* \"#utility.yul\":13613:13643   */\n      swap4\n      pop\n        /* \"#utility.yul\":13686:13690   */\n      dup1\n        /* \"#utility.yul\":13676:13684   */\n      dup7\n        /* \"#utility.yul\":13672:13691   */\n      and\n        /* \"#utility.yul\":13665:13670   */\n      dup5\n        /* \"#utility.yul\":13662:13692   */\n      or\n        /* \"#utility.yul\":13652:13692   */\n      swap3\n      pop\n        /* \"#utility.yul\":13381:13698   */\n      pop\n      pop\n        /* \"#utility.yul\":13305:13698   */\n      swap4\n      swap3\n      pop\n      pop\n      pop\n      jump\t// out\n        /* \"#utility.yul\":13704:13764   */\n    tag_339:\n        /* \"#utility.yul\":13732:13735   */\n      0x00\n        /* \"#utility.yul\":13753:13758   */\n      dup2\n        /* \"#utility.yul\":13746:13758   */\n      swap1\n      pop\n        /* \"#utility.yul\":13704:13764   */\n      swap2\n      swap1\n      pop\n      jump\t// out\n        /* \"#utility.yul\":13770:13912   */\n    tag_340:\n        /* \"#utility.yul\":13820:13829   */\n      0x00\n        /* \"#utility.yul\":13853:13906   */\n      tag_514\n        /* \"#utility.yul\":13871:13905   */\n      tag_515\n        /* \"#utility.yul\":13880:13904   */\n      tag_516\n        /* \"#utility.yul\":13898:13903   */\n      dup5\n        /* \"#utility.yul\":13880:13904   */\n      tag_312\n      jump\t// in\n    tag_516:\n        /* \"#utility.yul\":13871:13905   */\n      tag_339\n      jump\t// in\n    tag_515:\n        /* \"#utility.yul\":13853:13906   */\n      tag_312\n      jump\t// in\n    tag_514:\n        /* \"#utility.yul\":13840:13906   */\n      swap1\n      pop\n        /* \"#utility.yul\":13770:13912   */\n      swap2\n      swap1\n      pop\n      jump\t// out\n        /* \"#utility.yul\":13918:13993   */\n    tag_341:\n        /* \"#utility.yul\":13961:13964   */\n      0x00\n        /* \"#utility.yul\":13982:13987   */\n      dup2\n        /* \"#utility.yul\":13975:13987   */\n      swap1\n      pop\n        /* \"#utility.yul\":13918:13993   */\n      swap2\n      swap1\n      pop\n      jump\t// out\n        /* \"#utility.yul\":13999:14268   */\n    tag_342:\n        /* \"#utility.yul\":14109:14148   */\n      tag_519\n        /* \"#utility.yul\":14140:14147   */\n      dup4\n        /* \"#utility.yul\":14109:14148   */\n      tag_340\n      jump\t// in\n    tag_519:\n        /* \"#utility.yul\":14170:14261   */\n      tag_520\n        /* \"#utility.yul\":14219:14260   */\n      tag_521\n        /* \"#utility.yul\":14243:14259   */\n      dup3\n        /* \"#utility.yul\":14219:14260   */\n      tag_341\n      jump\t// in\n    tag_521:\n        /* \"#utility.yul\":14211:14217   */\n      dup5\n        /* \"#utility.yul\":14204:14208   */\n      dup5\n        /* \"#utility.yul\":14198:14209   */\n      sload\n        /* \"#utility.yul\":14170:14261   */\n      tag_338\n      jump\t// in\n    tag_520:\n        /* \"#utility.yul\":14164:14168   */\n      dup3\n        /* \"#utility.yul\":14157:14262   */\n      sstore\n        /* \"#utility.yul\":14075:14268   */\n      pop\n        /* \"#utility.yul\":13999:14268   */\n      pop\n      pop\n      pop\n      jump\t// out\n        /* \"#utility.yul\":14274:14347   */\n    tag_343:\n        /* \"#utility.yul\":14319:14322   */\n      0x00\n        /* \"#utility.yul\":14274:14347   */\n      swap1\n      jump\t// out\n        /* \"#utility.yul\":14353:14542   */\n    tag_344:\n        /* \"#utility.yul\":14430:14462   */\n      tag_524\n      tag_343\n      jump\t// in\n    tag_524:\n        /* \"#utility.yul\":14471:14536   */\n      tag_525\n        /* \"#utility.yul\":14529:14535   */\n      dup2\n        /* \"#utility.yul\":14521:14527   */\n      dup5\n        /* \"#utility.yul\":14515:14519   */\n      dup5\n        /* \"#utility.yul\":14471:14536   */\n      tag_342\n      jump\t// in\n    tag_525:\n        /* \"#utility.yul\":14406:14542   */\n      pop\n        /* \"#utility.yul\":14353:14542   */\n      pop\n      pop\n      jump\t// out\n        /* \"#utility.yul\":14548:14734   */\n    tag_345:\n        /* \"#utility.yul\":14608:14728   */\n    tag_527:\n        /* \"#utility.yul\":14625:14628   */\n      dup2\n        /* \"#utility.yul\":14618:14623   */\n      dup2\n        /* \"#utility.yul\":14615:14629   */\n      lt\n        /* \"#utility.yul\":14608:14728   */\n      iszero\n      tag_529\n      jumpi\n        /* \"#utility.yul\":14679:14718   */\n      tag_530\n        /* \"#utility.yul\":14716:14717   */\n      0x00\n        /* \"#utility.yul\":14709:14714   */\n      dup3\n        /* \"#utility.yul\":14679:14718   */\n      tag_344\n      jump\t// in\n    tag_530:\n        /* \"#utility.yul\":14652:14653   */\n      0x01\n        /* \"#utility.yul\":14645:14650   */\n      dup2\n        /* \"#utility.yul\":14641:14654   */\n      add\n        /* \"#utility.yul\":14632:14654   */\n      swap1\n      pop\n        /* \"#utility.yul\":14608:14728   */\n      jump(tag_527)\n    tag_529:\n        /* \"#utility.yul\":14548:14734   */\n      pop\n      pop\n      jump\t// out\n        /* \"#utility.yul\":14740:15283   */\n    tag_346:\n        /* \"#utility.yul\":14841:14843   */\n      0x1f\n        /* \"#utility.yul\":14836:14839   */\n      dup3\n        /* \"#utility.yul\":14833:14844   */\n      gt\n        /* \"#utility.yul\":14830:15276   */\n      iszero\n      tag_532\n      jumpi\n        /* \"#utility.yul\":14875:14913   */\n      tag_533\n        /* \"#utility.yul\":14907:14912   */\n      dup2\n        /* \"#utility.yul\":14875:14913   */\n      tag_335\n      jump\t// in\n    tag_533:\n        /* \"#utility.yul\":14959:14988   */\n      tag_534\n        /* \"#utility.yul\":14977:14987   */\n      dup5\n        /* \"#utility.yul\":14959:14988   */\n      tag_336\n      jump\t// in\n    tag_534:\n        /* \"#utility.yul\":14949:14957   */\n      dup2\n        /* \"#utility.yul\":14945:14989   */\n      add\n        /* \"#utility.yul\":15142:15144   */\n      0x20\n        /* \"#utility.yul\":15130:15140   */\n      dup6\n        /* \"#utility.yul\":15127:15145   */\n      lt\n        /* \"#utility.yul\":15124:15173   */\n      iszero\n      tag_535\n      jumpi\n        /* \"#utility.yul\":15163:15171   */\n      dup2\n        /* \"#utility.yul\":15148:15171   */\n      swap1\n      pop\n        /* \"#utility.yul\":15124:15173   */\n    tag_535:\n        /* \"#utility.yul\":15186:15266   */\n      tag_536\n        /* \"#utility.yul\":15242:15264   */\n      tag_537\n        /* \"#utility.yul\":15260:15263   */\n      dup6\n        /* \"#utility.yul\":15242:15264   */\n      tag_336\n      jump\t// in\n    tag_537:\n        /* \"#utility.yul\":15232:15240   */\n      dup4\n        /* \"#utility.yul\":15228:15265   */\n      add\n        /* \"#utility.yul\":15215:15226   */\n      dup3\n        /* \"#utility.yul\":15186:15266   */\n      tag_345\n      jump\t// in\n    tag_536:\n        /* \"#utility.yul\":14845:15276   */\n      pop\n      pop\n        /* \"#utility.yul\":14830:15276   */\n    tag_532:\n        /* \"#utility.yul\":14740:15283   */\n      pop\n      pop\n      pop\n      jump\t// out\n        /* \"#utility.yul\":15289:15406   */\n    tag_347:\n        /* \"#utility.yul\":15343:15351   */\n      0x00\n        /* \"#utility.yul\":15393:15398   */\n      dup3\n        /* \"#utility.yul\":15387:15391   */\n      dup3\n        /* \"#utility.yul\":15383:15399   */\n      shr\n        /* \"#utility.yul\":15362:15399   */\n      swap1\n      pop\n        /* \"#utility.yul\":15289:15406   */\n      swap3\n      swap2\n      pop\n      pop\n      jump\t// out\n        /* \"#utility.yul\":15412:15581   */\n    tag_348:\n        /* \"#utility.yul\":15456:15462   */\n      0x00\n        /* \"#utility.yul\":15489:15540   */\n      tag_540\n        /* \"#utility.yul\":15537:15538   */\n      0x00\n        /* \"#utility.yul\":15533:15539   */\n      not\n        /* \"#utility.yul\":15525:15530   */\n      dup5\n        /* \"#utility.yul\":15522:15523   */\n      0x08\n        /* \"#utility.yul\":15518:15531   */\n      mul\n        /* \"#utility.yul\":15489:15540   */\n      tag_347\n      jump\t// in\n    tag_540:\n        /* \"#utility.yul\":15485:15541   */\n      not\n        /* \"#utility.yul\":15570:15574   */\n      dup1\n        /* \"#utility.yul\":15564:15568   */\n      dup4\n        /* \"#utility.yul\":15560:15575   */\n      and\n        /* \"#utility.yul\":15550:15575   */\n      swap2\n      pop\n        /* \"#utility.yul\":15463:15581   */\n      pop\n        /* \"#utility.yul\":15412:15581   */\n      swap3\n      swap2\n      pop\n      pop\n      jump\t// out\n        /* \"#utility.yul\":15586:15881   */\n    tag_349:\n        /* \"#utility.yul\":15662:15666   */\n      0x00\n        /* \"#utility.yul\":15808:15837   */\n      tag_542\n        /* \"#utility.yul\":15833:15836   */\n      dup4\n        /* \"#utility.yul\":15827:15831   */\n      dup4\n        /* \"#utility.yul\":15808:15837   */\n      tag_348\n      jump\t// in\n    tag_542:\n        /* \"#utility.yul\":15800:15837   */\n      swap2\n      pop\n        /* \"#utility.yul\":15870:15873   */\n      dup3\n        /* \"#utility.yul\":15867:15868   */\n      0x02\n        /* \"#utility.yul\":15863:15874   */\n      mul\n        /* \"#utility.yul\":15857:15861   */\n      dup3\n        /* \"#utility.yul\":15854:15875   */\n      or\n        /* \"#utility.yul\":15846:15875   */\n      swap1\n      pop\n        /* \"#utility.yul\":15586:15881   */\n      swap3\n      swap2\n      pop\n      pop\n      jump\t// out\n        /* \"#utility.yul\":15886:17281   */\n    tag_134:\n        /* \"#utility.yul\":16003:16040   */\n      tag_544\n        /* \"#utility.yul\":16036:16039   */\n      dup3\n        /* \"#utility.yul\":16003:16040   */\n      tag_307\n      jump\t// in\n    tag_544:\n        /* \"#utility.yul\":16105:16123   */\n      0xffffffffffffffff\n        /* \"#utility.yul\":16097:16103   */\n      dup2\n        /* \"#utility.yul\":16094:16124   */\n      gt\n        /* \"#utility.yul\":16091:16147   */\n      iszero\n      tag_545\n      jumpi\n        /* \"#utility.yul\":16127:16145   */\n      tag_546\n      tag_232\n      jump\t// in\n    tag_546:\n        /* \"#utility.yul\":16091:16147   */\n    tag_545:\n        /* \"#utility.yul\":16171:16209   */\n      tag_547\n        /* \"#utility.yul\":16203:16207   */\n      dup3\n        /* \"#utility.yul\":16197:16208   */\n      sload\n        /* \"#utility.yul\":16171:16209   */\n      tag_103\n      jump\t// in\n    tag_547:\n        /* \"#utility.yul\":16256:16323   */\n      tag_548\n        /* \"#utility.yul\":16316:16322   */\n      dup3\n        /* \"#utility.yul\":16308:16314   */\n      dup3\n        /* \"#utility.yul\":16302:16306   */\n      dup6\n        /* \"#utility.yul\":16256:16323   */\n      tag_346\n      jump\t// in\n    tag_548:\n        /* \"#utility.yul\":16350:16351   */\n      0x00\n        /* \"#utility.yul\":16374:16378   */\n      0x20\n        /* \"#utility.yul\":16361:16378   */\n      swap1\n      pop\n        /* \"#utility.yul\":16406:16408   */\n      0x1f\n        /* \"#utility.yul\":16398:16404   */\n      dup4\n        /* \"#utility.yul\":16395:16409   */\n      gt\n        /* \"#utility.yul\":16423:16424   */\n      0x01\n        /* \"#utility.yul\":16418:17036   */\n      dup2\n      eq\n      tag_550\n      jumpi\n        /* \"#utility.yul\":17080:17081   */\n      0x00\n        /* \"#utility.yul\":17097:17103   */\n      dup5\n        /* \"#utility.yul\":17094:17171   */\n      iszero\n      tag_551\n      jumpi\n        /* \"#utility.yul\":17146:17155   */\n      dup3\n        /* \"#utility.yul\":17141:17144   */\n      dup8\n        /* \"#utility.yul\":17137:17156   */\n      add\n        /* \"#utility.yul\":17131:17157   */\n      mload\n        /* \"#utility.yul\":17122:17157   */\n      swap1\n      pop\n        /* \"#utility.yul\":17094:17171   */\n    tag_551:\n        /* \"#utility.yul\":17197:17264   */\n      tag_552\n        /* \"#utility.yul\":17257:17263   */\n      dup6\n        /* \"#utility.yul\":17250:17255   */\n      dup3\n        /* \"#utility.yul\":17197:17264   */\n      tag_349\n      jump\t// in\n    tag_552:\n        /* \"#utility.yul\":17191:17195   */\n      dup7\n        /* \"#utility.yul\":17184:17265   */\n      sstore\n        /* \"#utility.yul\":17053:17275   */\n      pop\n        /* \"#utility.yul\":16388:17275   */\n      jump(tag_549)\n        /* \"#utility.yul\":16418:17036   */\n    tag_550:\n        /* \"#utility.yul\":16470:16474   */\n      0x1f\n        /* \"#utility.yul\":16466:16475   */\n      not\n        /* \"#utility.yul\":16458:16464   */\n      dup5\n        /* \"#utility.yul\":16454:16476   */\n      and\n        /* \"#utility.yul\":16504:16541   */\n      tag_553\n        /* \"#utility.yul\":16536:16540   */\n      dup7\n        /* \"#utility.yul\":16504:16541   */\n      tag_335\n      jump\t// in\n    tag_553:\n        /* \"#utility.yul\":16563:16564   */\n      0x00\n        /* \"#utility.yul\":16577:16785   */\n    tag_554:\n        /* \"#utility.yul\":16591:16598   */\n      dup3\n        /* \"#utility.yul\":16588:16589   */\n      dup2\n        /* \"#utility.yul\":16585:16599   */\n      lt\n        /* \"#utility.yul\":16577:16785   */\n      iszero\n      tag_556\n      jumpi\n        /* \"#utility.yul\":16670:16679   */\n      dup5\n        /* \"#utility.yul\":16665:16668   */\n      dup10\n        /* \"#utility.yul\":16661:16680   */\n      add\n        /* \"#utility.yul\":16655:16681   */\n      mload\n        /* \"#utility.yul\":16647:16653   */\n      dup3\n        /* \"#utility.yul\":16640:16682   */\n      sstore\n        /* \"#utility.yul\":16721:16722   */\n      0x01\n        /* \"#utility.yul\":16713:16719   */\n      dup3\n        /* \"#utility.yul\":16709:16723   */\n      add\n        /* \"#utility.yul\":16699:16723   */\n      swap2\n      pop\n        /* \"#utility.yul\":16768:16770   */\n      0x20\n        /* \"#utility.yul\":16757:16766   */\n      dup6\n        /* \"#utility.yul\":16753:16771   */\n      add\n        /* \"#utility.yul\":16740:16771   */\n      swap5\n      pop\n        /* \"#utility.yul\":16614:16618   */\n      0x20\n        /* \"#utility.yul\":16611:16612   */\n      dup2\n        /* \"#utility.yul\":16607:16619   */\n      add\n        /* \"#utility.yul\":16602:16619   */\n      swap1\n      pop\n        /* \"#utility.yul\":16577:16785   */\n      jump(tag_554)\n    tag_556:\n        /* \"#utility.yul\":16813:16819   */\n      dup7\n        /* \"#utility.yul\":16804:16811   */\n      dup4\n        /* \"#utility.yul\":16801:16820   */\n      lt\n        /* \"#utility.yul\":16798:16977   */\n      iszero\n      tag_557\n      jumpi\n        /* \"#utility.yul\":16871:16880   */\n      dup5\n        /* \"#utility.yul\":16866:16869   */\n      dup10\n        /* \"#utility.yul\":16862:16881   */\n      add\n        /* \"#utility.yul\":16856:16882   */\n      mload\n        /* \"#utility.yul\":16914:16962   */\n      tag_558\n        /* \"#utility.yul\":16956:16960   */\n      0x1f\n        /* \"#utility.yul\":16948:16954   */\n      dup10\n        /* \"#utility.yul\":16944:16961   */\n      and\n        /* \"#utility.yul\":16933:16942   */\n      dup3\n        /* \"#utility.yul\":16914:16962   */\n      tag_348\n      jump\t// in\n    tag_558:\n        /* \"#utility.yul\":16906:16912   */\n      dup4\n        /* \"#utility.yul\":16899:16963   */\n      sstore\n        /* \"#utility.yul\":16821:16977   */\n      pop\n        /* \"#utility.yul\":16798:16977   */\n    tag_557:\n        /* \"#utility.yul\":17023:17024   */\n      0x01\n        /* \"#utility.yul\":17019:17020   */\n      0x02\n        /* \"#utility.yul\":17011:17017   */\n      dup9\n        /* \"#utility.yul\":17007:17021   */\n      mul\n        /* \"#utility.yul\":17003:17025   */\n      add\n        /* \"#utility.yul\":16997:17001   */\n      dup9\n        /* \"#utility.yul\":16990:17026   */\n      sstore\n        /* \"#utility.yul\":16425:17036   */\n      pop\n      pop\n      pop\n        /* \"#utility.yul\":16388:17275   */\n    tag_549:\n      pop\n        /* \"#utility.yul\":15978:17281   */\n      pop\n      pop\n      pop\n        /* \"#utility.yul\":15886:17281   */\n      pop\n      pop\n      jump\t// out\n        /* \"#utility.yul\":17287:17435   */\n    tag_350:\n        /* \"#utility.yul\":17389:17400   */\n      0x00\n        /* \"#utility.yul\":17426:17429   */\n      dup2\n        /* \"#utility.yul\":17411:17429   */\n      swap1\n      pop\n        /* \"#utility.yul\":17287:17435   */\n      swap3\n      swap2\n      pop\n      pop\n      jump\t// out\n        /* \"#utility.yul\":17465:18339   */\n    tag_351:\n        /* \"#utility.yul\":17568:17571   */\n      0x00\n        /* \"#utility.yul\":17605:17610   */\n      dup2\n        /* \"#utility.yul\":17599:17611   */\n      sload\n        /* \"#utility.yul\":17634:17670   */\n      tag_561\n        /* \"#utility.yul\":17660:17669   */\n      dup2\n        /* \"#utility.yul\":17634:17670   */\n      tag_103\n      jump\t// in\n    tag_561:\n        /* \"#utility.yul\":17686:17775   */\n      tag_562\n        /* \"#utility.yul\":17768:17774   */\n      dup2\n        /* \"#utility.yul\":17763:17766   */\n      dup7\n        /* \"#utility.yul\":17686:17775   */\n      tag_350\n      jump\t// in\n    tag_562:\n        /* \"#utility.yul\":17679:17775   */\n      swap5\n      pop\n        /* \"#utility.yul\":17806:17807   */\n      0x01\n        /* \"#utility.yul\":17795:17804   */\n      dup3\n        /* \"#utility.yul\":17791:17808   */\n      and\n        /* \"#utility.yul\":17822:17823   */\n      0x00\n        /* \"#utility.yul\":17817:17983   */\n      dup2\n      eq\n      tag_564\n      jumpi\n        /* \"#utility.yul\":17997:17998   */\n      0x01\n        /* \"#utility.yul\":17992:18333   */\n      dup2\n      eq\n      tag_565\n      jumpi\n        /* \"#utility.yul\":17784:18333   */\n      jump(tag_563)\n        /* \"#utility.yul\":17817:17983   */\n    tag_564:\n        /* \"#utility.yul\":17901:17905   */\n      0xff\n        /* \"#utility.yul\":17897:17906   */\n      not\n        /* \"#utility.yul\":17886:17895   */\n      dup4\n        /* \"#utility.yul\":17882:17907   */\n      and\n        /* \"#utility.yul\":17877:17880   */\n      dup7\n        /* \"#utility.yul\":17870:17908   */\n      mstore\n        /* \"#utility.yul\":17963:17969   */\n      dup2\n        /* \"#utility.yul\":17956:17970   */\n      iszero\n        /* \"#utility.yul\":17949:17971   */\n      iszero\n        /* \"#utility.yul\":17941:17947   */\n      dup3\n        /* \"#utility.yul\":17937:17972   */\n      mul\n        /* \"#utility.yul\":17932:17935   */\n      dup7\n        /* \"#utility.yul\":17928:17973   */\n      add\n        /* \"#utility.yul\":17921:17973   */\n      swap4\n      pop\n        /* \"#utility.yul\":17817:17983   */\n      jump(tag_563)\n        /* \"#utility.yul\":17992:18333   */\n    tag_565:\n        /* \"#utility.yul\":18059:18097   */\n      tag_566\n        /* \"#utility.yul\":18091:18096   */\n      dup6\n        /* \"#utility.yul\":18059:18097   */\n      tag_335\n      jump\t// in\n    tag_566:\n        /* \"#utility.yul\":18119:18120   */\n      0x00\n        /* \"#utility.yul\":18133:18287   */\n    tag_567:\n        /* \"#utility.yul\":18147:18153   */\n      dup4\n        /* \"#utility.yul\":18144:18145   */\n      dup2\n        /* \"#utility.yul\":18141:18154   */\n      lt\n        /* \"#utility.yul\":18133:18287   */\n      iszero\n      tag_569\n      jumpi\n        /* \"#utility.yul\":18221:18228   */\n      dup2\n        /* \"#utility.yul\":18215:18229   */\n      sload\n        /* \"#utility.yul\":18211:18212   */\n      dup2\n        /* \"#utility.yul\":18206:18209   */\n      dup10\n        /* \"#utility.yul\":18202:18213   */\n      add\n        /* \"#utility.yul\":18195:18230   */\n      mstore\n        /* \"#utility.yul\":18271:18272   */\n      0x01\n        /* \"#utility.yul\":18262:18269   */\n      dup3\n        /* \"#utility.yul\":18258:18273   */\n      add\n        /* \"#utility.yul\":18247:18273   */\n      swap2\n      pop\n        /* \"#utility.yul\":18169:18173   */\n      0x20\n        /* \"#utility.yul\":18166:18167   */\n      dup2\n        /* \"#utility.yul\":18162:18174   */\n      add\n        /* \"#utility.yul\":18157:18174   */\n      swap1\n      pop\n        /* \"#utility.yul\":18133:18287   */\n      jump(tag_567)\n    tag_569:\n        /* \"#utility.yul\":18316:18322   */\n      dup4\n        /* \"#utility.yul\":18311:18314   */\n      dup9\n        /* \"#utility.yul\":18307:18323   */\n      add\n        /* \"#utility.yul\":18300:18323   */\n      swap6\n      pop\n        /* \"#utility.yul\":17999:18333   */\n      pop\n      pop\n        /* \"#utility.yul\":17784:18333   */\n    tag_563:\n      pop\n        /* \"#utility.yul\":17572:18339   */\n      pop\n      pop\n        /* \"#utility.yul\":17465:18339   */\n      swap3\n      swap2\n      pop\n      pop\n      jump\t// out\n        /* \"#utility.yul\":18345:18735   */\n    tag_352:\n        /* \"#utility.yul\":18451:18454   */\n      0x00\n        /* \"#utility.yul\":18479:18518   */\n      tag_571\n        /* \"#utility.yul\":18512:18517   */\n      dup3\n        /* \"#utility.yul\":18479:18518   */\n      tag_307\n      jump\t// in\n    tag_571:\n        /* \"#utility.yul\":18534:18623   */\n      tag_572\n        /* \"#utility.yul\":18616:18622   */\n      dup2\n        /* \"#utility.yul\":18611:18614   */\n      dup6\n        /* \"#utility.yul\":18534:18623   */\n      tag_350\n      jump\t// in\n    tag_572:\n        /* \"#utility.yul\":18527:18623   */\n      swap4\n      pop\n        /* \"#utility.yul\":18632:18697   */\n      tag_573\n        /* \"#utility.yul\":18690:18696   */\n      dup2\n        /* \"#utility.yul\":18685:18688   */\n      dup6\n        /* \"#utility.yul\":18678:18682   */\n      0x20\n        /* \"#utility.yul\":18671:18676   */\n      dup7\n        /* \"#utility.yul\":18667:18683   */\n      add\n        /* \"#utility.yul\":18632:18697   */\n      tag_309\n      jump\t// in\n    tag_573:\n        /* \"#utility.yul\":18722:18728   */\n      dup1\n        /* \"#utility.yul\":18717:18720   */\n      dup5\n        /* \"#utility.yul\":18713:18729   */\n      add\n        /* \"#utility.yul\":18706:18729   */\n      swap2\n      pop\n        /* \"#utility.yul\":18455:18735   */\n      pop\n        /* \"#utility.yul\":18345:18735   */\n      swap3\n      swap2\n      pop\n      pop\n      jump\t// out\n        /* \"#utility.yul\":18741:19170   */\n    tag_164:\n        /* \"#utility.yul\":18918:18921   */\n      0x00\n        /* \"#utility.yul\":18940:19032   */\n      tag_575\n        /* \"#utility.yul\":19028:19031   */\n      dup3\n        /* \"#utility.yul\":19019:19025   */\n      dup6\n        /* \"#utility.yul\":18940:19032   */\n      tag_351\n      jump\t// in\n    tag_575:\n        /* \"#utility.yul\":18933:19032   */\n      swap2\n      pop\n        /* \"#utility.yul\":19049:19144   */\n      tag_576\n        /* \"#utility.yul\":19140:19143   */\n      dup3\n        /* \"#utility.yul\":19131:19137   */\n      dup5\n        /* \"#utility.yul\":19049:19144   */\n      tag_352\n      jump\t// in\n    tag_576:\n        /* \"#utility.yul\":19042:19144   */\n      swap2\n      pop\n        /* \"#utility.yul\":19161:19164   */\n      dup2\n        /* \"#utility.yul\":19154:19164   */\n      swap1\n      pop\n        /* \"#utility.yul\":18741:19170   */\n      swap4\n      swap3\n      pop\n      pop\n      pop\n      jump\t// out\n        /* \"#utility.yul\":19176:19274   */\n    tag_353:\n        /* \"#utility.yul\":19227:19233   */\n      0x00\n        /* \"#utility.yul\":19261:19266   */\n      dup2\n        /* \"#utility.yul\":19255:19267   */\n      mload\n        /* \"#utility.yul\":19245:19267   */\n      swap1\n      pop\n        /* \"#utility.yul\":19176:19274   */\n      swap2\n      swap1\n      pop\n      jump\t// out\n        /* \"#utility.yul\":19280:19448   */\n    tag_354:\n        /* \"#utility.yul\":19363:19374   */\n      0x00\n        /* \"#utility.yul\":19397:19403   */\n      dup3\n        /* \"#utility.yul\":19392:19395   */\n      dup3\n        /* \"#utility.yul\":19385:19404   */\n      mstore\n        /* \"#utility.yul\":19437:19441   */\n      0x20\n        /* \"#utility.yul\":19432:19435   */\n      dup3\n        /* \"#utility.yul\":19428:19442   */\n      add\n        /* \"#utility.yul\":19413:19442   */\n      swap1\n      pop\n        /* \"#utility.yul\":19280:19448   */\n      swap3\n      swap2\n      pop\n      pop\n      jump\t// out\n        /* \"#utility.yul\":19454:19827   */\n    tag_355:\n        /* \"#utility.yul\":19540:19543   */\n      0x00\n        /* \"#utility.yul\":19568:19606   */\n      tag_580\n        /* \"#utility.yul\":19600:19605   */\n      dup3\n        /* \"#utility.yul\":19568:19606   */\n      tag_353\n      jump\t// in\n    tag_580:\n        /* \"#utility.yul\":19622:19692   */\n      tag_581\n        /* \"#utility.yul\":19685:19691   */\n      dup2\n        /* \"#utility.yul\":19680:19683   */\n      dup6\n        /* \"#utility.yul\":19622:19692   */\n      tag_354\n      jump\t// in\n    tag_581:\n        /* \"#utility.yul\":19615:19692   */\n      swap4\n      pop\n        /* \"#utility.yul\":19701:19766   */\n      tag_582\n        /* \"#utility.yul\":19759:19765   */\n      dup2\n        /* \"#utility.yul\":19754:19757   */\n      dup6\n        /* \"#utility.yul\":19747:19751   */\n      0x20\n        /* \"#utility.yul\":19740:19745   */\n      dup7\n        /* \"#utility.yul\":19736:19752   */\n      add\n        /* \"#utility.yul\":19701:19766   */\n      tag_309\n      jump\t// in\n    tag_582:\n        /* \"#utility.yul\":19791:19820   */\n      tag_583\n        /* \"#utility.yul\":19813:19819   */\n      dup2\n        /* \"#utility.yul\":19791:19820   */\n      tag_310\n      jump\t// in\n    tag_583:\n        /* \"#utility.yul\":19786:19789   */\n      dup5\n        /* \"#utility.yul\":19782:19821   */\n      add\n        /* \"#utility.yul\":19775:19821   */\n      swap2\n      pop\n        /* \"#utility.yul\":19544:19827   */\n      pop\n        /* \"#utility.yul\":19454:19827   */\n      swap3\n      swap2\n      pop\n      pop\n      jump\t// out\n        /* \"#utility.yul\":19833:20473   */\n    tag_211:\n        /* \"#utility.yul\":20028:20032   */\n      0x00\n        /* \"#utility.yul\":20066:20069   */\n      0x80\n        /* \"#utility.yul\":20055:20064   */\n      dup3\n        /* \"#utility.yul\":20051:20070   */\n      add\n        /* \"#utility.yul\":20043:20070   */\n      swap1\n      pop\n        /* \"#utility.yul\":20080:20151   */\n      tag_585\n        /* \"#utility.yul\":20148:20149   */\n      0x00\n        /* \"#utility.yul\":20137:20146   */\n      dup4\n        /* \"#utility.yul\":20133:20150   */\n      add\n        /* \"#utility.yul\":20124:20130   */\n      dup8\n        /* \"#utility.yul\":20080:20151   */\n      tag_317\n      jump\t// in\n    tag_585:\n        /* \"#utility.yul\":20161:20233   */\n      tag_586\n        /* \"#utility.yul\":20229:20231   */\n      0x20\n        /* \"#utility.yul\":20218:20227   */\n      dup4\n        /* \"#utility.yul\":20214:20232   */\n      add\n        /* \"#utility.yul\":20205:20211   */\n      dup7\n        /* \"#utility.yul\":20161:20233   */\n      tag_317\n      jump\t// in\n    tag_586:\n        /* \"#utility.yul\":20243:20315   */\n      tag_587\n        /* \"#utility.yul\":20311:20313   */\n      0x40\n        /* \"#utility.yul\":20300:20309   */\n      dup4\n        /* \"#utility.yul\":20296:20314   */\n      add\n        /* \"#utility.yul\":20287:20293   */\n      dup6\n        /* \"#utility.yul\":20243:20315   */\n      tag_328\n      jump\t// in\n    tag_587:\n        /* \"#utility.yul\":20362:20371   */\n      dup2\n        /* \"#utility.yul\":20356:20360   */\n      dup2\n        /* \"#utility.yul\":20352:20372   */\n      sub\n        /* \"#utility.yul\":20347:20349   */\n      0x60\n        /* \"#utility.yul\":20336:20345   */\n      dup4\n        /* \"#utility.yul\":20332:20350   */\n      add\n        /* \"#utility.yul\":20325:20373   */\n      mstore\n        /* \"#utility.yul\":20390:20466   */\n      tag_588\n        /* \"#utility.yul\":20461:20465   */\n      dup2\n        /* \"#utility.yul\":20452:20458   */\n      dup5\n        /* \"#utility.yul\":20390:20466   */\n      tag_355\n      jump\t// in\n    tag_588:\n        /* \"#utility.yul\":20382:20466   */\n      swap1\n      pop\n        /* \"#utility.yul\":19833:20473   */\n      swap6\n      swap5\n      pop\n      pop\n      pop\n      pop\n      pop\n      jump\t// out\n        /* \"#utility.yul\":20479:20620   */\n    tag_356:\n        /* \"#utility.yul\":20535:20540   */\n      0x00\n        /* \"#utility.yul\":20566:20572   */\n      dup2\n        /* \"#utility.yul\":20560:20573   */\n      mload\n        /* \"#utility.yul\":20551:20573   */\n      swap1\n      pop\n        /* \"#utility.yul\":20582:20614   */\n      tag_590\n        /* \"#utility.yul\":20608:20613   */\n      dup2\n        /* \"#utility.yul\":20582:20614   */\n      tag_303\n      jump\t// in\n    tag_590:\n        /* \"#utility.yul\":20479:20620   */\n      swap3\n      swap2\n      pop\n      pop\n      jump\t// out\n        /* \"#utility.yul\":20626:20975   */\n    tag_214:\n        /* \"#utility.yul\":20695:20701   */\n      0x00\n        /* \"#utility.yul\":20744:20746   */\n      0x20\n        /* \"#utility.yul\":20732:20741   */\n      dup3\n        /* \"#utility.yul\":20723:20730   */\n      dup5\n        /* \"#utility.yul\":20719:20742   */\n      sub\n        /* \"#utility.yul\":20715:20747   */\n      slt\n        /* \"#utility.yul\":20712:20831   */\n      iszero\n      tag_592\n      jumpi\n        /* \"#utility.yul\":20750:20829   */\n      tag_593\n      tag_300\n      jump\t// in\n    tag_593:\n        /* \"#utility.yul\":20712:20831   */\n    tag_592:\n        /* \"#utility.yul\":20870:20871   */\n      0x00\n        /* \"#utility.yul\":20895:20958   */\n      tag_594\n        /* \"#utility.yul\":20950:20957   */\n      dup5\n        /* \"#utility.yul\":20941:20947   */\n      dup3\n        /* \"#utility.yul\":20930:20939   */\n      dup6\n        /* \"#utility.yul\":20926:20948   */\n      add\n        /* \"#utility.yul\":20895:20958   */\n      tag_356\n      jump\t// in\n    tag_594:\n        /* \"#utility.yul\":20885:20958   */\n      swap2\n      pop\n        /* \"#utility.yul\":20841:20968   */\n      pop\n        /* \"#utility.yul\":20626:20975   */\n      swap3\n      swap2\n      pop\n      pop\n      jump\t// out\n        /* \"#utility.yul\":20981:21161   */\n    tag_238:\n        /* \"#utility.yul\":21029:21106   */\n      0x4e487b7100000000000000000000000000000000000000000000000000000000\n        /* \"#utility.yul\":21026:21027   */\n      0x00\n        /* \"#utility.yul\":21019:21107   */\n      mstore\n        /* \"#utility.yul\":21126:21130   */\n      0x12\n        /* \"#utility.yul\":21123:21124   */\n      0x04\n        /* \"#utility.yul\":21116:21131   */\n      mstore\n        /* \"#utility.yul\":21150:21154   */\n      0x24\n        /* \"#utility.yul\":21147:21148   */\n      0x00\n        /* \"#utility.yul\":21140:21155   */\n      revert\n        /* \"#utility.yul\":21167:21499   */\n    tag_262:\n        /* \"#utility.yul\":21288:21292   */\n      0x00\n        /* \"#utility.yul\":21326:21328   */\n      0x40\n        /* \"#utility.yul\":21315:21324   */\n      dup3\n        /* \"#utility.yul\":21311:21329   */\n      add\n        /* \"#utility.yul\":21303:21329   */\n      swap1\n      pop\n        /* \"#utility.yul\":21339:21410   */\n      tag_597\n        /* \"#utility.yul\":21407:21408   */\n      0x00\n        /* \"#utility.yul\":21396:21405   */\n      dup4\n        /* \"#utility.yul\":21392:21409   */\n      add\n        /* \"#utility.yul\":21383:21389   */\n      dup6\n        /* \"#utility.yul\":21339:21410   */\n      tag_317\n      jump\t// in\n    tag_597:\n        /* \"#utility.yul\":21420:21492   */\n      tag_598\n        /* \"#utility.yul\":21488:21490   */\n      0x20\n        /* \"#utility.yul\":21477:21486   */\n      dup4\n        /* \"#utility.yul\":21473:21491   */\n      add\n        /* \"#utility.yul\":21464:21470   */\n      dup5\n        /* \"#utility.yul\":21420:21492   */\n      tag_328\n      jump\t// in\n    tag_598:\n        /* \"#utility.yul\":21167:21499   */\n      swap4\n      swap3\n      pop\n      pop\n      pop\n      jump\t// out\n\n    auxdata: 0xa26469706673582212208bbaeac5e643737f4476f35034628bd32319e5745bacb6b031fef7a994811fcb64736f6c634300081a0033\n}\n",
				"bytecode": {
					"linkReferences": {},
					"object": "608060405234801561000f575f80fd5b50604051612a58380380612a58833981810160405281019061003191906102fc565b8181335f73ffffffffffffffffffffffffffffffffffffffff168173ffffffffffffffffffffffffffffffffffffffff16036100a4575f6040517f1e4fbdf700000000000000000000000000000000000000000000000000000000815260040161009b91906103df565b60405180910390fd5b6100b3816100ee60201b60201c565b5081600190816100c39190610605565b5080600290816100d39190610605565b50505082600790816100e59190610605565b505050506106d4565b5f805f9054906101000a900473ffffffffffffffffffffffffffffffffffffffff169050815f806101000a81548173ffffffffffffffffffffffffffffffffffffffff021916908373ffffffffffffffffffffffffffffffffffffffff1602179055508173ffffffffffffffffffffffffffffffffffffffff168173ffffffffffffffffffffffffffffffffffffffff167f8be0079c531659141344cd1fd0a4f28419497f9722a3daafe3b4186f6b6457e060405160405180910390a35050565b5f604051905090565b5f80fd5b5f80fd5b5f80fd5b5f80fd5b5f601f19601f8301169050919050565b7f4e487b71000000000000000000000000000000000000000000000000000000005f52604160045260245ffd5b61020e826101c8565b810181811067ffffffffffffffff8211171561022d5761022c6101d8565b5b80604052505050565b5f61023f6101af565b905061024b8282610205565b919050565b5f67ffffffffffffffff82111561026a576102696101d8565b5b610273826101c8565b9050602081019050919050565b8281835e5f83830152505050565b5f6102a061029b84610250565b610236565b9050828152602081018484840111156102bc576102bb6101c4565b5b6102c7848285610280565b509392505050565b5f82601f8301126102e3576102e26101c0565b5b81516102f384826020860161028e565b91505092915050565b5f805f60608486031215610313576103126101b8565b5b5f84015167ffffffffffffffff8111156103305761032f6101bc565b5b61033c868287016102cf565b935050602084015167ffffffffffffffff81111561035d5761035c6101bc565b5b610369868287016102cf565b925050604084015167ffffffffffffffff81111561038a576103896101bc565b5b610396868287016102cf565b9150509250925092565b5f73ffffffffffffffffffffffffffffffffffffffff82169050919050565b5f6103c9826103a0565b9050919050565b6103d9816103bf565b82525050565b5f6020820190506103f25f8301846103d0565b92915050565b5f81519050919050565b7f4e487b71000000000000000000000000000000000000000000000000000000005f52602260045260245ffd5b5f600282049050600182168061044657607f821691505b60208210810361045957610458610402565b5b50919050565b5f819050815f5260205f209050919050565b5f6020601f8301049050919050565b5f82821b905092915050565b5f600883026104bb7fffffffffffffffffffffffffffffffffffffffffffffffffffffffffffffffff82610480565b6104c58683610480565b95508019841693508086168417925050509392505050565b5f819050919050565b5f819050919050565b5f6105096105046104ff846104dd565b6104e6565b6104dd565b9050919050565b5f819050919050565b610522836104ef565b61053661052e82610510565b84845461048c565b825550505050565b5f90565b61054a61053e565b610555818484610519565b505050565b5b818110156105785761056d5f82610542565b60018101905061055b565b5050565b601f8211156105bd5761058e8161045f565b61059784610471565b810160208510156105a6578190505b6105ba6105b285610471565b83018261055a565b50505b505050565b5f82821c905092915050565b5f6105dd5f19846008026105c2565b1980831691505092915050565b5f6105f583836105ce565b9150826002028217905092915050565b61060e826103f8565b67ffffffffffffffff811115610627576106266101d8565b5b610631825461042f565b61063c82828561057c565b5f60209050601f83116001811461066d575f841561065b578287015190505b61066585826105ea565b8655506106cc565b601f19841661067b8661045f565b5f5b828110156106a25784890151825560018201915060208501945060208101905061067d565b868310156106bf57848901516106bb601f8916826105ce565b8355505b6001600288020188555050505b505050505050565b612377806106e15f395ff3fe608060405234801561000f575f80fd5b5060043610610114575f3560e01c8063715018a6116100a0578063b88d4fde1161006f578063b88d4fde146102c8578063c87b56dd146102e4578063e985e9c514610314578063f2fde38b14610344578063f6459d471461036057610114565b8063715018a6146102665780638da5cb5b1461027057806395d89b411461028e578063a22cb465146102ac57610114565b806323b872dd116100e757806323b872dd146101b257806342842e0e146101ce578063532e4849146101ea5780636352211e1461020657806370a082311461023657610114565b806301ffc9a71461011857806306fdde0314610148578063081812fc14610166578063095ea7b314610196575b5f80fd5b610132600480360381019061012d9190611851565b61037c565b60405161013f9190611896565b60405180910390f35b61015061045d565b60405161015d919061191f565b60405180910390f35b610180600480360381019061017b9190611972565b6104ed565b60405161018d91906119dc565b60405180910390f35b6101b060048036038101906101ab9190611a1f565b610508565b005b6101cc60048036038101906101c79190611a5d565b61051e565b005b6101e860048036038101906101e39190611a5d565b61061d565b005b61020460048036038101906101ff9190611bd9565b61063c565b005b610220600480360381019061021b9190611972565b610657565b60405161022d91906119dc565b60405180910390f35b610250600480360381019061024b9190611c20565b610668565b60405161025d9190611c5a565b60405180910390f35b61026e61071e565b005b610278610731565b60405161028591906119dc565b60405180910390f35b610296610758565b6040516102a3919061191f565b60405180910390f35b6102c660048036038101906102c19190611c9d565b6107e8565b005b6102e260048036038101906102dd9190611d79565b6107fe565b005b6102fe60048036038101906102f99190611972565b61081b565b60405161030b919061191f565b60405180910390f35b61032e60048036038101906103299190611df9565b610854565b60405161033b9190611896565b60405180910390f35b61035e60048036038101906103599190611c20565b6108e2565b005b61037a60048036038101906103759190611972565b610966565b005b5f7f80ac58cd000000000000000000000000000000000000000000000000000000007bffffffffffffffffffffffffffffffffffffffffffffffffffffffff1916827bffffffffffffffffffffffffffffffffffffffffffffffffffffffff1916148061044657507f5b5e139f000000000000000000000000000000000000000000000000000000007bffffffffffffffffffffffffffffffffffffffffffffffffffffffff1916827bffffffffffffffffffffffffffffffffffffffffffffffffffffffff1916145b8061045657506104558261097b565b5b9050919050565b60606001805461046c90611e64565b80601f016020809104026020016040519081016040528092919081815260200182805461049890611e64565b80156104e35780601f106104ba576101008083540402835291602001916104e3565b820191905f5260205f20905b8154815290600101906020018083116104c657829003601f168201915b5050505050905090565b5f6104f7826109e4565b5061050182610a6a565b9050919050565b61051a8282610515610aa3565b610aaa565b5050565b5f73ffffffffffffffffffffffffffffffffffffffff168273ffffffffffffffffffffffffffffffffffffffff160361058e575f6040517f64a0ae9200000000000000000000000000000000000000000000000000000000815260040161058591906119dc565b60405180910390fd5b5f6105a1838361059c610aa3565b610abc565b90508373ffffffffffffffffffffffffffffffffffffffff168173ffffffffffffffffffffffffffffffffffffffff1614610617578382826040517f64283d7b00000000000000000000000000000000000000000000000000000000815260040161060e93929190611e94565b60405180910390fd5b50505050565b61063783838360405180602001604052805f8152506107fe565b505050565b610644610cc7565b80600790816106539190612066565b5050565b5f610661826109e4565b9050919050565b5f8073ffffffffffffffffffffffffffffffffffffffff168273ffffffffffffffffffffffffffffffffffffffff16036106d9575f6040517f89c62b640000000000000000000000000000000000000000000000000000000081526004016106d091906119dc565b60405180910390fd5b60045f8373ffffffffffffffffffffffffffffffffffffffff1673ffffffffffffffffffffffffffffffffffffffff1681526020019081526020015f20549050919050565b610726610cc7565b61072f5f610d4e565b565b5f805f9054906101000a900473ffffffffffffffffffffffffffffffffffffffff16905090565b60606002805461076790611e64565b80601f016020809104026020016040519081016040528092919081815260200182805461079390611e64565b80156107de5780601f106107b5576101008083540402835291602001916107de565b820191905f5260205f20905b8154815290600101906020018083116107c157829003601f168201915b5050505050905090565b6107fa6107f3610aa3565b8383610e0f565b5050565b61080984848461051e565b61081584848484610f78565b50505050565b60605f6108278361112a565b905060078160405160200161083d9291906121ef565b604051602081830303815290604052915050919050565b5f60065f8473ffffffffffffffffffffffffffffffffffffffff1673ffffffffffffffffffffffffffffffffffffffff1681526020019081526020015f205f8373ffffffffffffffffffffffffffffffffffffffff1673ffffffffffffffffffffffffffffffffffffffff1681526020019081526020015f205f9054906101000a900460ff16905092915050565b6108ea610cc7565b5f73ffffffffffffffffffffffffffffffffffffffff168173ffffffffffffffffffffffffffffffffffffffff160361095a575f6040517f1e4fbdf700000000000000000000000000000000000000000000000000000000815260040161095191906119dc565b60405180910390fd5b61096381610d4e565b50565b61096e610cc7565b61097833826111f4565b50565b5f7f01ffc9a7000000000000000000000000000000000000000000000000000000007bffffffffffffffffffffffffffffffffffffffffffffffffffffffff1916827bffffffffffffffffffffffffffffffffffffffffffffffffffffffff1916149050919050565b5f806109ef83611211565b90505f73ffffffffffffffffffffffffffffffffffffffff168173ffffffffffffffffffffffffffffffffffffffff1603610a6157826040517f7e273289000000000000000000000000000000000000000000000000000000008152600401610a589190611c5a565b60405180910390fd5b80915050919050565b5f60055f8381526020019081526020015f205f9054906101000a900473ffffffffffffffffffffffffffffffffffffffff169050919050565b5f33905090565b610ab7838383600161124a565b505050565b5f80610ac784611211565b90505f73ffffffffffffffffffffffffffffffffffffffff168373ffffffffffffffffffffffffffffffffffffffff1614610b0857610b07818486611409565b5b5f73ffffffffffffffffffffffffffffffffffffffff168173ffffffffffffffffffffffffffffffffffffffff1614610b9357610b475f855f8061124a565b600160045f8373ffffffffffffffffffffffffffffffffffffffff1673ffffffffffffffffffffffffffffffffffffffff1681526020019081526020015f205f82825403925050819055505b5f73ffffffffffffffffffffffffffffffffffffffff168573ffffffffffffffffffffffffffffffffffffffff1614610c1257600160045f8773ffffffffffffffffffffffffffffffffffffffff1673ffffffffffffffffffffffffffffffffffffffff1681526020019081526020015f205f82825401925050819055505b8460035f8681526020019081526020015f205f6101000a81548173ffffffffffffffffffffffffffffffffffffffff021916908373ffffffffffffffffffffffffffffffffffffffff160217905550838573ffffffffffffffffffffffffffffffffffffffff168273ffffffffffffffffffffffffffffffffffffffff167fddf252ad1be2c89b69c2b068fc378daa952ba7f163c4a11628f55a4df523b3ef60405160405180910390a4809150509392505050565b610ccf610aa3565b73ffffffffffffffffffffffffffffffffffffffff16610ced610731565b73ffffffffffffffffffffffffffffffffffffffff1614610d4c57610d10610aa3565b6040517f118cdaa7000000000000000000000000000000000000000000000000000000008152600401610d4391906119dc565b60405180910390fd5b565b5f805f9054906101000a900473ffffffffffffffffffffffffffffffffffffffff169050815f806101000a81548173ffffffffffffffffffffffffffffffffffffffff021916908373ffffffffffffffffffffffffffffffffffffffff1602179055508173ffffffffffffffffffffffffffffffffffffffff168173ffffffffffffffffffffffffffffffffffffffff167f8be0079c531659141344cd1fd0a4f28419497f9722a3daafe3b4186f6b6457e060405160405180910390a35050565b5f73ffffffffffffffffffffffffffffffffffffffff168273ffffffffffffffffffffffffffffffffffffffff1603610e7f57816040517f5b08ba18000000000000000000000000000000000000000000000000000000008152600401610e7691906119dc565b60405180910390fd5b8060065f8573ffffffffffffffffffffffffffffffffffffffff1673ffffffffffffffffffffffffffffffffffffffff1681526020019081526020015f205f8473ffffffffffffffffffffffffffffffffffffffff1673ffffffffffffffffffffffffffffffffffffffff1681526020019081526020015f205f6101000a81548160ff0219169083151502179055508173ffffffffffffffffffffffffffffffffffffffff168373ffffffffffffffffffffffffffffffffffffffff167f17307eab39ab6107e8899845ad3d59bd9653f200f220920489ca2b5937696c3183604051610f6b9190611896565b60405180910390a3505050565b5f8373ffffffffffffffffffffffffffffffffffffffff163b1115611124578273ffffffffffffffffffffffffffffffffffffffff1663150b7a02610fbb610aa3565b8685856040518563ffffffff1660e01b8152600401610fdd9493929190612264565b6020604051808303815f875af192505050801561101857506040513d601f19601f8201168201806040525081019061101591906122c2565b60015b611099573d805f8114611046576040519150601f19603f3d011682016040523d82523d5f602084013e61104b565b606091505b505f81510361109157836040517f64a0ae9200000000000000000000000000000000000000000000000000000000815260040161108891906119dc565b60405180910390fd5b805181602001fd5b63150b7a0260e01b7bffffffffffffffffffffffffffffffffffffffffffffffffffffffff1916817bffffffffffffffffffffffffffffffffffffffffffffffffffffffff19161461112257836040517f64a0ae9200000000000000000000000000000000000000000000000000000000815260040161111991906119dc565b60405180910390fd5b505b50505050565b60605f6001611138846114cc565b0190505f8167ffffffffffffffff81111561115657611155611ab5565b5b6040519080825280601f01601f1916602001820160405280156111885781602001600182028036833780820191505090505b5090505f82602001820190505b6001156111e9578080600190039150507f3031323334353637383961626364656600000000000000000000000000000000600a86061a8153600a85816111de576111dd6122ed565b5b0494505f8503611195575b819350505050919050565b61120d828260405180602001604052805f81525061161d565b5050565b5f60035f8381526020019081526020015f205f9054906101000a900473ffffffffffffffffffffffffffffffffffffffff169050919050565b808061128257505f73ffffffffffffffffffffffffffffffffffffffff168273ffffffffffffffffffffffffffffffffffffffff1614155b156113b4575f611291846109e4565b90505f73ffffffffffffffffffffffffffffffffffffffff168373ffffffffffffffffffffffffffffffffffffffff16141580156112fb57508273ffffffffffffffffffffffffffffffffffffffff168173ffffffffffffffffffffffffffffffffffffffff1614155b801561130e575061130c8184610854565b155b1561135057826040517fa9fbf51f00000000000000000000000000000000000000000000000000000000815260040161134791906119dc565b60405180910390fd5b81156113b257838573ffffffffffffffffffffffffffffffffffffffff168273ffffffffffffffffffffffffffffffffffffffff167f8c5be1e5ebec7d5bd14f71427d1e84f3dd0314c0f7b2291e5b200ac8c7c3b92560405160405180910390a45b505b8360055f8581526020019081526020015f205f6101000a81548173ffffffffffffffffffffffffffffffffffffffff021916908373ffffffffffffffffffffffffffffffffffffffff16021790555050505050565b611414838383611638565b6114c7575f73ffffffffffffffffffffffffffffffffffffffff168373ffffffffffffffffffffffffffffffffffffffff160361148857806040517f7e27328900000000000000000000000000000000000000000000000000000000815260040161147f9190611c5a565b60405180910390fd5b81816040517f177e802f0000000000000000000000000000000000000000000000000000000081526004016114be92919061231a565b60405180910390fd5b505050565b5f805f90507a184f03e93ff9f4daa797ed6e38ed64bf6a1f0100000000000000008310611528577a184f03e93ff9f4daa797ed6e38ed64bf6a1f010000000000000000838161151e5761151d6122ed565b5b0492506040810190505b6d04ee2d6d415b85acef81000000008310611565576d04ee2d6d415b85acef8100000000838161155b5761155a6122ed565b5b0492506020810190505b662386f26fc10000831061159457662386f26fc10000838161158a576115896122ed565b5b0492506010810190505b6305f5e10083106115bd576305f5e10083816115b3576115b26122ed565b5b0492506008810190505b61271083106115e25761271083816115d8576115d76122ed565b5b0492506004810190505b6064831061160557606483816115fb576115fa6122ed565b5b0492506002810190505b600a8310611614576001810190505b80915050919050565b61162783836116f8565b6116335f848484610f78565b505050565b5f8073ffffffffffffffffffffffffffffffffffffffff168373ffffffffffffffffffffffffffffffffffffffff16141580156116ef57508273ffffffffffffffffffffffffffffffffffffffff168473ffffffffffffffffffffffffffffffffffffffff1614806116b057506116af8484610854565b5b806116ee57508273ffffffffffffffffffffffffffffffffffffffff166116d683610a6a565b73ffffffffffffffffffffffffffffffffffffffff16145b5b90509392505050565b5f73ffffffffffffffffffffffffffffffffffffffff168273ffffffffffffffffffffffffffffffffffffffff1603611768575f6040517f64a0ae9200000000000000000000000000000000000000000000000000000000815260040161175f91906119dc565b60405180910390fd5b5f61177483835f610abc565b90505f73ffffffffffffffffffffffffffffffffffffffff168173ffffffffffffffffffffffffffffffffffffffff16146117e6575f6040517f73c6ac6e0000000000000000000000000000000000000000000000000000000081526004016117dd91906119dc565b60405180910390fd5b505050565b5f604051905090565b5f80fd5b5f80fd5b5f7fffffffff0000000000000000000000000000000000000000000000000000000082169050919050565b611830816117fc565b811461183a575f80fd5b50565b5f8135905061184b81611827565b92915050565b5f60208284031215611866576118656117f4565b5b5f6118738482850161183d565b91505092915050565b5f8115159050919050565b6118908161187c565b82525050565b5f6020820190506118a95f830184611887565b92915050565b5f81519050919050565b5f82825260208201905092915050565b8281835e5f83830152505050565b5f601f19601f8301169050919050565b5f6118f1826118af565b6118fb81856118b9565b935061190b8185602086016118c9565b611914816118d7565b840191505092915050565b5f6020820190508181035f83015261193781846118e7565b905092915050565b5f819050919050565b6119518161193f565b811461195b575f80fd5b50565b5f8135905061196c81611948565b92915050565b5f60208284031215611987576119866117f4565b5b5f6119948482850161195e565b91505092915050565b5f73ffffffffffffffffffffffffffffffffffffffff82169050919050565b5f6119c68261199d565b9050919050565b6119d6816119bc565b82525050565b5f6020820190506119ef5f8301846119cd565b92915050565b6119fe816119bc565b8114611a08575f80fd5b50565b5f81359050611a19816119f5565b92915050565b5f8060408385031215611a3557611a346117f4565b5b5f611a4285828601611a0b565b9250506020611a538582860161195e565b9150509250929050565b5f805f60608486031215611a7457611a736117f4565b5b5f611a8186828701611a0b565b9350506020611a9286828701611a0b565b9250506040611aa38682870161195e565b9150509250925092565b5f80fd5b5f80fd5b7f4e487b71000000000000000000000000000000000000000000000000000000005f52604160045260245ffd5b611aeb826118d7565b810181811067ffffffffffffffff82111715611b0a57611b09611ab5565b5b80604052505050565b5f611b1c6117eb565b9050611b288282611ae2565b919050565b5f67ffffffffffffffff821115611b4757611b46611ab5565b5b611b50826118d7565b9050602081019050919050565b828183375f83830152505050565b5f611b7d611b7884611b2d565b611b13565b905082815260208101848484011115611b9957611b98611ab1565b5b611ba4848285611b5d565b509392505050565b5f82601f830112611bc057611bbf611aad565b5b8135611bd0848260208601611b6b565b91505092915050565b5f60208284031215611bee57611bed6117f4565b5b5f82013567ffffffffffffffff811115611c0b57611c0a6117f8565b5b611c1784828501611bac565b91505092915050565b5f60208284031215611c3557611c346117f4565b5b5f611c4284828501611a0b565b91505092915050565b611c548161193f565b82525050565b5f602082019050611c6d5f830184611c4b565b92915050565b611c7c8161187c565b8114611c86575f80fd5b50565b5f81359050611c9781611c73565b92915050565b5f8060408385031215611cb357611cb26117f4565b5b5f611cc085828601611a0b565b9250506020611cd185828601611c89565b9150509250929050565b5f67ffffffffffffffff821115611cf557611cf4611ab5565b5b611cfe826118d7565b9050602081019050919050565b5f611d1d611d1884611cdb565b611b13565b905082815260208101848484011115611d3957611d38611ab1565b5b611d44848285611b5d565b509392505050565b5f82601f830112611d6057611d5f611aad565b5b8135611d70848260208601611d0b565b91505092915050565b5f805f8060808587031215611d9157611d906117f4565b5b5f611d9e87828801611a0b565b9450506020611daf87828801611a0b565b9350506040611dc08782880161195e565b925050606085013567ffffffffffffffff811115611de157611de06117f8565b5b611ded87828801611d4c565b91505092959194509250565b5f8060408385031215611e0f57611e0e6117f4565b5b5f611e1c85828601611a0b565b9250506020611e2d85828601611a0b565b9150509250929050565b7f4e487b71000000000000000000000000000000000000000000000000000000005f52602260045260245ffd5b5f6002820490506001821680611e7b57607f821691505b602082108103611e8e57611e8d611e37565b5b50919050565b5f606082019050611ea75f8301866119cd565b611eb46020830185611c4b565b611ec160408301846119cd565b949350505050565b5f819050815f5260205f209050919050565b5f6020601f8301049050919050565b5f82821b905092915050565b5f60088302611f257fffffffffffffffffffffffffffffffffffffffffffffffffffffffffffffffff82611eea565b611f2f8683611eea565b95508019841693508086168417925050509392505050565b5f819050919050565b5f611f6a611f65611f608461193f565b611f47565b61193f565b9050919050565b5f819050919050565b611f8383611f50565b611f97611f8f82611f71565b848454611ef6565b825550505050565b5f90565b611fab611f9f565b611fb6818484611f7a565b505050565b5b81811015611fd957611fce5f82611fa3565b600181019050611fbc565b5050565b601f82111561201e57611fef81611ec9565b611ff884611edb565b81016020851015612007578190505b61201b61201385611edb565b830182611fbb565b50505b505050565b5f82821c905092915050565b5f61203e5f1984600802612023565b1980831691505092915050565b5f612056838361202f565b9150826002028217905092915050565b61206f826118af565b67ffffffffffffffff81111561208857612087611ab5565b5b6120928254611e64565b61209d828285611fdd565b5f60209050601f8311600181146120ce575f84156120bc578287015190505b6120c6858261204b565b86555061212d565b601f1984166120dc86611ec9565b5f5b82811015612103578489015182556001820191506020850194506020810190506120de565b86831015612120578489015161211c601f89168261202f565b8355505b6001600288020188555050505b505050505050565b5f81905092915050565b5f815461214b81611e64565b6121558186612135565b9450600182165f811461216f5760018114612184576121b6565b60ff19831686528115158202860193506121b6565b61218d85611ec9565b5f5b838110156121ae5781548189015260018201915060208101905061218f565b838801955050505b50505092915050565b5f6121c9826118af565b6121d38185612135565b93506121e38185602086016118c9565b80840191505092915050565b5f6121fa828561213f565b915061220682846121bf565b91508190509392505050565b5f81519050919050565b5f82825260208201905092915050565b5f61223682612212565b612240818561221c565b93506122508185602086016118c9565b612259816118d7565b840191505092915050565b5f6080820190506122775f8301876119cd565b61228460208301866119cd565b6122916040830185611c4b565b81810360608301526122a3818461222c565b905095945050505050565b5f815190506122bc81611827565b92915050565b5f602082840312156122d7576122d66117f4565b5b5f6122e4848285016122ae565b91505092915050565b7f4e487b71000000000000000000000000000000000000000000000000000000005f52601260045260245ffd5b5f60408201905061232d5f8301856119cd565b61233a6020830184611c4b565b939250505056fea26469706673582212208bbaeac5e643737f4476f35034628bd32319e5745bacb6b031fef7a994811fcb64736f6c634300081a0033",
					"opcodes": "PUSH1 0x80 PUSH1 0x40 MSTORE CALLVALUE DUP1 ISZERO PUSH2 0xF JUMPI PUSH0 DUP1 REVERT JUMPDEST POP PUSH1 0x40 MLOAD PUSH2 0x2A58 CODESIZE SUB DUP1 PUSH2 0x2A58 DUP4 CODECOPY DUP2 DUP2 ADD PUSH1 0x40 MSTORE DUP2 ADD SWAP1 PUSH2 0x31 SWAP2 SWAP1 PUSH2 0x2FC JUMP JUMPDEST DUP2 DUP2 CALLER PUSH0 PUSH20 0xFFFFFFFFFFFFFFFFFFFFFFFFFFFFFFFFFFFFFFFF AND DUP2 PUSH20 0xFFFFFFFFFFFFFFFFFFFFFFFFFFFFFFFFFFFFFFFF AND SUB PUSH2 0xA4 JUMPI PUSH0 PUSH1 0x40 MLOAD PUSH32 0x1E4FBDF700000000000000000000000000000000000000000000000000000000 DUP2 MSTORE PUSH1 0x4 ADD PUSH2 0x9B SWAP2 SWAP1 PUSH2 0x3DF JUMP JUMPDEST PUSH1 0x40 MLOAD DUP1 SWAP2 SUB SWAP1 REVERT JUMPDEST PUSH2 0xB3 DUP2 PUSH2 0xEE PUSH1 0x20 SHL PUSH1 0x20 SHR JUMP JUMPDEST POP DUP2 PUSH1 0x1 SWAP1 DUP2 PUSH2 0xC3 SWAP2 SWAP1 PUSH2 0x605 JUMP JUMPDEST POP DUP1 PUSH1 0x2 SWAP1 DUP2 PUSH2 0xD3 SWAP2 SWAP1 PUSH2 0x605 JUMP JUMPDEST POP POP POP DUP3 PUSH1 0x7 SWAP1 DUP2 PUSH2 0xE5 SWAP2 SWAP1 PUSH2 0x605 JUMP JUMPDEST POP POP POP POP PUSH2 0x6D4 JUMP JUMPDEST PUSH0 DUP1 PUSH0 SWAP1 SLOAD SWAP1 PUSH2 0x100 EXP SWAP1 DIV PUSH20 0xFFFFFFFFFFFFFFFFFFFFFFFFFFFFFFFFFFFFFFFF AND SWAP1 POP DUP2 PUSH0 DUP1 PUSH2 0x100 EXP DUP2 SLOAD DUP2 PUSH20 0xFFFFFFFFFFFFFFFFFFFFFFFFFFFFFFFFFFFFFFFF MUL NOT AND SWAP1 DUP4 PUSH20 0xFFFFFFFFFFFFFFFFFFFFFFFFFFFFFFFFFFFFFFFF AND MUL OR SWAP1 SSTORE POP DUP2 PUSH20 0xFFFFFFFFFFFFFFFFFFFFFFFFFFFFFFFFFFFFFFFF AND DUP2 PUSH20 0xFFFFFFFFFFFFFFFFFFFFFFFFFFFFFFFFFFFFFFFF AND PUSH32 0x8BE0079C531659141344CD1FD0A4F28419497F9722A3DAAFE3B4186F6B6457E0 PUSH1 0x40 MLOAD PUSH1 0x40 MLOAD DUP1 SWAP2 SUB SWAP1 LOG3 POP POP JUMP JUMPDEST PUSH0 PUSH1 0x40 MLOAD SWAP1 POP SWAP1 JUMP JUMPDEST PUSH0 DUP1 REVERT JUMPDEST PUSH0 DUP1 REVERT JUMPDEST PUSH0 DUP1 REVERT JUMPDEST PUSH0 DUP1 REVERT JUMPDEST PUSH0 PUSH1 0x1F NOT PUSH1 0x1F DUP4 ADD AND SWAP1 POP SWAP2 SWAP1 POP JUMP JUMPDEST PUSH32 0x4E487B7100000000000000000000000000000000000000000000000000000000 PUSH0 MSTORE PUSH1 0x41 PUSH1 0x4 MSTORE PUSH1 0x24 PUSH0 REVERT JUMPDEST PUSH2 0x20E DUP3 PUSH2 0x1C8 JUMP JUMPDEST DUP2 ADD DUP2 DUP2 LT PUSH8 0xFFFFFFFFFFFFFFFF DUP3 GT OR ISZERO PUSH2 0x22D JUMPI PUSH2 0x22C PUSH2 0x1D8 JUMP JUMPDEST JUMPDEST DUP1 PUSH1 0x40 MSTORE POP POP POP JUMP JUMPDEST PUSH0 PUSH2 0x23F PUSH2 0x1AF JUMP JUMPDEST SWAP1 POP PUSH2 0x24B DUP3 DUP3 PUSH2 0x205 JUMP JUMPDEST SWAP2 SWAP1 POP JUMP JUMPDEST PUSH0 PUSH8 0xFFFFFFFFFFFFFFFF DUP3 GT ISZERO PUSH2 0x26A JUMPI PUSH2 0x269 PUSH2 0x1D8 JUMP JUMPDEST JUMPDEST PUSH2 0x273 DUP3 PUSH2 0x1C8 JUMP JUMPDEST SWAP1 POP PUSH1 0x20 DUP2 ADD SWAP1 POP SWAP2 SWAP1 POP JUMP JUMPDEST DUP3 DUP2 DUP4 MCOPY PUSH0 DUP4 DUP4 ADD MSTORE POP POP POP JUMP JUMPDEST PUSH0 PUSH2 0x2A0 PUSH2 0x29B DUP5 PUSH2 0x250 JUMP JUMPDEST PUSH2 0x236 JUMP JUMPDEST SWAP1 POP DUP3 DUP2 MSTORE PUSH1 0x20 DUP2 ADD DUP5 DUP5 DUP5 ADD GT ISZERO PUSH2 0x2BC JUMPI PUSH2 0x2BB PUSH2 0x1C4 JUMP JUMPDEST JUMPDEST PUSH2 0x2C7 DUP5 DUP3 DUP6 PUSH2 0x280 JUMP JUMPDEST POP SWAP4 SWAP3 POP POP POP JUMP JUMPDEST PUSH0 DUP3 PUSH1 0x1F DUP4 ADD SLT PUSH2 0x2E3 JUMPI PUSH2 0x2E2 PUSH2 0x1C0 JUMP JUMPDEST JUMPDEST DUP2 MLOAD PUSH2 0x2F3 DUP5 DUP3 PUSH1 0x20 DUP7 ADD PUSH2 0x28E JUMP JUMPDEST SWAP2 POP POP SWAP3 SWAP2 POP POP JUMP JUMPDEST PUSH0 DUP1 PUSH0 PUSH1 0x60 DUP5 DUP7 SUB SLT ISZERO PUSH2 0x313 JUMPI PUSH2 0x312 PUSH2 0x1B8 JUMP JUMPDEST JUMPDEST PUSH0 DUP5 ADD MLOAD PUSH8 0xFFFFFFFFFFFFFFFF DUP2 GT ISZERO PUSH2 0x330 JUMPI PUSH2 0x32F PUSH2 0x1BC JUMP JUMPDEST JUMPDEST PUSH2 0x33C DUP7 DUP3 DUP8 ADD PUSH2 0x2CF JUMP JUMPDEST SWAP4 POP POP PUSH1 0x20 DUP5 ADD MLOAD PUSH8 0xFFFFFFFFFFFFFFFF DUP2 GT ISZERO PUSH2 0x35D JUMPI PUSH2 0x35C PUSH2 0x1BC JUMP JUMPDEST JUMPDEST PUSH2 0x369 DUP7 DUP3 DUP8 ADD PUSH2 0x2CF JUMP JUMPDEST SWAP3 POP POP PUSH1 0x40 DUP5 ADD MLOAD PUSH8 0xFFFFFFFFFFFFFFFF DUP2 GT ISZERO PUSH2 0x38A JUMPI PUSH2 0x389 PUSH2 0x1BC JUMP JUMPDEST JUMPDEST PUSH2 0x396 DUP7 DUP3 DUP8 ADD PUSH2 0x2CF JUMP JUMPDEST SWAP2 POP POP SWAP3 POP SWAP3 POP SWAP3 JUMP JUMPDEST PUSH0 PUSH20 0xFFFFFFFFFFFFFFFFFFFFFFFFFFFFFFFFFFFFFFFF DUP3 AND SWAP1 POP SWAP2 SWAP1 POP JUMP JUMPDEST PUSH0 PUSH2 0x3C9 DUP3 PUSH2 0x3A0 JUMP JUMPDEST SWAP1 POP SWAP2 SWAP1 POP JUMP JUMPDEST PUSH2 0x3D9 DUP2 PUSH2 0x3BF JUMP JUMPDEST DUP3 MSTORE POP POP JUMP JUMPDEST PUSH0 PUSH1 0x20 DUP3 ADD SWAP1 POP PUSH2 0x3F2 PUSH0 DUP4 ADD DUP5 PUSH2 0x3D0 JUMP JUMPDEST SWAP3 SWAP2 POP POP JUMP JUMPDEST PUSH0 DUP2 MLOAD SWAP1 POP SWAP2 SWAP1 POP JUMP JUMPDEST PUSH32 0x4E487B7100000000000000000000000000000000000000000000000000000000 PUSH0 MSTORE PUSH1 0x22 PUSH1 0x4 MSTORE PUSH1 0x24 PUSH0 REVERT JUMPDEST PUSH0 PUSH1 0x2 DUP3 DIV SWAP1 POP PUSH1 0x1 DUP3 AND DUP1 PUSH2 0x446 JUMPI PUSH1 0x7F DUP3 AND SWAP2 POP JUMPDEST PUSH1 0x20 DUP3 LT DUP2 SUB PUSH2 0x459 JUMPI PUSH2 0x458 PUSH2 0x402 JUMP JUMPDEST JUMPDEST POP SWAP2 SWAP1 POP JUMP JUMPDEST PUSH0 DUP2 SWAP1 POP DUP2 PUSH0 MSTORE PUSH1 0x20 PUSH0 KECCAK256 SWAP1 POP SWAP2 SWAP1 POP JUMP JUMPDEST PUSH0 PUSH1 0x20 PUSH1 0x1F DUP4 ADD DIV SWAP1 POP SWAP2 SWAP1 POP JUMP JUMPDEST PUSH0 DUP3 DUP3 SHL SWAP1 POP SWAP3 SWAP2 POP POP JUMP JUMPDEST PUSH0 PUSH1 0x8 DUP4 MUL PUSH2 0x4BB PUSH32 0xFFFFFFFFFFFFFFFFFFFFFFFFFFFFFFFFFFFFFFFFFFFFFFFFFFFFFFFFFFFFFFFF DUP3 PUSH2 0x480 JUMP JUMPDEST PUSH2 0x4C5 DUP7 DUP4 PUSH2 0x480 JUMP JUMPDEST SWAP6 POP DUP1 NOT DUP5 AND SWAP4 POP DUP1 DUP7 AND DUP5 OR SWAP3 POP POP POP SWAP4 SWAP3 POP POP POP JUMP JUMPDEST PUSH0 DUP2 SWAP1 POP SWAP2 SWAP1 POP JUMP JUMPDEST PUSH0 DUP2 SWAP1 POP SWAP2 SWAP1 POP JUMP JUMPDEST PUSH0 PUSH2 0x509 PUSH2 0x504 PUSH2 0x4FF DUP5 PUSH2 0x4DD JUMP JUMPDEST PUSH2 0x4E6 JUMP JUMPDEST PUSH2 0x4DD JUMP JUMPDEST SWAP1 POP SWAP2 SWAP1 POP JUMP JUMPDEST PUSH0 DUP2 SWAP1 POP SWAP2 SWAP1 POP JUMP JUMPDEST PUSH2 0x522 DUP4 PUSH2 0x4EF JUMP JUMPDEST PUSH2 0x536 PUSH2 0x52E DUP3 PUSH2 0x510 JUMP JUMPDEST DUP5 DUP5 SLOAD PUSH2 0x48C JUMP JUMPDEST DUP3 SSTORE POP POP POP POP JUMP JUMPDEST PUSH0 SWAP1 JUMP JUMPDEST PUSH2 0x54A PUSH2 0x53E JUMP JUMPDEST PUSH2 0x555 DUP2 DUP5 DUP5 PUSH2 0x519 JUMP JUMPDEST POP POP POP JUMP JUMPDEST JUMPDEST DUP2 DUP2 LT ISZERO PUSH2 0x578 JUMPI PUSH2 0x56D PUSH0 DUP3 PUSH2 0x542 JUMP JUMPDEST PUSH1 0x1 DUP2 ADD SWAP1 POP PUSH2 0x55B JUMP JUMPDEST POP POP JUMP JUMPDEST PUSH1 0x1F DUP3 GT ISZERO PUSH2 0x5BD JUMPI PUSH2 0x58E DUP2 PUSH2 0x45F JUMP JUMPDEST PUSH2 0x597 DUP5 PUSH2 0x471 JUMP JUMPDEST DUP2 ADD PUSH1 0x20 DUP6 LT ISZERO PUSH2 0x5A6 JUMPI DUP2 SWAP1 POP JUMPDEST PUSH2 0x5BA PUSH2 0x5B2 DUP6 PUSH2 0x471 JUMP JUMPDEST DUP4 ADD DUP3 PUSH2 0x55A JUMP JUMPDEST POP POP JUMPDEST POP POP POP JUMP JUMPDEST PUSH0 DUP3 DUP3 SHR SWAP1 POP SWAP3 SWAP2 POP POP JUMP JUMPDEST PUSH0 PUSH2 0x5DD PUSH0 NOT DUP5 PUSH1 0x8 MUL PUSH2 0x5C2 JUMP JUMPDEST NOT DUP1 DUP4 AND SWAP2 POP POP SWAP3 SWAP2 POP POP JUMP JUMPDEST PUSH0 PUSH2 0x5F5 DUP4 DUP4 PUSH2 0x5CE JUMP JUMPDEST SWAP2 POP DUP3 PUSH1 0x2 MUL DUP3 OR SWAP1 POP SWAP3 SWAP2 POP POP JUMP JUMPDEST PUSH2 0x60E DUP3 PUSH2 0x3F8 JUMP JUMPDEST PUSH8 0xFFFFFFFFFFFFFFFF DUP2 GT ISZERO PUSH2 0x627 JUMPI PUSH2 0x626 PUSH2 0x1D8 JUMP JUMPDEST JUMPDEST PUSH2 0x631 DUP3 SLOAD PUSH2 0x42F JUMP JUMPDEST PUSH2 0x63C DUP3 DUP3 DUP6 PUSH2 0x57C JUMP JUMPDEST PUSH0 PUSH1 0x20 SWAP1 POP PUSH1 0x1F DUP4 GT PUSH1 0x1 DUP2 EQ PUSH2 0x66D JUMPI PUSH0 DUP5 ISZERO PUSH2 0x65B JUMPI DUP3 DUP8 ADD MLOAD SWAP1 POP JUMPDEST PUSH2 0x665 DUP6 DUP3 PUSH2 0x5EA JUMP JUMPDEST DUP7 SSTORE POP PUSH2 0x6CC JUMP JUMPDEST PUSH1 0x1F NOT DUP5 AND PUSH2 0x67B DUP7 PUSH2 0x45F JUMP JUMPDEST PUSH0 JUMPDEST DUP3 DUP2 LT ISZERO PUSH2 0x6A2 JUMPI DUP5 DUP10 ADD MLOAD DUP3 SSTORE PUSH1 0x1 DUP3 ADD SWAP2 POP PUSH1 0x20 DUP6 ADD SWAP5 POP PUSH1 0x20 DUP2 ADD SWAP1 POP PUSH2 0x67D JUMP JUMPDEST DUP7 DUP4 LT ISZERO PUSH2 0x6BF JUMPI DUP5 DUP10 ADD MLOAD PUSH2 0x6BB PUSH1 0x1F DUP10 AND DUP3 PUSH2 0x5CE JUMP JUMPDEST DUP4 SSTORE POP JUMPDEST PUSH1 0x1 PUSH1 0x2 DUP9 MUL ADD DUP9 SSTORE POP POP POP JUMPDEST POP POP POP POP POP POP JUMP JUMPDEST PUSH2 0x2377 DUP1 PUSH2 0x6E1 PUSH0 CODECOPY PUSH0 RETURN INVALID PUSH1 0x80 PUSH1 0x40 MSTORE CALLVALUE DUP1 ISZERO PUSH2 0xF JUMPI PUSH0 DUP1 REVERT JUMPDEST POP PUSH1 0x4 CALLDATASIZE LT PUSH2 0x114 JUMPI PUSH0 CALLDATALOAD PUSH1 0xE0 SHR DUP1 PUSH4 0x715018A6 GT PUSH2 0xA0 JUMPI DUP1 PUSH4 0xB88D4FDE GT PUSH2 0x6F JUMPI DUP1 PUSH4 0xB88D4FDE EQ PUSH2 0x2C8 JUMPI DUP1 PUSH4 0xC87B56DD EQ PUSH2 0x2E4 JUMPI DUP1 PUSH4 0xE985E9C5 EQ PUSH2 0x314 JUMPI DUP1 PUSH4 0xF2FDE38B EQ PUSH2 0x344 JUMPI DUP1 PUSH4 0xF6459D47 EQ PUSH2 0x360 JUMPI PUSH2 0x114 JUMP JUMPDEST DUP1 PUSH4 0x715018A6 EQ PUSH2 0x266 JUMPI DUP1 PUSH4 0x8DA5CB5B EQ PUSH2 0x270 JUMPI DUP1 PUSH4 0x95D89B41 EQ PUSH2 0x28E JUMPI DUP1 PUSH4 0xA22CB465 EQ PUSH2 0x2AC JUMPI PUSH2 0x114 JUMP JUMPDEST DUP1 PUSH4 0x23B872DD GT PUSH2 0xE7 JUMPI DUP1 PUSH4 0x23B872DD EQ PUSH2 0x1B2 JUMPI DUP1 PUSH4 0x42842E0E EQ PUSH2 0x1CE JUMPI DUP1 PUSH4 0x532E4849 EQ PUSH2 0x1EA JUMPI DUP1 PUSH4 0x6352211E EQ PUSH2 0x206 JUMPI DUP1 PUSH4 0x70A08231 EQ PUSH2 0x236 JUMPI PUSH2 0x114 JUMP JUMPDEST DUP1 PUSH4 0x1FFC9A7 EQ PUSH2 0x118 JUMPI DUP1 PUSH4 0x6FDDE03 EQ PUSH2 0x148 JUMPI DUP1 PUSH4 0x81812FC EQ PUSH2 0x166 JUMPI DUP1 PUSH4 0x95EA7B3 EQ PUSH2 0x196 JUMPI JUMPDEST PUSH0 DUP1 REVERT JUMPDEST PUSH2 0x132 PUSH1 0x4 DUP1 CALLDATASIZE SUB DUP2 ADD SWAP1 PUSH2 0x12D SWAP2 SWAP1 PUSH2 0x1851 JUMP JUMPDEST PUSH2 0x37C JUMP JUMPDEST PUSH1 0x40 MLOAD PUSH2 0x13F SWAP2 SWAP1 PUSH2 0x1896 JUMP JUMPDEST PUSH1 0x40 MLOAD DUP1 SWAP2 SUB SWAP1 RETURN JUMPDEST PUSH2 0x150 PUSH2 0x45D JUMP JUMPDEST PUSH1 0x40 MLOAD PUSH2 0x15D SWAP2 SWAP1 PUSH2 0x191F JUMP JUMPDEST PUSH1 0x40 MLOAD DUP1 SWAP2 SUB SWAP1 RETURN JUMPDEST PUSH2 0x180 PUSH1 0x4 DUP1 CALLDATASIZE SUB DUP2 ADD SWAP1 PUSH2 0x17B SWAP2 SWAP1 PUSH2 0x1972 JUMP JUMPDEST PUSH2 0x4ED JUMP JUMPDEST PUSH1 0x40 MLOAD PUSH2 0x18D SWAP2 SWAP1 PUSH2 0x19DC JUMP JUMPDEST PUSH1 0x40 MLOAD DUP1 SWAP2 SUB SWAP1 RETURN JUMPDEST PUSH2 0x1B0 PUSH1 0x4 DUP1 CALLDATASIZE SUB DUP2 ADD SWAP1 PUSH2 0x1AB SWAP2 SWAP1 PUSH2 0x1A1F JUMP JUMPDEST PUSH2 0x508 JUMP JUMPDEST STOP JUMPDEST PUSH2 0x1CC PUSH1 0x4 DUP1 CALLDATASIZE SUB DUP2 ADD SWAP1 PUSH2 0x1C7 SWAP2 SWAP1 PUSH2 0x1A5D JUMP JUMPDEST PUSH2 0x51E JUMP JUMPDEST STOP JUMPDEST PUSH2 0x1E8 PUSH1 0x4 DUP1 CALLDATASIZE SUB DUP2 ADD SWAP1 PUSH2 0x1E3 SWAP2 SWAP1 PUSH2 0x1A5D JUMP JUMPDEST PUSH2 0x61D JUMP JUMPDEST STOP JUMPDEST PUSH2 0x204 PUSH1 0x4 DUP1 CALLDATASIZE SUB DUP2 ADD SWAP1 PUSH2 0x1FF SWAP2 SWAP1 PUSH2 0x1BD9 JUMP JUMPDEST PUSH2 0x63C JUMP JUMPDEST STOP JUMPDEST PUSH2 0x220 PUSH1 0x4 DUP1 CALLDATASIZE SUB DUP2 ADD SWAP1 PUSH2 0x21B SWAP2 SWAP1 PUSH2 0x1972 JUMP JUMPDEST PUSH2 0x657 JUMP JUMPDEST PUSH1 0x40 MLOAD PUSH2 0x22D SWAP2 SWAP1 PUSH2 0x19DC JUMP JUMPDEST PUSH1 0x40 MLOAD DUP1 SWAP2 SUB SWAP1 RETURN JUMPDEST PUSH2 0x250 PUSH1 0x4 DUP1 CALLDATASIZE SUB DUP2 ADD SWAP1 PUSH2 0x24B SWAP2 SWAP1 PUSH2 0x1C20 JUMP JUMPDEST PUSH2 0x668 JUMP JUMPDEST PUSH1 0x40 MLOAD PUSH2 0x25D SWAP2 SWAP1 PUSH2 0x1C5A JUMP JUMPDEST PUSH1 0x40 MLOAD DUP1 SWAP2 SUB SWAP1 RETURN JUMPDEST PUSH2 0x26E PUSH2 0x71E JUMP JUMPDEST STOP JUMPDEST PUSH2 0x278 PUSH2 0x731 JUMP JUMPDEST PUSH1 0x40 MLOAD PUSH2 0x285 SWAP2 SWAP1 PUSH2 0x19DC JUMP JUMPDEST PUSH1 0x40 MLOAD DUP1 SWAP2 SUB SWAP1 RETURN JUMPDEST PUSH2 0x296 PUSH2 0x758 JUMP JUMPDEST PUSH1 0x40 MLOAD PUSH2 0x2A3 SWAP2 SWAP1 PUSH2 0x191F JUMP JUMPDEST PUSH1 0x40 MLOAD DUP1 SWAP2 SUB SWAP1 RETURN JUMPDEST PUSH2 0x2C6 PUSH1 0x4 DUP1 CALLDATASIZE SUB DUP2 ADD SWAP1 PUSH2 0x2C1 SWAP2 SWAP1 PUSH2 0x1C9D JUMP JUMPDEST PUSH2 0x7E8 JUMP JUMPDEST STOP JUMPDEST PUSH2 0x2E2 PUSH1 0x4 DUP1 CALLDATASIZE SUB DUP2 ADD SWAP1 PUSH2 0x2DD SWAP2 SWAP1 PUSH2 0x1D79 JUMP JUMPDEST PUSH2 0x7FE JUMP JUMPDEST STOP JUMPDEST PUSH2 0x2FE PUSH1 0x4 DUP1 CALLDATASIZE SUB DUP2 ADD SWAP1 PUSH2 0x2F9 SWAP2 SWAP1 PUSH2 0x1972 JUMP JUMPDEST PUSH2 0x81B JUMP JUMPDEST PUSH1 0x40 MLOAD PUSH2 0x30B SWAP2 SWAP1 PUSH2 0x191F JUMP JUMPDEST PUSH1 0x40 MLOAD DUP1 SWAP2 SUB SWAP1 RETURN JUMPDEST PUSH2 0x32E PUSH1 0x4 DUP1 CALLDATASIZE SUB DUP2 ADD SWAP1 PUSH2 0x329 SWAP2 SWAP1 PUSH2 0x1DF9 JUMP JUMPDEST PUSH2 0x854 JUMP JUMPDEST PUSH1 0x40 MLOAD PUSH2 0x33B SWAP2 SWAP1 PUSH2 0x1896 JUMP JUMPDEST PUSH1 0x40 MLOAD DUP1 SWAP2 SUB SWAP1 RETURN JUMPDEST PUSH2 0x35E PUSH1 0x4 DUP1 CALLDATASIZE SUB DUP2 ADD SWAP1 PUSH2 0x359 SWAP2 SWAP1 PUSH2 0x1C20 JUMP JUMPDEST PUSH2 0x8E2 JUMP JUMPDEST STOP JUMPDEST PUSH2 0x37A PUSH1 0x4 DUP1 CALLDATASIZE SUB DUP2 ADD SWAP1 PUSH2 0x375 SWAP2 SWAP1 PUSH2 0x1972 JUMP JUMPDEST PUSH2 0x966 JUMP JUMPDEST STOP JUMPDEST PUSH0 PUSH32 0x80AC58CD00000000000000000000000000000000000000000000000000000000 PUSH28 0xFFFFFFFFFFFFFFFFFFFFFFFFFFFFFFFFFFFFFFFFFFFFFFFFFFFFFFFF NOT AND DUP3 PUSH28 0xFFFFFFFFFFFFFFFFFFFFFFFFFFFFFFFFFFFFFFFFFFFFFFFFFFFFFFFF NOT AND EQ DUP1 PUSH2 0x446 JUMPI POP PUSH32 0x5B5E139F00000000000000000000000000000000000000000000000000000000 PUSH28 0xFFFFFFFFFFFFFFFFFFFFFFFFFFFFFFFFFFFFFFFFFFFFFFFFFFFFFFFF NOT AND DUP3 PUSH28 0xFFFFFFFFFFFFFFFFFFFFFFFFFFFFFFFFFFFFFFFFFFFFFFFFFFFFFFFF NOT AND EQ JUMPDEST DUP1 PUSH2 0x456 JUMPI POP PUSH2 0x455 DUP3 PUSH2 0x97B JUMP JUMPDEST JUMPDEST SWAP1 POP SWAP2 SWAP1 POP JUMP JUMPDEST PUSH1 0x60 PUSH1 0x1 DUP1 SLOAD PUSH2 0x46C SWAP1 PUSH2 0x1E64 JUMP JUMPDEST DUP1 PUSH1 0x1F ADD PUSH1 0x20 DUP1 SWAP2 DIV MUL PUSH1 0x20 ADD PUSH1 0x40 MLOAD SWAP1 DUP2 ADD PUSH1 0x40 MSTORE DUP1 SWAP3 SWAP2 SWAP1 DUP2 DUP2 MSTORE PUSH1 0x20 ADD DUP3 DUP1 SLOAD PUSH2 0x498 SWAP1 PUSH2 0x1E64 JUMP JUMPDEST DUP1 ISZERO PUSH2 0x4E3 JUMPI DUP1 PUSH1 0x1F LT PUSH2 0x4BA JUMPI PUSH2 0x100 DUP1 DUP4 SLOAD DIV MUL DUP4 MSTORE SWAP2 PUSH1 0x20 ADD SWAP2 PUSH2 0x4E3 JUMP JUMPDEST DUP3 ADD SWAP2 SWAP1 PUSH0 MSTORE PUSH1 0x20 PUSH0 KECCAK256 SWAP1 JUMPDEST DUP2 SLOAD DUP2 MSTORE SWAP1 PUSH1 0x1 ADD SWAP1 PUSH1 0x20 ADD DUP1 DUP4 GT PUSH2 0x4C6 JUMPI DUP3 SWAP1 SUB PUSH1 0x1F AND DUP3 ADD SWAP2 JUMPDEST POP POP POP POP POP SWAP1 POP SWAP1 JUMP JUMPDEST PUSH0 PUSH2 0x4F7 DUP3 PUSH2 0x9E4 JUMP JUMPDEST POP PUSH2 0x501 DUP3 PUSH2 0xA6A JUMP JUMPDEST SWAP1 POP SWAP2 SWAP1 POP JUMP JUMPDEST PUSH2 0x51A DUP3 DUP3 PUSH2 0x515 PUSH2 0xAA3 JUMP JUMPDEST PUSH2 0xAAA JUMP JUMPDEST POP POP JUMP JUMPDEST PUSH0 PUSH20 0xFFFFFFFFFFFFFFFFFFFFFFFFFFFFFFFFFFFFFFFF AND DUP3 PUSH20 0xFFFFFFFFFFFFFFFFFFFFFFFFFFFFFFFFFFFFFFFF AND SUB PUSH2 0x58E JUMPI PUSH0 PUSH1 0x40 MLOAD PUSH32 0x64A0AE9200000000000000000000000000000000000000000000000000000000 DUP2 MSTORE PUSH1 0x4 ADD PUSH2 0x585 SWAP2 SWAP1 PUSH2 0x19DC JUMP JUMPDEST PUSH1 0x40 MLOAD DUP1 SWAP2 SUB SWAP1 REVERT JUMPDEST PUSH0 PUSH2 0x5A1 DUP4 DUP4 PUSH2 0x59C PUSH2 0xAA3 JUMP JUMPDEST PUSH2 0xABC JUMP JUMPDEST SWAP1 POP DUP4 PUSH20 0xFFFFFFFFFFFFFFFFFFFFFFFFFFFFFFFFFFFFFFFF AND DUP2 PUSH20 0xFFFFFFFFFFFFFFFFFFFFFFFFFFFFFFFFFFFFFFFF AND EQ PUSH2 0x617 JUMPI DUP4 DUP3 DUP3 PUSH1 0x40 MLOAD PUSH32 0x64283D7B00000000000000000000000000000000000000000000000000000000 DUP2 MSTORE PUSH1 0x4 ADD PUSH2 0x60E SWAP4 SWAP3 SWAP2 SWAP1 PUSH2 0x1E94 JUMP JUMPDEST PUSH1 0x40 MLOAD DUP1 SWAP2 SUB SWAP1 REVERT JUMPDEST POP POP POP POP JUMP JUMPDEST PUSH2 0x637 DUP4 DUP4 DUP4 PUSH1 0x40 MLOAD DUP1 PUSH1 0x20 ADD PUSH1 0x40 MSTORE DUP1 PUSH0 DUP2 MSTORE POP PUSH2 0x7FE JUMP JUMPDEST POP POP POP JUMP JUMPDEST PUSH2 0x644 PUSH2 0xCC7 JUMP JUMPDEST DUP1 PUSH1 0x7 SWAP1 DUP2 PUSH2 0x653 SWAP2 SWAP1 PUSH2 0x2066 JUMP JUMPDEST POP POP JUMP JUMPDEST PUSH0 PUSH2 0x661 DUP3 PUSH2 0x9E4 JUMP JUMPDEST SWAP1 POP SWAP2 SWAP1 POP JUMP JUMPDEST PUSH0 DUP1 PUSH20 0xFFFFFFFFFFFFFFFFFFFFFFFFFFFFFFFFFFFFFFFF AND DUP3 PUSH20 0xFFFFFFFFFFFFFFFFFFFFFFFFFFFFFFFFFFFFFFFF AND SUB PUSH2 0x6D9 JUMPI PUSH0 PUSH1 0x40 MLOAD PUSH32 0x89C62B6400000000000000000000000000000000000000000000000000000000 DUP2 MSTORE PUSH1 0x4 ADD PUSH2 0x6D0 SWAP2 SWAP1 PUSH2 0x19DC JUMP JUMPDEST PUSH1 0x40 MLOAD DUP1 SWAP2 SUB SWAP1 REVERT JUMPDEST PUSH1 0x4 PUSH0 DUP4 PUSH20 0xFFFFFFFFFFFFFFFFFFFFFFFFFFFFFFFFFFFFFFFF AND PUSH20 0xFFFFFFFFFFFFFFFFFFFFFFFFFFFFFFFFFFFFFFFF AND DUP2 MSTORE PUSH1 0x20 ADD SWAP1 DUP2 MSTORE PUSH1 0x20 ADD PUSH0 KECCAK256 SLOAD SWAP1 POP SWAP2 SWAP1 POP JUMP JUMPDEST PUSH2 0x726 PUSH2 0xCC7 JUMP JUMPDEST PUSH2 0x72F PUSH0 PUSH2 0xD4E JUMP JUMPDEST JUMP JUMPDEST PUSH0 DUP1 PUSH0 SWAP1 SLOAD SWAP1 PUSH2 0x100 EXP SWAP1 DIV PUSH20 0xFFFFFFFFFFFFFFFFFFFFFFFFFFFFFFFFFFFFFFFF AND SWAP1 POP SWAP1 JUMP JUMPDEST PUSH1 0x60 PUSH1 0x2 DUP1 SLOAD PUSH2 0x767 SWAP1 PUSH2 0x1E64 JUMP JUMPDEST DUP1 PUSH1 0x1F ADD PUSH1 0x20 DUP1 SWAP2 DIV MUL PUSH1 0x20 ADD PUSH1 0x40 MLOAD SWAP1 DUP2 ADD PUSH1 0x40 MSTORE DUP1 SWAP3 SWAP2 SWAP1 DUP2 DUP2 MSTORE PUSH1 0x20 ADD DUP3 DUP1 SLOAD PUSH2 0x793 SWAP1 PUSH2 0x1E64 JUMP JUMPDEST DUP1 ISZERO PUSH2 0x7DE JUMPI DUP1 PUSH1 0x1F LT PUSH2 0x7B5 JUMPI PUSH2 0x100 DUP1 DUP4 SLOAD DIV MUL DUP4 MSTORE SWAP2 PUSH1 0x20 ADD SWAP2 PUSH2 0x7DE JUMP JUMPDEST DUP3 ADD SWAP2 SWAP1 PUSH0 MSTORE PUSH1 0x20 PUSH0 KECCAK256 SWAP1 JUMPDEST DUP2 SLOAD DUP2 MSTORE SWAP1 PUSH1 0x1 ADD SWAP1 PUSH1 0x20 ADD DUP1 DUP4 GT PUSH2 0x7C1 JUMPI DUP3 SWAP1 SUB PUSH1 0x1F AND DUP3 ADD SWAP2 JUMPDEST POP POP POP POP POP SWAP1 POP SWAP1 JUMP JUMPDEST PUSH2 0x7FA PUSH2 0x7F3 PUSH2 0xAA3 JUMP JUMPDEST DUP4 DUP4 PUSH2 0xE0F JUMP JUMPDEST POP POP JUMP JUMPDEST PUSH2 0x809 DUP5 DUP5 DUP5 PUSH2 0x51E JUMP JUMPDEST PUSH2 0x815 DUP5 DUP5 DUP5 DUP5 PUSH2 0xF78 JUMP JUMPDEST POP POP POP POP JUMP JUMPDEST PUSH1 0x60 PUSH0 PUSH2 0x827 DUP4 PUSH2 0x112A JUMP JUMPDEST SWAP1 POP PUSH1 0x7 DUP2 PUSH1 0x40 MLOAD PUSH1 0x20 ADD PUSH2 0x83D SWAP3 SWAP2 SWAP1 PUSH2 0x21EF JUMP JUMPDEST PUSH1 0x40 MLOAD PUSH1 0x20 DUP2 DUP4 SUB SUB DUP2 MSTORE SWAP1 PUSH1 0x40 MSTORE SWAP2 POP POP SWAP2 SWAP1 POP JUMP JUMPDEST PUSH0 PUSH1 0x6 PUSH0 DUP5 PUSH20 0xFFFFFFFFFFFFFFFFFFFFFFFFFFFFFFFFFFFFFFFF AND PUSH20 0xFFFFFFFFFFFFFFFFFFFFFFFFFFFFFFFFFFFFFFFF AND DUP2 MSTORE PUSH1 0x20 ADD SWAP1 DUP2 MSTORE PUSH1 0x20 ADD PUSH0 KECCAK256 PUSH0 DUP4 PUSH20 0xFFFFFFFFFFFFFFFFFFFFFFFFFFFFFFFFFFFFFFFF AND PUSH20 0xFFFFFFFFFFFFFFFFFFFFFFFFFFFFFFFFFFFFFFFF AND DUP2 MSTORE PUSH1 0x20 ADD SWAP1 DUP2 MSTORE PUSH1 0x20 ADD PUSH0 KECCAK256 PUSH0 SWAP1 SLOAD SWAP1 PUSH2 0x100 EXP SWAP1 DIV PUSH1 0xFF AND SWAP1 POP SWAP3 SWAP2 POP POP JUMP JUMPDEST PUSH2 0x8EA PUSH2 0xCC7 JUMP JUMPDEST PUSH0 PUSH20 0xFFFFFFFFFFFFFFFFFFFFFFFFFFFFFFFFFFFFFFFF AND DUP2 PUSH20 0xFFFFFFFFFFFFFFFFFFFFFFFFFFFFFFFFFFFFFFFF AND SUB PUSH2 0x95A JUMPI PUSH0 PUSH1 0x40 MLOAD PUSH32 0x1E4FBDF700000000000000000000000000000000000000000000000000000000 DUP2 MSTORE PUSH1 0x4 ADD PUSH2 0x951 SWAP2 SWAP1 PUSH2 0x19DC JUMP JUMPDEST PUSH1 0x40 MLOAD DUP1 SWAP2 SUB SWAP1 REVERT JUMPDEST PUSH2 0x963 DUP2 PUSH2 0xD4E JUMP JUMPDEST POP JUMP JUMPDEST PUSH2 0x96E PUSH2 0xCC7 JUMP JUMPDEST PUSH2 0x978 CALLER DUP3 PUSH2 0x11F4 JUMP JUMPDEST POP JUMP JUMPDEST PUSH0 PUSH32 0x1FFC9A700000000000000000000000000000000000000000000000000000000 PUSH28 0xFFFFFFFFFFFFFFFFFFFFFFFFFFFFFFFFFFFFFFFFFFFFFFFFFFFFFFFF NOT AND DUP3 PUSH28 0xFFFFFFFFFFFFFFFFFFFFFFFFFFFFFFFFFFFFFFFFFFFFFFFFFFFFFFFF NOT AND EQ SWAP1 POP SWAP2 SWAP1 POP JUMP JUMPDEST PUSH0 DUP1 PUSH2 0x9EF DUP4 PUSH2 0x1211 JUMP JUMPDEST SWAP1 POP PUSH0 PUSH20 0xFFFFFFFFFFFFFFFFFFFFFFFFFFFFFFFFFFFFFFFF AND DUP2 PUSH20 0xFFFFFFFFFFFFFFFFFFFFFFFFFFFFFFFFFFFFFFFF AND SUB PUSH2 0xA61 JUMPI DUP3 PUSH1 0x40 MLOAD PUSH32 0x7E27328900000000000000000000000000000000000000000000000000000000 DUP2 MSTORE PUSH1 0x4 ADD PUSH2 0xA58 SWAP2 SWAP1 PUSH2 0x1C5A JUMP JUMPDEST PUSH1 0x40 MLOAD DUP1 SWAP2 SUB SWAP1 REVERT JUMPDEST DUP1 SWAP2 POP POP SWAP2 SWAP1 POP JUMP JUMPDEST PUSH0 PUSH1 0x5 PUSH0 DUP4 DUP2 MSTORE PUSH1 0x20 ADD SWAP1 DUP2 MSTORE PUSH1 0x20 ADD PUSH0 KECCAK256 PUSH0 SWAP1 SLOAD SWAP1 PUSH2 0x100 EXP SWAP1 DIV PUSH20 0xFFFFFFFFFFFFFFFFFFFFFFFFFFFFFFFFFFFFFFFF AND SWAP1 POP SWAP2 SWAP1 POP JUMP JUMPDEST PUSH0 CALLER SWAP1 POP SWAP1 JUMP JUMPDEST PUSH2 0xAB7 DUP4 DUP4 DUP4 PUSH1 0x1 PUSH2 0x124A JUMP JUMPDEST POP POP POP JUMP JUMPDEST PUSH0 DUP1 PUSH2 0xAC7 DUP5 PUSH2 0x1211 JUMP JUMPDEST SWAP1 POP PUSH0 PUSH20 0xFFFFFFFFFFFFFFFFFFFFFFFFFFFFFFFFFFFFFFFF AND DUP4 PUSH20 0xFFFFFFFFFFFFFFFFFFFFFFFFFFFFFFFFFFFFFFFF AND EQ PUSH2 0xB08 JUMPI PUSH2 0xB07 DUP2 DUP5 DUP7 PUSH2 0x1409 JUMP JUMPDEST JUMPDEST PUSH0 PUSH20 0xFFFFFFFFFFFFFFFFFFFFFFFFFFFFFFFFFFFFFFFF AND DUP2 PUSH20 0xFFFFFFFFFFFFFFFFFFFFFFFFFFFFFFFFFFFFFFFF AND EQ PUSH2 0xB93 JUMPI PUSH2 0xB47 PUSH0 DUP6 PUSH0 DUP1 PUSH2 0x124A JUMP JUMPDEST PUSH1 0x1 PUSH1 0x4 PUSH0 DUP4 PUSH20 0xFFFFFFFFFFFFFFFFFFFFFFFFFFFFFFFFFFFFFFFF AND PUSH20 0xFFFFFFFFFFFFFFFFFFFFFFFFFFFFFFFFFFFFFFFF AND DUP2 MSTORE PUSH1 0x20 ADD SWAP1 DUP2 MSTORE PUSH1 0x20 ADD PUSH0 KECCAK256 PUSH0 DUP3 DUP3 SLOAD SUB SWAP3 POP POP DUP2 SWAP1 SSTORE POP JUMPDEST PUSH0 PUSH20 0xFFFFFFFFFFFFFFFFFFFFFFFFFFFFFFFFFFFFFFFF AND DUP6 PUSH20 0xFFFFFFFFFFFFFFFFFFFFFFFFFFFFFFFFFFFFFFFF AND EQ PUSH2 0xC12 JUMPI PUSH1 0x1 PUSH1 0x4 PUSH0 DUP8 PUSH20 0xFFFFFFFFFFFFFFFFFFFFFFFFFFFFFFFFFFFFFFFF AND PUSH20 0xFFFFFFFFFFFFFFFFFFFFFFFFFFFFFFFFFFFFFFFF AND DUP2 MSTORE PUSH1 0x20 ADD SWAP1 DUP2 MSTORE PUSH1 0x20 ADD PUSH0 KECCAK256 PUSH0 DUP3 DUP3 SLOAD ADD SWAP3 POP POP DUP2 SWAP1 SSTORE POP JUMPDEST DUP5 PUSH1 0x3 PUSH0 DUP7 DUP2 MSTORE PUSH1 0x20 ADD SWAP1 DUP2 MSTORE PUSH1 0x20 ADD PUSH0 KECCAK256 PUSH0 PUSH2 0x100 EXP DUP2 SLOAD DUP2 PUSH20 0xFFFFFFFFFFFFFFFFFFFFFFFFFFFFFFFFFFFFFFFF MUL NOT AND SWAP1 DUP4 PUSH20 0xFFFFFFFFFFFFFFFFFFFFFFFFFFFFFFFFFFFFFFFF AND MUL OR SWAP1 SSTORE POP DUP4 DUP6 PUSH20 0xFFFFFFFFFFFFFFFFFFFFFFFFFFFFFFFFFFFFFFFF AND DUP3 PUSH20 0xFFFFFFFFFFFFFFFFFFFFFFFFFFFFFFFFFFFFFFFF AND PUSH32 0xDDF252AD1BE2C89B69C2B068FC378DAA952BA7F163C4A11628F55A4DF523B3EF PUSH1 0x40 MLOAD PUSH1 0x40 MLOAD DUP1 SWAP2 SUB SWAP1 LOG4 DUP1 SWAP2 POP POP SWAP4 SWAP3 POP POP POP JUMP JUMPDEST PUSH2 0xCCF PUSH2 0xAA3 JUMP JUMPDEST PUSH20 0xFFFFFFFFFFFFFFFFFFFFFFFFFFFFFFFFFFFFFFFF AND PUSH2 0xCED PUSH2 0x731 JUMP JUMPDEST PUSH20 0xFFFFFFFFFFFFFFFFFFFFFFFFFFFFFFFFFFFFFFFF AND EQ PUSH2 0xD4C JUMPI PUSH2 0xD10 PUSH2 0xAA3 JUMP JUMPDEST PUSH1 0x40 MLOAD PUSH32 0x118CDAA700000000000000000000000000000000000000000000000000000000 DUP2 MSTORE PUSH1 0x4 ADD PUSH2 0xD43 SWAP2 SWAP1 PUSH2 0x19DC JUMP JUMPDEST PUSH1 0x40 MLOAD DUP1 SWAP2 SUB SWAP1 REVERT JUMPDEST JUMP JUMPDEST PUSH0 DUP1 PUSH0 SWAP1 SLOAD SWAP1 PUSH2 0x100 EXP SWAP1 DIV PUSH20 0xFFFFFFFFFFFFFFFFFFFFFFFFFFFFFFFFFFFFFFFF AND SWAP1 POP DUP2 PUSH0 DUP1 PUSH2 0x100 EXP DUP2 SLOAD DUP2 PUSH20 0xFFFFFFFFFFFFFFFFFFFFFFFFFFFFFFFFFFFFFFFF MUL NOT AND SWAP1 DUP4 PUSH20 0xFFFFFFFFFFFFFFFFFFFFFFFFFFFFFFFFFFFFFFFF AND MUL OR SWAP1 SSTORE POP DUP2 PUSH20 0xFFFFFFFFFFFFFFFFFFFFFFFFFFFFFFFFFFFFFFFF AND DUP2 PUSH20 0xFFFFFFFFFFFFFFFFFFFFFFFFFFFFFFFFFFFFFFFF AND PUSH32 0x8BE0079C531659141344CD1FD0A4F28419497F9722A3DAAFE3B4186F6B6457E0 PUSH1 0x40 MLOAD PUSH1 0x40 MLOAD DUP1 SWAP2 SUB SWAP1 LOG3 POP POP JUMP JUMPDEST PUSH0 PUSH20 0xFFFFFFFFFFFFFFFFFFFFFFFFFFFFFFFFFFFFFFFF AND DUP3 PUSH20 0xFFFFFFFFFFFFFFFFFFFFFFFFFFFFFFFFFFFFFFFF AND SUB PUSH2 0xE7F JUMPI DUP2 PUSH1 0x40 MLOAD PUSH32 0x5B08BA1800000000000000000000000000000000000000000000000000000000 DUP2 MSTORE PUSH1 0x4 ADD PUSH2 0xE76 SWAP2 SWAP1 PUSH2 0x19DC JUMP JUMPDEST PUSH1 0x40 MLOAD DUP1 SWAP2 SUB SWAP1 REVERT JUMPDEST DUP1 PUSH1 0x6 PUSH0 DUP6 PUSH20 0xFFFFFFFFFFFFFFFFFFFFFFFFFFFFFFFFFFFFFFFF AND PUSH20 0xFFFFFFFFFFFFFFFFFFFFFFFFFFFFFFFFFFFFFFFF AND DUP2 MSTORE PUSH1 0x20 ADD SWAP1 DUP2 MSTORE PUSH1 0x20 ADD PUSH0 KECCAK256 PUSH0 DUP5 PUSH20 0xFFFFFFFFFFFFFFFFFFFFFFFFFFFFFFFFFFFFFFFF AND PUSH20 0xFFFFFFFFFFFFFFFFFFFFFFFFFFFFFFFFFFFFFFFF AND DUP2 MSTORE PUSH1 0x20 ADD SWAP1 DUP2 MSTORE PUSH1 0x20 ADD PUSH0 KECCAK256 PUSH0 PUSH2 0x100 EXP DUP2 SLOAD DUP2 PUSH1 0xFF MUL NOT AND SWAP1 DUP4 ISZERO ISZERO MUL OR SWAP1 SSTORE POP DUP2 PUSH20 0xFFFFFFFFFFFFFFFFFFFFFFFFFFFFFFFFFFFFFFFF AND DUP4 PUSH20 0xFFFFFFFFFFFFFFFFFFFFFFFFFFFFFFFFFFFFFFFF AND PUSH32 0x17307EAB39AB6107E8899845AD3D59BD9653F200F220920489CA2B5937696C31 DUP4 PUSH1 0x40 MLOAD PUSH2 0xF6B SWAP2 SWAP1 PUSH2 0x1896 JUMP JUMPDEST PUSH1 0x40 MLOAD DUP1 SWAP2 SUB SWAP1 LOG3 POP POP POP JUMP JUMPDEST PUSH0 DUP4 PUSH20 0xFFFFFFFFFFFFFFFFFFFFFFFFFFFFFFFFFFFFFFFF AND EXTCODESIZE GT ISZERO PUSH2 0x1124 JUMPI DUP3 PUSH20 0xFFFFFFFFFFFFFFFFFFFFFFFFFFFFFFFFFFFFFFFF AND PUSH4 0x150B7A02 PUSH2 0xFBB PUSH2 0xAA3 JUMP JUMPDEST DUP7 DUP6 DUP6 PUSH1 0x40 MLOAD DUP6 PUSH4 0xFFFFFFFF AND PUSH1 0xE0 SHL DUP2 MSTORE PUSH1 0x4 ADD PUSH2 0xFDD SWAP5 SWAP4 SWAP3 SWAP2 SWAP1 PUSH2 0x2264 JUMP JUMPDEST PUSH1 0x20 PUSH1 0x40 MLOAD DUP1 DUP4 SUB DUP2 PUSH0 DUP8 GAS CALL SWAP3 POP POP POP DUP1 ISZERO PUSH2 0x1018 JUMPI POP PUSH1 0x40 MLOAD RETURNDATASIZE PUSH1 0x1F NOT PUSH1 0x1F DUP3 ADD AND DUP3 ADD DUP1 PUSH1 0x40 MSTORE POP DUP2 ADD SWAP1 PUSH2 0x1015 SWAP2 SWAP1 PUSH2 0x22C2 JUMP JUMPDEST PUSH1 0x1 JUMPDEST PUSH2 0x1099 JUMPI RETURNDATASIZE DUP1 PUSH0 DUP2 EQ PUSH2 0x1046 JUMPI PUSH1 0x40 MLOAD SWAP2 POP PUSH1 0x1F NOT PUSH1 0x3F RETURNDATASIZE ADD AND DUP3 ADD PUSH1 0x40 MSTORE RETURNDATASIZE DUP3 MSTORE RETURNDATASIZE PUSH0 PUSH1 0x20 DUP5 ADD RETURNDATACOPY PUSH2 0x104B JUMP JUMPDEST PUSH1 0x60 SWAP2 POP JUMPDEST POP PUSH0 DUP2 MLOAD SUB PUSH2 0x1091 JUMPI DUP4 PUSH1 0x40 MLOAD PUSH32 0x64A0AE9200000000000000000000000000000000000000000000000000000000 DUP2 MSTORE PUSH1 0x4 ADD PUSH2 0x1088 SWAP2 SWAP1 PUSH2 0x19DC JUMP JUMPDEST PUSH1 0x40 MLOAD DUP1 SWAP2 SUB SWAP1 REVERT JUMPDEST DUP1 MLOAD DUP2 PUSH1 0x20 ADD REVERT JUMPDEST PUSH4 0x150B7A02 PUSH1 0xE0 SHL PUSH28 0xFFFFFFFFFFFFFFFFFFFFFFFFFFFFFFFFFFFFFFFFFFFFFFFFFFFFFFFF NOT AND DUP2 PUSH28 0xFFFFFFFFFFFFFFFFFFFFFFFFFFFFFFFFFFFFFFFFFFFFFFFFFFFFFFFF NOT AND EQ PUSH2 0x1122 JUMPI DUP4 PUSH1 0x40 MLOAD PUSH32 0x64A0AE9200000000000000000000000000000000000000000000000000000000 DUP2 MSTORE PUSH1 0x4 ADD PUSH2 0x1119 SWAP2 SWAP1 PUSH2 0x19DC JUMP JUMPDEST PUSH1 0x40 MLOAD DUP1 SWAP2 SUB SWAP1 REVERT JUMPDEST POP JUMPDEST POP POP POP POP JUMP JUMPDEST PUSH1 0x60 PUSH0 PUSH1 0x1 PUSH2 0x1138 DUP5 PUSH2 0x14CC JUMP JUMPDEST ADD SWAP1 POP PUSH0 DUP2 PUSH8 0xFFFFFFFFFFFFFFFF DUP2 GT ISZERO PUSH2 0x1156 JUMPI PUSH2 0x1155 PUSH2 0x1AB5 JUMP JUMPDEST JUMPDEST PUSH1 0x40 MLOAD SWAP1 DUP1 DUP3 MSTORE DUP1 PUSH1 0x1F ADD PUSH1 0x1F NOT AND PUSH1 0x20 ADD DUP3 ADD PUSH1 0x40 MSTORE DUP1 ISZERO PUSH2 0x1188 JUMPI DUP2 PUSH1 0x20 ADD PUSH1 0x1 DUP3 MUL DUP1 CALLDATASIZE DUP4 CALLDATACOPY DUP1 DUP3 ADD SWAP2 POP POP SWAP1 POP JUMPDEST POP SWAP1 POP PUSH0 DUP3 PUSH1 0x20 ADD DUP3 ADD SWAP1 POP JUMPDEST PUSH1 0x1 ISZERO PUSH2 0x11E9 JUMPI DUP1 DUP1 PUSH1 0x1 SWAP1 SUB SWAP2 POP POP PUSH32 0x3031323334353637383961626364656600000000000000000000000000000000 PUSH1 0xA DUP7 MOD BYTE DUP2 MSTORE8 PUSH1 0xA DUP6 DUP2 PUSH2 0x11DE JUMPI PUSH2 0x11DD PUSH2 0x22ED JUMP JUMPDEST JUMPDEST DIV SWAP5 POP PUSH0 DUP6 SUB PUSH2 0x1195 JUMPI JUMPDEST DUP2 SWAP4 POP POP POP POP SWAP2 SWAP1 POP JUMP JUMPDEST PUSH2 0x120D DUP3 DUP3 PUSH1 0x40 MLOAD DUP1 PUSH1 0x20 ADD PUSH1 0x40 MSTORE DUP1 PUSH0 DUP2 MSTORE POP PUSH2 0x161D JUMP JUMPDEST POP POP JUMP JUMPDEST PUSH0 PUSH1 0x3 PUSH0 DUP4 DUP2 MSTORE PUSH1 0x20 ADD SWAP1 DUP2 MSTORE PUSH1 0x20 ADD PUSH0 KECCAK256 PUSH0 SWAP1 SLOAD SWAP1 PUSH2 0x100 EXP SWAP1 DIV PUSH20 0xFFFFFFFFFFFFFFFFFFFFFFFFFFFFFFFFFFFFFFFF AND SWAP1 POP SWAP2 SWAP1 POP JUMP JUMPDEST DUP1 DUP1 PUSH2 0x1282 JUMPI POP PUSH0 PUSH20 0xFFFFFFFFFFFFFFFFFFFFFFFFFFFFFFFFFFFFFFFF AND DUP3 PUSH20 0xFFFFFFFFFFFFFFFFFFFFFFFFFFFFFFFFFFFFFFFF AND EQ ISZERO JUMPDEST ISZERO PUSH2 0x13B4 JUMPI PUSH0 PUSH2 0x1291 DUP5 PUSH2 0x9E4 JUMP JUMPDEST SWAP1 POP PUSH0 PUSH20 0xFFFFFFFFFFFFFFFFFFFFFFFFFFFFFFFFFFFFFFFF AND DUP4 PUSH20 0xFFFFFFFFFFFFFFFFFFFFFFFFFFFFFFFFFFFFFFFF AND EQ ISZERO DUP1 ISZERO PUSH2 0x12FB JUMPI POP DUP3 PUSH20 0xFFFFFFFFFFFFFFFFFFFFFFFFFFFFFFFFFFFFFFFF AND DUP2 PUSH20 0xFFFFFFFFFFFFFFFFFFFFFFFFFFFFFFFFFFFFFFFF AND EQ ISZERO JUMPDEST DUP1 ISZERO PUSH2 0x130E JUMPI POP PUSH2 0x130C DUP2 DUP5 PUSH2 0x854 JUMP JUMPDEST ISZERO JUMPDEST ISZERO PUSH2 0x1350 JUMPI DUP3 PUSH1 0x40 MLOAD PUSH32 0xA9FBF51F00000000000000000000000000000000000000000000000000000000 DUP2 MSTORE PUSH1 0x4 ADD PUSH2 0x1347 SWAP2 SWAP1 PUSH2 0x19DC JUMP JUMPDEST PUSH1 0x40 MLOAD DUP1 SWAP2 SUB SWAP1 REVERT JUMPDEST DUP2 ISZERO PUSH2 0x13B2 JUMPI DUP4 DUP6 PUSH20 0xFFFFFFFFFFFFFFFFFFFFFFFFFFFFFFFFFFFFFFFF AND DUP3 PUSH20 0xFFFFFFFFFFFFFFFFFFFFFFFFFFFFFFFFFFFFFFFF AND PUSH32 0x8C5BE1E5EBEC7D5BD14F71427D1E84F3DD0314C0F7B2291E5B200AC8C7C3B925 PUSH1 0x40 MLOAD PUSH1 0x40 MLOAD DUP1 SWAP2 SUB SWAP1 LOG4 JUMPDEST POP JUMPDEST DUP4 PUSH1 0x5 PUSH0 DUP6 DUP2 MSTORE PUSH1 0x20 ADD SWAP1 DUP2 MSTORE PUSH1 0x20 ADD PUSH0 KECCAK256 PUSH0 PUSH2 0x100 EXP DUP2 SLOAD DUP2 PUSH20 0xFFFFFFFFFFFFFFFFFFFFFFFFFFFFFFFFFFFFFFFF MUL NOT AND SWAP1 DUP4 PUSH20 0xFFFFFFFFFFFFFFFFFFFFFFFFFFFFFFFFFFFFFFFF AND MUL OR SWAP1 SSTORE POP POP POP POP POP JUMP JUMPDEST PUSH2 0x1414 DUP4 DUP4 DUP4 PUSH2 0x1638 JUMP JUMPDEST PUSH2 0x14C7 JUMPI PUSH0 PUSH20 0xFFFFFFFFFFFFFFFFFFFFFFFFFFFFFFFFFFFFFFFF AND DUP4 PUSH20 0xFFFFFFFFFFFFFFFFFFFFFFFFFFFFFFFFFFFFFFFF AND SUB PUSH2 0x1488 JUMPI DUP1 PUSH1 0x40 MLOAD PUSH32 0x7E27328900000000000000000000000000000000000000000000000000000000 DUP2 MSTORE PUSH1 0x4 ADD PUSH2 0x147F SWAP2 SWAP1 PUSH2 0x1C5A JUMP JUMPDEST PUSH1 0x40 MLOAD DUP1 SWAP2 SUB SWAP1 REVERT JUMPDEST DUP2 DUP2 PUSH1 0x40 MLOAD PUSH32 0x177E802F00000000000000000000000000000000000000000000000000000000 DUP2 MSTORE PUSH1 0x4 ADD PUSH2 0x14BE SWAP3 SWAP2 SWAP1 PUSH2 0x231A JUMP JUMPDEST PUSH1 0x40 MLOAD DUP1 SWAP2 SUB SWAP1 REVERT JUMPDEST POP POP POP JUMP JUMPDEST PUSH0 DUP1 PUSH0 SWAP1 POP PUSH27 0x184F03E93FF9F4DAA797ED6E38ED64BF6A1F010000000000000000 DUP4 LT PUSH2 0x1528 JUMPI PUSH27 0x184F03E93FF9F4DAA797ED6E38ED64BF6A1F010000000000000000 DUP4 DUP2 PUSH2 0x151E JUMPI PUSH2 0x151D PUSH2 0x22ED JUMP JUMPDEST JUMPDEST DIV SWAP3 POP PUSH1 0x40 DUP2 ADD SWAP1 POP JUMPDEST PUSH14 0x4EE2D6D415B85ACEF8100000000 DUP4 LT PUSH2 0x1565 JUMPI PUSH14 0x4EE2D6D415B85ACEF8100000000 DUP4 DUP2 PUSH2 0x155B JUMPI PUSH2 0x155A PUSH2 0x22ED JUMP JUMPDEST JUMPDEST DIV SWAP3 POP PUSH1 0x20 DUP2 ADD SWAP1 POP JUMPDEST PUSH7 0x2386F26FC10000 DUP4 LT PUSH2 0x1594 JUMPI PUSH7 0x2386F26FC10000 DUP4 DUP2 PUSH2 0x158A JUMPI PUSH2 0x1589 PUSH2 0x22ED JUMP JUMPDEST JUMPDEST DIV SWAP3 POP PUSH1 0x10 DUP2 ADD SWAP1 POP JUMPDEST PUSH4 0x5F5E100 DUP4 LT PUSH2 0x15BD JUMPI PUSH4 0x5F5E100 DUP4 DUP2 PUSH2 0x15B3 JUMPI PUSH2 0x15B2 PUSH2 0x22ED JUMP JUMPDEST JUMPDEST DIV SWAP3 POP PUSH1 0x8 DUP2 ADD SWAP1 POP JUMPDEST PUSH2 0x2710 DUP4 LT PUSH2 0x15E2 JUMPI PUSH2 0x2710 DUP4 DUP2 PUSH2 0x15D8 JUMPI PUSH2 0x15D7 PUSH2 0x22ED JUMP JUMPDEST JUMPDEST DIV SWAP3 POP PUSH1 0x4 DUP2 ADD SWAP1 POP JUMPDEST PUSH1 0x64 DUP4 LT PUSH2 0x1605 JUMPI PUSH1 0x64 DUP4 DUP2 PUSH2 0x15FB JUMPI PUSH2 0x15FA PUSH2 0x22ED JUMP JUMPDEST JUMPDEST DIV SWAP3 POP PUSH1 0x2 DUP2 ADD SWAP1 POP JUMPDEST PUSH1 0xA DUP4 LT PUSH2 0x1614 JUMPI PUSH1 0x1 DUP2 ADD SWAP1 POP JUMPDEST DUP1 SWAP2 POP POP SWAP2 SWAP1 POP JUMP JUMPDEST PUSH2 0x1627 DUP4 DUP4 PUSH2 0x16F8 JUMP JUMPDEST PUSH2 0x1633 PUSH0 DUP5 DUP5 DUP5 PUSH2 0xF78 JUMP JUMPDEST POP POP POP JUMP JUMPDEST PUSH0 DUP1 PUSH20 0xFFFFFFFFFFFFFFFFFFFFFFFFFFFFFFFFFFFFFFFF AND DUP4 PUSH20 0xFFFFFFFFFFFFFFFFFFFFFFFFFFFFFFFFFFFFFFFF AND EQ ISZERO DUP1 ISZERO PUSH2 0x16EF JUMPI POP DUP3 PUSH20 0xFFFFFFFFFFFFFFFFFFFFFFFFFFFFFFFFFFFFFFFF AND DUP5 PUSH20 0xFFFFFFFFFFFFFFFFFFFFFFFFFFFFFFFFFFFFFFFF AND EQ DUP1 PUSH2 0x16B0 JUMPI POP PUSH2 0x16AF DUP5 DUP5 PUSH2 0x854 JUMP JUMPDEST JUMPDEST DUP1 PUSH2 0x16EE JUMPI POP DUP3 PUSH20 0xFFFFFFFFFFFFFFFFFFFFFFFFFFFFFFFFFFFFFFFF AND PUSH2 0x16D6 DUP4 PUSH2 0xA6A JUMP JUMPDEST PUSH20 0xFFFFFFFFFFFFFFFFFFFFFFFFFFFFFFFFFFFFFFFF AND EQ JUMPDEST JUMPDEST SWAP1 POP SWAP4 SWAP3 POP POP POP JUMP JUMPDEST PUSH0 PUSH20 0xFFFFFFFFFFFFFFFFFFFFFFFFFFFFFFFFFFFFFFFF AND DUP3 PUSH20 0xFFFFFFFFFFFFFFFFFFFFFFFFFFFFFFFFFFFFFFFF AND SUB PUSH2 0x1768 JUMPI PUSH0 PUSH1 0x40 MLOAD PUSH32 0x64A0AE9200000000000000000000000000000000000000000000000000000000 DUP2 MSTORE PUSH1 0x4 ADD PUSH2 0x175F SWAP2 SWAP1 PUSH2 0x19DC JUMP JUMPDEST PUSH1 0x40 MLOAD DUP1 SWAP2 SUB SWAP1 REVERT JUMPDEST PUSH0 PUSH2 0x1774 DUP4 DUP4 PUSH0 PUSH2 0xABC JUMP JUMPDEST SWAP1 POP PUSH0 PUSH20 0xFFFFFFFFFFFFFFFFFFFFFFFFFFFFFFFFFFFFFFFF AND DUP2 PUSH20 0xFFFFFFFFFFFFFFFFFFFFFFFFFFFFFFFFFFFFFFFF AND EQ PUSH2 0x17E6 JUMPI PUSH0 PUSH1 0x40 MLOAD PUSH32 0x73C6AC6E00000000000000000000000000000000000000000000000000000000 DUP2 MSTORE PUSH1 0x4 ADD PUSH2 0x17DD SWAP2 SWAP1 PUSH2 0x19DC JUMP JUMPDEST PUSH1 0x40 MLOAD DUP1 SWAP2 SUB SWAP1 REVERT JUMPDEST POP POP POP JUMP JUMPDEST PUSH0 PUSH1 0x40 MLOAD SWAP1 POP SWAP1 JUMP JUMPDEST PUSH0 DUP1 REVERT JUMPDEST PUSH0 DUP1 REVERT JUMPDEST PUSH0 PUSH32 0xFFFFFFFF00000000000000000000000000000000000000000000000000000000 DUP3 AND SWAP1 POP SWAP2 SWAP1 POP JUMP JUMPDEST PUSH2 0x1830 DUP2 PUSH2 0x17FC JUMP JUMPDEST DUP2 EQ PUSH2 0x183A JUMPI PUSH0 DUP1 REVERT JUMPDEST POP JUMP JUMPDEST PUSH0 DUP2 CALLDATALOAD SWAP1 POP PUSH2 0x184B DUP2 PUSH2 0x1827 JUMP JUMPDEST SWAP3 SWAP2 POP POP JUMP JUMPDEST PUSH0 PUSH1 0x20 DUP3 DUP5 SUB SLT ISZERO PUSH2 0x1866 JUMPI PUSH2 0x1865 PUSH2 0x17F4 JUMP JUMPDEST JUMPDEST PUSH0 PUSH2 0x1873 DUP5 DUP3 DUP6 ADD PUSH2 0x183D JUMP JUMPDEST SWAP2 POP POP SWAP3 SWAP2 POP POP JUMP JUMPDEST PUSH0 DUP2 ISZERO ISZERO SWAP1 POP SWAP2 SWAP1 POP JUMP JUMPDEST PUSH2 0x1890 DUP2 PUSH2 0x187C JUMP JUMPDEST DUP3 MSTORE POP POP JUMP JUMPDEST PUSH0 PUSH1 0x20 DUP3 ADD SWAP1 POP PUSH2 0x18A9 PUSH0 DUP4 ADD DUP5 PUSH2 0x1887 JUMP JUMPDEST SWAP3 SWAP2 POP POP JUMP JUMPDEST PUSH0 DUP2 MLOAD SWAP1 POP SWAP2 SWAP1 POP JUMP JUMPDEST PUSH0 DUP3 DUP3 MSTORE PUSH1 0x20 DUP3 ADD SWAP1 POP SWAP3 SWAP2 POP POP JUMP JUMPDEST DUP3 DUP2 DUP4 MCOPY PUSH0 DUP4 DUP4 ADD MSTORE POP POP POP JUMP JUMPDEST PUSH0 PUSH1 0x1F NOT PUSH1 0x1F DUP4 ADD AND SWAP1 POP SWAP2 SWAP1 POP JUMP JUMPDEST PUSH0 PUSH2 0x18F1 DUP3 PUSH2 0x18AF JUMP JUMPDEST PUSH2 0x18FB DUP2 DUP6 PUSH2 0x18B9 JUMP JUMPDEST SWAP4 POP PUSH2 0x190B DUP2 DUP6 PUSH1 0x20 DUP7 ADD PUSH2 0x18C9 JUMP JUMPDEST PUSH2 0x1914 DUP2 PUSH2 0x18D7 JUMP JUMPDEST DUP5 ADD SWAP2 POP POP SWAP3 SWAP2 POP POP JUMP JUMPDEST PUSH0 PUSH1 0x20 DUP3 ADD SWAP1 POP DUP2 DUP2 SUB PUSH0 DUP4 ADD MSTORE PUSH2 0x1937 DUP2 DUP5 PUSH2 0x18E7 JUMP JUMPDEST SWAP1 POP SWAP3 SWAP2 POP POP JUMP JUMPDEST PUSH0 DUP2 SWAP1 POP SWAP2 SWAP1 POP JUMP JUMPDEST PUSH2 0x1951 DUP2 PUSH2 0x193F JUMP JUMPDEST DUP2 EQ PUSH2 0x195B JUMPI PUSH0 DUP1 REVERT JUMPDEST POP JUMP JUMPDEST PUSH0 DUP2 CALLDATALOAD SWAP1 POP PUSH2 0x196C DUP2 PUSH2 0x1948 JUMP JUMPDEST SWAP3 SWAP2 POP POP JUMP JUMPDEST PUSH0 PUSH1 0x20 DUP3 DUP5 SUB SLT ISZERO PUSH2 0x1987 JUMPI PUSH2 0x1986 PUSH2 0x17F4 JUMP JUMPDEST JUMPDEST PUSH0 PUSH2 0x1994 DUP5 DUP3 DUP6 ADD PUSH2 0x195E JUMP JUMPDEST SWAP2 POP POP SWAP3 SWAP2 POP POP JUMP JUMPDEST PUSH0 PUSH20 0xFFFFFFFFFFFFFFFFFFFFFFFFFFFFFFFFFFFFFFFF DUP3 AND SWAP1 POP SWAP2 SWAP1 POP JUMP JUMPDEST PUSH0 PUSH2 0x19C6 DUP3 PUSH2 0x199D JUMP JUMPDEST SWAP1 POP SWAP2 SWAP1 POP JUMP JUMPDEST PUSH2 0x19D6 DUP2 PUSH2 0x19BC JUMP JUMPDEST DUP3 MSTORE POP POP JUMP JUMPDEST PUSH0 PUSH1 0x20 DUP3 ADD SWAP1 POP PUSH2 0x19EF PUSH0 DUP4 ADD DUP5 PUSH2 0x19CD JUMP JUMPDEST SWAP3 SWAP2 POP POP JUMP JUMPDEST PUSH2 0x19FE DUP2 PUSH2 0x19BC JUMP JUMPDEST DUP2 EQ PUSH2 0x1A08 JUMPI PUSH0 DUP1 REVERT JUMPDEST POP JUMP JUMPDEST PUSH0 DUP2 CALLDATALOAD SWAP1 POP PUSH2 0x1A19 DUP2 PUSH2 0x19F5 JUMP JUMPDEST SWAP3 SWAP2 POP POP JUMP JUMPDEST PUSH0 DUP1 PUSH1 0x40 DUP4 DUP6 SUB SLT ISZERO PUSH2 0x1A35 JUMPI PUSH2 0x1A34 PUSH2 0x17F4 JUMP JUMPDEST JUMPDEST PUSH0 PUSH2 0x1A42 DUP6 DUP3 DUP7 ADD PUSH2 0x1A0B JUMP JUMPDEST SWAP3 POP POP PUSH1 0x20 PUSH2 0x1A53 DUP6 DUP3 DUP7 ADD PUSH2 0x195E JUMP JUMPDEST SWAP2 POP POP SWAP3 POP SWAP3 SWAP1 POP JUMP JUMPDEST PUSH0 DUP1 PUSH0 PUSH1 0x60 DUP5 DUP7 SUB SLT ISZERO PUSH2 0x1A74 JUMPI PUSH2 0x1A73 PUSH2 0x17F4 JUMP JUMPDEST JUMPDEST PUSH0 PUSH2 0x1A81 DUP7 DUP3 DUP8 ADD PUSH2 0x1A0B JUMP JUMPDEST SWAP4 POP POP PUSH1 0x20 PUSH2 0x1A92 DUP7 DUP3 DUP8 ADD PUSH2 0x1A0B JUMP JUMPDEST SWAP3 POP POP PUSH1 0x40 PUSH2 0x1AA3 DUP7 DUP3 DUP8 ADD PUSH2 0x195E JUMP JUMPDEST SWAP2 POP POP SWAP3 POP SWAP3 POP SWAP3 JUMP JUMPDEST PUSH0 DUP1 REVERT JUMPDEST PUSH0 DUP1 REVERT JUMPDEST PUSH32 0x4E487B7100000000000000000000000000000000000000000000000000000000 PUSH0 MSTORE PUSH1 0x41 PUSH1 0x4 MSTORE PUSH1 0x24 PUSH0 REVERT JUMPDEST PUSH2 0x1AEB DUP3 PUSH2 0x18D7 JUMP JUMPDEST DUP2 ADD DUP2 DUP2 LT PUSH8 0xFFFFFFFFFFFFFFFF DUP3 GT OR ISZERO PUSH2 0x1B0A JUMPI PUSH2 0x1B09 PUSH2 0x1AB5 JUMP JUMPDEST JUMPDEST DUP1 PUSH1 0x40 MSTORE POP POP POP JUMP JUMPDEST PUSH0 PUSH2 0x1B1C PUSH2 0x17EB JUMP JUMPDEST SWAP1 POP PUSH2 0x1B28 DUP3 DUP3 PUSH2 0x1AE2 JUMP JUMPDEST SWAP2 SWAP1 POP JUMP JUMPDEST PUSH0 PUSH8 0xFFFFFFFFFFFFFFFF DUP3 GT ISZERO PUSH2 0x1B47 JUMPI PUSH2 0x1B46 PUSH2 0x1AB5 JUMP JUMPDEST JUMPDEST PUSH2 0x1B50 DUP3 PUSH2 0x18D7 JUMP JUMPDEST SWAP1 POP PUSH1 0x20 DUP2 ADD SWAP1 POP SWAP2 SWAP1 POP JUMP JUMPDEST DUP3 DUP2 DUP4 CALLDATACOPY PUSH0 DUP4 DUP4 ADD MSTORE POP POP POP JUMP JUMPDEST PUSH0 PUSH2 0x1B7D PUSH2 0x1B78 DUP5 PUSH2 0x1B2D JUMP JUMPDEST PUSH2 0x1B13 JUMP JUMPDEST SWAP1 POP DUP3 DUP2 MSTORE PUSH1 0x20 DUP2 ADD DUP5 DUP5 DUP5 ADD GT ISZERO PUSH2 0x1B99 JUMPI PUSH2 0x1B98 PUSH2 0x1AB1 JUMP JUMPDEST JUMPDEST PUSH2 0x1BA4 DUP5 DUP3 DUP6 PUSH2 0x1B5D JUMP JUMPDEST POP SWAP4 SWAP3 POP POP POP JUMP JUMPDEST PUSH0 DUP3 PUSH1 0x1F DUP4 ADD SLT PUSH2 0x1BC0 JUMPI PUSH2 0x1BBF PUSH2 0x1AAD JUMP JUMPDEST JUMPDEST DUP2 CALLDATALOAD PUSH2 0x1BD0 DUP5 DUP3 PUSH1 0x20 DUP7 ADD PUSH2 0x1B6B JUMP JUMPDEST SWAP2 POP POP SWAP3 SWAP2 POP POP JUMP JUMPDEST PUSH0 PUSH1 0x20 DUP3 DUP5 SUB SLT ISZERO PUSH2 0x1BEE JUMPI PUSH2 0x1BED PUSH2 0x17F4 JUMP JUMPDEST JUMPDEST PUSH0 DUP3 ADD CALLDATALOAD PUSH8 0xFFFFFFFFFFFFFFFF DUP2 GT ISZERO PUSH2 0x1C0B JUMPI PUSH2 0x1C0A PUSH2 0x17F8 JUMP JUMPDEST JUMPDEST PUSH2 0x1C17 DUP5 DUP3 DUP6 ADD PUSH2 0x1BAC JUMP JUMPDEST SWAP2 POP POP SWAP3 SWAP2 POP POP JUMP JUMPDEST PUSH0 PUSH1 0x20 DUP3 DUP5 SUB SLT ISZERO PUSH2 0x1C35 JUMPI PUSH2 0x1C34 PUSH2 0x17F4 JUMP JUMPDEST JUMPDEST PUSH0 PUSH2 0x1C42 DUP5 DUP3 DUP6 ADD PUSH2 0x1A0B JUMP JUMPDEST SWAP2 POP POP SWAP3 SWAP2 POP POP JUMP JUMPDEST PUSH2 0x1C54 DUP2 PUSH2 0x193F JUMP JUMPDEST DUP3 MSTORE POP POP JUMP JUMPDEST PUSH0 PUSH1 0x20 DUP3 ADD SWAP1 POP PUSH2 0x1C6D PUSH0 DUP4 ADD DUP5 PUSH2 0x1C4B JUMP JUMPDEST SWAP3 SWAP2 POP POP JUMP JUMPDEST PUSH2 0x1C7C DUP2 PUSH2 0x187C JUMP JUMPDEST DUP2 EQ PUSH2 0x1C86 JUMPI PUSH0 DUP1 REVERT JUMPDEST POP JUMP JUMPDEST PUSH0 DUP2 CALLDATALOAD SWAP1 POP PUSH2 0x1C97 DUP2 PUSH2 0x1C73 JUMP JUMPDEST SWAP3 SWAP2 POP POP JUMP JUMPDEST PUSH0 DUP1 PUSH1 0x40 DUP4 DUP6 SUB SLT ISZERO PUSH2 0x1CB3 JUMPI PUSH2 0x1CB2 PUSH2 0x17F4 JUMP JUMPDEST JUMPDEST PUSH0 PUSH2 0x1CC0 DUP6 DUP3 DUP7 ADD PUSH2 0x1A0B JUMP JUMPDEST SWAP3 POP POP PUSH1 0x20 PUSH2 0x1CD1 DUP6 DUP3 DUP7 ADD PUSH2 0x1C89 JUMP JUMPDEST SWAP2 POP POP SWAP3 POP SWAP3 SWAP1 POP JUMP JUMPDEST PUSH0 PUSH8 0xFFFFFFFFFFFFFFFF DUP3 GT ISZERO PUSH2 0x1CF5 JUMPI PUSH2 0x1CF4 PUSH2 0x1AB5 JUMP JUMPDEST JUMPDEST PUSH2 0x1CFE DUP3 PUSH2 0x18D7 JUMP JUMPDEST SWAP1 POP PUSH1 0x20 DUP2 ADD SWAP1 POP SWAP2 SWAP1 POP JUMP JUMPDEST PUSH0 PUSH2 0x1D1D PUSH2 0x1D18 DUP5 PUSH2 0x1CDB JUMP JUMPDEST PUSH2 0x1B13 JUMP JUMPDEST SWAP1 POP DUP3 DUP2 MSTORE PUSH1 0x20 DUP2 ADD DUP5 DUP5 DUP5 ADD GT ISZERO PUSH2 0x1D39 JUMPI PUSH2 0x1D38 PUSH2 0x1AB1 JUMP JUMPDEST JUMPDEST PUSH2 0x1D44 DUP5 DUP3 DUP6 PUSH2 0x1B5D JUMP JUMPDEST POP SWAP4 SWAP3 POP POP POP JUMP JUMPDEST PUSH0 DUP3 PUSH1 0x1F DUP4 ADD SLT PUSH2 0x1D60 JUMPI PUSH2 0x1D5F PUSH2 0x1AAD JUMP JUMPDEST JUMPDEST DUP2 CALLDATALOAD PUSH2 0x1D70 DUP5 DUP3 PUSH1 0x20 DUP7 ADD PUSH2 0x1D0B JUMP JUMPDEST SWAP2 POP POP SWAP3 SWAP2 POP POP JUMP JUMPDEST PUSH0 DUP1 PUSH0 DUP1 PUSH1 0x80 DUP6 DUP8 SUB SLT ISZERO PUSH2 0x1D91 JUMPI PUSH2 0x1D90 PUSH2 0x17F4 JUMP JUMPDEST JUMPDEST PUSH0 PUSH2 0x1D9E DUP8 DUP3 DUP9 ADD PUSH2 0x1A0B JUMP JUMPDEST SWAP5 POP POP PUSH1 0x20 PUSH2 0x1DAF DUP8 DUP3 DUP9 ADD PUSH2 0x1A0B JUMP JUMPDEST SWAP4 POP POP PUSH1 0x40 PUSH2 0x1DC0 DUP8 DUP3 DUP9 ADD PUSH2 0x195E JUMP JUMPDEST SWAP3 POP POP PUSH1 0x60 DUP6 ADD CALLDATALOAD PUSH8 0xFFFFFFFFFFFFFFFF DUP2 GT ISZERO PUSH2 0x1DE1 JUMPI PUSH2 0x1DE0 PUSH2 0x17F8 JUMP JUMPDEST JUMPDEST PUSH2 0x1DED DUP8 DUP3 DUP9 ADD PUSH2 0x1D4C JUMP JUMPDEST SWAP2 POP POP SWAP3 SWAP6 SWAP2 SWAP5 POP SWAP3 POP JUMP JUMPDEST PUSH0 DUP1 PUSH1 0x40 DUP4 DUP6 SUB SLT ISZERO PUSH2 0x1E0F JUMPI PUSH2 0x1E0E PUSH2 0x17F4 JUMP JUMPDEST JUMPDEST PUSH0 PUSH2 0x1E1C DUP6 DUP3 DUP7 ADD PUSH2 0x1A0B JUMP JUMPDEST SWAP3 POP POP PUSH1 0x20 PUSH2 0x1E2D DUP6 DUP3 DUP7 ADD PUSH2 0x1A0B JUMP JUMPDEST SWAP2 POP POP SWAP3 POP SWAP3 SWAP1 POP JUMP JUMPDEST PUSH32 0x4E487B7100000000000000000000000000000000000000000000000000000000 PUSH0 MSTORE PUSH1 0x22 PUSH1 0x4 MSTORE PUSH1 0x24 PUSH0 REVERT JUMPDEST PUSH0 PUSH1 0x2 DUP3 DIV SWAP1 POP PUSH1 0x1 DUP3 AND DUP1 PUSH2 0x1E7B JUMPI PUSH1 0x7F DUP3 AND SWAP2 POP JUMPDEST PUSH1 0x20 DUP3 LT DUP2 SUB PUSH2 0x1E8E JUMPI PUSH2 0x1E8D PUSH2 0x1E37 JUMP JUMPDEST JUMPDEST POP SWAP2 SWAP1 POP JUMP JUMPDEST PUSH0 PUSH1 0x60 DUP3 ADD SWAP1 POP PUSH2 0x1EA7 PUSH0 DUP4 ADD DUP7 PUSH2 0x19CD JUMP JUMPDEST PUSH2 0x1EB4 PUSH1 0x20 DUP4 ADD DUP6 PUSH2 0x1C4B JUMP JUMPDEST PUSH2 0x1EC1 PUSH1 0x40 DUP4 ADD DUP5 PUSH2 0x19CD JUMP JUMPDEST SWAP5 SWAP4 POP POP POP POP JUMP JUMPDEST PUSH0 DUP2 SWAP1 POP DUP2 PUSH0 MSTORE PUSH1 0x20 PUSH0 KECCAK256 SWAP1 POP SWAP2 SWAP1 POP JUMP JUMPDEST PUSH0 PUSH1 0x20 PUSH1 0x1F DUP4 ADD DIV SWAP1 POP SWAP2 SWAP1 POP JUMP JUMPDEST PUSH0 DUP3 DUP3 SHL SWAP1 POP SWAP3 SWAP2 POP POP JUMP JUMPDEST PUSH0 PUSH1 0x8 DUP4 MUL PUSH2 0x1F25 PUSH32 0xFFFFFFFFFFFFFFFFFFFFFFFFFFFFFFFFFFFFFFFFFFFFFFFFFFFFFFFFFFFFFFFF DUP3 PUSH2 0x1EEA JUMP JUMPDEST PUSH2 0x1F2F DUP7 DUP4 PUSH2 0x1EEA JUMP JUMPDEST SWAP6 POP DUP1 NOT DUP5 AND SWAP4 POP DUP1 DUP7 AND DUP5 OR SWAP3 POP POP POP SWAP4 SWAP3 POP POP POP JUMP JUMPDEST PUSH0 DUP2 SWAP1 POP SWAP2 SWAP1 POP JUMP JUMPDEST PUSH0 PUSH2 0x1F6A PUSH2 0x1F65 PUSH2 0x1F60 DUP5 PUSH2 0x193F JUMP JUMPDEST PUSH2 0x1F47 JUMP JUMPDEST PUSH2 0x193F JUMP JUMPDEST SWAP1 POP SWAP2 SWAP1 POP JUMP JUMPDEST PUSH0 DUP2 SWAP1 POP SWAP2 SWAP1 POP JUMP JUMPDEST PUSH2 0x1F83 DUP4 PUSH2 0x1F50 JUMP JUMPDEST PUSH2 0x1F97 PUSH2 0x1F8F DUP3 PUSH2 0x1F71 JUMP JUMPDEST DUP5 DUP5 SLOAD PUSH2 0x1EF6 JUMP JUMPDEST DUP3 SSTORE POP POP POP POP JUMP JUMPDEST PUSH0 SWAP1 JUMP JUMPDEST PUSH2 0x1FAB PUSH2 0x1F9F JUMP JUMPDEST PUSH2 0x1FB6 DUP2 DUP5 DUP5 PUSH2 0x1F7A JUMP JUMPDEST POP POP POP JUMP JUMPDEST JUMPDEST DUP2 DUP2 LT ISZERO PUSH2 0x1FD9 JUMPI PUSH2 0x1FCE PUSH0 DUP3 PUSH2 0x1FA3 JUMP JUMPDEST PUSH1 0x1 DUP2 ADD SWAP1 POP PUSH2 0x1FBC JUMP JUMPDEST POP POP JUMP JUMPDEST PUSH1 0x1F DUP3 GT ISZERO PUSH2 0x201E JUMPI PUSH2 0x1FEF DUP2 PUSH2 0x1EC9 JUMP JUMPDEST PUSH2 0x1FF8 DUP5 PUSH2 0x1EDB JUMP JUMPDEST DUP2 ADD PUSH1 0x20 DUP6 LT ISZERO PUSH2 0x2007 JUMPI DUP2 SWAP1 POP JUMPDEST PUSH2 0x201B PUSH2 0x2013 DUP6 PUSH2 0x1EDB JUMP JUMPDEST DUP4 ADD DUP3 PUSH2 0x1FBB JUMP JUMPDEST POP POP JUMPDEST POP POP POP JUMP JUMPDEST PUSH0 DUP3 DUP3 SHR SWAP1 POP SWAP3 SWAP2 POP POP JUMP JUMPDEST PUSH0 PUSH2 0x203E PUSH0 NOT DUP5 PUSH1 0x8 MUL PUSH2 0x2023 JUMP JUMPDEST NOT DUP1 DUP4 AND SWAP2 POP POP SWAP3 SWAP2 POP POP JUMP JUMPDEST PUSH0 PUSH2 0x2056 DUP4 DUP4 PUSH2 0x202F JUMP JUMPDEST SWAP2 POP DUP3 PUSH1 0x2 MUL DUP3 OR SWAP1 POP SWAP3 SWAP2 POP POP JUMP JUMPDEST PUSH2 0x206F DUP3 PUSH2 0x18AF JUMP JUMPDEST PUSH8 0xFFFFFFFFFFFFFFFF DUP2 GT ISZERO PUSH2 0x2088 JUMPI PUSH2 0x2087 PUSH2 0x1AB5 JUMP JUMPDEST JUMPDEST PUSH2 0x2092 DUP3 SLOAD PUSH2 0x1E64 JUMP JUMPDEST PUSH2 0x209D DUP3 DUP3 DUP6 PUSH2 0x1FDD JUMP JUMPDEST PUSH0 PUSH1 0x20 SWAP1 POP PUSH1 0x1F DUP4 GT PUSH1 0x1 DUP2 EQ PUSH2 0x20CE JUMPI PUSH0 DUP5 ISZERO PUSH2 0x20BC JUMPI DUP3 DUP8 ADD MLOAD SWAP1 POP JUMPDEST PUSH2 0x20C6 DUP6 DUP3 PUSH2 0x204B JUMP JUMPDEST DUP7 SSTORE POP PUSH2 0x212D JUMP JUMPDEST PUSH1 0x1F NOT DUP5 AND PUSH2 0x20DC DUP7 PUSH2 0x1EC9 JUMP JUMPDEST PUSH0 JUMPDEST DUP3 DUP2 LT ISZERO PUSH2 0x2103 JUMPI DUP5 DUP10 ADD MLOAD DUP3 SSTORE PUSH1 0x1 DUP3 ADD SWAP2 POP PUSH1 0x20 DUP6 ADD SWAP5 POP PUSH1 0x20 DUP2 ADD SWAP1 POP PUSH2 0x20DE JUMP JUMPDEST DUP7 DUP4 LT ISZERO PUSH2 0x2120 JUMPI DUP5 DUP10 ADD MLOAD PUSH2 0x211C PUSH1 0x1F DUP10 AND DUP3 PUSH2 0x202F JUMP JUMPDEST DUP4 SSTORE POP JUMPDEST PUSH1 0x1 PUSH1 0x2 DUP9 MUL ADD DUP9 SSTORE POP POP POP JUMPDEST POP POP POP POP POP POP JUMP JUMPDEST PUSH0 DUP2 SWAP1 POP SWAP3 SWAP2 POP POP JUMP JUMPDEST PUSH0 DUP2 SLOAD PUSH2 0x214B DUP2 PUSH2 0x1E64 JUMP JUMPDEST PUSH2 0x2155 DUP2 DUP7 PUSH2 0x2135 JUMP JUMPDEST SWAP5 POP PUSH1 0x1 DUP3 AND PUSH0 DUP2 EQ PUSH2 0x216F JUMPI PUSH1 0x1 DUP2 EQ PUSH2 0x2184 JUMPI PUSH2 0x21B6 JUMP JUMPDEST PUSH1 0xFF NOT DUP4 AND DUP7 MSTORE DUP2 ISZERO ISZERO DUP3 MUL DUP7 ADD SWAP4 POP PUSH2 0x21B6 JUMP JUMPDEST PUSH2 0x218D DUP6 PUSH2 0x1EC9 JUMP JUMPDEST PUSH0 JUMPDEST DUP4 DUP2 LT ISZERO PUSH2 0x21AE JUMPI DUP2 SLOAD DUP2 DUP10 ADD MSTORE PUSH1 0x1 DUP3 ADD SWAP2 POP PUSH1 0x20 DUP2 ADD SWAP1 POP PUSH2 0x218F JUMP JUMPDEST DUP4 DUP9 ADD SWAP6 POP POP POP JUMPDEST POP POP POP SWAP3 SWAP2 POP POP JUMP JUMPDEST PUSH0 PUSH2 0x21C9 DUP3 PUSH2 0x18AF JUMP JUMPDEST PUSH2 0x21D3 DUP2 DUP6 PUSH2 0x2135 JUMP JUMPDEST SWAP4 POP PUSH2 0x21E3 DUP2 DUP6 PUSH1 0x20 DUP7 ADD PUSH2 0x18C9 JUMP JUMPDEST DUP1 DUP5 ADD SWAP2 POP POP SWAP3 SWAP2 POP POP JUMP JUMPDEST PUSH0 PUSH2 0x21FA DUP3 DUP6 PUSH2 0x213F JUMP JUMPDEST SWAP2 POP PUSH2 0x2206 DUP3 DUP5 PUSH2 0x21BF JUMP JUMPDEST SWAP2 POP DUP2 SWAP1 POP SWAP4 SWAP3 POP POP POP JUMP JUMPDEST PUSH0 DUP2 MLOAD SWAP1 POP SWAP2 SWAP1 POP JUMP JUMPDEST PUSH0 DUP3 DUP3 MSTORE PUSH1 0x20 DUP3 ADD SWAP1 POP SWAP3 SWAP2 POP POP JUMP JUMPDEST PUSH0 PUSH2 0x2236 DUP3 PUSH2 0x2212 JUMP JUMPDEST PUSH2 0x2240 DUP2 DUP6 PUSH2 0x221C JUMP JUMPDEST SWAP4 POP PUSH2 0x2250 DUP2 DUP6 PUSH1 0x20 DUP7 ADD PUSH2 0x18C9 JUMP JUMPDEST PUSH2 0x2259 DUP2 PUSH2 0x18D7 JUMP JUMPDEST DUP5 ADD SWAP2 POP POP SWAP3 SWAP2 POP POP JUMP JUMPDEST PUSH0 PUSH1 0x80 DUP3 ADD SWAP1 POP PUSH2 0x2277 PUSH0 DUP4 ADD DUP8 PUSH2 0x19CD JUMP JUMPDEST PUSH2 0x2284 PUSH1 0x20 DUP4 ADD DUP7 PUSH2 0x19CD JUMP JUMPDEST PUSH2 0x2291 PUSH1 0x40 DUP4 ADD DUP6 PUSH2 0x1C4B JUMP JUMPDEST DUP2 DUP2 SUB PUSH1 0x60 DUP4 ADD MSTORE PUSH2 0x22A3 DUP2 DUP5 PUSH2 0x222C JUMP JUMPDEST SWAP1 POP SWAP6 SWAP5 POP POP POP POP POP JUMP JUMPDEST PUSH0 DUP2 MLOAD SWAP1 POP PUSH2 0x22BC DUP2 PUSH2 0x1827 JUMP JUMPDEST SWAP3 SWAP2 POP POP JUMP JUMPDEST PUSH0 PUSH1 0x20 DUP3 DUP5 SUB SLT ISZERO PUSH2 0x22D7 JUMPI PUSH2 0x22D6 PUSH2 0x17F4 JUMP JUMPDEST JUMPDEST PUSH0 PUSH2 0x22E4 DUP5 DUP3 DUP6 ADD PUSH2 0x22AE JUMP JUMPDEST SWAP2 POP POP SWAP3 SWAP2 POP POP JUMP JUMPDEST PUSH32 0x4E487B7100000000000000000000000000000000000000000000000000000000 PUSH0 MSTORE PUSH1 0x12 PUSH1 0x4 MSTORE PUSH1 0x24 PUSH0 REVERT JUMPDEST PUSH0 PUSH1 0x40 DUP3 ADD SWAP1 POP PUSH2 0x232D PUSH0 DUP4 ADD DUP6 PUSH2 0x19CD JUMP JUMPDEST PUSH2 0x233A PUSH1 0x20 DUP4 ADD DUP5 PUSH2 0x1C4B JUMP JUMPDEST SWAP4 SWAP3 POP POP POP JUMP INVALID LOG2 PUSH5 0x6970667358 0x22 SLT KECCAK256 DUP12 0xBA 0xEA 0xC5 0xE6 NUMBER PUSH20 0x7F4476F35034628BD32319E5745BACB6B031FEF7 0xA9 SWAP5 DUP2 0x1F 0xCB PUSH5 0x736F6C6343 STOP ADDMOD BYTE STOP CALLER "
				},
				"gasEstimates": {
					"creation": {
						"codeDepositCost": "1815800",
						"executionCost": "infinite",
						"totalCost": "infinite"
					},
					"external": {
						"approve(address,uint256)": "infinite",
						"balanceOf(address)": "infinite",
						"createNft(uint256)": "infinite",
						"getApproved(uint256)": "infinite",
						"isApprovedForAll(address,address)": "infinite",
						"name()": "infinite",
						"owner()": "2560",
						"ownerOf(uint256)": "infinite",
						"renounceOwnership()": "infinite",
						"safeTransferFrom(address,address,uint256)": "infinite",
						"safeTransferFrom(address,address,uint256,bytes)": "infinite",
						"setApprovalForAll(address,bool)": "infinite",
						"setTokenUriPrefix(string)": "infinite",
						"supportsInterface(bytes4)": "787",
						"symbol()": "infinite",
						"tokenURI(uint256)": "infinite",
						"transferFrom(address,address,uint256)": "infinite",
						"transferOwnership(address)": "infinite"
					}
				},
				"methodIdentifiers": {
					"approve(address,uint256)": "095ea7b3",
					"balanceOf(address)": "70a08231",
					"createNft(uint256)": "f6459d47",
					"getApproved(uint256)": "081812fc",
					"isApprovedForAll(address,address)": "e985e9c5",
					"name()": "06fdde03",
					"owner()": "8da5cb5b",
					"ownerOf(uint256)": "6352211e",
					"renounceOwnership()": "715018a6",
					"safeTransferFrom(address,address,uint256)": "42842e0e",
					"safeTransferFrom(address,address,uint256,bytes)": "b88d4fde",
					"setApprovalForAll(address,bool)": "a22cb465",
					"setTokenUriPrefix(string)": "532e4849",
					"supportsInterface(bytes4)": "01ffc9a7",
					"symbol()": "95d89b41",
					"tokenURI(uint256)": "c87b56dd",
					"transferFrom(address,address,uint256)": "23b872dd",
					"transferOwnership(address)": "f2fde38b"
				}
			},
			"storageLayout": {
				"storage": [
					{
						"astId": 8,
						"contract": "contracts/MyNft.sol:MyNFT",
						"label": "_owner",
						"offset": 0,
						"slot": "0",
						"type": "t_address"
					},
					{
						"astId": 317,
						"contract": "contracts/MyNft.sol:MyNFT",
						"label": "_name",
						"offset": 0,
						"slot": "1",
						"type": "t_string_storage"
					},
					{
						"astId": 319,
						"contract": "contracts/MyNft.sol:MyNFT",
						"label": "_symbol",
						"offset": 0,
						"slot": "2",
						"type": "t_string_storage"
					},
					{
						"astId": 323,
						"contract": "contracts/MyNft.sol:MyNFT",
						"label": "_owners",
						"offset": 0,
						"slot": "3",
						"type": "t_mapping(t_uint256,t_address)"
					},
					{
						"astId": 327,
						"contract": "contracts/MyNft.sol:MyNFT",
						"label": "_balances",
						"offset": 0,
						"slot": "4",
						"type": "t_mapping(t_address,t_uint256)"
					},
					{
						"astId": 331,
						"contract": "contracts/MyNft.sol:MyNFT",
						"label": "_tokenApprovals",
						"offset": 0,
						"slot": "5",
						"type": "t_mapping(t_uint256,t_address)"
					},
					{
						"astId": 337,
						"contract": "contracts/MyNft.sol:MyNFT",
						"label": "_operatorApprovals",
						"offset": 0,
						"slot": "6",
						"type": "t_mapping(t_address,t_mapping(t_address,t_bool))"
					},
					{
						"astId": 2950,
						"contract": "contracts/MyNft.sol:MyNFT",
						"label": "tokenUriPreFix",
						"offset": 0,
						"slot": "7",
						"type": "t_string_storage"
					}
				],
				"types": {
					"t_address": {
						"encoding": "inplace",
						"label": "address",
						"numberOfBytes": "20"
					},
					"t_bool": {
						"encoding": "inplace",
						"label": "bool",
						"numberOfBytes": "1"
					},
					"t_mapping(t_address,t_bool)": {
						"encoding": "mapping",
						"key": "t_address",
						"label": "mapping(address => bool)",
						"numberOfBytes": "32",
						"value": "t_bool"
					},
					"t_mapping(t_address,t_mapping(t_address,t_bool))": {
						"encoding": "mapping",
						"key": "t_address",
						"label": "mapping(address => mapping(address => bool))",
						"numberOfBytes": "32",
						"value": "t_mapping(t_address,t_bool)"
					},
					"t_mapping(t_address,t_uint256)": {
						"encoding": "mapping",
						"key": "t_address",
						"label": "mapping(address => uint256)",
						"numberOfBytes": "32",
						"value": "t_uint256"
					},
					"t_mapping(t_uint256,t_address)": {
						"encoding": "mapping",
						"key": "t_uint256",
						"label": "mapping(uint256 => address)",
						"numberOfBytes": "32",
						"value": "t_address"
					},
					"t_string_storage": {
						"encoding": "bytes",
						"label": "string",
						"numberOfBytes": "32"
					},
					"t_uint256": {
						"encoding": "inplace",
						"label": "uint256",
						"numberOfBytes": "32"
					}
				}
			},
			"userdoc": {
				"kind": "user",
				"methods": {},
				"version": 1
			}
		}
	}
}