{
	"contracts/MyNftMarket.sol": {
		"MyNftMarket": {
			"abi": [
				{
					"inputs": [
						{
							"internalType": "address",
							"name": "hulioTokenAddr",
							"type": "address"
						}
					],
					"stateMutability": "nonpayable",
					"type": "constructor"
				},
				{
					"inputs": [
						{
							"internalType": "bytes",
							"name": "data",
							"type": "bytes"
						}
					],
					"name": "bytesToAddrAndUint",
					"outputs": [
						{
							"internalType": "address",
							"name": "",
							"type": "address"
						},
						{
							"internalType": "uint256",
							"name": "",
							"type": "uint256"
						}
					],
					"stateMutability": "pure",
					"type": "function"
				},
				{
					"inputs": [
						{
							"internalType": "uint256",
							"name": "",
							"type": "uint256"
						}
					],
					"name": "market",
					"outputs": [
						{
							"internalType": "address",
							"name": "nft",
							"type": "address"
						},
						{
							"internalType": "uint256",
							"name": "nftId",
							"type": "uint256"
						},
						{
							"internalType": "uint256",
							"name": "priceInHulioToken",
							"type": "uint256"
						}
					],
					"stateMutability": "view",
					"type": "function"
				},
				{
					"inputs": [
						{
							"internalType": "address",
							"name": "",
							"type": "address"
						},
						{
							"internalType": "uint256",
							"name": "",
							"type": "uint256"
						}
					],
					"name": "nftInfoToMarketId",
					"outputs": [
						{
							"internalType": "uint256",
							"name": "",
							"type": "uint256"
						}
					],
					"stateMutability": "view",
					"type": "function"
				},
				{
					"inputs": [
						{
							"internalType": "address",
							"name": "",
							"type": "address"
						},
						{
							"internalType": "uint256",
							"name": "",
							"type": "uint256"
						}
					],
					"name": "nftInfoToSalerAccount",
					"outputs": [
						{
							"internalType": "address",
							"name": "",
							"type": "address"
						}
					],
					"stateMutability": "view",
					"type": "function"
				},
				{
					"inputs": [
						{
							"internalType": "address",
							"name": "operator",
							"type": "address"
						},
						{
							"internalType": "address",
							"name": "from",
							"type": "address"
						},
						{
							"internalType": "uint256",
							"name": "tokenId",
							"type": "uint256"
						},
						{
							"internalType": "bytes",
							"name": "data",
							"type": "bytes"
						}
					],
					"name": "onERC721Received",
					"outputs": [
						{
							"internalType": "bytes4",
							"name": "",
							"type": "bytes4"
						}
					],
					"stateMutability": "nonpayable",
					"type": "function"
				},
				{
					"inputs": [
						{
							"internalType": "address",
							"name": "operator",
							"type": "address"
						},
						{
							"internalType": "address",
							"name": "from",
							"type": "address"
						},
						{
							"internalType": "uint256",
							"name": "amount",
							"type": "uint256"
						},
						{
							"internalType": "bytes",
							"name": "data",
							"type": "bytes"
						}
					],
					"name": "onTransferReceived",
					"outputs": [
						{
							"internalType": "bytes4",
							"name": "",
							"type": "bytes4"
						}
					],
					"stateMutability": "nonpayable",
					"type": "function"
				},
				{
					"inputs": [
						{
							"internalType": "address",
							"name": "nftAddr",
							"type": "address"
						},
						{
							"internalType": "uint256",
							"name": "nftId",
							"type": "uint256"
						}
					],
					"name": "unsale",
					"outputs": [],
					"stateMutability": "nonpayable",
					"type": "function"
				}
			],
			"devdoc": {
				"kind": "dev",
				"methods": {
					"onERC721Received(address,address,uint256,bytes)": {
						"details": "Whenever an {IERC721} `tokenId` token is transferred to this contract via {IERC721-safeTransferFrom} by `operator` from `from`, this function is called. It must return its Solidity selector to confirm the token transfer. If any other value is returned or the interface is not implemented by the recipient, the transfer will be reverted. The selector can be obtained in Solidity with `IERC721Receiver.onERC721Received.selector`."
					},
					"onTransferReceived(address,address,uint256,bytes)": {
						"details": "Any ERC1363 smart contract calls this function on the recipient after a `transfer` or a `transferFrom`. This function MAY throw to revert and reject the transfer. Return of other than the magic value MUST result in the transaction being reverted. Note: the token contract address is always the message sender.",
						"params": {
							"amount": "uint256 The amount of tokens transferred",
							"data": "bytes Additional data with no specified format",
							"from": "address The address which are token transferred from",
							"operator": "address The address which called `transferAndCall` or `transferFromAndCall` function"
						},
						"returns": {
							"_0": "`bytes4(keccak256(\"onTransferReceived(address,address,uint256,bytes)\"))` unless throwing"
						}
					}
				},
				"version": 1
			},
			"evm": {
				"assembly": "    /* \"contracts/MyNftMarket.sol\":311:4702  contract MyNftMarket is IERC721Receiver, IERC1363Receiver {... */\n  mstore(0x40, 0x80)\n    /* \"contracts/MyNftMarket.sol\":400:488  constructor(address hulioTokenAddr) {... */\n  callvalue\n  dup1\n  iszero\n  tag_1\n  jumpi\n  0x00\n  dup1\n  revert\ntag_1:\n  pop\n  mload(0x40)\n  sub(codesize, bytecodeSize)\n  dup1\n  bytecodeSize\n  dup4\n  codecopy\n  dup2\n  dup2\n  add\n  0x40\n  mstore\n  dup2\n  add\n  swap1\n  tag_2\n  swap2\n  swap1\n  tag_3\n  jump\t// in\ntag_2:\n    /* \"contracts/MyNftMarket.sol\":466:480  hulioTokenAddr */\n  dup1\n    /* \"contracts/MyNftMarket.sol\":446:456  hulioToken */\n  0x00\n  dup1\n    /* \"contracts/MyNftMarket.sol\":446:481  hulioToken = IERC20(hulioTokenAddr) */\n  0x0100\n  exp\n  dup2\n  sload\n  dup2\n  0xffffffffffffffffffffffffffffffffffffffff\n  mul\n  not\n  and\n  swap1\n  dup4\n  0xffffffffffffffffffffffffffffffffffffffff\n  and\n  mul\n  or\n  swap1\n  sstore\n  pop\n    /* \"contracts/MyNftMarket.sol\":400:488  constructor(address hulioTokenAddr) {... */\n  pop\n    /* \"contracts/MyNftMarket.sol\":311:4702  contract MyNftMarket is IERC721Receiver, IERC1363Receiver {... */\n  jump(tag_6)\n    /* \"#utility.yul\":88:205   */\ntag_8:\n    /* \"#utility.yul\":197:198   */\n  0x00\n    /* \"#utility.yul\":194:195   */\n  dup1\n    /* \"#utility.yul\":187:199   */\n  revert\n    /* \"#utility.yul\":334:460   */\ntag_10:\n    /* \"#utility.yul\":371:378   */\n  0x00\n    /* \"#utility.yul\":411:453   */\n  0xffffffffffffffffffffffffffffffffffffffff\n    /* \"#utility.yul\":404:409   */\n  dup3\n    /* \"#utility.yul\":400:454   */\n  and\n    /* \"#utility.yul\":389:454   */\n  swap1\n  pop\n    /* \"#utility.yul\":334:460   */\n  swap2\n  swap1\n  pop\n  jump\t// out\n    /* \"#utility.yul\":466:562   */\ntag_11:\n    /* \"#utility.yul\":503:510   */\n  0x00\n    /* \"#utility.yul\":532:556   */\n  tag_20\n    /* \"#utility.yul\":550:555   */\n  dup3\n    /* \"#utility.yul\":532:556   */\n  tag_10\n  jump\t// in\ntag_20:\n    /* \"#utility.yul\":521:556   */\n  swap1\n  pop\n    /* \"#utility.yul\":466:562   */\n  swap2\n  swap1\n  pop\n  jump\t// out\n    /* \"#utility.yul\":568:690   */\ntag_12:\n    /* \"#utility.yul\":641:665   */\n  tag_22\n    /* \"#utility.yul\":659:664   */\n  dup2\n    /* \"#utility.yul\":641:665   */\n  tag_11\n  jump\t// in\ntag_22:\n    /* \"#utility.yul\":634:639   */\n  dup2\n    /* \"#utility.yul\":631:666   */\n  eq\n    /* \"#utility.yul\":621:684   */\n  tag_23\n  jumpi\n    /* \"#utility.yul\":680:681   */\n  0x00\n    /* \"#utility.yul\":677:678   */\n  dup1\n    /* \"#utility.yul\":670:682   */\n  revert\n    /* \"#utility.yul\":621:684   */\ntag_23:\n    /* \"#utility.yul\":568:690   */\n  pop\n  jump\t// out\n    /* \"#utility.yul\":696:839   */\ntag_13:\n    /* \"#utility.yul\":753:758   */\n  0x00\n    /* \"#utility.yul\":784:790   */\n  dup2\n    /* \"#utility.yul\":778:791   */\n  mload\n    /* \"#utility.yul\":769:791   */\n  swap1\n  pop\n    /* \"#utility.yul\":800:833   */\n  tag_25\n    /* \"#utility.yul\":827:832   */\n  dup2\n    /* \"#utility.yul\":800:833   */\n  tag_12\n  jump\t// in\ntag_25:\n    /* \"#utility.yul\":696:839   */\n  swap3\n  swap2\n  pop\n  pop\n  jump\t// out\n    /* \"#utility.yul\":845:1196   */\ntag_3:\n    /* \"#utility.yul\":915:921   */\n  0x00\n    /* \"#utility.yul\":964:966   */\n  0x20\n    /* \"#utility.yul\":952:961   */\n  dup3\n    /* \"#utility.yul\":943:950   */\n  dup5\n    /* \"#utility.yul\":939:962   */\n  sub\n    /* \"#utility.yul\":935:967   */\n  slt\n    /* \"#utility.yul\":932:1051   */\n  iszero\n  tag_27\n  jumpi\n    /* \"#utility.yul\":970:1049   */\n  tag_28\n  tag_8\n  jump\t// in\ntag_28:\n    /* \"#utility.yul\":932:1051   */\ntag_27:\n    /* \"#utility.yul\":1090:1091   */\n  0x00\n    /* \"#utility.yul\":1115:1179   */\n  tag_29\n    /* \"#utility.yul\":1171:1178   */\n  dup5\n    /* \"#utility.yul\":1162:1168   */\n  dup3\n    /* \"#utility.yul\":1151:1160   */\n  dup6\n    /* \"#utility.yul\":1147:1169   */\n  add\n    /* \"#utility.yul\":1115:1179   */\n  tag_13\n  jump\t// in\ntag_29:\n    /* \"#utility.yul\":1105:1179   */\n  swap2\n  pop\n    /* \"#utility.yul\":1061:1189   */\n  pop\n    /* \"#utility.yul\":845:1196   */\n  swap3\n  swap2\n  pop\n  pop\n  jump\t// out\n    /* \"contracts/MyNftMarket.sol\":311:4702  contract MyNftMarket is IERC721Receiver, IERC1363Receiver {... */\ntag_6:\n  dataSize(sub_0)\n  dup1\n  dataOffset(sub_0)\n  0x00\n  codecopy\n  0x00\n  return\nstop\n\nsub_0: assembly {\n        /* \"contracts/MyNftMarket.sol\":311:4702  contract MyNftMarket is IERC721Receiver, IERC1363Receiver {... */\n      mstore(0x40, 0x80)\n      callvalue\n      dup1\n      iszero\n      tag_1\n      jumpi\n      0x00\n      dup1\n      revert\n    tag_1:\n      pop\n      jumpi(tag_2, lt(calldatasize, 0x04))\n      shr(0xe0, calldataload(0x00))\n      dup1\n      0x7f6a645f\n      gt\n      tag_10\n      jumpi\n      dup1\n      0x7f6a645f\n      eq\n      tag_6\n      jumpi\n      dup1\n      0x88a7ca5c\n      eq\n      tag_7\n      jumpi\n      dup1\n      0xcee81dc5\n      eq\n      tag_8\n      jumpi\n      dup1\n      0xe8900e12\n      eq\n      tag_9\n      jumpi\n      jump(tag_2)\n    tag_10:\n      dup1\n      0x150b7a02\n      eq\n      tag_3\n      jumpi\n      dup1\n      0x28861d22\n      eq\n      tag_4\n      jumpi\n      dup1\n      0x5764351f\n      eq\n      tag_5\n      jumpi\n    tag_2:\n      0x00\n      dup1\n      revert\n        /* \"contracts/MyNftMarket.sol\":1124:1711  function onERC721Received(... */\n    tag_3:\n      tag_11\n      0x04\n      dup1\n      calldatasize\n      sub\n      dup2\n      add\n      swap1\n      tag_12\n      swap2\n      swap1\n      tag_13\n      jump\t// in\n    tag_12:\n      tag_14\n      jump\t// in\n    tag_11:\n      mload(0x40)\n      tag_15\n      swap2\n      swap1\n      tag_16\n      jump\t// in\n    tag_15:\n      mload(0x40)\n      dup1\n      swap2\n      sub\n      swap1\n      return\n        /* \"contracts/MyNftMarket.sol\":729:753  SaleInfo[] public market */\n    tag_4:\n      tag_17\n      0x04\n      dup1\n      calldatasize\n      sub\n      dup2\n      add\n      swap1\n      tag_18\n      swap2\n      swap1\n      tag_19\n      jump\t// in\n    tag_18:\n      tag_20\n      jump\t// in\n    tag_17:\n      mload(0x40)\n      tag_21\n      swap4\n      swap3\n      swap2\n      swap1\n      tag_22\n      jump\t// in\n    tag_21:\n      mload(0x40)\n      dup1\n      swap2\n      sub\n      swap1\n      return\n        /* \"contracts/MyNftMarket.sol\":934:1007  mapping(address => mapping(uint => address)) public nftInfoToSalerAccount */\n    tag_5:\n      tag_23\n      0x04\n      dup1\n      calldatasize\n      sub\n      dup2\n      add\n      swap1\n      tag_24\n      swap2\n      swap1\n      tag_25\n      jump\t// in\n    tag_24:\n      tag_26\n      jump\t// in\n    tag_23:\n      mload(0x40)\n      tag_27\n      swap2\n      swap1\n      tag_28\n      jump\t// in\n    tag_27:\n      mload(0x40)\n      dup1\n      swap2\n      sub\n      swap1\n      return\n        /* \"contracts/MyNftMarket.sol\":809:881  mapping(address => mapping(uint256 => uint256)) public nftInfoToMarketId */\n    tag_6:\n      tag_29\n      0x04\n      dup1\n      calldatasize\n      sub\n      dup2\n      add\n      swap1\n      tag_30\n      swap2\n      swap1\n      tag_25\n      jump\t// in\n    tag_30:\n      tag_31\n      jump\t// in\n    tag_29:\n      mload(0x40)\n      tag_32\n      swap2\n      swap1\n      tag_33\n      jump\t// in\n    tag_32:\n      mload(0x40)\n      dup1\n      swap2\n      sub\n      swap1\n      return\n        /* \"contracts/MyNftMarket.sol\":2744:4215  function onTransferReceived(... */\n    tag_7:\n      tag_34\n      0x04\n      dup1\n      calldatasize\n      sub\n      dup2\n      add\n      swap1\n      tag_35\n      swap2\n      swap1\n      tag_36\n      jump\t// in\n    tag_35:\n      tag_37\n      jump\t// in\n    tag_34:\n      mload(0x40)\n      tag_38\n      swap2\n      swap1\n      tag_16\n      jump\t// in\n    tag_38:\n      mload(0x40)\n      dup1\n      swap2\n      sub\n      swap1\n      return\n        /* \"contracts/MyNftMarket.sol\":1730:2725  function unsale(address nftAddr, uint nftId) public {... */\n    tag_8:\n      tag_39\n      0x04\n      dup1\n      calldatasize\n      sub\n      dup2\n      add\n      swap1\n      tag_40\n      swap2\n      swap1\n      tag_25\n      jump\t// in\n    tag_40:\n      tag_41\n      jump\t// in\n    tag_39:\n      stop\n        /* \"contracts/MyNftMarket.sol\":4428:4700  function bytesToAddrAndUint(bytes memory data) public pure returns (address, uint256) {... */\n    tag_9:\n      tag_42\n      0x04\n      dup1\n      calldatasize\n      sub\n      dup2\n      add\n      swap1\n      tag_43\n      swap2\n      swap1\n      tag_44\n      jump\t// in\n    tag_43:\n      tag_45\n      jump\t// in\n    tag_42:\n      mload(0x40)\n      tag_46\n      swap3\n      swap2\n      swap1\n      tag_47\n      jump\t// in\n    tag_46:\n      mload(0x40)\n      dup1\n      swap2\n      sub\n      swap1\n      return\n        /* \"contracts/MyNftMarket.sol\":1124:1711  function onERC721Received(... */\n    tag_14:\n        /* \"contracts/MyNftMarket.sol\":1285:1291  bytes4 */\n      0x00\n        /* \"contracts/MyNftMarket.sol\":1332:1345  address saler */\n      dup1\n        /* \"contracts/MyNftMarket.sol\":1348:1369  nftInfoToSalerAccount */\n      0x03\n        /* \"contracts/MyNftMarket.sol\":1348:1381  nftInfoToSalerAccount[msg.sender] */\n      0x00\n        /* \"contracts/MyNftMarket.sol\":1370:1380  msg.sender */\n      caller\n        /* \"contracts/MyNftMarket.sol\":1348:1381  nftInfoToSalerAccount[msg.sender] */\n      0xffffffffffffffffffffffffffffffffffffffff\n      and\n      0xffffffffffffffffffffffffffffffffffffffff\n      and\n      dup2\n      mstore\n      0x20\n      add\n      swap1\n      dup2\n      mstore\n      0x20\n      add\n      0x00\n      keccak256\n        /* \"contracts/MyNftMarket.sol\":1348:1390  nftInfoToSalerAccount[msg.sender][tokenId] */\n      0x00\n        /* \"contracts/MyNftMarket.sol\":1382:1389  tokenId */\n      dup7\n        /* \"contracts/MyNftMarket.sol\":1348:1390  nftInfoToSalerAccount[msg.sender][tokenId] */\n      dup2\n      mstore\n      0x20\n      add\n      swap1\n      dup2\n      mstore\n      0x20\n      add\n      0x00\n      keccak256\n      0x00\n      swap1\n      sload\n      swap1\n      0x0100\n      exp\n      swap1\n      div\n      0xffffffffffffffffffffffffffffffffffffffff\n      and\n        /* \"contracts/MyNftMarket.sol\":1332:1390  address saler = nftInfoToSalerAccount[msg.sender][tokenId] */\n      swap1\n      pop\n        /* \"contracts/MyNftMarket.sol\":1425:1426  0 */\n      0x00\n        /* \"contracts/MyNftMarket.sol\":1408:1427  saler == address(0) */\n      0xffffffffffffffffffffffffffffffffffffffff\n      and\n        /* \"contracts/MyNftMarket.sol\":1408:1413  saler */\n      dup2\n        /* \"contracts/MyNftMarket.sol\":1408:1427  saler == address(0) */\n      0xffffffffffffffffffffffffffffffffffffffff\n      and\n      eq\n        /* \"contracts/MyNftMarket.sol\":1400:1448  require(saler == address(0), \"already in sale.\") */\n      tag_49\n      jumpi\n      mload(0x40)\n      0x08c379a000000000000000000000000000000000000000000000000000000000\n      dup2\n      mstore\n      0x04\n      add\n      tag_50\n      swap1\n      tag_51\n      jump\t// in\n    tag_50:\n      mload(0x40)\n      dup1\n      swap2\n      sub\n      swap1\n      revert\n    tag_49:\n        /* \"contracts/MyNftMarket.sol\":1458:1464  market */\n      0x01\n        /* \"contracts/MyNftMarket.sol\":1470:1518  SaleInfo(msg.sender, tokenId, bytesToUint(data)) */\n      mload(0x40)\n      dup1\n      0x60\n      add\n      0x40\n      mstore\n      dup1\n        /* \"contracts/MyNftMarket.sol\":1479:1489  msg.sender */\n      caller\n        /* \"contracts/MyNftMarket.sol\":1470:1518  SaleInfo(msg.sender, tokenId, bytesToUint(data)) */\n      0xffffffffffffffffffffffffffffffffffffffff\n      and\n      dup2\n      mstore\n      0x20\n      add\n        /* \"contracts/MyNftMarket.sol\":1491:1498  tokenId */\n      dup8\n        /* \"contracts/MyNftMarket.sol\":1470:1518  SaleInfo(msg.sender, tokenId, bytesToUint(data)) */\n      dup2\n      mstore\n      0x20\n      add\n        /* \"contracts/MyNftMarket.sol\":1500:1517  bytesToUint(data) */\n      tag_52\n        /* \"contracts/MyNftMarket.sol\":1512:1516  data */\n      dup8\n      dup8\n        /* \"contracts/MyNftMarket.sol\":1500:1517  bytesToUint(data) */\n      dup1\n      dup1\n      0x1f\n      add\n      0x20\n      dup1\n      swap2\n      div\n      mul\n      0x20\n      add\n      mload(0x40)\n      swap1\n      dup2\n      add\n      0x40\n      mstore\n      dup1\n      swap4\n      swap3\n      swap2\n      swap1\n      dup2\n      dup2\n      mstore\n      0x20\n      add\n      dup4\n      dup4\n      dup1\n      dup3\n      dup5\n      calldatacopy\n      0x00\n      dup2\n      dup5\n      add\n      mstore\n      not(0x1f)\n      0x1f\n      dup3\n      add\n      and\n      swap1\n      pop\n      dup1\n      dup4\n      add\n      swap3\n      pop\n      pop\n      pop\n      pop\n      pop\n      pop\n      pop\n        /* \"contracts/MyNftMarket.sol\":1500:1511  bytesToUint */\n      tag_53\n        /* \"contracts/MyNftMarket.sol\":1500:1517  bytesToUint(data) */\n      jump\t// in\n    tag_52:\n        /* \"contracts/MyNftMarket.sol\":1470:1518  SaleInfo(msg.sender, tokenId, bytesToUint(data)) */\n      dup2\n      mstore\n      pop\n        /* \"contracts/MyNftMarket.sol\":1458:1519  market.push(SaleInfo(msg.sender, tokenId, bytesToUint(data))) */\n      swap1\n      dup1\n      0x01\n      dup2\n      sload\n      add\n      dup1\n      dup3\n      sstore\n      dup1\n      swap2\n      pop\n      pop\n      0x01\n      swap1\n      sub\n      swap1\n      0x00\n      mstore\n      keccak256(0x00, 0x20)\n      swap1\n      0x03\n      mul\n      add\n      0x00\n      swap1\n      swap2\n      swap1\n      swap2\n      swap1\n      swap2\n      pop\n      0x00\n      dup3\n      add\n      mload\n      dup2\n      0x00\n      add\n      exp(0x0100, 0x00)\n      dup2\n      sload\n      dup2\n      0xffffffffffffffffffffffffffffffffffffffff\n      mul\n      not\n      and\n      swap1\n      dup4\n      0xffffffffffffffffffffffffffffffffffffffff\n      and\n      mul\n      or\n      swap1\n      sstore\n      pop\n      0x20\n      dup3\n      add\n      mload\n      dup2\n      0x01\n      add\n      sstore\n      0x40\n      dup3\n      add\n      mload\n      dup2\n      0x02\n      add\n      sstore\n      pop\n      pop\n        /* \"contracts/MyNftMarket.sol\":1586:1587  1 */\n      0x01\n        /* \"contracts/MyNftMarket.sol\":1570:1576  market */\n      dup1\n        /* \"contracts/MyNftMarket.sol\":1570:1583  market.length */\n      dup1\n      sload\n      swap1\n      pop\n        /* \"contracts/MyNftMarket.sol\":1570:1587  market.length - 1 */\n      tag_55\n      swap2\n      swap1\n      tag_56\n      jump\t// in\n    tag_55:\n        /* \"contracts/MyNftMarket.sol\":1529:1546  nftInfoToMarketId */\n      0x02\n        /* \"contracts/MyNftMarket.sol\":1529:1558  nftInfoToMarketId[msg.sender] */\n      0x00\n        /* \"contracts/MyNftMarket.sol\":1547:1557  msg.sender */\n      caller\n        /* \"contracts/MyNftMarket.sol\":1529:1558  nftInfoToMarketId[msg.sender] */\n      0xffffffffffffffffffffffffffffffffffffffff\n      and\n      0xffffffffffffffffffffffffffffffffffffffff\n      and\n      dup2\n      mstore\n      0x20\n      add\n      swap1\n      dup2\n      mstore\n      0x20\n      add\n      0x00\n      keccak256\n        /* \"contracts/MyNftMarket.sol\":1529:1567  nftInfoToMarketId[msg.sender][tokenId] */\n      0x00\n        /* \"contracts/MyNftMarket.sol\":1559:1566  tokenId */\n      dup8\n        /* \"contracts/MyNftMarket.sol\":1529:1567  nftInfoToMarketId[msg.sender][tokenId] */\n      dup2\n      mstore\n      0x20\n      add\n      swap1\n      dup2\n      mstore\n      0x20\n      add\n      0x00\n      keccak256\n        /* \"contracts/MyNftMarket.sol\":1529:1587  nftInfoToMarketId[msg.sender][tokenId] = market.length - 1 */\n      dup2\n      swap1\n      sstore\n      pop\n        /* \"contracts/MyNftMarket.sol\":1642:1646  from */\n      dup6\n        /* \"contracts/MyNftMarket.sol\":1597:1618  nftInfoToSalerAccount */\n      0x03\n        /* \"contracts/MyNftMarket.sol\":1597:1630  nftInfoToSalerAccount[msg.sender] */\n      0x00\n        /* \"contracts/MyNftMarket.sol\":1619:1629  msg.sender */\n      caller\n        /* \"contracts/MyNftMarket.sol\":1597:1630  nftInfoToSalerAccount[msg.sender] */\n      0xffffffffffffffffffffffffffffffffffffffff\n      and\n      0xffffffffffffffffffffffffffffffffffffffff\n      and\n      dup2\n      mstore\n      0x20\n      add\n      swap1\n      dup2\n      mstore\n      0x20\n      add\n      0x00\n      keccak256\n        /* \"contracts/MyNftMarket.sol\":1597:1639  nftInfoToSalerAccount[msg.sender][tokenId] */\n      0x00\n        /* \"contracts/MyNftMarket.sol\":1631:1638  tokenId */\n      dup8\n        /* \"contracts/MyNftMarket.sol\":1597:1639  nftInfoToSalerAccount[msg.sender][tokenId] */\n      dup2\n      mstore\n      0x20\n      add\n      swap1\n      dup2\n      mstore\n      0x20\n      add\n      0x00\n      keccak256\n      0x00\n        /* \"contracts/MyNftMarket.sol\":1597:1646  nftInfoToSalerAccount[msg.sender][tokenId] = from */\n      0x0100\n      exp\n      dup2\n      sload\n      dup2\n      0xffffffffffffffffffffffffffffffffffffffff\n      mul\n      not\n      and\n      swap1\n      dup4\n      0xffffffffffffffffffffffffffffffffffffffff\n      and\n      mul\n      or\n      swap1\n      sstore\n      pop\n        /* \"contracts/MyNftMarket.sol\":1663:1704  IERC721Receiver.onERC721Received.selector */\n      shl(0xe0, 0x150b7a02)\n        /* \"contracts/MyNftMarket.sol\":1656:1704  return IERC721Receiver.onERC721Received.selector */\n      swap2\n      pop\n      pop\n        /* \"contracts/MyNftMarket.sol\":1124:1711  function onERC721Received(... */\n      swap6\n      swap5\n      pop\n      pop\n      pop\n      pop\n      pop\n      jump\t// out\n        /* \"contracts/MyNftMarket.sol\":729:753  SaleInfo[] public market */\n    tag_20:\n      0x01\n      dup2\n      dup2\n      sload\n      dup2\n      lt\n      tag_57\n      jumpi\n      0x00\n      dup1\n      revert\n    tag_57:\n      swap1\n      0x00\n      mstore\n      keccak256(0x00, 0x20)\n      swap1\n      0x03\n      mul\n      add\n      0x00\n      swap2\n      pop\n      swap1\n      pop\n      dup1\n      0x00\n      add\n      0x00\n      swap1\n      sload\n      swap1\n      0x0100\n      exp\n      swap1\n      div\n      0xffffffffffffffffffffffffffffffffffffffff\n      and\n      swap1\n      dup1\n      0x01\n      add\n      sload\n      swap1\n      dup1\n      0x02\n      add\n      sload\n      swap1\n      pop\n      dup4\n      jump\t// out\n        /* \"contracts/MyNftMarket.sol\":934:1007  mapping(address => mapping(uint => address)) public nftInfoToSalerAccount */\n    tag_26:\n      mstore(0x20, 0x03)\n      dup2\n      0x00\n      mstore\n      mstore(0x20, keccak256(0x00, 0x40))\n      dup1\n      0x00\n      mstore\n      keccak256(0x00, 0x40)\n      0x00\n      swap2\n      pop\n      swap2\n      pop\n      swap1\n      sload\n      swap1\n      0x0100\n      exp\n      swap1\n      div\n      0xffffffffffffffffffffffffffffffffffffffff\n      and\n      dup2\n      jump\t// out\n        /* \"contracts/MyNftMarket.sol\":809:881  mapping(address => mapping(uint256 => uint256)) public nftInfoToMarketId */\n    tag_31:\n      mstore(0x20, 0x02)\n      dup2\n      0x00\n      mstore\n      mstore(0x20, keccak256(0x00, 0x40))\n      dup1\n      0x00\n      mstore\n      keccak256(0x00, 0x40)\n      0x00\n      swap2\n      pop\n      swap2\n      pop\n      pop\n      sload\n      dup2\n      jump\t// out\n        /* \"contracts/MyNftMarket.sol\":2744:4215  function onTransferReceived(... */\n    tag_37:\n        /* \"contracts/MyNftMarket.sol\":2895:2901  bytes4 */\n      0x00\n        /* \"contracts/MyNftMarket.sol\":3070:3085  address nftAddr */\n      dup1\n        /* \"contracts/MyNftMarket.sol\":3095:3108  uint256 nftId */\n      0x00\n        /* \"contracts/MyNftMarket.sol\":3137:3161  bytesToAddrAndUint(data) */\n      tag_60\n        /* \"contracts/MyNftMarket.sol\":3156:3160  data */\n      dup5\n        /* \"contracts/MyNftMarket.sol\":3137:3155  bytesToAddrAndUint */\n      tag_45\n        /* \"contracts/MyNftMarket.sol\":3137:3161  bytesToAddrAndUint(data) */\n      jump\t// in\n    tag_60:\n        /* \"contracts/MyNftMarket.sol\":3118:3161  (nftAddr, nftId) = bytesToAddrAndUint(data) */\n      dup1\n      swap3\n      pop\n      dup2\n      swap4\n      pop\n      pop\n      pop\n        /* \"contracts/MyNftMarket.sol\":3202:3215  address saler */\n      0x00\n        /* \"contracts/MyNftMarket.sol\":3218:3239  nftInfoToSalerAccount */\n      0x03\n        /* \"contracts/MyNftMarket.sol\":3218:3248  nftInfoToSalerAccount[nftAddr] */\n      0x00\n        /* \"contracts/MyNftMarket.sol\":3240:3247  nftAddr */\n      dup5\n        /* \"contracts/MyNftMarket.sol\":3218:3248  nftInfoToSalerAccount[nftAddr] */\n      0xffffffffffffffffffffffffffffffffffffffff\n      and\n      0xffffffffffffffffffffffffffffffffffffffff\n      and\n      dup2\n      mstore\n      0x20\n      add\n      swap1\n      dup2\n      mstore\n      0x20\n      add\n      0x00\n      keccak256\n        /* \"contracts/MyNftMarket.sol\":3218:3255  nftInfoToSalerAccount[nftAddr][nftId] */\n      0x00\n        /* \"contracts/MyNftMarket.sol\":3249:3254  nftId */\n      dup4\n        /* \"contracts/MyNftMarket.sol\":3218:3255  nftInfoToSalerAccount[nftAddr][nftId] */\n      dup2\n      mstore\n      0x20\n      add\n      swap1\n      dup2\n      mstore\n      0x20\n      add\n      0x00\n      keccak256\n      0x00\n      swap1\n      sload\n      swap1\n      0x0100\n      exp\n      swap1\n      div\n      0xffffffffffffffffffffffffffffffffffffffff\n      and\n        /* \"contracts/MyNftMarket.sol\":3202:3255  address saler = nftInfoToSalerAccount[nftAddr][nftId] */\n      swap1\n      pop\n        /* \"contracts/MyNftMarket.sol\":3291:3292  0 */\n      0x00\n        /* \"contracts/MyNftMarket.sol\":3274:3293  saler != address(0) */\n      0xffffffffffffffffffffffffffffffffffffffff\n      and\n        /* \"contracts/MyNftMarket.sol\":3274:3279  saler */\n      dup2\n        /* \"contracts/MyNftMarket.sol\":3274:3293  saler != address(0) */\n      0xffffffffffffffffffffffffffffffffffffffff\n      and\n      sub\n        /* \"contracts/MyNftMarket.sol\":3265:3317  require( saler != address(0), \"nft is not in sale.\") */\n      tag_61\n      jumpi\n      mload(0x40)\n      0x08c379a000000000000000000000000000000000000000000000000000000000\n      dup2\n      mstore\n      0x04\n      add\n      tag_62\n      swap1\n      tag_63\n      jump\t// in\n    tag_62:\n      mload(0x40)\n      dup1\n      swap2\n      sub\n      swap1\n      revert\n    tag_61:\n        /* \"contracts/MyNftMarket.sol\":3327:3354  SaleInfo memory curSaleInfo */\n      0x00\n        /* \"contracts/MyNftMarket.sol\":3357:3363  market */\n      0x01\n        /* \"contracts/MyNftMarket.sol\":3364:3381  nftInfoToMarketId */\n      0x02\n        /* \"contracts/MyNftMarket.sol\":3364:3390  nftInfoToMarketId[nftAddr] */\n      0x00\n        /* \"contracts/MyNftMarket.sol\":3382:3389  nftAddr */\n      dup7\n        /* \"contracts/MyNftMarket.sol\":3364:3390  nftInfoToMarketId[nftAddr] */\n      0xffffffffffffffffffffffffffffffffffffffff\n      and\n      0xffffffffffffffffffffffffffffffffffffffff\n      and\n      dup2\n      mstore\n      0x20\n      add\n      swap1\n      dup2\n      mstore\n      0x20\n      add\n      0x00\n      keccak256\n        /* \"contracts/MyNftMarket.sol\":3364:3397  nftInfoToMarketId[nftAddr][nftId] */\n      0x00\n        /* \"contracts/MyNftMarket.sol\":3391:3396  nftId */\n      dup6\n        /* \"contracts/MyNftMarket.sol\":3364:3397  nftInfoToMarketId[nftAddr][nftId] */\n      dup2\n      mstore\n      0x20\n      add\n      swap1\n      dup2\n      mstore\n      0x20\n      add\n      0x00\n      keccak256\n      sload\n        /* \"contracts/MyNftMarket.sol\":3357:3398  market[nftInfoToMarketId[nftAddr][nftId]] */\n      dup2\n      sload\n      dup2\n      lt\n      tag_64\n      jumpi\n      tag_65\n      tag_66\n      jump\t// in\n    tag_65:\n    tag_64:\n      swap1\n      0x00\n      mstore\n      keccak256(0x00, 0x20)\n      swap1\n      0x03\n      mul\n      add\n        /* \"contracts/MyNftMarket.sol\":3327:3398  SaleInfo memory curSaleInfo = market[nftInfoToMarketId[nftAddr][nftId]] */\n      mload(0x40)\n      dup1\n      0x60\n      add\n      0x40\n      mstore\n      swap1\n      dup2\n      0x00\n      dup3\n      add\n      0x00\n      swap1\n      sload\n      swap1\n      0x0100\n      exp\n      swap1\n      div\n      0xffffffffffffffffffffffffffffffffffffffff\n      and\n      0xffffffffffffffffffffffffffffffffffffffff\n      and\n      0xffffffffffffffffffffffffffffffffffffffff\n      and\n      dup2\n      mstore\n      0x20\n      add\n      0x01\n      dup3\n      add\n      sload\n      dup2\n      mstore\n      0x20\n      add\n      0x02\n      dup3\n      add\n      sload\n      dup2\n      mstore\n      pop\n      pop\n      swap1\n      pop\n        /* \"contracts/MyNftMarket.sol\":3426:3437  curSaleInfo */\n      dup1\n        /* \"contracts/MyNftMarket.sol\":3426:3455  curSaleInfo.priceInHulioToken */\n      0x40\n      add\n      mload\n        /* \"contracts/MyNftMarket.sol\":3416:3422  amount */\n      dup8\n        /* \"contracts/MyNftMarket.sol\":3416:3455  amount >= curSaleInfo.priceInHulioToken */\n      lt\n      iszero\n        /* \"contracts/MyNftMarket.sol\":3408:3484  require(amount >= curSaleInfo.priceInHulioToken, \"please pay enough moneny\") */\n      tag_68\n      jumpi\n      mload(0x40)\n      0x08c379a000000000000000000000000000000000000000000000000000000000\n      dup2\n      mstore\n      0x04\n      add\n      tag_69\n      swap1\n      tag_70\n      jump\t// in\n    tag_69:\n      mload(0x40)\n      dup1\n      swap2\n      sub\n      swap1\n      revert\n    tag_68:\n        /* \"contracts/MyNftMarket.sol\":3591:3604  uint marketId */\n      0x00\n        /* \"contracts/MyNftMarket.sol\":3607:3624  nftInfoToMarketId */\n      0x02\n        /* \"contracts/MyNftMarket.sol\":3607:3633  nftInfoToMarketId[nftAddr] */\n      0x00\n        /* \"contracts/MyNftMarket.sol\":3625:3632  nftAddr */\n      dup7\n        /* \"contracts/MyNftMarket.sol\":3607:3633  nftInfoToMarketId[nftAddr] */\n      0xffffffffffffffffffffffffffffffffffffffff\n      and\n      0xffffffffffffffffffffffffffffffffffffffff\n      and\n      dup2\n      mstore\n      0x20\n      add\n      swap1\n      dup2\n      mstore\n      0x20\n      add\n      0x00\n      keccak256\n        /* \"contracts/MyNftMarket.sol\":3607:3640  nftInfoToMarketId[nftAddr][nftId] */\n      0x00\n        /* \"contracts/MyNftMarket.sol\":3634:3639  nftId */\n      dup6\n        /* \"contracts/MyNftMarket.sol\":3607:3640  nftInfoToMarketId[nftAddr][nftId] */\n      dup2\n      mstore\n      0x20\n      add\n      swap1\n      dup2\n      mstore\n      0x20\n      add\n      0x00\n      keccak256\n      sload\n        /* \"contracts/MyNftMarket.sol\":3591:3640  uint marketId = nftInfoToMarketId[nftAddr][nftId] */\n      swap1\n      pop\n        /* \"contracts/MyNftMarket.sol\":3650:3674  SaleInfo memory saleInfo */\n      0x00\n        /* \"contracts/MyNftMarket.sol\":3677:3683  market */\n      0x01\n        /* \"contracts/MyNftMarket.sol\":3700:3701  1 */\n      dup1\n        /* \"contracts/MyNftMarket.sol\":3684:3690  market */\n      dup1\n        /* \"contracts/MyNftMarket.sol\":3684:3697  market.length */\n      dup1\n      sload\n      swap1\n      pop\n        /* \"contracts/MyNftMarket.sol\":3684:3701  market.length - 1 */\n      tag_71\n      swap2\n      swap1\n      tag_56\n      jump\t// in\n    tag_71:\n        /* \"contracts/MyNftMarket.sol\":3677:3702  market[market.length - 1] */\n      dup2\n      sload\n      dup2\n      lt\n      tag_72\n      jumpi\n      tag_73\n      tag_66\n      jump\t// in\n    tag_73:\n    tag_72:\n      swap1\n      0x00\n      mstore\n      keccak256(0x00, 0x20)\n      swap1\n      0x03\n      mul\n      add\n        /* \"contracts/MyNftMarket.sol\":3650:3702  SaleInfo memory saleInfo = market[market.length - 1] */\n      mload(0x40)\n      dup1\n      0x60\n      add\n      0x40\n      mstore\n      swap1\n      dup2\n      0x00\n      dup3\n      add\n      0x00\n      swap1\n      sload\n      swap1\n      0x0100\n      exp\n      swap1\n      div\n      0xffffffffffffffffffffffffffffffffffffffff\n      and\n      0xffffffffffffffffffffffffffffffffffffffff\n      and\n      0xffffffffffffffffffffffffffffffffffffffff\n      and\n      dup2\n      mstore\n      0x20\n      add\n      0x01\n      dup3\n      add\n      sload\n      dup2\n      mstore\n      0x20\n      add\n      0x02\n      dup3\n      add\n      sload\n      dup2\n      mstore\n      pop\n      pop\n      swap1\n      pop\n        /* \"contracts/MyNftMarket.sol\":3731:3739  saleInfo */\n      dup1\n        /* \"contracts/MyNftMarket.sol\":3712:3718  market */\n      0x01\n        /* \"contracts/MyNftMarket.sol\":3719:3727  marketId */\n      dup4\n        /* \"contracts/MyNftMarket.sol\":3712:3728  market[marketId] */\n      dup2\n      sload\n      dup2\n      lt\n      tag_75\n      jumpi\n      tag_76\n      tag_66\n      jump\t// in\n    tag_76:\n    tag_75:\n      swap1\n      0x00\n      mstore\n      keccak256(0x00, 0x20)\n      swap1\n      0x03\n      mul\n      add\n        /* \"contracts/MyNftMarket.sol\":3712:3739  market[marketId] = saleInfo */\n      0x00\n      dup3\n      add\n      mload\n      dup2\n      0x00\n      add\n      exp(0x0100, 0x00)\n      dup2\n      sload\n      dup2\n      0xffffffffffffffffffffffffffffffffffffffff\n      mul\n      not\n      and\n      swap1\n      dup4\n      0xffffffffffffffffffffffffffffffffffffffff\n      and\n      mul\n      or\n      swap1\n      sstore\n      pop\n      0x20\n      dup3\n      add\n      mload\n      dup2\n      0x01\n      add\n      sstore\n      0x40\n      dup3\n      add\n      mload\n      dup2\n      0x02\n      add\n      sstore\n      swap1\n      pop\n      pop\n        /* \"contracts/MyNftMarket.sol\":3749:3755  market */\n      0x01\n        /* \"contracts/MyNftMarket.sol\":3749:3761  market.pop() */\n      dup1\n      sload\n      dup1\n      tag_78\n      jumpi\n      tag_79\n      tag_80\n      jump\t// in\n    tag_79:\n    tag_78:\n      0x01\n      swap1\n      sub\n      dup2\n      dup2\n      swap1\n      0x00\n      mstore\n      keccak256(0x00, 0x20)\n      swap1\n      0x03\n      mul\n      add\n      0x00\n      dup1\n      dup3\n      add\n      exp(0x0100, 0x00)\n      dup2\n      sload\n      swap1\n      0xffffffffffffffffffffffffffffffffffffffff\n      mul\n      not\n      and\n      swap1\n      sstore\n      0x01\n      dup3\n      add\n      0x00\n      swap1\n      sstore\n      0x02\n      dup3\n      add\n      0x00\n      swap1\n      sstore\n      pop\n      pop\n      swap1\n      sstore\n        /* \"contracts/MyNftMarket.sol\":3830:3838  marketId */\n      dup2\n        /* \"contracts/MyNftMarket.sol\":3780:3797  nftInfoToMarketId */\n      0x02\n        /* \"contracts/MyNftMarket.sol\":3780:3811  nftInfoToMarketId[saleInfo.nft] */\n      0x00\n        /* \"contracts/MyNftMarket.sol\":3798:3806  saleInfo */\n      dup4\n        /* \"contracts/MyNftMarket.sol\":3798:3810  saleInfo.nft */\n      0x00\n      add\n      mload\n        /* \"contracts/MyNftMarket.sol\":3780:3811  nftInfoToMarketId[saleInfo.nft] */\n      0xffffffffffffffffffffffffffffffffffffffff\n      and\n      0xffffffffffffffffffffffffffffffffffffffff\n      and\n      dup2\n      mstore\n      0x20\n      add\n      swap1\n      dup2\n      mstore\n      0x20\n      add\n      0x00\n      keccak256\n        /* \"contracts/MyNftMarket.sol\":3780:3827  nftInfoToMarketId[saleInfo.nft][saleInfo.nftId] */\n      0x00\n        /* \"contracts/MyNftMarket.sol\":3812:3820  saleInfo */\n      dup4\n        /* \"contracts/MyNftMarket.sol\":3812:3826  saleInfo.nftId */\n      0x20\n      add\n      mload\n        /* \"contracts/MyNftMarket.sol\":3780:3827  nftInfoToMarketId[saleInfo.nft][saleInfo.nftId] */\n      dup2\n      mstore\n      0x20\n      add\n      swap1\n      dup2\n      mstore\n      0x20\n      add\n      0x00\n      keccak256\n        /* \"contracts/MyNftMarket.sol\":3780:3838  nftInfoToMarketId[saleInfo.nft][saleInfo.nftId] = marketId */\n      dup2\n      swap1\n      sstore\n      pop\n        /* \"contracts/MyNftMarket.sol\":3896:3897  0 */\n      0x00\n        /* \"contracts/MyNftMarket.sol\":3848:3869  nftInfoToSalerAccount */\n      0x03\n        /* \"contracts/MyNftMarket.sol\":3848:3878  nftInfoToSalerAccount[nftAddr] */\n      0x00\n        /* \"contracts/MyNftMarket.sol\":3870:3877  nftAddr */\n      dup9\n        /* \"contracts/MyNftMarket.sol\":3848:3878  nftInfoToSalerAccount[nftAddr] */\n      0xffffffffffffffffffffffffffffffffffffffff\n      and\n      0xffffffffffffffffffffffffffffffffffffffff\n      and\n      dup2\n      mstore\n      0x20\n      add\n      swap1\n      dup2\n      mstore\n      0x20\n      add\n      0x00\n      keccak256\n        /* \"contracts/MyNftMarket.sol\":3848:3885  nftInfoToSalerAccount[nftAddr][nftId] */\n      0x00\n        /* \"contracts/MyNftMarket.sol\":3879:3884  nftId */\n      dup8\n        /* \"contracts/MyNftMarket.sol\":3848:3885  nftInfoToSalerAccount[nftAddr][nftId] */\n      dup2\n      mstore\n      0x20\n      add\n      swap1\n      dup2\n      mstore\n      0x20\n      add\n      0x00\n      keccak256\n      0x00\n        /* \"contracts/MyNftMarket.sol\":3848:3898  nftInfoToSalerAccount[nftAddr][nftId] = address(0) */\n      0x0100\n      exp\n      dup2\n      sload\n      dup2\n      0xffffffffffffffffffffffffffffffffffffffff\n      mul\n      not\n      and\n      swap1\n      dup4\n      0xffffffffffffffffffffffffffffffffffffffff\n      and\n      mul\n      or\n      swap1\n      sstore\n      pop\n        /* \"contracts/MyNftMarket.sol\":3960:3979  IERC721 nftContract */\n      0x00\n        /* \"contracts/MyNftMarket.sol\":3990:3997  nftAddr */\n      dup7\n        /* \"contracts/MyNftMarket.sol\":3960:3998  IERC721 nftContract = IERC721(nftAddr) */\n      swap1\n      pop\n        /* \"contracts/MyNftMarket.sol\":4008:4019  nftContract */\n      dup1\n        /* \"contracts/MyNftMarket.sol\":4008:4036  nftContract.safeTransferFrom */\n      0xffffffffffffffffffffffffffffffffffffffff\n      and\n      0x42842e0e\n        /* \"contracts/MyNftMarket.sol\":4045:4049  this */\n      address\n        /* \"contracts/MyNftMarket.sol\":4052:4056  from */\n      dup14\n        /* \"contracts/MyNftMarket.sol\":4058:4063  nftId */\n      dup10\n        /* \"contracts/MyNftMarket.sol\":4008:4064  nftContract.safeTransferFrom(address(this), from, nftId) */\n      mload(0x40)\n      dup5\n      0xffffffff\n      and\n      0xe0\n      shl\n      dup2\n      mstore\n      0x04\n      add\n      tag_82\n      swap4\n      swap3\n      swap2\n      swap1\n      tag_83\n      jump\t// in\n    tag_82:\n      0x00\n      mload(0x40)\n      dup1\n      dup4\n      sub\n      dup2\n      0x00\n      dup8\n      dup1\n      extcodesize\n      iszero\n      dup1\n      iszero\n      tag_84\n      jumpi\n      0x00\n      dup1\n      revert\n    tag_84:\n      pop\n      gas\n      call\n      iszero\n      dup1\n      iszero\n      tag_86\n      jumpi\n      returndatasize\n      0x00\n      dup1\n      returndatacopy\n      revert(0x00, returndatasize)\n    tag_86:\n      pop\n      pop\n      pop\n      pop\n        /* \"contracts/MyNftMarket.sol\":4112:4122  hulioToken */\n      0x00\n      dup1\n      sload\n      swap1\n      0x0100\n      exp\n      swap1\n      div\n      0xffffffffffffffffffffffffffffffffffffffff\n      and\n        /* \"contracts/MyNftMarket.sol\":4112:4131  hulioToken.transfer */\n      0xffffffffffffffffffffffffffffffffffffffff\n      and\n      0xa9059cbb\n        /* \"contracts/MyNftMarket.sol\":4132:4137  saler */\n      dup7\n        /* \"contracts/MyNftMarket.sol\":4139:4145  amount */\n      dup13\n        /* \"contracts/MyNftMarket.sol\":4112:4146  hulioToken.transfer(saler, amount) */\n      mload(0x40)\n      dup4\n      0xffffffff\n      and\n      0xe0\n      shl\n      dup2\n      mstore\n      0x04\n      add\n      tag_87\n      swap3\n      swap2\n      swap1\n      tag_47\n      jump\t// in\n    tag_87:\n      0x20\n      mload(0x40)\n      dup1\n      dup4\n      sub\n      dup2\n      0x00\n      dup8\n      gas\n      call\n      iszero\n      dup1\n      iszero\n      tag_89\n      jumpi\n      returndatasize\n      0x00\n      dup1\n      returndatacopy\n      revert(0x00, returndatasize)\n    tag_89:\n      pop\n      pop\n      pop\n      pop\n      mload(0x40)\n      returndatasize\n      not(0x1f)\n      0x1f\n      dup3\n      add\n      and\n      dup3\n      add\n      dup1\n      0x40\n      mstore\n      pop\n      dup2\n      add\n      swap1\n      tag_90\n      swap2\n      swap1\n      tag_91\n      jump\t// in\n    tag_90:\n      pop\n        /* \"contracts/MyNftMarket.sol\":4164:4208  IERC1363Receiver.onTransferReceived.selector */\n      shl(0xe0, 0x88a7ca5c)\n        /* \"contracts/MyNftMarket.sol\":4157:4208  return IERC1363Receiver.onTransferReceived.selector */\n      swap8\n      pop\n      pop\n      pop\n      pop\n      pop\n      pop\n      pop\n      pop\n        /* \"contracts/MyNftMarket.sol\":2744:4215  function onTransferReceived(... */\n      swap5\n      swap4\n      pop\n      pop\n      pop\n      pop\n      jump\t// out\n        /* \"contracts/MyNftMarket.sol\":1730:2725  function unsale(address nftAddr, uint nftId) public {... */\n    tag_41:\n        /* \"contracts/MyNftMarket.sol\":1821:1834  address saler */\n      0x00\n        /* \"contracts/MyNftMarket.sol\":1837:1858  nftInfoToSalerAccount */\n      0x03\n        /* \"contracts/MyNftMarket.sol\":1837:1867  nftInfoToSalerAccount[nftAddr] */\n      0x00\n        /* \"contracts/MyNftMarket.sol\":1859:1866  nftAddr */\n      dup5\n        /* \"contracts/MyNftMarket.sol\":1837:1867  nftInfoToSalerAccount[nftAddr] */\n      0xffffffffffffffffffffffffffffffffffffffff\n      and\n      0xffffffffffffffffffffffffffffffffffffffff\n      and\n      dup2\n      mstore\n      0x20\n      add\n      swap1\n      dup2\n      mstore\n      0x20\n      add\n      0x00\n      keccak256\n        /* \"contracts/MyNftMarket.sol\":1837:1874  nftInfoToSalerAccount[nftAddr][nftId] */\n      0x00\n        /* \"contracts/MyNftMarket.sol\":1868:1873  nftId */\n      dup4\n        /* \"contracts/MyNftMarket.sol\":1837:1874  nftInfoToSalerAccount[nftAddr][nftId] */\n      dup2\n      mstore\n      0x20\n      add\n      swap1\n      dup2\n      mstore\n      0x20\n      add\n      0x00\n      keccak256\n      0x00\n      swap1\n      sload\n      swap1\n      0x0100\n      exp\n      swap1\n      div\n      0xffffffffffffffffffffffffffffffffffffffff\n      and\n        /* \"contracts/MyNftMarket.sol\":1821:1874  address saler = nftInfoToSalerAccount[nftAddr][nftId] */\n      swap1\n      pop\n        /* \"contracts/MyNftMarket.sol\":1910:1911  0 */\n      0x00\n        /* \"contracts/MyNftMarket.sol\":1893:1912  saler != address(0) */\n      0xffffffffffffffffffffffffffffffffffffffff\n      and\n        /* \"contracts/MyNftMarket.sol\":1893:1898  saler */\n      dup2\n        /* \"contracts/MyNftMarket.sol\":1893:1912  saler != address(0) */\n      0xffffffffffffffffffffffffffffffffffffffff\n      and\n      sub\n        /* \"contracts/MyNftMarket.sol\":1884:1936  require( saler != address(0), \"nft is not in sale.\") */\n      tag_93\n      jumpi\n      mload(0x40)\n      0x08c379a000000000000000000000000000000000000000000000000000000000\n      dup2\n      mstore\n      0x04\n      add\n      tag_94\n      swap1\n      tag_63\n      jump\t// in\n    tag_94:\n      mload(0x40)\n      dup1\n      swap2\n      sub\n      swap1\n      revert\n    tag_93:\n        /* \"contracts/MyNftMarket.sol\":2009:2014  saler */\n      dup1\n        /* \"contracts/MyNftMarket.sol\":1995:2014  msg.sender == saler */\n      0xffffffffffffffffffffffffffffffffffffffff\n      and\n        /* \"contracts/MyNftMarket.sol\":1995:2005  msg.sender */\n      caller\n        /* \"contracts/MyNftMarket.sol\":1995:2014  msg.sender == saler */\n      0xffffffffffffffffffffffffffffffffffffffff\n      and\n      eq\n        /* \"contracts/MyNftMarket.sol\":1987:2032  require(msg.sender == saler, \"Not your nft.\") */\n      tag_95\n      jumpi\n      mload(0x40)\n      0x08c379a000000000000000000000000000000000000000000000000000000000\n      dup2\n      mstore\n      0x04\n      add\n      tag_96\n      swap1\n      tag_97\n      jump\t// in\n    tag_96:\n      mload(0x40)\n      dup1\n      swap2\n      sub\n      swap1\n      revert\n    tag_95:\n        /* \"contracts/MyNftMarket.sol\":2138:2151  uint marketId */\n      0x00\n        /* \"contracts/MyNftMarket.sol\":2154:2171  nftInfoToMarketId */\n      0x02\n        /* \"contracts/MyNftMarket.sol\":2154:2180  nftInfoToMarketId[nftAddr] */\n      0x00\n        /* \"contracts/MyNftMarket.sol\":2172:2179  nftAddr */\n      dup6\n        /* \"contracts/MyNftMarket.sol\":2154:2180  nftInfoToMarketId[nftAddr] */\n      0xffffffffffffffffffffffffffffffffffffffff\n      and\n      0xffffffffffffffffffffffffffffffffffffffff\n      and\n      dup2\n      mstore\n      0x20\n      add\n      swap1\n      dup2\n      mstore\n      0x20\n      add\n      0x00\n      keccak256\n        /* \"contracts/MyNftMarket.sol\":2154:2187  nftInfoToMarketId[nftAddr][nftId] */\n      0x00\n        /* \"contracts/MyNftMarket.sol\":2181:2186  nftId */\n      dup5\n        /* \"contracts/MyNftMarket.sol\":2154:2187  nftInfoToMarketId[nftAddr][nftId] */\n      dup2\n      mstore\n      0x20\n      add\n      swap1\n      dup2\n      mstore\n      0x20\n      add\n      0x00\n      keccak256\n      sload\n        /* \"contracts/MyNftMarket.sol\":2138:2187  uint marketId = nftInfoToMarketId[nftAddr][nftId] */\n      swap1\n      pop\n        /* \"contracts/MyNftMarket.sol\":2197:2221  SaleInfo memory saleInfo */\n      0x00\n        /* \"contracts/MyNftMarket.sol\":2224:2230  market */\n      0x01\n        /* \"contracts/MyNftMarket.sol\":2247:2248  1 */\n      dup1\n        /* \"contracts/MyNftMarket.sol\":2231:2237  market */\n      dup1\n        /* \"contracts/MyNftMarket.sol\":2231:2244  market.length */\n      dup1\n      sload\n      swap1\n      pop\n        /* \"contracts/MyNftMarket.sol\":2231:2248  market.length - 1 */\n      tag_98\n      swap2\n      swap1\n      tag_56\n      jump\t// in\n    tag_98:\n        /* \"contracts/MyNftMarket.sol\":2224:2249  market[market.length - 1] */\n      dup2\n      sload\n      dup2\n      lt\n      tag_99\n      jumpi\n      tag_100\n      tag_66\n      jump\t// in\n    tag_100:\n    tag_99:\n      swap1\n      0x00\n      mstore\n      keccak256(0x00, 0x20)\n      swap1\n      0x03\n      mul\n      add\n        /* \"contracts/MyNftMarket.sol\":2197:2249  SaleInfo memory saleInfo = market[market.length - 1] */\n      mload(0x40)\n      dup1\n      0x60\n      add\n      0x40\n      mstore\n      swap1\n      dup2\n      0x00\n      dup3\n      add\n      0x00\n      swap1\n      sload\n      swap1\n      0x0100\n      exp\n      swap1\n      div\n      0xffffffffffffffffffffffffffffffffffffffff\n      and\n      0xffffffffffffffffffffffffffffffffffffffff\n      and\n      0xffffffffffffffffffffffffffffffffffffffff\n      and\n      dup2\n      mstore\n      0x20\n      add\n      0x01\n      dup3\n      add\n      sload\n      dup2\n      mstore\n      0x20\n      add\n      0x02\n      dup3\n      add\n      sload\n      dup2\n      mstore\n      pop\n      pop\n      swap1\n      pop\n        /* \"contracts/MyNftMarket.sol\":2278:2286  saleInfo */\n      dup1\n        /* \"contracts/MyNftMarket.sol\":2259:2265  market */\n      0x01\n        /* \"contracts/MyNftMarket.sol\":2266:2274  marketId */\n      dup4\n        /* \"contracts/MyNftMarket.sol\":2259:2275  market[marketId] */\n      dup2\n      sload\n      dup2\n      lt\n      tag_102\n      jumpi\n      tag_103\n      tag_66\n      jump\t// in\n    tag_103:\n    tag_102:\n      swap1\n      0x00\n      mstore\n      keccak256(0x00, 0x20)\n      swap1\n      0x03\n      mul\n      add\n        /* \"contracts/MyNftMarket.sol\":2259:2286  market[marketId] = saleInfo */\n      0x00\n      dup3\n      add\n      mload\n      dup2\n      0x00\n      add\n      exp(0x0100, 0x00)\n      dup2\n      sload\n      dup2\n      0xffffffffffffffffffffffffffffffffffffffff\n      mul\n      not\n      and\n      swap1\n      dup4\n      0xffffffffffffffffffffffffffffffffffffffff\n      and\n      mul\n      or\n      swap1\n      sstore\n      pop\n      0x20\n      dup3\n      add\n      mload\n      dup2\n      0x01\n      add\n      sstore\n      0x40\n      dup3\n      add\n      mload\n      dup2\n      0x02\n      add\n      sstore\n      swap1\n      pop\n      pop\n        /* \"contracts/MyNftMarket.sol\":2296:2302  market */\n      0x01\n        /* \"contracts/MyNftMarket.sol\":2296:2308  market.pop() */\n      dup1\n      sload\n      dup1\n      tag_105\n      jumpi\n      tag_106\n      tag_80\n      jump\t// in\n    tag_106:\n    tag_105:\n      0x01\n      swap1\n      sub\n      dup2\n      dup2\n      swap1\n      0x00\n      mstore\n      keccak256(0x00, 0x20)\n      swap1\n      0x03\n      mul\n      add\n      0x00\n      dup1\n      dup3\n      add\n      exp(0x0100, 0x00)\n      dup2\n      sload\n      swap1\n      0xffffffffffffffffffffffffffffffffffffffff\n      mul\n      not\n      and\n      swap1\n      sstore\n      0x01\n      dup3\n      add\n      0x00\n      swap1\n      sstore\n      0x02\n      dup3\n      add\n      0x00\n      swap1\n      sstore\n      pop\n      pop\n      swap1\n      sstore\n        /* \"contracts/MyNftMarket.sol\":2421:2429  marketId */\n      dup2\n        /* \"contracts/MyNftMarket.sol\":2371:2388  nftInfoToMarketId */\n      0x02\n        /* \"contracts/MyNftMarket.sol\":2371:2402  nftInfoToMarketId[saleInfo.nft] */\n      0x00\n        /* \"contracts/MyNftMarket.sol\":2389:2397  saleInfo */\n      dup4\n        /* \"contracts/MyNftMarket.sol\":2389:2401  saleInfo.nft */\n      0x00\n      add\n      mload\n        /* \"contracts/MyNftMarket.sol\":2371:2402  nftInfoToMarketId[saleInfo.nft] */\n      0xffffffffffffffffffffffffffffffffffffffff\n      and\n      0xffffffffffffffffffffffffffffffffffffffff\n      and\n      dup2\n      mstore\n      0x20\n      add\n      swap1\n      dup2\n      mstore\n      0x20\n      add\n      0x00\n      keccak256\n        /* \"contracts/MyNftMarket.sol\":2371:2418  nftInfoToMarketId[saleInfo.nft][saleInfo.nftId] */\n      0x00\n        /* \"contracts/MyNftMarket.sol\":2403:2411  saleInfo */\n      dup4\n        /* \"contracts/MyNftMarket.sol\":2403:2417  saleInfo.nftId */\n      0x20\n      add\n      mload\n        /* \"contracts/MyNftMarket.sol\":2371:2418  nftInfoToMarketId[saleInfo.nft][saleInfo.nftId] */\n      dup2\n      mstore\n      0x20\n      add\n      swap1\n      dup2\n      mstore\n      0x20\n      add\n      0x00\n      keccak256\n        /* \"contracts/MyNftMarket.sol\":2371:2429  nftInfoToMarketId[saleInfo.nft][saleInfo.nftId] = marketId */\n      dup2\n      swap1\n      sstore\n      pop\n        /* \"contracts/MyNftMarket.sol\":2548:2549  0 */\n      0x00\n        /* \"contracts/MyNftMarket.sol\":2500:2521  nftInfoToSalerAccount */\n      0x03\n        /* \"contracts/MyNftMarket.sol\":2500:2530  nftInfoToSalerAccount[nftAddr] */\n      0x00\n        /* \"contracts/MyNftMarket.sol\":2522:2529  nftAddr */\n      dup8\n        /* \"contracts/MyNftMarket.sol\":2500:2530  nftInfoToSalerAccount[nftAddr] */\n      0xffffffffffffffffffffffffffffffffffffffff\n      and\n      0xffffffffffffffffffffffffffffffffffffffff\n      and\n      dup2\n      mstore\n      0x20\n      add\n      swap1\n      dup2\n      mstore\n      0x20\n      add\n      0x00\n      keccak256\n        /* \"contracts/MyNftMarket.sol\":2500:2537  nftInfoToSalerAccount[nftAddr][nftId] */\n      0x00\n        /* \"contracts/MyNftMarket.sol\":2531:2536  nftId */\n      dup7\n        /* \"contracts/MyNftMarket.sol\":2500:2537  nftInfoToSalerAccount[nftAddr][nftId] */\n      dup2\n      mstore\n      0x20\n      add\n      swap1\n      dup2\n      mstore\n      0x20\n      add\n      0x00\n      keccak256\n      0x00\n        /* \"contracts/MyNftMarket.sol\":2500:2550  nftInfoToSalerAccount[nftAddr][nftId] = address(0) */\n      0x0100\n      exp\n      dup2\n      sload\n      dup2\n      0xffffffffffffffffffffffffffffffffffffffff\n      mul\n      not\n      and\n      swap1\n      dup4\n      0xffffffffffffffffffffffffffffffffffffffff\n      and\n      mul\n      or\n      swap1\n      sstore\n      pop\n        /* \"contracts/MyNftMarket.sol\":2613:2632  IERC721 nftContract */\n      0x00\n        /* \"contracts/MyNftMarket.sol\":2643:2650  nftAddr */\n      dup6\n        /* \"contracts/MyNftMarket.sol\":2613:2651  IERC721 nftContract = IERC721(nftAddr) */\n      swap1\n      pop\n        /* \"contracts/MyNftMarket.sol\":2661:2672  nftContract */\n      dup1\n        /* \"contracts/MyNftMarket.sol\":2661:2689  nftContract.safeTransferFrom */\n      0xffffffffffffffffffffffffffffffffffffffff\n      and\n      0x42842e0e\n        /* \"contracts/MyNftMarket.sol\":2698:2702  this */\n      address\n        /* \"contracts/MyNftMarket.sol\":2705:2710  saler */\n      dup7\n        /* \"contracts/MyNftMarket.sol\":2712:2717  nftId */\n      dup9\n        /* \"contracts/MyNftMarket.sol\":2661:2718  nftContract.safeTransferFrom(address(this), saler, nftId) */\n      mload(0x40)\n      dup5\n      0xffffffff\n      and\n      0xe0\n      shl\n      dup2\n      mstore\n      0x04\n      add\n      tag_108\n      swap4\n      swap3\n      swap2\n      swap1\n      tag_83\n      jump\t// in\n    tag_108:\n      0x00\n      mload(0x40)\n      dup1\n      dup4\n      sub\n      dup2\n      0x00\n      dup8\n      dup1\n      extcodesize\n      iszero\n      dup1\n      iszero\n      tag_109\n      jumpi\n      0x00\n      dup1\n      revert\n    tag_109:\n      pop\n      gas\n      call\n      iszero\n      dup1\n      iszero\n      tag_111\n      jumpi\n      returndatasize\n      0x00\n      dup1\n      returndatacopy\n      revert(0x00, returndatasize)\n    tag_111:\n      pop\n      pop\n      pop\n      pop\n        /* \"contracts/MyNftMarket.sol\":1782:2725  {... */\n      pop\n      pop\n      pop\n      pop\n        /* \"contracts/MyNftMarket.sol\":1730:2725  function unsale(address nftAddr, uint nftId) public {... */\n      pop\n      pop\n      jump\t// out\n        /* \"contracts/MyNftMarket.sol\":4428:4700  function bytesToAddrAndUint(bytes memory data) public pure returns (address, uint256) {... */\n    tag_45:\n        /* \"contracts/MyNftMarket.sol\":4496:4503  address */\n      0x00\n        /* \"contracts/MyNftMarket.sol\":4505:4512  uint256 */\n      dup1\n        /* \"contracts/MyNftMarket.sol\":4596:4608  address addr */\n      0x00\n        /* \"contracts/MyNftMarket.sol\":4610:4623  uint256 value */\n      dup1\n        /* \"contracts/MyNftMarket.sol\":4638:4642  data */\n      dup5\n        /* \"contracts/MyNftMarket.sol\":4627:4663  abi.decode(data, (address, uint256)) */\n      dup1\n      0x20\n      add\n      swap1\n      mload\n      dup2\n      add\n      swap1\n      tag_113\n      swap2\n      swap1\n      tag_114\n      jump\t// in\n    tag_113:\n        /* \"contracts/MyNftMarket.sol\":4595:4663  (address addr, uint256 value) = abi.decode(data, (address, uint256)) */\n      swap2\n      pop\n      swap2\n      pop\n        /* \"contracts/MyNftMarket.sol\":4681:4685  addr */\n      dup2\n        /* \"contracts/MyNftMarket.sol\":4687:4692  value */\n      dup2\n        /* \"contracts/MyNftMarket.sol\":4673:4693  return (addr, value) */\n      swap4\n      pop\n      swap4\n      pop\n      pop\n      pop\n        /* \"contracts/MyNftMarket.sol\":4428:4700  function bytesToAddrAndUint(bytes memory data) public pure returns (address, uint256) {... */\n      swap2\n      pop\n      swap2\n      jump\t// out\n        /* \"contracts/MyNftMarket.sol\":4221:4418  function bytesToUint(bytes memory data) private pure returns (uint256) {... */\n    tag_53:\n        /* \"contracts/MyNftMarket.sol\":4283:4290  uint256 */\n      0x00\n        /* \"contracts/MyNftMarket.sol\":4302:4316  uint256 result */\n      dup1\n        /* \"contracts/MyNftMarket.sol\":4375:4377  32 */\n      0x20\n        /* \"contracts/MyNftMarket.sol\":4369:4373  data */\n      dup4\n        /* \"contracts/MyNftMarket.sol\":4365:4378  add(data, 32) */\n      add\n        /* \"contracts/MyNftMarket.sol\":4359:4379  mload(add(data, 32)) */\n      mload\n        /* \"contracts/MyNftMarket.sol\":4349:4379  result := mload(add(data, 32)) */\n      swap1\n      pop\n        /* \"contracts/MyNftMarket.sol\":4405:4411  result */\n      dup1\n        /* \"contracts/MyNftMarket.sol\":4398:4411  return result */\n      swap2\n      pop\n      pop\n        /* \"contracts/MyNftMarket.sol\":4221:4418  function bytesToUint(bytes memory data) private pure returns (uint256) {... */\n      swap2\n      swap1\n      pop\n      jump\t// out\n        /* \"#utility.yul\":7:82   */\n    tag_116:\n        /* \"#utility.yul\":40:46   */\n      0x00\n        /* \"#utility.yul\":73:75   */\n      0x40\n        /* \"#utility.yul\":67:76   */\n      mload\n        /* \"#utility.yul\":57:76   */\n      swap1\n      pop\n        /* \"#utility.yul\":7:82   */\n      swap1\n      jump\t// out\n        /* \"#utility.yul\":88:205   */\n    tag_117:\n        /* \"#utility.yul\":197:198   */\n      0x00\n        /* \"#utility.yul\":194:195   */\n      dup1\n        /* \"#utility.yul\":187:199   */\n      revert\n        /* \"#utility.yul\":211:328   */\n    tag_118:\n        /* \"#utility.yul\":320:321   */\n      0x00\n        /* \"#utility.yul\":317:318   */\n      dup1\n        /* \"#utility.yul\":310:322   */\n      revert\n        /* \"#utility.yul\":334:460   */\n    tag_119:\n        /* \"#utility.yul\":371:378   */\n      0x00\n        /* \"#utility.yul\":411:453   */\n      0xffffffffffffffffffffffffffffffffffffffff\n        /* \"#utility.yul\":404:409   */\n      dup3\n        /* \"#utility.yul\":400:454   */\n      and\n        /* \"#utility.yul\":389:454   */\n      swap1\n      pop\n        /* \"#utility.yul\":334:460   */\n      swap2\n      swap1\n      pop\n      jump\t// out\n        /* \"#utility.yul\":466:562   */\n    tag_120:\n        /* \"#utility.yul\":503:510   */\n      0x00\n        /* \"#utility.yul\":532:556   */\n      tag_166\n        /* \"#utility.yul\":550:555   */\n      dup3\n        /* \"#utility.yul\":532:556   */\n      tag_119\n      jump\t// in\n    tag_166:\n        /* \"#utility.yul\":521:556   */\n      swap1\n      pop\n        /* \"#utility.yul\":466:562   */\n      swap2\n      swap1\n      pop\n      jump\t// out\n        /* \"#utility.yul\":568:690   */\n    tag_121:\n        /* \"#utility.yul\":641:665   */\n      tag_168\n        /* \"#utility.yul\":659:664   */\n      dup2\n        /* \"#utility.yul\":641:665   */\n      tag_120\n      jump\t// in\n    tag_168:\n        /* \"#utility.yul\":634:639   */\n      dup2\n        /* \"#utility.yul\":631:666   */\n      eq\n        /* \"#utility.yul\":621:684   */\n      tag_169\n      jumpi\n        /* \"#utility.yul\":680:681   */\n      0x00\n        /* \"#utility.yul\":677:678   */\n      dup1\n        /* \"#utility.yul\":670:682   */\n      revert\n        /* \"#utility.yul\":621:684   */\n    tag_169:\n        /* \"#utility.yul\":568:690   */\n      pop\n      jump\t// out\n        /* \"#utility.yul\":696:835   */\n    tag_122:\n        /* \"#utility.yul\":742:747   */\n      0x00\n        /* \"#utility.yul\":780:786   */\n      dup2\n        /* \"#utility.yul\":767:787   */\n      calldataload\n        /* \"#utility.yul\":758:787   */\n      swap1\n      pop\n        /* \"#utility.yul\":796:829   */\n      tag_171\n        /* \"#utility.yul\":823:828   */\n      dup2\n        /* \"#utility.yul\":796:829   */\n      tag_121\n      jump\t// in\n    tag_171:\n        /* \"#utility.yul\":696:835   */\n      swap3\n      swap2\n      pop\n      pop\n      jump\t// out\n        /* \"#utility.yul\":841:918   */\n    tag_123:\n        /* \"#utility.yul\":878:885   */\n      0x00\n        /* \"#utility.yul\":907:912   */\n      dup2\n        /* \"#utility.yul\":896:912   */\n      swap1\n      pop\n        /* \"#utility.yul\":841:918   */\n      swap2\n      swap1\n      pop\n      jump\t// out\n        /* \"#utility.yul\":924:1046   */\n    tag_124:\n        /* \"#utility.yul\":997:1021   */\n      tag_174\n        /* \"#utility.yul\":1015:1020   */\n      dup2\n        /* \"#utility.yul\":997:1021   */\n      tag_123\n      jump\t// in\n    tag_174:\n        /* \"#utility.yul\":990:995   */\n      dup2\n        /* \"#utility.yul\":987:1022   */\n      eq\n        /* \"#utility.yul\":977:1040   */\n      tag_175\n      jumpi\n        /* \"#utility.yul\":1036:1037   */\n      0x00\n        /* \"#utility.yul\":1033:1034   */\n      dup1\n        /* \"#utility.yul\":1026:1038   */\n      revert\n        /* \"#utility.yul\":977:1040   */\n    tag_175:\n        /* \"#utility.yul\":924:1046   */\n      pop\n      jump\t// out\n        /* \"#utility.yul\":1052:1191   */\n    tag_125:\n        /* \"#utility.yul\":1098:1103   */\n      0x00\n        /* \"#utility.yul\":1136:1142   */\n      dup2\n        /* \"#utility.yul\":1123:1143   */\n      calldataload\n        /* \"#utility.yul\":1114:1143   */\n      swap1\n      pop\n        /* \"#utility.yul\":1152:1185   */\n      tag_177\n        /* \"#utility.yul\":1179:1184   */\n      dup2\n        /* \"#utility.yul\":1152:1185   */\n      tag_124\n      jump\t// in\n    tag_177:\n        /* \"#utility.yul\":1052:1191   */\n      swap3\n      swap2\n      pop\n      pop\n      jump\t// out\n        /* \"#utility.yul\":1197:1314   */\n    tag_126:\n        /* \"#utility.yul\":1306:1307   */\n      0x00\n        /* \"#utility.yul\":1303:1304   */\n      dup1\n        /* \"#utility.yul\":1296:1308   */\n      revert\n        /* \"#utility.yul\":1320:1437   */\n    tag_127:\n        /* \"#utility.yul\":1429:1430   */\n      0x00\n        /* \"#utility.yul\":1426:1427   */\n      dup1\n        /* \"#utility.yul\":1419:1431   */\n      revert\n        /* \"#utility.yul\":1443:1560   */\n    tag_128:\n        /* \"#utility.yul\":1552:1553   */\n      0x00\n        /* \"#utility.yul\":1549:1550   */\n      dup1\n        /* \"#utility.yul\":1542:1554   */\n      revert\n        /* \"#utility.yul\":1579:2131   */\n    tag_129:\n        /* \"#utility.yul\":1636:1644   */\n      0x00\n        /* \"#utility.yul\":1646:1652   */\n      dup1\n        /* \"#utility.yul\":1696:1699   */\n      dup4\n        /* \"#utility.yul\":1689:1693   */\n      0x1f\n        /* \"#utility.yul\":1681:1687   */\n      dup5\n        /* \"#utility.yul\":1677:1694   */\n      add\n        /* \"#utility.yul\":1673:1700   */\n      slt\n        /* \"#utility.yul\":1663:1785   */\n      tag_182\n      jumpi\n        /* \"#utility.yul\":1704:1783   */\n      tag_183\n      tag_126\n      jump\t// in\n    tag_183:\n        /* \"#utility.yul\":1663:1785   */\n    tag_182:\n        /* \"#utility.yul\":1817:1823   */\n      dup3\n        /* \"#utility.yul\":1804:1824   */\n      calldataload\n        /* \"#utility.yul\":1794:1824   */\n      swap1\n      pop\n        /* \"#utility.yul\":1847:1865   */\n      0xffffffffffffffff\n        /* \"#utility.yul\":1839:1845   */\n      dup2\n        /* \"#utility.yul\":1836:1866   */\n      gt\n        /* \"#utility.yul\":1833:1950   */\n      iszero\n      tag_184\n      jumpi\n        /* \"#utility.yul\":1869:1948   */\n      tag_185\n      tag_127\n      jump\t// in\n    tag_185:\n        /* \"#utility.yul\":1833:1950   */\n    tag_184:\n        /* \"#utility.yul\":1983:1987   */\n      0x20\n        /* \"#utility.yul\":1975:1981   */\n      dup4\n        /* \"#utility.yul\":1971:1988   */\n      add\n        /* \"#utility.yul\":1959:1988   */\n      swap2\n      pop\n        /* \"#utility.yul\":2037:2040   */\n      dup4\n        /* \"#utility.yul\":2029:2033   */\n      0x01\n        /* \"#utility.yul\":2021:2027   */\n      dup3\n        /* \"#utility.yul\":2017:2034   */\n      mul\n        /* \"#utility.yul\":2007:2015   */\n      dup4\n        /* \"#utility.yul\":2003:2035   */\n      add\n        /* \"#utility.yul\":2000:2041   */\n      gt\n        /* \"#utility.yul\":1997:2125   */\n      iszero\n      tag_186\n      jumpi\n        /* \"#utility.yul\":2044:2123   */\n      tag_187\n      tag_128\n      jump\t// in\n    tag_187:\n        /* \"#utility.yul\":1997:2125   */\n    tag_186:\n        /* \"#utility.yul\":1579:2131   */\n      swap3\n      pop\n      swap3\n      swap1\n      pop\n      jump\t// out\n        /* \"#utility.yul\":2137:3100   */\n    tag_13:\n        /* \"#utility.yul\":2234:2240   */\n      0x00\n        /* \"#utility.yul\":2242:2248   */\n      dup1\n        /* \"#utility.yul\":2250:2256   */\n      0x00\n        /* \"#utility.yul\":2258:2264   */\n      dup1\n        /* \"#utility.yul\":2266:2272   */\n      0x00\n        /* \"#utility.yul\":2315:2318   */\n      0x80\n        /* \"#utility.yul\":2303:2312   */\n      dup7\n        /* \"#utility.yul\":2294:2301   */\n      dup9\n        /* \"#utility.yul\":2290:2313   */\n      sub\n        /* \"#utility.yul\":2286:2319   */\n      slt\n        /* \"#utility.yul\":2283:2403   */\n      iszero\n      tag_189\n      jumpi\n        /* \"#utility.yul\":2322:2401   */\n      tag_190\n      tag_117\n      jump\t// in\n    tag_190:\n        /* \"#utility.yul\":2283:2403   */\n    tag_189:\n        /* \"#utility.yul\":2442:2443   */\n      0x00\n        /* \"#utility.yul\":2467:2520   */\n      tag_191\n        /* \"#utility.yul\":2512:2519   */\n      dup9\n        /* \"#utility.yul\":2503:2509   */\n      dup3\n        /* \"#utility.yul\":2492:2501   */\n      dup10\n        /* \"#utility.yul\":2488:2510   */\n      add\n        /* \"#utility.yul\":2467:2520   */\n      tag_122\n      jump\t// in\n    tag_191:\n        /* \"#utility.yul\":2457:2520   */\n      swap6\n      pop\n        /* \"#utility.yul\":2413:2530   */\n      pop\n        /* \"#utility.yul\":2569:2571   */\n      0x20\n        /* \"#utility.yul\":2595:2648   */\n      tag_192\n        /* \"#utility.yul\":2640:2647   */\n      dup9\n        /* \"#utility.yul\":2631:2637   */\n      dup3\n        /* \"#utility.yul\":2620:2629   */\n      dup10\n        /* \"#utility.yul\":2616:2638   */\n      add\n        /* \"#utility.yul\":2595:2648   */\n      tag_122\n      jump\t// in\n    tag_192:\n        /* \"#utility.yul\":2585:2648   */\n      swap5\n      pop\n        /* \"#utility.yul\":2540:2658   */\n      pop\n        /* \"#utility.yul\":2697:2699   */\n      0x40\n        /* \"#utility.yul\":2723:2776   */\n      tag_193\n        /* \"#utility.yul\":2768:2775   */\n      dup9\n        /* \"#utility.yul\":2759:2765   */\n      dup3\n        /* \"#utility.yul\":2748:2757   */\n      dup10\n        /* \"#utility.yul\":2744:2766   */\n      add\n        /* \"#utility.yul\":2723:2776   */\n      tag_125\n      jump\t// in\n    tag_193:\n        /* \"#utility.yul\":2713:2776   */\n      swap4\n      pop\n        /* \"#utility.yul\":2668:2786   */\n      pop\n        /* \"#utility.yul\":2853:2855   */\n      0x60\n        /* \"#utility.yul\":2842:2851   */\n      dup7\n        /* \"#utility.yul\":2838:2856   */\n      add\n        /* \"#utility.yul\":2825:2857   */\n      calldataload\n        /* \"#utility.yul\":2884:2902   */\n      0xffffffffffffffff\n        /* \"#utility.yul\":2876:2882   */\n      dup2\n        /* \"#utility.yul\":2873:2903   */\n      gt\n        /* \"#utility.yul\":2870:2987   */\n      iszero\n      tag_194\n      jumpi\n        /* \"#utility.yul\":2906:2985   */\n      tag_195\n      tag_118\n      jump\t// in\n    tag_195:\n        /* \"#utility.yul\":2870:2987   */\n    tag_194:\n        /* \"#utility.yul\":3019:3083   */\n      tag_196\n        /* \"#utility.yul\":3075:3082   */\n      dup9\n        /* \"#utility.yul\":3066:3072   */\n      dup3\n        /* \"#utility.yul\":3055:3064   */\n      dup10\n        /* \"#utility.yul\":3051:3073   */\n      add\n        /* \"#utility.yul\":3019:3083   */\n      tag_129\n      jump\t// in\n    tag_196:\n        /* \"#utility.yul\":3001:3083   */\n      swap3\n      pop\n      swap3\n      pop\n        /* \"#utility.yul\":2796:3093   */\n      pop\n        /* \"#utility.yul\":2137:3100   */\n      swap3\n      swap6\n      pop\n      swap3\n      swap6\n      swap1\n      swap4\n      pop\n      jump\t// out\n        /* \"#utility.yul\":3106:3255   */\n    tag_130:\n        /* \"#utility.yul\":3142:3149   */\n      0x00\n        /* \"#utility.yul\":3182:3248   */\n      0xffffffff00000000000000000000000000000000000000000000000000000000\n        /* \"#utility.yul\":3175:3180   */\n      dup3\n        /* \"#utility.yul\":3171:3249   */\n      and\n        /* \"#utility.yul\":3160:3249   */\n      swap1\n      pop\n        /* \"#utility.yul\":3106:3255   */\n      swap2\n      swap1\n      pop\n      jump\t// out\n        /* \"#utility.yul\":3261:3376   */\n    tag_131:\n        /* \"#utility.yul\":3346:3369   */\n      tag_199\n        /* \"#utility.yul\":3363:3368   */\n      dup2\n        /* \"#utility.yul\":3346:3369   */\n      tag_130\n      jump\t// in\n    tag_199:\n        /* \"#utility.yul\":3341:3344   */\n      dup3\n        /* \"#utility.yul\":3334:3370   */\n      mstore\n        /* \"#utility.yul\":3261:3376   */\n      pop\n      pop\n      jump\t// out\n        /* \"#utility.yul\":3382:3600   */\n    tag_16:\n        /* \"#utility.yul\":3473:3477   */\n      0x00\n        /* \"#utility.yul\":3511:3513   */\n      0x20\n        /* \"#utility.yul\":3500:3509   */\n      dup3\n        /* \"#utility.yul\":3496:3514   */\n      add\n        /* \"#utility.yul\":3488:3514   */\n      swap1\n      pop\n        /* \"#utility.yul\":3524:3593   */\n      tag_201\n        /* \"#utility.yul\":3590:3591   */\n      0x00\n        /* \"#utility.yul\":3579:3588   */\n      dup4\n        /* \"#utility.yul\":3575:3592   */\n      add\n        /* \"#utility.yul\":3566:3572   */\n      dup5\n        /* \"#utility.yul\":3524:3593   */\n      tag_131\n      jump\t// in\n    tag_201:\n        /* \"#utility.yul\":3382:3600   */\n      swap3\n      swap2\n      pop\n      pop\n      jump\t// out\n        /* \"#utility.yul\":3606:3935   */\n    tag_19:\n        /* \"#utility.yul\":3665:3671   */\n      0x00\n        /* \"#utility.yul\":3714:3716   */\n      0x20\n        /* \"#utility.yul\":3702:3711   */\n      dup3\n        /* \"#utility.yul\":3693:3700   */\n      dup5\n        /* \"#utility.yul\":3689:3712   */\n      sub\n        /* \"#utility.yul\":3685:3717   */\n      slt\n        /* \"#utility.yul\":3682:3801   */\n      iszero\n      tag_203\n      jumpi\n        /* \"#utility.yul\":3720:3799   */\n      tag_204\n      tag_117\n      jump\t// in\n    tag_204:\n        /* \"#utility.yul\":3682:3801   */\n    tag_203:\n        /* \"#utility.yul\":3840:3841   */\n      0x00\n        /* \"#utility.yul\":3865:3918   */\n      tag_205\n        /* \"#utility.yul\":3910:3917   */\n      dup5\n        /* \"#utility.yul\":3901:3907   */\n      dup3\n        /* \"#utility.yul\":3890:3899   */\n      dup6\n        /* \"#utility.yul\":3886:3908   */\n      add\n        /* \"#utility.yul\":3865:3918   */\n      tag_125\n      jump\t// in\n    tag_205:\n        /* \"#utility.yul\":3855:3918   */\n      swap2\n      pop\n        /* \"#utility.yul\":3811:3928   */\n      pop\n        /* \"#utility.yul\":3606:3935   */\n      swap3\n      swap2\n      pop\n      pop\n      jump\t// out\n        /* \"#utility.yul\":3941:4059   */\n    tag_132:\n        /* \"#utility.yul\":4028:4052   */\n      tag_207\n        /* \"#utility.yul\":4046:4051   */\n      dup2\n        /* \"#utility.yul\":4028:4052   */\n      tag_120\n      jump\t// in\n    tag_207:\n        /* \"#utility.yul\":4023:4026   */\n      dup3\n        /* \"#utility.yul\":4016:4053   */\n      mstore\n        /* \"#utility.yul\":3941:4059   */\n      pop\n      pop\n      jump\t// out\n        /* \"#utility.yul\":4065:4183   */\n    tag_133:\n        /* \"#utility.yul\":4152:4176   */\n      tag_209\n        /* \"#utility.yul\":4170:4175   */\n      dup2\n        /* \"#utility.yul\":4152:4176   */\n      tag_123\n      jump\t// in\n    tag_209:\n        /* \"#utility.yul\":4147:4150   */\n      dup3\n        /* \"#utility.yul\":4140:4177   */\n      mstore\n        /* \"#utility.yul\":4065:4183   */\n      pop\n      pop\n      jump\t// out\n        /* \"#utility.yul\":4189:4631   */\n    tag_22:\n        /* \"#utility.yul\":4338:4342   */\n      0x00\n        /* \"#utility.yul\":4376:4378   */\n      0x60\n        /* \"#utility.yul\":4365:4374   */\n      dup3\n        /* \"#utility.yul\":4361:4379   */\n      add\n        /* \"#utility.yul\":4353:4379   */\n      swap1\n      pop\n        /* \"#utility.yul\":4389:4460   */\n      tag_211\n        /* \"#utility.yul\":4457:4458   */\n      0x00\n        /* \"#utility.yul\":4446:4455   */\n      dup4\n        /* \"#utility.yul\":4442:4459   */\n      add\n        /* \"#utility.yul\":4433:4439   */\n      dup7\n        /* \"#utility.yul\":4389:4460   */\n      tag_132\n      jump\t// in\n    tag_211:\n        /* \"#utility.yul\":4470:4542   */\n      tag_212\n        /* \"#utility.yul\":4538:4540   */\n      0x20\n        /* \"#utility.yul\":4527:4536   */\n      dup4\n        /* \"#utility.yul\":4523:4541   */\n      add\n        /* \"#utility.yul\":4514:4520   */\n      dup6\n        /* \"#utility.yul\":4470:4542   */\n      tag_133\n      jump\t// in\n    tag_212:\n        /* \"#utility.yul\":4552:4624   */\n      tag_213\n        /* \"#utility.yul\":4620:4622   */\n      0x40\n        /* \"#utility.yul\":4609:4618   */\n      dup4\n        /* \"#utility.yul\":4605:4623   */\n      add\n        /* \"#utility.yul\":4596:4602   */\n      dup5\n        /* \"#utility.yul\":4552:4624   */\n      tag_133\n      jump\t// in\n    tag_213:\n        /* \"#utility.yul\":4189:4631   */\n      swap5\n      swap4\n      pop\n      pop\n      pop\n      pop\n      jump\t// out\n        /* \"#utility.yul\":4637:5111   */\n    tag_25:\n        /* \"#utility.yul\":4705:4711   */\n      0x00\n        /* \"#utility.yul\":4713:4719   */\n      dup1\n        /* \"#utility.yul\":4762:4764   */\n      0x40\n        /* \"#utility.yul\":4750:4759   */\n      dup4\n        /* \"#utility.yul\":4741:4748   */\n      dup6\n        /* \"#utility.yul\":4737:4760   */\n      sub\n        /* \"#utility.yul\":4733:4765   */\n      slt\n        /* \"#utility.yul\":4730:4849   */\n      iszero\n      tag_215\n      jumpi\n        /* \"#utility.yul\":4768:4847   */\n      tag_216\n      tag_117\n      jump\t// in\n    tag_216:\n        /* \"#utility.yul\":4730:4849   */\n    tag_215:\n        /* \"#utility.yul\":4888:4889   */\n      0x00\n        /* \"#utility.yul\":4913:4966   */\n      tag_217\n        /* \"#utility.yul\":4958:4965   */\n      dup6\n        /* \"#utility.yul\":4949:4955   */\n      dup3\n        /* \"#utility.yul\":4938:4947   */\n      dup7\n        /* \"#utility.yul\":4934:4956   */\n      add\n        /* \"#utility.yul\":4913:4966   */\n      tag_122\n      jump\t// in\n    tag_217:\n        /* \"#utility.yul\":4903:4966   */\n      swap3\n      pop\n        /* \"#utility.yul\":4859:4976   */\n      pop\n        /* \"#utility.yul\":5015:5017   */\n      0x20\n        /* \"#utility.yul\":5041:5094   */\n      tag_218\n        /* \"#utility.yul\":5086:5093   */\n      dup6\n        /* \"#utility.yul\":5077:5083   */\n      dup3\n        /* \"#utility.yul\":5066:5075   */\n      dup7\n        /* \"#utility.yul\":5062:5084   */\n      add\n        /* \"#utility.yul\":5041:5094   */\n      tag_125\n      jump\t// in\n    tag_218:\n        /* \"#utility.yul\":5031:5094   */\n      swap2\n      pop\n        /* \"#utility.yul\":4986:5104   */\n      pop\n        /* \"#utility.yul\":4637:5111   */\n      swap3\n      pop\n      swap3\n      swap1\n      pop\n      jump\t// out\n        /* \"#utility.yul\":5117:5339   */\n    tag_28:\n        /* \"#utility.yul\":5210:5214   */\n      0x00\n        /* \"#utility.yul\":5248:5250   */\n      0x20\n        /* \"#utility.yul\":5237:5246   */\n      dup3\n        /* \"#utility.yul\":5233:5251   */\n      add\n        /* \"#utility.yul\":5225:5251   */\n      swap1\n      pop\n        /* \"#utility.yul\":5261:5332   */\n      tag_220\n        /* \"#utility.yul\":5329:5330   */\n      0x00\n        /* \"#utility.yul\":5318:5327   */\n      dup4\n        /* \"#utility.yul\":5314:5331   */\n      add\n        /* \"#utility.yul\":5305:5311   */\n      dup5\n        /* \"#utility.yul\":5261:5332   */\n      tag_132\n      jump\t// in\n    tag_220:\n        /* \"#utility.yul\":5117:5339   */\n      swap3\n      swap2\n      pop\n      pop\n      jump\t// out\n        /* \"#utility.yul\":5345:5567   */\n    tag_33:\n        /* \"#utility.yul\":5438:5442   */\n      0x00\n        /* \"#utility.yul\":5476:5478   */\n      0x20\n        /* \"#utility.yul\":5465:5474   */\n      dup3\n        /* \"#utility.yul\":5461:5479   */\n      add\n        /* \"#utility.yul\":5453:5479   */\n      swap1\n      pop\n        /* \"#utility.yul\":5489:5560   */\n      tag_222\n        /* \"#utility.yul\":5557:5558   */\n      0x00\n        /* \"#utility.yul\":5546:5555   */\n      dup4\n        /* \"#utility.yul\":5542:5559   */\n      add\n        /* \"#utility.yul\":5533:5539   */\n      dup5\n        /* \"#utility.yul\":5489:5560   */\n      tag_133\n      jump\t// in\n    tag_222:\n        /* \"#utility.yul\":5345:5567   */\n      swap3\n      swap2\n      pop\n      pop\n      jump\t// out\n        /* \"#utility.yul\":5573:5690   */\n    tag_134:\n        /* \"#utility.yul\":5682:5683   */\n      0x00\n        /* \"#utility.yul\":5679:5680   */\n      dup1\n        /* \"#utility.yul\":5672:5684   */\n      revert\n        /* \"#utility.yul\":5696:5798   */\n    tag_135:\n        /* \"#utility.yul\":5737:5743   */\n      0x00\n        /* \"#utility.yul\":5788:5790   */\n      0x1f\n        /* \"#utility.yul\":5784:5791   */\n      not\n        /* \"#utility.yul\":5779:5781   */\n      0x1f\n        /* \"#utility.yul\":5772:5777   */\n      dup4\n        /* \"#utility.yul\":5768:5782   */\n      add\n        /* \"#utility.yul\":5764:5792   */\n      and\n        /* \"#utility.yul\":5754:5792   */\n      swap1\n      pop\n        /* \"#utility.yul\":5696:5798   */\n      swap2\n      swap1\n      pop\n      jump\t// out\n        /* \"#utility.yul\":5804:5984   */\n    tag_136:\n        /* \"#utility.yul\":5852:5929   */\n      0x4e487b7100000000000000000000000000000000000000000000000000000000\n        /* \"#utility.yul\":5849:5850   */\n      0x00\n        /* \"#utility.yul\":5842:5930   */\n      mstore\n        /* \"#utility.yul\":5949:5953   */\n      0x41\n        /* \"#utility.yul\":5946:5947   */\n      0x04\n        /* \"#utility.yul\":5939:5954   */\n      mstore\n        /* \"#utility.yul\":5973:5977   */\n      0x24\n        /* \"#utility.yul\":5970:5971   */\n      0x00\n        /* \"#utility.yul\":5963:5978   */\n      revert\n        /* \"#utility.yul\":5990:6271   */\n    tag_137:\n        /* \"#utility.yul\":6073:6100   */\n      tag_227\n        /* \"#utility.yul\":6095:6099   */\n      dup3\n        /* \"#utility.yul\":6073:6100   */\n      tag_135\n      jump\t// in\n    tag_227:\n        /* \"#utility.yul\":6065:6071   */\n      dup2\n        /* \"#utility.yul\":6061:6101   */\n      add\n        /* \"#utility.yul\":6203:6209   */\n      dup2\n        /* \"#utility.yul\":6191:6201   */\n      dup2\n        /* \"#utility.yul\":6188:6210   */\n      lt\n        /* \"#utility.yul\":6167:6185   */\n      0xffffffffffffffff\n        /* \"#utility.yul\":6155:6165   */\n      dup3\n        /* \"#utility.yul\":6152:6186   */\n      gt\n        /* \"#utility.yul\":6149:6211   */\n      or\n        /* \"#utility.yul\":6146:6234   */\n      iszero\n      tag_228\n      jumpi\n        /* \"#utility.yul\":6214:6232   */\n      tag_229\n      tag_136\n      jump\t// in\n    tag_229:\n        /* \"#utility.yul\":6146:6234   */\n    tag_228:\n        /* \"#utility.yul\":6254:6264   */\n      dup1\n        /* \"#utility.yul\":6250:6252   */\n      0x40\n        /* \"#utility.yul\":6243:6265   */\n      mstore\n        /* \"#utility.yul\":6033:6271   */\n      pop\n        /* \"#utility.yul\":5990:6271   */\n      pop\n      pop\n      jump\t// out\n        /* \"#utility.yul\":6277:6406   */\n    tag_138:\n        /* \"#utility.yul\":6311:6317   */\n      0x00\n        /* \"#utility.yul\":6338:6358   */\n      tag_231\n      tag_116\n      jump\t// in\n    tag_231:\n        /* \"#utility.yul\":6328:6358   */\n      swap1\n      pop\n        /* \"#utility.yul\":6367:6400   */\n      tag_232\n        /* \"#utility.yul\":6395:6399   */\n      dup3\n        /* \"#utility.yul\":6387:6393   */\n      dup3\n        /* \"#utility.yul\":6367:6400   */\n      tag_137\n      jump\t// in\n    tag_232:\n        /* \"#utility.yul\":6277:6406   */\n      swap2\n      swap1\n      pop\n      jump\t// out\n        /* \"#utility.yul\":6412:6719   */\n    tag_139:\n        /* \"#utility.yul\":6473:6477   */\n      0x00\n        /* \"#utility.yul\":6563:6581   */\n      0xffffffffffffffff\n        /* \"#utility.yul\":6555:6561   */\n      dup3\n        /* \"#utility.yul\":6552:6582   */\n      gt\n        /* \"#utility.yul\":6549:6605   */\n      iszero\n      tag_234\n      jumpi\n        /* \"#utility.yul\":6585:6603   */\n      tag_235\n      tag_136\n      jump\t// in\n    tag_235:\n        /* \"#utility.yul\":6549:6605   */\n    tag_234:\n        /* \"#utility.yul\":6623:6652   */\n      tag_236\n        /* \"#utility.yul\":6645:6651   */\n      dup3\n        /* \"#utility.yul\":6623:6652   */\n      tag_135\n      jump\t// in\n    tag_236:\n        /* \"#utility.yul\":6615:6652   */\n      swap1\n      pop\n        /* \"#utility.yul\":6707:6711   */\n      0x20\n        /* \"#utility.yul\":6701:6705   */\n      dup2\n        /* \"#utility.yul\":6697:6712   */\n      add\n        /* \"#utility.yul\":6689:6712   */\n      swap1\n      pop\n        /* \"#utility.yul\":6412:6719   */\n      swap2\n      swap1\n      pop\n      jump\t// out\n        /* \"#utility.yul\":6725:6873   */\n    tag_140:\n        /* \"#utility.yul\":6823:6829   */\n      dup3\n        /* \"#utility.yul\":6818:6821   */\n      dup2\n        /* \"#utility.yul\":6813:6816   */\n      dup4\n        /* \"#utility.yul\":6800:6830   */\n      calldatacopy\n        /* \"#utility.yul\":6864:6865   */\n      0x00\n        /* \"#utility.yul\":6855:6861   */\n      dup4\n        /* \"#utility.yul\":6850:6853   */\n      dup4\n        /* \"#utility.yul\":6846:6862   */\n      add\n        /* \"#utility.yul\":6839:6866   */\n      mstore\n        /* \"#utility.yul\":6725:6873   */\n      pop\n      pop\n      pop\n      jump\t// out\n        /* \"#utility.yul\":6879:7302   */\n    tag_141:\n        /* \"#utility.yul\":6956:6961   */\n      0x00\n        /* \"#utility.yul\":6981:7046   */\n      tag_239\n        /* \"#utility.yul\":6997:7045   */\n      tag_240\n        /* \"#utility.yul\":7038:7044   */\n      dup5\n        /* \"#utility.yul\":6997:7045   */\n      tag_139\n      jump\t// in\n    tag_240:\n        /* \"#utility.yul\":6981:7046   */\n      tag_138\n      jump\t// in\n    tag_239:\n        /* \"#utility.yul\":6972:7046   */\n      swap1\n      pop\n        /* \"#utility.yul\":7069:7075   */\n      dup3\n        /* \"#utility.yul\":7062:7067   */\n      dup2\n        /* \"#utility.yul\":7055:7076   */\n      mstore\n        /* \"#utility.yul\":7107:7111   */\n      0x20\n        /* \"#utility.yul\":7100:7105   */\n      dup2\n        /* \"#utility.yul\":7096:7112   */\n      add\n        /* \"#utility.yul\":7145:7148   */\n      dup5\n        /* \"#utility.yul\":7136:7142   */\n      dup5\n        /* \"#utility.yul\":7131:7134   */\n      dup5\n        /* \"#utility.yul\":7127:7143   */\n      add\n        /* \"#utility.yul\":7124:7149   */\n      gt\n        /* \"#utility.yul\":7121:7233   */\n      iszero\n      tag_241\n      jumpi\n        /* \"#utility.yul\":7152:7231   */\n      tag_242\n      tag_134\n      jump\t// in\n    tag_242:\n        /* \"#utility.yul\":7121:7233   */\n    tag_241:\n        /* \"#utility.yul\":7242:7296   */\n      tag_243\n        /* \"#utility.yul\":7289:7295   */\n      dup5\n        /* \"#utility.yul\":7284:7287   */\n      dup3\n        /* \"#utility.yul\":7279:7282   */\n      dup6\n        /* \"#utility.yul\":7242:7296   */\n      tag_140\n      jump\t// in\n    tag_243:\n        /* \"#utility.yul\":6962:7302   */\n      pop\n        /* \"#utility.yul\":6879:7302   */\n      swap4\n      swap3\n      pop\n      pop\n      pop\n      jump\t// out\n        /* \"#utility.yul\":7321:7659   */\n    tag_142:\n        /* \"#utility.yul\":7376:7381   */\n      0x00\n        /* \"#utility.yul\":7425:7428   */\n      dup3\n        /* \"#utility.yul\":7418:7422   */\n      0x1f\n        /* \"#utility.yul\":7410:7416   */\n      dup4\n        /* \"#utility.yul\":7406:7423   */\n      add\n        /* \"#utility.yul\":7402:7429   */\n      slt\n        /* \"#utility.yul\":7392:7514   */\n      tag_245\n      jumpi\n        /* \"#utility.yul\":7433:7512   */\n      tag_246\n      tag_126\n      jump\t// in\n    tag_246:\n        /* \"#utility.yul\":7392:7514   */\n    tag_245:\n        /* \"#utility.yul\":7550:7556   */\n      dup2\n        /* \"#utility.yul\":7537:7557   */\n      calldataload\n        /* \"#utility.yul\":7575:7653   */\n      tag_247\n        /* \"#utility.yul\":7649:7652   */\n      dup5\n        /* \"#utility.yul\":7641:7647   */\n      dup3\n        /* \"#utility.yul\":7634:7638   */\n      0x20\n        /* \"#utility.yul\":7626:7632   */\n      dup7\n        /* \"#utility.yul\":7622:7639   */\n      add\n        /* \"#utility.yul\":7575:7653   */\n      tag_141\n      jump\t// in\n    tag_247:\n        /* \"#utility.yul\":7566:7653   */\n      swap2\n      pop\n        /* \"#utility.yul\":7382:7659   */\n      pop\n        /* \"#utility.yul\":7321:7659   */\n      swap3\n      swap2\n      pop\n      pop\n      jump\t// out\n        /* \"#utility.yul\":7665:8608   */\n    tag_36:\n        /* \"#utility.yul\":7760:7766   */\n      0x00\n        /* \"#utility.yul\":7768:7774   */\n      dup1\n        /* \"#utility.yul\":7776:7782   */\n      0x00\n        /* \"#utility.yul\":7784:7790   */\n      dup1\n        /* \"#utility.yul\":7833:7836   */\n      0x80\n        /* \"#utility.yul\":7821:7830   */\n      dup6\n        /* \"#utility.yul\":7812:7819   */\n      dup8\n        /* \"#utility.yul\":7808:7831   */\n      sub\n        /* \"#utility.yul\":7804:7837   */\n      slt\n        /* \"#utility.yul\":7801:7921   */\n      iszero\n      tag_249\n      jumpi\n        /* \"#utility.yul\":7840:7919   */\n      tag_250\n      tag_117\n      jump\t// in\n    tag_250:\n        /* \"#utility.yul\":7801:7921   */\n    tag_249:\n        /* \"#utility.yul\":7960:7961   */\n      0x00\n        /* \"#utility.yul\":7985:8038   */\n      tag_251\n        /* \"#utility.yul\":8030:8037   */\n      dup8\n        /* \"#utility.yul\":8021:8027   */\n      dup3\n        /* \"#utility.yul\":8010:8019   */\n      dup9\n        /* \"#utility.yul\":8006:8028   */\n      add\n        /* \"#utility.yul\":7985:8038   */\n      tag_122\n      jump\t// in\n    tag_251:\n        /* \"#utility.yul\":7975:8038   */\n      swap5\n      pop\n        /* \"#utility.yul\":7931:8048   */\n      pop\n        /* \"#utility.yul\":8087:8089   */\n      0x20\n        /* \"#utility.yul\":8113:8166   */\n      tag_252\n        /* \"#utility.yul\":8158:8165   */\n      dup8\n        /* \"#utility.yul\":8149:8155   */\n      dup3\n        /* \"#utility.yul\":8138:8147   */\n      dup9\n        /* \"#utility.yul\":8134:8156   */\n      add\n        /* \"#utility.yul\":8113:8166   */\n      tag_122\n      jump\t// in\n    tag_252:\n        /* \"#utility.yul\":8103:8166   */\n      swap4\n      pop\n        /* \"#utility.yul\":8058:8176   */\n      pop\n        /* \"#utility.yul\":8215:8217   */\n      0x40\n        /* \"#utility.yul\":8241:8294   */\n      tag_253\n        /* \"#utility.yul\":8286:8293   */\n      dup8\n        /* \"#utility.yul\":8277:8283   */\n      dup3\n        /* \"#utility.yul\":8266:8275   */\n      dup9\n        /* \"#utility.yul\":8262:8284   */\n      add\n        /* \"#utility.yul\":8241:8294   */\n      tag_125\n      jump\t// in\n    tag_253:\n        /* \"#utility.yul\":8231:8294   */\n      swap3\n      pop\n        /* \"#utility.yul\":8186:8304   */\n      pop\n        /* \"#utility.yul\":8371:8373   */\n      0x60\n        /* \"#utility.yul\":8360:8369   */\n      dup6\n        /* \"#utility.yul\":8356:8374   */\n      add\n        /* \"#utility.yul\":8343:8375   */\n      calldataload\n        /* \"#utility.yul\":8402:8420   */\n      0xffffffffffffffff\n        /* \"#utility.yul\":8394:8400   */\n      dup2\n        /* \"#utility.yul\":8391:8421   */\n      gt\n        /* \"#utility.yul\":8388:8505   */\n      iszero\n      tag_254\n      jumpi\n        /* \"#utility.yul\":8424:8503   */\n      tag_255\n      tag_118\n      jump\t// in\n    tag_255:\n        /* \"#utility.yul\":8388:8505   */\n    tag_254:\n        /* \"#utility.yul\":8529:8591   */\n      tag_256\n        /* \"#utility.yul\":8583:8590   */\n      dup8\n        /* \"#utility.yul\":8574:8580   */\n      dup3\n        /* \"#utility.yul\":8563:8572   */\n      dup9\n        /* \"#utility.yul\":8559:8581   */\n      add\n        /* \"#utility.yul\":8529:8591   */\n      tag_142\n      jump\t// in\n    tag_256:\n        /* \"#utility.yul\":8519:8591   */\n      swap2\n      pop\n        /* \"#utility.yul\":8314:8601   */\n      pop\n        /* \"#utility.yul\":7665:8608   */\n      swap3\n      swap6\n      swap2\n      swap5\n      pop\n      swap3\n      pop\n      jump\t// out\n        /* \"#utility.yul\":8614:9121   */\n    tag_44:\n        /* \"#utility.yul\":8682:8688   */\n      0x00\n        /* \"#utility.yul\":8731:8733   */\n      0x20\n        /* \"#utility.yul\":8719:8728   */\n      dup3\n        /* \"#utility.yul\":8710:8717   */\n      dup5\n        /* \"#utility.yul\":8706:8729   */\n      sub\n        /* \"#utility.yul\":8702:8734   */\n      slt\n        /* \"#utility.yul\":8699:8818   */\n      iszero\n      tag_258\n      jumpi\n        /* \"#utility.yul\":8737:8816   */\n      tag_259\n      tag_117\n      jump\t// in\n    tag_259:\n        /* \"#utility.yul\":8699:8818   */\n    tag_258:\n        /* \"#utility.yul\":8885:8886   */\n      0x00\n        /* \"#utility.yul\":8874:8883   */\n      dup3\n        /* \"#utility.yul\":8870:8887   */\n      add\n        /* \"#utility.yul\":8857:8888   */\n      calldataload\n        /* \"#utility.yul\":8915:8933   */\n      0xffffffffffffffff\n        /* \"#utility.yul\":8907:8913   */\n      dup2\n        /* \"#utility.yul\":8904:8934   */\n      gt\n        /* \"#utility.yul\":8901:9018   */\n      iszero\n      tag_260\n      jumpi\n        /* \"#utility.yul\":8937:9016   */\n      tag_261\n      tag_118\n      jump\t// in\n    tag_261:\n        /* \"#utility.yul\":8901:9018   */\n    tag_260:\n        /* \"#utility.yul\":9042:9104   */\n      tag_262\n        /* \"#utility.yul\":9096:9103   */\n      dup5\n        /* \"#utility.yul\":9087:9093   */\n      dup3\n        /* \"#utility.yul\":9076:9085   */\n      dup6\n        /* \"#utility.yul\":9072:9094   */\n      add\n        /* \"#utility.yul\":9042:9104   */\n      tag_142\n      jump\t// in\n    tag_262:\n        /* \"#utility.yul\":9032:9104   */\n      swap2\n      pop\n        /* \"#utility.yul\":8828:9114   */\n      pop\n        /* \"#utility.yul\":8614:9121   */\n      swap3\n      swap2\n      pop\n      pop\n      jump\t// out\n        /* \"#utility.yul\":9127:9459   */\n    tag_47:\n        /* \"#utility.yul\":9248:9252   */\n      0x00\n        /* \"#utility.yul\":9286:9288   */\n      0x40\n        /* \"#utility.yul\":9275:9284   */\n      dup3\n        /* \"#utility.yul\":9271:9289   */\n      add\n        /* \"#utility.yul\":9263:9289   */\n      swap1\n      pop\n        /* \"#utility.yul\":9299:9370   */\n      tag_264\n        /* \"#utility.yul\":9367:9368   */\n      0x00\n        /* \"#utility.yul\":9356:9365   */\n      dup4\n        /* \"#utility.yul\":9352:9369   */\n      add\n        /* \"#utility.yul\":9343:9349   */\n      dup6\n        /* \"#utility.yul\":9299:9370   */\n      tag_132\n      jump\t// in\n    tag_264:\n        /* \"#utility.yul\":9380:9452   */\n      tag_265\n        /* \"#utility.yul\":9448:9450   */\n      0x20\n        /* \"#utility.yul\":9437:9446   */\n      dup4\n        /* \"#utility.yul\":9433:9451   */\n      add\n        /* \"#utility.yul\":9424:9430   */\n      dup5\n        /* \"#utility.yul\":9380:9452   */\n      tag_133\n      jump\t// in\n    tag_265:\n        /* \"#utility.yul\":9127:9459   */\n      swap4\n      swap3\n      pop\n      pop\n      pop\n      jump\t// out\n        /* \"#utility.yul\":9465:9634   */\n    tag_143:\n        /* \"#utility.yul\":9549:9560   */\n      0x00\n        /* \"#utility.yul\":9583:9589   */\n      dup3\n        /* \"#utility.yul\":9578:9581   */\n      dup3\n        /* \"#utility.yul\":9571:9590   */\n      mstore\n        /* \"#utility.yul\":9623:9627   */\n      0x20\n        /* \"#utility.yul\":9618:9621   */\n      dup3\n        /* \"#utility.yul\":9614:9628   */\n      add\n        /* \"#utility.yul\":9599:9628   */\n      swap1\n      pop\n        /* \"#utility.yul\":9465:9634   */\n      swap3\n      swap2\n      pop\n      pop\n      jump\t// out\n        /* \"#utility.yul\":9640:9806   */\n    tag_144:\n        /* \"#utility.yul\":9780:9798   */\n      0x616c726561647920696e2073616c652e00000000000000000000000000000000\n        /* \"#utility.yul\":9776:9777   */\n      0x00\n        /* \"#utility.yul\":9768:9774   */\n      dup3\n        /* \"#utility.yul\":9764:9778   */\n      add\n        /* \"#utility.yul\":9757:9799   */\n      mstore\n        /* \"#utility.yul\":9640:9806   */\n      pop\n      jump\t// out\n        /* \"#utility.yul\":9812:10178   */\n    tag_145:\n        /* \"#utility.yul\":9954:9957   */\n      0x00\n        /* \"#utility.yul\":9975:10042   */\n      tag_269\n        /* \"#utility.yul\":10039:10041   */\n      0x10\n        /* \"#utility.yul\":10034:10037   */\n      dup4\n        /* \"#utility.yul\":9975:10042   */\n      tag_143\n      jump\t// in\n    tag_269:\n        /* \"#utility.yul\":9968:10042   */\n      swap2\n      pop\n        /* \"#utility.yul\":10051:10144   */\n      tag_270\n        /* \"#utility.yul\":10140:10143   */\n      dup3\n        /* \"#utility.yul\":10051:10144   */\n      tag_144\n      jump\t// in\n    tag_270:\n        /* \"#utility.yul\":10169:10171   */\n      0x20\n        /* \"#utility.yul\":10164:10167   */\n      dup3\n        /* \"#utility.yul\":10160:10172   */\n      add\n        /* \"#utility.yul\":10153:10172   */\n      swap1\n      pop\n        /* \"#utility.yul\":9812:10178   */\n      swap2\n      swap1\n      pop\n      jump\t// out\n        /* \"#utility.yul\":10184:10603   */\n    tag_51:\n        /* \"#utility.yul\":10350:10354   */\n      0x00\n        /* \"#utility.yul\":10388:10390   */\n      0x20\n        /* \"#utility.yul\":10377:10386   */\n      dup3\n        /* \"#utility.yul\":10373:10391   */\n      add\n        /* \"#utility.yul\":10365:10391   */\n      swap1\n      pop\n        /* \"#utility.yul\":10437:10446   */\n      dup2\n        /* \"#utility.yul\":10431:10435   */\n      dup2\n        /* \"#utility.yul\":10427:10447   */\n      sub\n        /* \"#utility.yul\":10423:10424   */\n      0x00\n        /* \"#utility.yul\":10412:10421   */\n      dup4\n        /* \"#utility.yul\":10408:10425   */\n      add\n        /* \"#utility.yul\":10401:10448   */\n      mstore\n        /* \"#utility.yul\":10465:10596   */\n      tag_272\n        /* \"#utility.yul\":10591:10595   */\n      dup2\n        /* \"#utility.yul\":10465:10596   */\n      tag_145\n      jump\t// in\n    tag_272:\n        /* \"#utility.yul\":10457:10596   */\n      swap1\n      pop\n        /* \"#utility.yul\":10184:10603   */\n      swap2\n      swap1\n      pop\n      jump\t// out\n        /* \"#utility.yul\":10609:10789   */\n    tag_146:\n        /* \"#utility.yul\":10657:10734   */\n      0x4e487b7100000000000000000000000000000000000000000000000000000000\n        /* \"#utility.yul\":10654:10655   */\n      0x00\n        /* \"#utility.yul\":10647:10735   */\n      mstore\n        /* \"#utility.yul\":10754:10758   */\n      0x11\n        /* \"#utility.yul\":10751:10752   */\n      0x04\n        /* \"#utility.yul\":10744:10759   */\n      mstore\n        /* \"#utility.yul\":10778:10782   */\n      0x24\n        /* \"#utility.yul\":10775:10776   */\n      0x00\n        /* \"#utility.yul\":10768:10783   */\n      revert\n        /* \"#utility.yul\":10795:10989   */\n    tag_56:\n        /* \"#utility.yul\":10835:10839   */\n      0x00\n        /* \"#utility.yul\":10855:10875   */\n      tag_275\n        /* \"#utility.yul\":10873:10874   */\n      dup3\n        /* \"#utility.yul\":10855:10875   */\n      tag_123\n      jump\t// in\n    tag_275:\n        /* \"#utility.yul\":10850:10875   */\n      swap2\n      pop\n        /* \"#utility.yul\":10889:10909   */\n      tag_276\n        /* \"#utility.yul\":10907:10908   */\n      dup4\n        /* \"#utility.yul\":10889:10909   */\n      tag_123\n      jump\t// in\n    tag_276:\n        /* \"#utility.yul\":10884:10909   */\n      swap3\n      pop\n        /* \"#utility.yul\":10933:10934   */\n      dup3\n        /* \"#utility.yul\":10930:10931   */\n      dup3\n        /* \"#utility.yul\":10926:10935   */\n      sub\n        /* \"#utility.yul\":10918:10935   */\n      swap1\n      pop\n        /* \"#utility.yul\":10957:10958   */\n      dup2\n        /* \"#utility.yul\":10951:10955   */\n      dup2\n        /* \"#utility.yul\":10948:10959   */\n      gt\n        /* \"#utility.yul\":10945:10982   */\n      iszero\n      tag_277\n      jumpi\n        /* \"#utility.yul\":10962:10980   */\n      tag_278\n      tag_146\n      jump\t// in\n    tag_278:\n        /* \"#utility.yul\":10945:10982   */\n    tag_277:\n        /* \"#utility.yul\":10795:10989   */\n      swap3\n      swap2\n      pop\n      pop\n      jump\t// out\n        /* \"#utility.yul\":10995:11164   */\n    tag_147:\n        /* \"#utility.yul\":11135:11156   */\n      0x6e6674206973206e6f7420696e2073616c652e00000000000000000000000000\n        /* \"#utility.yul\":11131:11132   */\n      0x00\n        /* \"#utility.yul\":11123:11129   */\n      dup3\n        /* \"#utility.yul\":11119:11133   */\n      add\n        /* \"#utility.yul\":11112:11157   */\n      mstore\n        /* \"#utility.yul\":10995:11164   */\n      pop\n      jump\t// out\n        /* \"#utility.yul\":11170:11536   */\n    tag_148:\n        /* \"#utility.yul\":11312:11315   */\n      0x00\n        /* \"#utility.yul\":11333:11400   */\n      tag_281\n        /* \"#utility.yul\":11397:11399   */\n      0x13\n        /* \"#utility.yul\":11392:11395   */\n      dup4\n        /* \"#utility.yul\":11333:11400   */\n      tag_143\n      jump\t// in\n    tag_281:\n        /* \"#utility.yul\":11326:11400   */\n      swap2\n      pop\n        /* \"#utility.yul\":11409:11502   */\n      tag_282\n        /* \"#utility.yul\":11498:11501   */\n      dup3\n        /* \"#utility.yul\":11409:11502   */\n      tag_147\n      jump\t// in\n    tag_282:\n        /* \"#utility.yul\":11527:11529   */\n      0x20\n        /* \"#utility.yul\":11522:11525   */\n      dup3\n        /* \"#utility.yul\":11518:11530   */\n      add\n        /* \"#utility.yul\":11511:11530   */\n      swap1\n      pop\n        /* \"#utility.yul\":11170:11536   */\n      swap2\n      swap1\n      pop\n      jump\t// out\n        /* \"#utility.yul\":11542:11961   */\n    tag_63:\n        /* \"#utility.yul\":11708:11712   */\n      0x00\n        /* \"#utility.yul\":11746:11748   */\n      0x20\n        /* \"#utility.yul\":11735:11744   */\n      dup3\n        /* \"#utility.yul\":11731:11749   */\n      add\n        /* \"#utility.yul\":11723:11749   */\n      swap1\n      pop\n        /* \"#utility.yul\":11795:11804   */\n      dup2\n        /* \"#utility.yul\":11789:11793   */\n      dup2\n        /* \"#utility.yul\":11785:11805   */\n      sub\n        /* \"#utility.yul\":11781:11782   */\n      0x00\n        /* \"#utility.yul\":11770:11779   */\n      dup4\n        /* \"#utility.yul\":11766:11783   */\n      add\n        /* \"#utility.yul\":11759:11806   */\n      mstore\n        /* \"#utility.yul\":11823:11954   */\n      tag_284\n        /* \"#utility.yul\":11949:11953   */\n      dup2\n        /* \"#utility.yul\":11823:11954   */\n      tag_148\n      jump\t// in\n    tag_284:\n        /* \"#utility.yul\":11815:11954   */\n      swap1\n      pop\n        /* \"#utility.yul\":11542:11961   */\n      swap2\n      swap1\n      pop\n      jump\t// out\n        /* \"#utility.yul\":11967:12147   */\n    tag_66:\n        /* \"#utility.yul\":12015:12092   */\n      0x4e487b7100000000000000000000000000000000000000000000000000000000\n        /* \"#utility.yul\":12012:12013   */\n      0x00\n        /* \"#utility.yul\":12005:12093   */\n      mstore\n        /* \"#utility.yul\":12112:12116   */\n      0x32\n        /* \"#utility.yul\":12109:12110   */\n      0x04\n        /* \"#utility.yul\":12102:12117   */\n      mstore\n        /* \"#utility.yul\":12136:12140   */\n      0x24\n        /* \"#utility.yul\":12133:12134   */\n      0x00\n        /* \"#utility.yul\":12126:12141   */\n      revert\n        /* \"#utility.yul\":12153:12327   */\n    tag_149:\n        /* \"#utility.yul\":12293:12319   */\n      0x706c656173652070617920656e6f756768206d6f6e656e790000000000000000\n        /* \"#utility.yul\":12289:12290   */\n      0x00\n        /* \"#utility.yul\":12281:12287   */\n      dup3\n        /* \"#utility.yul\":12277:12291   */\n      add\n        /* \"#utility.yul\":12270:12320   */\n      mstore\n        /* \"#utility.yul\":12153:12327   */\n      pop\n      jump\t// out\n        /* \"#utility.yul\":12333:12699   */\n    tag_150:\n        /* \"#utility.yul\":12475:12478   */\n      0x00\n        /* \"#utility.yul\":12496:12563   */\n      tag_288\n        /* \"#utility.yul\":12560:12562   */\n      0x18\n        /* \"#utility.yul\":12555:12558   */\n      dup4\n        /* \"#utility.yul\":12496:12563   */\n      tag_143\n      jump\t// in\n    tag_288:\n        /* \"#utility.yul\":12489:12563   */\n      swap2\n      pop\n        /* \"#utility.yul\":12572:12665   */\n      tag_289\n        /* \"#utility.yul\":12661:12664   */\n      dup3\n        /* \"#utility.yul\":12572:12665   */\n      tag_149\n      jump\t// in\n    tag_289:\n        /* \"#utility.yul\":12690:12692   */\n      0x20\n        /* \"#utility.yul\":12685:12688   */\n      dup3\n        /* \"#utility.yul\":12681:12693   */\n      add\n        /* \"#utility.yul\":12674:12693   */\n      swap1\n      pop\n        /* \"#utility.yul\":12333:12699   */\n      swap2\n      swap1\n      pop\n      jump\t// out\n        /* \"#utility.yul\":12705:13124   */\n    tag_70:\n        /* \"#utility.yul\":12871:12875   */\n      0x00\n        /* \"#utility.yul\":12909:12911   */\n      0x20\n        /* \"#utility.yul\":12898:12907   */\n      dup3\n        /* \"#utility.yul\":12894:12912   */\n      add\n        /* \"#utility.yul\":12886:12912   */\n      swap1\n      pop\n        /* \"#utility.yul\":12958:12967   */\n      dup2\n        /* \"#utility.yul\":12952:12956   */\n      dup2\n        /* \"#utility.yul\":12948:12968   */\n      sub\n        /* \"#utility.yul\":12944:12945   */\n      0x00\n        /* \"#utility.yul\":12933:12942   */\n      dup4\n        /* \"#utility.yul\":12929:12946   */\n      add\n        /* \"#utility.yul\":12922:12969   */\n      mstore\n        /* \"#utility.yul\":12986:13117   */\n      tag_291\n        /* \"#utility.yul\":13112:13116   */\n      dup2\n        /* \"#utility.yul\":12986:13117   */\n      tag_150\n      jump\t// in\n    tag_291:\n        /* \"#utility.yul\":12978:13117   */\n      swap1\n      pop\n        /* \"#utility.yul\":12705:13124   */\n      swap2\n      swap1\n      pop\n      jump\t// out\n        /* \"#utility.yul\":13130:13310   */\n    tag_80:\n        /* \"#utility.yul\":13178:13255   */\n      0x4e487b7100000000000000000000000000000000000000000000000000000000\n        /* \"#utility.yul\":13175:13176   */\n      0x00\n        /* \"#utility.yul\":13168:13256   */\n      mstore\n        /* \"#utility.yul\":13275:13279   */\n      0x31\n        /* \"#utility.yul\":13272:13273   */\n      0x04\n        /* \"#utility.yul\":13265:13280   */\n      mstore\n        /* \"#utility.yul\":13299:13303   */\n      0x24\n        /* \"#utility.yul\":13296:13297   */\n      0x00\n        /* \"#utility.yul\":13289:13304   */\n      revert\n        /* \"#utility.yul\":13316:13758   */\n    tag_83:\n        /* \"#utility.yul\":13465:13469   */\n      0x00\n        /* \"#utility.yul\":13503:13505   */\n      0x60\n        /* \"#utility.yul\":13492:13501   */\n      dup3\n        /* \"#utility.yul\":13488:13506   */\n      add\n        /* \"#utility.yul\":13480:13506   */\n      swap1\n      pop\n        /* \"#utility.yul\":13516:13587   */\n      tag_294\n        /* \"#utility.yul\":13584:13585   */\n      0x00\n        /* \"#utility.yul\":13573:13582   */\n      dup4\n        /* \"#utility.yul\":13569:13586   */\n      add\n        /* \"#utility.yul\":13560:13566   */\n      dup7\n        /* \"#utility.yul\":13516:13587   */\n      tag_132\n      jump\t// in\n    tag_294:\n        /* \"#utility.yul\":13597:13669   */\n      tag_295\n        /* \"#utility.yul\":13665:13667   */\n      0x20\n        /* \"#utility.yul\":13654:13663   */\n      dup4\n        /* \"#utility.yul\":13650:13668   */\n      add\n        /* \"#utility.yul\":13641:13647   */\n      dup6\n        /* \"#utility.yul\":13597:13669   */\n      tag_132\n      jump\t// in\n    tag_295:\n        /* \"#utility.yul\":13679:13751   */\n      tag_296\n        /* \"#utility.yul\":13747:13749   */\n      0x40\n        /* \"#utility.yul\":13736:13745   */\n      dup4\n        /* \"#utility.yul\":13732:13750   */\n      add\n        /* \"#utility.yul\":13723:13729   */\n      dup5\n        /* \"#utility.yul\":13679:13751   */\n      tag_133\n      jump\t// in\n    tag_296:\n        /* \"#utility.yul\":13316:13758   */\n      swap5\n      swap4\n      pop\n      pop\n      pop\n      pop\n      jump\t// out\n        /* \"#utility.yul\":13764:13854   */\n    tag_151:\n        /* \"#utility.yul\":13798:13805   */\n      0x00\n        /* \"#utility.yul\":13841:13846   */\n      dup2\n        /* \"#utility.yul\":13834:13847   */\n      iszero\n        /* \"#utility.yul\":13827:13848   */\n      iszero\n        /* \"#utility.yul\":13816:13848   */\n      swap1\n      pop\n        /* \"#utility.yul\":13764:13854   */\n      swap2\n      swap1\n      pop\n      jump\t// out\n        /* \"#utility.yul\":13860:13976   */\n    tag_152:\n        /* \"#utility.yul\":13930:13951   */\n      tag_299\n        /* \"#utility.yul\":13945:13950   */\n      dup2\n        /* \"#utility.yul\":13930:13951   */\n      tag_151\n      jump\t// in\n    tag_299:\n        /* \"#utility.yul\":13923:13928   */\n      dup2\n        /* \"#utility.yul\":13920:13952   */\n      eq\n        /* \"#utility.yul\":13910:13970   */\n      tag_300\n      jumpi\n        /* \"#utility.yul\":13966:13967   */\n      0x00\n        /* \"#utility.yul\":13963:13964   */\n      dup1\n        /* \"#utility.yul\":13956:13968   */\n      revert\n        /* \"#utility.yul\":13910:13970   */\n    tag_300:\n        /* \"#utility.yul\":13860:13976   */\n      pop\n      jump\t// out\n        /* \"#utility.yul\":13982:14119   */\n    tag_153:\n        /* \"#utility.yul\":14036:14041   */\n      0x00\n        /* \"#utility.yul\":14067:14073   */\n      dup2\n        /* \"#utility.yul\":14061:14074   */\n      mload\n        /* \"#utility.yul\":14052:14074   */\n      swap1\n      pop\n        /* \"#utility.yul\":14083:14113   */\n      tag_302\n        /* \"#utility.yul\":14107:14112   */\n      dup2\n        /* \"#utility.yul\":14083:14113   */\n      tag_152\n      jump\t// in\n    tag_302:\n        /* \"#utility.yul\":13982:14119   */\n      swap3\n      swap2\n      pop\n      pop\n      jump\t// out\n        /* \"#utility.yul\":14125:14470   */\n    tag_91:\n        /* \"#utility.yul\":14192:14198   */\n      0x00\n        /* \"#utility.yul\":14241:14243   */\n      0x20\n        /* \"#utility.yul\":14229:14238   */\n      dup3\n        /* \"#utility.yul\":14220:14227   */\n      dup5\n        /* \"#utility.yul\":14216:14239   */\n      sub\n        /* \"#utility.yul\":14212:14244   */\n      slt\n        /* \"#utility.yul\":14209:14328   */\n      iszero\n      tag_304\n      jumpi\n        /* \"#utility.yul\":14247:14326   */\n      tag_305\n      tag_117\n      jump\t// in\n    tag_305:\n        /* \"#utility.yul\":14209:14328   */\n    tag_304:\n        /* \"#utility.yul\":14367:14368   */\n      0x00\n        /* \"#utility.yul\":14392:14453   */\n      tag_306\n        /* \"#utility.yul\":14445:14452   */\n      dup5\n        /* \"#utility.yul\":14436:14442   */\n      dup3\n        /* \"#utility.yul\":14425:14434   */\n      dup6\n        /* \"#utility.yul\":14421:14443   */\n      add\n        /* \"#utility.yul\":14392:14453   */\n      tag_153\n      jump\t// in\n    tag_306:\n        /* \"#utility.yul\":14382:14453   */\n      swap2\n      pop\n        /* \"#utility.yul\":14338:14463   */\n      pop\n        /* \"#utility.yul\":14125:14470   */\n      swap3\n      swap2\n      pop\n      pop\n      jump\t// out\n        /* \"#utility.yul\":14476:14639   */\n    tag_154:\n        /* \"#utility.yul\":14616:14631   */\n      0x4e6f7420796f7572206e66742e00000000000000000000000000000000000000\n        /* \"#utility.yul\":14612:14613   */\n      0x00\n        /* \"#utility.yul\":14604:14610   */\n      dup3\n        /* \"#utility.yul\":14600:14614   */\n      add\n        /* \"#utility.yul\":14593:14632   */\n      mstore\n        /* \"#utility.yul\":14476:14639   */\n      pop\n      jump\t// out\n        /* \"#utility.yul\":14645:15011   */\n    tag_155:\n        /* \"#utility.yul\":14787:14790   */\n      0x00\n        /* \"#utility.yul\":14808:14875   */\n      tag_309\n        /* \"#utility.yul\":14872:14874   */\n      0x0d\n        /* \"#utility.yul\":14867:14870   */\n      dup4\n        /* \"#utility.yul\":14808:14875   */\n      tag_143\n      jump\t// in\n    tag_309:\n        /* \"#utility.yul\":14801:14875   */\n      swap2\n      pop\n        /* \"#utility.yul\":14884:14977   */\n      tag_310\n        /* \"#utility.yul\":14973:14976   */\n      dup3\n        /* \"#utility.yul\":14884:14977   */\n      tag_154\n      jump\t// in\n    tag_310:\n        /* \"#utility.yul\":15002:15004   */\n      0x20\n        /* \"#utility.yul\":14997:15000   */\n      dup3\n        /* \"#utility.yul\":14993:15005   */\n      add\n        /* \"#utility.yul\":14986:15005   */\n      swap1\n      pop\n        /* \"#utility.yul\":14645:15011   */\n      swap2\n      swap1\n      pop\n      jump\t// out\n        /* \"#utility.yul\":15017:15436   */\n    tag_97:\n        /* \"#utility.yul\":15183:15187   */\n      0x00\n        /* \"#utility.yul\":15221:15223   */\n      0x20\n        /* \"#utility.yul\":15210:15219   */\n      dup3\n        /* \"#utility.yul\":15206:15224   */\n      add\n        /* \"#utility.yul\":15198:15224   */\n      swap1\n      pop\n        /* \"#utility.yul\":15270:15279   */\n      dup2\n        /* \"#utility.yul\":15264:15268   */\n      dup2\n        /* \"#utility.yul\":15260:15280   */\n      sub\n        /* \"#utility.yul\":15256:15257   */\n      0x00\n        /* \"#utility.yul\":15245:15254   */\n      dup4\n        /* \"#utility.yul\":15241:15258   */\n      add\n        /* \"#utility.yul\":15234:15281   */\n      mstore\n        /* \"#utility.yul\":15298:15429   */\n      tag_312\n        /* \"#utility.yul\":15424:15428   */\n      dup2\n        /* \"#utility.yul\":15298:15429   */\n      tag_155\n      jump\t// in\n    tag_312:\n        /* \"#utility.yul\":15290:15429   */\n      swap1\n      pop\n        /* \"#utility.yul\":15017:15436   */\n      swap2\n      swap1\n      pop\n      jump\t// out\n        /* \"#utility.yul\":15442:15546   */\n    tag_156:\n        /* \"#utility.yul\":15487:15494   */\n      0x00\n        /* \"#utility.yul\":15516:15540   */\n      tag_314\n        /* \"#utility.yul\":15534:15539   */\n      dup3\n        /* \"#utility.yul\":15516:15540   */\n      tag_119\n      jump\t// in\n    tag_314:\n        /* \"#utility.yul\":15505:15540   */\n      swap1\n      pop\n        /* \"#utility.yul\":15442:15546   */\n      swap2\n      swap1\n      pop\n      jump\t// out\n        /* \"#utility.yul\":15552:15690   */\n    tag_157:\n        /* \"#utility.yul\":15633:15665   */\n      tag_316\n        /* \"#utility.yul\":15659:15664   */\n      dup2\n        /* \"#utility.yul\":15633:15665   */\n      tag_156\n      jump\t// in\n    tag_316:\n        /* \"#utility.yul\":15626:15631   */\n      dup2\n        /* \"#utility.yul\":15623:15666   */\n      eq\n        /* \"#utility.yul\":15613:15684   */\n      tag_317\n      jumpi\n        /* \"#utility.yul\":15680:15681   */\n      0x00\n        /* \"#utility.yul\":15677:15678   */\n      dup1\n        /* \"#utility.yul\":15670:15682   */\n      revert\n        /* \"#utility.yul\":15613:15684   */\n    tag_317:\n        /* \"#utility.yul\":15552:15690   */\n      pop\n      jump\t// out\n        /* \"#utility.yul\":15696:15855   */\n    tag_158:\n        /* \"#utility.yul\":15761:15766   */\n      0x00\n        /* \"#utility.yul\":15792:15798   */\n      dup2\n        /* \"#utility.yul\":15786:15799   */\n      mload\n        /* \"#utility.yul\":15777:15799   */\n      swap1\n      pop\n        /* \"#utility.yul\":15808:15849   */\n      tag_319\n        /* \"#utility.yul\":15843:15848   */\n      dup2\n        /* \"#utility.yul\":15808:15849   */\n      tag_157\n      jump\t// in\n    tag_319:\n        /* \"#utility.yul\":15696:15855   */\n      swap3\n      swap2\n      pop\n      pop\n      jump\t// out\n        /* \"#utility.yul\":15861:16004   */\n    tag_159:\n        /* \"#utility.yul\":15918:15923   */\n      0x00\n        /* \"#utility.yul\":15949:15955   */\n      dup2\n        /* \"#utility.yul\":15943:15956   */\n      mload\n        /* \"#utility.yul\":15934:15956   */\n      swap1\n      pop\n        /* \"#utility.yul\":15965:15998   */\n      tag_321\n        /* \"#utility.yul\":15992:15997   */\n      dup2\n        /* \"#utility.yul\":15965:15998   */\n      tag_124\n      jump\t// in\n    tag_321:\n        /* \"#utility.yul\":15861:16004   */\n      swap3\n      swap2\n      pop\n      pop\n      jump\t// out\n        /* \"#utility.yul\":16010:16533   */\n    tag_114:\n        /* \"#utility.yul\":16097:16103   */\n      0x00\n        /* \"#utility.yul\":16105:16111   */\n      dup1\n        /* \"#utility.yul\":16154:16156   */\n      0x40\n        /* \"#utility.yul\":16142:16151   */\n      dup4\n        /* \"#utility.yul\":16133:16140   */\n      dup6\n        /* \"#utility.yul\":16129:16152   */\n      sub\n        /* \"#utility.yul\":16125:16157   */\n      slt\n        /* \"#utility.yul\":16122:16241   */\n      iszero\n      tag_323\n      jumpi\n        /* \"#utility.yul\":16160:16239   */\n      tag_324\n      tag_117\n      jump\t// in\n    tag_324:\n        /* \"#utility.yul\":16122:16241   */\n    tag_323:\n        /* \"#utility.yul\":16280:16281   */\n      0x00\n        /* \"#utility.yul\":16305:16377   */\n      tag_325\n        /* \"#utility.yul\":16369:16376   */\n      dup6\n        /* \"#utility.yul\":16360:16366   */\n      dup3\n        /* \"#utility.yul\":16349:16358   */\n      dup7\n        /* \"#utility.yul\":16345:16367   */\n      add\n        /* \"#utility.yul\":16305:16377   */\n      tag_158\n      jump\t// in\n    tag_325:\n        /* \"#utility.yul\":16295:16377   */\n      swap3\n      pop\n        /* \"#utility.yul\":16251:16387   */\n      pop\n        /* \"#utility.yul\":16426:16428   */\n      0x20\n        /* \"#utility.yul\":16452:16516   */\n      tag_326\n        /* \"#utility.yul\":16508:16515   */\n      dup6\n        /* \"#utility.yul\":16499:16505   */\n      dup3\n        /* \"#utility.yul\":16488:16497   */\n      dup7\n        /* \"#utility.yul\":16484:16506   */\n      add\n        /* \"#utility.yul\":16452:16516   */\n      tag_159\n      jump\t// in\n    tag_326:\n        /* \"#utility.yul\":16442:16516   */\n      swap2\n      pop\n        /* \"#utility.yul\":16397:16526   */\n      pop\n        /* \"#utility.yul\":16010:16533   */\n      swap3\n      pop\n      swap3\n      swap1\n      pop\n      jump\t// out\n\n    auxdata: 0xa2646970667358221220e9ba9b0ffb05c1b618abef7c193720e2ac7c365d65b85a65fb4cc5f99220e06664736f6c634300081a0033\n}\n",
				"bytecode": {
					"linkReferences": {},
					"object": "608060405234801561000f575f80fd5b50604051611998380380611998833981810160405281019061003191906100d4565b805f806101000a81548173ffffffffffffffffffffffffffffffffffffffff021916908373ffffffffffffffffffffffffffffffffffffffff160217905550506100ff565b5f80fd5b5f73ffffffffffffffffffffffffffffffffffffffff82169050919050565b5f6100a38261007a565b9050919050565b6100b381610099565b81146100bd575f80fd5b50565b5f815190506100ce816100aa565b92915050565b5f602082840312156100e9576100e8610076565b5b5f6100f6848285016100c0565b91505092915050565b61188c8061010c5f395ff3fe608060405234801561000f575f80fd5b506004361061007b575f3560e01c80637f6a645f116100595780637f6a645f1461011157806388a7ca5c14610141578063cee81dc514610171578063e8900e121461018d5761007b565b8063150b7a021461007f57806328861d22146100af5780635764351f146100e1575b5f80fd5b610099600480360381019061009491906110df565b6101be565b6040516100a6919061119d565b60405180910390f35b6100c960048036038101906100c491906111b6565b610499565b6040516100d8939291906111ff565b60405180910390f35b6100fb60048036038101906100f69190611234565b6104ed565b6040516101089190611272565b60405180910390f35b61012b60048036038101906101269190611234565b61052a565b604051610138919061128b565b60405180910390f35b61015b600480360381019061015691906113dc565b61054a565b604051610168919061119d565b60405180910390f35b61018b60048036038101906101869190611234565b610b35565b005b6101a760048036038101906101a2919061145c565b610fa5565b6040516101b59291906114a3565b60405180910390f35b5f8060035f3373ffffffffffffffffffffffffffffffffffffffff1673ffffffffffffffffffffffffffffffffffffffff1681526020019081526020015f205f8681526020019081526020015f205f9054906101000a900473ffffffffffffffffffffffffffffffffffffffff1690505f73ffffffffffffffffffffffffffffffffffffffff168173ffffffffffffffffffffffffffffffffffffffff161461029c576040517f08c379a000000000000000000000000000000000000000000000000000000000815260040161029390611524565b60405180910390fd5b600160405180606001604052803373ffffffffffffffffffffffffffffffffffffffff16815260200187815260200161031787878080601f0160208091040260200160405190810160405280939291908181526020018383808284375f81840152601f19601f82011690508083019250505050505050610fce565b815250908060018154018082558091505060019003905f5260205f2090600302015f909190919091505f820151815f015f6101000a81548173ffffffffffffffffffffffffffffffffffffffff021916908373ffffffffffffffffffffffffffffffffffffffff16021790555060208201518160010155604082015181600201555050600180805490506103ab919061156f565b60025f3373ffffffffffffffffffffffffffffffffffffffff1673ffffffffffffffffffffffffffffffffffffffff1681526020019081526020015f205f8781526020019081526020015f20819055508560035f3373ffffffffffffffffffffffffffffffffffffffff1673ffffffffffffffffffffffffffffffffffffffff1681526020019081526020015f205f8781526020019081526020015f205f6101000a81548173ffffffffffffffffffffffffffffffffffffffff021916908373ffffffffffffffffffffffffffffffffffffffff16021790555063150b7a0260e01b91505095945050505050565b600181815481106104a8575f80fd5b905f5260205f2090600302015f91509050805f015f9054906101000a900473ffffffffffffffffffffffffffffffffffffffff16908060010154908060020154905083565b6003602052815f5260405f20602052805f5260405f205f915091509054906101000a900473ffffffffffffffffffffffffffffffffffffffff1681565b6002602052815f5260405f20602052805f5260405f205f91509150505481565b5f805f61055684610fa5565b80925081935050505f60035f8473ffffffffffffffffffffffffffffffffffffffff1673ffffffffffffffffffffffffffffffffffffffff1681526020019081526020015f205f8381526020019081526020015f205f9054906101000a900473ffffffffffffffffffffffffffffffffffffffff1690505f73ffffffffffffffffffffffffffffffffffffffff168173ffffffffffffffffffffffffffffffffffffffff160361063b576040517f08c379a0000000000000000000000000000000000000000000000000000000008152600401610632906115ec565b60405180910390fd5b5f600160025f8673ffffffffffffffffffffffffffffffffffffffff1673ffffffffffffffffffffffffffffffffffffffff1681526020019081526020015f205f8581526020019081526020015f20548154811061069c5761069b61160a565b5b905f5260205f2090600302016040518060600160405290815f82015f9054906101000a900473ffffffffffffffffffffffffffffffffffffffff1673ffffffffffffffffffffffffffffffffffffffff1673ffffffffffffffffffffffffffffffffffffffff1681526020016001820154815260200160028201548152505090508060400151871015610764576040517f08c379a000000000000000000000000000000000000000000000000000000000815260040161075b90611681565b60405180910390fd5b5f60025f8673ffffffffffffffffffffffffffffffffffffffff1673ffffffffffffffffffffffffffffffffffffffff1681526020019081526020015f205f8581526020019081526020015f205490505f60018080805490506107c7919061156f565b815481106107d8576107d761160a565b5b905f5260205f2090600302016040518060600160405290815f82015f9054906101000a900473ffffffffffffffffffffffffffffffffffffffff1673ffffffffffffffffffffffffffffffffffffffff1673ffffffffffffffffffffffffffffffffffffffff168152602001600182015481526020016002820154815250509050806001838154811061086e5761086d61160a565b5b905f5260205f2090600302015f820151815f015f6101000a81548173ffffffffffffffffffffffffffffffffffffffff021916908373ffffffffffffffffffffffffffffffffffffffff160217905550602082015181600101556040820151816002015590505060018054806108e7576108e661169f565b5b600190038181905f5260205f2090600302015f8082015f6101000a81549073ffffffffffffffffffffffffffffffffffffffff0219169055600182015f9055600282015f9055505090558160025f835f015173ffffffffffffffffffffffffffffffffffffffff1673ffffffffffffffffffffffffffffffffffffffff1681526020019081526020015f205f836020015181526020019081526020015f20819055505f60035f8873ffffffffffffffffffffffffffffffffffffffff1673ffffffffffffffffffffffffffffffffffffffff1681526020019081526020015f205f8781526020019081526020015f205f6101000a81548173ffffffffffffffffffffffffffffffffffffffff021916908373ffffffffffffffffffffffffffffffffffffffff1602179055505f8690508073ffffffffffffffffffffffffffffffffffffffff166342842e0e308d896040518463ffffffff1660e01b8152600401610a54939291906116cc565b5f604051808303815f87803b158015610a6b575f80fd5b505af1158015610a7d573d5f803e3d5ffd5b505050505f8054906101000a900473ffffffffffffffffffffffffffffffffffffffff1673ffffffffffffffffffffffffffffffffffffffff1663a9059cbb868c6040518363ffffffff1660e01b8152600401610adb9291906114a3565b6020604051808303815f875af1158015610af7573d5f803e3d5ffd5b505050506040513d601f19601f82011682018060405250810190610b1b9190611736565b506388a7ca5c60e01b975050505050505050949350505050565b5f60035f8473ffffffffffffffffffffffffffffffffffffffff1673ffffffffffffffffffffffffffffffffffffffff1681526020019081526020015f205f8381526020019081526020015f205f9054906101000a900473ffffffffffffffffffffffffffffffffffffffff1690505f73ffffffffffffffffffffffffffffffffffffffff168173ffffffffffffffffffffffffffffffffffffffff1603610c12576040517f08c379a0000000000000000000000000000000000000000000000000000000008152600401610c09906115ec565b60405180910390fd5b8073ffffffffffffffffffffffffffffffffffffffff163373ffffffffffffffffffffffffffffffffffffffff1614610c80576040517f08c379a0000000000000000000000000000000000000000000000000000000008152600401610c77906117ab565b60405180910390fd5b5f60025f8573ffffffffffffffffffffffffffffffffffffffff1673ffffffffffffffffffffffffffffffffffffffff1681526020019081526020015f205f8481526020019081526020015f205490505f6001808080549050610ce3919061156f565b81548110610cf457610cf361160a565b5b905f5260205f2090600302016040518060600160405290815f82015f9054906101000a900473ffffffffffffffffffffffffffffffffffffffff1673ffffffffffffffffffffffffffffffffffffffff1673ffffffffffffffffffffffffffffffffffffffff1681526020016001820154815260200160028201548152505090508060018381548110610d8a57610d8961160a565b5b905f5260205f2090600302015f820151815f015f6101000a81548173ffffffffffffffffffffffffffffffffffffffff021916908373ffffffffffffffffffffffffffffffffffffffff16021790555060208201518160010155604082015181600201559050506001805480610e0357610e0261169f565b5b600190038181905f5260205f2090600302015f8082015f6101000a81549073ffffffffffffffffffffffffffffffffffffffff0219169055600182015f9055600282015f9055505090558160025f835f015173ffffffffffffffffffffffffffffffffffffffff1673ffffffffffffffffffffffffffffffffffffffff1681526020019081526020015f205f836020015181526020019081526020015f20819055505f60035f8773ffffffffffffffffffffffffffffffffffffffff1673ffffffffffffffffffffffffffffffffffffffff1681526020019081526020015f205f8681526020019081526020015f205f6101000a81548173ffffffffffffffffffffffffffffffffffffffff021916908373ffffffffffffffffffffffffffffffffffffffff1602179055505f8590508073ffffffffffffffffffffffffffffffffffffffff166342842e0e3086886040518463ffffffff1660e01b8152600401610f70939291906116cc565b5f604051808303815f87803b158015610f87575f80fd5b505af1158015610f99573d5f803e3d5ffd5b50505050505050505050565b5f805f8084806020019051810190610fbd9190611818565b915091508181935093505050915091565b5f806020830151905080915050919050565b5f604051905090565b5f80fd5b5f80fd5b5f73ffffffffffffffffffffffffffffffffffffffff82169050919050565b5f61101a82610ff1565b9050919050565b61102a81611010565b8114611034575f80fd5b50565b5f8135905061104581611021565b92915050565b5f819050919050565b61105d8161104b565b8114611067575f80fd5b50565b5f8135905061107881611054565b92915050565b5f80fd5b5f80fd5b5f80fd5b5f8083601f84011261109f5761109e61107e565b5b8235905067ffffffffffffffff8111156110bc576110bb611082565b5b6020830191508360018202830111156110d8576110d7611086565b5b9250929050565b5f805f805f608086880312156110f8576110f7610fe9565b5b5f61110588828901611037565b955050602061111688828901611037565b94505060406111278882890161106a565b935050606086013567ffffffffffffffff81111561114857611147610fed565b5b6111548882890161108a565b92509250509295509295909350565b5f7fffffffff0000000000000000000000000000000000000000000000000000000082169050919050565b61119781611163565b82525050565b5f6020820190506111b05f83018461118e565b92915050565b5f602082840312156111cb576111ca610fe9565b5b5f6111d88482850161106a565b91505092915050565b6111ea81611010565b82525050565b6111f98161104b565b82525050565b5f6060820190506112125f8301866111e1565b61121f60208301856111f0565b61122c60408301846111f0565b949350505050565b5f806040838503121561124a57611249610fe9565b5b5f61125785828601611037565b92505060206112688582860161106a565b9150509250929050565b5f6020820190506112855f8301846111e1565b92915050565b5f60208201905061129e5f8301846111f0565b92915050565b5f80fd5b5f601f19601f8301169050919050565b7f4e487b71000000000000000000000000000000000000000000000000000000005f52604160045260245ffd5b6112ee826112a8565b810181811067ffffffffffffffff8211171561130d5761130c6112b8565b5b80604052505050565b5f61131f610fe0565b905061132b82826112e5565b919050565b5f67ffffffffffffffff82111561134a576113496112b8565b5b611353826112a8565b9050602081019050919050565b828183375f83830152505050565b5f61138061137b84611330565b611316565b90508281526020810184848401111561139c5761139b6112a4565b5b6113a7848285611360565b509392505050565b5f82601f8301126113c3576113c261107e565b5b81356113d384826020860161136e565b91505092915050565b5f805f80608085870312156113f4576113f3610fe9565b5b5f61140187828801611037565b945050602061141287828801611037565b93505060406114238782880161106a565b925050606085013567ffffffffffffffff81111561144457611443610fed565b5b611450878288016113af565b91505092959194509250565b5f6020828403121561147157611470610fe9565b5b5f82013567ffffffffffffffff81111561148e5761148d610fed565b5b61149a848285016113af565b91505092915050565b5f6040820190506114b65f8301856111e1565b6114c360208301846111f0565b9392505050565b5f82825260208201905092915050565b7f616c726561647920696e2073616c652e000000000000000000000000000000005f82015250565b5f61150e6010836114ca565b9150611519826114da565b602082019050919050565b5f6020820190508181035f83015261153b81611502565b9050919050565b7f4e487b71000000000000000000000000000000000000000000000000000000005f52601160045260245ffd5b5f6115798261104b565b91506115848361104b565b925082820390508181111561159c5761159b611542565b5b92915050565b7f6e6674206973206e6f7420696e2073616c652e000000000000000000000000005f82015250565b5f6115d66013836114ca565b91506115e1826115a2565b602082019050919050565b5f6020820190508181035f830152611603816115ca565b9050919050565b7f4e487b71000000000000000000000000000000000000000000000000000000005f52603260045260245ffd5b7f706c656173652070617920656e6f756768206d6f6e656e7900000000000000005f82015250565b5f61166b6018836114ca565b915061167682611637565b602082019050919050565b5f6020820190508181035f8301526116988161165f565b9050919050565b7f4e487b71000000000000000000000000000000000000000000000000000000005f52603160045260245ffd5b5f6060820190506116df5f8301866111e1565b6116ec60208301856111e1565b6116f960408301846111f0565b949350505050565b5f8115159050919050565b61171581611701565b811461171f575f80fd5b50565b5f815190506117308161170c565b92915050565b5f6020828403121561174b5761174a610fe9565b5b5f61175884828501611722565b91505092915050565b7f4e6f7420796f7572206e66742e000000000000000000000000000000000000005f82015250565b5f611795600d836114ca565b91506117a082611761565b602082019050919050565b5f6020820190508181035f8301526117c281611789565b9050919050565b5f6117d382610ff1565b9050919050565b6117e3816117c9565b81146117ed575f80fd5b50565b5f815190506117fe816117da565b92915050565b5f8151905061181281611054565b92915050565b5f806040838503121561182e5761182d610fe9565b5b5f61183b858286016117f0565b925050602061184c85828601611804565b915050925092905056fea2646970667358221220e9ba9b0ffb05c1b618abef7c193720e2ac7c365d65b85a65fb4cc5f99220e06664736f6c634300081a0033",
					"opcodes": "PUSH1 0x80 PUSH1 0x40 MSTORE CALLVALUE DUP1 ISZERO PUSH2 0xF JUMPI PUSH0 DUP1 REVERT JUMPDEST POP PUSH1 0x40 MLOAD PUSH2 0x1998 CODESIZE SUB DUP1 PUSH2 0x1998 DUP4 CODECOPY DUP2 DUP2 ADD PUSH1 0x40 MSTORE DUP2 ADD SWAP1 PUSH2 0x31 SWAP2 SWAP1 PUSH2 0xD4 JUMP JUMPDEST DUP1 PUSH0 DUP1 PUSH2 0x100 EXP DUP2 SLOAD DUP2 PUSH20 0xFFFFFFFFFFFFFFFFFFFFFFFFFFFFFFFFFFFFFFFF MUL NOT AND SWAP1 DUP4 PUSH20 0xFFFFFFFFFFFFFFFFFFFFFFFFFFFFFFFFFFFFFFFF AND MUL OR SWAP1 SSTORE POP POP PUSH2 0xFF JUMP JUMPDEST PUSH0 DUP1 REVERT JUMPDEST PUSH0 PUSH20 0xFFFFFFFFFFFFFFFFFFFFFFFFFFFFFFFFFFFFFFFF DUP3 AND SWAP1 POP SWAP2 SWAP1 POP JUMP JUMPDEST PUSH0 PUSH2 0xA3 DUP3 PUSH2 0x7A JUMP JUMPDEST SWAP1 POP SWAP2 SWAP1 POP JUMP JUMPDEST PUSH2 0xB3 DUP2 PUSH2 0x99 JUMP JUMPDEST DUP2 EQ PUSH2 0xBD JUMPI PUSH0 DUP1 REVERT JUMPDEST POP JUMP JUMPDEST PUSH0 DUP2 MLOAD SWAP1 POP PUSH2 0xCE DUP2 PUSH2 0xAA JUMP JUMPDEST SWAP3 SWAP2 POP POP JUMP JUMPDEST PUSH0 PUSH1 0x20 DUP3 DUP5 SUB SLT ISZERO PUSH2 0xE9 JUMPI PUSH2 0xE8 PUSH2 0x76 JUMP JUMPDEST JUMPDEST PUSH0 PUSH2 0xF6 DUP5 DUP3 DUP6 ADD PUSH2 0xC0 JUMP JUMPDEST SWAP2 POP POP SWAP3 SWAP2 POP POP JUMP JUMPDEST PUSH2 0x188C DUP1 PUSH2 0x10C PUSH0 CODECOPY PUSH0 RETURN INVALID PUSH1 0x80 PUSH1 0x40 MSTORE CALLVALUE DUP1 ISZERO PUSH2 0xF JUMPI PUSH0 DUP1 REVERT JUMPDEST POP PUSH1 0x4 CALLDATASIZE LT PUSH2 0x7B JUMPI PUSH0 CALLDATALOAD PUSH1 0xE0 SHR DUP1 PUSH4 0x7F6A645F GT PUSH2 0x59 JUMPI DUP1 PUSH4 0x7F6A645F EQ PUSH2 0x111 JUMPI DUP1 PUSH4 0x88A7CA5C EQ PUSH2 0x141 JUMPI DUP1 PUSH4 0xCEE81DC5 EQ PUSH2 0x171 JUMPI DUP1 PUSH4 0xE8900E12 EQ PUSH2 0x18D JUMPI PUSH2 0x7B JUMP JUMPDEST DUP1 PUSH4 0x150B7A02 EQ PUSH2 0x7F JUMPI DUP1 PUSH4 0x28861D22 EQ PUSH2 0xAF JUMPI DUP1 PUSH4 0x5764351F EQ PUSH2 0xE1 JUMPI JUMPDEST PUSH0 DUP1 REVERT JUMPDEST PUSH2 0x99 PUSH1 0x4 DUP1 CALLDATASIZE SUB DUP2 ADD SWAP1 PUSH2 0x94 SWAP2 SWAP1 PUSH2 0x10DF JUMP JUMPDEST PUSH2 0x1BE JUMP JUMPDEST PUSH1 0x40 MLOAD PUSH2 0xA6 SWAP2 SWAP1 PUSH2 0x119D JUMP JUMPDEST PUSH1 0x40 MLOAD DUP1 SWAP2 SUB SWAP1 RETURN JUMPDEST PUSH2 0xC9 PUSH1 0x4 DUP1 CALLDATASIZE SUB DUP2 ADD SWAP1 PUSH2 0xC4 SWAP2 SWAP1 PUSH2 0x11B6 JUMP JUMPDEST PUSH2 0x499 JUMP JUMPDEST PUSH1 0x40 MLOAD PUSH2 0xD8 SWAP4 SWAP3 SWAP2 SWAP1 PUSH2 0x11FF JUMP JUMPDEST PUSH1 0x40 MLOAD DUP1 SWAP2 SUB SWAP1 RETURN JUMPDEST PUSH2 0xFB PUSH1 0x4 DUP1 CALLDATASIZE SUB DUP2 ADD SWAP1 PUSH2 0xF6 SWAP2 SWAP1 PUSH2 0x1234 JUMP JUMPDEST PUSH2 0x4ED JUMP JUMPDEST PUSH1 0x40 MLOAD PUSH2 0x108 SWAP2 SWAP1 PUSH2 0x1272 JUMP JUMPDEST PUSH1 0x40 MLOAD DUP1 SWAP2 SUB SWAP1 RETURN JUMPDEST PUSH2 0x12B PUSH1 0x4 DUP1 CALLDATASIZE SUB DUP2 ADD SWAP1 PUSH2 0x126 SWAP2 SWAP1 PUSH2 0x1234 JUMP JUMPDEST PUSH2 0x52A JUMP JUMPDEST PUSH1 0x40 MLOAD PUSH2 0x138 SWAP2 SWAP1 PUSH2 0x128B JUMP JUMPDEST PUSH1 0x40 MLOAD DUP1 SWAP2 SUB SWAP1 RETURN JUMPDEST PUSH2 0x15B PUSH1 0x4 DUP1 CALLDATASIZE SUB DUP2 ADD SWAP1 PUSH2 0x156 SWAP2 SWAP1 PUSH2 0x13DC JUMP JUMPDEST PUSH2 0x54A JUMP JUMPDEST PUSH1 0x40 MLOAD PUSH2 0x168 SWAP2 SWAP1 PUSH2 0x119D JUMP JUMPDEST PUSH1 0x40 MLOAD DUP1 SWAP2 SUB SWAP1 RETURN JUMPDEST PUSH2 0x18B PUSH1 0x4 DUP1 CALLDATASIZE SUB DUP2 ADD SWAP1 PUSH2 0x186 SWAP2 SWAP1 PUSH2 0x1234 JUMP JUMPDEST PUSH2 0xB35 JUMP JUMPDEST STOP JUMPDEST PUSH2 0x1A7 PUSH1 0x4 DUP1 CALLDATASIZE SUB DUP2 ADD SWAP1 PUSH2 0x1A2 SWAP2 SWAP1 PUSH2 0x145C JUMP JUMPDEST PUSH2 0xFA5 JUMP JUMPDEST PUSH1 0x40 MLOAD PUSH2 0x1B5 SWAP3 SWAP2 SWAP1 PUSH2 0x14A3 JUMP JUMPDEST PUSH1 0x40 MLOAD DUP1 SWAP2 SUB SWAP1 RETURN JUMPDEST PUSH0 DUP1 PUSH1 0x3 PUSH0 CALLER PUSH20 0xFFFFFFFFFFFFFFFFFFFFFFFFFFFFFFFFFFFFFFFF AND PUSH20 0xFFFFFFFFFFFFFFFFFFFFFFFFFFFFFFFFFFFFFFFF AND DUP2 MSTORE PUSH1 0x20 ADD SWAP1 DUP2 MSTORE PUSH1 0x20 ADD PUSH0 KECCAK256 PUSH0 DUP7 DUP2 MSTORE PUSH1 0x20 ADD SWAP1 DUP2 MSTORE PUSH1 0x20 ADD PUSH0 KECCAK256 PUSH0 SWAP1 SLOAD SWAP1 PUSH2 0x100 EXP SWAP1 DIV PUSH20 0xFFFFFFFFFFFFFFFFFFFFFFFFFFFFFFFFFFFFFFFF AND SWAP1 POP PUSH0 PUSH20 0xFFFFFFFFFFFFFFFFFFFFFFFFFFFFFFFFFFFFFFFF AND DUP2 PUSH20 0xFFFFFFFFFFFFFFFFFFFFFFFFFFFFFFFFFFFFFFFF AND EQ PUSH2 0x29C JUMPI PUSH1 0x40 MLOAD PUSH32 0x8C379A000000000000000000000000000000000000000000000000000000000 DUP2 MSTORE PUSH1 0x4 ADD PUSH2 0x293 SWAP1 PUSH2 0x1524 JUMP JUMPDEST PUSH1 0x40 MLOAD DUP1 SWAP2 SUB SWAP1 REVERT JUMPDEST PUSH1 0x1 PUSH1 0x40 MLOAD DUP1 PUSH1 0x60 ADD PUSH1 0x40 MSTORE DUP1 CALLER PUSH20 0xFFFFFFFFFFFFFFFFFFFFFFFFFFFFFFFFFFFFFFFF AND DUP2 MSTORE PUSH1 0x20 ADD DUP8 DUP2 MSTORE PUSH1 0x20 ADD PUSH2 0x317 DUP8 DUP8 DUP1 DUP1 PUSH1 0x1F ADD PUSH1 0x20 DUP1 SWAP2 DIV MUL PUSH1 0x20 ADD PUSH1 0x40 MLOAD SWAP1 DUP2 ADD PUSH1 0x40 MSTORE DUP1 SWAP4 SWAP3 SWAP2 SWAP1 DUP2 DUP2 MSTORE PUSH1 0x20 ADD DUP4 DUP4 DUP1 DUP3 DUP5 CALLDATACOPY PUSH0 DUP2 DUP5 ADD MSTORE PUSH1 0x1F NOT PUSH1 0x1F DUP3 ADD AND SWAP1 POP DUP1 DUP4 ADD SWAP3 POP POP POP POP POP POP POP PUSH2 0xFCE JUMP JUMPDEST DUP2 MSTORE POP SWAP1 DUP1 PUSH1 0x1 DUP2 SLOAD ADD DUP1 DUP3 SSTORE DUP1 SWAP2 POP POP PUSH1 0x1 SWAP1 SUB SWAP1 PUSH0 MSTORE PUSH1 0x20 PUSH0 KECCAK256 SWAP1 PUSH1 0x3 MUL ADD PUSH0 SWAP1 SWAP2 SWAP1 SWAP2 SWAP1 SWAP2 POP PUSH0 DUP3 ADD MLOAD DUP2 PUSH0 ADD PUSH0 PUSH2 0x100 EXP DUP2 SLOAD DUP2 PUSH20 0xFFFFFFFFFFFFFFFFFFFFFFFFFFFFFFFFFFFFFFFF MUL NOT AND SWAP1 DUP4 PUSH20 0xFFFFFFFFFFFFFFFFFFFFFFFFFFFFFFFFFFFFFFFF AND MUL OR SWAP1 SSTORE POP PUSH1 0x20 DUP3 ADD MLOAD DUP2 PUSH1 0x1 ADD SSTORE PUSH1 0x40 DUP3 ADD MLOAD DUP2 PUSH1 0x2 ADD SSTORE POP POP PUSH1 0x1 DUP1 DUP1 SLOAD SWAP1 POP PUSH2 0x3AB SWAP2 SWAP1 PUSH2 0x156F JUMP JUMPDEST PUSH1 0x2 PUSH0 CALLER PUSH20 0xFFFFFFFFFFFFFFFFFFFFFFFFFFFFFFFFFFFFFFFF AND PUSH20 0xFFFFFFFFFFFFFFFFFFFFFFFFFFFFFFFFFFFFFFFF AND DUP2 MSTORE PUSH1 0x20 ADD SWAP1 DUP2 MSTORE PUSH1 0x20 ADD PUSH0 KECCAK256 PUSH0 DUP8 DUP2 MSTORE PUSH1 0x20 ADD SWAP1 DUP2 MSTORE PUSH1 0x20 ADD PUSH0 KECCAK256 DUP2 SWAP1 SSTORE POP DUP6 PUSH1 0x3 PUSH0 CALLER PUSH20 0xFFFFFFFFFFFFFFFFFFFFFFFFFFFFFFFFFFFFFFFF AND PUSH20 0xFFFFFFFFFFFFFFFFFFFFFFFFFFFFFFFFFFFFFFFF AND DUP2 MSTORE PUSH1 0x20 ADD SWAP1 DUP2 MSTORE PUSH1 0x20 ADD PUSH0 KECCAK256 PUSH0 DUP8 DUP2 MSTORE PUSH1 0x20 ADD SWAP1 DUP2 MSTORE PUSH1 0x20 ADD PUSH0 KECCAK256 PUSH0 PUSH2 0x100 EXP DUP2 SLOAD DUP2 PUSH20 0xFFFFFFFFFFFFFFFFFFFFFFFFFFFFFFFFFFFFFFFF MUL NOT AND SWAP1 DUP4 PUSH20 0xFFFFFFFFFFFFFFFFFFFFFFFFFFFFFFFFFFFFFFFF AND MUL OR SWAP1 SSTORE POP PUSH4 0x150B7A02 PUSH1 0xE0 SHL SWAP2 POP POP SWAP6 SWAP5 POP POP POP POP POP JUMP JUMPDEST PUSH1 0x1 DUP2 DUP2 SLOAD DUP2 LT PUSH2 0x4A8 JUMPI PUSH0 DUP1 REVERT JUMPDEST SWAP1 PUSH0 MSTORE PUSH1 0x20 PUSH0 KECCAK256 SWAP1 PUSH1 0x3 MUL ADD PUSH0 SWAP2 POP SWAP1 POP DUP1 PUSH0 ADD PUSH0 SWAP1 SLOAD SWAP1 PUSH2 0x100 EXP SWAP1 DIV PUSH20 0xFFFFFFFFFFFFFFFFFFFFFFFFFFFFFFFFFFFFFFFF AND SWAP1 DUP1 PUSH1 0x1 ADD SLOAD SWAP1 DUP1 PUSH1 0x2 ADD SLOAD SWAP1 POP DUP4 JUMP JUMPDEST PUSH1 0x3 PUSH1 0x20 MSTORE DUP2 PUSH0 MSTORE PUSH1 0x40 PUSH0 KECCAK256 PUSH1 0x20 MSTORE DUP1 PUSH0 MSTORE PUSH1 0x40 PUSH0 KECCAK256 PUSH0 SWAP2 POP SWAP2 POP SWAP1 SLOAD SWAP1 PUSH2 0x100 EXP SWAP1 DIV PUSH20 0xFFFFFFFFFFFFFFFFFFFFFFFFFFFFFFFFFFFFFFFF AND DUP2 JUMP JUMPDEST PUSH1 0x2 PUSH1 0x20 MSTORE DUP2 PUSH0 MSTORE PUSH1 0x40 PUSH0 KECCAK256 PUSH1 0x20 MSTORE DUP1 PUSH0 MSTORE PUSH1 0x40 PUSH0 KECCAK256 PUSH0 SWAP2 POP SWAP2 POP POP SLOAD DUP2 JUMP JUMPDEST PUSH0 DUP1 PUSH0 PUSH2 0x556 DUP5 PUSH2 0xFA5 JUMP JUMPDEST DUP1 SWAP3 POP DUP2 SWAP4 POP POP POP PUSH0 PUSH1 0x3 PUSH0 DUP5 PUSH20 0xFFFFFFFFFFFFFFFFFFFFFFFFFFFFFFFFFFFFFFFF AND PUSH20 0xFFFFFFFFFFFFFFFFFFFFFFFFFFFFFFFFFFFFFFFF AND DUP2 MSTORE PUSH1 0x20 ADD SWAP1 DUP2 MSTORE PUSH1 0x20 ADD PUSH0 KECCAK256 PUSH0 DUP4 DUP2 MSTORE PUSH1 0x20 ADD SWAP1 DUP2 MSTORE PUSH1 0x20 ADD PUSH0 KECCAK256 PUSH0 SWAP1 SLOAD SWAP1 PUSH2 0x100 EXP SWAP1 DIV PUSH20 0xFFFFFFFFFFFFFFFFFFFFFFFFFFFFFFFFFFFFFFFF AND SWAP1 POP PUSH0 PUSH20 0xFFFFFFFFFFFFFFFFFFFFFFFFFFFFFFFFFFFFFFFF AND DUP2 PUSH20 0xFFFFFFFFFFFFFFFFFFFFFFFFFFFFFFFFFFFFFFFF AND SUB PUSH2 0x63B JUMPI PUSH1 0x40 MLOAD PUSH32 0x8C379A000000000000000000000000000000000000000000000000000000000 DUP2 MSTORE PUSH1 0x4 ADD PUSH2 0x632 SWAP1 PUSH2 0x15EC JUMP JUMPDEST PUSH1 0x40 MLOAD DUP1 SWAP2 SUB SWAP1 REVERT JUMPDEST PUSH0 PUSH1 0x1 PUSH1 0x2 PUSH0 DUP7 PUSH20 0xFFFFFFFFFFFFFFFFFFFFFFFFFFFFFFFFFFFFFFFF AND PUSH20 0xFFFFFFFFFFFFFFFFFFFFFFFFFFFFFFFFFFFFFFFF AND DUP2 MSTORE PUSH1 0x20 ADD SWAP1 DUP2 MSTORE PUSH1 0x20 ADD PUSH0 KECCAK256 PUSH0 DUP6 DUP2 MSTORE PUSH1 0x20 ADD SWAP1 DUP2 MSTORE PUSH1 0x20 ADD PUSH0 KECCAK256 SLOAD DUP2 SLOAD DUP2 LT PUSH2 0x69C JUMPI PUSH2 0x69B PUSH2 0x160A JUMP JUMPDEST JUMPDEST SWAP1 PUSH0 MSTORE PUSH1 0x20 PUSH0 KECCAK256 SWAP1 PUSH1 0x3 MUL ADD PUSH1 0x40 MLOAD DUP1 PUSH1 0x60 ADD PUSH1 0x40 MSTORE SWAP1 DUP2 PUSH0 DUP3 ADD PUSH0 SWAP1 SLOAD SWAP1 PUSH2 0x100 EXP SWAP1 DIV PUSH20 0xFFFFFFFFFFFFFFFFFFFFFFFFFFFFFFFFFFFFFFFF AND PUSH20 0xFFFFFFFFFFFFFFFFFFFFFFFFFFFFFFFFFFFFFFFF AND PUSH20 0xFFFFFFFFFFFFFFFFFFFFFFFFFFFFFFFFFFFFFFFF AND DUP2 MSTORE PUSH1 0x20 ADD PUSH1 0x1 DUP3 ADD SLOAD DUP2 MSTORE PUSH1 0x20 ADD PUSH1 0x2 DUP3 ADD SLOAD DUP2 MSTORE POP POP SWAP1 POP DUP1 PUSH1 0x40 ADD MLOAD DUP8 LT ISZERO PUSH2 0x764 JUMPI PUSH1 0x40 MLOAD PUSH32 0x8C379A000000000000000000000000000000000000000000000000000000000 DUP2 MSTORE PUSH1 0x4 ADD PUSH2 0x75B SWAP1 PUSH2 0x1681 JUMP JUMPDEST PUSH1 0x40 MLOAD DUP1 SWAP2 SUB SWAP1 REVERT JUMPDEST PUSH0 PUSH1 0x2 PUSH0 DUP7 PUSH20 0xFFFFFFFFFFFFFFFFFFFFFFFFFFFFFFFFFFFFFFFF AND PUSH20 0xFFFFFFFFFFFFFFFFFFFFFFFFFFFFFFFFFFFFFFFF AND DUP2 MSTORE PUSH1 0x20 ADD SWAP1 DUP2 MSTORE PUSH1 0x20 ADD PUSH0 KECCAK256 PUSH0 DUP6 DUP2 MSTORE PUSH1 0x20 ADD SWAP1 DUP2 MSTORE PUSH1 0x20 ADD PUSH0 KECCAK256 SLOAD SWAP1 POP PUSH0 PUSH1 0x1 DUP1 DUP1 DUP1 SLOAD SWAP1 POP PUSH2 0x7C7 SWAP2 SWAP1 PUSH2 0x156F JUMP JUMPDEST DUP2 SLOAD DUP2 LT PUSH2 0x7D8 JUMPI PUSH2 0x7D7 PUSH2 0x160A JUMP JUMPDEST JUMPDEST SWAP1 PUSH0 MSTORE PUSH1 0x20 PUSH0 KECCAK256 SWAP1 PUSH1 0x3 MUL ADD PUSH1 0x40 MLOAD DUP1 PUSH1 0x60 ADD PUSH1 0x40 MSTORE SWAP1 DUP2 PUSH0 DUP3 ADD PUSH0 SWAP1 SLOAD SWAP1 PUSH2 0x100 EXP SWAP1 DIV PUSH20 0xFFFFFFFFFFFFFFFFFFFFFFFFFFFFFFFFFFFFFFFF AND PUSH20 0xFFFFFFFFFFFFFFFFFFFFFFFFFFFFFFFFFFFFFFFF AND PUSH20 0xFFFFFFFFFFFFFFFFFFFFFFFFFFFFFFFFFFFFFFFF AND DUP2 MSTORE PUSH1 0x20 ADD PUSH1 0x1 DUP3 ADD SLOAD DUP2 MSTORE PUSH1 0x20 ADD PUSH1 0x2 DUP3 ADD SLOAD DUP2 MSTORE POP POP SWAP1 POP DUP1 PUSH1 0x1 DUP4 DUP2 SLOAD DUP2 LT PUSH2 0x86E JUMPI PUSH2 0x86D PUSH2 0x160A JUMP JUMPDEST JUMPDEST SWAP1 PUSH0 MSTORE PUSH1 0x20 PUSH0 KECCAK256 SWAP1 PUSH1 0x3 MUL ADD PUSH0 DUP3 ADD MLOAD DUP2 PUSH0 ADD PUSH0 PUSH2 0x100 EXP DUP2 SLOAD DUP2 PUSH20 0xFFFFFFFFFFFFFFFFFFFFFFFFFFFFFFFFFFFFFFFF MUL NOT AND SWAP1 DUP4 PUSH20 0xFFFFFFFFFFFFFFFFFFFFFFFFFFFFFFFFFFFFFFFF AND MUL OR SWAP1 SSTORE POP PUSH1 0x20 DUP3 ADD MLOAD DUP2 PUSH1 0x1 ADD SSTORE PUSH1 0x40 DUP3 ADD MLOAD DUP2 PUSH1 0x2 ADD SSTORE SWAP1 POP POP PUSH1 0x1 DUP1 SLOAD DUP1 PUSH2 0x8E7 JUMPI PUSH2 0x8E6 PUSH2 0x169F JUMP JUMPDEST JUMPDEST PUSH1 0x1 SWAP1 SUB DUP2 DUP2 SWAP1 PUSH0 MSTORE PUSH1 0x20 PUSH0 KECCAK256 SWAP1 PUSH1 0x3 MUL ADD PUSH0 DUP1 DUP3 ADD PUSH0 PUSH2 0x100 EXP DUP2 SLOAD SWAP1 PUSH20 0xFFFFFFFFFFFFFFFFFFFFFFFFFFFFFFFFFFFFFFFF MUL NOT AND SWAP1 SSTORE PUSH1 0x1 DUP3 ADD PUSH0 SWAP1 SSTORE PUSH1 0x2 DUP3 ADD PUSH0 SWAP1 SSTORE POP POP SWAP1 SSTORE DUP2 PUSH1 0x2 PUSH0 DUP4 PUSH0 ADD MLOAD PUSH20 0xFFFFFFFFFFFFFFFFFFFFFFFFFFFFFFFFFFFFFFFF AND PUSH20 0xFFFFFFFFFFFFFFFFFFFFFFFFFFFFFFFFFFFFFFFF AND DUP2 MSTORE PUSH1 0x20 ADD SWAP1 DUP2 MSTORE PUSH1 0x20 ADD PUSH0 KECCAK256 PUSH0 DUP4 PUSH1 0x20 ADD MLOAD DUP2 MSTORE PUSH1 0x20 ADD SWAP1 DUP2 MSTORE PUSH1 0x20 ADD PUSH0 KECCAK256 DUP2 SWAP1 SSTORE POP PUSH0 PUSH1 0x3 PUSH0 DUP9 PUSH20 0xFFFFFFFFFFFFFFFFFFFFFFFFFFFFFFFFFFFFFFFF AND PUSH20 0xFFFFFFFFFFFFFFFFFFFFFFFFFFFFFFFFFFFFFFFF AND DUP2 MSTORE PUSH1 0x20 ADD SWAP1 DUP2 MSTORE PUSH1 0x20 ADD PUSH0 KECCAK256 PUSH0 DUP8 DUP2 MSTORE PUSH1 0x20 ADD SWAP1 DUP2 MSTORE PUSH1 0x20 ADD PUSH0 KECCAK256 PUSH0 PUSH2 0x100 EXP DUP2 SLOAD DUP2 PUSH20 0xFFFFFFFFFFFFFFFFFFFFFFFFFFFFFFFFFFFFFFFF MUL NOT AND SWAP1 DUP4 PUSH20 0xFFFFFFFFFFFFFFFFFFFFFFFFFFFFFFFFFFFFFFFF AND MUL OR SWAP1 SSTORE POP PUSH0 DUP7 SWAP1 POP DUP1 PUSH20 0xFFFFFFFFFFFFFFFFFFFFFFFFFFFFFFFFFFFFFFFF AND PUSH4 0x42842E0E ADDRESS DUP14 DUP10 PUSH1 0x40 MLOAD DUP5 PUSH4 0xFFFFFFFF AND PUSH1 0xE0 SHL DUP2 MSTORE PUSH1 0x4 ADD PUSH2 0xA54 SWAP4 SWAP3 SWAP2 SWAP1 PUSH2 0x16CC JUMP JUMPDEST PUSH0 PUSH1 0x40 MLOAD DUP1 DUP4 SUB DUP2 PUSH0 DUP8 DUP1 EXTCODESIZE ISZERO DUP1 ISZERO PUSH2 0xA6B JUMPI PUSH0 DUP1 REVERT JUMPDEST POP GAS CALL ISZERO DUP1 ISZERO PUSH2 0xA7D JUMPI RETURNDATASIZE PUSH0 DUP1 RETURNDATACOPY RETURNDATASIZE PUSH0 REVERT JUMPDEST POP POP POP POP PUSH0 DUP1 SLOAD SWAP1 PUSH2 0x100 EXP SWAP1 DIV PUSH20 0xFFFFFFFFFFFFFFFFFFFFFFFFFFFFFFFFFFFFFFFF AND PUSH20 0xFFFFFFFFFFFFFFFFFFFFFFFFFFFFFFFFFFFFFFFF AND PUSH4 0xA9059CBB DUP7 DUP13 PUSH1 0x40 MLOAD DUP4 PUSH4 0xFFFFFFFF AND PUSH1 0xE0 SHL DUP2 MSTORE PUSH1 0x4 ADD PUSH2 0xADB SWAP3 SWAP2 SWAP1 PUSH2 0x14A3 JUMP JUMPDEST PUSH1 0x20 PUSH1 0x40 MLOAD DUP1 DUP4 SUB DUP2 PUSH0 DUP8 GAS CALL ISZERO DUP1 ISZERO PUSH2 0xAF7 JUMPI RETURNDATASIZE PUSH0 DUP1 RETURNDATACOPY RETURNDATASIZE PUSH0 REVERT JUMPDEST POP POP POP POP PUSH1 0x40 MLOAD RETURNDATASIZE PUSH1 0x1F NOT PUSH1 0x1F DUP3 ADD AND DUP3 ADD DUP1 PUSH1 0x40 MSTORE POP DUP2 ADD SWAP1 PUSH2 0xB1B SWAP2 SWAP1 PUSH2 0x1736 JUMP JUMPDEST POP PUSH4 0x88A7CA5C PUSH1 0xE0 SHL SWAP8 POP POP POP POP POP POP POP POP SWAP5 SWAP4 POP POP POP POP JUMP JUMPDEST PUSH0 PUSH1 0x3 PUSH0 DUP5 PUSH20 0xFFFFFFFFFFFFFFFFFFFFFFFFFFFFFFFFFFFFFFFF AND PUSH20 0xFFFFFFFFFFFFFFFFFFFFFFFFFFFFFFFFFFFFFFFF AND DUP2 MSTORE PUSH1 0x20 ADD SWAP1 DUP2 MSTORE PUSH1 0x20 ADD PUSH0 KECCAK256 PUSH0 DUP4 DUP2 MSTORE PUSH1 0x20 ADD SWAP1 DUP2 MSTORE PUSH1 0x20 ADD PUSH0 KECCAK256 PUSH0 SWAP1 SLOAD SWAP1 PUSH2 0x100 EXP SWAP1 DIV PUSH20 0xFFFFFFFFFFFFFFFFFFFFFFFFFFFFFFFFFFFFFFFF AND SWAP1 POP PUSH0 PUSH20 0xFFFFFFFFFFFFFFFFFFFFFFFFFFFFFFFFFFFFFFFF AND DUP2 PUSH20 0xFFFFFFFFFFFFFFFFFFFFFFFFFFFFFFFFFFFFFFFF AND SUB PUSH2 0xC12 JUMPI PUSH1 0x40 MLOAD PUSH32 0x8C379A000000000000000000000000000000000000000000000000000000000 DUP2 MSTORE PUSH1 0x4 ADD PUSH2 0xC09 SWAP1 PUSH2 0x15EC JUMP JUMPDEST PUSH1 0x40 MLOAD DUP1 SWAP2 SUB SWAP1 REVERT JUMPDEST DUP1 PUSH20 0xFFFFFFFFFFFFFFFFFFFFFFFFFFFFFFFFFFFFFFFF AND CALLER PUSH20 0xFFFFFFFFFFFFFFFFFFFFFFFFFFFFFFFFFFFFFFFF AND EQ PUSH2 0xC80 JUMPI PUSH1 0x40 MLOAD PUSH32 0x8C379A000000000000000000000000000000000000000000000000000000000 DUP2 MSTORE PUSH1 0x4 ADD PUSH2 0xC77 SWAP1 PUSH2 0x17AB JUMP JUMPDEST PUSH1 0x40 MLOAD DUP1 SWAP2 SUB SWAP1 REVERT JUMPDEST PUSH0 PUSH1 0x2 PUSH0 DUP6 PUSH20 0xFFFFFFFFFFFFFFFFFFFFFFFFFFFFFFFFFFFFFFFF AND PUSH20 0xFFFFFFFFFFFFFFFFFFFFFFFFFFFFFFFFFFFFFFFF AND DUP2 MSTORE PUSH1 0x20 ADD SWAP1 DUP2 MSTORE PUSH1 0x20 ADD PUSH0 KECCAK256 PUSH0 DUP5 DUP2 MSTORE PUSH1 0x20 ADD SWAP1 DUP2 MSTORE PUSH1 0x20 ADD PUSH0 KECCAK256 SLOAD SWAP1 POP PUSH0 PUSH1 0x1 DUP1 DUP1 DUP1 SLOAD SWAP1 POP PUSH2 0xCE3 SWAP2 SWAP1 PUSH2 0x156F JUMP JUMPDEST DUP2 SLOAD DUP2 LT PUSH2 0xCF4 JUMPI PUSH2 0xCF3 PUSH2 0x160A JUMP JUMPDEST JUMPDEST SWAP1 PUSH0 MSTORE PUSH1 0x20 PUSH0 KECCAK256 SWAP1 PUSH1 0x3 MUL ADD PUSH1 0x40 MLOAD DUP1 PUSH1 0x60 ADD PUSH1 0x40 MSTORE SWAP1 DUP2 PUSH0 DUP3 ADD PUSH0 SWAP1 SLOAD SWAP1 PUSH2 0x100 EXP SWAP1 DIV PUSH20 0xFFFFFFFFFFFFFFFFFFFFFFFFFFFFFFFFFFFFFFFF AND PUSH20 0xFFFFFFFFFFFFFFFFFFFFFFFFFFFFFFFFFFFFFFFF AND PUSH20 0xFFFFFFFFFFFFFFFFFFFFFFFFFFFFFFFFFFFFFFFF AND DUP2 MSTORE PUSH1 0x20 ADD PUSH1 0x1 DUP3 ADD SLOAD DUP2 MSTORE PUSH1 0x20 ADD PUSH1 0x2 DUP3 ADD SLOAD DUP2 MSTORE POP POP SWAP1 POP DUP1 PUSH1 0x1 DUP4 DUP2 SLOAD DUP2 LT PUSH2 0xD8A JUMPI PUSH2 0xD89 PUSH2 0x160A JUMP JUMPDEST JUMPDEST SWAP1 PUSH0 MSTORE PUSH1 0x20 PUSH0 KECCAK256 SWAP1 PUSH1 0x3 MUL ADD PUSH0 DUP3 ADD MLOAD DUP2 PUSH0 ADD PUSH0 PUSH2 0x100 EXP DUP2 SLOAD DUP2 PUSH20 0xFFFFFFFFFFFFFFFFFFFFFFFFFFFFFFFFFFFFFFFF MUL NOT AND SWAP1 DUP4 PUSH20 0xFFFFFFFFFFFFFFFFFFFFFFFFFFFFFFFFFFFFFFFF AND MUL OR SWAP1 SSTORE POP PUSH1 0x20 DUP3 ADD MLOAD DUP2 PUSH1 0x1 ADD SSTORE PUSH1 0x40 DUP3 ADD MLOAD DUP2 PUSH1 0x2 ADD SSTORE SWAP1 POP POP PUSH1 0x1 DUP1 SLOAD DUP1 PUSH2 0xE03 JUMPI PUSH2 0xE02 PUSH2 0x169F JUMP JUMPDEST JUMPDEST PUSH1 0x1 SWAP1 SUB DUP2 DUP2 SWAP1 PUSH0 MSTORE PUSH1 0x20 PUSH0 KECCAK256 SWAP1 PUSH1 0x3 MUL ADD PUSH0 DUP1 DUP3 ADD PUSH0 PUSH2 0x100 EXP DUP2 SLOAD SWAP1 PUSH20 0xFFFFFFFFFFFFFFFFFFFFFFFFFFFFFFFFFFFFFFFF MUL NOT AND SWAP1 SSTORE PUSH1 0x1 DUP3 ADD PUSH0 SWAP1 SSTORE PUSH1 0x2 DUP3 ADD PUSH0 SWAP1 SSTORE POP POP SWAP1 SSTORE DUP2 PUSH1 0x2 PUSH0 DUP4 PUSH0 ADD MLOAD PUSH20 0xFFFFFFFFFFFFFFFFFFFFFFFFFFFFFFFFFFFFFFFF AND PUSH20 0xFFFFFFFFFFFFFFFFFFFFFFFFFFFFFFFFFFFFFFFF AND DUP2 MSTORE PUSH1 0x20 ADD SWAP1 DUP2 MSTORE PUSH1 0x20 ADD PUSH0 KECCAK256 PUSH0 DUP4 PUSH1 0x20 ADD MLOAD DUP2 MSTORE PUSH1 0x20 ADD SWAP1 DUP2 MSTORE PUSH1 0x20 ADD PUSH0 KECCAK256 DUP2 SWAP1 SSTORE POP PUSH0 PUSH1 0x3 PUSH0 DUP8 PUSH20 0xFFFFFFFFFFFFFFFFFFFFFFFFFFFFFFFFFFFFFFFF AND PUSH20 0xFFFFFFFFFFFFFFFFFFFFFFFFFFFFFFFFFFFFFFFF AND DUP2 MSTORE PUSH1 0x20 ADD SWAP1 DUP2 MSTORE PUSH1 0x20 ADD PUSH0 KECCAK256 PUSH0 DUP7 DUP2 MSTORE PUSH1 0x20 ADD SWAP1 DUP2 MSTORE PUSH1 0x20 ADD PUSH0 KECCAK256 PUSH0 PUSH2 0x100 EXP DUP2 SLOAD DUP2 PUSH20 0xFFFFFFFFFFFFFFFFFFFFFFFFFFFFFFFFFFFFFFFF MUL NOT AND SWAP1 DUP4 PUSH20 0xFFFFFFFFFFFFFFFFFFFFFFFFFFFFFFFFFFFFFFFF AND MUL OR SWAP1 SSTORE POP PUSH0 DUP6 SWAP1 POP DUP1 PUSH20 0xFFFFFFFFFFFFFFFFFFFFFFFFFFFFFFFFFFFFFFFF AND PUSH4 0x42842E0E ADDRESS DUP7 DUP9 PUSH1 0x40 MLOAD DUP5 PUSH4 0xFFFFFFFF AND PUSH1 0xE0 SHL DUP2 MSTORE PUSH1 0x4 ADD PUSH2 0xF70 SWAP4 SWAP3 SWAP2 SWAP1 PUSH2 0x16CC JUMP JUMPDEST PUSH0 PUSH1 0x40 MLOAD DUP1 DUP4 SUB DUP2 PUSH0 DUP8 DUP1 EXTCODESIZE ISZERO DUP1 ISZERO PUSH2 0xF87 JUMPI PUSH0 DUP1 REVERT JUMPDEST POP GAS CALL ISZERO DUP1 ISZERO PUSH2 0xF99 JUMPI RETURNDATASIZE PUSH0 DUP1 RETURNDATACOPY RETURNDATASIZE PUSH0 REVERT JUMPDEST POP POP POP POP POP POP POP POP POP POP JUMP JUMPDEST PUSH0 DUP1 PUSH0 DUP1 DUP5 DUP1 PUSH1 0x20 ADD SWAP1 MLOAD DUP2 ADD SWAP1 PUSH2 0xFBD SWAP2 SWAP1 PUSH2 0x1818 JUMP JUMPDEST SWAP2 POP SWAP2 POP DUP2 DUP2 SWAP4 POP SWAP4 POP POP POP SWAP2 POP SWAP2 JUMP JUMPDEST PUSH0 DUP1 PUSH1 0x20 DUP4 ADD MLOAD SWAP1 POP DUP1 SWAP2 POP POP SWAP2 SWAP1 POP JUMP JUMPDEST PUSH0 PUSH1 0x40 MLOAD SWAP1 POP SWAP1 JUMP JUMPDEST PUSH0 DUP1 REVERT JUMPDEST PUSH0 DUP1 REVERT JUMPDEST PUSH0 PUSH20 0xFFFFFFFFFFFFFFFFFFFFFFFFFFFFFFFFFFFFFFFF DUP3 AND SWAP1 POP SWAP2 SWAP1 POP JUMP JUMPDEST PUSH0 PUSH2 0x101A DUP3 PUSH2 0xFF1 JUMP JUMPDEST SWAP1 POP SWAP2 SWAP1 POP JUMP JUMPDEST PUSH2 0x102A DUP2 PUSH2 0x1010 JUMP JUMPDEST DUP2 EQ PUSH2 0x1034 JUMPI PUSH0 DUP1 REVERT JUMPDEST POP JUMP JUMPDEST PUSH0 DUP2 CALLDATALOAD SWAP1 POP PUSH2 0x1045 DUP2 PUSH2 0x1021 JUMP JUMPDEST SWAP3 SWAP2 POP POP JUMP JUMPDEST PUSH0 DUP2 SWAP1 POP SWAP2 SWAP1 POP JUMP JUMPDEST PUSH2 0x105D DUP2 PUSH2 0x104B JUMP JUMPDEST DUP2 EQ PUSH2 0x1067 JUMPI PUSH0 DUP1 REVERT JUMPDEST POP JUMP JUMPDEST PUSH0 DUP2 CALLDATALOAD SWAP1 POP PUSH2 0x1078 DUP2 PUSH2 0x1054 JUMP JUMPDEST SWAP3 SWAP2 POP POP JUMP JUMPDEST PUSH0 DUP1 REVERT JUMPDEST PUSH0 DUP1 REVERT JUMPDEST PUSH0 DUP1 REVERT JUMPDEST PUSH0 DUP1 DUP4 PUSH1 0x1F DUP5 ADD SLT PUSH2 0x109F JUMPI PUSH2 0x109E PUSH2 0x107E JUMP JUMPDEST JUMPDEST DUP3 CALLDATALOAD SWAP1 POP PUSH8 0xFFFFFFFFFFFFFFFF DUP2 GT ISZERO PUSH2 0x10BC JUMPI PUSH2 0x10BB PUSH2 0x1082 JUMP JUMPDEST JUMPDEST PUSH1 0x20 DUP4 ADD SWAP2 POP DUP4 PUSH1 0x1 DUP3 MUL DUP4 ADD GT ISZERO PUSH2 0x10D8 JUMPI PUSH2 0x10D7 PUSH2 0x1086 JUMP JUMPDEST JUMPDEST SWAP3 POP SWAP3 SWAP1 POP JUMP JUMPDEST PUSH0 DUP1 PUSH0 DUP1 PUSH0 PUSH1 0x80 DUP7 DUP9 SUB SLT ISZERO PUSH2 0x10F8 JUMPI PUSH2 0x10F7 PUSH2 0xFE9 JUMP JUMPDEST JUMPDEST PUSH0 PUSH2 0x1105 DUP9 DUP3 DUP10 ADD PUSH2 0x1037 JUMP JUMPDEST SWAP6 POP POP PUSH1 0x20 PUSH2 0x1116 DUP9 DUP3 DUP10 ADD PUSH2 0x1037 JUMP JUMPDEST SWAP5 POP POP PUSH1 0x40 PUSH2 0x1127 DUP9 DUP3 DUP10 ADD PUSH2 0x106A JUMP JUMPDEST SWAP4 POP POP PUSH1 0x60 DUP7 ADD CALLDATALOAD PUSH8 0xFFFFFFFFFFFFFFFF DUP2 GT ISZERO PUSH2 0x1148 JUMPI PUSH2 0x1147 PUSH2 0xFED JUMP JUMPDEST JUMPDEST PUSH2 0x1154 DUP9 DUP3 DUP10 ADD PUSH2 0x108A JUMP JUMPDEST SWAP3 POP SWAP3 POP POP SWAP3 SWAP6 POP SWAP3 SWAP6 SWAP1 SWAP4 POP JUMP JUMPDEST PUSH0 PUSH32 0xFFFFFFFF00000000000000000000000000000000000000000000000000000000 DUP3 AND SWAP1 POP SWAP2 SWAP1 POP JUMP JUMPDEST PUSH2 0x1197 DUP2 PUSH2 0x1163 JUMP JUMPDEST DUP3 MSTORE POP POP JUMP JUMPDEST PUSH0 PUSH1 0x20 DUP3 ADD SWAP1 POP PUSH2 0x11B0 PUSH0 DUP4 ADD DUP5 PUSH2 0x118E JUMP JUMPDEST SWAP3 SWAP2 POP POP JUMP JUMPDEST PUSH0 PUSH1 0x20 DUP3 DUP5 SUB SLT ISZERO PUSH2 0x11CB JUMPI PUSH2 0x11CA PUSH2 0xFE9 JUMP JUMPDEST JUMPDEST PUSH0 PUSH2 0x11D8 DUP5 DUP3 DUP6 ADD PUSH2 0x106A JUMP JUMPDEST SWAP2 POP POP SWAP3 SWAP2 POP POP JUMP JUMPDEST PUSH2 0x11EA DUP2 PUSH2 0x1010 JUMP JUMPDEST DUP3 MSTORE POP POP JUMP JUMPDEST PUSH2 0x11F9 DUP2 PUSH2 0x104B JUMP JUMPDEST DUP3 MSTORE POP POP JUMP JUMPDEST PUSH0 PUSH1 0x60 DUP3 ADD SWAP1 POP PUSH2 0x1212 PUSH0 DUP4 ADD DUP7 PUSH2 0x11E1 JUMP JUMPDEST PUSH2 0x121F PUSH1 0x20 DUP4 ADD DUP6 PUSH2 0x11F0 JUMP JUMPDEST PUSH2 0x122C PUSH1 0x40 DUP4 ADD DUP5 PUSH2 0x11F0 JUMP JUMPDEST SWAP5 SWAP4 POP POP POP POP JUMP JUMPDEST PUSH0 DUP1 PUSH1 0x40 DUP4 DUP6 SUB SLT ISZERO PUSH2 0x124A JUMPI PUSH2 0x1249 PUSH2 0xFE9 JUMP JUMPDEST JUMPDEST PUSH0 PUSH2 0x1257 DUP6 DUP3 DUP7 ADD PUSH2 0x1037 JUMP JUMPDEST SWAP3 POP POP PUSH1 0x20 PUSH2 0x1268 DUP6 DUP3 DUP7 ADD PUSH2 0x106A JUMP JUMPDEST SWAP2 POP POP SWAP3 POP SWAP3 SWAP1 POP JUMP JUMPDEST PUSH0 PUSH1 0x20 DUP3 ADD SWAP1 POP PUSH2 0x1285 PUSH0 DUP4 ADD DUP5 PUSH2 0x11E1 JUMP JUMPDEST SWAP3 SWAP2 POP POP JUMP JUMPDEST PUSH0 PUSH1 0x20 DUP3 ADD SWAP1 POP PUSH2 0x129E PUSH0 DUP4 ADD DUP5 PUSH2 0x11F0 JUMP JUMPDEST SWAP3 SWAP2 POP POP JUMP JUMPDEST PUSH0 DUP1 REVERT JUMPDEST PUSH0 PUSH1 0x1F NOT PUSH1 0x1F DUP4 ADD AND SWAP1 POP SWAP2 SWAP1 POP JUMP JUMPDEST PUSH32 0x4E487B7100000000000000000000000000000000000000000000000000000000 PUSH0 MSTORE PUSH1 0x41 PUSH1 0x4 MSTORE PUSH1 0x24 PUSH0 REVERT JUMPDEST PUSH2 0x12EE DUP3 PUSH2 0x12A8 JUMP JUMPDEST DUP2 ADD DUP2 DUP2 LT PUSH8 0xFFFFFFFFFFFFFFFF DUP3 GT OR ISZERO PUSH2 0x130D JUMPI PUSH2 0x130C PUSH2 0x12B8 JUMP JUMPDEST JUMPDEST DUP1 PUSH1 0x40 MSTORE POP POP POP JUMP JUMPDEST PUSH0 PUSH2 0x131F PUSH2 0xFE0 JUMP JUMPDEST SWAP1 POP PUSH2 0x132B DUP3 DUP3 PUSH2 0x12E5 JUMP JUMPDEST SWAP2 SWAP1 POP JUMP JUMPDEST PUSH0 PUSH8 0xFFFFFFFFFFFFFFFF DUP3 GT ISZERO PUSH2 0x134A JUMPI PUSH2 0x1349 PUSH2 0x12B8 JUMP JUMPDEST JUMPDEST PUSH2 0x1353 DUP3 PUSH2 0x12A8 JUMP JUMPDEST SWAP1 POP PUSH1 0x20 DUP2 ADD SWAP1 POP SWAP2 SWAP1 POP JUMP JUMPDEST DUP3 DUP2 DUP4 CALLDATACOPY PUSH0 DUP4 DUP4 ADD MSTORE POP POP POP JUMP JUMPDEST PUSH0 PUSH2 0x1380 PUSH2 0x137B DUP5 PUSH2 0x1330 JUMP JUMPDEST PUSH2 0x1316 JUMP JUMPDEST SWAP1 POP DUP3 DUP2 MSTORE PUSH1 0x20 DUP2 ADD DUP5 DUP5 DUP5 ADD GT ISZERO PUSH2 0x139C JUMPI PUSH2 0x139B PUSH2 0x12A4 JUMP JUMPDEST JUMPDEST PUSH2 0x13A7 DUP5 DUP3 DUP6 PUSH2 0x1360 JUMP JUMPDEST POP SWAP4 SWAP3 POP POP POP JUMP JUMPDEST PUSH0 DUP3 PUSH1 0x1F DUP4 ADD SLT PUSH2 0x13C3 JUMPI PUSH2 0x13C2 PUSH2 0x107E JUMP JUMPDEST JUMPDEST DUP2 CALLDATALOAD PUSH2 0x13D3 DUP5 DUP3 PUSH1 0x20 DUP7 ADD PUSH2 0x136E JUMP JUMPDEST SWAP2 POP POP SWAP3 SWAP2 POP POP JUMP JUMPDEST PUSH0 DUP1 PUSH0 DUP1 PUSH1 0x80 DUP6 DUP8 SUB SLT ISZERO PUSH2 0x13F4 JUMPI PUSH2 0x13F3 PUSH2 0xFE9 JUMP JUMPDEST JUMPDEST PUSH0 PUSH2 0x1401 DUP8 DUP3 DUP9 ADD PUSH2 0x1037 JUMP JUMPDEST SWAP5 POP POP PUSH1 0x20 PUSH2 0x1412 DUP8 DUP3 DUP9 ADD PUSH2 0x1037 JUMP JUMPDEST SWAP4 POP POP PUSH1 0x40 PUSH2 0x1423 DUP8 DUP3 DUP9 ADD PUSH2 0x106A JUMP JUMPDEST SWAP3 POP POP PUSH1 0x60 DUP6 ADD CALLDATALOAD PUSH8 0xFFFFFFFFFFFFFFFF DUP2 GT ISZERO PUSH2 0x1444 JUMPI PUSH2 0x1443 PUSH2 0xFED JUMP JUMPDEST JUMPDEST PUSH2 0x1450 DUP8 DUP3 DUP9 ADD PUSH2 0x13AF JUMP JUMPDEST SWAP2 POP POP SWAP3 SWAP6 SWAP2 SWAP5 POP SWAP3 POP JUMP JUMPDEST PUSH0 PUSH1 0x20 DUP3 DUP5 SUB SLT ISZERO PUSH2 0x1471 JUMPI PUSH2 0x1470 PUSH2 0xFE9 JUMP JUMPDEST JUMPDEST PUSH0 DUP3 ADD CALLDATALOAD PUSH8 0xFFFFFFFFFFFFFFFF DUP2 GT ISZERO PUSH2 0x148E JUMPI PUSH2 0x148D PUSH2 0xFED JUMP JUMPDEST JUMPDEST PUSH2 0x149A DUP5 DUP3 DUP6 ADD PUSH2 0x13AF JUMP JUMPDEST SWAP2 POP POP SWAP3 SWAP2 POP POP JUMP JUMPDEST PUSH0 PUSH1 0x40 DUP3 ADD SWAP1 POP PUSH2 0x14B6 PUSH0 DUP4 ADD DUP6 PUSH2 0x11E1 JUMP JUMPDEST PUSH2 0x14C3 PUSH1 0x20 DUP4 ADD DUP5 PUSH2 0x11F0 JUMP JUMPDEST SWAP4 SWAP3 POP POP POP JUMP JUMPDEST PUSH0 DUP3 DUP3 MSTORE PUSH1 0x20 DUP3 ADD SWAP1 POP SWAP3 SWAP2 POP POP JUMP JUMPDEST PUSH32 0x616C726561647920696E2073616C652E00000000000000000000000000000000 PUSH0 DUP3 ADD MSTORE POP JUMP JUMPDEST PUSH0 PUSH2 0x150E PUSH1 0x10 DUP4 PUSH2 0x14CA JUMP JUMPDEST SWAP2 POP PUSH2 0x1519 DUP3 PUSH2 0x14DA JUMP JUMPDEST PUSH1 0x20 DUP3 ADD SWAP1 POP SWAP2 SWAP1 POP JUMP JUMPDEST PUSH0 PUSH1 0x20 DUP3 ADD SWAP1 POP DUP2 DUP2 SUB PUSH0 DUP4 ADD MSTORE PUSH2 0x153B DUP2 PUSH2 0x1502 JUMP JUMPDEST SWAP1 POP SWAP2 SWAP1 POP JUMP JUMPDEST PUSH32 0x4E487B7100000000000000000000000000000000000000000000000000000000 PUSH0 MSTORE PUSH1 0x11 PUSH1 0x4 MSTORE PUSH1 0x24 PUSH0 REVERT JUMPDEST PUSH0 PUSH2 0x1579 DUP3 PUSH2 0x104B JUMP JUMPDEST SWAP2 POP PUSH2 0x1584 DUP4 PUSH2 0x104B JUMP JUMPDEST SWAP3 POP DUP3 DUP3 SUB SWAP1 POP DUP2 DUP2 GT ISZERO PUSH2 0x159C JUMPI PUSH2 0x159B PUSH2 0x1542 JUMP JUMPDEST JUMPDEST SWAP3 SWAP2 POP POP JUMP JUMPDEST PUSH32 0x6E6674206973206E6F7420696E2073616C652E00000000000000000000000000 PUSH0 DUP3 ADD MSTORE POP JUMP JUMPDEST PUSH0 PUSH2 0x15D6 PUSH1 0x13 DUP4 PUSH2 0x14CA JUMP JUMPDEST SWAP2 POP PUSH2 0x15E1 DUP3 PUSH2 0x15A2 JUMP JUMPDEST PUSH1 0x20 DUP3 ADD SWAP1 POP SWAP2 SWAP1 POP JUMP JUMPDEST PUSH0 PUSH1 0x20 DUP3 ADD SWAP1 POP DUP2 DUP2 SUB PUSH0 DUP4 ADD MSTORE PUSH2 0x1603 DUP2 PUSH2 0x15CA JUMP JUMPDEST SWAP1 POP SWAP2 SWAP1 POP JUMP JUMPDEST PUSH32 0x4E487B7100000000000000000000000000000000000000000000000000000000 PUSH0 MSTORE PUSH1 0x32 PUSH1 0x4 MSTORE PUSH1 0x24 PUSH0 REVERT JUMPDEST PUSH32 0x706C656173652070617920656E6F756768206D6F6E656E790000000000000000 PUSH0 DUP3 ADD MSTORE POP JUMP JUMPDEST PUSH0 PUSH2 0x166B PUSH1 0x18 DUP4 PUSH2 0x14CA JUMP JUMPDEST SWAP2 POP PUSH2 0x1676 DUP3 PUSH2 0x1637 JUMP JUMPDEST PUSH1 0x20 DUP3 ADD SWAP1 POP SWAP2 SWAP1 POP JUMP JUMPDEST PUSH0 PUSH1 0x20 DUP3 ADD SWAP1 POP DUP2 DUP2 SUB PUSH0 DUP4 ADD MSTORE PUSH2 0x1698 DUP2 PUSH2 0x165F JUMP JUMPDEST SWAP1 POP SWAP2 SWAP1 POP JUMP JUMPDEST PUSH32 0x4E487B7100000000000000000000000000000000000000000000000000000000 PUSH0 MSTORE PUSH1 0x31 PUSH1 0x4 MSTORE PUSH1 0x24 PUSH0 REVERT JUMPDEST PUSH0 PUSH1 0x60 DUP3 ADD SWAP1 POP PUSH2 0x16DF PUSH0 DUP4 ADD DUP7 PUSH2 0x11E1 JUMP JUMPDEST PUSH2 0x16EC PUSH1 0x20 DUP4 ADD DUP6 PUSH2 0x11E1 JUMP JUMPDEST PUSH2 0x16F9 PUSH1 0x40 DUP4 ADD DUP5 PUSH2 0x11F0 JUMP JUMPDEST SWAP5 SWAP4 POP POP POP POP JUMP JUMPDEST PUSH0 DUP2 ISZERO ISZERO SWAP1 POP SWAP2 SWAP1 POP JUMP JUMPDEST PUSH2 0x1715 DUP2 PUSH2 0x1701 JUMP JUMPDEST DUP2 EQ PUSH2 0x171F JUMPI PUSH0 DUP1 REVERT JUMPDEST POP JUMP JUMPDEST PUSH0 DUP2 MLOAD SWAP1 POP PUSH2 0x1730 DUP2 PUSH2 0x170C JUMP JUMPDEST SWAP3 SWAP2 POP POP JUMP JUMPDEST PUSH0 PUSH1 0x20 DUP3 DUP5 SUB SLT ISZERO PUSH2 0x174B JUMPI PUSH2 0x174A PUSH2 0xFE9 JUMP JUMPDEST JUMPDEST PUSH0 PUSH2 0x1758 DUP5 DUP3 DUP6 ADD PUSH2 0x1722 JUMP JUMPDEST SWAP2 POP POP SWAP3 SWAP2 POP POP JUMP JUMPDEST PUSH32 0x4E6F7420796F7572206E66742E00000000000000000000000000000000000000 PUSH0 DUP3 ADD MSTORE POP JUMP JUMPDEST PUSH0 PUSH2 0x1795 PUSH1 0xD DUP4 PUSH2 0x14CA JUMP JUMPDEST SWAP2 POP PUSH2 0x17A0 DUP3 PUSH2 0x1761 JUMP JUMPDEST PUSH1 0x20 DUP3 ADD SWAP1 POP SWAP2 SWAP1 POP JUMP JUMPDEST PUSH0 PUSH1 0x20 DUP3 ADD SWAP1 POP DUP2 DUP2 SUB PUSH0 DUP4 ADD MSTORE PUSH2 0x17C2 DUP2 PUSH2 0x1789 JUMP JUMPDEST SWAP1 POP SWAP2 SWAP1 POP JUMP JUMPDEST PUSH0 PUSH2 0x17D3 DUP3 PUSH2 0xFF1 JUMP JUMPDEST SWAP1 POP SWAP2 SWAP1 POP JUMP JUMPDEST PUSH2 0x17E3 DUP2 PUSH2 0x17C9 JUMP JUMPDEST DUP2 EQ PUSH2 0x17ED JUMPI PUSH0 DUP1 REVERT JUMPDEST POP JUMP JUMPDEST PUSH0 DUP2 MLOAD SWAP1 POP PUSH2 0x17FE DUP2 PUSH2 0x17DA JUMP JUMPDEST SWAP3 SWAP2 POP POP JUMP JUMPDEST PUSH0 DUP2 MLOAD SWAP1 POP PUSH2 0x1812 DUP2 PUSH2 0x1054 JUMP JUMPDEST SWAP3 SWAP2 POP POP JUMP JUMPDEST PUSH0 DUP1 PUSH1 0x40 DUP4 DUP6 SUB SLT ISZERO PUSH2 0x182E JUMPI PUSH2 0x182D PUSH2 0xFE9 JUMP JUMPDEST JUMPDEST PUSH0 PUSH2 0x183B DUP6 DUP3 DUP7 ADD PUSH2 0x17F0 JUMP JUMPDEST SWAP3 POP POP PUSH1 0x20 PUSH2 0x184C DUP6 DUP3 DUP7 ADD PUSH2 0x1804 JUMP JUMPDEST SWAP2 POP POP SWAP3 POP SWAP3 SWAP1 POP JUMP INVALID LOG2 PUSH5 0x6970667358 0x22 SLT KECCAK256 0xE9 0xBA SWAP12 0xF 0xFB SDIV 0xC1 0xB6 XOR 0xAB 0xEF PUSH29 0x193720E2AC7C365D65B85A65FB4CC5F99220E06664736F6C634300081A STOP CALLER "
				},
				"gasEstimates": {
					"creation": {
						"codeDepositCost": "1256800",
						"executionCost": "infinite",
						"totalCost": "infinite"
					},
					"external": {
						"bytesToAddrAndUint(bytes)": "infinite",
						"market(uint256)": "infinite",
						"nftInfoToMarketId(address,uint256)": "infinite",
						"nftInfoToSalerAccount(address,uint256)": "infinite",
						"onERC721Received(address,address,uint256,bytes)": "infinite",
						"onTransferReceived(address,address,uint256,bytes)": "infinite",
						"unsale(address,uint256)": "infinite"
					},
					"internal": {
						"bytesToUint(bytes memory)": "infinite"
					}
				},
				"methodIdentifiers": {
					"bytesToAddrAndUint(bytes)": "e8900e12",
					"market(uint256)": "28861d22",
					"nftInfoToMarketId(address,uint256)": "7f6a645f",
					"nftInfoToSalerAccount(address,uint256)": "5764351f",
					"onERC721Received(address,address,uint256,bytes)": "150b7a02",
					"onTransferReceived(address,address,uint256,bytes)": "88a7ca5c",
					"unsale(address,uint256)": "cee81dc5"
				}
			},
			"storageLayout": {
				"storage": [
					{
						"astId": 255,
						"contract": "contracts/MyNftMarket.sol:MyNftMarket",
						"label": "hulioToken",
						"offset": 0,
						"slot": "0",
						"type": "t_contract(IERC20)95"
					},
					{
						"astId": 278,
						"contract": "contracts/MyNftMarket.sol:MyNftMarket",
						"label": "market",
						"offset": 0,
						"slot": "1",
						"type": "t_array(t_struct(SaleInfo)274_storage)dyn_storage"
					},
					{
						"astId": 284,
						"contract": "contracts/MyNftMarket.sol:MyNftMarket",
						"label": "nftInfoToMarketId",
						"offset": 0,
						"slot": "2",
						"type": "t_mapping(t_address,t_mapping(t_uint256,t_uint256))"
					},
					{
						"astId": 290,
						"contract": "contracts/MyNftMarket.sol:MyNftMarket",
						"label": "nftInfoToSalerAccount",
						"offset": 0,
						"slot": "3",
						"type": "t_mapping(t_address,t_mapping(t_uint256,t_address))"
					}
				],
				"types": {
					"t_address": {
						"encoding": "inplace",
						"label": "address",
						"numberOfBytes": "20"
					},
					"t_array(t_struct(SaleInfo)274_storage)dyn_storage": {
						"base": "t_struct(SaleInfo)274_storage",
						"encoding": "dynamic_array",
						"label": "struct MyNftMarket.SaleInfo[]",
						"numberOfBytes": "32"
					},
					"t_contract(IERC20)95": {
						"encoding": "inplace",
						"label": "contract IERC20",
						"numberOfBytes": "20"
					},
					"t_mapping(t_address,t_mapping(t_uint256,t_address))": {
						"encoding": "mapping",
						"key": "t_address",
						"label": "mapping(address => mapping(uint256 => address))",
						"numberOfBytes": "32",
						"value": "t_mapping(t_uint256,t_address)"
					},
					"t_mapping(t_address,t_mapping(t_uint256,t_uint256))": {
						"encoding": "mapping",
						"key": "t_address",
						"label": "mapping(address => mapping(uint256 => uint256))",
						"numberOfBytes": "32",
						"value": "t_mapping(t_uint256,t_uint256)"
					},
					"t_mapping(t_uint256,t_address)": {
						"encoding": "mapping",
						"key": "t_uint256",
						"label": "mapping(uint256 => address)",
						"numberOfBytes": "32",
						"value": "t_address"
					},
					"t_mapping(t_uint256,t_uint256)": {
						"encoding": "mapping",
						"key": "t_uint256",
						"label": "mapping(uint256 => uint256)",
						"numberOfBytes": "32",
						"value": "t_uint256"
					},
					"t_struct(SaleInfo)274_storage": {
						"encoding": "inplace",
						"label": "struct MyNftMarket.SaleInfo",
						"members": [
							{
								"astId": 269,
								"contract": "contracts/MyNftMarket.sol:MyNftMarket",
								"label": "nft",
								"offset": 0,
								"slot": "0",
								"type": "t_address"
							},
							{
								"astId": 271,
								"contract": "contracts/MyNftMarket.sol:MyNftMarket",
								"label": "nftId",
								"offset": 0,
								"slot": "1",
								"type": "t_uint256"
							},
							{
								"astId": 273,
								"contract": "contracts/MyNftMarket.sol:MyNftMarket",
								"label": "priceInHulioToken",
								"offset": 0,
								"slot": "2",
								"type": "t_uint256"
							}
						],
						"numberOfBytes": "96"
					},
					"t_uint256": {
						"encoding": "inplace",
						"label": "uint256",
						"numberOfBytes": "32"
					}
				}
			},
			"userdoc": {
				"kind": "user",
				"methods": {
					"onTransferReceived(address,address,uint256,bytes)": {
						"notice": "Handle the receipt of ERC1363 tokens"
					}
				},
				"version": 1
			}
		}
	}
}