{
	"contracts/Bank.sol": {
		"Bank": {
			"abi": [
				{
					"inputs": [],
					"stateMutability": "nonpayable",
					"type": "constructor"
				},
				{
					"inputs": [
						{
							"internalType": "address",
							"name": "owner",
							"type": "address"
						}
					],
					"name": "OwnableInvalidOwner",
					"type": "error"
				},
				{
					"inputs": [
						{
							"internalType": "address",
							"name": "account",
							"type": "address"
						}
					],
					"name": "OwnableUnauthorizedAccount",
					"type": "error"
				},
				{
					"anonymous": false,
					"inputs": [
						{
							"indexed": true,
							"internalType": "address",
							"name": "previousOwner",
							"type": "address"
						},
						{
							"indexed": true,
							"internalType": "address",
							"name": "newOwner",
							"type": "address"
						}
					],
					"name": "OwnershipTransferred",
					"type": "event"
				},
				{
					"inputs": [
						{
							"internalType": "address",
							"name": "",
							"type": "address"
						}
					],
					"name": "accountBalance",
					"outputs": [
						{
							"internalType": "uint256",
							"name": "",
							"type": "uint256"
						}
					],
					"stateMutability": "view",
					"type": "function"
				},
				{
					"inputs": [
						{
							"internalType": "address",
							"name": "_newAdmin",
							"type": "address"
						}
					],
					"name": "addAdmin",
					"outputs": [],
					"stateMutability": "nonpayable",
					"type": "function"
				},
				{
					"inputs": [
						{
							"internalType": "address",
							"name": "",
							"type": "address"
						}
					],
					"name": "admin",
					"outputs": [
						{
							"internalType": "bool",
							"name": "",
							"type": "bool"
						}
					],
					"stateMutability": "view",
					"type": "function"
				},
				{
					"inputs": [],
					"name": "owner",
					"outputs": [
						{
							"internalType": "address",
							"name": "",
							"type": "address"
						}
					],
					"stateMutability": "view",
					"type": "function"
				},
				{
					"inputs": [
						{
							"internalType": "address",
							"name": "_admin",
							"type": "address"
						}
					],
					"name": "removeAdmin",
					"outputs": [],
					"stateMutability": "nonpayable",
					"type": "function"
				},
				{
					"inputs": [],
					"name": "renounceOwnership",
					"outputs": [],
					"stateMutability": "nonpayable",
					"type": "function"
				},
				{
					"inputs": [
						{
							"internalType": "uint256",
							"name": "",
							"type": "uint256"
						}
					],
					"name": "top3",
					"outputs": [
						{
							"internalType": "address",
							"name": "",
							"type": "address"
						}
					],
					"stateMutability": "view",
					"type": "function"
				},
				{
					"inputs": [
						{
							"internalType": "address",
							"name": "newOwner",
							"type": "address"
						}
					],
					"name": "transferOwnership",
					"outputs": [],
					"stateMutability": "nonpayable",
					"type": "function"
				},
				{
					"inputs": [
						{
							"internalType": "uint256",
							"name": "amount",
							"type": "uint256"
						}
					],
					"name": "withdraw",
					"outputs": [],
					"stateMutability": "nonpayable",
					"type": "function"
				},
				{
					"stateMutability": "payable",
					"type": "receive"
				}
			],
			"devdoc": {
				"errors": {
					"OwnableInvalidOwner(address)": [
						{
							"details": "The owner is not a valid owner account. (eg. `address(0)`)"
						}
					],
					"OwnableUnauthorizedAccount(address)": [
						{
							"details": "The caller account is not authorized to perform an operation."
						}
					]
				},
				"kind": "dev",
				"methods": {
					"owner()": {
						"details": "Returns the address of the current owner."
					},
					"renounceOwnership()": {
						"details": "Leaves the contract without owner. It will not be possible to call `onlyOwner` functions. Can only be called by the current owner. NOTE: Renouncing ownership will leave the contract without an owner, thereby disabling any functionality that is only available to the owner."
					},
					"transferOwnership(address)": {
						"details": "Transfers ownership of the contract to a new account (`newOwner`). Can only be called by the current owner."
					}
				},
				"version": 1
			},
			"evm": {
				"assembly": "    /* \"contracts/Bank.sol\":119:2063  contract Bank is Ownable {... */\n  mstore(0x40, 0x80)\n    /* \"contracts/Bank.sol\":184:220  constructor() Ownable(msg.sender) {} */\n  callvalue\n  dup1\n  iszero\n  tag_1\n  jumpi\n  0x00\n  dup1\n  revert\ntag_1:\n  pop\n    /* \"contracts/Bank.sol\":206:216  msg.sender */\n  caller\n    /* \"@openzeppelin/contracts/access/Ownable.sol\":1297:1298  0 */\n  0x00\n    /* \"@openzeppelin/contracts/access/Ownable.sol\":1273:1299  initialOwner == address(0) */\n  0xffffffffffffffffffffffffffffffffffffffff\n  and\n    /* \"@openzeppelin/contracts/access/Ownable.sol\":1273:1285  initialOwner */\n  dup2\n    /* \"@openzeppelin/contracts/access/Ownable.sol\":1273:1299  initialOwner == address(0) */\n  0xffffffffffffffffffffffffffffffffffffffff\n  and\n  sub\n    /* \"@openzeppelin/contracts/access/Ownable.sol\":1269:1364  if (initialOwner == address(0)) {... */\n  tag_5\n  jumpi\n    /* \"@openzeppelin/contracts/access/Ownable.sol\":1350:1351  0 */\n  0x00\n    /* \"@openzeppelin/contracts/access/Ownable.sol\":1322:1353  OwnableInvalidOwner(address(0)) */\n  mload(0x40)\n  0x1e4fbdf700000000000000000000000000000000000000000000000000000000\n  dup2\n  mstore\n  0x04\n  add\n  tag_6\n  swap2\n  swap1\n  tag_7\n  jump\t// in\ntag_6:\n  mload(0x40)\n  dup1\n  swap2\n  sub\n  swap1\n  revert\n    /* \"@openzeppelin/contracts/access/Ownable.sol\":1269:1364  if (initialOwner == address(0)) {... */\ntag_5:\n    /* \"@openzeppelin/contracts/access/Ownable.sol\":1373:1405  _transferOwnership(initialOwner) */\n  tag_8\n    /* \"@openzeppelin/contracts/access/Ownable.sol\":1392:1404  initialOwner */\n  dup2\n    /* \"@openzeppelin/contracts/access/Ownable.sol\":1373:1391  _transferOwnership */\n  shl(0x20, tag_9)\n    /* \"@openzeppelin/contracts/access/Ownable.sol\":1373:1405  _transferOwnership(initialOwner) */\n  0x20\n  shr\n  jump\t// in\ntag_8:\n    /* \"@openzeppelin/contracts/access/Ownable.sol\":1225:1412  constructor(address initialOwner) {... */\n  pop\n    /* \"contracts/Bank.sol\":119:2063  contract Bank is Ownable {... */\n  jump(tag_11)\n    /* \"@openzeppelin/contracts/access/Ownable.sol\":2912:3099  function _transferOwnership(address newOwner) internal virtual {... */\ntag_9:\n    /* \"@openzeppelin/contracts/access/Ownable.sol\":2985:3001  address oldOwner */\n  0x00\n    /* \"@openzeppelin/contracts/access/Ownable.sol\":3004:3010  _owner */\n  dup1\n  0x00\n  swap1\n  sload\n  swap1\n  0x0100\n  exp\n  swap1\n  div\n  0xffffffffffffffffffffffffffffffffffffffff\n  and\n    /* \"@openzeppelin/contracts/access/Ownable.sol\":2985:3010  address oldOwner = _owner */\n  swap1\n  pop\n    /* \"@openzeppelin/contracts/access/Ownable.sol\":3029:3037  newOwner */\n  dup2\n    /* \"@openzeppelin/contracts/access/Ownable.sol\":3020:3026  _owner */\n  0x00\n  dup1\n    /* \"@openzeppelin/contracts/access/Ownable.sol\":3020:3037  _owner = newOwner */\n  0x0100\n  exp\n  dup2\n  sload\n  dup2\n  0xffffffffffffffffffffffffffffffffffffffff\n  mul\n  not\n  and\n  swap1\n  dup4\n  0xffffffffffffffffffffffffffffffffffffffff\n  and\n  mul\n  or\n  swap1\n  sstore\n  pop\n    /* \"@openzeppelin/contracts/access/Ownable.sol\":3083:3091  newOwner */\n  dup2\n    /* \"@openzeppelin/contracts/access/Ownable.sol\":3052:3092  OwnershipTransferred(oldOwner, newOwner) */\n  0xffffffffffffffffffffffffffffffffffffffff\n  and\n    /* \"@openzeppelin/contracts/access/Ownable.sol\":3073:3081  oldOwner */\n  dup2\n    /* \"@openzeppelin/contracts/access/Ownable.sol\":3052:3092  OwnershipTransferred(oldOwner, newOwner) */\n  0xffffffffffffffffffffffffffffffffffffffff\n  and\n  0x8be0079c531659141344cd1fd0a4f28419497f9722a3daafe3b4186f6b6457e0\n  mload(0x40)\n  mload(0x40)\n  dup1\n  swap2\n  sub\n  swap1\n  log3\n    /* \"@openzeppelin/contracts/access/Ownable.sol\":2975:3099  {... */\n  pop\n    /* \"@openzeppelin/contracts/access/Ownable.sol\":2912:3099  function _transferOwnership(address newOwner) internal virtual {... */\n  pop\n  jump\t// out\n    /* \"#utility.yul\":7:133   */\ntag_13:\n    /* \"#utility.yul\":44:51   */\n  0x00\n    /* \"#utility.yul\":84:126   */\n  0xffffffffffffffffffffffffffffffffffffffff\n    /* \"#utility.yul\":77:82   */\n  dup3\n    /* \"#utility.yul\":73:127   */\n  and\n    /* \"#utility.yul\":62:127   */\n  swap1\n  pop\n    /* \"#utility.yul\":7:133   */\n  swap2\n  swap1\n  pop\n  jump\t// out\n    /* \"#utility.yul\":139:235   */\ntag_14:\n    /* \"#utility.yul\":176:183   */\n  0x00\n    /* \"#utility.yul\":205:229   */\n  tag_19\n    /* \"#utility.yul\":223:228   */\n  dup3\n    /* \"#utility.yul\":205:229   */\n  tag_13\n  jump\t// in\ntag_19:\n    /* \"#utility.yul\":194:229   */\n  swap1\n  pop\n    /* \"#utility.yul\":139:235   */\n  swap2\n  swap1\n  pop\n  jump\t// out\n    /* \"#utility.yul\":241:359   */\ntag_15:\n    /* \"#utility.yul\":328:352   */\n  tag_21\n    /* \"#utility.yul\":346:351   */\n  dup2\n    /* \"#utility.yul\":328:352   */\n  tag_14\n  jump\t// in\ntag_21:\n    /* \"#utility.yul\":323:326   */\n  dup3\n    /* \"#utility.yul\":316:353   */\n  mstore\n    /* \"#utility.yul\":241:359   */\n  pop\n  pop\n  jump\t// out\n    /* \"#utility.yul\":365:587   */\ntag_7:\n    /* \"#utility.yul\":458:462   */\n  0x00\n    /* \"#utility.yul\":496:498   */\n  0x20\n    /* \"#utility.yul\":485:494   */\n  dup3\n    /* \"#utility.yul\":481:499   */\n  add\n    /* \"#utility.yul\":473:499   */\n  swap1\n  pop\n    /* \"#utility.yul\":509:580   */\n  tag_23\n    /* \"#utility.yul\":577:578   */\n  0x00\n    /* \"#utility.yul\":566:575   */\n  dup4\n    /* \"#utility.yul\":562:579   */\n  add\n    /* \"#utility.yul\":553:559   */\n  dup5\n    /* \"#utility.yul\":509:580   */\n  tag_15\n  jump\t// in\ntag_23:\n    /* \"#utility.yul\":365:587   */\n  swap3\n  swap2\n  pop\n  pop\n  jump\t// out\n    /* \"contracts/Bank.sol\":119:2063  contract Bank is Ownable {... */\ntag_11:\n  dataSize(sub_0)\n  dup1\n  dataOffset(sub_0)\n  0x00\n  codecopy\n  0x00\n  return\nstop\n\nsub_0: assembly {\n        /* \"contracts/Bank.sol\":119:2063  contract Bank is Ownable {... */\n      mstore(0x40, 0x80)\n      jumpi(tag_1, lt(calldatasize, 0x04))\n      shr(0xe0, calldataload(0x00))\n      dup1\n      0x715018a6\n      gt\n      tag_12\n      jumpi\n      dup1\n      0x715018a6\n      eq\n      tag_7\n      jumpi\n      dup1\n      0x8da5cb5b\n      eq\n      tag_8\n      jumpi\n      dup1\n      0xc9bf5b15\n      eq\n      tag_9\n      jumpi\n      dup1\n      0xd294cb0f\n      eq\n      tag_10\n      jumpi\n      dup1\n      0xf2fde38b\n      eq\n      tag_11\n      jumpi\n      jump(tag_2)\n    tag_12:\n      dup1\n      0x1785f53c\n      eq\n      tag_3\n      jumpi\n      dup1\n      0x2e1a7d4d\n      eq\n      tag_4\n      jumpi\n      dup1\n      0x63a846f8\n      eq\n      tag_5\n      jumpi\n      dup1\n      0x70480275\n      eq\n      tag_6\n      jumpi\n      jump(tag_2)\n    tag_1:\n      jumpi(tag_2, calldatasize)\n        /* \"contracts/Bank.sol\":878:887  msg.value */\n      callvalue\n        /* \"contracts/Bank.sol\":848:862  accountBalance */\n      0x02\n        /* \"contracts/Bank.sol\":848:874  accountBalance[msg.sender] */\n      0x00\n        /* \"contracts/Bank.sol\":863:873  msg.sender */\n      caller\n        /* \"contracts/Bank.sol\":848:874  accountBalance[msg.sender] */\n      0xffffffffffffffffffffffffffffffffffffffff\n      and\n      0xffffffffffffffffffffffffffffffffffffffff\n      and\n      dup2\n      mstore\n      0x20\n      add\n      swap1\n      dup2\n      mstore\n      0x20\n      add\n      0x00\n      keccak256\n      0x00\n        /* \"contracts/Bank.sol\":848:887  accountBalance[msg.sender] += msg.value */\n      dup3\n      dup3\n      sload\n      tag_15\n      swap2\n      swap1\n      tag_16\n      jump\t// in\n    tag_15:\n      swap3\n      pop\n      pop\n      dup2\n      swap1\n      sstore\n      pop\n        /* \"contracts/Bank.sol\":959:973  accountBalance */\n      0x02\n        /* \"contracts/Bank.sol\":959:996  accountBalance[top3[top3.length - 1]] */\n      0x00\n        /* \"contracts/Bank.sol\":974:978  top3 */\n      0x03\n        /* \"contracts/Bank.sol\":993:994  1 */\n      0x01\n        /* \"contracts/Bank.sol\":979:990  top3.length */\n      0x03\n        /* \"contracts/Bank.sol\":979:994  top3.length - 1 */\n      tag_17\n      swap2\n      swap1\n      tag_18\n      jump\t// in\n    tag_17:\n        /* \"contracts/Bank.sol\":974:995  top3[top3.length - 1] */\n      0x03\n      dup2\n      lt\n      tag_19\n      jumpi\n      tag_20\n      tag_21\n      jump\t// in\n    tag_20:\n    tag_19:\n      add\n      0x00\n      swap1\n      sload\n      swap1\n      0x0100\n      exp\n      swap1\n      div\n      0xffffffffffffffffffffffffffffffffffffffff\n      and\n        /* \"contracts/Bank.sol\":959:996  accountBalance[top3[top3.length - 1]] */\n      0xffffffffffffffffffffffffffffffffffffffff\n      and\n      0xffffffffffffffffffffffffffffffffffffffff\n      and\n      dup2\n      mstore\n      0x20\n      add\n      swap1\n      dup2\n      mstore\n      0x20\n      add\n      0x00\n      keccak256\n      sload\n        /* \"contracts/Bank.sol\":930:944  accountBalance */\n      0x02\n        /* \"contracts/Bank.sol\":930:956  accountBalance[msg.sender] */\n      0x00\n        /* \"contracts/Bank.sol\":945:955  msg.sender */\n      caller\n        /* \"contracts/Bank.sol\":930:956  accountBalance[msg.sender] */\n      0xffffffffffffffffffffffffffffffffffffffff\n      and\n      0xffffffffffffffffffffffffffffffffffffffff\n      and\n      dup2\n      mstore\n      0x20\n      add\n      swap1\n      dup2\n      mstore\n      0x20\n      add\n      0x00\n      keccak256\n      sload\n        /* \"contracts/Bank.sol\":930:996  accountBalance[msg.sender] > accountBalance[top3[top3.length - 1]] */\n      gt\n        /* \"contracts/Bank.sol\":913:1191  if (... */\n      iszero\n      tag_23\n      jumpi\n        /* \"contracts/Bank.sol\":1025:1043  inTop3(msg.sender) */\n      tag_24\n        /* \"contracts/Bank.sol\":1032:1042  msg.sender */\n      caller\n        /* \"contracts/Bank.sol\":1025:1031  inTop3 */\n      tag_25\n        /* \"contracts/Bank.sol\":1025:1043  inTop3(msg.sender) */\n      jump\t// in\n    tag_24:\n        /* \"contracts/Bank.sol\":1021:1181  if (inTop3(msg.sender)) {... */\n      iszero\n      tag_26\n      jumpi\n        /* \"contracts/Bank.sol\":1063:1069  sort() */\n      tag_27\n        /* \"contracts/Bank.sol\":1063:1067  sort */\n      tag_28\n        /* \"contracts/Bank.sol\":1063:1069  sort() */\n      jump\t// in\n    tag_27:\n        /* \"contracts/Bank.sol\":1021:1181  if (inTop3(msg.sender)) {... */\n      jump(tag_29)\n    tag_26:\n        /* \"contracts/Bank.sol\":1132:1142  msg.sender */\n      caller\n        /* \"contracts/Bank.sol\":1108:1112  top3 */\n      0x03\n        /* \"contracts/Bank.sol\":1127:1128  1 */\n      0x01\n        /* \"contracts/Bank.sol\":1113:1124  top3.length */\n      0x03\n        /* \"contracts/Bank.sol\":1113:1128  top3.length - 1 */\n      tag_30\n      swap2\n      swap1\n      tag_18\n      jump\t// in\n    tag_30:\n        /* \"contracts/Bank.sol\":1108:1129  top3[top3.length - 1] */\n      0x03\n      dup2\n      lt\n      tag_31\n      jumpi\n      tag_32\n      tag_21\n      jump\t// in\n    tag_32:\n    tag_31:\n      add\n      0x00\n        /* \"contracts/Bank.sol\":1108:1142  top3[top3.length - 1] = msg.sender */\n      0x0100\n      exp\n      dup2\n      sload\n      dup2\n      0xffffffffffffffffffffffffffffffffffffffff\n      mul\n      not\n      and\n      swap1\n      dup4\n      0xffffffffffffffffffffffffffffffffffffffff\n      and\n      mul\n      or\n      swap1\n      sstore\n      pop\n        /* \"contracts/Bank.sol\":1160:1166  sort() */\n      tag_34\n        /* \"contracts/Bank.sol\":1160:1164  sort */\n      tag_28\n        /* \"contracts/Bank.sol\":1160:1166  sort() */\n      jump\t// in\n    tag_34:\n        /* \"contracts/Bank.sol\":1021:1181  if (inTop3(msg.sender)) {... */\n    tag_29:\n        /* \"contracts/Bank.sol\":913:1191  if (... */\n    tag_23:\n        /* \"contracts/Bank.sol\":119:2063  contract Bank is Ownable {... */\n      stop\n    tag_2:\n      0x00\n      dup1\n      revert\n        /* \"contracts/Bank.sol\":599:734  function removeAdmin(address _admin) public onlyOwner {... */\n    tag_3:\n      callvalue\n      dup1\n      iszero\n      tag_35\n      jumpi\n      0x00\n      dup1\n      revert\n    tag_35:\n      pop\n      tag_36\n      0x04\n      dup1\n      calldatasize\n      sub\n      dup2\n      add\n      swap1\n      tag_37\n      swap2\n      swap1\n      tag_38\n      jump\t// in\n    tag_37:\n      tag_39\n      jump\t// in\n    tag_36:\n      stop\n        /* \"contracts/Bank.sol\":1242:1491  function withdraw(uint amount) public {... */\n    tag_4:\n      callvalue\n      dup1\n      iszero\n      tag_40\n      jumpi\n      0x00\n      dup1\n      revert\n    tag_40:\n      pop\n      tag_41\n      0x04\n      dup1\n      calldatasize\n      sub\n      dup2\n      add\n      swap1\n      tag_42\n      swap2\n      swap1\n      tag_43\n      jump\t// in\n    tag_42:\n      tag_44\n      jump\t// in\n    tag_41:\n      stop\n        /* \"contracts/Bank.sol\":238:275  mapping(address => bool) public admin */\n    tag_5:\n      callvalue\n      dup1\n      iszero\n      tag_45\n      jumpi\n      0x00\n      dup1\n      revert\n    tag_45:\n      pop\n      tag_46\n      0x04\n      dup1\n      calldatasize\n      sub\n      dup2\n      add\n      swap1\n      tag_47\n      swap2\n      swap1\n      tag_38\n      jump\t// in\n    tag_47:\n      tag_48\n      jump\t// in\n    tag_46:\n      mload(0x40)\n      tag_49\n      swap2\n      swap1\n      tag_50\n      jump\t// in\n    tag_49:\n      mload(0x40)\n      dup1\n      swap2\n      sub\n      swap1\n      return\n        /* \"contracts/Bank.sol\":456:550  function addAdmin(address _newAdmin) public onlyOwner {... */\n    tag_6:\n      callvalue\n      dup1\n      iszero\n      tag_51\n      jumpi\n      0x00\n      dup1\n      revert\n    tag_51:\n      pop\n      tag_52\n      0x04\n      dup1\n      calldatasize\n      sub\n      dup2\n      add\n      swap1\n      tag_53\n      swap2\n      swap1\n      tag_38\n      jump\t// in\n    tag_53:\n      tag_54\n      jump\t// in\n    tag_52:\n      stop\n        /* \"@openzeppelin/contracts/access/Ownable.sol\":2293:2394  function renounceOwnership() public virtual onlyOwner {... */\n    tag_7:\n      callvalue\n      dup1\n      iszero\n      tag_55\n      jumpi\n      0x00\n      dup1\n      revert\n    tag_55:\n      pop\n      tag_56\n      tag_57\n      jump\t// in\n    tag_56:\n      stop\n        /* \"@openzeppelin/contracts/access/Ownable.sol\":1638:1723  function owner() public view virtual returns (address) {... */\n    tag_8:\n      callvalue\n      dup1\n      iszero\n      tag_58\n      jumpi\n      0x00\n      dup1\n      revert\n    tag_58:\n      pop\n      tag_59\n      tag_60\n      jump\t// in\n    tag_59:\n      mload(0x40)\n      tag_61\n      swap2\n      swap1\n      tag_62\n      jump\t// in\n    tag_61:\n      mload(0x40)\n      dup1\n      swap2\n      sub\n      swap1\n      return\n        /* \"contracts/Bank.sol\":387:409  address[3] public top3 */\n    tag_9:\n      callvalue\n      dup1\n      iszero\n      tag_63\n      jumpi\n      0x00\n      dup1\n      revert\n    tag_63:\n      pop\n      tag_64\n      0x04\n      dup1\n      calldatasize\n      sub\n      dup2\n      add\n      swap1\n      tag_65\n      swap2\n      swap1\n      tag_43\n      jump\t// in\n    tag_65:\n      tag_66\n      jump\t// in\n    tag_64:\n      mload(0x40)\n      tag_67\n      swap2\n      swap1\n      tag_62\n      jump\t// in\n    tag_67:\n      mload(0x40)\n      dup1\n      swap2\n      sub\n      swap1\n      return\n        /* \"contracts/Bank.sol\":307:353  mapping(address => uint) public accountBalance */\n    tag_10:\n      callvalue\n      dup1\n      iszero\n      tag_68\n      jumpi\n      0x00\n      dup1\n      revert\n    tag_68:\n      pop\n      tag_69\n      0x04\n      dup1\n      calldatasize\n      sub\n      dup2\n      add\n      swap1\n      tag_70\n      swap2\n      swap1\n      tag_38\n      jump\t// in\n    tag_70:\n      tag_71\n      jump\t// in\n    tag_69:\n      mload(0x40)\n      tag_72\n      swap2\n      swap1\n      tag_73\n      jump\t// in\n    tag_72:\n      mload(0x40)\n      dup1\n      swap2\n      sub\n      swap1\n      return\n        /* \"@openzeppelin/contracts/access/Ownable.sol\":2543:2758  function transferOwnership(address newOwner) public virtual onlyOwner {... */\n    tag_11:\n      callvalue\n      dup1\n      iszero\n      tag_74\n      jumpi\n      0x00\n      dup1\n      revert\n    tag_74:\n      pop\n      tag_75\n      0x04\n      dup1\n      calldatasize\n      sub\n      dup2\n      add\n      swap1\n      tag_76\n      swap2\n      swap1\n      tag_38\n      jump\t// in\n    tag_76:\n      tag_77\n      jump\t// in\n    tag_75:\n      stop\n        /* \"contracts/Bank.sol\":1518:1742  function inTop3(address addr) private view returns (bool) {... */\n    tag_25:\n        /* \"contracts/Bank.sol\":1570:1574  bool */\n      0x00\n        /* \"contracts/Bank.sol\":1591:1597  uint i */\n      dup1\n        /* \"contracts/Bank.sol\":1600:1601  0 */\n      0x00\n        /* \"contracts/Bank.sol\":1591:1601  uint i = 0 */\n      swap1\n      pop\n        /* \"contracts/Bank.sol\":1586:1714  for (uint i = 0; i < top3.length; i++) {... */\n    tag_79:\n        /* \"contracts/Bank.sol\":1607:1618  top3.length */\n      0x03\n        /* \"contracts/Bank.sol\":1603:1604  i */\n      dup2\n        /* \"contracts/Bank.sol\":1603:1618  i < top3.length */\n      lt\n        /* \"contracts/Bank.sol\":1586:1714  for (uint i = 0; i < top3.length; i++) {... */\n      iszero\n      tag_80\n      jumpi\n        /* \"contracts/Bank.sol\":1651:1655  top3 */\n      0x03\n        /* \"contracts/Bank.sol\":1656:1657  i */\n      dup2\n        /* \"contracts/Bank.sol\":1651:1658  top3[i] */\n      0x03\n      dup2\n      lt\n      tag_82\n      jumpi\n      tag_83\n      tag_21\n      jump\t// in\n    tag_83:\n    tag_82:\n      add\n      0x00\n      swap1\n      sload\n      swap1\n      0x0100\n      exp\n      swap1\n      div\n      0xffffffffffffffffffffffffffffffffffffffff\n      and\n        /* \"contracts/Bank.sol\":1643:1658  addr == top3[i] */\n      0xffffffffffffffffffffffffffffffffffffffff\n      and\n        /* \"contracts/Bank.sol\":1643:1647  addr */\n      dup4\n        /* \"contracts/Bank.sol\":1643:1658  addr == top3[i] */\n      0xffffffffffffffffffffffffffffffffffffffff\n      and\n      sub\n        /* \"contracts/Bank.sol\":1639:1704  if (addr == top3[i]) {... */\n      tag_85\n      jumpi\n        /* \"contracts/Bank.sol\":1685:1689  true */\n      0x01\n        /* \"contracts/Bank.sol\":1678:1689  return true */\n      swap2\n      pop\n      pop\n      jump(tag_78)\n        /* \"contracts/Bank.sol\":1639:1704  if (addr == top3[i]) {... */\n    tag_85:\n        /* \"contracts/Bank.sol\":1620:1623  i++ */\n      dup1\n      dup1\n      0x01\n      add\n      swap2\n      pop\n      pop\n        /* \"contracts/Bank.sol\":1586:1714  for (uint i = 0; i < top3.length; i++) {... */\n      jump(tag_79)\n    tag_80:\n      pop\n        /* \"contracts/Bank.sol\":1730:1735  false */\n      0x00\n        /* \"contracts/Bank.sol\":1723:1735  return false */\n      swap1\n      pop\n        /* \"contracts/Bank.sol\":1518:1742  function inTop3(address addr) private view returns (bool) {... */\n    tag_78:\n      swap2\n      swap1\n      pop\n      jump\t// out\n        /* \"contracts/Bank.sol\":1764:2061  function sort() private {... */\n    tag_28:\n        /* \"contracts/Bank.sol\":1803:1809  uint i */\n      0x00\n        /* \"contracts/Bank.sol\":1826:1827  1 */\n      0x01\n        /* \"contracts/Bank.sol\":1812:1823  top3.length */\n      0x03\n        /* \"contracts/Bank.sol\":1812:1827  top3.length - 1 */\n      tag_90\n      swap2\n      swap1\n      tag_18\n      jump\t// in\n    tag_90:\n        /* \"contracts/Bank.sol\":1803:1827  uint i = top3.length - 1 */\n      swap1\n      pop\n        /* \"contracts/Bank.sol\":1798:2055  for (uint i = top3.length - 1; i >= 1; i--) {... */\n    tag_87:\n        /* \"contracts/Bank.sol\":1834:1835  1 */\n      0x01\n        /* \"contracts/Bank.sol\":1829:1830  i */\n      dup2\n        /* \"contracts/Bank.sol\":1829:1835  i >= 1 */\n      lt\n        /* \"contracts/Bank.sol\":1798:2055  for (uint i = top3.length - 1; i >= 1; i--) {... */\n      tag_88\n      jumpi\n        /* \"contracts/Bank.sol\":1886:1900  accountBalance */\n      0x02\n        /* \"contracts/Bank.sol\":1886:1913  accountBalance[top3[i - 1]] */\n      0x00\n        /* \"contracts/Bank.sol\":1901:1905  top3 */\n      0x03\n        /* \"contracts/Bank.sol\":1910:1911  1 */\n      0x01\n        /* \"contracts/Bank.sol\":1906:1907  i */\n      dup5\n        /* \"contracts/Bank.sol\":1906:1911  i - 1 */\n      tag_91\n      swap2\n      swap1\n      tag_18\n      jump\t// in\n    tag_91:\n        /* \"contracts/Bank.sol\":1901:1912  top3[i - 1] */\n      0x03\n      dup2\n      lt\n      tag_92\n      jumpi\n      tag_93\n      tag_21\n      jump\t// in\n    tag_93:\n    tag_92:\n      add\n      0x00\n      swap1\n      sload\n      swap1\n      0x0100\n      exp\n      swap1\n      div\n      0xffffffffffffffffffffffffffffffffffffffff\n      and\n        /* \"contracts/Bank.sol\":1886:1913  accountBalance[top3[i - 1]] */\n      0xffffffffffffffffffffffffffffffffffffffff\n      and\n      0xffffffffffffffffffffffffffffffffffffffff\n      and\n      dup2\n      mstore\n      0x20\n      add\n      swap1\n      dup2\n      mstore\n      0x20\n      add\n      0x00\n      keccak256\n      sload\n        /* \"contracts/Bank.sol\":1860:1874  accountBalance */\n      0x02\n        /* \"contracts/Bank.sol\":1860:1883  accountBalance[top3[i]] */\n      0x00\n        /* \"contracts/Bank.sol\":1875:1879  top3 */\n      0x03\n        /* \"contracts/Bank.sol\":1880:1881  i */\n      dup5\n        /* \"contracts/Bank.sol\":1875:1882  top3[i] */\n      0x03\n      dup2\n      lt\n      tag_95\n      jumpi\n      tag_96\n      tag_21\n      jump\t// in\n    tag_96:\n    tag_95:\n      add\n      0x00\n      swap1\n      sload\n      swap1\n      0x0100\n      exp\n      swap1\n      div\n      0xffffffffffffffffffffffffffffffffffffffff\n      and\n        /* \"contracts/Bank.sol\":1860:1883  accountBalance[top3[i]] */\n      0xffffffffffffffffffffffffffffffffffffffff\n      and\n      0xffffffffffffffffffffffffffffffffffffffff\n      and\n      dup2\n      mstore\n      0x20\n      add\n      swap1\n      dup2\n      mstore\n      0x20\n      add\n      0x00\n      keccak256\n      sload\n        /* \"contracts/Bank.sol\":1860:1913  accountBalance[top3[i]] > accountBalance[top3[i - 1]] */\n      gt\n        /* \"contracts/Bank.sol\":1856:2045  if (accountBalance[top3[i]] > accountBalance[top3[i - 1]]) {... */\n      iszero\n      tag_98\n      jumpi\n        /* \"contracts/Bank.sol\":1933:1945  address temp */\n      0x00\n        /* \"contracts/Bank.sol\":1948:1952  top3 */\n      0x03\n        /* \"contracts/Bank.sol\":1957:1958  1 */\n      0x01\n        /* \"contracts/Bank.sol\":1953:1954  i */\n      dup4\n        /* \"contracts/Bank.sol\":1953:1958  i - 1 */\n      tag_99\n      swap2\n      swap1\n      tag_18\n      jump\t// in\n    tag_99:\n        /* \"contracts/Bank.sol\":1948:1959  top3[i - 1] */\n      0x03\n      dup2\n      lt\n      tag_100\n      jumpi\n      tag_101\n      tag_21\n      jump\t// in\n    tag_101:\n    tag_100:\n      add\n      0x00\n      swap1\n      sload\n      swap1\n      0x0100\n      exp\n      swap1\n      div\n      0xffffffffffffffffffffffffffffffffffffffff\n      and\n        /* \"contracts/Bank.sol\":1933:1959  address temp = top3[i - 1] */\n      swap1\n      pop\n        /* \"contracts/Bank.sol\":1991:1995  top3 */\n      0x03\n        /* \"contracts/Bank.sol\":1996:1997  i */\n      dup3\n        /* \"contracts/Bank.sol\":1991:1998  top3[i] */\n      0x03\n      dup2\n      lt\n      tag_103\n      jumpi\n      tag_104\n      tag_21\n      jump\t// in\n    tag_104:\n    tag_103:\n      add\n      0x00\n      swap1\n      sload\n      swap1\n      0x0100\n      exp\n      swap1\n      div\n      0xffffffffffffffffffffffffffffffffffffffff\n      and\n        /* \"contracts/Bank.sol\":1977:1981  top3 */\n      0x03\n        /* \"contracts/Bank.sol\":1986:1987  1 */\n      0x01\n        /* \"contracts/Bank.sol\":1982:1983  i */\n      dup5\n        /* \"contracts/Bank.sol\":1982:1987  i - 1 */\n      tag_106\n      swap2\n      swap1\n      tag_18\n      jump\t// in\n    tag_106:\n        /* \"contracts/Bank.sol\":1977:1988  top3[i - 1] */\n      0x03\n      dup2\n      lt\n      tag_107\n      jumpi\n      tag_108\n      tag_21\n      jump\t// in\n    tag_108:\n    tag_107:\n      add\n      0x00\n        /* \"contracts/Bank.sol\":1977:1998  top3[i - 1] = top3[i] */\n      0x0100\n      exp\n      dup2\n      sload\n      dup2\n      0xffffffffffffffffffffffffffffffffffffffff\n      mul\n      not\n      and\n      swap1\n      dup4\n      0xffffffffffffffffffffffffffffffffffffffff\n      and\n      mul\n      or\n      swap1\n      sstore\n      pop\n        /* \"contracts/Bank.sol\":2026:2030  temp */\n      dup1\n        /* \"contracts/Bank.sol\":2016:2020  top3 */\n      0x03\n        /* \"contracts/Bank.sol\":2021:2022  i */\n      dup4\n        /* \"contracts/Bank.sol\":2016:2023  top3[i] */\n      0x03\n      dup2\n      lt\n      tag_110\n      jumpi\n      tag_111\n      tag_21\n      jump\t// in\n    tag_111:\n    tag_110:\n      add\n      0x00\n        /* \"contracts/Bank.sol\":2016:2030  top3[i] = temp */\n      0x0100\n      exp\n      dup2\n      sload\n      dup2\n      0xffffffffffffffffffffffffffffffffffffffff\n      mul\n      not\n      and\n      swap1\n      dup4\n      0xffffffffffffffffffffffffffffffffffffffff\n      and\n      mul\n      or\n      swap1\n      sstore\n      pop\n        /* \"contracts/Bank.sol\":1915:2045  {... */\n      pop\n        /* \"contracts/Bank.sol\":1856:2045  if (accountBalance[top3[i]] > accountBalance[top3[i - 1]]) {... */\n    tag_98:\n        /* \"contracts/Bank.sol\":1837:1840  i-- */\n      dup1\n      dup1\n      tag_113\n      swap1\n      tag_114\n      jump\t// in\n    tag_113:\n      swap2\n      pop\n      pop\n        /* \"contracts/Bank.sol\":1798:2055  for (uint i = top3.length - 1; i >= 1; i--) {... */\n      jump(tag_87)\n    tag_88:\n      pop\n        /* \"contracts/Bank.sol\":1764:2061  function sort() private {... */\n      jump\t// out\n        /* \"contracts/Bank.sol\":599:734  function removeAdmin(address _admin) public onlyOwner {... */\n    tag_39:\n        /* \"@openzeppelin/contracts/access/Ownable.sol\":1531:1544  _checkOwner() */\n      tag_116\n        /* \"@openzeppelin/contracts/access/Ownable.sol\":1531:1542  _checkOwner */\n      tag_117\n        /* \"@openzeppelin/contracts/access/Ownable.sol\":1531:1544  _checkOwner() */\n      jump\t// in\n    tag_116:\n        /* \"contracts/Bank.sol\":667:672  admin */\n      0x01\n        /* \"contracts/Bank.sol\":667:680  admin[_admin] */\n      0x00\n        /* \"contracts/Bank.sol\":673:679  _admin */\n      dup3\n        /* \"contracts/Bank.sol\":667:680  admin[_admin] */\n      0xffffffffffffffffffffffffffffffffffffffff\n      and\n      0xffffffffffffffffffffffffffffffffffffffff\n      and\n      dup2\n      mstore\n      0x20\n      add\n      swap1\n      dup2\n      mstore\n      0x20\n      add\n      0x00\n      keccak256\n      0x00\n      swap1\n      sload\n      swap1\n      0x0100\n      exp\n      swap1\n      div\n      0xff\n      and\n        /* \"contracts/Bank.sol\":663:728  if (admin[_admin]) {... */\n      iszero\n      tag_119\n      jumpi\n        /* \"contracts/Bank.sol\":712:717  false */\n      0x00\n        /* \"contracts/Bank.sol\":696:701  admin */\n      0x01\n        /* \"contracts/Bank.sol\":696:709  admin[_admin] */\n      0x00\n        /* \"contracts/Bank.sol\":702:708  _admin */\n      dup4\n        /* \"contracts/Bank.sol\":696:709  admin[_admin] */\n      0xffffffffffffffffffffffffffffffffffffffff\n      and\n      0xffffffffffffffffffffffffffffffffffffffff\n      and\n      dup2\n      mstore\n      0x20\n      add\n      swap1\n      dup2\n      mstore\n      0x20\n      add\n      0x00\n      keccak256\n      0x00\n        /* \"contracts/Bank.sol\":696:717  admin[_admin] = false */\n      0x0100\n      exp\n      dup2\n      sload\n      dup2\n      0xff\n      mul\n      not\n      and\n      swap1\n      dup4\n      iszero\n      iszero\n      mul\n      or\n      swap1\n      sstore\n      pop\n        /* \"contracts/Bank.sol\":663:728  if (admin[_admin]) {... */\n    tag_119:\n        /* \"contracts/Bank.sol\":599:734  function removeAdmin(address _admin) public onlyOwner {... */\n      pop\n      jump\t// out\n        /* \"contracts/Bank.sol\":1242:1491  function withdraw(uint amount) public {... */\n    tag_44:\n        /* \"contracts/Bank.sol\":1298:1303  admin */\n      0x01\n        /* \"contracts/Bank.sol\":1298:1315  admin[msg.sender] */\n      0x00\n        /* \"contracts/Bank.sol\":1304:1314  msg.sender */\n      caller\n        /* \"contracts/Bank.sol\":1298:1315  admin[msg.sender] */\n      0xffffffffffffffffffffffffffffffffffffffff\n      and\n      0xffffffffffffffffffffffffffffffffffffffff\n      and\n      dup2\n      mstore\n      0x20\n      add\n      swap1\n      dup2\n      mstore\n      0x20\n      add\n      0x00\n      keccak256\n      0x00\n      swap1\n      sload\n      swap1\n      0x0100\n      exp\n      swap1\n      div\n      0xff\n      and\n        /* \"contracts/Bank.sol\":1290:1330  require(admin[msg.sender], \"no access!\") */\n      tag_121\n      jumpi\n      mload(0x40)\n      0x08c379a000000000000000000000000000000000000000000000000000000000\n      dup2\n      mstore\n      0x04\n      add\n      tag_122\n      swap1\n      tag_123\n      jump\t// in\n    tag_122:\n      mload(0x40)\n      dup1\n      swap2\n      sub\n      swap1\n      revert\n    tag_121:\n        /* \"contracts/Bank.sol\":1358:1379  address(this).balance */\n      selfbalance\n        /* \"contracts/Bank.sol\":1348:1354  amount */\n      dup2\n        /* \"contracts/Bank.sol\":1348:1379  amount <= address(this).balance */\n      gt\n      iszero\n        /* \"contracts/Bank.sol\":1340:1405  require(amount <= address(this).balance, \"insufficient balance!\") */\n      tag_124\n      jumpi\n      mload(0x40)\n      0x08c379a000000000000000000000000000000000000000000000000000000000\n      dup2\n      mstore\n      0x04\n      add\n      tag_125\n      swap1\n      tag_126\n      jump\t// in\n    tag_125:\n      mload(0x40)\n      dup1\n      swap2\n      sub\n      swap1\n      revert\n    tag_124:\n        /* \"contracts/Bank.sol\":1415:1433  address payable to */\n      0x00\n        /* \"contracts/Bank.sol\":1444:1454  msg.sender */\n      caller\n        /* \"contracts/Bank.sol\":1415:1455  address payable to = payable(msg.sender) */\n      swap1\n      pop\n        /* \"contracts/Bank.sol\":1465:1467  to */\n      dup1\n        /* \"contracts/Bank.sol\":1465:1476  to.transfer */\n      0xffffffffffffffffffffffffffffffffffffffff\n      and\n        /* \"contracts/Bank.sol\":1465:1484  to.transfer(amount) */\n      0x08fc\n        /* \"contracts/Bank.sol\":1477:1483  amount */\n      dup4\n        /* \"contracts/Bank.sol\":1465:1484  to.transfer(amount) */\n      swap1\n      dup2\n      iszero\n      mul\n      swap1\n      mload(0x40)\n      0x00\n      mload(0x40)\n      dup1\n      dup4\n      sub\n      dup2\n      dup6\n      dup9\n      dup9\n      call\n      swap4\n      pop\n      pop\n      pop\n      pop\n      iszero\n      dup1\n      iszero\n      tag_128\n      jumpi\n      returndatasize\n      0x00\n      dup1\n      returndatacopy\n      revert(0x00, returndatasize)\n    tag_128:\n      pop\n        /* \"contracts/Bank.sol\":1280:1491  {... */\n      pop\n        /* \"contracts/Bank.sol\":1242:1491  function withdraw(uint amount) public {... */\n      pop\n      jump\t// out\n        /* \"contracts/Bank.sol\":238:275  mapping(address => bool) public admin */\n    tag_48:\n      mstore(0x20, 0x01)\n      dup1\n      0x00\n      mstore\n      keccak256(0x00, 0x40)\n      0x00\n      swap2\n      pop\n      sload\n      swap1\n      0x0100\n      exp\n      swap1\n      div\n      0xff\n      and\n      dup2\n      jump\t// out\n        /* \"contracts/Bank.sol\":456:550  function addAdmin(address _newAdmin) public onlyOwner {... */\n    tag_54:\n        /* \"@openzeppelin/contracts/access/Ownable.sol\":1531:1544  _checkOwner() */\n      tag_130\n        /* \"@openzeppelin/contracts/access/Ownable.sol\":1531:1542  _checkOwner */\n      tag_117\n        /* \"@openzeppelin/contracts/access/Ownable.sol\":1531:1544  _checkOwner() */\n      jump\t// in\n    tag_130:\n        /* \"contracts/Bank.sol\":539:543  true */\n      0x01\n        /* \"contracts/Bank.sol\":520:525  admin */\n      dup1\n        /* \"contracts/Bank.sol\":520:536  admin[_newAdmin] */\n      0x00\n        /* \"contracts/Bank.sol\":526:535  _newAdmin */\n      dup4\n        /* \"contracts/Bank.sol\":520:536  admin[_newAdmin] */\n      0xffffffffffffffffffffffffffffffffffffffff\n      and\n      0xffffffffffffffffffffffffffffffffffffffff\n      and\n      dup2\n      mstore\n      0x20\n      add\n      swap1\n      dup2\n      mstore\n      0x20\n      add\n      0x00\n      keccak256\n      0x00\n        /* \"contracts/Bank.sol\":520:543  admin[_newAdmin] = true */\n      0x0100\n      exp\n      dup2\n      sload\n      dup2\n      0xff\n      mul\n      not\n      and\n      swap1\n      dup4\n      iszero\n      iszero\n      mul\n      or\n      swap1\n      sstore\n      pop\n        /* \"contracts/Bank.sol\":456:550  function addAdmin(address _newAdmin) public onlyOwner {... */\n      pop\n      jump\t// out\n        /* \"@openzeppelin/contracts/access/Ownable.sol\":2293:2394  function renounceOwnership() public virtual onlyOwner {... */\n    tag_57:\n        /* \"@openzeppelin/contracts/access/Ownable.sol\":1531:1544  _checkOwner() */\n      tag_133\n        /* \"@openzeppelin/contracts/access/Ownable.sol\":1531:1542  _checkOwner */\n      tag_117\n        /* \"@openzeppelin/contracts/access/Ownable.sol\":1531:1544  _checkOwner() */\n      jump\t// in\n    tag_133:\n        /* \"@openzeppelin/contracts/access/Ownable.sol\":2357:2387  _transferOwnership(address(0)) */\n      tag_135\n        /* \"@openzeppelin/contracts/access/Ownable.sol\":2384:2385  0 */\n      0x00\n        /* \"@openzeppelin/contracts/access/Ownable.sol\":2357:2375  _transferOwnership */\n      tag_136\n        /* \"@openzeppelin/contracts/access/Ownable.sol\":2357:2387  _transferOwnership(address(0)) */\n      jump\t// in\n    tag_135:\n        /* \"@openzeppelin/contracts/access/Ownable.sol\":2293:2394  function renounceOwnership() public virtual onlyOwner {... */\n      jump\t// out\n        /* \"@openzeppelin/contracts/access/Ownable.sol\":1638:1723  function owner() public view virtual returns (address) {... */\n    tag_60:\n        /* \"@openzeppelin/contracts/access/Ownable.sol\":1684:1691  address */\n      0x00\n        /* \"@openzeppelin/contracts/access/Ownable.sol\":1710:1716  _owner */\n      dup1\n      0x00\n      swap1\n      sload\n      swap1\n      0x0100\n      exp\n      swap1\n      div\n      0xffffffffffffffffffffffffffffffffffffffff\n      and\n        /* \"@openzeppelin/contracts/access/Ownable.sol\":1703:1716  return _owner */\n      swap1\n      pop\n        /* \"@openzeppelin/contracts/access/Ownable.sol\":1638:1723  function owner() public view virtual returns (address) {... */\n      swap1\n      jump\t// out\n        /* \"contracts/Bank.sol\":387:409  address[3] public top3 */\n    tag_66:\n      0x03\n      dup2\n      0x03\n      dup2\n      lt\n      tag_138\n      jumpi\n      0x00\n      dup1\n      revert\n    tag_138:\n      add\n      0x00\n      swap2\n      pop\n      sload\n      swap1\n      0x0100\n      exp\n      swap1\n      div\n      0xffffffffffffffffffffffffffffffffffffffff\n      and\n      dup2\n      jump\t// out\n        /* \"contracts/Bank.sol\":307:353  mapping(address => uint) public accountBalance */\n    tag_71:\n      mstore(0x20, 0x02)\n      dup1\n      0x00\n      mstore\n      keccak256(0x00, 0x40)\n      0x00\n      swap2\n      pop\n      swap1\n      pop\n      sload\n      dup2\n      jump\t// out\n        /* \"@openzeppelin/contracts/access/Ownable.sol\":2543:2758  function transferOwnership(address newOwner) public virtual onlyOwner {... */\n    tag_77:\n        /* \"@openzeppelin/contracts/access/Ownable.sol\":1531:1544  _checkOwner() */\n      tag_141\n        /* \"@openzeppelin/contracts/access/Ownable.sol\":1531:1542  _checkOwner */\n      tag_117\n        /* \"@openzeppelin/contracts/access/Ownable.sol\":1531:1544  _checkOwner() */\n      jump\t// in\n    tag_141:\n        /* \"@openzeppelin/contracts/access/Ownable.sol\":2647:2648  0 */\n      0x00\n        /* \"@openzeppelin/contracts/access/Ownable.sol\":2627:2649  newOwner == address(0) */\n      0xffffffffffffffffffffffffffffffffffffffff\n      and\n        /* \"@openzeppelin/contracts/access/Ownable.sol\":2627:2635  newOwner */\n      dup2\n        /* \"@openzeppelin/contracts/access/Ownable.sol\":2627:2649  newOwner == address(0) */\n      0xffffffffffffffffffffffffffffffffffffffff\n      and\n      sub\n        /* \"@openzeppelin/contracts/access/Ownable.sol\":2623:2714  if (newOwner == address(0)) {... */\n      tag_143\n      jumpi\n        /* \"@openzeppelin/contracts/access/Ownable.sol\":2700:2701  0 */\n      0x00\n        /* \"@openzeppelin/contracts/access/Ownable.sol\":2672:2703  OwnableInvalidOwner(address(0)) */\n      mload(0x40)\n      0x1e4fbdf700000000000000000000000000000000000000000000000000000000\n      dup2\n      mstore\n      0x04\n      add\n      tag_144\n      swap2\n      swap1\n      tag_62\n      jump\t// in\n    tag_144:\n      mload(0x40)\n      dup1\n      swap2\n      sub\n      swap1\n      revert\n        /* \"@openzeppelin/contracts/access/Ownable.sol\":2623:2714  if (newOwner == address(0)) {... */\n    tag_143:\n        /* \"@openzeppelin/contracts/access/Ownable.sol\":2723:2751  _transferOwnership(newOwner) */\n      tag_145\n        /* \"@openzeppelin/contracts/access/Ownable.sol\":2742:2750  newOwner */\n      dup2\n        /* \"@openzeppelin/contracts/access/Ownable.sol\":2723:2741  _transferOwnership */\n      tag_136\n        /* \"@openzeppelin/contracts/access/Ownable.sol\":2723:2751  _transferOwnership(newOwner) */\n      jump\t// in\n    tag_145:\n        /* \"@openzeppelin/contracts/access/Ownable.sol\":2543:2758  function transferOwnership(address newOwner) public virtual onlyOwner {... */\n      pop\n      jump\t// out\n        /* \"@openzeppelin/contracts/access/Ownable.sol\":1796:1958  function _checkOwner() internal view virtual {... */\n    tag_117:\n        /* \"@openzeppelin/contracts/access/Ownable.sol\":1866:1878  _msgSender() */\n      tag_147\n        /* \"@openzeppelin/contracts/access/Ownable.sol\":1866:1876  _msgSender */\n      tag_148\n        /* \"@openzeppelin/contracts/access/Ownable.sol\":1866:1878  _msgSender() */\n      jump\t// in\n    tag_147:\n        /* \"@openzeppelin/contracts/access/Ownable.sol\":1855:1878  owner() != _msgSender() */\n      0xffffffffffffffffffffffffffffffffffffffff\n      and\n        /* \"@openzeppelin/contracts/access/Ownable.sol\":1855:1862  owner() */\n      tag_149\n        /* \"@openzeppelin/contracts/access/Ownable.sol\":1855:1860  owner */\n      tag_60\n        /* \"@openzeppelin/contracts/access/Ownable.sol\":1855:1862  owner() */\n      jump\t// in\n    tag_149:\n        /* \"@openzeppelin/contracts/access/Ownable.sol\":1855:1878  owner() != _msgSender() */\n      0xffffffffffffffffffffffffffffffffffffffff\n      and\n      eq\n        /* \"@openzeppelin/contracts/access/Ownable.sol\":1851:1952  if (owner() != _msgSender()) {... */\n      tag_150\n      jumpi\n        /* \"@openzeppelin/contracts/access/Ownable.sol\":1928:1940  _msgSender() */\n      tag_151\n        /* \"@openzeppelin/contracts/access/Ownable.sol\":1928:1938  _msgSender */\n      tag_148\n        /* \"@openzeppelin/contracts/access/Ownable.sol\":1928:1940  _msgSender() */\n      jump\t// in\n    tag_151:\n        /* \"@openzeppelin/contracts/access/Ownable.sol\":1901:1941  OwnableUnauthorizedAccount(_msgSender()) */\n      mload(0x40)\n      0x118cdaa700000000000000000000000000000000000000000000000000000000\n      dup2\n      mstore\n      0x04\n      add\n      tag_152\n      swap2\n      swap1\n      tag_62\n      jump\t// in\n    tag_152:\n      mload(0x40)\n      dup1\n      swap2\n      sub\n      swap1\n      revert\n        /* \"@openzeppelin/contracts/access/Ownable.sol\":1851:1952  if (owner() != _msgSender()) {... */\n    tag_150:\n        /* \"@openzeppelin/contracts/access/Ownable.sol\":1796:1958  function _checkOwner() internal view virtual {... */\n      jump\t// out\n        /* \"@openzeppelin/contracts/access/Ownable.sol\":2912:3099  function _transferOwnership(address newOwner) internal virtual {... */\n    tag_136:\n        /* \"@openzeppelin/contracts/access/Ownable.sol\":2985:3001  address oldOwner */\n      0x00\n        /* \"@openzeppelin/contracts/access/Ownable.sol\":3004:3010  _owner */\n      dup1\n      0x00\n      swap1\n      sload\n      swap1\n      0x0100\n      exp\n      swap1\n      div\n      0xffffffffffffffffffffffffffffffffffffffff\n      and\n        /* \"@openzeppelin/contracts/access/Ownable.sol\":2985:3010  address oldOwner = _owner */\n      swap1\n      pop\n        /* \"@openzeppelin/contracts/access/Ownable.sol\":3029:3037  newOwner */\n      dup2\n        /* \"@openzeppelin/contracts/access/Ownable.sol\":3020:3026  _owner */\n      0x00\n      dup1\n        /* \"@openzeppelin/contracts/access/Ownable.sol\":3020:3037  _owner = newOwner */\n      0x0100\n      exp\n      dup2\n      sload\n      dup2\n      0xffffffffffffffffffffffffffffffffffffffff\n      mul\n      not\n      and\n      swap1\n      dup4\n      0xffffffffffffffffffffffffffffffffffffffff\n      and\n      mul\n      or\n      swap1\n      sstore\n      pop\n        /* \"@openzeppelin/contracts/access/Ownable.sol\":3083:3091  newOwner */\n      dup2\n        /* \"@openzeppelin/contracts/access/Ownable.sol\":3052:3092  OwnershipTransferred(oldOwner, newOwner) */\n      0xffffffffffffffffffffffffffffffffffffffff\n      and\n        /* \"@openzeppelin/contracts/access/Ownable.sol\":3073:3081  oldOwner */\n      dup2\n        /* \"@openzeppelin/contracts/access/Ownable.sol\":3052:3092  OwnershipTransferred(oldOwner, newOwner) */\n      0xffffffffffffffffffffffffffffffffffffffff\n      and\n      0x8be0079c531659141344cd1fd0a4f28419497f9722a3daafe3b4186f6b6457e0\n      mload(0x40)\n      mload(0x40)\n      dup1\n      swap2\n      sub\n      swap1\n      log3\n        /* \"@openzeppelin/contracts/access/Ownable.sol\":2975:3099  {... */\n      pop\n        /* \"@openzeppelin/contracts/access/Ownable.sol\":2912:3099  function _transferOwnership(address newOwner) internal virtual {... */\n      pop\n      jump\t// out\n        /* \"@openzeppelin/contracts/utils/Context.sol\":656:752  function _msgSender() internal view virtual returns (address) {... */\n    tag_148:\n        /* \"@openzeppelin/contracts/utils/Context.sol\":709:716  address */\n      0x00\n        /* \"@openzeppelin/contracts/utils/Context.sol\":735:745  msg.sender */\n      caller\n        /* \"@openzeppelin/contracts/utils/Context.sol\":728:745  return msg.sender */\n      swap1\n      pop\n        /* \"@openzeppelin/contracts/utils/Context.sol\":656:752  function _msgSender() internal view virtual returns (address) {... */\n      swap1\n      jump\t// out\n        /* \"#utility.yul\":7:84   */\n    tag_155:\n        /* \"#utility.yul\":44:51   */\n      0x00\n        /* \"#utility.yul\":73:78   */\n      dup2\n        /* \"#utility.yul\":62:78   */\n      swap1\n      pop\n        /* \"#utility.yul\":7:84   */\n      swap2\n      swap1\n      pop\n      jump\t// out\n        /* \"#utility.yul\":90:270   */\n    tag_156:\n        /* \"#utility.yul\":138:215   */\n      0x4e487b7100000000000000000000000000000000000000000000000000000000\n        /* \"#utility.yul\":135:136   */\n      0x00\n        /* \"#utility.yul\":128:216   */\n      mstore\n        /* \"#utility.yul\":235:239   */\n      0x11\n        /* \"#utility.yul\":232:233   */\n      0x04\n        /* \"#utility.yul\":225:240   */\n      mstore\n        /* \"#utility.yul\":259:263   */\n      0x24\n        /* \"#utility.yul\":256:257   */\n      0x00\n        /* \"#utility.yul\":249:264   */\n      revert\n        /* \"#utility.yul\":276:467   */\n    tag_16:\n        /* \"#utility.yul\":316:319   */\n      0x00\n        /* \"#utility.yul\":335:355   */\n      tag_179\n        /* \"#utility.yul\":353:354   */\n      dup3\n        /* \"#utility.yul\":335:355   */\n      tag_155\n      jump\t// in\n    tag_179:\n        /* \"#utility.yul\":330:355   */\n      swap2\n      pop\n        /* \"#utility.yul\":369:389   */\n      tag_180\n        /* \"#utility.yul\":387:388   */\n      dup4\n        /* \"#utility.yul\":369:389   */\n      tag_155\n      jump\t// in\n    tag_180:\n        /* \"#utility.yul\":364:389   */\n      swap3\n      pop\n        /* \"#utility.yul\":412:413   */\n      dup3\n        /* \"#utility.yul\":409:410   */\n      dup3\n        /* \"#utility.yul\":405:414   */\n      add\n        /* \"#utility.yul\":398:414   */\n      swap1\n      pop\n        /* \"#utility.yul\":433:436   */\n      dup1\n        /* \"#utility.yul\":430:431   */\n      dup3\n        /* \"#utility.yul\":427:437   */\n      gt\n        /* \"#utility.yul\":424:460   */\n      iszero\n      tag_181\n      jumpi\n        /* \"#utility.yul\":440:458   */\n      tag_182\n      tag_156\n      jump\t// in\n    tag_182:\n        /* \"#utility.yul\":424:460   */\n    tag_181:\n        /* \"#utility.yul\":276:467   */\n      swap3\n      swap2\n      pop\n      pop\n      jump\t// out\n        /* \"#utility.yul\":473:667   */\n    tag_18:\n        /* \"#utility.yul\":513:517   */\n      0x00\n        /* \"#utility.yul\":533:553   */\n      tag_184\n        /* \"#utility.yul\":551:552   */\n      dup3\n        /* \"#utility.yul\":533:553   */\n      tag_155\n      jump\t// in\n    tag_184:\n        /* \"#utility.yul\":528:553   */\n      swap2\n      pop\n        /* \"#utility.yul\":567:587   */\n      tag_185\n        /* \"#utility.yul\":585:586   */\n      dup4\n        /* \"#utility.yul\":567:587   */\n      tag_155\n      jump\t// in\n    tag_185:\n        /* \"#utility.yul\":562:587   */\n      swap3\n      pop\n        /* \"#utility.yul\":611:612   */\n      dup3\n        /* \"#utility.yul\":608:609   */\n      dup3\n        /* \"#utility.yul\":604:613   */\n      sub\n        /* \"#utility.yul\":596:613   */\n      swap1\n      pop\n        /* \"#utility.yul\":635:636   */\n      dup2\n        /* \"#utility.yul\":629:633   */\n      dup2\n        /* \"#utility.yul\":626:637   */\n      gt\n        /* \"#utility.yul\":623:660   */\n      iszero\n      tag_186\n      jumpi\n        /* \"#utility.yul\":640:658   */\n      tag_187\n      tag_156\n      jump\t// in\n    tag_187:\n        /* \"#utility.yul\":623:660   */\n    tag_186:\n        /* \"#utility.yul\":473:667   */\n      swap3\n      swap2\n      pop\n      pop\n      jump\t// out\n        /* \"#utility.yul\":673:853   */\n    tag_21:\n        /* \"#utility.yul\":721:798   */\n      0x4e487b7100000000000000000000000000000000000000000000000000000000\n        /* \"#utility.yul\":718:719   */\n      0x00\n        /* \"#utility.yul\":711:799   */\n      mstore\n        /* \"#utility.yul\":818:822   */\n      0x32\n        /* \"#utility.yul\":815:816   */\n      0x04\n        /* \"#utility.yul\":808:823   */\n      mstore\n        /* \"#utility.yul\":842:846   */\n      0x24\n        /* \"#utility.yul\":839:840   */\n      0x00\n        /* \"#utility.yul\":832:847   */\n      revert\n        /* \"#utility.yul\":940:1057   */\n    tag_158:\n        /* \"#utility.yul\":1049:1050   */\n      0x00\n        /* \"#utility.yul\":1046:1047   */\n      dup1\n        /* \"#utility.yul\":1039:1051   */\n      revert\n        /* \"#utility.yul\":1186:1312   */\n    tag_160:\n        /* \"#utility.yul\":1223:1230   */\n      0x00\n        /* \"#utility.yul\":1263:1305   */\n      0xffffffffffffffffffffffffffffffffffffffff\n        /* \"#utility.yul\":1256:1261   */\n      dup3\n        /* \"#utility.yul\":1252:1306   */\n      and\n        /* \"#utility.yul\":1241:1306   */\n      swap1\n      pop\n        /* \"#utility.yul\":1186:1312   */\n      swap2\n      swap1\n      pop\n      jump\t// out\n        /* \"#utility.yul\":1318:1414   */\n    tag_161:\n        /* \"#utility.yul\":1355:1362   */\n      0x00\n        /* \"#utility.yul\":1384:1408   */\n      tag_194\n        /* \"#utility.yul\":1402:1407   */\n      dup3\n        /* \"#utility.yul\":1384:1408   */\n      tag_160\n      jump\t// in\n    tag_194:\n        /* \"#utility.yul\":1373:1408   */\n      swap1\n      pop\n        /* \"#utility.yul\":1318:1414   */\n      swap2\n      swap1\n      pop\n      jump\t// out\n        /* \"#utility.yul\":1420:1542   */\n    tag_162:\n        /* \"#utility.yul\":1493:1517   */\n      tag_196\n        /* \"#utility.yul\":1511:1516   */\n      dup2\n        /* \"#utility.yul\":1493:1517   */\n      tag_161\n      jump\t// in\n    tag_196:\n        /* \"#utility.yul\":1486:1491   */\n      dup2\n        /* \"#utility.yul\":1483:1518   */\n      eq\n        /* \"#utility.yul\":1473:1536   */\n      tag_197\n      jumpi\n        /* \"#utility.yul\":1532:1533   */\n      0x00\n        /* \"#utility.yul\":1529:1530   */\n      dup1\n        /* \"#utility.yul\":1522:1534   */\n      revert\n        /* \"#utility.yul\":1473:1536   */\n    tag_197:\n        /* \"#utility.yul\":1420:1542   */\n      pop\n      jump\t// out\n        /* \"#utility.yul\":1548:1687   */\n    tag_163:\n        /* \"#utility.yul\":1594:1599   */\n      0x00\n        /* \"#utility.yul\":1632:1638   */\n      dup2\n        /* \"#utility.yul\":1619:1639   */\n      calldataload\n        /* \"#utility.yul\":1610:1639   */\n      swap1\n      pop\n        /* \"#utility.yul\":1648:1681   */\n      tag_199\n        /* \"#utility.yul\":1675:1680   */\n      dup2\n        /* \"#utility.yul\":1648:1681   */\n      tag_162\n      jump\t// in\n    tag_199:\n        /* \"#utility.yul\":1548:1687   */\n      swap3\n      swap2\n      pop\n      pop\n      jump\t// out\n        /* \"#utility.yul\":1693:2022   */\n    tag_38:\n        /* \"#utility.yul\":1752:1758   */\n      0x00\n        /* \"#utility.yul\":1801:1803   */\n      0x20\n        /* \"#utility.yul\":1789:1798   */\n      dup3\n        /* \"#utility.yul\":1780:1787   */\n      dup5\n        /* \"#utility.yul\":1776:1799   */\n      sub\n        /* \"#utility.yul\":1772:1804   */\n      slt\n        /* \"#utility.yul\":1769:1888   */\n      iszero\n      tag_201\n      jumpi\n        /* \"#utility.yul\":1807:1886   */\n      tag_202\n      tag_158\n      jump\t// in\n    tag_202:\n        /* \"#utility.yul\":1769:1888   */\n    tag_201:\n        /* \"#utility.yul\":1927:1928   */\n      0x00\n        /* \"#utility.yul\":1952:2005   */\n      tag_203\n        /* \"#utility.yul\":1997:2004   */\n      dup5\n        /* \"#utility.yul\":1988:1994   */\n      dup3\n        /* \"#utility.yul\":1977:1986   */\n      dup6\n        /* \"#utility.yul\":1973:1995   */\n      add\n        /* \"#utility.yul\":1952:2005   */\n      tag_163\n      jump\t// in\n    tag_203:\n        /* \"#utility.yul\":1942:2005   */\n      swap2\n      pop\n        /* \"#utility.yul\":1898:2015   */\n      pop\n        /* \"#utility.yul\":1693:2022   */\n      swap3\n      swap2\n      pop\n      pop\n      jump\t// out\n        /* \"#utility.yul\":2028:2150   */\n    tag_164:\n        /* \"#utility.yul\":2101:2125   */\n      tag_205\n        /* \"#utility.yul\":2119:2124   */\n      dup2\n        /* \"#utility.yul\":2101:2125   */\n      tag_155\n      jump\t// in\n    tag_205:\n        /* \"#utility.yul\":2094:2099   */\n      dup2\n        /* \"#utility.yul\":2091:2126   */\n      eq\n        /* \"#utility.yul\":2081:2144   */\n      tag_206\n      jumpi\n        /* \"#utility.yul\":2140:2141   */\n      0x00\n        /* \"#utility.yul\":2137:2138   */\n      dup1\n        /* \"#utility.yul\":2130:2142   */\n      revert\n        /* \"#utility.yul\":2081:2144   */\n    tag_206:\n        /* \"#utility.yul\":2028:2150   */\n      pop\n      jump\t// out\n        /* \"#utility.yul\":2156:2295   */\n    tag_165:\n        /* \"#utility.yul\":2202:2207   */\n      0x00\n        /* \"#utility.yul\":2240:2246   */\n      dup2\n        /* \"#utility.yul\":2227:2247   */\n      calldataload\n        /* \"#utility.yul\":2218:2247   */\n      swap1\n      pop\n        /* \"#utility.yul\":2256:2289   */\n      tag_208\n        /* \"#utility.yul\":2283:2288   */\n      dup2\n        /* \"#utility.yul\":2256:2289   */\n      tag_164\n      jump\t// in\n    tag_208:\n        /* \"#utility.yul\":2156:2295   */\n      swap3\n      swap2\n      pop\n      pop\n      jump\t// out\n        /* \"#utility.yul\":2301:2630   */\n    tag_43:\n        /* \"#utility.yul\":2360:2366   */\n      0x00\n        /* \"#utility.yul\":2409:2411   */\n      0x20\n        /* \"#utility.yul\":2397:2406   */\n      dup3\n        /* \"#utility.yul\":2388:2395   */\n      dup5\n        /* \"#utility.yul\":2384:2407   */\n      sub\n        /* \"#utility.yul\":2380:2412   */\n      slt\n        /* \"#utility.yul\":2377:2496   */\n      iszero\n      tag_210\n      jumpi\n        /* \"#utility.yul\":2415:2494   */\n      tag_211\n      tag_158\n      jump\t// in\n    tag_211:\n        /* \"#utility.yul\":2377:2496   */\n    tag_210:\n        /* \"#utility.yul\":2535:2536   */\n      0x00\n        /* \"#utility.yul\":2560:2613   */\n      tag_212\n        /* \"#utility.yul\":2605:2612   */\n      dup5\n        /* \"#utility.yul\":2596:2602   */\n      dup3\n        /* \"#utility.yul\":2585:2594   */\n      dup6\n        /* \"#utility.yul\":2581:2603   */\n      add\n        /* \"#utility.yul\":2560:2613   */\n      tag_165\n      jump\t// in\n    tag_212:\n        /* \"#utility.yul\":2550:2613   */\n      swap2\n      pop\n        /* \"#utility.yul\":2506:2623   */\n      pop\n        /* \"#utility.yul\":2301:2630   */\n      swap3\n      swap2\n      pop\n      pop\n      jump\t// out\n        /* \"#utility.yul\":2636:2726   */\n    tag_166:\n        /* \"#utility.yul\":2670:2677   */\n      0x00\n        /* \"#utility.yul\":2713:2718   */\n      dup2\n        /* \"#utility.yul\":2706:2719   */\n      iszero\n        /* \"#utility.yul\":2699:2720   */\n      iszero\n        /* \"#utility.yul\":2688:2720   */\n      swap1\n      pop\n        /* \"#utility.yul\":2636:2726   */\n      swap2\n      swap1\n      pop\n      jump\t// out\n        /* \"#utility.yul\":2732:2841   */\n    tag_167:\n        /* \"#utility.yul\":2813:2834   */\n      tag_215\n        /* \"#utility.yul\":2828:2833   */\n      dup2\n        /* \"#utility.yul\":2813:2834   */\n      tag_166\n      jump\t// in\n    tag_215:\n        /* \"#utility.yul\":2808:2811   */\n      dup3\n        /* \"#utility.yul\":2801:2835   */\n      mstore\n        /* \"#utility.yul\":2732:2841   */\n      pop\n      pop\n      jump\t// out\n        /* \"#utility.yul\":2847:3057   */\n    tag_50:\n        /* \"#utility.yul\":2934:2938   */\n      0x00\n        /* \"#utility.yul\":2972:2974   */\n      0x20\n        /* \"#utility.yul\":2961:2970   */\n      dup3\n        /* \"#utility.yul\":2957:2975   */\n      add\n        /* \"#utility.yul\":2949:2975   */\n      swap1\n      pop\n        /* \"#utility.yul\":2985:3050   */\n      tag_217\n        /* \"#utility.yul\":3047:3048   */\n      0x00\n        /* \"#utility.yul\":3036:3045   */\n      dup4\n        /* \"#utility.yul\":3032:3049   */\n      add\n        /* \"#utility.yul\":3023:3029   */\n      dup5\n        /* \"#utility.yul\":2985:3050   */\n      tag_167\n      jump\t// in\n    tag_217:\n        /* \"#utility.yul\":2847:3057   */\n      swap3\n      swap2\n      pop\n      pop\n      jump\t// out\n        /* \"#utility.yul\":3063:3181   */\n    tag_168:\n        /* \"#utility.yul\":3150:3174   */\n      tag_219\n        /* \"#utility.yul\":3168:3173   */\n      dup2\n        /* \"#utility.yul\":3150:3174   */\n      tag_161\n      jump\t// in\n    tag_219:\n        /* \"#utility.yul\":3145:3148   */\n      dup3\n        /* \"#utility.yul\":3138:3175   */\n      mstore\n        /* \"#utility.yul\":3063:3181   */\n      pop\n      pop\n      jump\t// out\n        /* \"#utility.yul\":3187:3409   */\n    tag_62:\n        /* \"#utility.yul\":3280:3284   */\n      0x00\n        /* \"#utility.yul\":3318:3320   */\n      0x20\n        /* \"#utility.yul\":3307:3316   */\n      dup3\n        /* \"#utility.yul\":3303:3321   */\n      add\n        /* \"#utility.yul\":3295:3321   */\n      swap1\n      pop\n        /* \"#utility.yul\":3331:3402   */\n      tag_221\n        /* \"#utility.yul\":3399:3400   */\n      0x00\n        /* \"#utility.yul\":3388:3397   */\n      dup4\n        /* \"#utility.yul\":3384:3401   */\n      add\n        /* \"#utility.yul\":3375:3381   */\n      dup5\n        /* \"#utility.yul\":3331:3402   */\n      tag_168\n      jump\t// in\n    tag_221:\n        /* \"#utility.yul\":3187:3409   */\n      swap3\n      swap2\n      pop\n      pop\n      jump\t// out\n        /* \"#utility.yul\":3415:3533   */\n    tag_169:\n        /* \"#utility.yul\":3502:3526   */\n      tag_223\n        /* \"#utility.yul\":3520:3525   */\n      dup2\n        /* \"#utility.yul\":3502:3526   */\n      tag_155\n      jump\t// in\n    tag_223:\n        /* \"#utility.yul\":3497:3500   */\n      dup3\n        /* \"#utility.yul\":3490:3527   */\n      mstore\n        /* \"#utility.yul\":3415:3533   */\n      pop\n      pop\n      jump\t// out\n        /* \"#utility.yul\":3539:3761   */\n    tag_73:\n        /* \"#utility.yul\":3632:3636   */\n      0x00\n        /* \"#utility.yul\":3670:3672   */\n      0x20\n        /* \"#utility.yul\":3659:3668   */\n      dup3\n        /* \"#utility.yul\":3655:3673   */\n      add\n        /* \"#utility.yul\":3647:3673   */\n      swap1\n      pop\n        /* \"#utility.yul\":3683:3754   */\n      tag_225\n        /* \"#utility.yul\":3751:3752   */\n      0x00\n        /* \"#utility.yul\":3740:3749   */\n      dup4\n        /* \"#utility.yul\":3736:3753   */\n      add\n        /* \"#utility.yul\":3727:3733   */\n      dup5\n        /* \"#utility.yul\":3683:3754   */\n      tag_169\n      jump\t// in\n    tag_225:\n        /* \"#utility.yul\":3539:3761   */\n      swap3\n      swap2\n      pop\n      pop\n      jump\t// out\n        /* \"#utility.yul\":3767:3938   */\n    tag_114:\n        /* \"#utility.yul\":3806:3809   */\n      0x00\n        /* \"#utility.yul\":3829:3853   */\n      tag_227\n        /* \"#utility.yul\":3847:3852   */\n      dup3\n        /* \"#utility.yul\":3829:3853   */\n      tag_155\n      jump\t// in\n    tag_227:\n        /* \"#utility.yul\":3820:3853   */\n      swap2\n      pop\n        /* \"#utility.yul\":3875:3879   */\n      0x00\n        /* \"#utility.yul\":3868:3873   */\n      dup3\n        /* \"#utility.yul\":3865:3880   */\n      sub\n        /* \"#utility.yul\":3862:3903   */\n      tag_228\n      jumpi\n        /* \"#utility.yul\":3883:3901   */\n      tag_229\n      tag_156\n      jump\t// in\n    tag_229:\n        /* \"#utility.yul\":3862:3903   */\n    tag_228:\n        /* \"#utility.yul\":3930:3931   */\n      0x01\n        /* \"#utility.yul\":3923:3928   */\n      dup3\n        /* \"#utility.yul\":3919:3932   */\n      sub\n        /* \"#utility.yul\":3912:3932   */\n      swap1\n      pop\n        /* \"#utility.yul\":3767:3938   */\n      swap2\n      swap1\n      pop\n      jump\t// out\n        /* \"#utility.yul\":3944:4113   */\n    tag_170:\n        /* \"#utility.yul\":4028:4039   */\n      0x00\n        /* \"#utility.yul\":4062:4068   */\n      dup3\n        /* \"#utility.yul\":4057:4060   */\n      dup3\n        /* \"#utility.yul\":4050:4069   */\n      mstore\n        /* \"#utility.yul\":4102:4106   */\n      0x20\n        /* \"#utility.yul\":4097:4100   */\n      dup3\n        /* \"#utility.yul\":4093:4107   */\n      add\n        /* \"#utility.yul\":4078:4107   */\n      swap1\n      pop\n        /* \"#utility.yul\":3944:4113   */\n      swap3\n      swap2\n      pop\n      pop\n      jump\t// out\n        /* \"#utility.yul\":4119:4279   */\n    tag_171:\n        /* \"#utility.yul\":4259:4271   */\n      0x6e6f206163636573732100000000000000000000000000000000000000000000\n        /* \"#utility.yul\":4255:4256   */\n      0x00\n        /* \"#utility.yul\":4247:4253   */\n      dup3\n        /* \"#utility.yul\":4243:4257   */\n      add\n        /* \"#utility.yul\":4236:4272   */\n      mstore\n        /* \"#utility.yul\":4119:4279   */\n      pop\n      jump\t// out\n        /* \"#utility.yul\":4285:4651   */\n    tag_172:\n        /* \"#utility.yul\":4427:4430   */\n      0x00\n        /* \"#utility.yul\":4448:4515   */\n      tag_233\n        /* \"#utility.yul\":4512:4514   */\n      0x0a\n        /* \"#utility.yul\":4507:4510   */\n      dup4\n        /* \"#utility.yul\":4448:4515   */\n      tag_170\n      jump\t// in\n    tag_233:\n        /* \"#utility.yul\":4441:4515   */\n      swap2\n      pop\n        /* \"#utility.yul\":4524:4617   */\n      tag_234\n        /* \"#utility.yul\":4613:4616   */\n      dup3\n        /* \"#utility.yul\":4524:4617   */\n      tag_171\n      jump\t// in\n    tag_234:\n        /* \"#utility.yul\":4642:4644   */\n      0x20\n        /* \"#utility.yul\":4637:4640   */\n      dup3\n        /* \"#utility.yul\":4633:4645   */\n      add\n        /* \"#utility.yul\":4626:4645   */\n      swap1\n      pop\n        /* \"#utility.yul\":4285:4651   */\n      swap2\n      swap1\n      pop\n      jump\t// out\n        /* \"#utility.yul\":4657:5076   */\n    tag_123:\n        /* \"#utility.yul\":4823:4827   */\n      0x00\n        /* \"#utility.yul\":4861:4863   */\n      0x20\n        /* \"#utility.yul\":4850:4859   */\n      dup3\n        /* \"#utility.yul\":4846:4864   */\n      add\n        /* \"#utility.yul\":4838:4864   */\n      swap1\n      pop\n        /* \"#utility.yul\":4910:4919   */\n      dup2\n        /* \"#utility.yul\":4904:4908   */\n      dup2\n        /* \"#utility.yul\":4900:4920   */\n      sub\n        /* \"#utility.yul\":4896:4897   */\n      0x00\n        /* \"#utility.yul\":4885:4894   */\n      dup4\n        /* \"#utility.yul\":4881:4898   */\n      add\n        /* \"#utility.yul\":4874:4921   */\n      mstore\n        /* \"#utility.yul\":4938:5069   */\n      tag_236\n        /* \"#utility.yul\":5064:5068   */\n      dup2\n        /* \"#utility.yul\":4938:5069   */\n      tag_172\n      jump\t// in\n    tag_236:\n        /* \"#utility.yul\":4930:5069   */\n      swap1\n      pop\n        /* \"#utility.yul\":4657:5076   */\n      swap2\n      swap1\n      pop\n      jump\t// out\n        /* \"#utility.yul\":5082:5253   */\n    tag_173:\n        /* \"#utility.yul\":5222:5245   */\n      0x696e73756666696369656e742062616c616e6365210000000000000000000000\n        /* \"#utility.yul\":5218:5219   */\n      0x00\n        /* \"#utility.yul\":5210:5216   */\n      dup3\n        /* \"#utility.yul\":5206:5220   */\n      add\n        /* \"#utility.yul\":5199:5246   */\n      mstore\n        /* \"#utility.yul\":5082:5253   */\n      pop\n      jump\t// out\n        /* \"#utility.yul\":5259:5625   */\n    tag_174:\n        /* \"#utility.yul\":5401:5404   */\n      0x00\n        /* \"#utility.yul\":5422:5489   */\n      tag_239\n        /* \"#utility.yul\":5486:5488   */\n      0x15\n        /* \"#utility.yul\":5481:5484   */\n      dup4\n        /* \"#utility.yul\":5422:5489   */\n      tag_170\n      jump\t// in\n    tag_239:\n        /* \"#utility.yul\":5415:5489   */\n      swap2\n      pop\n        /* \"#utility.yul\":5498:5591   */\n      tag_240\n        /* \"#utility.yul\":5587:5590   */\n      dup3\n        /* \"#utility.yul\":5498:5591   */\n      tag_173\n      jump\t// in\n    tag_240:\n        /* \"#utility.yul\":5616:5618   */\n      0x20\n        /* \"#utility.yul\":5611:5614   */\n      dup3\n        /* \"#utility.yul\":5607:5619   */\n      add\n        /* \"#utility.yul\":5600:5619   */\n      swap1\n      pop\n        /* \"#utility.yul\":5259:5625   */\n      swap2\n      swap1\n      pop\n      jump\t// out\n        /* \"#utility.yul\":5631:6050   */\n    tag_126:\n        /* \"#utility.yul\":5797:5801   */\n      0x00\n        /* \"#utility.yul\":5835:5837   */\n      0x20\n        /* \"#utility.yul\":5824:5833   */\n      dup3\n        /* \"#utility.yul\":5820:5838   */\n      add\n        /* \"#utility.yul\":5812:5838   */\n      swap1\n      pop\n        /* \"#utility.yul\":5884:5893   */\n      dup2\n        /* \"#utility.yul\":5878:5882   */\n      dup2\n        /* \"#utility.yul\":5874:5894   */\n      sub\n        /* \"#utility.yul\":5870:5871   */\n      0x00\n        /* \"#utility.yul\":5859:5868   */\n      dup4\n        /* \"#utility.yul\":5855:5872   */\n      add\n        /* \"#utility.yul\":5848:5895   */\n      mstore\n        /* \"#utility.yul\":5912:6043   */\n      tag_242\n        /* \"#utility.yul\":6038:6042   */\n      dup2\n        /* \"#utility.yul\":5912:6043   */\n      tag_174\n      jump\t// in\n    tag_242:\n        /* \"#utility.yul\":5904:6043   */\n      swap1\n      pop\n        /* \"#utility.yul\":5631:6050   */\n      swap2\n      swap1\n      pop\n      jump\t// out\n\n    auxdata: 0xa26469706673582212205ffb91aeab729ef499b06e5136be875644b98cb121e58fbd83cb06ca47828c4864736f6c634300081a0033\n}\n",
				"bytecode": {
					"linkReferences": {},
					"object": "608060405234801561000f575f80fd5b50335f73ffffffffffffffffffffffffffffffffffffffff168173ffffffffffffffffffffffffffffffffffffffff1603610081575f6040517f1e4fbdf70000000000000000000000000000000000000000000000000000000081526004016100789190610196565b60405180910390fd5b6100908161009660201b60201c565b506101af565b5f805f9054906101000a900473ffffffffffffffffffffffffffffffffffffffff169050815f806101000a81548173ffffffffffffffffffffffffffffffffffffffff021916908373ffffffffffffffffffffffffffffffffffffffff1602179055508173ffffffffffffffffffffffffffffffffffffffff168173ffffffffffffffffffffffffffffffffffffffff167f8be0079c531659141344cd1fd0a4f28419497f9722a3daafe3b4186f6b6457e060405160405180910390a35050565b5f73ffffffffffffffffffffffffffffffffffffffff82169050919050565b5f61018082610157565b9050919050565b61019081610176565b82525050565b5f6020820190506101a95f830184610187565b92915050565b610eac806101bc5f395ff3fe608060405260043610610089575f3560e01c8063715018a611610058578063715018a6146102e35780638da5cb5b146102f9578063c9bf5b1514610323578063d294cb0f1461035f578063f2fde38b1461039b5761022b565b80631785f53c1461022f5780632e1a7d4d1461025757806363a846f81461027f57806370480275146102bb5761022b565b3661022b573460025f3373ffffffffffffffffffffffffffffffffffffffff1673ffffffffffffffffffffffffffffffffffffffff1681526020019081526020015f205f8282546100da9190610b7b565b9250508190555060025f6003600160036100f49190610bae565b6003811061010557610104610be1565b5b015f9054906101000a900473ffffffffffffffffffffffffffffffffffffffff1673ffffffffffffffffffffffffffffffffffffffff1673ffffffffffffffffffffffffffffffffffffffff1681526020019081526020015f205460025f3373ffffffffffffffffffffffffffffffffffffffff1673ffffffffffffffffffffffffffffffffffffffff1681526020019081526020015f20541115610229576101ad336103c3565b156101bf576101ba61045a565b610228565b336003600160036101d09190610bae565b600381106101e1576101e0610be1565b5b015f6101000a81548173ffffffffffffffffffffffffffffffffffffffff021916908373ffffffffffffffffffffffffffffffffffffffff16021790555061022761045a565b5b5b005b5f80fd5b34801561023a575f80fd5b5061025560048036038101906102509190610c6c565b6106ac565b005b348015610262575f80fd5b5061027d60048036038101906102789190610cc1565b61075b565b005b34801561028a575f80fd5b506102a560048036038101906102a09190610c6c565b610873565b6040516102b29190610d06565b60405180910390f35b3480156102c6575f80fd5b506102e160048036038101906102dc9190610c6c565b610890565b005b3480156102ee575f80fd5b506102f76108ef565b005b348015610304575f80fd5b5061030d610902565b60405161031a9190610d2e565b60405180910390f35b34801561032e575f80fd5b5061034960048036038101906103449190610cc1565b610929565b6040516103569190610d2e565b60405180910390f35b34801561036a575f80fd5b5061038560048036038101906103809190610c6c565b61095d565b6040516103929190610d56565b60405180910390f35b3480156103a6575f80fd5b506103c160048036038101906103bc9190610c6c565b610972565b005b5f805f90505b600381101561045057600381600381106103e6576103e5610be1565b5b015f9054906101000a900473ffffffffffffffffffffffffffffffffffffffff1673ffffffffffffffffffffffffffffffffffffffff168373ffffffffffffffffffffffffffffffffffffffff1603610443576001915050610455565b80806001019150506103c9565b505f90505b919050565b5f600160036104699190610bae565b90505b600181106106a95760025f60036001846104869190610bae565b6003811061049757610496610be1565b5b015f9054906101000a900473ffffffffffffffffffffffffffffffffffffffff1673ffffffffffffffffffffffffffffffffffffffff1673ffffffffffffffffffffffffffffffffffffffff1681526020019081526020015f205460025f6003846003811061050957610508610be1565b5b015f9054906101000a900473ffffffffffffffffffffffffffffffffffffffff1673ffffffffffffffffffffffffffffffffffffffff1673ffffffffffffffffffffffffffffffffffffffff1681526020019081526020015f20541115610696575f600360018361057a9190610bae565b6003811061058b5761058a610be1565b5b015f9054906101000a900473ffffffffffffffffffffffffffffffffffffffff169050600382600381106105c2576105c1610be1565b5b015f9054906101000a900473ffffffffffffffffffffffffffffffffffffffff1660036001846105f29190610bae565b6003811061060357610602610be1565b5b015f6101000a81548173ffffffffffffffffffffffffffffffffffffffff021916908373ffffffffffffffffffffffffffffffffffffffff160217905550806003836003811061065657610655610be1565b5b015f6101000a81548173ffffffffffffffffffffffffffffffffffffffff021916908373ffffffffffffffffffffffffffffffffffffffff160217905550505b80806106a190610d6f565b91505061046c565b50565b6106b46109f6565b60015f8273ffffffffffffffffffffffffffffffffffffffff1673ffffffffffffffffffffffffffffffffffffffff1681526020019081526020015f205f9054906101000a900460ff1615610758575f60015f8373ffffffffffffffffffffffffffffffffffffffff1673ffffffffffffffffffffffffffffffffffffffff1681526020019081526020015f205f6101000a81548160ff0219169083151502179055505b50565b60015f3373ffffffffffffffffffffffffffffffffffffffff1673ffffffffffffffffffffffffffffffffffffffff1681526020019081526020015f205f9054906101000a900460ff166107e4576040517f08c379a00000000000000000000000000000000000000000000000000000000081526004016107db90610df0565b60405180910390fd5b47811115610827576040517f08c379a000000000000000000000000000000000000000000000000000000000815260040161081e90610e58565b60405180910390fd5b5f3390508073ffffffffffffffffffffffffffffffffffffffff166108fc8390811502906040515f60405180830381858888f1935050505015801561086e573d5f803e3d5ffd5b505050565b6001602052805f5260405f205f915054906101000a900460ff1681565b6108986109f6565b6001805f8373ffffffffffffffffffffffffffffffffffffffff1673ffffffffffffffffffffffffffffffffffffffff1681526020019081526020015f205f6101000a81548160ff02191690831515021790555050565b6108f76109f6565b6109005f610a7d565b565b5f805f9054906101000a900473ffffffffffffffffffffffffffffffffffffffff16905090565b60038160038110610938575f80fd5b015f915054906101000a900473ffffffffffffffffffffffffffffffffffffffff1681565b6002602052805f5260405f205f915090505481565b61097a6109f6565b5f73ffffffffffffffffffffffffffffffffffffffff168173ffffffffffffffffffffffffffffffffffffffff16036109ea575f6040517f1e4fbdf70000000000000000000000000000000000000000000000000000000081526004016109e19190610d2e565b60405180910390fd5b6109f381610a7d565b50565b6109fe610b3e565b73ffffffffffffffffffffffffffffffffffffffff16610a1c610902565b73ffffffffffffffffffffffffffffffffffffffff1614610a7b57610a3f610b3e565b6040517f118cdaa7000000000000000000000000000000000000000000000000000000008152600401610a729190610d2e565b60405180910390fd5b565b5f805f9054906101000a900473ffffffffffffffffffffffffffffffffffffffff169050815f806101000a81548173ffffffffffffffffffffffffffffffffffffffff021916908373ffffffffffffffffffffffffffffffffffffffff1602179055508173ffffffffffffffffffffffffffffffffffffffff168173ffffffffffffffffffffffffffffffffffffffff167f8be0079c531659141344cd1fd0a4f28419497f9722a3daafe3b4186f6b6457e060405160405180910390a35050565b5f33905090565b5f819050919050565b7f4e487b71000000000000000000000000000000000000000000000000000000005f52601160045260245ffd5b5f610b8582610b45565b9150610b9083610b45565b9250828201905080821115610ba857610ba7610b4e565b5b92915050565b5f610bb882610b45565b9150610bc383610b45565b9250828203905081811115610bdb57610bda610b4e565b5b92915050565b7f4e487b71000000000000000000000000000000000000000000000000000000005f52603260045260245ffd5b5f80fd5b5f73ffffffffffffffffffffffffffffffffffffffff82169050919050565b5f610c3b82610c12565b9050919050565b610c4b81610c31565b8114610c55575f80fd5b50565b5f81359050610c6681610c42565b92915050565b5f60208284031215610c8157610c80610c0e565b5b5f610c8e84828501610c58565b91505092915050565b610ca081610b45565b8114610caa575f80fd5b50565b5f81359050610cbb81610c97565b92915050565b5f60208284031215610cd657610cd5610c0e565b5b5f610ce384828501610cad565b91505092915050565b5f8115159050919050565b610d0081610cec565b82525050565b5f602082019050610d195f830184610cf7565b92915050565b610d2881610c31565b82525050565b5f602082019050610d415f830184610d1f565b92915050565b610d5081610b45565b82525050565b5f602082019050610d695f830184610d47565b92915050565b5f610d7982610b45565b91505f8203610d8b57610d8a610b4e565b5b600182039050919050565b5f82825260208201905092915050565b7f6e6f2061636365737321000000000000000000000000000000000000000000005f82015250565b5f610dda600a83610d96565b9150610de582610da6565b602082019050919050565b5f6020820190508181035f830152610e0781610dce565b9050919050565b7f696e73756666696369656e742062616c616e63652100000000000000000000005f82015250565b5f610e42601583610d96565b9150610e4d82610e0e565b602082019050919050565b5f6020820190508181035f830152610e6f81610e36565b905091905056fea26469706673582212205ffb91aeab729ef499b06e5136be875644b98cb121e58fbd83cb06ca47828c4864736f6c634300081a0033",
					"opcodes": "PUSH1 0x80 PUSH1 0x40 MSTORE CALLVALUE DUP1 ISZERO PUSH2 0xF JUMPI PUSH0 DUP1 REVERT JUMPDEST POP CALLER PUSH0 PUSH20 0xFFFFFFFFFFFFFFFFFFFFFFFFFFFFFFFFFFFFFFFF AND DUP2 PUSH20 0xFFFFFFFFFFFFFFFFFFFFFFFFFFFFFFFFFFFFFFFF AND SUB PUSH2 0x81 JUMPI PUSH0 PUSH1 0x40 MLOAD PUSH32 0x1E4FBDF700000000000000000000000000000000000000000000000000000000 DUP2 MSTORE PUSH1 0x4 ADD PUSH2 0x78 SWAP2 SWAP1 PUSH2 0x196 JUMP JUMPDEST PUSH1 0x40 MLOAD DUP1 SWAP2 SUB SWAP1 REVERT JUMPDEST PUSH2 0x90 DUP2 PUSH2 0x96 PUSH1 0x20 SHL PUSH1 0x20 SHR JUMP JUMPDEST POP PUSH2 0x1AF JUMP JUMPDEST PUSH0 DUP1 PUSH0 SWAP1 SLOAD SWAP1 PUSH2 0x100 EXP SWAP1 DIV PUSH20 0xFFFFFFFFFFFFFFFFFFFFFFFFFFFFFFFFFFFFFFFF AND SWAP1 POP DUP2 PUSH0 DUP1 PUSH2 0x100 EXP DUP2 SLOAD DUP2 PUSH20 0xFFFFFFFFFFFFFFFFFFFFFFFFFFFFFFFFFFFFFFFF MUL NOT AND SWAP1 DUP4 PUSH20 0xFFFFFFFFFFFFFFFFFFFFFFFFFFFFFFFFFFFFFFFF AND MUL OR SWAP1 SSTORE POP DUP2 PUSH20 0xFFFFFFFFFFFFFFFFFFFFFFFFFFFFFFFFFFFFFFFF AND DUP2 PUSH20 0xFFFFFFFFFFFFFFFFFFFFFFFFFFFFFFFFFFFFFFFF AND PUSH32 0x8BE0079C531659141344CD1FD0A4F28419497F9722A3DAAFE3B4186F6B6457E0 PUSH1 0x40 MLOAD PUSH1 0x40 MLOAD DUP1 SWAP2 SUB SWAP1 LOG3 POP POP JUMP JUMPDEST PUSH0 PUSH20 0xFFFFFFFFFFFFFFFFFFFFFFFFFFFFFFFFFFFFFFFF DUP3 AND SWAP1 POP SWAP2 SWAP1 POP JUMP JUMPDEST PUSH0 PUSH2 0x180 DUP3 PUSH2 0x157 JUMP JUMPDEST SWAP1 POP SWAP2 SWAP1 POP JUMP JUMPDEST PUSH2 0x190 DUP2 PUSH2 0x176 JUMP JUMPDEST DUP3 MSTORE POP POP JUMP JUMPDEST PUSH0 PUSH1 0x20 DUP3 ADD SWAP1 POP PUSH2 0x1A9 PUSH0 DUP4 ADD DUP5 PUSH2 0x187 JUMP JUMPDEST SWAP3 SWAP2 POP POP JUMP JUMPDEST PUSH2 0xEAC DUP1 PUSH2 0x1BC PUSH0 CODECOPY PUSH0 RETURN INVALID PUSH1 0x80 PUSH1 0x40 MSTORE PUSH1 0x4 CALLDATASIZE LT PUSH2 0x89 JUMPI PUSH0 CALLDATALOAD PUSH1 0xE0 SHR DUP1 PUSH4 0x715018A6 GT PUSH2 0x58 JUMPI DUP1 PUSH4 0x715018A6 EQ PUSH2 0x2E3 JUMPI DUP1 PUSH4 0x8DA5CB5B EQ PUSH2 0x2F9 JUMPI DUP1 PUSH4 0xC9BF5B15 EQ PUSH2 0x323 JUMPI DUP1 PUSH4 0xD294CB0F EQ PUSH2 0x35F JUMPI DUP1 PUSH4 0xF2FDE38B EQ PUSH2 0x39B JUMPI PUSH2 0x22B JUMP JUMPDEST DUP1 PUSH4 0x1785F53C EQ PUSH2 0x22F JUMPI DUP1 PUSH4 0x2E1A7D4D EQ PUSH2 0x257 JUMPI DUP1 PUSH4 0x63A846F8 EQ PUSH2 0x27F JUMPI DUP1 PUSH4 0x70480275 EQ PUSH2 0x2BB JUMPI PUSH2 0x22B JUMP JUMPDEST CALLDATASIZE PUSH2 0x22B JUMPI CALLVALUE PUSH1 0x2 PUSH0 CALLER PUSH20 0xFFFFFFFFFFFFFFFFFFFFFFFFFFFFFFFFFFFFFFFF AND PUSH20 0xFFFFFFFFFFFFFFFFFFFFFFFFFFFFFFFFFFFFFFFF AND DUP2 MSTORE PUSH1 0x20 ADD SWAP1 DUP2 MSTORE PUSH1 0x20 ADD PUSH0 KECCAK256 PUSH0 DUP3 DUP3 SLOAD PUSH2 0xDA SWAP2 SWAP1 PUSH2 0xB7B JUMP JUMPDEST SWAP3 POP POP DUP2 SWAP1 SSTORE POP PUSH1 0x2 PUSH0 PUSH1 0x3 PUSH1 0x1 PUSH1 0x3 PUSH2 0xF4 SWAP2 SWAP1 PUSH2 0xBAE JUMP JUMPDEST PUSH1 0x3 DUP2 LT PUSH2 0x105 JUMPI PUSH2 0x104 PUSH2 0xBE1 JUMP JUMPDEST JUMPDEST ADD PUSH0 SWAP1 SLOAD SWAP1 PUSH2 0x100 EXP SWAP1 DIV PUSH20 0xFFFFFFFFFFFFFFFFFFFFFFFFFFFFFFFFFFFFFFFF AND PUSH20 0xFFFFFFFFFFFFFFFFFFFFFFFFFFFFFFFFFFFFFFFF AND PUSH20 0xFFFFFFFFFFFFFFFFFFFFFFFFFFFFFFFFFFFFFFFF AND DUP2 MSTORE PUSH1 0x20 ADD SWAP1 DUP2 MSTORE PUSH1 0x20 ADD PUSH0 KECCAK256 SLOAD PUSH1 0x2 PUSH0 CALLER PUSH20 0xFFFFFFFFFFFFFFFFFFFFFFFFFFFFFFFFFFFFFFFF AND PUSH20 0xFFFFFFFFFFFFFFFFFFFFFFFFFFFFFFFFFFFFFFFF AND DUP2 MSTORE PUSH1 0x20 ADD SWAP1 DUP2 MSTORE PUSH1 0x20 ADD PUSH0 KECCAK256 SLOAD GT ISZERO PUSH2 0x229 JUMPI PUSH2 0x1AD CALLER PUSH2 0x3C3 JUMP JUMPDEST ISZERO PUSH2 0x1BF JUMPI PUSH2 0x1BA PUSH2 0x45A JUMP JUMPDEST PUSH2 0x228 JUMP JUMPDEST CALLER PUSH1 0x3 PUSH1 0x1 PUSH1 0x3 PUSH2 0x1D0 SWAP2 SWAP1 PUSH2 0xBAE JUMP JUMPDEST PUSH1 0x3 DUP2 LT PUSH2 0x1E1 JUMPI PUSH2 0x1E0 PUSH2 0xBE1 JUMP JUMPDEST JUMPDEST ADD PUSH0 PUSH2 0x100 EXP DUP2 SLOAD DUP2 PUSH20 0xFFFFFFFFFFFFFFFFFFFFFFFFFFFFFFFFFFFFFFFF MUL NOT AND SWAP1 DUP4 PUSH20 0xFFFFFFFFFFFFFFFFFFFFFFFFFFFFFFFFFFFFFFFF AND MUL OR SWAP1 SSTORE POP PUSH2 0x227 PUSH2 0x45A JUMP JUMPDEST JUMPDEST JUMPDEST STOP JUMPDEST PUSH0 DUP1 REVERT JUMPDEST CALLVALUE DUP1 ISZERO PUSH2 0x23A JUMPI PUSH0 DUP1 REVERT JUMPDEST POP PUSH2 0x255 PUSH1 0x4 DUP1 CALLDATASIZE SUB DUP2 ADD SWAP1 PUSH2 0x250 SWAP2 SWAP1 PUSH2 0xC6C JUMP JUMPDEST PUSH2 0x6AC JUMP JUMPDEST STOP JUMPDEST CALLVALUE DUP1 ISZERO PUSH2 0x262 JUMPI PUSH0 DUP1 REVERT JUMPDEST POP PUSH2 0x27D PUSH1 0x4 DUP1 CALLDATASIZE SUB DUP2 ADD SWAP1 PUSH2 0x278 SWAP2 SWAP1 PUSH2 0xCC1 JUMP JUMPDEST PUSH2 0x75B JUMP JUMPDEST STOP JUMPDEST CALLVALUE DUP1 ISZERO PUSH2 0x28A JUMPI PUSH0 DUP1 REVERT JUMPDEST POP PUSH2 0x2A5 PUSH1 0x4 DUP1 CALLDATASIZE SUB DUP2 ADD SWAP1 PUSH2 0x2A0 SWAP2 SWAP1 PUSH2 0xC6C JUMP JUMPDEST PUSH2 0x873 JUMP JUMPDEST PUSH1 0x40 MLOAD PUSH2 0x2B2 SWAP2 SWAP1 PUSH2 0xD06 JUMP JUMPDEST PUSH1 0x40 MLOAD DUP1 SWAP2 SUB SWAP1 RETURN JUMPDEST CALLVALUE DUP1 ISZERO PUSH2 0x2C6 JUMPI PUSH0 DUP1 REVERT JUMPDEST POP PUSH2 0x2E1 PUSH1 0x4 DUP1 CALLDATASIZE SUB DUP2 ADD SWAP1 PUSH2 0x2DC SWAP2 SWAP1 PUSH2 0xC6C JUMP JUMPDEST PUSH2 0x890 JUMP JUMPDEST STOP JUMPDEST CALLVALUE DUP1 ISZERO PUSH2 0x2EE JUMPI PUSH0 DUP1 REVERT JUMPDEST POP PUSH2 0x2F7 PUSH2 0x8EF JUMP JUMPDEST STOP JUMPDEST CALLVALUE DUP1 ISZERO PUSH2 0x304 JUMPI PUSH0 DUP1 REVERT JUMPDEST POP PUSH2 0x30D PUSH2 0x902 JUMP JUMPDEST PUSH1 0x40 MLOAD PUSH2 0x31A SWAP2 SWAP1 PUSH2 0xD2E JUMP JUMPDEST PUSH1 0x40 MLOAD DUP1 SWAP2 SUB SWAP1 RETURN JUMPDEST CALLVALUE DUP1 ISZERO PUSH2 0x32E JUMPI PUSH0 DUP1 REVERT JUMPDEST POP PUSH2 0x349 PUSH1 0x4 DUP1 CALLDATASIZE SUB DUP2 ADD SWAP1 PUSH2 0x344 SWAP2 SWAP1 PUSH2 0xCC1 JUMP JUMPDEST PUSH2 0x929 JUMP JUMPDEST PUSH1 0x40 MLOAD PUSH2 0x356 SWAP2 SWAP1 PUSH2 0xD2E JUMP JUMPDEST PUSH1 0x40 MLOAD DUP1 SWAP2 SUB SWAP1 RETURN JUMPDEST CALLVALUE DUP1 ISZERO PUSH2 0x36A JUMPI PUSH0 DUP1 REVERT JUMPDEST POP PUSH2 0x385 PUSH1 0x4 DUP1 CALLDATASIZE SUB DUP2 ADD SWAP1 PUSH2 0x380 SWAP2 SWAP1 PUSH2 0xC6C JUMP JUMPDEST PUSH2 0x95D JUMP JUMPDEST PUSH1 0x40 MLOAD PUSH2 0x392 SWAP2 SWAP1 PUSH2 0xD56 JUMP JUMPDEST PUSH1 0x40 MLOAD DUP1 SWAP2 SUB SWAP1 RETURN JUMPDEST CALLVALUE DUP1 ISZERO PUSH2 0x3A6 JUMPI PUSH0 DUP1 REVERT JUMPDEST POP PUSH2 0x3C1 PUSH1 0x4 DUP1 CALLDATASIZE SUB DUP2 ADD SWAP1 PUSH2 0x3BC SWAP2 SWAP1 PUSH2 0xC6C JUMP JUMPDEST PUSH2 0x972 JUMP JUMPDEST STOP JUMPDEST PUSH0 DUP1 PUSH0 SWAP1 POP JUMPDEST PUSH1 0x3 DUP2 LT ISZERO PUSH2 0x450 JUMPI PUSH1 0x3 DUP2 PUSH1 0x3 DUP2 LT PUSH2 0x3E6 JUMPI PUSH2 0x3E5 PUSH2 0xBE1 JUMP JUMPDEST JUMPDEST ADD PUSH0 SWAP1 SLOAD SWAP1 PUSH2 0x100 EXP SWAP1 DIV PUSH20 0xFFFFFFFFFFFFFFFFFFFFFFFFFFFFFFFFFFFFFFFF AND PUSH20 0xFFFFFFFFFFFFFFFFFFFFFFFFFFFFFFFFFFFFFFFF AND DUP4 PUSH20 0xFFFFFFFFFFFFFFFFFFFFFFFFFFFFFFFFFFFFFFFF AND SUB PUSH2 0x443 JUMPI PUSH1 0x1 SWAP2 POP POP PUSH2 0x455 JUMP JUMPDEST DUP1 DUP1 PUSH1 0x1 ADD SWAP2 POP POP PUSH2 0x3C9 JUMP JUMPDEST POP PUSH0 SWAP1 POP JUMPDEST SWAP2 SWAP1 POP JUMP JUMPDEST PUSH0 PUSH1 0x1 PUSH1 0x3 PUSH2 0x469 SWAP2 SWAP1 PUSH2 0xBAE JUMP JUMPDEST SWAP1 POP JUMPDEST PUSH1 0x1 DUP2 LT PUSH2 0x6A9 JUMPI PUSH1 0x2 PUSH0 PUSH1 0x3 PUSH1 0x1 DUP5 PUSH2 0x486 SWAP2 SWAP1 PUSH2 0xBAE JUMP JUMPDEST PUSH1 0x3 DUP2 LT PUSH2 0x497 JUMPI PUSH2 0x496 PUSH2 0xBE1 JUMP JUMPDEST JUMPDEST ADD PUSH0 SWAP1 SLOAD SWAP1 PUSH2 0x100 EXP SWAP1 DIV PUSH20 0xFFFFFFFFFFFFFFFFFFFFFFFFFFFFFFFFFFFFFFFF AND PUSH20 0xFFFFFFFFFFFFFFFFFFFFFFFFFFFFFFFFFFFFFFFF AND PUSH20 0xFFFFFFFFFFFFFFFFFFFFFFFFFFFFFFFFFFFFFFFF AND DUP2 MSTORE PUSH1 0x20 ADD SWAP1 DUP2 MSTORE PUSH1 0x20 ADD PUSH0 KECCAK256 SLOAD PUSH1 0x2 PUSH0 PUSH1 0x3 DUP5 PUSH1 0x3 DUP2 LT PUSH2 0x509 JUMPI PUSH2 0x508 PUSH2 0xBE1 JUMP JUMPDEST JUMPDEST ADD PUSH0 SWAP1 SLOAD SWAP1 PUSH2 0x100 EXP SWAP1 DIV PUSH20 0xFFFFFFFFFFFFFFFFFFFFFFFFFFFFFFFFFFFFFFFF AND PUSH20 0xFFFFFFFFFFFFFFFFFFFFFFFFFFFFFFFFFFFFFFFF AND PUSH20 0xFFFFFFFFFFFFFFFFFFFFFFFFFFFFFFFFFFFFFFFF AND DUP2 MSTORE PUSH1 0x20 ADD SWAP1 DUP2 MSTORE PUSH1 0x20 ADD PUSH0 KECCAK256 SLOAD GT ISZERO PUSH2 0x696 JUMPI PUSH0 PUSH1 0x3 PUSH1 0x1 DUP4 PUSH2 0x57A SWAP2 SWAP1 PUSH2 0xBAE JUMP JUMPDEST PUSH1 0x3 DUP2 LT PUSH2 0x58B JUMPI PUSH2 0x58A PUSH2 0xBE1 JUMP JUMPDEST JUMPDEST ADD PUSH0 SWAP1 SLOAD SWAP1 PUSH2 0x100 EXP SWAP1 DIV PUSH20 0xFFFFFFFFFFFFFFFFFFFFFFFFFFFFFFFFFFFFFFFF AND SWAP1 POP PUSH1 0x3 DUP3 PUSH1 0x3 DUP2 LT PUSH2 0x5C2 JUMPI PUSH2 0x5C1 PUSH2 0xBE1 JUMP JUMPDEST JUMPDEST ADD PUSH0 SWAP1 SLOAD SWAP1 PUSH2 0x100 EXP SWAP1 DIV PUSH20 0xFFFFFFFFFFFFFFFFFFFFFFFFFFFFFFFFFFFFFFFF AND PUSH1 0x3 PUSH1 0x1 DUP5 PUSH2 0x5F2 SWAP2 SWAP1 PUSH2 0xBAE JUMP JUMPDEST PUSH1 0x3 DUP2 LT PUSH2 0x603 JUMPI PUSH2 0x602 PUSH2 0xBE1 JUMP JUMPDEST JUMPDEST ADD PUSH0 PUSH2 0x100 EXP DUP2 SLOAD DUP2 PUSH20 0xFFFFFFFFFFFFFFFFFFFFFFFFFFFFFFFFFFFFFFFF MUL NOT AND SWAP1 DUP4 PUSH20 0xFFFFFFFFFFFFFFFFFFFFFFFFFFFFFFFFFFFFFFFF AND MUL OR SWAP1 SSTORE POP DUP1 PUSH1 0x3 DUP4 PUSH1 0x3 DUP2 LT PUSH2 0x656 JUMPI PUSH2 0x655 PUSH2 0xBE1 JUMP JUMPDEST JUMPDEST ADD PUSH0 PUSH2 0x100 EXP DUP2 SLOAD DUP2 PUSH20 0xFFFFFFFFFFFFFFFFFFFFFFFFFFFFFFFFFFFFFFFF MUL NOT AND SWAP1 DUP4 PUSH20 0xFFFFFFFFFFFFFFFFFFFFFFFFFFFFFFFFFFFFFFFF AND MUL OR SWAP1 SSTORE POP POP JUMPDEST DUP1 DUP1 PUSH2 0x6A1 SWAP1 PUSH2 0xD6F JUMP JUMPDEST SWAP2 POP POP PUSH2 0x46C JUMP JUMPDEST POP JUMP JUMPDEST PUSH2 0x6B4 PUSH2 0x9F6 JUMP JUMPDEST PUSH1 0x1 PUSH0 DUP3 PUSH20 0xFFFFFFFFFFFFFFFFFFFFFFFFFFFFFFFFFFFFFFFF AND PUSH20 0xFFFFFFFFFFFFFFFFFFFFFFFFFFFFFFFFFFFFFFFF AND DUP2 MSTORE PUSH1 0x20 ADD SWAP1 DUP2 MSTORE PUSH1 0x20 ADD PUSH0 KECCAK256 PUSH0 SWAP1 SLOAD SWAP1 PUSH2 0x100 EXP SWAP1 DIV PUSH1 0xFF AND ISZERO PUSH2 0x758 JUMPI PUSH0 PUSH1 0x1 PUSH0 DUP4 PUSH20 0xFFFFFFFFFFFFFFFFFFFFFFFFFFFFFFFFFFFFFFFF AND PUSH20 0xFFFFFFFFFFFFFFFFFFFFFFFFFFFFFFFFFFFFFFFF AND DUP2 MSTORE PUSH1 0x20 ADD SWAP1 DUP2 MSTORE PUSH1 0x20 ADD PUSH0 KECCAK256 PUSH0 PUSH2 0x100 EXP DUP2 SLOAD DUP2 PUSH1 0xFF MUL NOT AND SWAP1 DUP4 ISZERO ISZERO MUL OR SWAP1 SSTORE POP JUMPDEST POP JUMP JUMPDEST PUSH1 0x1 PUSH0 CALLER PUSH20 0xFFFFFFFFFFFFFFFFFFFFFFFFFFFFFFFFFFFFFFFF AND PUSH20 0xFFFFFFFFFFFFFFFFFFFFFFFFFFFFFFFFFFFFFFFF AND DUP2 MSTORE PUSH1 0x20 ADD SWAP1 DUP2 MSTORE PUSH1 0x20 ADD PUSH0 KECCAK256 PUSH0 SWAP1 SLOAD SWAP1 PUSH2 0x100 EXP SWAP1 DIV PUSH1 0xFF AND PUSH2 0x7E4 JUMPI PUSH1 0x40 MLOAD PUSH32 0x8C379A000000000000000000000000000000000000000000000000000000000 DUP2 MSTORE PUSH1 0x4 ADD PUSH2 0x7DB SWAP1 PUSH2 0xDF0 JUMP JUMPDEST PUSH1 0x40 MLOAD DUP1 SWAP2 SUB SWAP1 REVERT JUMPDEST SELFBALANCE DUP2 GT ISZERO PUSH2 0x827 JUMPI PUSH1 0x40 MLOAD PUSH32 0x8C379A000000000000000000000000000000000000000000000000000000000 DUP2 MSTORE PUSH1 0x4 ADD PUSH2 0x81E SWAP1 PUSH2 0xE58 JUMP JUMPDEST PUSH1 0x40 MLOAD DUP1 SWAP2 SUB SWAP1 REVERT JUMPDEST PUSH0 CALLER SWAP1 POP DUP1 PUSH20 0xFFFFFFFFFFFFFFFFFFFFFFFFFFFFFFFFFFFFFFFF AND PUSH2 0x8FC DUP4 SWAP1 DUP2 ISZERO MUL SWAP1 PUSH1 0x40 MLOAD PUSH0 PUSH1 0x40 MLOAD DUP1 DUP4 SUB DUP2 DUP6 DUP9 DUP9 CALL SWAP4 POP POP POP POP ISZERO DUP1 ISZERO PUSH2 0x86E JUMPI RETURNDATASIZE PUSH0 DUP1 RETURNDATACOPY RETURNDATASIZE PUSH0 REVERT JUMPDEST POP POP POP JUMP JUMPDEST PUSH1 0x1 PUSH1 0x20 MSTORE DUP1 PUSH0 MSTORE PUSH1 0x40 PUSH0 KECCAK256 PUSH0 SWAP2 POP SLOAD SWAP1 PUSH2 0x100 EXP SWAP1 DIV PUSH1 0xFF AND DUP2 JUMP JUMPDEST PUSH2 0x898 PUSH2 0x9F6 JUMP JUMPDEST PUSH1 0x1 DUP1 PUSH0 DUP4 PUSH20 0xFFFFFFFFFFFFFFFFFFFFFFFFFFFFFFFFFFFFFFFF AND PUSH20 0xFFFFFFFFFFFFFFFFFFFFFFFFFFFFFFFFFFFFFFFF AND DUP2 MSTORE PUSH1 0x20 ADD SWAP1 DUP2 MSTORE PUSH1 0x20 ADD PUSH0 KECCAK256 PUSH0 PUSH2 0x100 EXP DUP2 SLOAD DUP2 PUSH1 0xFF MUL NOT AND SWAP1 DUP4 ISZERO ISZERO MUL OR SWAP1 SSTORE POP POP JUMP JUMPDEST PUSH2 0x8F7 PUSH2 0x9F6 JUMP JUMPDEST PUSH2 0x900 PUSH0 PUSH2 0xA7D JUMP JUMPDEST JUMP JUMPDEST PUSH0 DUP1 PUSH0 SWAP1 SLOAD SWAP1 PUSH2 0x100 EXP SWAP1 DIV PUSH20 0xFFFFFFFFFFFFFFFFFFFFFFFFFFFFFFFFFFFFFFFF AND SWAP1 POP SWAP1 JUMP JUMPDEST PUSH1 0x3 DUP2 PUSH1 0x3 DUP2 LT PUSH2 0x938 JUMPI PUSH0 DUP1 REVERT JUMPDEST ADD PUSH0 SWAP2 POP SLOAD SWAP1 PUSH2 0x100 EXP SWAP1 DIV PUSH20 0xFFFFFFFFFFFFFFFFFFFFFFFFFFFFFFFFFFFFFFFF AND DUP2 JUMP JUMPDEST PUSH1 0x2 PUSH1 0x20 MSTORE DUP1 PUSH0 MSTORE PUSH1 0x40 PUSH0 KECCAK256 PUSH0 SWAP2 POP SWAP1 POP SLOAD DUP2 JUMP JUMPDEST PUSH2 0x97A PUSH2 0x9F6 JUMP JUMPDEST PUSH0 PUSH20 0xFFFFFFFFFFFFFFFFFFFFFFFFFFFFFFFFFFFFFFFF AND DUP2 PUSH20 0xFFFFFFFFFFFFFFFFFFFFFFFFFFFFFFFFFFFFFFFF AND SUB PUSH2 0x9EA JUMPI PUSH0 PUSH1 0x40 MLOAD PUSH32 0x1E4FBDF700000000000000000000000000000000000000000000000000000000 DUP2 MSTORE PUSH1 0x4 ADD PUSH2 0x9E1 SWAP2 SWAP1 PUSH2 0xD2E JUMP JUMPDEST PUSH1 0x40 MLOAD DUP1 SWAP2 SUB SWAP1 REVERT JUMPDEST PUSH2 0x9F3 DUP2 PUSH2 0xA7D JUMP JUMPDEST POP JUMP JUMPDEST PUSH2 0x9FE PUSH2 0xB3E JUMP JUMPDEST PUSH20 0xFFFFFFFFFFFFFFFFFFFFFFFFFFFFFFFFFFFFFFFF AND PUSH2 0xA1C PUSH2 0x902 JUMP JUMPDEST PUSH20 0xFFFFFFFFFFFFFFFFFFFFFFFFFFFFFFFFFFFFFFFF AND EQ PUSH2 0xA7B JUMPI PUSH2 0xA3F PUSH2 0xB3E JUMP JUMPDEST PUSH1 0x40 MLOAD PUSH32 0x118CDAA700000000000000000000000000000000000000000000000000000000 DUP2 MSTORE PUSH1 0x4 ADD PUSH2 0xA72 SWAP2 SWAP1 PUSH2 0xD2E JUMP JUMPDEST PUSH1 0x40 MLOAD DUP1 SWAP2 SUB SWAP1 REVERT JUMPDEST JUMP JUMPDEST PUSH0 DUP1 PUSH0 SWAP1 SLOAD SWAP1 PUSH2 0x100 EXP SWAP1 DIV PUSH20 0xFFFFFFFFFFFFFFFFFFFFFFFFFFFFFFFFFFFFFFFF AND SWAP1 POP DUP2 PUSH0 DUP1 PUSH2 0x100 EXP DUP2 SLOAD DUP2 PUSH20 0xFFFFFFFFFFFFFFFFFFFFFFFFFFFFFFFFFFFFFFFF MUL NOT AND SWAP1 DUP4 PUSH20 0xFFFFFFFFFFFFFFFFFFFFFFFFFFFFFFFFFFFFFFFF AND MUL OR SWAP1 SSTORE POP DUP2 PUSH20 0xFFFFFFFFFFFFFFFFFFFFFFFFFFFFFFFFFFFFFFFF AND DUP2 PUSH20 0xFFFFFFFFFFFFFFFFFFFFFFFFFFFFFFFFFFFFFFFF AND PUSH32 0x8BE0079C531659141344CD1FD0A4F28419497F9722A3DAAFE3B4186F6B6457E0 PUSH1 0x40 MLOAD PUSH1 0x40 MLOAD DUP1 SWAP2 SUB SWAP1 LOG3 POP POP JUMP JUMPDEST PUSH0 CALLER SWAP1 POP SWAP1 JUMP JUMPDEST PUSH0 DUP2 SWAP1 POP SWAP2 SWAP1 POP JUMP JUMPDEST PUSH32 0x4E487B7100000000000000000000000000000000000000000000000000000000 PUSH0 MSTORE PUSH1 0x11 PUSH1 0x4 MSTORE PUSH1 0x24 PUSH0 REVERT JUMPDEST PUSH0 PUSH2 0xB85 DUP3 PUSH2 0xB45 JUMP JUMPDEST SWAP2 POP PUSH2 0xB90 DUP4 PUSH2 0xB45 JUMP JUMPDEST SWAP3 POP DUP3 DUP3 ADD SWAP1 POP DUP1 DUP3 GT ISZERO PUSH2 0xBA8 JUMPI PUSH2 0xBA7 PUSH2 0xB4E JUMP JUMPDEST JUMPDEST SWAP3 SWAP2 POP POP JUMP JUMPDEST PUSH0 PUSH2 0xBB8 DUP3 PUSH2 0xB45 JUMP JUMPDEST SWAP2 POP PUSH2 0xBC3 DUP4 PUSH2 0xB45 JUMP JUMPDEST SWAP3 POP DUP3 DUP3 SUB SWAP1 POP DUP2 DUP2 GT ISZERO PUSH2 0xBDB JUMPI PUSH2 0xBDA PUSH2 0xB4E JUMP JUMPDEST JUMPDEST SWAP3 SWAP2 POP POP JUMP JUMPDEST PUSH32 0x4E487B7100000000000000000000000000000000000000000000000000000000 PUSH0 MSTORE PUSH1 0x32 PUSH1 0x4 MSTORE PUSH1 0x24 PUSH0 REVERT JUMPDEST PUSH0 DUP1 REVERT JUMPDEST PUSH0 PUSH20 0xFFFFFFFFFFFFFFFFFFFFFFFFFFFFFFFFFFFFFFFF DUP3 AND SWAP1 POP SWAP2 SWAP1 POP JUMP JUMPDEST PUSH0 PUSH2 0xC3B DUP3 PUSH2 0xC12 JUMP JUMPDEST SWAP1 POP SWAP2 SWAP1 POP JUMP JUMPDEST PUSH2 0xC4B DUP2 PUSH2 0xC31 JUMP JUMPDEST DUP2 EQ PUSH2 0xC55 JUMPI PUSH0 DUP1 REVERT JUMPDEST POP JUMP JUMPDEST PUSH0 DUP2 CALLDATALOAD SWAP1 POP PUSH2 0xC66 DUP2 PUSH2 0xC42 JUMP JUMPDEST SWAP3 SWAP2 POP POP JUMP JUMPDEST PUSH0 PUSH1 0x20 DUP3 DUP5 SUB SLT ISZERO PUSH2 0xC81 JUMPI PUSH2 0xC80 PUSH2 0xC0E JUMP JUMPDEST JUMPDEST PUSH0 PUSH2 0xC8E DUP5 DUP3 DUP6 ADD PUSH2 0xC58 JUMP JUMPDEST SWAP2 POP POP SWAP3 SWAP2 POP POP JUMP JUMPDEST PUSH2 0xCA0 DUP2 PUSH2 0xB45 JUMP JUMPDEST DUP2 EQ PUSH2 0xCAA JUMPI PUSH0 DUP1 REVERT JUMPDEST POP JUMP JUMPDEST PUSH0 DUP2 CALLDATALOAD SWAP1 POP PUSH2 0xCBB DUP2 PUSH2 0xC97 JUMP JUMPDEST SWAP3 SWAP2 POP POP JUMP JUMPDEST PUSH0 PUSH1 0x20 DUP3 DUP5 SUB SLT ISZERO PUSH2 0xCD6 JUMPI PUSH2 0xCD5 PUSH2 0xC0E JUMP JUMPDEST JUMPDEST PUSH0 PUSH2 0xCE3 DUP5 DUP3 DUP6 ADD PUSH2 0xCAD JUMP JUMPDEST SWAP2 POP POP SWAP3 SWAP2 POP POP JUMP JUMPDEST PUSH0 DUP2 ISZERO ISZERO SWAP1 POP SWAP2 SWAP1 POP JUMP JUMPDEST PUSH2 0xD00 DUP2 PUSH2 0xCEC JUMP JUMPDEST DUP3 MSTORE POP POP JUMP JUMPDEST PUSH0 PUSH1 0x20 DUP3 ADD SWAP1 POP PUSH2 0xD19 PUSH0 DUP4 ADD DUP5 PUSH2 0xCF7 JUMP JUMPDEST SWAP3 SWAP2 POP POP JUMP JUMPDEST PUSH2 0xD28 DUP2 PUSH2 0xC31 JUMP JUMPDEST DUP3 MSTORE POP POP JUMP JUMPDEST PUSH0 PUSH1 0x20 DUP3 ADD SWAP1 POP PUSH2 0xD41 PUSH0 DUP4 ADD DUP5 PUSH2 0xD1F JUMP JUMPDEST SWAP3 SWAP2 POP POP JUMP JUMPDEST PUSH2 0xD50 DUP2 PUSH2 0xB45 JUMP JUMPDEST DUP3 MSTORE POP POP JUMP JUMPDEST PUSH0 PUSH1 0x20 DUP3 ADD SWAP1 POP PUSH2 0xD69 PUSH0 DUP4 ADD DUP5 PUSH2 0xD47 JUMP JUMPDEST SWAP3 SWAP2 POP POP JUMP JUMPDEST PUSH0 PUSH2 0xD79 DUP3 PUSH2 0xB45 JUMP JUMPDEST SWAP2 POP PUSH0 DUP3 SUB PUSH2 0xD8B JUMPI PUSH2 0xD8A PUSH2 0xB4E JUMP JUMPDEST JUMPDEST PUSH1 0x1 DUP3 SUB SWAP1 POP SWAP2 SWAP1 POP JUMP JUMPDEST PUSH0 DUP3 DUP3 MSTORE PUSH1 0x20 DUP3 ADD SWAP1 POP SWAP3 SWAP2 POP POP JUMP JUMPDEST PUSH32 0x6E6F206163636573732100000000000000000000000000000000000000000000 PUSH0 DUP3 ADD MSTORE POP JUMP JUMPDEST PUSH0 PUSH2 0xDDA PUSH1 0xA DUP4 PUSH2 0xD96 JUMP JUMPDEST SWAP2 POP PUSH2 0xDE5 DUP3 PUSH2 0xDA6 JUMP JUMPDEST PUSH1 0x20 DUP3 ADD SWAP1 POP SWAP2 SWAP1 POP JUMP JUMPDEST PUSH0 PUSH1 0x20 DUP3 ADD SWAP1 POP DUP2 DUP2 SUB PUSH0 DUP4 ADD MSTORE PUSH2 0xE07 DUP2 PUSH2 0xDCE JUMP JUMPDEST SWAP1 POP SWAP2 SWAP1 POP JUMP JUMPDEST PUSH32 0x696E73756666696369656E742062616C616E6365210000000000000000000000 PUSH0 DUP3 ADD MSTORE POP JUMP JUMPDEST PUSH0 PUSH2 0xE42 PUSH1 0x15 DUP4 PUSH2 0xD96 JUMP JUMPDEST SWAP2 POP PUSH2 0xE4D DUP3 PUSH2 0xE0E JUMP JUMPDEST PUSH1 0x20 DUP3 ADD SWAP1 POP SWAP2 SWAP1 POP JUMP JUMPDEST PUSH0 PUSH1 0x20 DUP3 ADD SWAP1 POP DUP2 DUP2 SUB PUSH0 DUP4 ADD MSTORE PUSH2 0xE6F DUP2 PUSH2 0xE36 JUMP JUMPDEST SWAP1 POP SWAP2 SWAP1 POP JUMP INVALID LOG2 PUSH5 0x6970667358 0x22 SLT KECCAK256 PUSH0 0xFB SWAP2 0xAE 0xAB PUSH19 0x9EF499B06E5136BE875644B98CB121E58FBD83 0xCB MOD 0xCA SELFBALANCE DUP3 DUP13 BASEFEE PUSH5 0x736F6C6343 STOP ADDMOD BYTE STOP CALLER "
				},
				"gasEstimates": {
					"creation": {
						"codeDepositCost": "751200",
						"executionCost": "infinite",
						"totalCost": "infinite"
					},
					"external": {
						"accountBalance(address)": "2868",
						"addAdmin(address)": "infinite",
						"admin(address)": "2878",
						"owner()": "2537",
						"removeAdmin(address)": "infinite",
						"renounceOwnership()": "infinite",
						"top3(uint256)": "2839",
						"transferOwnership(address)": "infinite",
						"withdraw(uint256)": "infinite"
					},
					"internal": {
						"inTop3(address)": "infinite",
						"sort()": "infinite"
					}
				},
				"methodIdentifiers": {
					"accountBalance(address)": "d294cb0f",
					"addAdmin(address)": "70480275",
					"admin(address)": "63a846f8",
					"owner()": "8da5cb5b",
					"removeAdmin(address)": "1785f53c",
					"renounceOwnership()": "715018a6",
					"top3(uint256)": "c9bf5b15",
					"transferOwnership(address)": "f2fde38b",
					"withdraw(uint256)": "2e1a7d4d"
				}
			},
			"storageLayout": {
				"storage": [
					{
						"astId": 8,
						"contract": "contracts/Bank.sol:Bank",
						"label": "_owner",
						"offset": 0,
						"slot": "0",
						"type": "t_address"
					},
					{
						"astId": 194,
						"contract": "contracts/Bank.sol:Bank",
						"label": "admin",
						"offset": 0,
						"slot": "1",
						"type": "t_mapping(t_address,t_bool)"
					},
					{
						"astId": 198,
						"contract": "contracts/Bank.sol:Bank",
						"label": "accountBalance",
						"offset": 0,
						"slot": "2",
						"type": "t_mapping(t_address,t_uint256)"
					},
					{
						"astId": 202,
						"contract": "contracts/Bank.sol:Bank",
						"label": "top3",
						"offset": 0,
						"slot": "3",
						"type": "t_array(t_address)3_storage"
					}
				],
				"types": {
					"t_address": {
						"encoding": "inplace",
						"label": "address",
						"numberOfBytes": "20"
					},
					"t_array(t_address)3_storage": {
						"base": "t_address",
						"encoding": "inplace",
						"label": "address[3]",
						"numberOfBytes": "96"
					},
					"t_bool": {
						"encoding": "inplace",
						"label": "bool",
						"numberOfBytes": "1"
					},
					"t_mapping(t_address,t_bool)": {
						"encoding": "mapping",
						"key": "t_address",
						"label": "mapping(address => bool)",
						"numberOfBytes": "32",
						"value": "t_bool"
					},
					"t_mapping(t_address,t_uint256)": {
						"encoding": "mapping",
						"key": "t_address",
						"label": "mapping(address => uint256)",
						"numberOfBytes": "32",
						"value": "t_uint256"
					},
					"t_uint256": {
						"encoding": "inplace",
						"label": "uint256",
						"numberOfBytes": "32"
					}
				}
			},
			"userdoc": {
				"kind": "user",
				"methods": {},
				"version": 1
			}
		}
	}
}