{
	"contracts/BigBank.sol": {
		"BigBank": {
			"abi": [
				{
					"inputs": [
						{
							"internalType": "address",
							"name": "",
							"type": "address"
						}
					],
					"name": "accountBalance",
					"outputs": [
						{
							"internalType": "uint256",
							"name": "",
							"type": "uint256"
						}
					],
					"stateMutability": "view",
					"type": "function"
				},
				{
					"inputs": [],
					"name": "owner",
					"outputs": [
						{
							"internalType": "address",
							"name": "",
							"type": "address"
						}
					],
					"stateMutability": "view",
					"type": "function"
				},
				{
					"inputs": [
						{
							"internalType": "uint256",
							"name": "",
							"type": "uint256"
						}
					],
					"name": "top3",
					"outputs": [
						{
							"internalType": "address",
							"name": "",
							"type": "address"
						}
					],
					"stateMutability": "view",
					"type": "function"
				},
				{
					"inputs": [
						{
							"internalType": "address",
							"name": "newOwner",
							"type": "address"
						}
					],
					"name": "transferOwnership",
					"outputs": [],
					"stateMutability": "nonpayable",
					"type": "function"
				},
				{
					"inputs": [
						{
							"internalType": "uint256",
							"name": "amount",
							"type": "uint256"
						}
					],
					"name": "withdraw",
					"outputs": [],
					"stateMutability": "nonpayable",
					"type": "function"
				},
				{
					"stateMutability": "payable",
					"type": "receive"
				}
			],
			"devdoc": {
				"kind": "dev",
				"methods": {},
				"version": 1
			},
			"evm": {
				"assembly": "    /* \"contracts/BigBank.sol\":111:545  contract BigBank is Bank {... */\n  mstore(0x40, 0x80)\n    /* \"contracts/BigBank.sol\":168:176  10 ** 15 */\n  0x038d7ea4c68000\n    /* \"contracts/BigBank.sol\":143:176  uint256 MINIMUM_AMOUNT = 10 ** 15 */\n  0x05\n  sstore\n    /* \"contracts/BigBank.sol\":111:545  contract BigBank is Bank {... */\n  callvalue\n  dup1\n  iszero\n  tag_1\n  jumpi\n  0x00\n  dup1\n  revert\ntag_1:\n  pop\n    /* \"contracts/Ownable.sol\":160:170  msg.sender */\n  caller\n    /* \"contracts/Ownable.sol\":152:157  owner */\n  0x00\n  dup1\n    /* \"contracts/Ownable.sol\":152:170  owner = msg.sender */\n  0x0100\n  exp\n  dup2\n  sload\n  dup2\n  0xffffffffffffffffffffffffffffffffffffffff\n  mul\n  not\n  and\n  swap1\n  dup4\n  0xffffffffffffffffffffffffffffffffffffffff\n  and\n  mul\n  or\n  swap1\n  sstore\n  pop\n    /* \"contracts/BigBank.sol\":111:545  contract BigBank is Bank {... */\n  dataSize(sub_0)\n  dup1\n  dataOffset(sub_0)\n  0x00\n  codecopy\n  0x00\n  return\nstop\n\nsub_0: assembly {\n        /* \"contracts/BigBank.sol\":111:545  contract BigBank is Bank {... */\n      mstore(0x40, 0x80)\n      jumpi(tag_1, lt(calldatasize, 0x04))\n      shr(0xe0, calldataload(0x00))\n      dup1\n      0x2e1a7d4d\n      eq\n      tag_3\n      jumpi\n      dup1\n      0x8da5cb5b\n      eq\n      tag_4\n      jumpi\n      dup1\n      0xc9bf5b15\n      eq\n      tag_5\n      jumpi\n      dup1\n      0xd294cb0f\n      eq\n      tag_6\n      jumpi\n      dup1\n      0xf2fde38b\n      eq\n      tag_7\n      jumpi\n      jump(tag_2)\n    tag_1:\n      jumpi(tag_2, calldatasize)\n        /* \"contracts/BigBank.sol\":414:428  MINIMUM_AMOUNT */\n      sload(0x05)\n        /* \"contracts/BigBank.sol\":264:270  amount */\n      dup1\n        /* \"contracts/BigBank.sol\":251:260  msg.value */\n      callvalue\n        /* \"contracts/BigBank.sol\":251:270  msg.value >= amount */\n      lt\n      iszero\n        /* \"contracts/BigBank.sol\":243:300  require(msg.value >= amount, \"deposit amount too small.\") */\n      tag_10\n      jumpi\n      mload(0x40)\n      0x08c379a000000000000000000000000000000000000000000000000000000000\n      dup2\n      mstore\n      0x04\n      add\n      tag_11\n      swap1\n      tag_12\n      jump\t// in\n    tag_11:\n      mload(0x40)\n      dup1\n      swap2\n      sub\n      swap1\n      revert\n    tag_10:\n        /* \"contracts/BigBank.sol\":495:504  msg.value */\n      callvalue\n        /* \"contracts/BigBank.sol\":465:479  accountBalance */\n      0x01\n        /* \"contracts/BigBank.sol\":465:491  accountBalance[msg.sender] */\n      0x00\n        /* \"contracts/BigBank.sol\":480:490  msg.sender */\n      caller\n        /* \"contracts/BigBank.sol\":465:491  accountBalance[msg.sender] */\n      0xffffffffffffffffffffffffffffffffffffffff\n      and\n      0xffffffffffffffffffffffffffffffffffffffff\n      and\n      dup2\n      mstore\n      0x20\n      add\n      swap1\n      dup2\n      mstore\n      0x20\n      add\n      0x00\n      keccak256\n      0x00\n        /* \"contracts/BigBank.sol\":465:504  accountBalance[msg.sender] += msg.value */\n      dup3\n      dup3\n      sload\n      tag_14\n      swap2\n      swap1\n      tag_15\n      jump\t// in\n    tag_14:\n      swap3\n      pop\n      pop\n      dup2\n      swap1\n      sstore\n      pop\n        /* \"contracts/BigBank.sol\":530:536  sort() */\n      tag_16\n        /* \"contracts/BigBank.sol\":530:534  sort */\n      tag_17\n        /* \"contracts/BigBank.sol\":530:536  sort() */\n      jump\t// in\n    tag_16:\n        /* \"contracts/BigBank.sol\":370:543  receive() external payable amountBiggerThan(MINIMUM_AMOUNT) {... */\n      stop\n        /* \"contracts/BigBank.sol\":111:545  contract BigBank is Bank {... */\n    tag_2:\n      0x00\n      dup1\n      revert\n        /* \"contracts/Bank.sol\":294:503  function withdraw(uint amount) public onlyOwner {... */\n    tag_3:\n      callvalue\n      dup1\n      iszero\n      tag_18\n      jumpi\n      0x00\n      dup1\n      revert\n    tag_18:\n      pop\n      tag_19\n      0x04\n      dup1\n      calldatasize\n      sub\n      dup2\n      add\n      swap1\n      tag_20\n      swap2\n      swap1\n      tag_21\n      jump\t// in\n    tag_20:\n      tag_22\n      jump\t// in\n    tag_19:\n      stop\n        /* \"contracts/Ownable.sol\":101:121  address public owner */\n    tag_4:\n      callvalue\n      dup1\n      iszero\n      tag_23\n      jumpi\n      0x00\n      dup1\n      revert\n    tag_23:\n      pop\n      tag_24\n      tag_25\n      jump\t// in\n    tag_24:\n      mload(0x40)\n      tag_26\n      swap2\n      swap1\n      tag_27\n      jump\t// in\n    tag_26:\n      mload(0x40)\n      dup1\n      swap2\n      sub\n      swap1\n      return\n        /* \"contracts/Bank.sol\":226:248  address[3] public top3 */\n    tag_5:\n      callvalue\n      dup1\n      iszero\n      tag_28\n      jumpi\n      0x00\n      dup1\n      revert\n    tag_28:\n      pop\n      tag_29\n      0x04\n      dup1\n      calldatasize\n      sub\n      dup2\n      add\n      swap1\n      tag_30\n      swap2\n      swap1\n      tag_21\n      jump\t// in\n    tag_30:\n      tag_31\n      jump\t// in\n    tag_29:\n      mload(0x40)\n      tag_32\n      swap2\n      swap1\n      tag_27\n      jump\t// in\n    tag_32:\n      mload(0x40)\n      dup1\n      swap2\n      sub\n      swap1\n      return\n        /* \"contracts/Bank.sol\":146:192  mapping(address => uint) public accountBalance */\n    tag_6:\n      callvalue\n      dup1\n      iszero\n      tag_33\n      jumpi\n      0x00\n      dup1\n      revert\n    tag_33:\n      pop\n      tag_34\n      0x04\n      dup1\n      calldatasize\n      sub\n      dup2\n      add\n      swap1\n      tag_35\n      swap2\n      swap1\n      tag_36\n      jump\t// in\n    tag_35:\n      tag_37\n      jump\t// in\n    tag_34:\n      mload(0x40)\n      tag_38\n      swap2\n      swap1\n      tag_39\n      jump\t// in\n    tag_38:\n      mload(0x40)\n      dup1\n      swap2\n      sub\n      swap1\n      return\n        /* \"contracts/Ownable.sol\":329:426  function transferOwnership(address newOwner) public onlyOwner() {... */\n    tag_7:\n      callvalue\n      dup1\n      iszero\n      tag_40\n      jumpi\n      0x00\n      dup1\n      revert\n    tag_40:\n      pop\n      tag_41\n      0x04\n      dup1\n      calldatasize\n      sub\n      dup2\n      add\n      swap1\n      tag_42\n      swap2\n      swap1\n      tag_36\n      jump\t// in\n    tag_42:\n      tag_43\n      jump\t// in\n    tag_41:\n      stop\n        /* \"contracts/Bank.sol\":525:846  function sort() internal {... */\n    tag_17:\n        /* \"contracts/Bank.sol\":606:620  accountBalance */\n      0x01\n        /* \"contracts/Bank.sol\":606:643  accountBalance[top3[top3.length - 1]] */\n      0x00\n        /* \"contracts/Bank.sol\":621:625  top3 */\n      0x02\n        /* \"contracts/Bank.sol\":640:641  1 */\n      0x01\n        /* \"contracts/Bank.sol\":626:637  top3.length */\n      0x03\n        /* \"contracts/Bank.sol\":626:641  top3.length - 1 */\n      tag_45\n      swap2\n      swap1\n      tag_46\n      jump\t// in\n    tag_45:\n        /* \"contracts/Bank.sol\":621:642  top3[top3.length - 1] */\n      0x03\n      dup2\n      lt\n      tag_47\n      jumpi\n      tag_48\n      tag_49\n      jump\t// in\n    tag_48:\n    tag_47:\n      add\n      0x00\n      swap1\n      sload\n      swap1\n      0x0100\n      exp\n      swap1\n      div\n      0xffffffffffffffffffffffffffffffffffffffff\n      and\n        /* \"contracts/Bank.sol\":606:643  accountBalance[top3[top3.length - 1]] */\n      0xffffffffffffffffffffffffffffffffffffffff\n      and\n      0xffffffffffffffffffffffffffffffffffffffff\n      and\n      dup2\n      mstore\n      0x20\n      add\n      swap1\n      dup2\n      mstore\n      0x20\n      add\n      0x00\n      keccak256\n      sload\n        /* \"contracts/Bank.sol\":577:591  accountBalance */\n      0x01\n        /* \"contracts/Bank.sol\":577:603  accountBalance[msg.sender] */\n      0x00\n        /* \"contracts/Bank.sol\":592:602  msg.sender */\n      caller\n        /* \"contracts/Bank.sol\":577:603  accountBalance[msg.sender] */\n      0xffffffffffffffffffffffffffffffffffffffff\n      and\n      0xffffffffffffffffffffffffffffffffffffffff\n      and\n      dup2\n      mstore\n      0x20\n      add\n      swap1\n      dup2\n      mstore\n      0x20\n      add\n      0x00\n      keccak256\n      sload\n        /* \"contracts/Bank.sol\":577:643  accountBalance[msg.sender] > accountBalance[top3[top3.length - 1]] */\n      gt\n        /* \"contracts/Bank.sol\":560:840  if (... */\n      iszero\n      tag_51\n      jumpi\n        /* \"contracts/Bank.sol\":672:690  inTop3(msg.sender) */\n      tag_52\n        /* \"contracts/Bank.sol\":679:689  msg.sender */\n      caller\n        /* \"contracts/Bank.sol\":672:678  inTop3 */\n      tag_53\n        /* \"contracts/Bank.sol\":672:690  inTop3(msg.sender) */\n      jump\t// in\n    tag_52:\n        /* \"contracts/Bank.sol\":668:830  if (inTop3(msg.sender)) {... */\n      iszero\n      tag_54\n      jumpi\n        /* \"contracts/Bank.sol\":710:717  _sort() */\n      tag_55\n        /* \"contracts/Bank.sol\":710:715  _sort */\n      tag_56\n        /* \"contracts/Bank.sol\":710:717  _sort() */\n      jump\t// in\n    tag_55:\n        /* \"contracts/Bank.sol\":668:830  if (inTop3(msg.sender)) {... */\n      jump(tag_57)\n    tag_54:\n        /* \"contracts/Bank.sol\":780:790  msg.sender */\n      caller\n        /* \"contracts/Bank.sol\":756:760  top3 */\n      0x02\n        /* \"contracts/Bank.sol\":775:776  1 */\n      0x01\n        /* \"contracts/Bank.sol\":761:772  top3.length */\n      0x03\n        /* \"contracts/Bank.sol\":761:776  top3.length - 1 */\n      tag_58\n      swap2\n      swap1\n      tag_46\n      jump\t// in\n    tag_58:\n        /* \"contracts/Bank.sol\":756:777  top3[top3.length - 1] */\n      0x03\n      dup2\n      lt\n      tag_59\n      jumpi\n      tag_60\n      tag_49\n      jump\t// in\n    tag_60:\n    tag_59:\n      add\n      0x00\n        /* \"contracts/Bank.sol\":756:790  top3[top3.length - 1] = msg.sender */\n      0x0100\n      exp\n      dup2\n      sload\n      dup2\n      0xffffffffffffffffffffffffffffffffffffffff\n      mul\n      not\n      and\n      swap1\n      dup4\n      0xffffffffffffffffffffffffffffffffffffffff\n      and\n      mul\n      or\n      swap1\n      sstore\n      pop\n        /* \"contracts/Bank.sol\":808:815  _sort() */\n      tag_62\n        /* \"contracts/Bank.sol\":808:813  _sort */\n      tag_56\n        /* \"contracts/Bank.sol\":808:815  _sort() */\n      jump\t// in\n    tag_62:\n        /* \"contracts/Bank.sol\":668:830  if (inTop3(msg.sender)) {... */\n    tag_57:\n        /* \"contracts/Bank.sol\":560:840  if (... */\n    tag_51:\n        /* \"contracts/Bank.sol\":525:846  function sort() internal {... */\n      jump\t// out\n        /* \"contracts/Bank.sol\":294:503  function withdraw(uint amount) public onlyOwner {... */\n    tag_22:\n        /* \"contracts/Ownable.sol\":236:241  owner */\n      0x00\n      dup1\n      sload\n      swap1\n      0x0100\n      exp\n      swap1\n      div\n      0xffffffffffffffffffffffffffffffffffffffff\n      and\n        /* \"contracts/Ownable.sol\":222:241  msg.sender == owner */\n      0xffffffffffffffffffffffffffffffffffffffff\n      and\n        /* \"contracts/Ownable.sol\":222:232  msg.sender */\n      caller\n        /* \"contracts/Ownable.sol\":222:241  msg.sender == owner */\n      0xffffffffffffffffffffffffffffffffffffffff\n      and\n      eq\n        /* \"contracts/Ownable.sol\":214:256  require(msg.sender == owner, \"no access.\") */\n      tag_64\n      jumpi\n      mload(0x40)\n      0x08c379a000000000000000000000000000000000000000000000000000000000\n      dup2\n      mstore\n      0x04\n      add\n      tag_65\n      swap1\n      tag_66\n      jump\t// in\n    tag_65:\n      mload(0x40)\n      dup1\n      swap2\n      sub\n      swap1\n      revert\n    tag_64:\n        /* \"contracts/Bank.sol\":370:391  address(this).balance */\n      selfbalance\n        /* \"contracts/Bank.sol\":360:366  amount */\n      dup2\n        /* \"contracts/Bank.sol\":360:391  amount <= address(this).balance */\n      gt\n      iszero\n        /* \"contracts/Bank.sol\":352:417  require(amount <= address(this).balance, \"insufficient balance!\") */\n      tag_68\n      jumpi\n      mload(0x40)\n      0x08c379a000000000000000000000000000000000000000000000000000000000\n      dup2\n      mstore\n      0x04\n      add\n      tag_69\n      swap1\n      tag_70\n      jump\t// in\n    tag_69:\n      mload(0x40)\n      dup1\n      swap2\n      sub\n      swap1\n      revert\n    tag_68:\n        /* \"contracts/Bank.sol\":427:445  address payable to */\n      0x00\n        /* \"contracts/Bank.sol\":456:466  msg.sender */\n      caller\n        /* \"contracts/Bank.sol\":427:467  address payable to = payable(msg.sender) */\n      swap1\n      pop\n        /* \"contracts/Bank.sol\":477:479  to */\n      dup1\n        /* \"contracts/Bank.sol\":477:488  to.transfer */\n      0xffffffffffffffffffffffffffffffffffffffff\n      and\n        /* \"contracts/Bank.sol\":477:496  to.transfer(amount) */\n      0x08fc\n        /* \"contracts/Bank.sol\":489:495  amount */\n      dup4\n        /* \"contracts/Bank.sol\":477:496  to.transfer(amount) */\n      swap1\n      dup2\n      iszero\n      mul\n      swap1\n      mload(0x40)\n      0x00\n      mload(0x40)\n      dup1\n      dup4\n      sub\n      dup2\n      dup6\n      dup9\n      dup9\n      call\n      swap4\n      pop\n      pop\n      pop\n      pop\n      iszero\n      dup1\n      iszero\n      tag_72\n      jumpi\n      returndatasize\n      0x00\n      dup1\n      returndatacopy\n      revert(0x00, returndatasize)\n    tag_72:\n      pop\n        /* \"contracts/Bank.sol\":342:503  {... */\n      pop\n        /* \"contracts/Bank.sol\":294:503  function withdraw(uint amount) public onlyOwner {... */\n      pop\n      jump\t// out\n        /* \"contracts/Ownable.sol\":101:121  address public owner */\n    tag_25:\n      0x00\n      dup1\n      sload\n      swap1\n      0x0100\n      exp\n      swap1\n      div\n      0xffffffffffffffffffffffffffffffffffffffff\n      and\n      dup2\n      jump\t// out\n        /* \"contracts/Bank.sol\":226:248  address[3] public top3 */\n    tag_31:\n      0x02\n      dup2\n      0x03\n      dup2\n      lt\n      tag_73\n      jumpi\n      0x00\n      dup1\n      revert\n    tag_73:\n      add\n      0x00\n      swap2\n      pop\n      sload\n      swap1\n      0x0100\n      exp\n      swap1\n      div\n      0xffffffffffffffffffffffffffffffffffffffff\n      and\n      dup2\n      jump\t// out\n        /* \"contracts/Bank.sol\":146:192  mapping(address => uint) public accountBalance */\n    tag_37:\n      mstore(0x20, 0x01)\n      dup1\n      0x00\n      mstore\n      keccak256(0x00, 0x40)\n      0x00\n      swap2\n      pop\n      swap1\n      pop\n      sload\n      dup2\n      jump\t// out\n        /* \"contracts/Ownable.sol\":329:426  function transferOwnership(address newOwner) public onlyOwner() {... */\n    tag_43:\n        /* \"contracts/Ownable.sol\":236:241  owner */\n      0x00\n      dup1\n      sload\n      swap1\n      0x0100\n      exp\n      swap1\n      div\n      0xffffffffffffffffffffffffffffffffffffffff\n      and\n        /* \"contracts/Ownable.sol\":222:241  msg.sender == owner */\n      0xffffffffffffffffffffffffffffffffffffffff\n      and\n        /* \"contracts/Ownable.sol\":222:232  msg.sender */\n      caller\n        /* \"contracts/Ownable.sol\":222:241  msg.sender == owner */\n      0xffffffffffffffffffffffffffffffffffffffff\n      and\n      eq\n        /* \"contracts/Ownable.sol\":214:256  require(msg.sender == owner, \"no access.\") */\n      tag_76\n      jumpi\n      mload(0x40)\n      0x08c379a000000000000000000000000000000000000000000000000000000000\n      dup2\n      mstore\n      0x04\n      add\n      tag_77\n      swap1\n      tag_66\n      jump\t// in\n    tag_77:\n      mload(0x40)\n      dup1\n      swap2\n      sub\n      swap1\n      revert\n    tag_76:\n        /* \"contracts/Ownable.sol\":411:419  newOwner */\n      dup1\n        /* \"contracts/Ownable.sol\":403:408  owner */\n      0x00\n      dup1\n        /* \"contracts/Ownable.sol\":403:419  owner = newOwner */\n      0x0100\n      exp\n      dup2\n      sload\n      dup2\n      0xffffffffffffffffffffffffffffffffffffffff\n      mul\n      not\n      and\n      swap1\n      dup4\n      0xffffffffffffffffffffffffffffffffffffffff\n      and\n      mul\n      or\n      swap1\n      sstore\n      pop\n        /* \"contracts/Ownable.sol\":329:426  function transferOwnership(address newOwner) public onlyOwner() {... */\n      pop\n      jump\t// out\n        /* \"contracts/Bank.sol\":873:1097  function inTop3(address addr) private view returns (bool) {... */\n    tag_53:\n        /* \"contracts/Bank.sol\":925:929  bool */\n      0x00\n        /* \"contracts/Bank.sol\":946:952  uint i */\n      dup1\n        /* \"contracts/Bank.sol\":955:956  0 */\n      0x00\n        /* \"contracts/Bank.sol\":946:956  uint i = 0 */\n      swap1\n      pop\n        /* \"contracts/Bank.sol\":941:1069  for (uint i = 0; i < top3.length; i++) {... */\n    tag_80:\n        /* \"contracts/Bank.sol\":962:973  top3.length */\n      0x03\n        /* \"contracts/Bank.sol\":958:959  i */\n      dup2\n        /* \"contracts/Bank.sol\":958:973  i < top3.length */\n      lt\n        /* \"contracts/Bank.sol\":941:1069  for (uint i = 0; i < top3.length; i++) {... */\n      iszero\n      tag_81\n      jumpi\n        /* \"contracts/Bank.sol\":1006:1010  top3 */\n      0x02\n        /* \"contracts/Bank.sol\":1011:1012  i */\n      dup2\n        /* \"contracts/Bank.sol\":1006:1013  top3[i] */\n      0x03\n      dup2\n      lt\n      tag_83\n      jumpi\n      tag_84\n      tag_49\n      jump\t// in\n    tag_84:\n    tag_83:\n      add\n      0x00\n      swap1\n      sload\n      swap1\n      0x0100\n      exp\n      swap1\n      div\n      0xffffffffffffffffffffffffffffffffffffffff\n      and\n        /* \"contracts/Bank.sol\":998:1013  addr == top3[i] */\n      0xffffffffffffffffffffffffffffffffffffffff\n      and\n        /* \"contracts/Bank.sol\":998:1002  addr */\n      dup4\n        /* \"contracts/Bank.sol\":998:1013  addr == top3[i] */\n      0xffffffffffffffffffffffffffffffffffffffff\n      and\n      sub\n        /* \"contracts/Bank.sol\":994:1059  if (addr == top3[i]) {... */\n      tag_86\n      jumpi\n        /* \"contracts/Bank.sol\":1040:1044  true */\n      0x01\n        /* \"contracts/Bank.sol\":1033:1044  return true */\n      swap2\n      pop\n      pop\n      jump(tag_79)\n        /* \"contracts/Bank.sol\":994:1059  if (addr == top3[i]) {... */\n    tag_86:\n        /* \"contracts/Bank.sol\":975:978  i++ */\n      dup1\n      dup1\n      0x01\n      add\n      swap2\n      pop\n      pop\n        /* \"contracts/Bank.sol\":941:1069  for (uint i = 0; i < top3.length; i++) {... */\n      jump(tag_80)\n    tag_81:\n      pop\n        /* \"contracts/Bank.sol\":1085:1090  false */\n      0x00\n        /* \"contracts/Bank.sol\":1078:1090  return false */\n      swap1\n      pop\n        /* \"contracts/Bank.sol\":873:1097  function inTop3(address addr) private view returns (bool) {... */\n    tag_79:\n      swap2\n      swap1\n      pop\n      jump\t// out\n        /* \"contracts/Bank.sol\":1103:1401  function _sort() private {... */\n    tag_56:\n        /* \"contracts/Bank.sol\":1143:1149  uint i */\n      0x00\n        /* \"contracts/Bank.sol\":1166:1167  1 */\n      0x01\n        /* \"contracts/Bank.sol\":1152:1163  top3.length */\n      0x03\n        /* \"contracts/Bank.sol\":1152:1167  top3.length - 1 */\n      tag_91\n      swap2\n      swap1\n      tag_46\n      jump\t// in\n    tag_91:\n        /* \"contracts/Bank.sol\":1143:1167  uint i = top3.length - 1 */\n      swap1\n      pop\n        /* \"contracts/Bank.sol\":1138:1395  for (uint i = top3.length - 1; i >= 1; i--) {... */\n    tag_88:\n        /* \"contracts/Bank.sol\":1174:1175  1 */\n      0x01\n        /* \"contracts/Bank.sol\":1169:1170  i */\n      dup2\n        /* \"contracts/Bank.sol\":1169:1175  i >= 1 */\n      lt\n        /* \"contracts/Bank.sol\":1138:1395  for (uint i = top3.length - 1; i >= 1; i--) {... */\n      tag_89\n      jumpi\n        /* \"contracts/Bank.sol\":1226:1240  accountBalance */\n      0x01\n        /* \"contracts/Bank.sol\":1226:1253  accountBalance[top3[i - 1]] */\n      0x00\n        /* \"contracts/Bank.sol\":1241:1245  top3 */\n      0x02\n        /* \"contracts/Bank.sol\":1250:1251  1 */\n      0x01\n        /* \"contracts/Bank.sol\":1246:1247  i */\n      dup5\n        /* \"contracts/Bank.sol\":1246:1251  i - 1 */\n      tag_92\n      swap2\n      swap1\n      tag_46\n      jump\t// in\n    tag_92:\n        /* \"contracts/Bank.sol\":1241:1252  top3[i - 1] */\n      0x03\n      dup2\n      lt\n      tag_93\n      jumpi\n      tag_94\n      tag_49\n      jump\t// in\n    tag_94:\n    tag_93:\n      add\n      0x00\n      swap1\n      sload\n      swap1\n      0x0100\n      exp\n      swap1\n      div\n      0xffffffffffffffffffffffffffffffffffffffff\n      and\n        /* \"contracts/Bank.sol\":1226:1253  accountBalance[top3[i - 1]] */\n      0xffffffffffffffffffffffffffffffffffffffff\n      and\n      0xffffffffffffffffffffffffffffffffffffffff\n      and\n      dup2\n      mstore\n      0x20\n      add\n      swap1\n      dup2\n      mstore\n      0x20\n      add\n      0x00\n      keccak256\n      sload\n        /* \"contracts/Bank.sol\":1200:1214  accountBalance */\n      0x01\n        /* \"contracts/Bank.sol\":1200:1223  accountBalance[top3[i]] */\n      0x00\n        /* \"contracts/Bank.sol\":1215:1219  top3 */\n      0x02\n        /* \"contracts/Bank.sol\":1220:1221  i */\n      dup5\n        /* \"contracts/Bank.sol\":1215:1222  top3[i] */\n      0x03\n      dup2\n      lt\n      tag_96\n      jumpi\n      tag_97\n      tag_49\n      jump\t// in\n    tag_97:\n    tag_96:\n      add\n      0x00\n      swap1\n      sload\n      swap1\n      0x0100\n      exp\n      swap1\n      div\n      0xffffffffffffffffffffffffffffffffffffffff\n      and\n        /* \"contracts/Bank.sol\":1200:1223  accountBalance[top3[i]] */\n      0xffffffffffffffffffffffffffffffffffffffff\n      and\n      0xffffffffffffffffffffffffffffffffffffffff\n      and\n      dup2\n      mstore\n      0x20\n      add\n      swap1\n      dup2\n      mstore\n      0x20\n      add\n      0x00\n      keccak256\n      sload\n        /* \"contracts/Bank.sol\":1200:1253  accountBalance[top3[i]] > accountBalance[top3[i - 1]] */\n      gt\n        /* \"contracts/Bank.sol\":1196:1385  if (accountBalance[top3[i]] > accountBalance[top3[i - 1]]) {... */\n      iszero\n      tag_99\n      jumpi\n        /* \"contracts/Bank.sol\":1273:1285  address temp */\n      0x00\n        /* \"contracts/Bank.sol\":1288:1292  top3 */\n      0x02\n        /* \"contracts/Bank.sol\":1297:1298  1 */\n      0x01\n        /* \"contracts/Bank.sol\":1293:1294  i */\n      dup4\n        /* \"contracts/Bank.sol\":1293:1298  i - 1 */\n      tag_100\n      swap2\n      swap1\n      tag_46\n      jump\t// in\n    tag_100:\n        /* \"contracts/Bank.sol\":1288:1299  top3[i - 1] */\n      0x03\n      dup2\n      lt\n      tag_101\n      jumpi\n      tag_102\n      tag_49\n      jump\t// in\n    tag_102:\n    tag_101:\n      add\n      0x00\n      swap1\n      sload\n      swap1\n      0x0100\n      exp\n      swap1\n      div\n      0xffffffffffffffffffffffffffffffffffffffff\n      and\n        /* \"contracts/Bank.sol\":1273:1299  address temp = top3[i - 1] */\n      swap1\n      pop\n        /* \"contracts/Bank.sol\":1331:1335  top3 */\n      0x02\n        /* \"contracts/Bank.sol\":1336:1337  i */\n      dup3\n        /* \"contracts/Bank.sol\":1331:1338  top3[i] */\n      0x03\n      dup2\n      lt\n      tag_104\n      jumpi\n      tag_105\n      tag_49\n      jump\t// in\n    tag_105:\n    tag_104:\n      add\n      0x00\n      swap1\n      sload\n      swap1\n      0x0100\n      exp\n      swap1\n      div\n      0xffffffffffffffffffffffffffffffffffffffff\n      and\n        /* \"contracts/Bank.sol\":1317:1321  top3 */\n      0x02\n        /* \"contracts/Bank.sol\":1326:1327  1 */\n      0x01\n        /* \"contracts/Bank.sol\":1322:1323  i */\n      dup5\n        /* \"contracts/Bank.sol\":1322:1327  i - 1 */\n      tag_107\n      swap2\n      swap1\n      tag_46\n      jump\t// in\n    tag_107:\n        /* \"contracts/Bank.sol\":1317:1328  top3[i - 1] */\n      0x03\n      dup2\n      lt\n      tag_108\n      jumpi\n      tag_109\n      tag_49\n      jump\t// in\n    tag_109:\n    tag_108:\n      add\n      0x00\n        /* \"contracts/Bank.sol\":1317:1338  top3[i - 1] = top3[i] */\n      0x0100\n      exp\n      dup2\n      sload\n      dup2\n      0xffffffffffffffffffffffffffffffffffffffff\n      mul\n      not\n      and\n      swap1\n      dup4\n      0xffffffffffffffffffffffffffffffffffffffff\n      and\n      mul\n      or\n      swap1\n      sstore\n      pop\n        /* \"contracts/Bank.sol\":1366:1370  temp */\n      dup1\n        /* \"contracts/Bank.sol\":1356:1360  top3 */\n      0x02\n        /* \"contracts/Bank.sol\":1361:1362  i */\n      dup4\n        /* \"contracts/Bank.sol\":1356:1363  top3[i] */\n      0x03\n      dup2\n      lt\n      tag_111\n      jumpi\n      tag_112\n      tag_49\n      jump\t// in\n    tag_112:\n    tag_111:\n      add\n      0x00\n        /* \"contracts/Bank.sol\":1356:1370  top3[i] = temp */\n      0x0100\n      exp\n      dup2\n      sload\n      dup2\n      0xffffffffffffffffffffffffffffffffffffffff\n      mul\n      not\n      and\n      swap1\n      dup4\n      0xffffffffffffffffffffffffffffffffffffffff\n      and\n      mul\n      or\n      swap1\n      sstore\n      pop\n        /* \"contracts/Bank.sol\":1255:1385  {... */\n      pop\n        /* \"contracts/Bank.sol\":1196:1385  if (accountBalance[top3[i]] > accountBalance[top3[i - 1]]) {... */\n    tag_99:\n        /* \"contracts/Bank.sol\":1177:1180  i-- */\n      dup1\n      dup1\n      tag_114\n      swap1\n      tag_115\n      jump\t// in\n    tag_114:\n      swap2\n      pop\n      pop\n        /* \"contracts/Bank.sol\":1138:1395  for (uint i = top3.length - 1; i >= 1; i--) {... */\n      jump(tag_88)\n    tag_89:\n      pop\n        /* \"contracts/Bank.sol\":1103:1401  function _sort() private {... */\n      jump\t// out\n        /* \"#utility.yul\":7:176   */\n    tag_116:\n        /* \"#utility.yul\":91:102   */\n      0x00\n        /* \"#utility.yul\":125:131   */\n      dup3\n        /* \"#utility.yul\":120:123   */\n      dup3\n        /* \"#utility.yul\":113:132   */\n      mstore\n        /* \"#utility.yul\":165:169   */\n      0x20\n        /* \"#utility.yul\":160:163   */\n      dup3\n        /* \"#utility.yul\":156:170   */\n      add\n        /* \"#utility.yul\":141:170   */\n      swap1\n      pop\n        /* \"#utility.yul\":7:176   */\n      swap3\n      swap2\n      pop\n      pop\n      jump\t// out\n        /* \"#utility.yul\":182:357   */\n    tag_117:\n        /* \"#utility.yul\":322:349   */\n      0x6465706f73697420616d6f756e7420746f6f20736d616c6c2e00000000000000\n        /* \"#utility.yul\":318:319   */\n      0x00\n        /* \"#utility.yul\":310:316   */\n      dup3\n        /* \"#utility.yul\":306:320   */\n      add\n        /* \"#utility.yul\":299:350   */\n      mstore\n        /* \"#utility.yul\":182:357   */\n      pop\n      jump\t// out\n        /* \"#utility.yul\":363:729   */\n    tag_118:\n        /* \"#utility.yul\":505:508   */\n      0x00\n        /* \"#utility.yul\":526:593   */\n      tag_140\n        /* \"#utility.yul\":590:592   */\n      0x19\n        /* \"#utility.yul\":585:588   */\n      dup4\n        /* \"#utility.yul\":526:593   */\n      tag_116\n      jump\t// in\n    tag_140:\n        /* \"#utility.yul\":519:593   */\n      swap2\n      pop\n        /* \"#utility.yul\":602:695   */\n      tag_141\n        /* \"#utility.yul\":691:694   */\n      dup3\n        /* \"#utility.yul\":602:695   */\n      tag_117\n      jump\t// in\n    tag_141:\n        /* \"#utility.yul\":720:722   */\n      0x20\n        /* \"#utility.yul\":715:718   */\n      dup3\n        /* \"#utility.yul\":711:723   */\n      add\n        /* \"#utility.yul\":704:723   */\n      swap1\n      pop\n        /* \"#utility.yul\":363:729   */\n      swap2\n      swap1\n      pop\n      jump\t// out\n        /* \"#utility.yul\":735:1154   */\n    tag_12:\n        /* \"#utility.yul\":901:905   */\n      0x00\n        /* \"#utility.yul\":939:941   */\n      0x20\n        /* \"#utility.yul\":928:937   */\n      dup3\n        /* \"#utility.yul\":924:942   */\n      add\n        /* \"#utility.yul\":916:942   */\n      swap1\n      pop\n        /* \"#utility.yul\":988:997   */\n      dup2\n        /* \"#utility.yul\":982:986   */\n      dup2\n        /* \"#utility.yul\":978:998   */\n      sub\n        /* \"#utility.yul\":974:975   */\n      0x00\n        /* \"#utility.yul\":963:972   */\n      dup4\n        /* \"#utility.yul\":959:976   */\n      add\n        /* \"#utility.yul\":952:999   */\n      mstore\n        /* \"#utility.yul\":1016:1147   */\n      tag_143\n        /* \"#utility.yul\":1142:1146   */\n      dup2\n        /* \"#utility.yul\":1016:1147   */\n      tag_118\n      jump\t// in\n    tag_143:\n        /* \"#utility.yul\":1008:1147   */\n      swap1\n      pop\n        /* \"#utility.yul\":735:1154   */\n      swap2\n      swap1\n      pop\n      jump\t// out\n        /* \"#utility.yul\":1160:1237   */\n    tag_119:\n        /* \"#utility.yul\":1197:1204   */\n      0x00\n        /* \"#utility.yul\":1226:1231   */\n      dup2\n        /* \"#utility.yul\":1215:1231   */\n      swap1\n      pop\n        /* \"#utility.yul\":1160:1237   */\n      swap2\n      swap1\n      pop\n      jump\t// out\n        /* \"#utility.yul\":1243:1423   */\n    tag_120:\n        /* \"#utility.yul\":1291:1368   */\n      0x4e487b7100000000000000000000000000000000000000000000000000000000\n        /* \"#utility.yul\":1288:1289   */\n      0x00\n        /* \"#utility.yul\":1281:1369   */\n      mstore\n        /* \"#utility.yul\":1388:1392   */\n      0x11\n        /* \"#utility.yul\":1385:1386   */\n      0x04\n        /* \"#utility.yul\":1378:1393   */\n      mstore\n        /* \"#utility.yul\":1412:1416   */\n      0x24\n        /* \"#utility.yul\":1409:1410   */\n      0x00\n        /* \"#utility.yul\":1402:1417   */\n      revert\n        /* \"#utility.yul\":1429:1620   */\n    tag_15:\n        /* \"#utility.yul\":1469:1472   */\n      0x00\n        /* \"#utility.yul\":1488:1508   */\n      tag_147\n        /* \"#utility.yul\":1506:1507   */\n      dup3\n        /* \"#utility.yul\":1488:1508   */\n      tag_119\n      jump\t// in\n    tag_147:\n        /* \"#utility.yul\":1483:1508   */\n      swap2\n      pop\n        /* \"#utility.yul\":1522:1542   */\n      tag_148\n        /* \"#utility.yul\":1540:1541   */\n      dup4\n        /* \"#utility.yul\":1522:1542   */\n      tag_119\n      jump\t// in\n    tag_148:\n        /* \"#utility.yul\":1517:1542   */\n      swap3\n      pop\n        /* \"#utility.yul\":1565:1566   */\n      dup3\n        /* \"#utility.yul\":1562:1563   */\n      dup3\n        /* \"#utility.yul\":1558:1567   */\n      add\n        /* \"#utility.yul\":1551:1567   */\n      swap1\n      pop\n        /* \"#utility.yul\":1586:1589   */\n      dup1\n        /* \"#utility.yul\":1583:1584   */\n      dup3\n        /* \"#utility.yul\":1580:1590   */\n      gt\n        /* \"#utility.yul\":1577:1613   */\n      iszero\n      tag_149\n      jumpi\n        /* \"#utility.yul\":1593:1611   */\n      tag_150\n      tag_120\n      jump\t// in\n    tag_150:\n        /* \"#utility.yul\":1577:1613   */\n    tag_149:\n        /* \"#utility.yul\":1429:1620   */\n      swap3\n      swap2\n      pop\n      pop\n      jump\t// out\n        /* \"#utility.yul\":1707:1824   */\n    tag_122:\n        /* \"#utility.yul\":1816:1817   */\n      0x00\n        /* \"#utility.yul\":1813:1814   */\n      dup1\n        /* \"#utility.yul\":1806:1818   */\n      revert\n        /* \"#utility.yul\":1953:2075   */\n    tag_124:\n        /* \"#utility.yul\":2026:2050   */\n      tag_155\n        /* \"#utility.yul\":2044:2049   */\n      dup2\n        /* \"#utility.yul\":2026:2050   */\n      tag_119\n      jump\t// in\n    tag_155:\n        /* \"#utility.yul\":2019:2024   */\n      dup2\n        /* \"#utility.yul\":2016:2051   */\n      eq\n        /* \"#utility.yul\":2006:2069   */\n      tag_156\n      jumpi\n        /* \"#utility.yul\":2065:2066   */\n      0x00\n        /* \"#utility.yul\":2062:2063   */\n      dup1\n        /* \"#utility.yul\":2055:2067   */\n      revert\n        /* \"#utility.yul\":2006:2069   */\n    tag_156:\n        /* \"#utility.yul\":1953:2075   */\n      pop\n      jump\t// out\n        /* \"#utility.yul\":2081:2220   */\n    tag_125:\n        /* \"#utility.yul\":2127:2132   */\n      0x00\n        /* \"#utility.yul\":2165:2171   */\n      dup2\n        /* \"#utility.yul\":2152:2172   */\n      calldataload\n        /* \"#utility.yul\":2143:2172   */\n      swap1\n      pop\n        /* \"#utility.yul\":2181:2214   */\n      tag_158\n        /* \"#utility.yul\":2208:2213   */\n      dup2\n        /* \"#utility.yul\":2181:2214   */\n      tag_124\n      jump\t// in\n    tag_158:\n        /* \"#utility.yul\":2081:2220   */\n      swap3\n      swap2\n      pop\n      pop\n      jump\t// out\n        /* \"#utility.yul\":2226:2555   */\n    tag_21:\n        /* \"#utility.yul\":2285:2291   */\n      0x00\n        /* \"#utility.yul\":2334:2336   */\n      0x20\n        /* \"#utility.yul\":2322:2331   */\n      dup3\n        /* \"#utility.yul\":2313:2320   */\n      dup5\n        /* \"#utility.yul\":2309:2332   */\n      sub\n        /* \"#utility.yul\":2305:2337   */\n      slt\n        /* \"#utility.yul\":2302:2421   */\n      iszero\n      tag_160\n      jumpi\n        /* \"#utility.yul\":2340:2419   */\n      tag_161\n      tag_122\n      jump\t// in\n    tag_161:\n        /* \"#utility.yul\":2302:2421   */\n    tag_160:\n        /* \"#utility.yul\":2460:2461   */\n      0x00\n        /* \"#utility.yul\":2485:2538   */\n      tag_162\n        /* \"#utility.yul\":2530:2537   */\n      dup5\n        /* \"#utility.yul\":2521:2527   */\n      dup3\n        /* \"#utility.yul\":2510:2519   */\n      dup6\n        /* \"#utility.yul\":2506:2528   */\n      add\n        /* \"#utility.yul\":2485:2538   */\n      tag_125\n      jump\t// in\n    tag_162:\n        /* \"#utility.yul\":2475:2538   */\n      swap2\n      pop\n        /* \"#utility.yul\":2431:2548   */\n      pop\n        /* \"#utility.yul\":2226:2555   */\n      swap3\n      swap2\n      pop\n      pop\n      jump\t// out\n        /* \"#utility.yul\":2561:2687   */\n    tag_126:\n        /* \"#utility.yul\":2598:2605   */\n      0x00\n        /* \"#utility.yul\":2638:2680   */\n      0xffffffffffffffffffffffffffffffffffffffff\n        /* \"#utility.yul\":2631:2636   */\n      dup3\n        /* \"#utility.yul\":2627:2681   */\n      and\n        /* \"#utility.yul\":2616:2681   */\n      swap1\n      pop\n        /* \"#utility.yul\":2561:2687   */\n      swap2\n      swap1\n      pop\n      jump\t// out\n        /* \"#utility.yul\":2693:2789   */\n    tag_127:\n        /* \"#utility.yul\":2730:2737   */\n      0x00\n        /* \"#utility.yul\":2759:2783   */\n      tag_165\n        /* \"#utility.yul\":2777:2782   */\n      dup3\n        /* \"#utility.yul\":2759:2783   */\n      tag_126\n      jump\t// in\n    tag_165:\n        /* \"#utility.yul\":2748:2783   */\n      swap1\n      pop\n        /* \"#utility.yul\":2693:2789   */\n      swap2\n      swap1\n      pop\n      jump\t// out\n        /* \"#utility.yul\":2795:2913   */\n    tag_128:\n        /* \"#utility.yul\":2882:2906   */\n      tag_167\n        /* \"#utility.yul\":2900:2905   */\n      dup2\n        /* \"#utility.yul\":2882:2906   */\n      tag_127\n      jump\t// in\n    tag_167:\n        /* \"#utility.yul\":2877:2880   */\n      dup3\n        /* \"#utility.yul\":2870:2907   */\n      mstore\n        /* \"#utility.yul\":2795:2913   */\n      pop\n      pop\n      jump\t// out\n        /* \"#utility.yul\":2919:3141   */\n    tag_27:\n        /* \"#utility.yul\":3012:3016   */\n      0x00\n        /* \"#utility.yul\":3050:3052   */\n      0x20\n        /* \"#utility.yul\":3039:3048   */\n      dup3\n        /* \"#utility.yul\":3035:3053   */\n      add\n        /* \"#utility.yul\":3027:3053   */\n      swap1\n      pop\n        /* \"#utility.yul\":3063:3134   */\n      tag_169\n        /* \"#utility.yul\":3131:3132   */\n      0x00\n        /* \"#utility.yul\":3120:3129   */\n      dup4\n        /* \"#utility.yul\":3116:3133   */\n      add\n        /* \"#utility.yul\":3107:3113   */\n      dup5\n        /* \"#utility.yul\":3063:3134   */\n      tag_128\n      jump\t// in\n    tag_169:\n        /* \"#utility.yul\":2919:3141   */\n      swap3\n      swap2\n      pop\n      pop\n      jump\t// out\n        /* \"#utility.yul\":3147:3269   */\n    tag_129:\n        /* \"#utility.yul\":3220:3244   */\n      tag_171\n        /* \"#utility.yul\":3238:3243   */\n      dup2\n        /* \"#utility.yul\":3220:3244   */\n      tag_127\n      jump\t// in\n    tag_171:\n        /* \"#utility.yul\":3213:3218   */\n      dup2\n        /* \"#utility.yul\":3210:3245   */\n      eq\n        /* \"#utility.yul\":3200:3263   */\n      tag_172\n      jumpi\n        /* \"#utility.yul\":3259:3260   */\n      0x00\n        /* \"#utility.yul\":3256:3257   */\n      dup1\n        /* \"#utility.yul\":3249:3261   */\n      revert\n        /* \"#utility.yul\":3200:3263   */\n    tag_172:\n        /* \"#utility.yul\":3147:3269   */\n      pop\n      jump\t// out\n        /* \"#utility.yul\":3275:3414   */\n    tag_130:\n        /* \"#utility.yul\":3321:3326   */\n      0x00\n        /* \"#utility.yul\":3359:3365   */\n      dup2\n        /* \"#utility.yul\":3346:3366   */\n      calldataload\n        /* \"#utility.yul\":3337:3366   */\n      swap1\n      pop\n        /* \"#utility.yul\":3375:3408   */\n      tag_174\n        /* \"#utility.yul\":3402:3407   */\n      dup2\n        /* \"#utility.yul\":3375:3408   */\n      tag_129\n      jump\t// in\n    tag_174:\n        /* \"#utility.yul\":3275:3414   */\n      swap3\n      swap2\n      pop\n      pop\n      jump\t// out\n        /* \"#utility.yul\":3420:3749   */\n    tag_36:\n        /* \"#utility.yul\":3479:3485   */\n      0x00\n        /* \"#utility.yul\":3528:3530   */\n      0x20\n        /* \"#utility.yul\":3516:3525   */\n      dup3\n        /* \"#utility.yul\":3507:3514   */\n      dup5\n        /* \"#utility.yul\":3503:3526   */\n      sub\n        /* \"#utility.yul\":3499:3531   */\n      slt\n        /* \"#utility.yul\":3496:3615   */\n      iszero\n      tag_176\n      jumpi\n        /* \"#utility.yul\":3534:3613   */\n      tag_177\n      tag_122\n      jump\t// in\n    tag_177:\n        /* \"#utility.yul\":3496:3615   */\n    tag_176:\n        /* \"#utility.yul\":3654:3655   */\n      0x00\n        /* \"#utility.yul\":3679:3732   */\n      tag_178\n        /* \"#utility.yul\":3724:3731   */\n      dup5\n        /* \"#utility.yul\":3715:3721   */\n      dup3\n        /* \"#utility.yul\":3704:3713   */\n      dup6\n        /* \"#utility.yul\":3700:3722   */\n      add\n        /* \"#utility.yul\":3679:3732   */\n      tag_130\n      jump\t// in\n    tag_178:\n        /* \"#utility.yul\":3669:3732   */\n      swap2\n      pop\n        /* \"#utility.yul\":3625:3742   */\n      pop\n        /* \"#utility.yul\":3420:3749   */\n      swap3\n      swap2\n      pop\n      pop\n      jump\t// out\n        /* \"#utility.yul\":3755:3873   */\n    tag_131:\n        /* \"#utility.yul\":3842:3866   */\n      tag_180\n        /* \"#utility.yul\":3860:3865   */\n      dup2\n        /* \"#utility.yul\":3842:3866   */\n      tag_119\n      jump\t// in\n    tag_180:\n        /* \"#utility.yul\":3837:3840   */\n      dup3\n        /* \"#utility.yul\":3830:3867   */\n      mstore\n        /* \"#utility.yul\":3755:3873   */\n      pop\n      pop\n      jump\t// out\n        /* \"#utility.yul\":3879:4101   */\n    tag_39:\n        /* \"#utility.yul\":3972:3976   */\n      0x00\n        /* \"#utility.yul\":4010:4012   */\n      0x20\n        /* \"#utility.yul\":3999:4008   */\n      dup3\n        /* \"#utility.yul\":3995:4013   */\n      add\n        /* \"#utility.yul\":3987:4013   */\n      swap1\n      pop\n        /* \"#utility.yul\":4023:4094   */\n      tag_182\n        /* \"#utility.yul\":4091:4092   */\n      0x00\n        /* \"#utility.yul\":4080:4089   */\n      dup4\n        /* \"#utility.yul\":4076:4093   */\n      add\n        /* \"#utility.yul\":4067:4073   */\n      dup5\n        /* \"#utility.yul\":4023:4094   */\n      tag_131\n      jump\t// in\n    tag_182:\n        /* \"#utility.yul\":3879:4101   */\n      swap3\n      swap2\n      pop\n      pop\n      jump\t// out\n        /* \"#utility.yul\":4107:4301   */\n    tag_46:\n        /* \"#utility.yul\":4147:4151   */\n      0x00\n        /* \"#utility.yul\":4167:4187   */\n      tag_184\n        /* \"#utility.yul\":4185:4186   */\n      dup3\n        /* \"#utility.yul\":4167:4187   */\n      tag_119\n      jump\t// in\n    tag_184:\n        /* \"#utility.yul\":4162:4187   */\n      swap2\n      pop\n        /* \"#utility.yul\":4201:4221   */\n      tag_185\n        /* \"#utility.yul\":4219:4220   */\n      dup4\n        /* \"#utility.yul\":4201:4221   */\n      tag_119\n      jump\t// in\n    tag_185:\n        /* \"#utility.yul\":4196:4221   */\n      swap3\n      pop\n        /* \"#utility.yul\":4245:4246   */\n      dup3\n        /* \"#utility.yul\":4242:4243   */\n      dup3\n        /* \"#utility.yul\":4238:4247   */\n      sub\n        /* \"#utility.yul\":4230:4247   */\n      swap1\n      pop\n        /* \"#utility.yul\":4269:4270   */\n      dup2\n        /* \"#utility.yul\":4263:4267   */\n      dup2\n        /* \"#utility.yul\":4260:4271   */\n      gt\n        /* \"#utility.yul\":4257:4294   */\n      iszero\n      tag_186\n      jumpi\n        /* \"#utility.yul\":4274:4292   */\n      tag_187\n      tag_120\n      jump\t// in\n    tag_187:\n        /* \"#utility.yul\":4257:4294   */\n    tag_186:\n        /* \"#utility.yul\":4107:4301   */\n      swap3\n      swap2\n      pop\n      pop\n      jump\t// out\n        /* \"#utility.yul\":4307:4487   */\n    tag_49:\n        /* \"#utility.yul\":4355:4432   */\n      0x4e487b7100000000000000000000000000000000000000000000000000000000\n        /* \"#utility.yul\":4352:4353   */\n      0x00\n        /* \"#utility.yul\":4345:4433   */\n      mstore\n        /* \"#utility.yul\":4452:4456   */\n      0x32\n        /* \"#utility.yul\":4449:4450   */\n      0x04\n        /* \"#utility.yul\":4442:4457   */\n      mstore\n        /* \"#utility.yul\":4476:4480   */\n      0x24\n        /* \"#utility.yul\":4473:4474   */\n      0x00\n        /* \"#utility.yul\":4466:4481   */\n      revert\n        /* \"#utility.yul\":4493:4653   */\n    tag_132:\n        /* \"#utility.yul\":4633:4645   */\n      0x6e6f206163636573732e00000000000000000000000000000000000000000000\n        /* \"#utility.yul\":4629:4630   */\n      0x00\n        /* \"#utility.yul\":4621:4627   */\n      dup3\n        /* \"#utility.yul\":4617:4631   */\n      add\n        /* \"#utility.yul\":4610:4646   */\n      mstore\n        /* \"#utility.yul\":4493:4653   */\n      pop\n      jump\t// out\n        /* \"#utility.yul\":4659:5025   */\n    tag_133:\n        /* \"#utility.yul\":4801:4804   */\n      0x00\n        /* \"#utility.yul\":4822:4889   */\n      tag_191\n        /* \"#utility.yul\":4886:4888   */\n      0x0a\n        /* \"#utility.yul\":4881:4884   */\n      dup4\n        /* \"#utility.yul\":4822:4889   */\n      tag_116\n      jump\t// in\n    tag_191:\n        /* \"#utility.yul\":4815:4889   */\n      swap2\n      pop\n        /* \"#utility.yul\":4898:4991   */\n      tag_192\n        /* \"#utility.yul\":4987:4990   */\n      dup3\n        /* \"#utility.yul\":4898:4991   */\n      tag_132\n      jump\t// in\n    tag_192:\n        /* \"#utility.yul\":5016:5018   */\n      0x20\n        /* \"#utility.yul\":5011:5014   */\n      dup3\n        /* \"#utility.yul\":5007:5019   */\n      add\n        /* \"#utility.yul\":5000:5019   */\n      swap1\n      pop\n        /* \"#utility.yul\":4659:5025   */\n      swap2\n      swap1\n      pop\n      jump\t// out\n        /* \"#utility.yul\":5031:5450   */\n    tag_66:\n        /* \"#utility.yul\":5197:5201   */\n      0x00\n        /* \"#utility.yul\":5235:5237   */\n      0x20\n        /* \"#utility.yul\":5224:5233   */\n      dup3\n        /* \"#utility.yul\":5220:5238   */\n      add\n        /* \"#utility.yul\":5212:5238   */\n      swap1\n      pop\n        /* \"#utility.yul\":5284:5293   */\n      dup2\n        /* \"#utility.yul\":5278:5282   */\n      dup2\n        /* \"#utility.yul\":5274:5294   */\n      sub\n        /* \"#utility.yul\":5270:5271   */\n      0x00\n        /* \"#utility.yul\":5259:5268   */\n      dup4\n        /* \"#utility.yul\":5255:5272   */\n      add\n        /* \"#utility.yul\":5248:5295   */\n      mstore\n        /* \"#utility.yul\":5312:5443   */\n      tag_194\n        /* \"#utility.yul\":5438:5442   */\n      dup2\n        /* \"#utility.yul\":5312:5443   */\n      tag_133\n      jump\t// in\n    tag_194:\n        /* \"#utility.yul\":5304:5443   */\n      swap1\n      pop\n        /* \"#utility.yul\":5031:5450   */\n      swap2\n      swap1\n      pop\n      jump\t// out\n        /* \"#utility.yul\":5456:5627   */\n    tag_134:\n        /* \"#utility.yul\":5596:5619   */\n      0x696e73756666696369656e742062616c616e6365210000000000000000000000\n        /* \"#utility.yul\":5592:5593   */\n      0x00\n        /* \"#utility.yul\":5584:5590   */\n      dup3\n        /* \"#utility.yul\":5580:5594   */\n      add\n        /* \"#utility.yul\":5573:5620   */\n      mstore\n        /* \"#utility.yul\":5456:5627   */\n      pop\n      jump\t// out\n        /* \"#utility.yul\":5633:5999   */\n    tag_135:\n        /* \"#utility.yul\":5775:5778   */\n      0x00\n        /* \"#utility.yul\":5796:5863   */\n      tag_197\n        /* \"#utility.yul\":5860:5862   */\n      0x15\n        /* \"#utility.yul\":5855:5858   */\n      dup4\n        /* \"#utility.yul\":5796:5863   */\n      tag_116\n      jump\t// in\n    tag_197:\n        /* \"#utility.yul\":5789:5863   */\n      swap2\n      pop\n        /* \"#utility.yul\":5872:5965   */\n      tag_198\n        /* \"#utility.yul\":5961:5964   */\n      dup3\n        /* \"#utility.yul\":5872:5965   */\n      tag_134\n      jump\t// in\n    tag_198:\n        /* \"#utility.yul\":5990:5992   */\n      0x20\n        /* \"#utility.yul\":5985:5988   */\n      dup3\n        /* \"#utility.yul\":5981:5993   */\n      add\n        /* \"#utility.yul\":5974:5993   */\n      swap1\n      pop\n        /* \"#utility.yul\":5633:5999   */\n      swap2\n      swap1\n      pop\n      jump\t// out\n        /* \"#utility.yul\":6005:6424   */\n    tag_70:\n        /* \"#utility.yul\":6171:6175   */\n      0x00\n        /* \"#utility.yul\":6209:6211   */\n      0x20\n        /* \"#utility.yul\":6198:6207   */\n      dup3\n        /* \"#utility.yul\":6194:6212   */\n      add\n        /* \"#utility.yul\":6186:6212   */\n      swap1\n      pop\n        /* \"#utility.yul\":6258:6267   */\n      dup2\n        /* \"#utility.yul\":6252:6256   */\n      dup2\n        /* \"#utility.yul\":6248:6268   */\n      sub\n        /* \"#utility.yul\":6244:6245   */\n      0x00\n        /* \"#utility.yul\":6233:6242   */\n      dup4\n        /* \"#utility.yul\":6229:6246   */\n      add\n        /* \"#utility.yul\":6222:6269   */\n      mstore\n        /* \"#utility.yul\":6286:6417   */\n      tag_200\n        /* \"#utility.yul\":6412:6416   */\n      dup2\n        /* \"#utility.yul\":6286:6417   */\n      tag_135\n      jump\t// in\n    tag_200:\n        /* \"#utility.yul\":6278:6417   */\n      swap1\n      pop\n        /* \"#utility.yul\":6005:6424   */\n      swap2\n      swap1\n      pop\n      jump\t// out\n        /* \"#utility.yul\":6430:6601   */\n    tag_115:\n        /* \"#utility.yul\":6469:6472   */\n      0x00\n        /* \"#utility.yul\":6492:6516   */\n      tag_202\n        /* \"#utility.yul\":6510:6515   */\n      dup3\n        /* \"#utility.yul\":6492:6516   */\n      tag_119\n      jump\t// in\n    tag_202:\n        /* \"#utility.yul\":6483:6516   */\n      swap2\n      pop\n        /* \"#utility.yul\":6538:6542   */\n      0x00\n        /* \"#utility.yul\":6531:6536   */\n      dup3\n        /* \"#utility.yul\":6528:6543   */\n      sub\n        /* \"#utility.yul\":6525:6566   */\n      tag_203\n      jumpi\n        /* \"#utility.yul\":6546:6564   */\n      tag_204\n      tag_120\n      jump\t// in\n    tag_204:\n        /* \"#utility.yul\":6525:6566   */\n    tag_203:\n        /* \"#utility.yul\":6593:6594   */\n      0x01\n        /* \"#utility.yul\":6586:6591   */\n      dup3\n        /* \"#utility.yul\":6582:6595   */\n      sub\n        /* \"#utility.yul\":6575:6595   */\n      swap1\n      pop\n        /* \"#utility.yul\":6430:6601   */\n      swap2\n      swap1\n      pop\n      jump\t// out\n\n    auxdata: 0xa26469706673582212207c568781704eea35ed8aab5a062f2293cf633016323e00330ef48465d960c6bb64736f6c634300081a0033\n}\n",
				"bytecode": {
					"linkReferences": {},
					"object": "608060405266038d7ea4c680006005553480156019575f80fd5b50335f806101000a81548173ffffffffffffffffffffffffffffffffffffffff021916908373ffffffffffffffffffffffffffffffffffffffff160217905550610c11806100665f395ff3fe60806040526004361061004d575f3560e01c80632e1a7d4d146100f95780638da5cb5b14610121578063c9bf5b151461014b578063d294cb0f14610187578063f2fde38b146101c3576100f5565b366100f55760055480341015610098576040517f08c379a000000000000000000000000000000000000000000000000000000000815260040161008f906108cf565b60405180910390fd5b3460015f3373ffffffffffffffffffffffffffffffffffffffff1673ffffffffffffffffffffffffffffffffffffffff1681526020019081526020015f205f8282546100e49190610923565b925050819055506100f36101eb565b005b5f80fd5b348015610104575f80fd5b5061011f600480360381019061011a9190610984565b610335565b005b34801561012c575f80fd5b50610135610451565b60405161014291906109ee565b60405180910390f35b348015610156575f80fd5b50610171600480360381019061016c9190610984565b610474565b60405161017e91906109ee565b60405180910390f35b348015610192575f80fd5b506101ad60048036038101906101a89190610a31565b6104a8565b6040516101ba9190610a6b565b60405180910390f35b3480156101ce575f80fd5b506101e960048036038101906101e49190610a31565b6104bd565b005b60015f6002600160036101fe9190610a84565b6003811061020f5761020e610ab7565b5b015f9054906101000a900473ffffffffffffffffffffffffffffffffffffffff1673ffffffffffffffffffffffffffffffffffffffff1673ffffffffffffffffffffffffffffffffffffffff1681526020019081526020015f205460015f3373ffffffffffffffffffffffffffffffffffffffff1673ffffffffffffffffffffffffffffffffffffffff1681526020019081526020015f20541115610333576102b73361058c565b156102c9576102c4610623565b610332565b336002600160036102da9190610a84565b600381106102eb576102ea610ab7565b5b015f6101000a81548173ffffffffffffffffffffffffffffffffffffffff021916908373ffffffffffffffffffffffffffffffffffffffff160217905550610331610623565b5b5b565b5f8054906101000a900473ffffffffffffffffffffffffffffffffffffffff1673ffffffffffffffffffffffffffffffffffffffff163373ffffffffffffffffffffffffffffffffffffffff16146103c2576040517f08c379a00000000000000000000000000000000000000000000000000000000081526004016103b990610b2e565b60405180910390fd5b47811115610405576040517f08c379a00000000000000000000000000000000000000000000000000000000081526004016103fc90610b96565b60405180910390fd5b5f3390508073ffffffffffffffffffffffffffffffffffffffff166108fc8390811502906040515f60405180830381858888f1935050505015801561044c573d5f803e3d5ffd5b505050565b5f8054906101000a900473ffffffffffffffffffffffffffffffffffffffff1681565b60028160038110610483575f80fd5b015f915054906101000a900473ffffffffffffffffffffffffffffffffffffffff1681565b6001602052805f5260405f205f915090505481565b5f8054906101000a900473ffffffffffffffffffffffffffffffffffffffff1673ffffffffffffffffffffffffffffffffffffffff163373ffffffffffffffffffffffffffffffffffffffff161461054a576040517f08c379a000000000000000000000000000000000000000000000000000000000815260040161054190610b2e565b60405180910390fd5b805f806101000a81548173ffffffffffffffffffffffffffffffffffffffff021916908373ffffffffffffffffffffffffffffffffffffffff16021790555050565b5f805f90505b600381101561061957600281600381106105af576105ae610ab7565b5b015f9054906101000a900473ffffffffffffffffffffffffffffffffffffffff1673ffffffffffffffffffffffffffffffffffffffff168373ffffffffffffffffffffffffffffffffffffffff160361060c57600191505061061e565b8080600101915050610592565b505f90505b919050565b5f600160036106329190610a84565b90505b600181106108725760015f600260018461064f9190610a84565b600381106106605761065f610ab7565b5b015f9054906101000a900473ffffffffffffffffffffffffffffffffffffffff1673ffffffffffffffffffffffffffffffffffffffff1673ffffffffffffffffffffffffffffffffffffffff1681526020019081526020015f205460015f600284600381106106d2576106d1610ab7565b5b015f9054906101000a900473ffffffffffffffffffffffffffffffffffffffff1673ffffffffffffffffffffffffffffffffffffffff1673ffffffffffffffffffffffffffffffffffffffff1681526020019081526020015f2054111561085f575f60026001836107439190610a84565b6003811061075457610753610ab7565b5b015f9054906101000a900473ffffffffffffffffffffffffffffffffffffffff1690506002826003811061078b5761078a610ab7565b5b015f9054906101000a900473ffffffffffffffffffffffffffffffffffffffff1660026001846107bb9190610a84565b600381106107cc576107cb610ab7565b5b015f6101000a81548173ffffffffffffffffffffffffffffffffffffffff021916908373ffffffffffffffffffffffffffffffffffffffff160217905550806002836003811061081f5761081e610ab7565b5b015f6101000a81548173ffffffffffffffffffffffffffffffffffffffff021916908373ffffffffffffffffffffffffffffffffffffffff160217905550505b808061086a90610bb4565b915050610635565b50565b5f82825260208201905092915050565b7f6465706f73697420616d6f756e7420746f6f20736d616c6c2e000000000000005f82015250565b5f6108b9601983610875565b91506108c482610885565b602082019050919050565b5f6020820190508181035f8301526108e6816108ad565b9050919050565b5f819050919050565b7f4e487b71000000000000000000000000000000000000000000000000000000005f52601160045260245ffd5b5f61092d826108ed565b9150610938836108ed565b92508282019050808211156109505761094f6108f6565b5b92915050565b5f80fd5b610963816108ed565b811461096d575f80fd5b50565b5f8135905061097e8161095a565b92915050565b5f6020828403121561099957610998610956565b5b5f6109a684828501610970565b91505092915050565b5f73ffffffffffffffffffffffffffffffffffffffff82169050919050565b5f6109d8826109af565b9050919050565b6109e8816109ce565b82525050565b5f602082019050610a015f8301846109df565b92915050565b610a10816109ce565b8114610a1a575f80fd5b50565b5f81359050610a2b81610a07565b92915050565b5f60208284031215610a4657610a45610956565b5b5f610a5384828501610a1d565b91505092915050565b610a65816108ed565b82525050565b5f602082019050610a7e5f830184610a5c565b92915050565b5f610a8e826108ed565b9150610a99836108ed565b9250828203905081811115610ab157610ab06108f6565b5b92915050565b7f4e487b71000000000000000000000000000000000000000000000000000000005f52603260045260245ffd5b7f6e6f206163636573732e000000000000000000000000000000000000000000005f82015250565b5f610b18600a83610875565b9150610b2382610ae4565b602082019050919050565b5f6020820190508181035f830152610b4581610b0c565b9050919050565b7f696e73756666696369656e742062616c616e63652100000000000000000000005f82015250565b5f610b80601583610875565b9150610b8b82610b4c565b602082019050919050565b5f6020820190508181035f830152610bad81610b74565b9050919050565b5f610bbe826108ed565b91505f8203610bd057610bcf6108f6565b5b60018203905091905056fea26469706673582212207c568781704eea35ed8aab5a062f2293cf633016323e00330ef48465d960c6bb64736f6c634300081a0033",
					"opcodes": "PUSH1 0x80 PUSH1 0x40 MSTORE PUSH7 0x38D7EA4C68000 PUSH1 0x5 SSTORE CALLVALUE DUP1 ISZERO PUSH1 0x19 JUMPI PUSH0 DUP1 REVERT JUMPDEST POP CALLER PUSH0 DUP1 PUSH2 0x100 EXP DUP2 SLOAD DUP2 PUSH20 0xFFFFFFFFFFFFFFFFFFFFFFFFFFFFFFFFFFFFFFFF MUL NOT AND SWAP1 DUP4 PUSH20 0xFFFFFFFFFFFFFFFFFFFFFFFFFFFFFFFFFFFFFFFF AND MUL OR SWAP1 SSTORE POP PUSH2 0xC11 DUP1 PUSH2 0x66 PUSH0 CODECOPY PUSH0 RETURN INVALID PUSH1 0x80 PUSH1 0x40 MSTORE PUSH1 0x4 CALLDATASIZE LT PUSH2 0x4D JUMPI PUSH0 CALLDATALOAD PUSH1 0xE0 SHR DUP1 PUSH4 0x2E1A7D4D EQ PUSH2 0xF9 JUMPI DUP1 PUSH4 0x8DA5CB5B EQ PUSH2 0x121 JUMPI DUP1 PUSH4 0xC9BF5B15 EQ PUSH2 0x14B JUMPI DUP1 PUSH4 0xD294CB0F EQ PUSH2 0x187 JUMPI DUP1 PUSH4 0xF2FDE38B EQ PUSH2 0x1C3 JUMPI PUSH2 0xF5 JUMP JUMPDEST CALLDATASIZE PUSH2 0xF5 JUMPI PUSH1 0x5 SLOAD DUP1 CALLVALUE LT ISZERO PUSH2 0x98 JUMPI PUSH1 0x40 MLOAD PUSH32 0x8C379A000000000000000000000000000000000000000000000000000000000 DUP2 MSTORE PUSH1 0x4 ADD PUSH2 0x8F SWAP1 PUSH2 0x8CF JUMP JUMPDEST PUSH1 0x40 MLOAD DUP1 SWAP2 SUB SWAP1 REVERT JUMPDEST CALLVALUE PUSH1 0x1 PUSH0 CALLER PUSH20 0xFFFFFFFFFFFFFFFFFFFFFFFFFFFFFFFFFFFFFFFF AND PUSH20 0xFFFFFFFFFFFFFFFFFFFFFFFFFFFFFFFFFFFFFFFF AND DUP2 MSTORE PUSH1 0x20 ADD SWAP1 DUP2 MSTORE PUSH1 0x20 ADD PUSH0 KECCAK256 PUSH0 DUP3 DUP3 SLOAD PUSH2 0xE4 SWAP2 SWAP1 PUSH2 0x923 JUMP JUMPDEST SWAP3 POP POP DUP2 SWAP1 SSTORE POP PUSH2 0xF3 PUSH2 0x1EB JUMP JUMPDEST STOP JUMPDEST PUSH0 DUP1 REVERT JUMPDEST CALLVALUE DUP1 ISZERO PUSH2 0x104 JUMPI PUSH0 DUP1 REVERT JUMPDEST POP PUSH2 0x11F PUSH1 0x4 DUP1 CALLDATASIZE SUB DUP2 ADD SWAP1 PUSH2 0x11A SWAP2 SWAP1 PUSH2 0x984 JUMP JUMPDEST PUSH2 0x335 JUMP JUMPDEST STOP JUMPDEST CALLVALUE DUP1 ISZERO PUSH2 0x12C JUMPI PUSH0 DUP1 REVERT JUMPDEST POP PUSH2 0x135 PUSH2 0x451 JUMP JUMPDEST PUSH1 0x40 MLOAD PUSH2 0x142 SWAP2 SWAP1 PUSH2 0x9EE JUMP JUMPDEST PUSH1 0x40 MLOAD DUP1 SWAP2 SUB SWAP1 RETURN JUMPDEST CALLVALUE DUP1 ISZERO PUSH2 0x156 JUMPI PUSH0 DUP1 REVERT JUMPDEST POP PUSH2 0x171 PUSH1 0x4 DUP1 CALLDATASIZE SUB DUP2 ADD SWAP1 PUSH2 0x16C SWAP2 SWAP1 PUSH2 0x984 JUMP JUMPDEST PUSH2 0x474 JUMP JUMPDEST PUSH1 0x40 MLOAD PUSH2 0x17E SWAP2 SWAP1 PUSH2 0x9EE JUMP JUMPDEST PUSH1 0x40 MLOAD DUP1 SWAP2 SUB SWAP1 RETURN JUMPDEST CALLVALUE DUP1 ISZERO PUSH2 0x192 JUMPI PUSH0 DUP1 REVERT JUMPDEST POP PUSH2 0x1AD PUSH1 0x4 DUP1 CALLDATASIZE SUB DUP2 ADD SWAP1 PUSH2 0x1A8 SWAP2 SWAP1 PUSH2 0xA31 JUMP JUMPDEST PUSH2 0x4A8 JUMP JUMPDEST PUSH1 0x40 MLOAD PUSH2 0x1BA SWAP2 SWAP1 PUSH2 0xA6B JUMP JUMPDEST PUSH1 0x40 MLOAD DUP1 SWAP2 SUB SWAP1 RETURN JUMPDEST CALLVALUE DUP1 ISZERO PUSH2 0x1CE JUMPI PUSH0 DUP1 REVERT JUMPDEST POP PUSH2 0x1E9 PUSH1 0x4 DUP1 CALLDATASIZE SUB DUP2 ADD SWAP1 PUSH2 0x1E4 SWAP2 SWAP1 PUSH2 0xA31 JUMP JUMPDEST PUSH2 0x4BD JUMP JUMPDEST STOP JUMPDEST PUSH1 0x1 PUSH0 PUSH1 0x2 PUSH1 0x1 PUSH1 0x3 PUSH2 0x1FE SWAP2 SWAP1 PUSH2 0xA84 JUMP JUMPDEST PUSH1 0x3 DUP2 LT PUSH2 0x20F JUMPI PUSH2 0x20E PUSH2 0xAB7 JUMP JUMPDEST JUMPDEST ADD PUSH0 SWAP1 SLOAD SWAP1 PUSH2 0x100 EXP SWAP1 DIV PUSH20 0xFFFFFFFFFFFFFFFFFFFFFFFFFFFFFFFFFFFFFFFF AND PUSH20 0xFFFFFFFFFFFFFFFFFFFFFFFFFFFFFFFFFFFFFFFF AND PUSH20 0xFFFFFFFFFFFFFFFFFFFFFFFFFFFFFFFFFFFFFFFF AND DUP2 MSTORE PUSH1 0x20 ADD SWAP1 DUP2 MSTORE PUSH1 0x20 ADD PUSH0 KECCAK256 SLOAD PUSH1 0x1 PUSH0 CALLER PUSH20 0xFFFFFFFFFFFFFFFFFFFFFFFFFFFFFFFFFFFFFFFF AND PUSH20 0xFFFFFFFFFFFFFFFFFFFFFFFFFFFFFFFFFFFFFFFF AND DUP2 MSTORE PUSH1 0x20 ADD SWAP1 DUP2 MSTORE PUSH1 0x20 ADD PUSH0 KECCAK256 SLOAD GT ISZERO PUSH2 0x333 JUMPI PUSH2 0x2B7 CALLER PUSH2 0x58C JUMP JUMPDEST ISZERO PUSH2 0x2C9 JUMPI PUSH2 0x2C4 PUSH2 0x623 JUMP JUMPDEST PUSH2 0x332 JUMP JUMPDEST CALLER PUSH1 0x2 PUSH1 0x1 PUSH1 0x3 PUSH2 0x2DA SWAP2 SWAP1 PUSH2 0xA84 JUMP JUMPDEST PUSH1 0x3 DUP2 LT PUSH2 0x2EB JUMPI PUSH2 0x2EA PUSH2 0xAB7 JUMP JUMPDEST JUMPDEST ADD PUSH0 PUSH2 0x100 EXP DUP2 SLOAD DUP2 PUSH20 0xFFFFFFFFFFFFFFFFFFFFFFFFFFFFFFFFFFFFFFFF MUL NOT AND SWAP1 DUP4 PUSH20 0xFFFFFFFFFFFFFFFFFFFFFFFFFFFFFFFFFFFFFFFF AND MUL OR SWAP1 SSTORE POP PUSH2 0x331 PUSH2 0x623 JUMP JUMPDEST JUMPDEST JUMPDEST JUMP JUMPDEST PUSH0 DUP1 SLOAD SWAP1 PUSH2 0x100 EXP SWAP1 DIV PUSH20 0xFFFFFFFFFFFFFFFFFFFFFFFFFFFFFFFFFFFFFFFF AND PUSH20 0xFFFFFFFFFFFFFFFFFFFFFFFFFFFFFFFFFFFFFFFF AND CALLER PUSH20 0xFFFFFFFFFFFFFFFFFFFFFFFFFFFFFFFFFFFFFFFF AND EQ PUSH2 0x3C2 JUMPI PUSH1 0x40 MLOAD PUSH32 0x8C379A000000000000000000000000000000000000000000000000000000000 DUP2 MSTORE PUSH1 0x4 ADD PUSH2 0x3B9 SWAP1 PUSH2 0xB2E JUMP JUMPDEST PUSH1 0x40 MLOAD DUP1 SWAP2 SUB SWAP1 REVERT JUMPDEST SELFBALANCE DUP2 GT ISZERO PUSH2 0x405 JUMPI PUSH1 0x40 MLOAD PUSH32 0x8C379A000000000000000000000000000000000000000000000000000000000 DUP2 MSTORE PUSH1 0x4 ADD PUSH2 0x3FC SWAP1 PUSH2 0xB96 JUMP JUMPDEST PUSH1 0x40 MLOAD DUP1 SWAP2 SUB SWAP1 REVERT JUMPDEST PUSH0 CALLER SWAP1 POP DUP1 PUSH20 0xFFFFFFFFFFFFFFFFFFFFFFFFFFFFFFFFFFFFFFFF AND PUSH2 0x8FC DUP4 SWAP1 DUP2 ISZERO MUL SWAP1 PUSH1 0x40 MLOAD PUSH0 PUSH1 0x40 MLOAD DUP1 DUP4 SUB DUP2 DUP6 DUP9 DUP9 CALL SWAP4 POP POP POP POP ISZERO DUP1 ISZERO PUSH2 0x44C JUMPI RETURNDATASIZE PUSH0 DUP1 RETURNDATACOPY RETURNDATASIZE PUSH0 REVERT JUMPDEST POP POP POP JUMP JUMPDEST PUSH0 DUP1 SLOAD SWAP1 PUSH2 0x100 EXP SWAP1 DIV PUSH20 0xFFFFFFFFFFFFFFFFFFFFFFFFFFFFFFFFFFFFFFFF AND DUP2 JUMP JUMPDEST PUSH1 0x2 DUP2 PUSH1 0x3 DUP2 LT PUSH2 0x483 JUMPI PUSH0 DUP1 REVERT JUMPDEST ADD PUSH0 SWAP2 POP SLOAD SWAP1 PUSH2 0x100 EXP SWAP1 DIV PUSH20 0xFFFFFFFFFFFFFFFFFFFFFFFFFFFFFFFFFFFFFFFF AND DUP2 JUMP JUMPDEST PUSH1 0x1 PUSH1 0x20 MSTORE DUP1 PUSH0 MSTORE PUSH1 0x40 PUSH0 KECCAK256 PUSH0 SWAP2 POP SWAP1 POP SLOAD DUP2 JUMP JUMPDEST PUSH0 DUP1 SLOAD SWAP1 PUSH2 0x100 EXP SWAP1 DIV PUSH20 0xFFFFFFFFFFFFFFFFFFFFFFFFFFFFFFFFFFFFFFFF AND PUSH20 0xFFFFFFFFFFFFFFFFFFFFFFFFFFFFFFFFFFFFFFFF AND CALLER PUSH20 0xFFFFFFFFFFFFFFFFFFFFFFFFFFFFFFFFFFFFFFFF AND EQ PUSH2 0x54A JUMPI PUSH1 0x40 MLOAD PUSH32 0x8C379A000000000000000000000000000000000000000000000000000000000 DUP2 MSTORE PUSH1 0x4 ADD PUSH2 0x541 SWAP1 PUSH2 0xB2E JUMP JUMPDEST PUSH1 0x40 MLOAD DUP1 SWAP2 SUB SWAP1 REVERT JUMPDEST DUP1 PUSH0 DUP1 PUSH2 0x100 EXP DUP2 SLOAD DUP2 PUSH20 0xFFFFFFFFFFFFFFFFFFFFFFFFFFFFFFFFFFFFFFFF MUL NOT AND SWAP1 DUP4 PUSH20 0xFFFFFFFFFFFFFFFFFFFFFFFFFFFFFFFFFFFFFFFF AND MUL OR SWAP1 SSTORE POP POP JUMP JUMPDEST PUSH0 DUP1 PUSH0 SWAP1 POP JUMPDEST PUSH1 0x3 DUP2 LT ISZERO PUSH2 0x619 JUMPI PUSH1 0x2 DUP2 PUSH1 0x3 DUP2 LT PUSH2 0x5AF JUMPI PUSH2 0x5AE PUSH2 0xAB7 JUMP JUMPDEST JUMPDEST ADD PUSH0 SWAP1 SLOAD SWAP1 PUSH2 0x100 EXP SWAP1 DIV PUSH20 0xFFFFFFFFFFFFFFFFFFFFFFFFFFFFFFFFFFFFFFFF AND PUSH20 0xFFFFFFFFFFFFFFFFFFFFFFFFFFFFFFFFFFFFFFFF AND DUP4 PUSH20 0xFFFFFFFFFFFFFFFFFFFFFFFFFFFFFFFFFFFFFFFF AND SUB PUSH2 0x60C JUMPI PUSH1 0x1 SWAP2 POP POP PUSH2 0x61E JUMP JUMPDEST DUP1 DUP1 PUSH1 0x1 ADD SWAP2 POP POP PUSH2 0x592 JUMP JUMPDEST POP PUSH0 SWAP1 POP JUMPDEST SWAP2 SWAP1 POP JUMP JUMPDEST PUSH0 PUSH1 0x1 PUSH1 0x3 PUSH2 0x632 SWAP2 SWAP1 PUSH2 0xA84 JUMP JUMPDEST SWAP1 POP JUMPDEST PUSH1 0x1 DUP2 LT PUSH2 0x872 JUMPI PUSH1 0x1 PUSH0 PUSH1 0x2 PUSH1 0x1 DUP5 PUSH2 0x64F SWAP2 SWAP1 PUSH2 0xA84 JUMP JUMPDEST PUSH1 0x3 DUP2 LT PUSH2 0x660 JUMPI PUSH2 0x65F PUSH2 0xAB7 JUMP JUMPDEST JUMPDEST ADD PUSH0 SWAP1 SLOAD SWAP1 PUSH2 0x100 EXP SWAP1 DIV PUSH20 0xFFFFFFFFFFFFFFFFFFFFFFFFFFFFFFFFFFFFFFFF AND PUSH20 0xFFFFFFFFFFFFFFFFFFFFFFFFFFFFFFFFFFFFFFFF AND PUSH20 0xFFFFFFFFFFFFFFFFFFFFFFFFFFFFFFFFFFFFFFFF AND DUP2 MSTORE PUSH1 0x20 ADD SWAP1 DUP2 MSTORE PUSH1 0x20 ADD PUSH0 KECCAK256 SLOAD PUSH1 0x1 PUSH0 PUSH1 0x2 DUP5 PUSH1 0x3 DUP2 LT PUSH2 0x6D2 JUMPI PUSH2 0x6D1 PUSH2 0xAB7 JUMP JUMPDEST JUMPDEST ADD PUSH0 SWAP1 SLOAD SWAP1 PUSH2 0x100 EXP SWAP1 DIV PUSH20 0xFFFFFFFFFFFFFFFFFFFFFFFFFFFFFFFFFFFFFFFF AND PUSH20 0xFFFFFFFFFFFFFFFFFFFFFFFFFFFFFFFFFFFFFFFF AND PUSH20 0xFFFFFFFFFFFFFFFFFFFFFFFFFFFFFFFFFFFFFFFF AND DUP2 MSTORE PUSH1 0x20 ADD SWAP1 DUP2 MSTORE PUSH1 0x20 ADD PUSH0 KECCAK256 SLOAD GT ISZERO PUSH2 0x85F JUMPI PUSH0 PUSH1 0x2 PUSH1 0x1 DUP4 PUSH2 0x743 SWAP2 SWAP1 PUSH2 0xA84 JUMP JUMPDEST PUSH1 0x3 DUP2 LT PUSH2 0x754 JUMPI PUSH2 0x753 PUSH2 0xAB7 JUMP JUMPDEST JUMPDEST ADD PUSH0 SWAP1 SLOAD SWAP1 PUSH2 0x100 EXP SWAP1 DIV PUSH20 0xFFFFFFFFFFFFFFFFFFFFFFFFFFFFFFFFFFFFFFFF AND SWAP1 POP PUSH1 0x2 DUP3 PUSH1 0x3 DUP2 LT PUSH2 0x78B JUMPI PUSH2 0x78A PUSH2 0xAB7 JUMP JUMPDEST JUMPDEST ADD PUSH0 SWAP1 SLOAD SWAP1 PUSH2 0x100 EXP SWAP1 DIV PUSH20 0xFFFFFFFFFFFFFFFFFFFFFFFFFFFFFFFFFFFFFFFF AND PUSH1 0x2 PUSH1 0x1 DUP5 PUSH2 0x7BB SWAP2 SWAP1 PUSH2 0xA84 JUMP JUMPDEST PUSH1 0x3 DUP2 LT PUSH2 0x7CC JUMPI PUSH2 0x7CB PUSH2 0xAB7 JUMP JUMPDEST JUMPDEST ADD PUSH0 PUSH2 0x100 EXP DUP2 SLOAD DUP2 PUSH20 0xFFFFFFFFFFFFFFFFFFFFFFFFFFFFFFFFFFFFFFFF MUL NOT AND SWAP1 DUP4 PUSH20 0xFFFFFFFFFFFFFFFFFFFFFFFFFFFFFFFFFFFFFFFF AND MUL OR SWAP1 SSTORE POP DUP1 PUSH1 0x2 DUP4 PUSH1 0x3 DUP2 LT PUSH2 0x81F JUMPI PUSH2 0x81E PUSH2 0xAB7 JUMP JUMPDEST JUMPDEST ADD PUSH0 PUSH2 0x100 EXP DUP2 SLOAD DUP2 PUSH20 0xFFFFFFFFFFFFFFFFFFFFFFFFFFFFFFFFFFFFFFFF MUL NOT AND SWAP1 DUP4 PUSH20 0xFFFFFFFFFFFFFFFFFFFFFFFFFFFFFFFFFFFFFFFF AND MUL OR SWAP1 SSTORE POP POP JUMPDEST DUP1 DUP1 PUSH2 0x86A SWAP1 PUSH2 0xBB4 JUMP JUMPDEST SWAP2 POP POP PUSH2 0x635 JUMP JUMPDEST POP JUMP JUMPDEST PUSH0 DUP3 DUP3 MSTORE PUSH1 0x20 DUP3 ADD SWAP1 POP SWAP3 SWAP2 POP POP JUMP JUMPDEST PUSH32 0x6465706F73697420616D6F756E7420746F6F20736D616C6C2E00000000000000 PUSH0 DUP3 ADD MSTORE POP JUMP JUMPDEST PUSH0 PUSH2 0x8B9 PUSH1 0x19 DUP4 PUSH2 0x875 JUMP JUMPDEST SWAP2 POP PUSH2 0x8C4 DUP3 PUSH2 0x885 JUMP JUMPDEST PUSH1 0x20 DUP3 ADD SWAP1 POP SWAP2 SWAP1 POP JUMP JUMPDEST PUSH0 PUSH1 0x20 DUP3 ADD SWAP1 POP DUP2 DUP2 SUB PUSH0 DUP4 ADD MSTORE PUSH2 0x8E6 DUP2 PUSH2 0x8AD JUMP JUMPDEST SWAP1 POP SWAP2 SWAP1 POP JUMP JUMPDEST PUSH0 DUP2 SWAP1 POP SWAP2 SWAP1 POP JUMP JUMPDEST PUSH32 0x4E487B7100000000000000000000000000000000000000000000000000000000 PUSH0 MSTORE PUSH1 0x11 PUSH1 0x4 MSTORE PUSH1 0x24 PUSH0 REVERT JUMPDEST PUSH0 PUSH2 0x92D DUP3 PUSH2 0x8ED JUMP JUMPDEST SWAP2 POP PUSH2 0x938 DUP4 PUSH2 0x8ED JUMP JUMPDEST SWAP3 POP DUP3 DUP3 ADD SWAP1 POP DUP1 DUP3 GT ISZERO PUSH2 0x950 JUMPI PUSH2 0x94F PUSH2 0x8F6 JUMP JUMPDEST JUMPDEST SWAP3 SWAP2 POP POP JUMP JUMPDEST PUSH0 DUP1 REVERT JUMPDEST PUSH2 0x963 DUP2 PUSH2 0x8ED JUMP JUMPDEST DUP2 EQ PUSH2 0x96D JUMPI PUSH0 DUP1 REVERT JUMPDEST POP JUMP JUMPDEST PUSH0 DUP2 CALLDATALOAD SWAP1 POP PUSH2 0x97E DUP2 PUSH2 0x95A JUMP JUMPDEST SWAP3 SWAP2 POP POP JUMP JUMPDEST PUSH0 PUSH1 0x20 DUP3 DUP5 SUB SLT ISZERO PUSH2 0x999 JUMPI PUSH2 0x998 PUSH2 0x956 JUMP JUMPDEST JUMPDEST PUSH0 PUSH2 0x9A6 DUP5 DUP3 DUP6 ADD PUSH2 0x970 JUMP JUMPDEST SWAP2 POP POP SWAP3 SWAP2 POP POP JUMP JUMPDEST PUSH0 PUSH20 0xFFFFFFFFFFFFFFFFFFFFFFFFFFFFFFFFFFFFFFFF DUP3 AND SWAP1 POP SWAP2 SWAP1 POP JUMP JUMPDEST PUSH0 PUSH2 0x9D8 DUP3 PUSH2 0x9AF JUMP JUMPDEST SWAP1 POP SWAP2 SWAP1 POP JUMP JUMPDEST PUSH2 0x9E8 DUP2 PUSH2 0x9CE JUMP JUMPDEST DUP3 MSTORE POP POP JUMP JUMPDEST PUSH0 PUSH1 0x20 DUP3 ADD SWAP1 POP PUSH2 0xA01 PUSH0 DUP4 ADD DUP5 PUSH2 0x9DF JUMP JUMPDEST SWAP3 SWAP2 POP POP JUMP JUMPDEST PUSH2 0xA10 DUP2 PUSH2 0x9CE JUMP JUMPDEST DUP2 EQ PUSH2 0xA1A JUMPI PUSH0 DUP1 REVERT JUMPDEST POP JUMP JUMPDEST PUSH0 DUP2 CALLDATALOAD SWAP1 POP PUSH2 0xA2B DUP2 PUSH2 0xA07 JUMP JUMPDEST SWAP3 SWAP2 POP POP JUMP JUMPDEST PUSH0 PUSH1 0x20 DUP3 DUP5 SUB SLT ISZERO PUSH2 0xA46 JUMPI PUSH2 0xA45 PUSH2 0x956 JUMP JUMPDEST JUMPDEST PUSH0 PUSH2 0xA53 DUP5 DUP3 DUP6 ADD PUSH2 0xA1D JUMP JUMPDEST SWAP2 POP POP SWAP3 SWAP2 POP POP JUMP JUMPDEST PUSH2 0xA65 DUP2 PUSH2 0x8ED JUMP JUMPDEST DUP3 MSTORE POP POP JUMP JUMPDEST PUSH0 PUSH1 0x20 DUP3 ADD SWAP1 POP PUSH2 0xA7E PUSH0 DUP4 ADD DUP5 PUSH2 0xA5C JUMP JUMPDEST SWAP3 SWAP2 POP POP JUMP JUMPDEST PUSH0 PUSH2 0xA8E DUP3 PUSH2 0x8ED JUMP JUMPDEST SWAP2 POP PUSH2 0xA99 DUP4 PUSH2 0x8ED JUMP JUMPDEST SWAP3 POP DUP3 DUP3 SUB SWAP1 POP DUP2 DUP2 GT ISZERO PUSH2 0xAB1 JUMPI PUSH2 0xAB0 PUSH2 0x8F6 JUMP JUMPDEST JUMPDEST SWAP3 SWAP2 POP POP JUMP JUMPDEST PUSH32 0x4E487B7100000000000000000000000000000000000000000000000000000000 PUSH0 MSTORE PUSH1 0x32 PUSH1 0x4 MSTORE PUSH1 0x24 PUSH0 REVERT JUMPDEST PUSH32 0x6E6F206163636573732E00000000000000000000000000000000000000000000 PUSH0 DUP3 ADD MSTORE POP JUMP JUMPDEST PUSH0 PUSH2 0xB18 PUSH1 0xA DUP4 PUSH2 0x875 JUMP JUMPDEST SWAP2 POP PUSH2 0xB23 DUP3 PUSH2 0xAE4 JUMP JUMPDEST PUSH1 0x20 DUP3 ADD SWAP1 POP SWAP2 SWAP1 POP JUMP JUMPDEST PUSH0 PUSH1 0x20 DUP3 ADD SWAP1 POP DUP2 DUP2 SUB PUSH0 DUP4 ADD MSTORE PUSH2 0xB45 DUP2 PUSH2 0xB0C JUMP JUMPDEST SWAP1 POP SWAP2 SWAP1 POP JUMP JUMPDEST PUSH32 0x696E73756666696369656E742062616C616E6365210000000000000000000000 PUSH0 DUP3 ADD MSTORE POP JUMP JUMPDEST PUSH0 PUSH2 0xB80 PUSH1 0x15 DUP4 PUSH2 0x875 JUMP JUMPDEST SWAP2 POP PUSH2 0xB8B DUP3 PUSH2 0xB4C JUMP JUMPDEST PUSH1 0x20 DUP3 ADD SWAP1 POP SWAP2 SWAP1 POP JUMP JUMPDEST PUSH0 PUSH1 0x20 DUP3 ADD SWAP1 POP DUP2 DUP2 SUB PUSH0 DUP4 ADD MSTORE PUSH2 0xBAD DUP2 PUSH2 0xB74 JUMP JUMPDEST SWAP1 POP SWAP2 SWAP1 POP JUMP JUMPDEST PUSH0 PUSH2 0xBBE DUP3 PUSH2 0x8ED JUMP JUMPDEST SWAP2 POP PUSH0 DUP3 SUB PUSH2 0xBD0 JUMPI PUSH2 0xBCF PUSH2 0x8F6 JUMP JUMPDEST JUMPDEST PUSH1 0x1 DUP3 SUB SWAP1 POP SWAP2 SWAP1 POP JUMP INVALID LOG2 PUSH5 0x6970667358 0x22 SLT KECCAK256 PUSH29 0x568781704EEA35ED8AAB5A062F2293CF633016323E00330EF48465D960 0xC6 0xBB PUSH5 0x736F6C6343 STOP ADDMOD BYTE STOP CALLER "
				},
				"gasEstimates": {
					"creation": {
						"codeDepositCost": "617800",
						"executionCost": "47020",
						"totalCost": "664820"
					},
					"external": {
						"accountBalance(address)": "2846",
						"owner()": "2505",
						"top3(uint256)": "2817",
						"transferOwnership(address)": "26947",
						"withdraw(uint256)": "infinite"
					}
				},
				"methodIdentifiers": {
					"accountBalance(address)": "d294cb0f",
					"owner()": "8da5cb5b",
					"top3(uint256)": "c9bf5b15",
					"transferOwnership(address)": "f2fde38b",
					"withdraw(uint256)": "2e1a7d4d"
				}
			},
			"storageLayout": {
				"storage": [
					{
						"astId": 226,
						"contract": "contracts/BigBank.sol:BigBank",
						"label": "owner",
						"offset": 0,
						"slot": "0",
						"type": "t_address"
					},
					{
						"astId": 8,
						"contract": "contracts/BigBank.sol:BigBank",
						"label": "accountBalance",
						"offset": 0,
						"slot": "1",
						"type": "t_mapping(t_address,t_uint256)"
					},
					{
						"astId": 12,
						"contract": "contracts/BigBank.sol:BigBank",
						"label": "top3",
						"offset": 0,
						"slot": "2",
						"type": "t_array(t_address)3_storage"
					},
					{
						"astId": 189,
						"contract": "contracts/BigBank.sol:BigBank",
						"label": "MINIMUM_AMOUNT",
						"offset": 0,
						"slot": "5",
						"type": "t_uint256"
					}
				],
				"types": {
					"t_address": {
						"encoding": "inplace",
						"label": "address",
						"numberOfBytes": "20"
					},
					"t_array(t_address)3_storage": {
						"base": "t_address",
						"encoding": "inplace",
						"label": "address[3]",
						"numberOfBytes": "96"
					},
					"t_mapping(t_address,t_uint256)": {
						"encoding": "mapping",
						"key": "t_address",
						"label": "mapping(address => uint256)",
						"numberOfBytes": "32",
						"value": "t_uint256"
					},
					"t_uint256": {
						"encoding": "inplace",
						"label": "uint256",
						"numberOfBytes": "32"
					}
				}
			},
			"userdoc": {
				"kind": "user",
				"methods": {},
				"version": 1
			}
		}
	}
}