{"abi":[{"type":"constructor","inputs":[],"stateMutability":"nonpayable"},{"type":"function","name":"DOMAIN_SEPARATOR","inputs":[],"outputs":[{"name":"","type":"bytes32","internalType":"bytes32"}],"stateMutability":"view"},{"type":"function","name":"PERMIT_TYPEHASH","inputs":[],"outputs":[{"name":"","type":"bytes32","internalType":"bytes32"}],"stateMutability":"view"},{"type":"function","name":"allowance","inputs":[{"name":"owner","type":"address","internalType":"address"},{"name":"spender","type":"address","internalType":"address"}],"outputs":[{"name":"","type":"uint256","internalType":"uint256"}],"stateMutability":"view"},{"type":"function","name":"approve","inputs":[{"name":"spender","type":"address","internalType":"address"},{"name":"value","type":"uint256","internalType":"uint256"}],"outputs":[{"name":"","type":"bool","internalType":"bool"}],"stateMutability":"nonpayable"},{"type":"function","name":"balanceOf","inputs":[{"name":"account","type":"address","internalType":"address"}],"outputs":[{"name":"","type":"uint256","internalType":"uint256"}],"stateMutability":"view"},{"type":"function","name":"decimals","inputs":[],"outputs":[{"name":"","type":"uint8","internalType":"uint8"}],"stateMutability":"view"},{"type":"function","name":"getDigest","inputs":[{"name":"owner","type":"address","internalType":"address"},{"name":"spender","type":"address","internalType":"address"},{"name":"value","type":"uint256","internalType":"uint256"},{"name":"deadline","type":"uint256","internalType":"uint256"}],"outputs":[{"name":"","type":"bytes32","internalType":"bytes32"}],"stateMutability":"view"},{"type":"function","name":"mint","inputs":[],"outputs":[],"stateMutability":"nonpayable"},{"type":"function","name":"name","inputs":[],"outputs":[{"name":"","type":"string","internalType":"string"}],"stateMutability":"view"},{"type":"function","name":"nonces","inputs":[{"name":"","type":"address","internalType":"address"}],"outputs":[{"name":"","type":"uint256","internalType":"uint256"}],"stateMutability":"view"},{"type":"function","name":"permit","inputs":[{"name":"owner","type":"address","internalType":"address"},{"name":"spender","type":"address","internalType":"address"},{"name":"value","type":"uint256","internalType":"uint256"},{"name":"deadline","type":"uint256","internalType":"uint256"},{"name":"v","type":"uint8","internalType":"uint8"},{"name":"r","type":"bytes32","internalType":"bytes32"},{"name":"s","type":"bytes32","internalType":"bytes32"}],"outputs":[],"stateMutability":"nonpayable"},{"type":"function","name":"simplePermit","inputs":[{"name":"content","type":"string","internalType":"string"},{"name":"v","type":"uint8","internalType":"uint8"},{"name":"r","type":"bytes32","internalType":"bytes32"},{"name":"s","type":"bytes32","internalType":"bytes32"}],"outputs":[{"name":"","type":"bool","internalType":"bool"}],"stateMutability":"pure"},{"type":"function","name":"symbol","inputs":[],"outputs":[{"name":"","type":"string","internalType":"string"}],"stateMutability":"view"},{"type":"function","name":"totalSupply","inputs":[],"outputs":[{"name":"","type":"uint256","internalType":"uint256"}],"stateMutability":"view"},{"type":"function","name":"transfer","inputs":[{"name":"to","type":"address","internalType":"address"},{"name":"value","type":"uint256","internalType":"uint256"}],"outputs":[{"name":"","type":"bool","internalType":"bool"}],"stateMutability":"nonpayable"},{"type":"function","name":"transferAndCall","inputs":[{"name":"to","type":"address","internalType":"address"},{"name":"value","type":"uint256","internalType":"uint256"},{"name":"data","type":"bytes","internalType":"bytes"}],"outputs":[{"name":"","type":"bool","internalType":"bool"}],"stateMutability":"nonpayable"},{"type":"function","name":"transferFrom","inputs":[{"name":"from","type":"address","internalType":"address"},{"name":"to","type":"address","internalType":"address"},{"name":"value","type":"uint256","internalType":"uint256"}],"outputs":[{"name":"","type":"bool","internalType":"bool"}],"stateMutability":"nonpayable"},{"type":"event","name":"Approval","inputs":[{"name":"owner","type":"address","indexed":true,"internalType":"address"},{"name":"spender","type":"address","indexed":true,"internalType":"address"},{"name":"value","type":"uint256","indexed":false,"internalType":"uint256"}],"anonymous":false},{"type":"event","name":"Transfer","inputs":[{"name":"from","type":"address","indexed":true,"internalType":"address"},{"name":"to","type":"address","indexed":true,"internalType":"address"},{"name":"value","type":"uint256","indexed":false,"internalType":"uint256"}],"anonymous":false},{"type":"error","name":"ERC1363ReceiveFailed","inputs":[{"name":"to","type":"address","internalType":"address"}]},{"type":"error","name":"ERC1363TransferFailed","inputs":[{"name":"to","type":"address","internalType":"address"},{"name":"value","type":"uint256","internalType":"uint256"}]},{"type":"error","name":"ERC20InsufficientAllowance","inputs":[{"name":"spender","type":"address","internalType":"address"},{"name":"allowance","type":"uint256","internalType":"uint256"},{"name":"needed","type":"uint256","internalType":"uint256"}]},{"type":"error","name":"ERC20InsufficientBalance","inputs":[{"name":"sender","type":"address","internalType":"address"},{"name":"balance","type":"uint256","internalType":"uint256"},{"name":"needed","type":"uint256","internalType":"uint256"}]},{"type":"error","name":"ERC20InvalidApprover","inputs":[{"name":"approver","type":"address","internalType":"address"}]},{"type":"error","name":"ERC20InvalidReceiver","inputs":[{"name":"receiver","type":"address","internalType":"address"}]},{"type":"error","name":"ERC20InvalidSender","inputs":[{"name":"sender","type":"address","internalType":"address"}]},{"type":"error","name":"ERC20InvalidSpender","inputs":[{"name":"spender","type":"address","internalType":"address"}]},{"type":"error","name":"invalidSignature","inputs":[{"name":"revocerdAddr","type":"address","internalType":"address"},{"name":"digest","type":"bytes32","internalType":"bytes32"}]}],"bytecode":{"object":"0x608060405234801561001057600080fd5b506040518060400160405280600581526020016448756c696f60d81b81525060405180604001604052806002815260200161485560f01b815250816003908161005991906101e3565b50600461006682826101e3565b5050604080518082018252600581526448756c696f60d81b6020918201528151808301835260018152603160f81b9082015281517f8b73c3c69bb8fe3d512ecc4cf759cc79239f7b179b0ffacaa9a75d522b39400f918101919091527fc112fe65f53648bf23856243374cc1c0696bf78cd6a546c1f10240fb2750e383918101919091527fc89efdaa54c0f20c7adf612882df0950f5a951637e0307cdcb4c672f298b8bc6606082015246608082018190523060a0830152915060c00160408051601f198184030181529190528051602090910120600555506102a1565b634e487b7160e01b600052604160045260246000fd5b600181811c9082168061016e57607f821691505b60208210810361018e57634e487b7160e01b600052602260045260246000fd5b50919050565b601f8211156101de57806000526020600020601f840160051c810160208510156101bb5750805b601f840160051c820191505b818110156101db57600081556001016101c7565b50505b505050565b81516001600160401b038111156101fc576101fc610144565b6102108161020a845461015a565b84610194565b6020601f821160018114610244576000831561022c5750848201515b600019600385901b1c1916600184901b1784556101db565b600084815260208120601f198516915b828110156102745787850151825560209485019460019092019101610254565b50848210156102925786840151600019600387901b60f8161c191681555b50505050600190811b01905550565b61109f806102b06000396000f3fe608060405234801561001057600080fd5b506004361061010b5760003560e01c80634000aea0116100a257806395d89b411161007157806395d89b411461022e578063a9059cbb14610236578063bba76a0514610249578063d505accf1461031a578063dd62ed3e1461032d57600080fd5b80634000aea0146101bf57806370a08231146101d25780637ecebe00146101fb57806392d1930e1461021b57600080fd5b806323b872dd116100de57806323b872dd1461016d57806330adf81f14610180578063313ce567146101a75780633644e515146101b657600080fd5b806306fdde0314610110578063095ea7b31461012e5780631249c58b1461015157806318160ddd1461015b575b600080fd5b610118610366565b6040516101259190610c5d565b60405180910390f35b61014161013c366004610c93565b6103f8565b6040519015158152602001610125565b610159610412565b005b6002545b604051908152602001610125565b61014161017b366004610cbd565b610422565b61015f7f6e71edae12b1b97f4d1f60370fef10105fa2faae0126114a169c64845d6126c981565b60405160128152602001610125565b61015f60055481565b6101416101cd366004610cfa565b610446565b61015f6101e0366004610d84565b6001600160a01b031660009081526020819052604090205490565b61015f610209366004610d84565b60066020526000908152604090205481565b610141610229366004610dc6565b6104c8565b6101186105c4565b610141610244366004610c93565b6105d3565b61015f610257366004610e9f565b6005546001600160a01b039485166000818152600660209081526040918290205482517f6e71edae12b1b97f4d1f60370fef10105fa2faae0126114a169c64845d6126c98184015280840194909452969097166060830152608082019490945260a081019490945260c0808501929092528251808503909201825260e08401835281519185019190912061190160f01b61010085015261010284019190915261012280840191909152815180840390910181526101429092019052805191012090565b610159610328366004610ecc565b6105e1565b61015f61033b366004610f37565b6001600160a01b03918216600090815260016020908152604080832093909416825291909152205490565b60606003805461037590610f6a565b80601f01602080910402602001604051908101604052809291908181526020018280546103a190610f6a565b80156103ee5780601f106103c3576101008083540402835291602001916103ee565b820191906000526020600020905b8154815290600101906020018083116103d157829003601f168201915b5050505050905090565b6000336104068185856107cd565b60019150505b92915050565b61042033633b9aca006107df565b565b600033610430858285610819565b61043b858585610897565b506001949350505050565b600061045285856105d3565b6104865760405163118d81d760e11b81526001600160a01b0386166004820152602481018590526044015b60405180910390fd5b61043b33868686868080601f0160208091040260200160405190810160405280939291908181526020018383808284376000920191909152506108f692505050565b600080856040516020016104dc9190610fa4565b60408051601f198184030181528282528051602091820120600080855291840180845281905260ff89169284019290925260608301879052608083018690529092509060019060a0016020604051602081039080840390855afa158015610547573d6000803e3d6000fd5b5050604051601f1901519150506001600160a01b038116158061058757506001600160a01b03811673a9528027dfea6f57442c6cc9c8313ad3091d60d814155b156105b757604051639719191b60e01b81526001600160a01b03821660048201526024810183905260440161047d565b5060019695505050505050565b60606004805461037590610f6a565b600033610406818585610897565b4284101561061b5760405162461bcd60e51b81526020600482015260076024820152661156141254915160ca1b604482015260640161047d565b6005546001600160a01b038816600090815260066020526040812080549192917f6e71edae12b1b97f4d1f60370fef10105fa2faae0126114a169c64845d6126c9918b918b918b91908761066e83610fd6565b909155506040805160208101969096526001600160a01b0394851690860152929091166060840152608083015260a082015260c0810187905260e001604051602081830303815290604052805190602001206040516020016106e792919061190160f01b81526002810192909252602282015260420190565b60408051601f198184030181528282528051602091820120600080855291840180845281905260ff88169284019290925260608301869052608083018590529092509060019060a0016020604051602081039080840390855afa158015610752573d6000803e3d6000fd5b5050604051601f1901519150506001600160a01b03811615806107875750886001600160a01b0316816001600160a01b031614155b156107b757604051639719191b60e01b81526001600160a01b03821660048201526024810183905260440161047d565b6107c28989896107cd565b505050505050505050565b6107da8383836001610a0e565b505050565b6001600160a01b0382166108095760405163ec442f0560e01b81526000600482015260240161047d565b61081560008383610ae3565b5050565b6001600160a01b038381166000908152600160209081526040808320938616835292905220546000198114610891578181101561088257604051637dc7a0d960e11b81526001600160a01b0384166004820152602481018290526044810183905260640161047d565b61089184848484036000610a0e565b50505050565b6001600160a01b0383166108c157604051634b637e8f60e11b81526000600482015260240161047d565b6001600160a01b0382166108eb5760405163ec442f0560e01b81526000600482015260240161047d565b6107da838383610ae3565b6001600160a01b0383163b1561089157604051632229f29760e21b81526001600160a01b038416906388a7ca5c90610938903390889087908790600401610fef565b6020604051808303816000875af1925050508015610973575060408051601f3d908101601f191682019092526109709181019061102c565b60015b6109cb573d8080156109a1576040519150601f19603f3d011682016040523d82523d6000602084013e6109a6565b606091505b506040516306e78b8f60e31b81526001600160a01b038516600482015260240161047d565b6001600160e01b03198116632229f29760e21b14610a07576040516306e78b8f60e31b81526001600160a01b038516600482015260240161047d565b5050505050565b6001600160a01b038416610a385760405163e602df0560e01b81526000600482015260240161047d565b6001600160a01b038316610a6257604051634a1406b160e11b81526000600482015260240161047d565b6001600160a01b038085166000908152600160209081526040808320938716835292905220829055801561089157826001600160a01b0316846001600160a01b03167f8c5be1e5ebec7d5bd14f71427d1e84f3dd0314c0f7b2291e5b200ac8c7c3b92584604051610ad591815260200190565b60405180910390a350505050565b6001600160a01b038316610b0e578060026000828254610b039190611056565b90915550610b809050565b6001600160a01b03831660009081526020819052604090205481811015610b615760405163391434e360e21b81526001600160a01b0385166004820152602481018290526044810183905260640161047d565b6001600160a01b03841660009081526020819052604090209082900390555b6001600160a01b038216610b9c57600280548290039055610bbb565b6001600160a01b03821660009081526020819052604090208054820190555b816001600160a01b0316836001600160a01b03167fddf252ad1be2c89b69c2b068fc378daa952ba7f163c4a11628f55a4df523b3ef83604051610c0091815260200190565b60405180910390a3505050565b60005b83811015610c28578181015183820152602001610c10565b50506000910152565b60008151808452610c49816020860160208601610c0d565b601f01601f19169290920160200192915050565b602081526000610c706020830184610c31565b9392505050565b80356001600160a01b0381168114610c8e57600080fd5b919050565b60008060408385031215610ca657600080fd5b610caf83610c77565b946020939093013593505050565b600080600060608486031215610cd257600080fd5b610cdb84610c77565b9250610ce960208501610c77565b929592945050506040919091013590565b60008060008060608587031215610d1057600080fd5b610d1985610c77565b935060208501359250604085013567ffffffffffffffff811115610d3c57600080fd5b8501601f81018713610d4d57600080fd5b803567ffffffffffffffff811115610d6457600080fd5b876020828401011115610d7657600080fd5b949793965060200194505050565b600060208284031215610d9657600080fd5b610c7082610c77565b634e487b7160e01b600052604160045260246000fd5b803560ff81168114610c8e57600080fd5b60008060008060808587031215610ddc57600080fd5b843567ffffffffffffffff811115610df357600080fd5b8501601f81018713610e0457600080fd5b803567ffffffffffffffff811115610e1e57610e1e610d9f565b604051601f8201601f19908116603f0116810167ffffffffffffffff81118282101715610e4d57610e4d610d9f565b604052818152828201602001891015610e6557600080fd5b81602084016020830137600060208383010152809650505050610e8a60208601610db5565b93969395505050506040820135916060013590565b60008060008060808587031215610eb557600080fd5b610ebe85610c77565b9350610e8a60208601610c77565b600080600080600080600060e0888a031215610ee757600080fd5b610ef088610c77565b9650610efe60208901610c77565b95506040880135945060608801359350610f1a60808901610db5565b9699959850939692959460a0840135945060c09093013592915050565b60008060408385031215610f4a57600080fd5b610f5383610c77565b9150610f6160208401610c77565b90509250929050565b600181811c90821680610f7e57607f821691505b602082108103610f9e57634e487b7160e01b600052602260045260246000fd5b50919050565b60008251610fb6818460208701610c0d565b9190910192915050565b634e487b7160e01b600052601160045260246000fd5b600060018201610fe857610fe8610fc0565b5060010190565b6001600160a01b038581168252841660208201526040810183905260806060820181905260009061102290830184610c31565b9695505050505050565b60006020828403121561103e57600080fd5b81516001600160e01b031981168114610c7057600080fd5b8082018082111561040c5761040c610fc056fea2646970667358221220adbbab912849758ee08d3bc4531751957d580d106dbee0608d2e19cd1c0eacbf64736f6c634300081a0033","linkReferences":{}},"methodIdentifiers":{"DOMAIN_SEPARATOR()":"3644e515","PERMIT_TYPEHASH()":"30adf81f","allowance(address,address)":"dd62ed3e","approve(address,uint256)":"095ea7b3","balanceOf(address)":"70a08231","decimals()":"313ce567","getDigest(address,address,uint256,uint256)":"bba76a05","mint()":"1249c58b","name()":"06fdde03","nonces(address)":"7ecebe00","permit(address,address,uint256,uint256,uint8,bytes32,bytes32)":"d505accf","simplePermit(string,uint8,bytes32,bytes32)":"92d1930e","symbol()":"95d89b41","totalSupply()":"18160ddd","transfer(address,uint256)":"a9059cbb","transferAndCall(address,uint256,bytes)":"4000aea0","transferFrom(address,address,uint256)":"23b872dd"},"id":31}