{
	"src/AirDropNFTMarket.sol": {
		"AirDropNFTMarket": {
			"abi": [
				{
					"inputs": [
						{
							"internalType": "address",
							"name": "_hulioTokenAddr",
							"type": "address"
						},
						{
							"internalType": "address",
							"name": "_hulioNFTAddr",
							"type": "address"
						}
					],
					"stateMutability": "nonpayable",
					"type": "constructor"
				},
				{
					"inputs": [
						{
							"internalType": "address",
							"name": "nftAddr",
							"type": "address"
						},
						{
							"internalType": "uint256",
							"name": "nftId",
							"type": "uint256"
						},
						{
							"internalType": "bytes32[]",
							"name": "proof",
							"type": "bytes32[]"
						},
						{
							"internalType": "bool[]",
							"name": "left",
							"type": "bool[]"
						}
					],
					"name": "airDropBuy",
					"outputs": [],
					"stateMutability": "nonpayable",
					"type": "function"
				},
				{
					"inputs": [
						{
							"internalType": "bytes",
							"name": "data",
							"type": "bytes"
						}
					],
					"name": "bytesToAddrAndUint",
					"outputs": [
						{
							"internalType": "address",
							"name": "",
							"type": "address"
						},
						{
							"internalType": "uint256",
							"name": "",
							"type": "uint256"
						}
					],
					"stateMutability": "pure",
					"type": "function"
				},
				{
					"inputs": [
						{
							"internalType": "uint256",
							"name": "",
							"type": "uint256"
						}
					],
					"name": "market",
					"outputs": [
						{
							"internalType": "address",
							"name": "nft",
							"type": "address"
						},
						{
							"internalType": "uint256",
							"name": "nftId",
							"type": "uint256"
						},
						{
							"internalType": "uint256",
							"name": "priceInHulioToken",
							"type": "uint256"
						}
					],
					"stateMutability": "view",
					"type": "function"
				},
				{
					"inputs": [],
					"name": "merkelRootHash",
					"outputs": [
						{
							"internalType": "bytes32",
							"name": "",
							"type": "bytes32"
						}
					],
					"stateMutability": "view",
					"type": "function"
				},
				{
					"inputs": [
						{
							"internalType": "address",
							"name": "",
							"type": "address"
						},
						{
							"internalType": "uint256",
							"name": "",
							"type": "uint256"
						}
					],
					"name": "nftInfoToMarketId",
					"outputs": [
						{
							"internalType": "uint256",
							"name": "",
							"type": "uint256"
						}
					],
					"stateMutability": "view",
					"type": "function"
				},
				{
					"inputs": [
						{
							"internalType": "address",
							"name": "",
							"type": "address"
						},
						{
							"internalType": "uint256",
							"name": "",
							"type": "uint256"
						}
					],
					"name": "nftInfoToSalerAccount",
					"outputs": [
						{
							"internalType": "address",
							"name": "",
							"type": "address"
						}
					],
					"stateMutability": "view",
					"type": "function"
				},
				{
					"inputs": [
						{
							"internalType": "address",
							"name": "",
							"type": "address"
						},
						{
							"internalType": "address",
							"name": "from",
							"type": "address"
						},
						{
							"internalType": "uint256",
							"name": "tokenId",
							"type": "uint256"
						},
						{
							"internalType": "bytes",
							"name": "data",
							"type": "bytes"
						}
					],
					"name": "onERC721Received",
					"outputs": [
						{
							"internalType": "bytes4",
							"name": "",
							"type": "bytes4"
						}
					],
					"stateMutability": "nonpayable",
					"type": "function"
				},
				{
					"inputs": [
						{
							"internalType": "bytes32",
							"name": "rootHash",
							"type": "bytes32"
						}
					],
					"name": "setMerkelRootHahs",
					"outputs": [],
					"stateMutability": "nonpayable",
					"type": "function"
				},
				{
					"inputs": [
						{
							"internalType": "address",
							"name": "nftAddr",
							"type": "address"
						},
						{
							"internalType": "uint256",
							"name": "nftId",
							"type": "uint256"
						}
					],
					"name": "unsale",
					"outputs": [],
					"stateMutability": "nonpayable",
					"type": "function"
				},
				{
					"inputs": [
						{
							"internalType": "bytes32[]",
							"name": "proof",
							"type": "bytes32[]"
						},
						{
							"internalType": "bool[]",
							"name": "left",
							"type": "bool[]"
						},
						{
							"internalType": "bytes32",
							"name": "leaf",
							"type": "bytes32"
						}
					],
					"name": "verify",
					"outputs": [],
					"stateMutability": "view",
					"type": "function"
				}
			],
			"devdoc": {
				"kind": "dev",
				"methods": {},
				"version": 1
			},
			"evm": {
				"assembly": "    /* \"src/AirDropNFTMarket.sol\":308:5400  contract AirDropNFTMarket is IERC721Receiver {... */\n  mstore(0x40, 0x80)\n    /* \"src/AirDropNFTMarket.sol\":626:862  constructor(address _hulioTokenAddr, address _hulioNFTAddr) {... */\n  callvalue\n  dup1\n  iszero\n  tag_1\n  jumpi\n  0x00\n  dup1\n  revert\ntag_1:\n  pop\n  mload(0x40)\n  sub(codesize, bytecodeSize)\n  dup1\n  bytecodeSize\n  dup4\n  codecopy\n  dup2\n  dup2\n  add\n  0x40\n  mstore\n  dup2\n  add\n  swap1\n  tag_2\n  swap2\n  swap1\n  tag_3\n  jump\t// in\ntag_2:\n    /* \"src/AirDropNFTMarket.sol\":713:728  _hulioTokenAddr */\n  dup2\n    /* \"src/AirDropNFTMarket.sol\":696:710  hulioTokenAddr */\n  0x01\n  0x00\n    /* \"src/AirDropNFTMarket.sol\":696:728  hulioTokenAddr = _hulioTokenAddr */\n  0x0100\n  exp\n  dup2\n  sload\n  dup2\n  0xffffffffffffffffffffffffffffffffffffffff\n  mul\n  not\n  and\n  swap1\n  dup4\n  0xffffffffffffffffffffffffffffffffffffffff\n  and\n  mul\n  or\n  swap1\n  sstore\n  pop\n    /* \"src/AirDropNFTMarket.sol\":758:773  _hulioTokenAddr */\n  dup2\n    /* \"src/AirDropNFTMarket.sol\":738:748  hulioToken */\n  0x00\n  dup1\n    /* \"src/AirDropNFTMarket.sol\":738:774  hulioToken = IERC20(_hulioTokenAddr) */\n  0x0100\n  exp\n  dup2\n  sload\n  dup2\n  0xffffffffffffffffffffffffffffffffffffffff\n  mul\n  not\n  and\n  swap1\n  dup4\n  0xffffffffffffffffffffffffffffffffffffffff\n  and\n  mul\n  or\n  swap1\n  sstore\n  pop\n    /* \"src/AirDropNFTMarket.sol\":803:816  _hulioNFTAddr */\n  dup1\n    /* \"src/AirDropNFTMarket.sol\":784:792  hulioNFT */\n  0x02\n  0x00\n    /* \"src/AirDropNFTMarket.sol\":784:817  hulioNFT = IERC721(_hulioNFTAddr) */\n  0x0100\n  exp\n  dup2\n  sload\n  dup2\n  0xffffffffffffffffffffffffffffffffffffffff\n  mul\n  not\n  and\n  swap1\n  dup4\n  0xffffffffffffffffffffffffffffffffffffffff\n  and\n  mul\n  or\n  swap1\n  sstore\n  pop\n    /* \"src/AirDropNFTMarket.sol\":842:855  _hulioNFTAddr */\n  dup1\n    /* \"src/AirDropNFTMarket.sol\":827:839  hulioNFTAddr */\n  0x03\n  0x00\n    /* \"src/AirDropNFTMarket.sol\":827:855  hulioNFTAddr = _hulioNFTAddr */\n  0x0100\n  exp\n  dup2\n  sload\n  dup2\n  0xffffffffffffffffffffffffffffffffffffffff\n  mul\n  not\n  and\n  swap1\n  dup4\n  0xffffffffffffffffffffffffffffffffffffffff\n  and\n  mul\n  or\n  swap1\n  sstore\n  pop\n    /* \"src/AirDropNFTMarket.sol\":626:862  constructor(address _hulioTokenAddr, address _hulioNFTAddr) {... */\n  pop\n  pop\n    /* \"src/AirDropNFTMarket.sol\":308:5400  contract AirDropNFTMarket is IERC721Receiver {... */\n  jump(tag_6)\n    /* \"#utility.yul\":88:205   */\ntag_8:\n    /* \"#utility.yul\":197:198   */\n  0x00\n    /* \"#utility.yul\":194:195   */\n  dup1\n    /* \"#utility.yul\":187:199   */\n  revert\n    /* \"#utility.yul\":334:460   */\ntag_10:\n    /* \"#utility.yul\":371:378   */\n  0x00\n    /* \"#utility.yul\":411:453   */\n  0xffffffffffffffffffffffffffffffffffffffff\n    /* \"#utility.yul\":404:409   */\n  dup3\n    /* \"#utility.yul\":400:454   */\n  and\n    /* \"#utility.yul\":389:454   */\n  swap1\n  pop\n    /* \"#utility.yul\":334:460   */\n  swap2\n  swap1\n  pop\n  jump\t// out\n    /* \"#utility.yul\":466:562   */\ntag_11:\n    /* \"#utility.yul\":503:510   */\n  0x00\n    /* \"#utility.yul\":532:556   */\n  tag_20\n    /* \"#utility.yul\":550:555   */\n  dup3\n    /* \"#utility.yul\":532:556   */\n  tag_10\n  jump\t// in\ntag_20:\n    /* \"#utility.yul\":521:556   */\n  swap1\n  pop\n    /* \"#utility.yul\":466:562   */\n  swap2\n  swap1\n  pop\n  jump\t// out\n    /* \"#utility.yul\":568:690   */\ntag_12:\n    /* \"#utility.yul\":641:665   */\n  tag_22\n    /* \"#utility.yul\":659:664   */\n  dup2\n    /* \"#utility.yul\":641:665   */\n  tag_11\n  jump\t// in\ntag_22:\n    /* \"#utility.yul\":634:639   */\n  dup2\n    /* \"#utility.yul\":631:666   */\n  eq\n    /* \"#utility.yul\":621:684   */\n  tag_23\n  jumpi\n    /* \"#utility.yul\":680:681   */\n  0x00\n    /* \"#utility.yul\":677:678   */\n  dup1\n    /* \"#utility.yul\":670:682   */\n  revert\n    /* \"#utility.yul\":621:684   */\ntag_23:\n    /* \"#utility.yul\":568:690   */\n  pop\n  jump\t// out\n    /* \"#utility.yul\":696:839   */\ntag_13:\n    /* \"#utility.yul\":753:758   */\n  0x00\n    /* \"#utility.yul\":784:790   */\n  dup2\n    /* \"#utility.yul\":778:791   */\n  mload\n    /* \"#utility.yul\":769:791   */\n  swap1\n  pop\n    /* \"#utility.yul\":800:833   */\n  tag_25\n    /* \"#utility.yul\":827:832   */\n  dup2\n    /* \"#utility.yul\":800:833   */\n  tag_12\n  jump\t// in\ntag_25:\n    /* \"#utility.yul\":696:839   */\n  swap3\n  swap2\n  pop\n  pop\n  jump\t// out\n    /* \"#utility.yul\":845:1352   */\ntag_3:\n    /* \"#utility.yul\":924:930   */\n  0x00\n    /* \"#utility.yul\":932:938   */\n  dup1\n    /* \"#utility.yul\":981:983   */\n  0x40\n    /* \"#utility.yul\":969:978   */\n  dup4\n    /* \"#utility.yul\":960:967   */\n  dup6\n    /* \"#utility.yul\":956:979   */\n  sub\n    /* \"#utility.yul\":952:984   */\n  slt\n    /* \"#utility.yul\":949:1068   */\n  iszero\n  tag_27\n  jumpi\n    /* \"#utility.yul\":987:1066   */\n  tag_28\n  tag_8\n  jump\t// in\ntag_28:\n    /* \"#utility.yul\":949:1068   */\ntag_27:\n    /* \"#utility.yul\":1107:1108   */\n  0x00\n    /* \"#utility.yul\":1132:1196   */\n  tag_29\n    /* \"#utility.yul\":1188:1195   */\n  dup6\n    /* \"#utility.yul\":1179:1185   */\n  dup3\n    /* \"#utility.yul\":1168:1177   */\n  dup7\n    /* \"#utility.yul\":1164:1186   */\n  add\n    /* \"#utility.yul\":1132:1196   */\n  tag_13\n  jump\t// in\ntag_29:\n    /* \"#utility.yul\":1122:1196   */\n  swap3\n  pop\n    /* \"#utility.yul\":1078:1206   */\n  pop\n    /* \"#utility.yul\":1245:1247   */\n  0x20\n    /* \"#utility.yul\":1271:1335   */\n  tag_30\n    /* \"#utility.yul\":1327:1334   */\n  dup6\n    /* \"#utility.yul\":1318:1324   */\n  dup3\n    /* \"#utility.yul\":1307:1316   */\n  dup7\n    /* \"#utility.yul\":1303:1325   */\n  add\n    /* \"#utility.yul\":1271:1335   */\n  tag_13\n  jump\t// in\ntag_30:\n    /* \"#utility.yul\":1261:1335   */\n  swap2\n  pop\n    /* \"#utility.yul\":1216:1345   */\n  pop\n    /* \"#utility.yul\":845:1352   */\n  swap3\n  pop\n  swap3\n  swap1\n  pop\n  jump\t// out\n    /* \"src/AirDropNFTMarket.sol\":308:5400  contract AirDropNFTMarket is IERC721Receiver {... */\ntag_6:\n  dataSize(sub_0)\n  dup1\n  dataOffset(sub_0)\n  0x00\n  codecopy\n  0x00\n  return\nstop\n\nsub_0: assembly {\n        /* \"src/AirDropNFTMarket.sol\":308:5400  contract AirDropNFTMarket is IERC721Receiver {... */\n      mstore(0x40, 0x80)\n      callvalue\n      dup1\n      iszero\n      tag_1\n      jumpi\n      0x00\n      dup1\n      revert\n    tag_1:\n      pop\n      jumpi(tag_2, lt(calldatasize, 0x04))\n      shr(0xe0, calldataload(0x00))\n      dup1\n      0x50e6bafc\n      gt\n      tag_13\n      jumpi\n      dup1\n      0x50e6bafc\n      eq\n      tag_8\n      jumpi\n      dup1\n      0x5764351f\n      eq\n      tag_9\n      jumpi\n      dup1\n      0x7f6a645f\n      eq\n      tag_10\n      jumpi\n      dup1\n      0xcee81dc5\n      eq\n      tag_11\n      jumpi\n      dup1\n      0xe8900e12\n      eq\n      tag_12\n      jumpi\n      jump(tag_2)\n    tag_13:\n      dup1\n      0x10638d1e\n      eq\n      tag_3\n      jumpi\n      dup1\n      0x124af571\n      eq\n      tag_4\n      jumpi\n      dup1\n      0x150b7a02\n      eq\n      tag_5\n      jumpi\n      dup1\n      0x28861d22\n      eq\n      tag_6\n      jumpi\n      dup1\n      0x3b00f99f\n      eq\n      tag_7\n      jumpi\n    tag_2:\n      0x00\n      dup1\n      revert\n        /* \"src/AirDropNFTMarket.sol\":3138:4162  function airDropBuy(... */\n    tag_3:\n      tag_14\n      0x04\n      dup1\n      calldatasize\n      sub\n      dup2\n      add\n      swap1\n      tag_15\n      swap2\n      swap1\n      tag_16\n      jump\t// in\n    tag_15:\n      tag_17\n      jump\t// in\n    tag_14:\n      stop\n        /* \"src/AirDropNFTMarket.sol\":4742:5398  function verify(... */\n    tag_4:\n      tag_18\n      0x04\n      dup1\n      calldatasize\n      sub\n      dup2\n      add\n      swap1\n      tag_19\n      swap2\n      swap1\n      tag_20\n      jump\t// in\n    tag_19:\n      tag_21\n      jump\t// in\n    tag_18:\n      stop\n        /* \"src/AirDropNFTMarket.sol\":1495:2088  function onERC721Received(... */\n    tag_5:\n      tag_22\n      0x04\n      dup1\n      calldatasize\n      sub\n      dup2\n      add\n      swap1\n      tag_23\n      swap2\n      swap1\n      tag_24\n      jump\t// in\n    tag_23:\n      tag_25\n      jump\t// in\n    tag_22:\n      mload(0x40)\n      tag_26\n      swap2\n      swap1\n      tag_27\n      jump\t// in\n    tag_26:\n      mload(0x40)\n      dup1\n      swap2\n      sub\n      swap1\n      return\n        /* \"src/AirDropNFTMarket.sol\":1100:1124  SaleInfo[] public market */\n    tag_6:\n      tag_28\n      0x04\n      dup1\n      calldatasize\n      sub\n      dup2\n      add\n      swap1\n      tag_29\n      swap2\n      swap1\n      tag_30\n      jump\t// in\n    tag_29:\n      tag_31\n      jump\t// in\n    tag_28:\n      mload(0x40)\n      tag_32\n      swap4\n      swap3\n      swap2\n      swap1\n      tag_33\n      jump\t// in\n    tag_32:\n      mload(0x40)\n      dup1\n      swap2\n      sub\n      swap1\n      return\n        /* \"src/AirDropNFTMarket.sol\":526:620  function setMerkelRootHahs(bytes32 rootHash) public {... */\n    tag_7:\n      tag_34\n      0x04\n      dup1\n      calldatasize\n      sub\n      dup2\n      add\n      swap1\n      tag_35\n      swap2\n      swap1\n      tag_36\n      jump\t// in\n    tag_35:\n      tag_37\n      jump\t// in\n    tag_34:\n      stop\n        /* \"src/AirDropNFTMarket.sol\":490:519  bytes32 public merkelRootHash */\n    tag_8:\n      tag_38\n      tag_39\n      jump\t// in\n    tag_38:\n      mload(0x40)\n      tag_40\n      swap2\n      swap1\n      tag_41\n      jump\t// in\n    tag_40:\n      mload(0x40)\n      dup1\n      swap2\n      sub\n      swap1\n      return\n        /* \"src/AirDropNFTMarket.sol\":1305:1378  mapping(address => mapping(uint => address)) public nftInfoToSalerAccount */\n    tag_9:\n      tag_42\n      0x04\n      dup1\n      calldatasize\n      sub\n      dup2\n      add\n      swap1\n      tag_43\n      swap2\n      swap1\n      tag_44\n      jump\t// in\n    tag_43:\n      tag_45\n      jump\t// in\n    tag_42:\n      mload(0x40)\n      tag_46\n      swap2\n      swap1\n      tag_47\n      jump\t// in\n    tag_46:\n      mload(0x40)\n      dup1\n      swap2\n      sub\n      swap1\n      return\n        /* \"src/AirDropNFTMarket.sol\":1180:1252  mapping(address => mapping(uint256 => uint256)) public nftInfoToMarketId */\n    tag_10:\n      tag_48\n      0x04\n      dup1\n      calldatasize\n      sub\n      dup2\n      add\n      swap1\n      tag_49\n      swap2\n      swap1\n      tag_44\n      jump\t// in\n    tag_49:\n      tag_50\n      jump\t// in\n    tag_48:\n      mload(0x40)\n      tag_51\n      swap2\n      swap1\n      tag_52\n      jump\t// in\n    tag_51:\n      mload(0x40)\n      dup1\n      swap2\n      sub\n      swap1\n      return\n        /* \"src/AirDropNFTMarket.sol\":2107:3101  function unsale(address nftAddr, uint nftId) public {... */\n    tag_11:\n      tag_53\n      0x04\n      dup1\n      calldatasize\n      sub\n      dup2\n      add\n      swap1\n      tag_54\n      swap2\n      swap1\n      tag_44\n      jump\t// in\n    tag_54:\n      tag_55\n      jump\t// in\n    tag_53:\n      stop\n        /* \"src/AirDropNFTMarket.sol\":4371:4657  function bytesToAddrAndUint(... */\n    tag_12:\n      tag_56\n      0x04\n      dup1\n      calldatasize\n      sub\n      dup2\n      add\n      swap1\n      tag_57\n      swap2\n      swap1\n      tag_58\n      jump\t// in\n    tag_57:\n      tag_59\n      jump\t// in\n    tag_56:\n      mload(0x40)\n      tag_60\n      swap3\n      swap2\n      swap1\n      tag_61\n      jump\t// in\n    tag_60:\n      mload(0x40)\n      dup1\n      swap2\n      sub\n      swap1\n      return\n        /* \"src/AirDropNFTMarket.sol\":3138:4162  function airDropBuy(... */\n    tag_17:\n        /* \"src/AirDropNFTMarket.sol\":3318:3378  verify(proof, left, keccak256(abi.encodePacked(msg.sender))) */\n      tag_63\n        /* \"src/AirDropNFTMarket.sol\":3325:3330  proof */\n      dup3\n        /* \"src/AirDropNFTMarket.sol\":3332:3336  left */\n      dup3\n        /* \"src/AirDropNFTMarket.sol\":3365:3375  msg.sender */\n      caller\n        /* \"src/AirDropNFTMarket.sol\":3348:3376  abi.encodePacked(msg.sender) */\n      add(0x20, mload(0x40))\n      tag_64\n      swap2\n      swap1\n      tag_65\n      jump\t// in\n    tag_64:\n      mload(0x40)\n      0x20\n      dup2\n      dup4\n      sub\n      sub\n      dup2\n      mstore\n      swap1\n      0x40\n      mstore\n        /* \"src/AirDropNFTMarket.sol\":3338:3377  keccak256(abi.encodePacked(msg.sender)) */\n      dup1\n      mload\n      swap1\n      0x20\n      add\n      keccak256\n        /* \"src/AirDropNFTMarket.sol\":3318:3324  verify */\n      tag_21\n        /* \"src/AirDropNFTMarket.sol\":3318:3378  verify(proof, left, keccak256(abi.encodePacked(msg.sender))) */\n      jump\t// in\n    tag_63:\n        /* \"src/AirDropNFTMarket.sol\":3413:3432  uint256 marketIndex */\n      0x00\n        /* \"src/AirDropNFTMarket.sol\":3435:3452  nftInfoToMarketId */\n      0x06\n        /* \"src/AirDropNFTMarket.sol\":3435:3461  nftInfoToMarketId[nftAddr] */\n      0x00\n        /* \"src/AirDropNFTMarket.sol\":3453:3460  nftAddr */\n      dup7\n        /* \"src/AirDropNFTMarket.sol\":3435:3461  nftInfoToMarketId[nftAddr] */\n      0xffffffffffffffffffffffffffffffffffffffff\n      and\n      0xffffffffffffffffffffffffffffffffffffffff\n      and\n      dup2\n      mstore\n      0x20\n      add\n      swap1\n      dup2\n      mstore\n      0x20\n      add\n      0x00\n      keccak256\n        /* \"src/AirDropNFTMarket.sol\":3435:3468  nftInfoToMarketId[nftAddr][nftId] */\n      0x00\n        /* \"src/AirDropNFTMarket.sol\":3462:3467  nftId */\n      dup6\n        /* \"src/AirDropNFTMarket.sol\":3435:3468  nftInfoToMarketId[nftAddr][nftId] */\n      dup2\n      mstore\n      0x20\n      add\n      swap1\n      dup2\n      mstore\n      0x20\n      add\n      0x00\n      keccak256\n      sload\n        /* \"src/AirDropNFTMarket.sol\":3413:3468  uint256 marketIndex = nftInfoToMarketId[nftAddr][nftId] */\n      swap1\n      pop\n        /* \"src/AirDropNFTMarket.sol\":3478:3502  SaleInfo memory saleInfo */\n      0x00\n        /* \"src/AirDropNFTMarket.sol\":3505:3511  market */\n      0x05\n        /* \"src/AirDropNFTMarket.sol\":3512:3523  marketIndex */\n      dup3\n        /* \"src/AirDropNFTMarket.sol\":3505:3524  market[marketIndex] */\n      dup2\n      sload\n      dup2\n      lt\n      tag_66\n      jumpi\n      tag_67\n      tag_68\n      jump\t// in\n    tag_67:\n    tag_66:\n      swap1\n      0x00\n      mstore\n      keccak256(0x00, 0x20)\n      swap1\n      0x03\n      mul\n      add\n        /* \"src/AirDropNFTMarket.sol\":3478:3524  SaleInfo memory saleInfo = market[marketIndex] */\n      mload(0x40)\n      dup1\n      0x60\n      add\n      0x40\n      mstore\n      swap1\n      dup2\n      0x00\n      dup3\n      add\n      0x00\n      swap1\n      sload\n      swap1\n      0x0100\n      exp\n      swap1\n      div\n      0xffffffffffffffffffffffffffffffffffffffff\n      and\n      0xffffffffffffffffffffffffffffffffffffffff\n      and\n      0xffffffffffffffffffffffffffffffffffffffff\n      and\n      dup2\n      mstore\n      0x20\n      add\n      0x01\n      dup3\n      add\n      sload\n      dup2\n      mstore\n      0x20\n      add\n      0x02\n      dup3\n      add\n      sload\n      dup2\n      mstore\n      pop\n      pop\n      swap1\n      pop\n        /* \"src/AirDropNFTMarket.sol\":3559:3582  bytes memory invokeData */\n      0x00\n        /* \"src/AirDropNFTMarket.sol\":3670:3674  this */\n      address\n        /* \"src/AirDropNFTMarket.sol\":3718:3719  2 */\n      0x02\n        /* \"src/AirDropNFTMarket.sol\":3689:3697  saleInfo */\n      dup4\n        /* \"src/AirDropNFTMarket.sol\":3689:3715  saleInfo.priceInHulioToken */\n      0x40\n      add\n      mload\n        /* \"src/AirDropNFTMarket.sol\":3689:3719  saleInfo.priceInHulioToken / 2 */\n      tag_70\n      swap2\n      swap1\n      tag_71\n      jump\t// in\n    tag_70:\n        /* \"src/AirDropNFTMarket.sol\":3585:3729  abi.encodeWithSignature(... */\n      add(0x24, mload(0x40))\n      tag_72\n      swap3\n      swap2\n      swap1\n      tag_61\n      jump\t// in\n    tag_72:\n      mload(0x40)\n      0x20\n      dup2\n      dup4\n      sub\n      sub\n      dup2\n      mstore\n      swap1\n      0x40\n      mstore\n      and(not(0xffffffffffffffffffffffffffffffffffffffffffffffffffffffff), 0x095ea7b300000000000000000000000000000000000000000000000000000000)\n      0x20\n      dup3\n      add\n      dup1\n      mload\n      0xffffffffffffffffffffffffffffffffffffffffffffffffffffffff\n      dup4\n      dup2\n      dup4\n      and\n      or\n      dup4\n      mstore\n      pop\n      pop\n      pop\n      pop\n        /* \"src/AirDropNFTMarket.sol\":3559:3729  bytes memory invokeData = abi.encodeWithSignature(... */\n      swap1\n      pop\n        /* \"src/AirDropNFTMarket.sol\":3740:3752  bool success */\n      0x00\n        /* \"src/AirDropNFTMarket.sol\":3758:3772  hulioTokenAddr */\n      0x01\n      0x00\n      swap1\n      sload\n      swap1\n      0x0100\n      exp\n      swap1\n      div\n      0xffffffffffffffffffffffffffffffffffffffff\n      and\n        /* \"src/AirDropNFTMarket.sol\":3758:3785  hulioTokenAddr.delegatecall */\n      0xffffffffffffffffffffffffffffffffffffffff\n      and\n        /* \"src/AirDropNFTMarket.sol\":3786:3796  invokeData */\n      dup3\n        /* \"src/AirDropNFTMarket.sol\":3758:3797  hulioTokenAddr.delegatecall(invokeData) */\n      mload(0x40)\n      tag_73\n      swap2\n      swap1\n      tag_74\n      jump\t// in\n    tag_73:\n      0x00\n      mload(0x40)\n      dup1\n      dup4\n      sub\n      dup2\n      dup6\n      gas\n      delegatecall\n      swap2\n      pop\n      pop\n      returndatasize\n      dup1\n      0x00\n      dup2\n      eq\n      tag_77\n      jumpi\n      mload(0x40)\n      swap2\n      pop\n      and(add(returndatasize, 0x3f), not(0x1f))\n      dup3\n      add\n      0x40\n      mstore\n      returndatasize\n      dup3\n      mstore\n      returndatasize\n      0x00\n      0x20\n      dup5\n      add\n      returndatacopy\n      jump(tag_76)\n    tag_77:\n      0x60\n      swap2\n      pop\n    tag_76:\n      pop\n        /* \"src/AirDropNFTMarket.sol\":3739:3797  (bool success, ) = hulioTokenAddr.delegatecall(invokeData) */\n      pop\n      swap1\n      pop\n        /* \"src/AirDropNFTMarket.sol\":3815:3822  success */\n      dup1\n        /* \"src/AirDropNFTMarket.sol\":3807:3845  require(success, \"approve erc20 fail\") */\n      tag_78\n      jumpi\n      mload(0x40)\n      0x08c379a000000000000000000000000000000000000000000000000000000000\n      dup2\n      mstore\n      0x04\n      add\n      tag_79\n      swap1\n      tag_80\n      jump\t// in\n    tag_79:\n      mload(0x40)\n      dup1\n      swap2\n      sub\n      swap1\n      revert\n    tag_78:\n        /* \"src/AirDropNFTMarket.sol\":3876:3889  address saler */\n      0x00\n        /* \"src/AirDropNFTMarket.sol\":3892:3913  nftInfoToSalerAccount */\n      0x07\n        /* \"src/AirDropNFTMarket.sol\":3892:3922  nftInfoToSalerAccount[nftAddr] */\n      0x00\n        /* \"src/AirDropNFTMarket.sol\":3914:3921  nftAddr */\n      dup11\n        /* \"src/AirDropNFTMarket.sol\":3892:3922  nftInfoToSalerAccount[nftAddr] */\n      0xffffffffffffffffffffffffffffffffffffffff\n      and\n      0xffffffffffffffffffffffffffffffffffffffff\n      and\n      dup2\n      mstore\n      0x20\n      add\n      swap1\n      dup2\n      mstore\n      0x20\n      add\n      0x00\n      keccak256\n        /* \"src/AirDropNFTMarket.sol\":3892:3929  nftInfoToSalerAccount[nftAddr][nftId] */\n      0x00\n        /* \"src/AirDropNFTMarket.sol\":3923:3928  nftId */\n      dup10\n        /* \"src/AirDropNFTMarket.sol\":3892:3929  nftInfoToSalerAccount[nftAddr][nftId] */\n      dup2\n      mstore\n      0x20\n      add\n      swap1\n      dup2\n      mstore\n      0x20\n      add\n      0x00\n      keccak256\n      0x00\n      swap1\n      sload\n      swap1\n      0x0100\n      exp\n      swap1\n      div\n      0xffffffffffffffffffffffffffffffffffffffff\n      and\n        /* \"src/AirDropNFTMarket.sol\":3876:3929  address saler = nftInfoToSalerAccount[nftAddr][nftId] */\n      swap1\n      pop\n        /* \"src/AirDropNFTMarket.sol\":3939:3949  hulioToken */\n      0x00\n      dup1\n      sload\n      swap1\n      0x0100\n      exp\n      swap1\n      div\n      0xffffffffffffffffffffffffffffffffffffffff\n      and\n        /* \"src/AirDropNFTMarket.sol\":3939:3962  hulioToken.transferFrom */\n      0xffffffffffffffffffffffffffffffffffffffff\n      and\n      0x23b872dd\n        /* \"src/AirDropNFTMarket.sol\":3976:3986  msg.sender */\n      caller\n        /* \"src/AirDropNFTMarket.sol\":4000:4005  saler */\n      dup4\n        /* \"src/AirDropNFTMarket.sol\":4048:4049  2 */\n      0x02\n        /* \"src/AirDropNFTMarket.sol\":4019:4027  saleInfo */\n      dup9\n        /* \"src/AirDropNFTMarket.sol\":4019:4045  saleInfo.priceInHulioToken */\n      0x40\n      add\n      mload\n        /* \"src/AirDropNFTMarket.sol\":4019:4049  saleInfo.priceInHulioToken / 2 */\n      tag_81\n      swap2\n      swap1\n      tag_71\n      jump\t// in\n    tag_81:\n        /* \"src/AirDropNFTMarket.sol\":3939:4059  hulioToken.transferFrom(... */\n      mload(0x40)\n      dup5\n      0xffffffff\n      and\n      0xe0\n      shl\n      dup2\n      mstore\n      0x04\n      add\n      tag_82\n      swap4\n      swap3\n      swap2\n      swap1\n      tag_83\n      jump\t// in\n    tag_82:\n      0x20\n      mload(0x40)\n      dup1\n      dup4\n      sub\n      dup2\n      0x00\n      dup8\n      gas\n      call\n      iszero\n      dup1\n      iszero\n      tag_85\n      jumpi\n      returndatasize\n      0x00\n      dup1\n      returndatacopy\n      revert(0x00, returndatasize)\n    tag_85:\n      pop\n      pop\n      pop\n      pop\n      mload(0x40)\n      returndatasize\n      not(0x1f)\n      0x1f\n      dup3\n      add\n      and\n      dup3\n      add\n      dup1\n      0x40\n      mstore\n      pop\n      dup2\n      add\n      swap1\n      tag_86\n      swap2\n      swap1\n      tag_87\n      jump\t// in\n    tag_86:\n      pop\n        /* \"src/AirDropNFTMarket.sol\":4096:4103  nftAddr */\n      dup9\n        /* \"src/AirDropNFTMarket.sol\":4088:4121  IERC721(nftAddr).safeTransferFrom */\n      0xffffffffffffffffffffffffffffffffffffffff\n      and\n      0x42842e0e\n        /* \"src/AirDropNFTMarket.sol\":4130:4134  this */\n      address\n        /* \"src/AirDropNFTMarket.sol\":4137:4147  msg.sender */\n      caller\n        /* \"src/AirDropNFTMarket.sol\":4149:4154  nftId */\n      dup12\n        /* \"src/AirDropNFTMarket.sol\":4088:4155  IERC721(nftAddr).safeTransferFrom(address(this), msg.sender, nftId) */\n      mload(0x40)\n      dup5\n      0xffffffff\n      and\n      0xe0\n      shl\n      dup2\n      mstore\n      0x04\n      add\n      tag_88\n      swap4\n      swap3\n      swap2\n      swap1\n      tag_83\n      jump\t// in\n    tag_88:\n      0x00\n      mload(0x40)\n      dup1\n      dup4\n      sub\n      dup2\n      0x00\n      dup8\n      dup1\n      extcodesize\n      iszero\n      dup1\n      iszero\n      tag_89\n      jumpi\n      0x00\n      dup1\n      revert\n    tag_89:\n      pop\n      gas\n      call\n      iszero\n      dup1\n      iszero\n      tag_91\n      jumpi\n      returndatasize\n      0x00\n      dup1\n      returndatacopy\n      revert(0x00, returndatasize)\n    tag_91:\n      pop\n      pop\n      pop\n      pop\n        /* \"src/AirDropNFTMarket.sol\":3279:4162  {... */\n      pop\n      pop\n      pop\n      pop\n      pop\n        /* \"src/AirDropNFTMarket.sol\":3138:4162  function airDropBuy(... */\n      pop\n      pop\n      pop\n      pop\n      jump\t// out\n        /* \"src/AirDropNFTMarket.sol\":4742:5398  function verify(... */\n    tag_21:\n        /* \"src/AirDropNFTMarket.sol\":4868:4888  bytes32 computedHash */\n      0x00\n        /* \"src/AirDropNFTMarket.sol\":4891:4895  leaf */\n      dup2\n        /* \"src/AirDropNFTMarket.sol\":4868:4895  bytes32 computedHash = leaf */\n      swap1\n      pop\n        /* \"src/AirDropNFTMarket.sol\":4911:4920  uint256 i */\n      0x00\n        /* \"src/AirDropNFTMarket.sol\":4906:5320  for (uint256 i = 0; i < proof.length; i++) {... */\n    tag_93:\n        /* \"src/AirDropNFTMarket.sol\":4930:4935  proof */\n      dup5\n        /* \"src/AirDropNFTMarket.sol\":4930:4942  proof.length */\n      mload\n        /* \"src/AirDropNFTMarket.sol\":4926:4927  i */\n      dup2\n        /* \"src/AirDropNFTMarket.sol\":4926:4942  i < proof.length */\n      lt\n        /* \"src/AirDropNFTMarket.sol\":4906:5320  for (uint256 i = 0; i < proof.length; i++) {... */\n      iszero\n      tag_94\n      jumpi\n        /* \"src/AirDropNFTMarket.sol\":4963:4983  bytes32 proofElement */\n      0x00\n        /* \"src/AirDropNFTMarket.sol\":4986:4991  proof */\n      dup6\n        /* \"src/AirDropNFTMarket.sol\":4992:4993  i */\n      dup3\n        /* \"src/AirDropNFTMarket.sol\":4986:4994  proof[i] */\n      dup2\n      mload\n      dup2\n      lt\n      tag_96\n      jumpi\n      tag_97\n      tag_68\n      jump\t// in\n    tag_97:\n    tag_96:\n      0x20\n      mul\n      0x20\n      add\n      add\n      mload\n        /* \"src/AirDropNFTMarket.sol\":4963:4994  bytes32 proofElement = proof[i] */\n      swap1\n      pop\n        /* \"src/AirDropNFTMarket.sol\":5013:5017  left */\n      dup5\n        /* \"src/AirDropNFTMarket.sol\":5018:5019  i */\n      dup3\n        /* \"src/AirDropNFTMarket.sol\":5013:5020  left[i] */\n      dup2\n      mload\n      dup2\n      lt\n      tag_98\n      jumpi\n      tag_99\n      tag_68\n      jump\t// in\n    tag_99:\n    tag_98:\n      0x20\n      mul\n      0x20\n      add\n      add\n      mload\n        /* \"src/AirDropNFTMarket.sol\":5009:5310  if (left[i]) {... */\n      iszero\n      tag_100\n      jumpi\n        /* \"src/AirDropNFTMarket.sol\":5103:5115  proofElement */\n      dup1\n        /* \"src/AirDropNFTMarket.sol\":5117:5129  computedHash */\n      dup4\n        /* \"src/AirDropNFTMarket.sol\":5086:5130  abi.encodePacked(proofElement, computedHash) */\n      add(0x20, mload(0x40))\n      tag_101\n      swap3\n      swap2\n      swap1\n      tag_102\n      jump\t// in\n    tag_101:\n      mload(0x40)\n      0x20\n      dup2\n      dup4\n      sub\n      sub\n      dup2\n      mstore\n      swap1\n      0x40\n      mstore\n        /* \"src/AirDropNFTMarket.sol\":5055:5148  keccak256(... */\n      dup1\n      mload\n      swap1\n      0x20\n      add\n      keccak256\n        /* \"src/AirDropNFTMarket.sol\":5040:5148  computedHash = keccak256(... */\n      swap3\n      pop\n        /* \"src/AirDropNFTMarket.sol\":5009:5310  if (left[i]) {... */\n      jump(tag_103)\n    tag_100:\n        /* \"src/AirDropNFTMarket.sol\":5250:5262  computedHash */\n      dup3\n        /* \"src/AirDropNFTMarket.sol\":5264:5276  proofElement */\n      dup2\n        /* \"src/AirDropNFTMarket.sol\":5233:5277  abi.encodePacked(computedHash, proofElement) */\n      add(0x20, mload(0x40))\n      tag_104\n      swap3\n      swap2\n      swap1\n      tag_102\n      jump\t// in\n    tag_104:\n      mload(0x40)\n      0x20\n      dup2\n      dup4\n      sub\n      sub\n      dup2\n      mstore\n      swap1\n      0x40\n      mstore\n        /* \"src/AirDropNFTMarket.sol\":5202:5295  keccak256(... */\n      dup1\n      mload\n      swap1\n      0x20\n      add\n      keccak256\n        /* \"src/AirDropNFTMarket.sol\":5187:5295  computedHash = keccak256(... */\n      swap3\n      pop\n        /* \"src/AirDropNFTMarket.sol\":5009:5310  if (left[i]) {... */\n    tag_103:\n        /* \"src/AirDropNFTMarket.sol\":4949:5320  {... */\n      pop\n        /* \"src/AirDropNFTMarket.sol\":4944:4947  i++ */\n      dup1\n      dup1\n      0x01\n      add\n      swap2\n      pop\n      pop\n        /* \"src/AirDropNFTMarket.sol\":4906:5320  for (uint256 i = 0; i < proof.length; i++) {... */\n      jump(tag_93)\n    tag_94:\n      pop\n        /* \"src/AirDropNFTMarket.sol\":5354:5368  merkelRootHash */\n      sload(0x04)\n        /* \"src/AirDropNFTMarket.sol\":5338:5350  computedHash */\n      dup2\n        /* \"src/AirDropNFTMarket.sol\":5338:5368  computedHash == merkelRootHash */\n      eq\n        /* \"src/AirDropNFTMarket.sol\":5330:5391  require(computedHash == merkelRootHash, \"not air drop user.\") */\n      tag_105\n      jumpi\n      mload(0x40)\n      0x08c379a000000000000000000000000000000000000000000000000000000000\n      dup2\n      mstore\n      0x04\n      add\n      tag_106\n      swap1\n      tag_107\n      jump\t// in\n    tag_106:\n      mload(0x40)\n      dup1\n      swap2\n      sub\n      swap1\n      revert\n    tag_105:\n        /* \"src/AirDropNFTMarket.sol\":4858:5398  {... */\n      pop\n        /* \"src/AirDropNFTMarket.sol\":4742:5398  function verify(... */\n      pop\n      pop\n      pop\n      jump\t// out\n        /* \"src/AirDropNFTMarket.sol\":1495:2088  function onERC721Received(... */\n    tag_25:\n        /* \"src/AirDropNFTMarket.sol\":1662:1668  bytes4 */\n      0x00\n        /* \"src/AirDropNFTMarket.sol\":1709:1722  address saler */\n      dup1\n        /* \"src/AirDropNFTMarket.sol\":1725:1746  nftInfoToSalerAccount */\n      0x07\n        /* \"src/AirDropNFTMarket.sol\":1725:1758  nftInfoToSalerAccount[msg.sender] */\n      0x00\n        /* \"src/AirDropNFTMarket.sol\":1747:1757  msg.sender */\n      caller\n        /* \"src/AirDropNFTMarket.sol\":1725:1758  nftInfoToSalerAccount[msg.sender] */\n      0xffffffffffffffffffffffffffffffffffffffff\n      and\n      0xffffffffffffffffffffffffffffffffffffffff\n      and\n      dup2\n      mstore\n      0x20\n      add\n      swap1\n      dup2\n      mstore\n      0x20\n      add\n      0x00\n      keccak256\n        /* \"src/AirDropNFTMarket.sol\":1725:1767  nftInfoToSalerAccount[msg.sender][tokenId] */\n      0x00\n        /* \"src/AirDropNFTMarket.sol\":1759:1766  tokenId */\n      dup7\n        /* \"src/AirDropNFTMarket.sol\":1725:1767  nftInfoToSalerAccount[msg.sender][tokenId] */\n      dup2\n      mstore\n      0x20\n      add\n      swap1\n      dup2\n      mstore\n      0x20\n      add\n      0x00\n      keccak256\n      0x00\n      swap1\n      sload\n      swap1\n      0x0100\n      exp\n      swap1\n      div\n      0xffffffffffffffffffffffffffffffffffffffff\n      and\n        /* \"src/AirDropNFTMarket.sol\":1709:1767  address saler = nftInfoToSalerAccount[msg.sender][tokenId] */\n      swap1\n      pop\n        /* \"src/AirDropNFTMarket.sol\":1802:1803  0 */\n      0x00\n        /* \"src/AirDropNFTMarket.sol\":1785:1804  saler == address(0) */\n      0xffffffffffffffffffffffffffffffffffffffff\n      and\n        /* \"src/AirDropNFTMarket.sol\":1785:1790  saler */\n      dup2\n        /* \"src/AirDropNFTMarket.sol\":1785:1804  saler == address(0) */\n      0xffffffffffffffffffffffffffffffffffffffff\n      and\n      eq\n        /* \"src/AirDropNFTMarket.sol\":1777:1825  require(saler == address(0), \"already in sale.\") */\n      tag_109\n      jumpi\n      mload(0x40)\n      0x08c379a000000000000000000000000000000000000000000000000000000000\n      dup2\n      mstore\n      0x04\n      add\n      tag_110\n      swap1\n      tag_111\n      jump\t// in\n    tag_110:\n      mload(0x40)\n      dup1\n      swap2\n      sub\n      swap1\n      revert\n    tag_109:\n        /* \"src/AirDropNFTMarket.sol\":1835:1841  market */\n      0x05\n        /* \"src/AirDropNFTMarket.sol\":1847:1895  SaleInfo(msg.sender, tokenId, bytesToUint(data)) */\n      mload(0x40)\n      dup1\n      0x60\n      add\n      0x40\n      mstore\n      dup1\n        /* \"src/AirDropNFTMarket.sol\":1856:1866  msg.sender */\n      caller\n        /* \"src/AirDropNFTMarket.sol\":1847:1895  SaleInfo(msg.sender, tokenId, bytesToUint(data)) */\n      0xffffffffffffffffffffffffffffffffffffffff\n      and\n      dup2\n      mstore\n      0x20\n      add\n        /* \"src/AirDropNFTMarket.sol\":1868:1875  tokenId */\n      dup8\n        /* \"src/AirDropNFTMarket.sol\":1847:1895  SaleInfo(msg.sender, tokenId, bytesToUint(data)) */\n      dup2\n      mstore\n      0x20\n      add\n        /* \"src/AirDropNFTMarket.sol\":1877:1894  bytesToUint(data) */\n      tag_112\n        /* \"src/AirDropNFTMarket.sol\":1889:1893  data */\n      dup8\n      dup8\n        /* \"src/AirDropNFTMarket.sol\":1877:1894  bytesToUint(data) */\n      dup1\n      dup1\n      0x1f\n      add\n      0x20\n      dup1\n      swap2\n      div\n      mul\n      0x20\n      add\n      mload(0x40)\n      swap1\n      dup2\n      add\n      0x40\n      mstore\n      dup1\n      swap4\n      swap3\n      swap2\n      swap1\n      dup2\n      dup2\n      mstore\n      0x20\n      add\n      dup4\n      dup4\n      dup1\n      dup3\n      dup5\n      calldatacopy\n      0x00\n      dup2\n      dup5\n      add\n      mstore\n      not(0x1f)\n      0x1f\n      dup3\n      add\n      and\n      swap1\n      pop\n      dup1\n      dup4\n      add\n      swap3\n      pop\n      pop\n      pop\n      pop\n      pop\n      pop\n      pop\n        /* \"src/AirDropNFTMarket.sol\":1877:1888  bytesToUint */\n      tag_113\n        /* \"src/AirDropNFTMarket.sol\":1877:1894  bytesToUint(data) */\n      jump\t// in\n    tag_112:\n        /* \"src/AirDropNFTMarket.sol\":1847:1895  SaleInfo(msg.sender, tokenId, bytesToUint(data)) */\n      dup2\n      mstore\n      pop\n        /* \"src/AirDropNFTMarket.sol\":1835:1896  market.push(SaleInfo(msg.sender, tokenId, bytesToUint(data))) */\n      swap1\n      dup1\n      0x01\n      dup2\n      sload\n      add\n      dup1\n      dup3\n      sstore\n      dup1\n      swap2\n      pop\n      pop\n      0x01\n      swap1\n      sub\n      swap1\n      0x00\n      mstore\n      keccak256(0x00, 0x20)\n      swap1\n      0x03\n      mul\n      add\n      0x00\n      swap1\n      swap2\n      swap1\n      swap2\n      swap1\n      swap2\n      pop\n      0x00\n      dup3\n      add\n      mload\n      dup2\n      0x00\n      add\n      exp(0x0100, 0x00)\n      dup2\n      sload\n      dup2\n      0xffffffffffffffffffffffffffffffffffffffff\n      mul\n      not\n      and\n      swap1\n      dup4\n      0xffffffffffffffffffffffffffffffffffffffff\n      and\n      mul\n      or\n      swap1\n      sstore\n      pop\n      0x20\n      dup3\n      add\n      mload\n      dup2\n      0x01\n      add\n      sstore\n      0x40\n      dup3\n      add\n      mload\n      dup2\n      0x02\n      add\n      sstore\n      pop\n      pop\n        /* \"src/AirDropNFTMarket.sol\":1963:1964  1 */\n      0x01\n        /* \"src/AirDropNFTMarket.sol\":1947:1953  market */\n      0x05\n        /* \"src/AirDropNFTMarket.sol\":1947:1960  market.length */\n      dup1\n      sload\n      swap1\n      pop\n        /* \"src/AirDropNFTMarket.sol\":1947:1964  market.length - 1 */\n      tag_115\n      swap2\n      swap1\n      tag_116\n      jump\t// in\n    tag_115:\n        /* \"src/AirDropNFTMarket.sol\":1906:1923  nftInfoToMarketId */\n      0x06\n        /* \"src/AirDropNFTMarket.sol\":1906:1935  nftInfoToMarketId[msg.sender] */\n      0x00\n        /* \"src/AirDropNFTMarket.sol\":1924:1934  msg.sender */\n      caller\n        /* \"src/AirDropNFTMarket.sol\":1906:1935  nftInfoToMarketId[msg.sender] */\n      0xffffffffffffffffffffffffffffffffffffffff\n      and\n      0xffffffffffffffffffffffffffffffffffffffff\n      and\n      dup2\n      mstore\n      0x20\n      add\n      swap1\n      dup2\n      mstore\n      0x20\n      add\n      0x00\n      keccak256\n        /* \"src/AirDropNFTMarket.sol\":1906:1944  nftInfoToMarketId[msg.sender][tokenId] */\n      0x00\n        /* \"src/AirDropNFTMarket.sol\":1936:1943  tokenId */\n      dup8\n        /* \"src/AirDropNFTMarket.sol\":1906:1944  nftInfoToMarketId[msg.sender][tokenId] */\n      dup2\n      mstore\n      0x20\n      add\n      swap1\n      dup2\n      mstore\n      0x20\n      add\n      0x00\n      keccak256\n        /* \"src/AirDropNFTMarket.sol\":1906:1964  nftInfoToMarketId[msg.sender][tokenId] = market.length - 1 */\n      dup2\n      swap1\n      sstore\n      pop\n        /* \"src/AirDropNFTMarket.sol\":2019:2023  from */\n      dup6\n        /* \"src/AirDropNFTMarket.sol\":1974:1995  nftInfoToSalerAccount */\n      0x07\n        /* \"src/AirDropNFTMarket.sol\":1974:2007  nftInfoToSalerAccount[msg.sender] */\n      0x00\n        /* \"src/AirDropNFTMarket.sol\":1996:2006  msg.sender */\n      caller\n        /* \"src/AirDropNFTMarket.sol\":1974:2007  nftInfoToSalerAccount[msg.sender] */\n      0xffffffffffffffffffffffffffffffffffffffff\n      and\n      0xffffffffffffffffffffffffffffffffffffffff\n      and\n      dup2\n      mstore\n      0x20\n      add\n      swap1\n      dup2\n      mstore\n      0x20\n      add\n      0x00\n      keccak256\n        /* \"src/AirDropNFTMarket.sol\":1974:2016  nftInfoToSalerAccount[msg.sender][tokenId] */\n      0x00\n        /* \"src/AirDropNFTMarket.sol\":2008:2015  tokenId */\n      dup8\n        /* \"src/AirDropNFTMarket.sol\":1974:2016  nftInfoToSalerAccount[msg.sender][tokenId] */\n      dup2\n      mstore\n      0x20\n      add\n      swap1\n      dup2\n      mstore\n      0x20\n      add\n      0x00\n      keccak256\n      0x00\n        /* \"src/AirDropNFTMarket.sol\":1974:2023  nftInfoToSalerAccount[msg.sender][tokenId] = from */\n      0x0100\n      exp\n      dup2\n      sload\n      dup2\n      0xffffffffffffffffffffffffffffffffffffffff\n      mul\n      not\n      and\n      swap1\n      dup4\n      0xffffffffffffffffffffffffffffffffffffffff\n      and\n      mul\n      or\n      swap1\n      sstore\n      pop\n        /* \"src/AirDropNFTMarket.sol\":2040:2081  IERC721Receiver.onERC721Received.selector */\n      shl(0xe0, 0x150b7a02)\n        /* \"src/AirDropNFTMarket.sol\":2033:2081  return IERC721Receiver.onERC721Received.selector */\n      swap2\n      pop\n      pop\n        /* \"src/AirDropNFTMarket.sol\":1495:2088  function onERC721Received(... */\n      swap6\n      swap5\n      pop\n      pop\n      pop\n      pop\n      pop\n      jump\t// out\n        /* \"src/AirDropNFTMarket.sol\":1100:1124  SaleInfo[] public market */\n    tag_31:\n      0x05\n      dup2\n      dup2\n      sload\n      dup2\n      lt\n      tag_117\n      jumpi\n      0x00\n      dup1\n      revert\n    tag_117:\n      swap1\n      0x00\n      mstore\n      keccak256(0x00, 0x20)\n      swap1\n      0x03\n      mul\n      add\n      0x00\n      swap2\n      pop\n      swap1\n      pop\n      dup1\n      0x00\n      add\n      0x00\n      swap1\n      sload\n      swap1\n      0x0100\n      exp\n      swap1\n      div\n      0xffffffffffffffffffffffffffffffffffffffff\n      and\n      swap1\n      dup1\n      0x01\n      add\n      sload\n      swap1\n      dup1\n      0x02\n      add\n      sload\n      swap1\n      pop\n      dup4\n      jump\t// out\n        /* \"src/AirDropNFTMarket.sol\":526:620  function setMerkelRootHahs(bytes32 rootHash) public {... */\n    tag_37:\n        /* \"src/AirDropNFTMarket.sol\":605:613  rootHash */\n      dup1\n        /* \"src/AirDropNFTMarket.sol\":588:602  merkelRootHash */\n      0x04\n        /* \"src/AirDropNFTMarket.sol\":588:613  merkelRootHash = rootHash */\n      dup2\n      swap1\n      sstore\n      pop\n        /* \"src/AirDropNFTMarket.sol\":526:620  function setMerkelRootHahs(bytes32 rootHash) public {... */\n      pop\n      jump\t// out\n        /* \"src/AirDropNFTMarket.sol\":490:519  bytes32 public merkelRootHash */\n    tag_39:\n      sload(0x04)\n      dup2\n      jump\t// out\n        /* \"src/AirDropNFTMarket.sol\":1305:1378  mapping(address => mapping(uint => address)) public nftInfoToSalerAccount */\n    tag_45:\n      mstore(0x20, 0x07)\n      dup2\n      0x00\n      mstore\n      mstore(0x20, keccak256(0x00, 0x40))\n      dup1\n      0x00\n      mstore\n      keccak256(0x00, 0x40)\n      0x00\n      swap2\n      pop\n      swap2\n      pop\n      swap1\n      sload\n      swap1\n      0x0100\n      exp\n      swap1\n      div\n      0xffffffffffffffffffffffffffffffffffffffff\n      and\n      dup2\n      jump\t// out\n        /* \"src/AirDropNFTMarket.sol\":1180:1252  mapping(address => mapping(uint256 => uint256)) public nftInfoToMarketId */\n    tag_50:\n      mstore(0x20, 0x06)\n      dup2\n      0x00\n      mstore\n      mstore(0x20, keccak256(0x00, 0x40))\n      dup1\n      0x00\n      mstore\n      keccak256(0x00, 0x40)\n      0x00\n      swap2\n      pop\n      swap2\n      pop\n      pop\n      sload\n      dup2\n      jump\t// out\n        /* \"src/AirDropNFTMarket.sol\":2107:3101  function unsale(address nftAddr, uint nftId) public {... */\n    tag_55:\n        /* \"src/AirDropNFTMarket.sol\":2198:2211  address saler */\n      0x00\n        /* \"src/AirDropNFTMarket.sol\":2214:2235  nftInfoToSalerAccount */\n      0x07\n        /* \"src/AirDropNFTMarket.sol\":2214:2244  nftInfoToSalerAccount[nftAddr] */\n      0x00\n        /* \"src/AirDropNFTMarket.sol\":2236:2243  nftAddr */\n      dup5\n        /* \"src/AirDropNFTMarket.sol\":2214:2244  nftInfoToSalerAccount[nftAddr] */\n      0xffffffffffffffffffffffffffffffffffffffff\n      and\n      0xffffffffffffffffffffffffffffffffffffffff\n      and\n      dup2\n      mstore\n      0x20\n      add\n      swap1\n      dup2\n      mstore\n      0x20\n      add\n      0x00\n      keccak256\n        /* \"src/AirDropNFTMarket.sol\":2214:2251  nftInfoToSalerAccount[nftAddr][nftId] */\n      0x00\n        /* \"src/AirDropNFTMarket.sol\":2245:2250  nftId */\n      dup4\n        /* \"src/AirDropNFTMarket.sol\":2214:2251  nftInfoToSalerAccount[nftAddr][nftId] */\n      dup2\n      mstore\n      0x20\n      add\n      swap1\n      dup2\n      mstore\n      0x20\n      add\n      0x00\n      keccak256\n      0x00\n      swap1\n      sload\n      swap1\n      0x0100\n      exp\n      swap1\n      div\n      0xffffffffffffffffffffffffffffffffffffffff\n      and\n        /* \"src/AirDropNFTMarket.sol\":2198:2251  address saler = nftInfoToSalerAccount[nftAddr][nftId] */\n      swap1\n      pop\n        /* \"src/AirDropNFTMarket.sol\":2286:2287  0 */\n      0x00\n        /* \"src/AirDropNFTMarket.sol\":2269:2288  saler != address(0) */\n      0xffffffffffffffffffffffffffffffffffffffff\n      and\n        /* \"src/AirDropNFTMarket.sol\":2269:2274  saler */\n      dup2\n        /* \"src/AirDropNFTMarket.sol\":2269:2288  saler != address(0) */\n      0xffffffffffffffffffffffffffffffffffffffff\n      and\n      sub\n        /* \"src/AirDropNFTMarket.sol\":2261:2312  require(saler != address(0), \"nft is not in sale.\") */\n      tag_121\n      jumpi\n      mload(0x40)\n      0x08c379a000000000000000000000000000000000000000000000000000000000\n      dup2\n      mstore\n      0x04\n      add\n      tag_122\n      swap1\n      tag_123\n      jump\t// in\n    tag_122:\n      mload(0x40)\n      dup1\n      swap2\n      sub\n      swap1\n      revert\n    tag_121:\n        /* \"src/AirDropNFTMarket.sol\":2385:2390  saler */\n      dup1\n        /* \"src/AirDropNFTMarket.sol\":2371:2390  msg.sender == saler */\n      0xffffffffffffffffffffffffffffffffffffffff\n      and\n        /* \"src/AirDropNFTMarket.sol\":2371:2381  msg.sender */\n      caller\n        /* \"src/AirDropNFTMarket.sol\":2371:2390  msg.sender == saler */\n      0xffffffffffffffffffffffffffffffffffffffff\n      and\n      eq\n        /* \"src/AirDropNFTMarket.sol\":2363:2408  require(msg.sender == saler, \"Not your nft.\") */\n      tag_124\n      jumpi\n      mload(0x40)\n      0x08c379a000000000000000000000000000000000000000000000000000000000\n      dup2\n      mstore\n      0x04\n      add\n      tag_125\n      swap1\n      tag_126\n      jump\t// in\n    tag_125:\n      mload(0x40)\n      dup1\n      swap2\n      sub\n      swap1\n      revert\n    tag_124:\n        /* \"src/AirDropNFTMarket.sol\":2514:2527  uint marketId */\n      0x00\n        /* \"src/AirDropNFTMarket.sol\":2530:2547  nftInfoToMarketId */\n      0x06\n        /* \"src/AirDropNFTMarket.sol\":2530:2556  nftInfoToMarketId[nftAddr] */\n      0x00\n        /* \"src/AirDropNFTMarket.sol\":2548:2555  nftAddr */\n      dup6\n        /* \"src/AirDropNFTMarket.sol\":2530:2556  nftInfoToMarketId[nftAddr] */\n      0xffffffffffffffffffffffffffffffffffffffff\n      and\n      0xffffffffffffffffffffffffffffffffffffffff\n      and\n      dup2\n      mstore\n      0x20\n      add\n      swap1\n      dup2\n      mstore\n      0x20\n      add\n      0x00\n      keccak256\n        /* \"src/AirDropNFTMarket.sol\":2530:2563  nftInfoToMarketId[nftAddr][nftId] */\n      0x00\n        /* \"src/AirDropNFTMarket.sol\":2557:2562  nftId */\n      dup5\n        /* \"src/AirDropNFTMarket.sol\":2530:2563  nftInfoToMarketId[nftAddr][nftId] */\n      dup2\n      mstore\n      0x20\n      add\n      swap1\n      dup2\n      mstore\n      0x20\n      add\n      0x00\n      keccak256\n      sload\n        /* \"src/AirDropNFTMarket.sol\":2514:2563  uint marketId = nftInfoToMarketId[nftAddr][nftId] */\n      swap1\n      pop\n        /* \"src/AirDropNFTMarket.sol\":2573:2597  SaleInfo memory saleInfo */\n      0x00\n        /* \"src/AirDropNFTMarket.sol\":2600:2606  market */\n      0x05\n        /* \"src/AirDropNFTMarket.sol\":2623:2624  1 */\n      0x01\n        /* \"src/AirDropNFTMarket.sol\":2607:2613  market */\n      0x05\n        /* \"src/AirDropNFTMarket.sol\":2607:2620  market.length */\n      dup1\n      sload\n      swap1\n      pop\n        /* \"src/AirDropNFTMarket.sol\":2607:2624  market.length - 1 */\n      tag_127\n      swap2\n      swap1\n      tag_116\n      jump\t// in\n    tag_127:\n        /* \"src/AirDropNFTMarket.sol\":2600:2625  market[market.length - 1] */\n      dup2\n      sload\n      dup2\n      lt\n      tag_128\n      jumpi\n      tag_129\n      tag_68\n      jump\t// in\n    tag_129:\n    tag_128:\n      swap1\n      0x00\n      mstore\n      keccak256(0x00, 0x20)\n      swap1\n      0x03\n      mul\n      add\n        /* \"src/AirDropNFTMarket.sol\":2573:2625  SaleInfo memory saleInfo = market[market.length - 1] */\n      mload(0x40)\n      dup1\n      0x60\n      add\n      0x40\n      mstore\n      swap1\n      dup2\n      0x00\n      dup3\n      add\n      0x00\n      swap1\n      sload\n      swap1\n      0x0100\n      exp\n      swap1\n      div\n      0xffffffffffffffffffffffffffffffffffffffff\n      and\n      0xffffffffffffffffffffffffffffffffffffffff\n      and\n      0xffffffffffffffffffffffffffffffffffffffff\n      and\n      dup2\n      mstore\n      0x20\n      add\n      0x01\n      dup3\n      add\n      sload\n      dup2\n      mstore\n      0x20\n      add\n      0x02\n      dup3\n      add\n      sload\n      dup2\n      mstore\n      pop\n      pop\n      swap1\n      pop\n        /* \"src/AirDropNFTMarket.sol\":2654:2662  saleInfo */\n      dup1\n        /* \"src/AirDropNFTMarket.sol\":2635:2641  market */\n      0x05\n        /* \"src/AirDropNFTMarket.sol\":2642:2650  marketId */\n      dup4\n        /* \"src/AirDropNFTMarket.sol\":2635:2651  market[marketId] */\n      dup2\n      sload\n      dup2\n      lt\n      tag_131\n      jumpi\n      tag_132\n      tag_68\n      jump\t// in\n    tag_132:\n    tag_131:\n      swap1\n      0x00\n      mstore\n      keccak256(0x00, 0x20)\n      swap1\n      0x03\n      mul\n      add\n        /* \"src/AirDropNFTMarket.sol\":2635:2662  market[marketId] = saleInfo */\n      0x00\n      dup3\n      add\n      mload\n      dup2\n      0x00\n      add\n      exp(0x0100, 0x00)\n      dup2\n      sload\n      dup2\n      0xffffffffffffffffffffffffffffffffffffffff\n      mul\n      not\n      and\n      swap1\n      dup4\n      0xffffffffffffffffffffffffffffffffffffffff\n      and\n      mul\n      or\n      swap1\n      sstore\n      pop\n      0x20\n      dup3\n      add\n      mload\n      dup2\n      0x01\n      add\n      sstore\n      0x40\n      dup3\n      add\n      mload\n      dup2\n      0x02\n      add\n      sstore\n      swap1\n      pop\n      pop\n        /* \"src/AirDropNFTMarket.sol\":2672:2678  market */\n      0x05\n        /* \"src/AirDropNFTMarket.sol\":2672:2684  market.pop() */\n      dup1\n      sload\n      dup1\n      tag_134\n      jumpi\n      tag_135\n      tag_136\n      jump\t// in\n    tag_135:\n    tag_134:\n      0x01\n      swap1\n      sub\n      dup2\n      dup2\n      swap1\n      0x00\n      mstore\n      keccak256(0x00, 0x20)\n      swap1\n      0x03\n      mul\n      add\n      0x00\n      dup1\n      dup3\n      add\n      exp(0x0100, 0x00)\n      dup2\n      sload\n      swap1\n      0xffffffffffffffffffffffffffffffffffffffff\n      mul\n      not\n      and\n      swap1\n      sstore\n      0x01\n      dup3\n      add\n      0x00\n      swap1\n      sstore\n      0x02\n      dup3\n      add\n      0x00\n      swap1\n      sstore\n      pop\n      pop\n      swap1\n      sstore\n        /* \"src/AirDropNFTMarket.sol\":2797:2805  marketId */\n      dup2\n        /* \"src/AirDropNFTMarket.sol\":2747:2764  nftInfoToMarketId */\n      0x06\n        /* \"src/AirDropNFTMarket.sol\":2747:2778  nftInfoToMarketId[saleInfo.nft] */\n      0x00\n        /* \"src/AirDropNFTMarket.sol\":2765:2773  saleInfo */\n      dup4\n        /* \"src/AirDropNFTMarket.sol\":2765:2777  saleInfo.nft */\n      0x00\n      add\n      mload\n        /* \"src/AirDropNFTMarket.sol\":2747:2778  nftInfoToMarketId[saleInfo.nft] */\n      0xffffffffffffffffffffffffffffffffffffffff\n      and\n      0xffffffffffffffffffffffffffffffffffffffff\n      and\n      dup2\n      mstore\n      0x20\n      add\n      swap1\n      dup2\n      mstore\n      0x20\n      add\n      0x00\n      keccak256\n        /* \"src/AirDropNFTMarket.sol\":2747:2794  nftInfoToMarketId[saleInfo.nft][saleInfo.nftId] */\n      0x00\n        /* \"src/AirDropNFTMarket.sol\":2779:2787  saleInfo */\n      dup4\n        /* \"src/AirDropNFTMarket.sol\":2779:2793  saleInfo.nftId */\n      0x20\n      add\n      mload\n        /* \"src/AirDropNFTMarket.sol\":2747:2794  nftInfoToMarketId[saleInfo.nft][saleInfo.nftId] */\n      dup2\n      mstore\n      0x20\n      add\n      swap1\n      dup2\n      mstore\n      0x20\n      add\n      0x00\n      keccak256\n        /* \"src/AirDropNFTMarket.sol\":2747:2805  nftInfoToMarketId[saleInfo.nft][saleInfo.nftId] = marketId */\n      dup2\n      swap1\n      sstore\n      pop\n        /* \"src/AirDropNFTMarket.sol\":2924:2925  0 */\n      0x00\n        /* \"src/AirDropNFTMarket.sol\":2876:2897  nftInfoToSalerAccount */\n      0x07\n        /* \"src/AirDropNFTMarket.sol\":2876:2906  nftInfoToSalerAccount[nftAddr] */\n      0x00\n        /* \"src/AirDropNFTMarket.sol\":2898:2905  nftAddr */\n      dup8\n        /* \"src/AirDropNFTMarket.sol\":2876:2906  nftInfoToSalerAccount[nftAddr] */\n      0xffffffffffffffffffffffffffffffffffffffff\n      and\n      0xffffffffffffffffffffffffffffffffffffffff\n      and\n      dup2\n      mstore\n      0x20\n      add\n      swap1\n      dup2\n      mstore\n      0x20\n      add\n      0x00\n      keccak256\n        /* \"src/AirDropNFTMarket.sol\":2876:2913  nftInfoToSalerAccount[nftAddr][nftId] */\n      0x00\n        /* \"src/AirDropNFTMarket.sol\":2907:2912  nftId */\n      dup7\n        /* \"src/AirDropNFTMarket.sol\":2876:2913  nftInfoToSalerAccount[nftAddr][nftId] */\n      dup2\n      mstore\n      0x20\n      add\n      swap1\n      dup2\n      mstore\n      0x20\n      add\n      0x00\n      keccak256\n      0x00\n        /* \"src/AirDropNFTMarket.sol\":2876:2926  nftInfoToSalerAccount[nftAddr][nftId] = address(0) */\n      0x0100\n      exp\n      dup2\n      sload\n      dup2\n      0xffffffffffffffffffffffffffffffffffffffff\n      mul\n      not\n      and\n      swap1\n      dup4\n      0xffffffffffffffffffffffffffffffffffffffff\n      and\n      mul\n      or\n      swap1\n      sstore\n      pop\n        /* \"src/AirDropNFTMarket.sol\":2989:3008  IERC721 nftContract */\n      0x00\n        /* \"src/AirDropNFTMarket.sol\":3019:3026  nftAddr */\n      dup6\n        /* \"src/AirDropNFTMarket.sol\":2989:3027  IERC721 nftContract = IERC721(nftAddr) */\n      swap1\n      pop\n        /* \"src/AirDropNFTMarket.sol\":3037:3048  nftContract */\n      dup1\n        /* \"src/AirDropNFTMarket.sol\":3037:3065  nftContract.safeTransferFrom */\n      0xffffffffffffffffffffffffffffffffffffffff\n      and\n      0x42842e0e\n        /* \"src/AirDropNFTMarket.sol\":3074:3078  this */\n      address\n        /* \"src/AirDropNFTMarket.sol\":3081:3086  saler */\n      dup7\n        /* \"src/AirDropNFTMarket.sol\":3088:3093  nftId */\n      dup9\n        /* \"src/AirDropNFTMarket.sol\":3037:3094  nftContract.safeTransferFrom(address(this), saler, nftId) */\n      mload(0x40)\n      dup5\n      0xffffffff\n      and\n      0xe0\n      shl\n      dup2\n      mstore\n      0x04\n      add\n      tag_138\n      swap4\n      swap3\n      swap2\n      swap1\n      tag_83\n      jump\t// in\n    tag_138:\n      0x00\n      mload(0x40)\n      dup1\n      dup4\n      sub\n      dup2\n      0x00\n      dup8\n      dup1\n      extcodesize\n      iszero\n      dup1\n      iszero\n      tag_139\n      jumpi\n      0x00\n      dup1\n      revert\n    tag_139:\n      pop\n      gas\n      call\n      iszero\n      dup1\n      iszero\n      tag_141\n      jumpi\n      returndatasize\n      0x00\n      dup1\n      returndatacopy\n      revert(0x00, returndatasize)\n    tag_141:\n      pop\n      pop\n      pop\n      pop\n        /* \"src/AirDropNFTMarket.sol\":2159:3101  {... */\n      pop\n      pop\n      pop\n      pop\n        /* \"src/AirDropNFTMarket.sol\":2107:3101  function unsale(address nftAddr, uint nftId) public {... */\n      pop\n      pop\n      jump\t// out\n        /* \"src/AirDropNFTMarket.sol\":4371:4657  function bytesToAddrAndUint(... */\n    tag_59:\n        /* \"src/AirDropNFTMarket.sol\":4453:4460  address */\n      0x00\n        /* \"src/AirDropNFTMarket.sol\":4462:4469  uint256 */\n      dup1\n        /* \"src/AirDropNFTMarket.sol\":4553:4565  address addr */\n      0x00\n        /* \"src/AirDropNFTMarket.sol\":4567:4580  uint256 value */\n      dup1\n        /* \"src/AirDropNFTMarket.sol\":4595:4599  data */\n      dup5\n        /* \"src/AirDropNFTMarket.sol\":4584:4620  abi.decode(data, (address, uint256)) */\n      dup1\n      0x20\n      add\n      swap1\n      mload\n      dup2\n      add\n      swap1\n      tag_143\n      swap2\n      swap1\n      tag_144\n      jump\t// in\n    tag_143:\n        /* \"src/AirDropNFTMarket.sol\":4552:4620  (address addr, uint256 value) = abi.decode(data, (address, uint256)) */\n      swap2\n      pop\n      swap2\n      pop\n        /* \"src/AirDropNFTMarket.sol\":4638:4642  addr */\n      dup2\n        /* \"src/AirDropNFTMarket.sol\":4644:4649  value */\n      dup2\n        /* \"src/AirDropNFTMarket.sol\":4630:4650  return (addr, value) */\n      swap4\n      pop\n      swap4\n      pop\n      pop\n      pop\n        /* \"src/AirDropNFTMarket.sol\":4371:4657  function bytesToAddrAndUint(... */\n      swap2\n      pop\n      swap2\n      jump\t// out\n        /* \"src/AirDropNFTMarket.sol\":4168:4365  function bytesToUint(bytes memory data) private pure returns (uint256) {... */\n    tag_113:\n        /* \"src/AirDropNFTMarket.sol\":4230:4237  uint256 */\n      0x00\n        /* \"src/AirDropNFTMarket.sol\":4249:4263  uint256 result */\n      dup1\n        /* \"src/AirDropNFTMarket.sol\":4322:4324  32 */\n      0x20\n        /* \"src/AirDropNFTMarket.sol\":4316:4320  data */\n      dup4\n        /* \"src/AirDropNFTMarket.sol\":4312:4325  add(data, 32) */\n      add\n        /* \"src/AirDropNFTMarket.sol\":4306:4326  mload(add(data, 32)) */\n      mload\n        /* \"src/AirDropNFTMarket.sol\":4296:4326  result := mload(add(data, 32)) */\n      swap1\n      pop\n        /* \"src/AirDropNFTMarket.sol\":4352:4358  result */\n      dup1\n        /* \"src/AirDropNFTMarket.sol\":4345:4358  return result */\n      swap2\n      pop\n      pop\n        /* \"src/AirDropNFTMarket.sol\":4168:4365  function bytesToUint(bytes memory data) private pure returns (uint256) {... */\n      swap2\n      swap1\n      pop\n      jump\t// out\n        /* \"#utility.yul\":7:82   */\n    tag_146:\n        /* \"#utility.yul\":40:46   */\n      0x00\n        /* \"#utility.yul\":73:75   */\n      0x40\n        /* \"#utility.yul\":67:76   */\n      mload\n        /* \"#utility.yul\":57:76   */\n      swap1\n      pop\n        /* \"#utility.yul\":7:82   */\n      swap1\n      jump\t// out\n        /* \"#utility.yul\":88:205   */\n    tag_147:\n        /* \"#utility.yul\":197:198   */\n      0x00\n        /* \"#utility.yul\":194:195   */\n      dup1\n        /* \"#utility.yul\":187:199   */\n      revert\n        /* \"#utility.yul\":211:328   */\n    tag_148:\n        /* \"#utility.yul\":320:321   */\n      0x00\n        /* \"#utility.yul\":317:318   */\n      dup1\n        /* \"#utility.yul\":310:322   */\n      revert\n        /* \"#utility.yul\":334:460   */\n    tag_149:\n        /* \"#utility.yul\":371:378   */\n      0x00\n        /* \"#utility.yul\":411:453   */\n      0xffffffffffffffffffffffffffffffffffffffff\n        /* \"#utility.yul\":404:409   */\n      dup3\n        /* \"#utility.yul\":400:454   */\n      and\n        /* \"#utility.yul\":389:454   */\n      swap1\n      pop\n        /* \"#utility.yul\":334:460   */\n      swap2\n      swap1\n      pop\n      jump\t// out\n        /* \"#utility.yul\":466:562   */\n    tag_150:\n        /* \"#utility.yul\":503:510   */\n      0x00\n        /* \"#utility.yul\":532:556   */\n      tag_220\n        /* \"#utility.yul\":550:555   */\n      dup3\n        /* \"#utility.yul\":532:556   */\n      tag_149\n      jump\t// in\n    tag_220:\n        /* \"#utility.yul\":521:556   */\n      swap1\n      pop\n        /* \"#utility.yul\":466:562   */\n      swap2\n      swap1\n      pop\n      jump\t// out\n        /* \"#utility.yul\":568:690   */\n    tag_151:\n        /* \"#utility.yul\":641:665   */\n      tag_222\n        /* \"#utility.yul\":659:664   */\n      dup2\n        /* \"#utility.yul\":641:665   */\n      tag_150\n      jump\t// in\n    tag_222:\n        /* \"#utility.yul\":634:639   */\n      dup2\n        /* \"#utility.yul\":631:666   */\n      eq\n        /* \"#utility.yul\":621:684   */\n      tag_223\n      jumpi\n        /* \"#utility.yul\":680:681   */\n      0x00\n        /* \"#utility.yul\":677:678   */\n      dup1\n        /* \"#utility.yul\":670:682   */\n      revert\n        /* \"#utility.yul\":621:684   */\n    tag_223:\n        /* \"#utility.yul\":568:690   */\n      pop\n      jump\t// out\n        /* \"#utility.yul\":696:835   */\n    tag_152:\n        /* \"#utility.yul\":742:747   */\n      0x00\n        /* \"#utility.yul\":780:786   */\n      dup2\n        /* \"#utility.yul\":767:787   */\n      calldataload\n        /* \"#utility.yul\":758:787   */\n      swap1\n      pop\n        /* \"#utility.yul\":796:829   */\n      tag_225\n        /* \"#utility.yul\":823:828   */\n      dup2\n        /* \"#utility.yul\":796:829   */\n      tag_151\n      jump\t// in\n    tag_225:\n        /* \"#utility.yul\":696:835   */\n      swap3\n      swap2\n      pop\n      pop\n      jump\t// out\n        /* \"#utility.yul\":841:918   */\n    tag_153:\n        /* \"#utility.yul\":878:885   */\n      0x00\n        /* \"#utility.yul\":907:912   */\n      dup2\n        /* \"#utility.yul\":896:912   */\n      swap1\n      pop\n        /* \"#utility.yul\":841:918   */\n      swap2\n      swap1\n      pop\n      jump\t// out\n        /* \"#utility.yul\":924:1046   */\n    tag_154:\n        /* \"#utility.yul\":997:1021   */\n      tag_228\n        /* \"#utility.yul\":1015:1020   */\n      dup2\n        /* \"#utility.yul\":997:1021   */\n      tag_153\n      jump\t// in\n    tag_228:\n        /* \"#utility.yul\":990:995   */\n      dup2\n        /* \"#utility.yul\":987:1022   */\n      eq\n        /* \"#utility.yul\":977:1040   */\n      tag_229\n      jumpi\n        /* \"#utility.yul\":1036:1037   */\n      0x00\n        /* \"#utility.yul\":1033:1034   */\n      dup1\n        /* \"#utility.yul\":1026:1038   */\n      revert\n        /* \"#utility.yul\":977:1040   */\n    tag_229:\n        /* \"#utility.yul\":924:1046   */\n      pop\n      jump\t// out\n        /* \"#utility.yul\":1052:1191   */\n    tag_155:\n        /* \"#utility.yul\":1098:1103   */\n      0x00\n        /* \"#utility.yul\":1136:1142   */\n      dup2\n        /* \"#utility.yul\":1123:1143   */\n      calldataload\n        /* \"#utility.yul\":1114:1143   */\n      swap1\n      pop\n        /* \"#utility.yul\":1152:1185   */\n      tag_231\n        /* \"#utility.yul\":1179:1184   */\n      dup2\n        /* \"#utility.yul\":1152:1185   */\n      tag_154\n      jump\t// in\n    tag_231:\n        /* \"#utility.yul\":1052:1191   */\n      swap3\n      swap2\n      pop\n      pop\n      jump\t// out\n        /* \"#utility.yul\":1197:1314   */\n    tag_156:\n        /* \"#utility.yul\":1306:1307   */\n      0x00\n        /* \"#utility.yul\":1303:1304   */\n      dup1\n        /* \"#utility.yul\":1296:1308   */\n      revert\n        /* \"#utility.yul\":1320:1422   */\n    tag_157:\n        /* \"#utility.yul\":1361:1367   */\n      0x00\n        /* \"#utility.yul\":1412:1414   */\n      0x1f\n        /* \"#utility.yul\":1408:1415   */\n      not\n        /* \"#utility.yul\":1403:1405   */\n      0x1f\n        /* \"#utility.yul\":1396:1401   */\n      dup4\n        /* \"#utility.yul\":1392:1406   */\n      add\n        /* \"#utility.yul\":1388:1416   */\n      and\n        /* \"#utility.yul\":1378:1416   */\n      swap1\n      pop\n        /* \"#utility.yul\":1320:1422   */\n      swap2\n      swap1\n      pop\n      jump\t// out\n        /* \"#utility.yul\":1428:1608   */\n    tag_158:\n        /* \"#utility.yul\":1476:1553   */\n      0x4e487b7100000000000000000000000000000000000000000000000000000000\n        /* \"#utility.yul\":1473:1474   */\n      0x00\n        /* \"#utility.yul\":1466:1554   */\n      mstore\n        /* \"#utility.yul\":1573:1577   */\n      0x41\n        /* \"#utility.yul\":1570:1571   */\n      0x04\n        /* \"#utility.yul\":1563:1578   */\n      mstore\n        /* \"#utility.yul\":1597:1601   */\n      0x24\n        /* \"#utility.yul\":1594:1595   */\n      0x00\n        /* \"#utility.yul\":1587:1602   */\n      revert\n        /* \"#utility.yul\":1614:1895   */\n    tag_159:\n        /* \"#utility.yul\":1697:1724   */\n      tag_236\n        /* \"#utility.yul\":1719:1723   */\n      dup3\n        /* \"#utility.yul\":1697:1724   */\n      tag_157\n      jump\t// in\n    tag_236:\n        /* \"#utility.yul\":1689:1695   */\n      dup2\n        /* \"#utility.yul\":1685:1725   */\n      add\n        /* \"#utility.yul\":1827:1833   */\n      dup2\n        /* \"#utility.yul\":1815:1825   */\n      dup2\n        /* \"#utility.yul\":1812:1834   */\n      lt\n        /* \"#utility.yul\":1791:1809   */\n      0xffffffffffffffff\n        /* \"#utility.yul\":1779:1789   */\n      dup3\n        /* \"#utility.yul\":1776:1810   */\n      gt\n        /* \"#utility.yul\":1773:1835   */\n      or\n        /* \"#utility.yul\":1770:1858   */\n      iszero\n      tag_237\n      jumpi\n        /* \"#utility.yul\":1838:1856   */\n      tag_238\n      tag_158\n      jump\t// in\n    tag_238:\n        /* \"#utility.yul\":1770:1858   */\n    tag_237:\n        /* \"#utility.yul\":1878:1888   */\n      dup1\n        /* \"#utility.yul\":1874:1876   */\n      0x40\n        /* \"#utility.yul\":1867:1889   */\n      mstore\n        /* \"#utility.yul\":1657:1895   */\n      pop\n        /* \"#utility.yul\":1614:1895   */\n      pop\n      pop\n      jump\t// out\n        /* \"#utility.yul\":1901:2030   */\n    tag_160:\n        /* \"#utility.yul\":1935:1941   */\n      0x00\n        /* \"#utility.yul\":1962:1982   */\n      tag_240\n      tag_146\n      jump\t// in\n    tag_240:\n        /* \"#utility.yul\":1952:1982   */\n      swap1\n      pop\n        /* \"#utility.yul\":1991:2024   */\n      tag_241\n        /* \"#utility.yul\":2019:2023   */\n      dup3\n        /* \"#utility.yul\":2011:2017   */\n      dup3\n        /* \"#utility.yul\":1991:2024   */\n      tag_159\n      jump\t// in\n    tag_241:\n        /* \"#utility.yul\":1901:2030   */\n      swap2\n      swap1\n      pop\n      jump\t// out\n        /* \"#utility.yul\":2036:2347   */\n    tag_161:\n        /* \"#utility.yul\":2113:2117   */\n      0x00\n        /* \"#utility.yul\":2203:2221   */\n      0xffffffffffffffff\n        /* \"#utility.yul\":2195:2201   */\n      dup3\n        /* \"#utility.yul\":2192:2222   */\n      gt\n        /* \"#utility.yul\":2189:2245   */\n      iszero\n      tag_243\n      jumpi\n        /* \"#utility.yul\":2225:2243   */\n      tag_244\n      tag_158\n      jump\t// in\n    tag_244:\n        /* \"#utility.yul\":2189:2245   */\n    tag_243:\n        /* \"#utility.yul\":2275:2279   */\n      0x20\n        /* \"#utility.yul\":2267:2273   */\n      dup3\n        /* \"#utility.yul\":2263:2280   */\n      mul\n        /* \"#utility.yul\":2255:2280   */\n      swap1\n      pop\n        /* \"#utility.yul\":2335:2339   */\n      0x20\n        /* \"#utility.yul\":2329:2333   */\n      dup2\n        /* \"#utility.yul\":2325:2340   */\n      add\n        /* \"#utility.yul\":2317:2340   */\n      swap1\n      pop\n        /* \"#utility.yul\":2036:2347   */\n      swap2\n      swap1\n      pop\n      jump\t// out\n        /* \"#utility.yul\":2353:2470   */\n    tag_162:\n        /* \"#utility.yul\":2462:2463   */\n      0x00\n        /* \"#utility.yul\":2459:2460   */\n      dup1\n        /* \"#utility.yul\":2452:2464   */\n      revert\n        /* \"#utility.yul\":2476:2553   */\n    tag_163:\n        /* \"#utility.yul\":2513:2520   */\n      0x00\n        /* \"#utility.yul\":2542:2547   */\n      dup2\n        /* \"#utility.yul\":2531:2547   */\n      swap1\n      pop\n        /* \"#utility.yul\":2476:2553   */\n      swap2\n      swap1\n      pop\n      jump\t// out\n        /* \"#utility.yul\":2559:2681   */\n    tag_164:\n        /* \"#utility.yul\":2632:2656   */\n      tag_248\n        /* \"#utility.yul\":2650:2655   */\n      dup2\n        /* \"#utility.yul\":2632:2656   */\n      tag_163\n      jump\t// in\n    tag_248:\n        /* \"#utility.yul\":2625:2630   */\n      dup2\n        /* \"#utility.yul\":2622:2657   */\n      eq\n        /* \"#utility.yul\":2612:2675   */\n      tag_249\n      jumpi\n        /* \"#utility.yul\":2671:2672   */\n      0x00\n        /* \"#utility.yul\":2668:2669   */\n      dup1\n        /* \"#utility.yul\":2661:2673   */\n      revert\n        /* \"#utility.yul\":2612:2675   */\n    tag_249:\n        /* \"#utility.yul\":2559:2681   */\n      pop\n      jump\t// out\n        /* \"#utility.yul\":2687:2826   */\n    tag_165:\n        /* \"#utility.yul\":2733:2738   */\n      0x00\n        /* \"#utility.yul\":2771:2777   */\n      dup2\n        /* \"#utility.yul\":2758:2778   */\n      calldataload\n        /* \"#utility.yul\":2749:2778   */\n      swap1\n      pop\n        /* \"#utility.yul\":2787:2820   */\n      tag_251\n        /* \"#utility.yul\":2814:2819   */\n      dup2\n        /* \"#utility.yul\":2787:2820   */\n      tag_164\n      jump\t// in\n    tag_251:\n        /* \"#utility.yul\":2687:2826   */\n      swap3\n      swap2\n      pop\n      pop\n      jump\t// out\n        /* \"#utility.yul\":2849:3559   */\n    tag_166:\n        /* \"#utility.yul\":2945:2950   */\n      0x00\n        /* \"#utility.yul\":2970:3051   */\n      tag_253\n        /* \"#utility.yul\":2986:3050   */\n      tag_254\n        /* \"#utility.yul\":3043:3049   */\n      dup5\n        /* \"#utility.yul\":2986:3050   */\n      tag_161\n      jump\t// in\n    tag_254:\n        /* \"#utility.yul\":2970:3051   */\n      tag_160\n      jump\t// in\n    tag_253:\n        /* \"#utility.yul\":2961:3051   */\n      swap1\n      pop\n        /* \"#utility.yul\":3071:3076   */\n      dup1\n        /* \"#utility.yul\":3100:3106   */\n      dup4\n        /* \"#utility.yul\":3093:3098   */\n      dup3\n        /* \"#utility.yul\":3086:3107   */\n      mstore\n        /* \"#utility.yul\":3134:3138   */\n      0x20\n        /* \"#utility.yul\":3127:3132   */\n      dup3\n        /* \"#utility.yul\":3123:3139   */\n      add\n        /* \"#utility.yul\":3116:3139   */\n      swap1\n      pop\n        /* \"#utility.yul\":3187:3191   */\n      0x20\n        /* \"#utility.yul\":3179:3185   */\n      dup5\n        /* \"#utility.yul\":3175:3192   */\n      mul\n        /* \"#utility.yul\":3167:3173   */\n      dup4\n        /* \"#utility.yul\":3163:3193   */\n      add\n        /* \"#utility.yul\":3216:3219   */\n      dup6\n        /* \"#utility.yul\":3208:3214   */\n      dup2\n        /* \"#utility.yul\":3205:3220   */\n      gt\n        /* \"#utility.yul\":3202:3324   */\n      iszero\n      tag_255\n      jumpi\n        /* \"#utility.yul\":3235:3314   */\n      tag_256\n      tag_162\n      jump\t// in\n    tag_256:\n        /* \"#utility.yul\":3202:3324   */\n    tag_255:\n        /* \"#utility.yul\":3350:3356   */\n      dup4\n        /* \"#utility.yul\":3333:3553   */\n    tag_257:\n        /* \"#utility.yul\":3367:3373   */\n      dup2\n        /* \"#utility.yul\":3362:3365   */\n      dup2\n        /* \"#utility.yul\":3359:3374   */\n      lt\n        /* \"#utility.yul\":3333:3553   */\n      iszero\n      tag_259\n      jumpi\n        /* \"#utility.yul\":3442:3445   */\n      dup1\n        /* \"#utility.yul\":3471:3508   */\n      tag_260\n        /* \"#utility.yul\":3504:3507   */\n      dup9\n        /* \"#utility.yul\":3492:3502   */\n      dup3\n        /* \"#utility.yul\":3471:3508   */\n      tag_165\n      jump\t// in\n    tag_260:\n        /* \"#utility.yul\":3466:3469   */\n      dup5\n        /* \"#utility.yul\":3459:3509   */\n      mstore\n        /* \"#utility.yul\":3538:3542   */\n      0x20\n        /* \"#utility.yul\":3533:3536   */\n      dup5\n        /* \"#utility.yul\":3529:3543   */\n      add\n        /* \"#utility.yul\":3522:3543   */\n      swap4\n      pop\n        /* \"#utility.yul\":3409:3553   */\n      pop\n        /* \"#utility.yul\":3393:3397   */\n      0x20\n        /* \"#utility.yul\":3388:3391   */\n      dup2\n        /* \"#utility.yul\":3384:3398   */\n      add\n        /* \"#utility.yul\":3377:3398   */\n      swap1\n      pop\n        /* \"#utility.yul\":3333:3553   */\n      jump(tag_257)\n    tag_259:\n        /* \"#utility.yul\":3337:3358   */\n      pop\n        /* \"#utility.yul\":2951:3559   */\n      pop\n      pop\n        /* \"#utility.yul\":2849:3559   */\n      swap4\n      swap3\n      pop\n      pop\n      pop\n      jump\t// out\n        /* \"#utility.yul\":3582:3952   */\n    tag_167:\n        /* \"#utility.yul\":3653:3658   */\n      0x00\n        /* \"#utility.yul\":3702:3705   */\n      dup3\n        /* \"#utility.yul\":3695:3699   */\n      0x1f\n        /* \"#utility.yul\":3687:3693   */\n      dup4\n        /* \"#utility.yul\":3683:3700   */\n      add\n        /* \"#utility.yul\":3679:3706   */\n      slt\n        /* \"#utility.yul\":3669:3791   */\n      tag_262\n      jumpi\n        /* \"#utility.yul\":3710:3789   */\n      tag_263\n      tag_156\n      jump\t// in\n    tag_263:\n        /* \"#utility.yul\":3669:3791   */\n    tag_262:\n        /* \"#utility.yul\":3827:3833   */\n      dup2\n        /* \"#utility.yul\":3814:3834   */\n      calldataload\n        /* \"#utility.yul\":3852:3946   */\n      tag_264\n        /* \"#utility.yul\":3942:3945   */\n      dup5\n        /* \"#utility.yul\":3934:3940   */\n      dup3\n        /* \"#utility.yul\":3927:3931   */\n      0x20\n        /* \"#utility.yul\":3919:3925   */\n      dup7\n        /* \"#utility.yul\":3915:3932   */\n      add\n        /* \"#utility.yul\":3852:3946   */\n      tag_166\n      jump\t// in\n    tag_264:\n        /* \"#utility.yul\":3843:3946   */\n      swap2\n      pop\n        /* \"#utility.yul\":3659:3952   */\n      pop\n        /* \"#utility.yul\":3582:3952   */\n      swap3\n      swap2\n      pop\n      pop\n      jump\t// out\n        /* \"#utility.yul\":3958:4266   */\n    tag_168:\n        /* \"#utility.yul\":4032:4036   */\n      0x00\n        /* \"#utility.yul\":4122:4140   */\n      0xffffffffffffffff\n        /* \"#utility.yul\":4114:4120   */\n      dup3\n        /* \"#utility.yul\":4111:4141   */\n      gt\n        /* \"#utility.yul\":4108:4164   */\n      iszero\n      tag_266\n      jumpi\n        /* \"#utility.yul\":4144:4162   */\n      tag_267\n      tag_158\n      jump\t// in\n    tag_267:\n        /* \"#utility.yul\":4108:4164   */\n    tag_266:\n        /* \"#utility.yul\":4194:4198   */\n      0x20\n        /* \"#utility.yul\":4186:4192   */\n      dup3\n        /* \"#utility.yul\":4182:4199   */\n      mul\n        /* \"#utility.yul\":4174:4199   */\n      swap1\n      pop\n        /* \"#utility.yul\":4254:4258   */\n      0x20\n        /* \"#utility.yul\":4248:4252   */\n      dup2\n        /* \"#utility.yul\":4244:4259   */\n      add\n        /* \"#utility.yul\":4236:4259   */\n      swap1\n      pop\n        /* \"#utility.yul\":3958:4266   */\n      swap2\n      swap1\n      pop\n      jump\t// out\n        /* \"#utility.yul\":4272:4362   */\n    tag_169:\n        /* \"#utility.yul\":4306:4313   */\n      0x00\n        /* \"#utility.yul\":4349:4354   */\n      dup2\n        /* \"#utility.yul\":4342:4355   */\n      iszero\n        /* \"#utility.yul\":4335:4356   */\n      iszero\n        /* \"#utility.yul\":4324:4356   */\n      swap1\n      pop\n        /* \"#utility.yul\":4272:4362   */\n      swap2\n      swap1\n      pop\n      jump\t// out\n        /* \"#utility.yul\":4368:4484   */\n    tag_170:\n        /* \"#utility.yul\":4438:4459   */\n      tag_270\n        /* \"#utility.yul\":4453:4458   */\n      dup2\n        /* \"#utility.yul\":4438:4459   */\n      tag_169\n      jump\t// in\n    tag_270:\n        /* \"#utility.yul\":4431:4436   */\n      dup2\n        /* \"#utility.yul\":4428:4460   */\n      eq\n        /* \"#utility.yul\":4418:4478   */\n      tag_271\n      jumpi\n        /* \"#utility.yul\":4474:4475   */\n      0x00\n        /* \"#utility.yul\":4471:4472   */\n      dup1\n        /* \"#utility.yul\":4464:4476   */\n      revert\n        /* \"#utility.yul\":4418:4478   */\n    tag_271:\n        /* \"#utility.yul\":4368:4484   */\n      pop\n      jump\t// out\n        /* \"#utility.yul\":4490:4623   */\n    tag_171:\n        /* \"#utility.yul\":4533:4538   */\n      0x00\n        /* \"#utility.yul\":4571:4577   */\n      dup2\n        /* \"#utility.yul\":4558:4578   */\n      calldataload\n        /* \"#utility.yul\":4549:4578   */\n      swap1\n      pop\n        /* \"#utility.yul\":4587:4617   */\n      tag_273\n        /* \"#utility.yul\":4611:4616   */\n      dup2\n        /* \"#utility.yul\":4587:4617   */\n      tag_170\n      jump\t// in\n    tag_273:\n        /* \"#utility.yul\":4490:4623   */\n      swap3\n      swap2\n      pop\n      pop\n      jump\t// out\n        /* \"#utility.yul\":4643:5344   */\n    tag_172:\n        /* \"#utility.yul\":4736:4741   */\n      0x00\n        /* \"#utility.yul\":4761:4839   */\n      tag_275\n        /* \"#utility.yul\":4777:4838   */\n      tag_276\n        /* \"#utility.yul\":4831:4837   */\n      dup5\n        /* \"#utility.yul\":4777:4838   */\n      tag_168\n      jump\t// in\n    tag_276:\n        /* \"#utility.yul\":4761:4839   */\n      tag_160\n      jump\t// in\n    tag_275:\n        /* \"#utility.yul\":4752:4839   */\n      swap1\n      pop\n        /* \"#utility.yul\":4859:4864   */\n      dup1\n        /* \"#utility.yul\":4888:4894   */\n      dup4\n        /* \"#utility.yul\":4881:4886   */\n      dup3\n        /* \"#utility.yul\":4874:4895   */\n      mstore\n        /* \"#utility.yul\":4922:4926   */\n      0x20\n        /* \"#utility.yul\":4915:4920   */\n      dup3\n        /* \"#utility.yul\":4911:4927   */\n      add\n        /* \"#utility.yul\":4904:4927   */\n      swap1\n      pop\n        /* \"#utility.yul\":4975:4979   */\n      0x20\n        /* \"#utility.yul\":4967:4973   */\n      dup5\n        /* \"#utility.yul\":4963:4980   */\n      mul\n        /* \"#utility.yul\":4955:4961   */\n      dup4\n        /* \"#utility.yul\":4951:4981   */\n      add\n        /* \"#utility.yul\":5004:5007   */\n      dup6\n        /* \"#utility.yul\":4996:5002   */\n      dup2\n        /* \"#utility.yul\":4993:5008   */\n      gt\n        /* \"#utility.yul\":4990:5112   */\n      iszero\n      tag_277\n      jumpi\n        /* \"#utility.yul\":5023:5102   */\n      tag_278\n      tag_162\n      jump\t// in\n    tag_278:\n        /* \"#utility.yul\":4990:5112   */\n    tag_277:\n        /* \"#utility.yul\":5138:5144   */\n      dup4\n        /* \"#utility.yul\":5121:5338   */\n    tag_279:\n        /* \"#utility.yul\":5155:5161   */\n      dup2\n        /* \"#utility.yul\":5150:5153   */\n      dup2\n        /* \"#utility.yul\":5147:5162   */\n      lt\n        /* \"#utility.yul\":5121:5338   */\n      iszero\n      tag_281\n      jumpi\n        /* \"#utility.yul\":5230:5233   */\n      dup1\n        /* \"#utility.yul\":5259:5293   */\n      tag_282\n        /* \"#utility.yul\":5289:5292   */\n      dup9\n        /* \"#utility.yul\":5277:5287   */\n      dup3\n        /* \"#utility.yul\":5259:5293   */\n      tag_171\n      jump\t// in\n    tag_282:\n        /* \"#utility.yul\":5254:5257   */\n      dup5\n        /* \"#utility.yul\":5247:5294   */\n      mstore\n        /* \"#utility.yul\":5323:5327   */\n      0x20\n        /* \"#utility.yul\":5318:5321   */\n      dup5\n        /* \"#utility.yul\":5314:5328   */\n      add\n        /* \"#utility.yul\":5307:5328   */\n      swap4\n      pop\n        /* \"#utility.yul\":5197:5338   */\n      pop\n        /* \"#utility.yul\":5181:5185   */\n      0x20\n        /* \"#utility.yul\":5176:5179   */\n      dup2\n        /* \"#utility.yul\":5172:5186   */\n      add\n        /* \"#utility.yul\":5165:5186   */\n      swap1\n      pop\n        /* \"#utility.yul\":5121:5338   */\n      jump(tag_279)\n    tag_281:\n        /* \"#utility.yul\":5125:5146   */\n      pop\n        /* \"#utility.yul\":4742:5344   */\n      pop\n      pop\n        /* \"#utility.yul\":4643:5344   */\n      swap4\n      swap3\n      pop\n      pop\n      pop\n      jump\t// out\n        /* \"#utility.yul\":5364:5728   */\n    tag_173:\n        /* \"#utility.yul\":5432:5437   */\n      0x00\n        /* \"#utility.yul\":5481:5484   */\n      dup3\n        /* \"#utility.yul\":5474:5478   */\n      0x1f\n        /* \"#utility.yul\":5466:5472   */\n      dup4\n        /* \"#utility.yul\":5462:5479   */\n      add\n        /* \"#utility.yul\":5458:5485   */\n      slt\n        /* \"#utility.yul\":5448:5570   */\n      tag_284\n      jumpi\n        /* \"#utility.yul\":5489:5568   */\n      tag_285\n      tag_156\n      jump\t// in\n    tag_285:\n        /* \"#utility.yul\":5448:5570   */\n    tag_284:\n        /* \"#utility.yul\":5606:5612   */\n      dup2\n        /* \"#utility.yul\":5593:5613   */\n      calldataload\n        /* \"#utility.yul\":5631:5722   */\n      tag_286\n        /* \"#utility.yul\":5718:5721   */\n      dup5\n        /* \"#utility.yul\":5710:5716   */\n      dup3\n        /* \"#utility.yul\":5703:5707   */\n      0x20\n        /* \"#utility.yul\":5695:5701   */\n      dup7\n        /* \"#utility.yul\":5691:5708   */\n      add\n        /* \"#utility.yul\":5631:5722   */\n      tag_172\n      jump\t// in\n    tag_286:\n        /* \"#utility.yul\":5622:5722   */\n      swap2\n      pop\n        /* \"#utility.yul\":5438:5728   */\n      pop\n        /* \"#utility.yul\":5364:5728   */\n      swap3\n      swap2\n      pop\n      pop\n      jump\t// out\n        /* \"#utility.yul\":5734:6913   */\n    tag_16:\n        /* \"#utility.yul\":5867:5873   */\n      0x00\n        /* \"#utility.yul\":5875:5881   */\n      dup1\n        /* \"#utility.yul\":5883:5889   */\n      0x00\n        /* \"#utility.yul\":5891:5897   */\n      dup1\n        /* \"#utility.yul\":5940:5943   */\n      0x80\n        /* \"#utility.yul\":5928:5937   */\n      dup6\n        /* \"#utility.yul\":5919:5926   */\n      dup8\n        /* \"#utility.yul\":5915:5938   */\n      sub\n        /* \"#utility.yul\":5911:5944   */\n      slt\n        /* \"#utility.yul\":5908:6028   */\n      iszero\n      tag_288\n      jumpi\n        /* \"#utility.yul\":5947:6026   */\n      tag_289\n      tag_147\n      jump\t// in\n    tag_289:\n        /* \"#utility.yul\":5908:6028   */\n    tag_288:\n        /* \"#utility.yul\":6067:6068   */\n      0x00\n        /* \"#utility.yul\":6092:6145   */\n      tag_290\n        /* \"#utility.yul\":6137:6144   */\n      dup8\n        /* \"#utility.yul\":6128:6134   */\n      dup3\n        /* \"#utility.yul\":6117:6126   */\n      dup9\n        /* \"#utility.yul\":6113:6135   */\n      add\n        /* \"#utility.yul\":6092:6145   */\n      tag_152\n      jump\t// in\n    tag_290:\n        /* \"#utility.yul\":6082:6145   */\n      swap5\n      pop\n        /* \"#utility.yul\":6038:6155   */\n      pop\n        /* \"#utility.yul\":6194:6196   */\n      0x20\n        /* \"#utility.yul\":6220:6273   */\n      tag_291\n        /* \"#utility.yul\":6265:6272   */\n      dup8\n        /* \"#utility.yul\":6256:6262   */\n      dup3\n        /* \"#utility.yul\":6245:6254   */\n      dup9\n        /* \"#utility.yul\":6241:6263   */\n      add\n        /* \"#utility.yul\":6220:6273   */\n      tag_155\n      jump\t// in\n    tag_291:\n        /* \"#utility.yul\":6210:6273   */\n      swap4\n      pop\n        /* \"#utility.yul\":6165:6283   */\n      pop\n        /* \"#utility.yul\":6350:6352   */\n      0x40\n        /* \"#utility.yul\":6339:6348   */\n      dup6\n        /* \"#utility.yul\":6335:6353   */\n      add\n        /* \"#utility.yul\":6322:6354   */\n      calldataload\n        /* \"#utility.yul\":6381:6399   */\n      0xffffffffffffffff\n        /* \"#utility.yul\":6373:6379   */\n      dup2\n        /* \"#utility.yul\":6370:6400   */\n      gt\n        /* \"#utility.yul\":6367:6484   */\n      iszero\n      tag_292\n      jumpi\n        /* \"#utility.yul\":6403:6482   */\n      tag_293\n      tag_148\n      jump\t// in\n    tag_293:\n        /* \"#utility.yul\":6367:6484   */\n    tag_292:\n        /* \"#utility.yul\":6508:6586   */\n      tag_294\n        /* \"#utility.yul\":6578:6585   */\n      dup8\n        /* \"#utility.yul\":6569:6575   */\n      dup3\n        /* \"#utility.yul\":6558:6567   */\n      dup9\n        /* \"#utility.yul\":6554:6576   */\n      add\n        /* \"#utility.yul\":6508:6586   */\n      tag_167\n      jump\t// in\n    tag_294:\n        /* \"#utility.yul\":6498:6586   */\n      swap3\n      pop\n        /* \"#utility.yul\":6293:6596   */\n      pop\n        /* \"#utility.yul\":6663:6665   */\n      0x60\n        /* \"#utility.yul\":6652:6661   */\n      dup6\n        /* \"#utility.yul\":6648:6666   */\n      add\n        /* \"#utility.yul\":6635:6667   */\n      calldataload\n        /* \"#utility.yul\":6694:6712   */\n      0xffffffffffffffff\n        /* \"#utility.yul\":6686:6692   */\n      dup2\n        /* \"#utility.yul\":6683:6713   */\n      gt\n        /* \"#utility.yul\":6680:6797   */\n      iszero\n      tag_295\n      jumpi\n        /* \"#utility.yul\":6716:6795   */\n      tag_296\n      tag_148\n      jump\t// in\n    tag_296:\n        /* \"#utility.yul\":6680:6797   */\n    tag_295:\n        /* \"#utility.yul\":6821:6896   */\n      tag_297\n        /* \"#utility.yul\":6888:6895   */\n      dup8\n        /* \"#utility.yul\":6879:6885   */\n      dup3\n        /* \"#utility.yul\":6868:6877   */\n      dup9\n        /* \"#utility.yul\":6864:6886   */\n      add\n        /* \"#utility.yul\":6821:6896   */\n      tag_173\n      jump\t// in\n    tag_297:\n        /* \"#utility.yul\":6811:6896   */\n      swap2\n      pop\n        /* \"#utility.yul\":6606:6906   */\n      pop\n        /* \"#utility.yul\":5734:6913   */\n      swap3\n      swap6\n      swap2\n      swap5\n      pop\n      swap3\n      pop\n      jump\t// out\n        /* \"#utility.yul\":6919:7952   */\n    tag_20:\n        /* \"#utility.yul\":7043:7049   */\n      0x00\n        /* \"#utility.yul\":7051:7057   */\n      dup1\n        /* \"#utility.yul\":7059:7065   */\n      0x00\n        /* \"#utility.yul\":7108:7110   */\n      0x60\n        /* \"#utility.yul\":7096:7105   */\n      dup5\n        /* \"#utility.yul\":7087:7094   */\n      dup7\n        /* \"#utility.yul\":7083:7106   */\n      sub\n        /* \"#utility.yul\":7079:7111   */\n      slt\n        /* \"#utility.yul\":7076:7195   */\n      iszero\n      tag_299\n      jumpi\n        /* \"#utility.yul\":7114:7193   */\n      tag_300\n      tag_147\n      jump\t// in\n    tag_300:\n        /* \"#utility.yul\":7076:7195   */\n    tag_299:\n        /* \"#utility.yul\":7262:7263   */\n      0x00\n        /* \"#utility.yul\":7251:7260   */\n      dup5\n        /* \"#utility.yul\":7247:7264   */\n      add\n        /* \"#utility.yul\":7234:7265   */\n      calldataload\n        /* \"#utility.yul\":7292:7310   */\n      0xffffffffffffffff\n        /* \"#utility.yul\":7284:7290   */\n      dup2\n        /* \"#utility.yul\":7281:7311   */\n      gt\n        /* \"#utility.yul\":7278:7395   */\n      iszero\n      tag_301\n      jumpi\n        /* \"#utility.yul\":7314:7393   */\n      tag_302\n      tag_148\n      jump\t// in\n    tag_302:\n        /* \"#utility.yul\":7278:7395   */\n    tag_301:\n        /* \"#utility.yul\":7419:7497   */\n      tag_303\n        /* \"#utility.yul\":7489:7496   */\n      dup7\n        /* \"#utility.yul\":7480:7486   */\n      dup3\n        /* \"#utility.yul\":7469:7478   */\n      dup8\n        /* \"#utility.yul\":7465:7487   */\n      add\n        /* \"#utility.yul\":7419:7497   */\n      tag_167\n      jump\t// in\n    tag_303:\n        /* \"#utility.yul\":7409:7497   */\n      swap4\n      pop\n        /* \"#utility.yul\":7205:7507   */\n      pop\n        /* \"#utility.yul\":7574:7576   */\n      0x20\n        /* \"#utility.yul\":7563:7572   */\n      dup5\n        /* \"#utility.yul\":7559:7577   */\n      add\n        /* \"#utility.yul\":7546:7578   */\n      calldataload\n        /* \"#utility.yul\":7605:7623   */\n      0xffffffffffffffff\n        /* \"#utility.yul\":7597:7603   */\n      dup2\n        /* \"#utility.yul\":7594:7624   */\n      gt\n        /* \"#utility.yul\":7591:7708   */\n      iszero\n      tag_304\n      jumpi\n        /* \"#utility.yul\":7627:7706   */\n      tag_305\n      tag_148\n      jump\t// in\n    tag_305:\n        /* \"#utility.yul\":7591:7708   */\n    tag_304:\n        /* \"#utility.yul\":7732:7807   */\n      tag_306\n        /* \"#utility.yul\":7799:7806   */\n      dup7\n        /* \"#utility.yul\":7790:7796   */\n      dup3\n        /* \"#utility.yul\":7779:7788   */\n      dup8\n        /* \"#utility.yul\":7775:7797   */\n      add\n        /* \"#utility.yul\":7732:7807   */\n      tag_173\n      jump\t// in\n    tag_306:\n        /* \"#utility.yul\":7722:7807   */\n      swap3\n      pop\n        /* \"#utility.yul\":7517:7817   */\n      pop\n        /* \"#utility.yul\":7856:7858   */\n      0x40\n        /* \"#utility.yul\":7882:7935   */\n      tag_307\n        /* \"#utility.yul\":7927:7934   */\n      dup7\n        /* \"#utility.yul\":7918:7924   */\n      dup3\n        /* \"#utility.yul\":7907:7916   */\n      dup8\n        /* \"#utility.yul\":7903:7925   */\n      add\n        /* \"#utility.yul\":7882:7935   */\n      tag_165\n      jump\t// in\n    tag_307:\n        /* \"#utility.yul\":7872:7935   */\n      swap2\n      pop\n        /* \"#utility.yul\":7827:7945   */\n      pop\n        /* \"#utility.yul\":6919:7952   */\n      swap3\n      pop\n      swap3\n      pop\n      swap3\n      jump\t// out\n        /* \"#utility.yul\":7958:8075   */\n    tag_174:\n        /* \"#utility.yul\":8067:8068   */\n      0x00\n        /* \"#utility.yul\":8064:8065   */\n      dup1\n        /* \"#utility.yul\":8057:8069   */\n      revert\n        /* \"#utility.yul\":8094:8646   */\n    tag_175:\n        /* \"#utility.yul\":8151:8159   */\n      0x00\n        /* \"#utility.yul\":8161:8167   */\n      dup1\n        /* \"#utility.yul\":8211:8214   */\n      dup4\n        /* \"#utility.yul\":8204:8208   */\n      0x1f\n        /* \"#utility.yul\":8196:8202   */\n      dup5\n        /* \"#utility.yul\":8192:8209   */\n      add\n        /* \"#utility.yul\":8188:8215   */\n      slt\n        /* \"#utility.yul\":8178:8300   */\n      tag_310\n      jumpi\n        /* \"#utility.yul\":8219:8298   */\n      tag_311\n      tag_156\n      jump\t// in\n    tag_311:\n        /* \"#utility.yul\":8178:8300   */\n    tag_310:\n        /* \"#utility.yul\":8332:8338   */\n      dup3\n        /* \"#utility.yul\":8319:8339   */\n      calldataload\n        /* \"#utility.yul\":8309:8339   */\n      swap1\n      pop\n        /* \"#utility.yul\":8362:8380   */\n      0xffffffffffffffff\n        /* \"#utility.yul\":8354:8360   */\n      dup2\n        /* \"#utility.yul\":8351:8381   */\n      gt\n        /* \"#utility.yul\":8348:8465   */\n      iszero\n      tag_312\n      jumpi\n        /* \"#utility.yul\":8384:8463   */\n      tag_313\n      tag_174\n      jump\t// in\n    tag_313:\n        /* \"#utility.yul\":8348:8465   */\n    tag_312:\n        /* \"#utility.yul\":8498:8502   */\n      0x20\n        /* \"#utility.yul\":8490:8496   */\n      dup4\n        /* \"#utility.yul\":8486:8503   */\n      add\n        /* \"#utility.yul\":8474:8503   */\n      swap2\n      pop\n        /* \"#utility.yul\":8552:8555   */\n      dup4\n        /* \"#utility.yul\":8544:8548   */\n      0x01\n        /* \"#utility.yul\":8536:8542   */\n      dup3\n        /* \"#utility.yul\":8532:8549   */\n      mul\n        /* \"#utility.yul\":8522:8530   */\n      dup4\n        /* \"#utility.yul\":8518:8550   */\n      add\n        /* \"#utility.yul\":8515:8556   */\n      gt\n        /* \"#utility.yul\":8512:8640   */\n      iszero\n      tag_314\n      jumpi\n        /* \"#utility.yul\":8559:8638   */\n      tag_315\n      tag_162\n      jump\t// in\n    tag_315:\n        /* \"#utility.yul\":8512:8640   */\n    tag_314:\n        /* \"#utility.yul\":8094:8646   */\n      swap3\n      pop\n      swap3\n      swap1\n      pop\n      jump\t// out\n        /* \"#utility.yul\":8652:9615   */\n    tag_24:\n        /* \"#utility.yul\":8749:8755   */\n      0x00\n        /* \"#utility.yul\":8757:8763   */\n      dup1\n        /* \"#utility.yul\":8765:8771   */\n      0x00\n        /* \"#utility.yul\":8773:8779   */\n      dup1\n        /* \"#utility.yul\":8781:8787   */\n      0x00\n        /* \"#utility.yul\":8830:8833   */\n      0x80\n        /* \"#utility.yul\":8818:8827   */\n      dup7\n        /* \"#utility.yul\":8809:8816   */\n      dup9\n        /* \"#utility.yul\":8805:8828   */\n      sub\n        /* \"#utility.yul\":8801:8834   */\n      slt\n        /* \"#utility.yul\":8798:8918   */\n      iszero\n      tag_317\n      jumpi\n        /* \"#utility.yul\":8837:8916   */\n      tag_318\n      tag_147\n      jump\t// in\n    tag_318:\n        /* \"#utility.yul\":8798:8918   */\n    tag_317:\n        /* \"#utility.yul\":8957:8958   */\n      0x00\n        /* \"#utility.yul\":8982:9035   */\n      tag_319\n        /* \"#utility.yul\":9027:9034   */\n      dup9\n        /* \"#utility.yul\":9018:9024   */\n      dup3\n        /* \"#utility.yul\":9007:9016   */\n      dup10\n        /* \"#utility.yul\":9003:9025   */\n      add\n        /* \"#utility.yul\":8982:9035   */\n      tag_152\n      jump\t// in\n    tag_319:\n        /* \"#utility.yul\":8972:9035   */\n      swap6\n      pop\n        /* \"#utility.yul\":8928:9045   */\n      pop\n        /* \"#utility.yul\":9084:9086   */\n      0x20\n        /* \"#utility.yul\":9110:9163   */\n      tag_320\n        /* \"#utility.yul\":9155:9162   */\n      dup9\n        /* \"#utility.yul\":9146:9152   */\n      dup3\n        /* \"#utility.yul\":9135:9144   */\n      dup10\n        /* \"#utility.yul\":9131:9153   */\n      add\n        /* \"#utility.yul\":9110:9163   */\n      tag_152\n      jump\t// in\n    tag_320:\n        /* \"#utility.yul\":9100:9163   */\n      swap5\n      pop\n        /* \"#utility.yul\":9055:9173   */\n      pop\n        /* \"#utility.yul\":9212:9214   */\n      0x40\n        /* \"#utility.yul\":9238:9291   */\n      tag_321\n        /* \"#utility.yul\":9283:9290   */\n      dup9\n        /* \"#utility.yul\":9274:9280   */\n      dup3\n        /* \"#utility.yul\":9263:9272   */\n      dup10\n        /* \"#utility.yul\":9259:9281   */\n      add\n        /* \"#utility.yul\":9238:9291   */\n      tag_155\n      jump\t// in\n    tag_321:\n        /* \"#utility.yul\":9228:9291   */\n      swap4\n      pop\n        /* \"#utility.yul\":9183:9301   */\n      pop\n        /* \"#utility.yul\":9368:9370   */\n      0x60\n        /* \"#utility.yul\":9357:9366   */\n      dup7\n        /* \"#utility.yul\":9353:9371   */\n      add\n        /* \"#utility.yul\":9340:9372   */\n      calldataload\n        /* \"#utility.yul\":9399:9417   */\n      0xffffffffffffffff\n        /* \"#utility.yul\":9391:9397   */\n      dup2\n        /* \"#utility.yul\":9388:9418   */\n      gt\n        /* \"#utility.yul\":9385:9502   */\n      iszero\n      tag_322\n      jumpi\n        /* \"#utility.yul\":9421:9500   */\n      tag_323\n      tag_148\n      jump\t// in\n    tag_323:\n        /* \"#utility.yul\":9385:9502   */\n    tag_322:\n        /* \"#utility.yul\":9534:9598   */\n      tag_324\n        /* \"#utility.yul\":9590:9597   */\n      dup9\n        /* \"#utility.yul\":9581:9587   */\n      dup3\n        /* \"#utility.yul\":9570:9579   */\n      dup10\n        /* \"#utility.yul\":9566:9588   */\n      add\n        /* \"#utility.yul\":9534:9598   */\n      tag_175\n      jump\t// in\n    tag_324:\n        /* \"#utility.yul\":9516:9598   */\n      swap3\n      pop\n      swap3\n      pop\n        /* \"#utility.yul\":9311:9608   */\n      pop\n        /* \"#utility.yul\":8652:9615   */\n      swap3\n      swap6\n      pop\n      swap3\n      swap6\n      swap1\n      swap4\n      pop\n      jump\t// out\n        /* \"#utility.yul\":9621:9770   */\n    tag_176:\n        /* \"#utility.yul\":9657:9664   */\n      0x00\n        /* \"#utility.yul\":9697:9763   */\n      0xffffffff00000000000000000000000000000000000000000000000000000000\n        /* \"#utility.yul\":9690:9695   */\n      dup3\n        /* \"#utility.yul\":9686:9764   */\n      and\n        /* \"#utility.yul\":9675:9764   */\n      swap1\n      pop\n        /* \"#utility.yul\":9621:9770   */\n      swap2\n      swap1\n      pop\n      jump\t// out\n        /* \"#utility.yul\":9776:9891   */\n    tag_177:\n        /* \"#utility.yul\":9861:9884   */\n      tag_327\n        /* \"#utility.yul\":9878:9883   */\n      dup2\n        /* \"#utility.yul\":9861:9884   */\n      tag_176\n      jump\t// in\n    tag_327:\n        /* \"#utility.yul\":9856:9859   */\n      dup3\n        /* \"#utility.yul\":9849:9885   */\n      mstore\n        /* \"#utility.yul\":9776:9891   */\n      pop\n      pop\n      jump\t// out\n        /* \"#utility.yul\":9897:10115   */\n    tag_27:\n        /* \"#utility.yul\":9988:9992   */\n      0x00\n        /* \"#utility.yul\":10026:10028   */\n      0x20\n        /* \"#utility.yul\":10015:10024   */\n      dup3\n        /* \"#utility.yul\":10011:10029   */\n      add\n        /* \"#utility.yul\":10003:10029   */\n      swap1\n      pop\n        /* \"#utility.yul\":10039:10108   */\n      tag_329\n        /* \"#utility.yul\":10105:10106   */\n      0x00\n        /* \"#utility.yul\":10094:10103   */\n      dup4\n        /* \"#utility.yul\":10090:10107   */\n      add\n        /* \"#utility.yul\":10081:10087   */\n      dup5\n        /* \"#utility.yul\":10039:10108   */\n      tag_177\n      jump\t// in\n    tag_329:\n        /* \"#utility.yul\":9897:10115   */\n      swap3\n      swap2\n      pop\n      pop\n      jump\t// out\n        /* \"#utility.yul\":10121:10450   */\n    tag_30:\n        /* \"#utility.yul\":10180:10186   */\n      0x00\n        /* \"#utility.yul\":10229:10231   */\n      0x20\n        /* \"#utility.yul\":10217:10226   */\n      dup3\n        /* \"#utility.yul\":10208:10215   */\n      dup5\n        /* \"#utility.yul\":10204:10227   */\n      sub\n        /* \"#utility.yul\":10200:10232   */\n      slt\n        /* \"#utility.yul\":10197:10316   */\n      iszero\n      tag_331\n      jumpi\n        /* \"#utility.yul\":10235:10314   */\n      tag_332\n      tag_147\n      jump\t// in\n    tag_332:\n        /* \"#utility.yul\":10197:10316   */\n    tag_331:\n        /* \"#utility.yul\":10355:10356   */\n      0x00\n        /* \"#utility.yul\":10380:10433   */\n      tag_333\n        /* \"#utility.yul\":10425:10432   */\n      dup5\n        /* \"#utility.yul\":10416:10422   */\n      dup3\n        /* \"#utility.yul\":10405:10414   */\n      dup6\n        /* \"#utility.yul\":10401:10423   */\n      add\n        /* \"#utility.yul\":10380:10433   */\n      tag_155\n      jump\t// in\n    tag_333:\n        /* \"#utility.yul\":10370:10433   */\n      swap2\n      pop\n        /* \"#utility.yul\":10326:10443   */\n      pop\n        /* \"#utility.yul\":10121:10450   */\n      swap3\n      swap2\n      pop\n      pop\n      jump\t// out\n        /* \"#utility.yul\":10456:10574   */\n    tag_178:\n        /* \"#utility.yul\":10543:10567   */\n      tag_335\n        /* \"#utility.yul\":10561:10566   */\n      dup2\n        /* \"#utility.yul\":10543:10567   */\n      tag_150\n      jump\t// in\n    tag_335:\n        /* \"#utility.yul\":10538:10541   */\n      dup3\n        /* \"#utility.yul\":10531:10568   */\n      mstore\n        /* \"#utility.yul\":10456:10574   */\n      pop\n      pop\n      jump\t// out\n        /* \"#utility.yul\":10580:10698   */\n    tag_179:\n        /* \"#utility.yul\":10667:10691   */\n      tag_337\n        /* \"#utility.yul\":10685:10690   */\n      dup2\n        /* \"#utility.yul\":10667:10691   */\n      tag_153\n      jump\t// in\n    tag_337:\n        /* \"#utility.yul\":10662:10665   */\n      dup3\n        /* \"#utility.yul\":10655:10692   */\n      mstore\n        /* \"#utility.yul\":10580:10698   */\n      pop\n      pop\n      jump\t// out\n        /* \"#utility.yul\":10704:11146   */\n    tag_33:\n        /* \"#utility.yul\":10853:10857   */\n      0x00\n        /* \"#utility.yul\":10891:10893   */\n      0x60\n        /* \"#utility.yul\":10880:10889   */\n      dup3\n        /* \"#utility.yul\":10876:10894   */\n      add\n        /* \"#utility.yul\":10868:10894   */\n      swap1\n      pop\n        /* \"#utility.yul\":10904:10975   */\n      tag_339\n        /* \"#utility.yul\":10972:10973   */\n      0x00\n        /* \"#utility.yul\":10961:10970   */\n      dup4\n        /* \"#utility.yul\":10957:10974   */\n      add\n        /* \"#utility.yul\":10948:10954   */\n      dup7\n        /* \"#utility.yul\":10904:10975   */\n      tag_178\n      jump\t// in\n    tag_339:\n        /* \"#utility.yul\":10985:11057   */\n      tag_340\n        /* \"#utility.yul\":11053:11055   */\n      0x20\n        /* \"#utility.yul\":11042:11051   */\n      dup4\n        /* \"#utility.yul\":11038:11056   */\n      add\n        /* \"#utility.yul\":11029:11035   */\n      dup6\n        /* \"#utility.yul\":10985:11057   */\n      tag_179\n      jump\t// in\n    tag_340:\n        /* \"#utility.yul\":11067:11139   */\n      tag_341\n        /* \"#utility.yul\":11135:11137   */\n      0x40\n        /* \"#utility.yul\":11124:11133   */\n      dup4\n        /* \"#utility.yul\":11120:11138   */\n      add\n        /* \"#utility.yul\":11111:11117   */\n      dup5\n        /* \"#utility.yul\":11067:11139   */\n      tag_179\n      jump\t// in\n    tag_341:\n        /* \"#utility.yul\":10704:11146   */\n      swap5\n      swap4\n      pop\n      pop\n      pop\n      pop\n      jump\t// out\n        /* \"#utility.yul\":11152:11481   */\n    tag_36:\n        /* \"#utility.yul\":11211:11217   */\n      0x00\n        /* \"#utility.yul\":11260:11262   */\n      0x20\n        /* \"#utility.yul\":11248:11257   */\n      dup3\n        /* \"#utility.yul\":11239:11246   */\n      dup5\n        /* \"#utility.yul\":11235:11258   */\n      sub\n        /* \"#utility.yul\":11231:11263   */\n      slt\n        /* \"#utility.yul\":11228:11347   */\n      iszero\n      tag_343\n      jumpi\n        /* \"#utility.yul\":11266:11345   */\n      tag_344\n      tag_147\n      jump\t// in\n    tag_344:\n        /* \"#utility.yul\":11228:11347   */\n    tag_343:\n        /* \"#utility.yul\":11386:11387   */\n      0x00\n        /* \"#utility.yul\":11411:11464   */\n      tag_345\n        /* \"#utility.yul\":11456:11463   */\n      dup5\n        /* \"#utility.yul\":11447:11453   */\n      dup3\n        /* \"#utility.yul\":11436:11445   */\n      dup6\n        /* \"#utility.yul\":11432:11454   */\n      add\n        /* \"#utility.yul\":11411:11464   */\n      tag_165\n      jump\t// in\n    tag_345:\n        /* \"#utility.yul\":11401:11464   */\n      swap2\n      pop\n        /* \"#utility.yul\":11357:11474   */\n      pop\n        /* \"#utility.yul\":11152:11481   */\n      swap3\n      swap2\n      pop\n      pop\n      jump\t// out\n        /* \"#utility.yul\":11487:11605   */\n    tag_180:\n        /* \"#utility.yul\":11574:11598   */\n      tag_347\n        /* \"#utility.yul\":11592:11597   */\n      dup2\n        /* \"#utility.yul\":11574:11598   */\n      tag_163\n      jump\t// in\n    tag_347:\n        /* \"#utility.yul\":11569:11572   */\n      dup3\n        /* \"#utility.yul\":11562:11599   */\n      mstore\n        /* \"#utility.yul\":11487:11605   */\n      pop\n      pop\n      jump\t// out\n        /* \"#utility.yul\":11611:11833   */\n    tag_41:\n        /* \"#utility.yul\":11704:11708   */\n      0x00\n        /* \"#utility.yul\":11742:11744   */\n      0x20\n        /* \"#utility.yul\":11731:11740   */\n      dup3\n        /* \"#utility.yul\":11727:11745   */\n      add\n        /* \"#utility.yul\":11719:11745   */\n      swap1\n      pop\n        /* \"#utility.yul\":11755:11826   */\n      tag_349\n        /* \"#utility.yul\":11823:11824   */\n      0x00\n        /* \"#utility.yul\":11812:11821   */\n      dup4\n        /* \"#utility.yul\":11808:11825   */\n      add\n        /* \"#utility.yul\":11799:11805   */\n      dup5\n        /* \"#utility.yul\":11755:11826   */\n      tag_180\n      jump\t// in\n    tag_349:\n        /* \"#utility.yul\":11611:11833   */\n      swap3\n      swap2\n      pop\n      pop\n      jump\t// out\n        /* \"#utility.yul\":11839:12313   */\n    tag_44:\n        /* \"#utility.yul\":11907:11913   */\n      0x00\n        /* \"#utility.yul\":11915:11921   */\n      dup1\n        /* \"#utility.yul\":11964:11966   */\n      0x40\n        /* \"#utility.yul\":11952:11961   */\n      dup4\n        /* \"#utility.yul\":11943:11950   */\n      dup6\n        /* \"#utility.yul\":11939:11962   */\n      sub\n        /* \"#utility.yul\":11935:11967   */\n      slt\n        /* \"#utility.yul\":11932:12051   */\n      iszero\n      tag_351\n      jumpi\n        /* \"#utility.yul\":11970:12049   */\n      tag_352\n      tag_147\n      jump\t// in\n    tag_352:\n        /* \"#utility.yul\":11932:12051   */\n    tag_351:\n        /* \"#utility.yul\":12090:12091   */\n      0x00\n        /* \"#utility.yul\":12115:12168   */\n      tag_353\n        /* \"#utility.yul\":12160:12167   */\n      dup6\n        /* \"#utility.yul\":12151:12157   */\n      dup3\n        /* \"#utility.yul\":12140:12149   */\n      dup7\n        /* \"#utility.yul\":12136:12158   */\n      add\n        /* \"#utility.yul\":12115:12168   */\n      tag_152\n      jump\t// in\n    tag_353:\n        /* \"#utility.yul\":12105:12168   */\n      swap3\n      pop\n        /* \"#utility.yul\":12061:12178   */\n      pop\n        /* \"#utility.yul\":12217:12219   */\n      0x20\n        /* \"#utility.yul\":12243:12296   */\n      tag_354\n        /* \"#utility.yul\":12288:12295   */\n      dup6\n        /* \"#utility.yul\":12279:12285   */\n      dup3\n        /* \"#utility.yul\":12268:12277   */\n      dup7\n        /* \"#utility.yul\":12264:12286   */\n      add\n        /* \"#utility.yul\":12243:12296   */\n      tag_155\n      jump\t// in\n    tag_354:\n        /* \"#utility.yul\":12233:12296   */\n      swap2\n      pop\n        /* \"#utility.yul\":12188:12306   */\n      pop\n        /* \"#utility.yul\":11839:12313   */\n      swap3\n      pop\n      swap3\n      swap1\n      pop\n      jump\t// out\n        /* \"#utility.yul\":12319:12541   */\n    tag_47:\n        /* \"#utility.yul\":12412:12416   */\n      0x00\n        /* \"#utility.yul\":12450:12452   */\n      0x20\n        /* \"#utility.yul\":12439:12448   */\n      dup3\n        /* \"#utility.yul\":12435:12453   */\n      add\n        /* \"#utility.yul\":12427:12453   */\n      swap1\n      pop\n        /* \"#utility.yul\":12463:12534   */\n      tag_356\n        /* \"#utility.yul\":12531:12532   */\n      0x00\n        /* \"#utility.yul\":12520:12529   */\n      dup4\n        /* \"#utility.yul\":12516:12533   */\n      add\n        /* \"#utility.yul\":12507:12513   */\n      dup5\n        /* \"#utility.yul\":12463:12534   */\n      tag_178\n      jump\t// in\n    tag_356:\n        /* \"#utility.yul\":12319:12541   */\n      swap3\n      swap2\n      pop\n      pop\n      jump\t// out\n        /* \"#utility.yul\":12547:12769   */\n    tag_52:\n        /* \"#utility.yul\":12640:12644   */\n      0x00\n        /* \"#utility.yul\":12678:12680   */\n      0x20\n        /* \"#utility.yul\":12667:12676   */\n      dup3\n        /* \"#utility.yul\":12663:12681   */\n      add\n        /* \"#utility.yul\":12655:12681   */\n      swap1\n      pop\n        /* \"#utility.yul\":12691:12762   */\n      tag_358\n        /* \"#utility.yul\":12759:12760   */\n      0x00\n        /* \"#utility.yul\":12748:12757   */\n      dup4\n        /* \"#utility.yul\":12744:12761   */\n      add\n        /* \"#utility.yul\":12735:12741   */\n      dup5\n        /* \"#utility.yul\":12691:12762   */\n      tag_179\n      jump\t// in\n    tag_358:\n        /* \"#utility.yul\":12547:12769   */\n      swap3\n      swap2\n      pop\n      pop\n      jump\t// out\n        /* \"#utility.yul\":12775:12892   */\n    tag_181:\n        /* \"#utility.yul\":12884:12885   */\n      0x00\n        /* \"#utility.yul\":12881:12882   */\n      dup1\n        /* \"#utility.yul\":12874:12886   */\n      revert\n        /* \"#utility.yul\":12898:13205   */\n    tag_182:\n        /* \"#utility.yul\":12959:12963   */\n      0x00\n        /* \"#utility.yul\":13049:13067   */\n      0xffffffffffffffff\n        /* \"#utility.yul\":13041:13047   */\n      dup3\n        /* \"#utility.yul\":13038:13068   */\n      gt\n        /* \"#utility.yul\":13035:13091   */\n      iszero\n      tag_361\n      jumpi\n        /* \"#utility.yul\":13071:13089   */\n      tag_362\n      tag_158\n      jump\t// in\n    tag_362:\n        /* \"#utility.yul\":13035:13091   */\n    tag_361:\n        /* \"#utility.yul\":13109:13138   */\n      tag_363\n        /* \"#utility.yul\":13131:13137   */\n      dup3\n        /* \"#utility.yul\":13109:13138   */\n      tag_157\n      jump\t// in\n    tag_363:\n        /* \"#utility.yul\":13101:13138   */\n      swap1\n      pop\n        /* \"#utility.yul\":13193:13197   */\n      0x20\n        /* \"#utility.yul\":13187:13191   */\n      dup2\n        /* \"#utility.yul\":13183:13198   */\n      add\n        /* \"#utility.yul\":13175:13198   */\n      swap1\n      pop\n        /* \"#utility.yul\":12898:13205   */\n      swap2\n      swap1\n      pop\n      jump\t// out\n        /* \"#utility.yul\":13211:13359   */\n    tag_183:\n        /* \"#utility.yul\":13309:13315   */\n      dup3\n        /* \"#utility.yul\":13304:13307   */\n      dup2\n        /* \"#utility.yul\":13299:13302   */\n      dup4\n        /* \"#utility.yul\":13286:13316   */\n      calldatacopy\n        /* \"#utility.yul\":13350:13351   */\n      0x00\n        /* \"#utility.yul\":13341:13347   */\n      dup4\n        /* \"#utility.yul\":13336:13339   */\n      dup4\n        /* \"#utility.yul\":13332:13348   */\n      add\n        /* \"#utility.yul\":13325:13352   */\n      mstore\n        /* \"#utility.yul\":13211:13359   */\n      pop\n      pop\n      pop\n      jump\t// out\n        /* \"#utility.yul\":13365:13788   */\n    tag_184:\n        /* \"#utility.yul\":13442:13447   */\n      0x00\n        /* \"#utility.yul\":13467:13532   */\n      tag_366\n        /* \"#utility.yul\":13483:13531   */\n      tag_367\n        /* \"#utility.yul\":13524:13530   */\n      dup5\n        /* \"#utility.yul\":13483:13531   */\n      tag_182\n      jump\t// in\n    tag_367:\n        /* \"#utility.yul\":13467:13532   */\n      tag_160\n      jump\t// in\n    tag_366:\n        /* \"#utility.yul\":13458:13532   */\n      swap1\n      pop\n        /* \"#utility.yul\":13555:13561   */\n      dup3\n        /* \"#utility.yul\":13548:13553   */\n      dup2\n        /* \"#utility.yul\":13541:13562   */\n      mstore\n        /* \"#utility.yul\":13593:13597   */\n      0x20\n        /* \"#utility.yul\":13586:13591   */\n      dup2\n        /* \"#utility.yul\":13582:13598   */\n      add\n        /* \"#utility.yul\":13631:13634   */\n      dup5\n        /* \"#utility.yul\":13622:13628   */\n      dup5\n        /* \"#utility.yul\":13617:13620   */\n      dup5\n        /* \"#utility.yul\":13613:13629   */\n      add\n        /* \"#utility.yul\":13610:13635   */\n      gt\n        /* \"#utility.yul\":13607:13719   */\n      iszero\n      tag_368\n      jumpi\n        /* \"#utility.yul\":13638:13717   */\n      tag_369\n      tag_181\n      jump\t// in\n    tag_369:\n        /* \"#utility.yul\":13607:13719   */\n    tag_368:\n        /* \"#utility.yul\":13728:13782   */\n      tag_370\n        /* \"#utility.yul\":13775:13781   */\n      dup5\n        /* \"#utility.yul\":13770:13773   */\n      dup3\n        /* \"#utility.yul\":13765:13768   */\n      dup6\n        /* \"#utility.yul\":13728:13782   */\n      tag_183\n      jump\t// in\n    tag_370:\n        /* \"#utility.yul\":13448:13788   */\n      pop\n        /* \"#utility.yul\":13365:13788   */\n      swap4\n      swap3\n      pop\n      pop\n      pop\n      jump\t// out\n        /* \"#utility.yul\":13807:14145   */\n    tag_185:\n        /* \"#utility.yul\":13862:13867   */\n      0x00\n        /* \"#utility.yul\":13911:13914   */\n      dup3\n        /* \"#utility.yul\":13904:13908   */\n      0x1f\n        /* \"#utility.yul\":13896:13902   */\n      dup4\n        /* \"#utility.yul\":13892:13909   */\n      add\n        /* \"#utility.yul\":13888:13915   */\n      slt\n        /* \"#utility.yul\":13878:14000   */\n      tag_372\n      jumpi\n        /* \"#utility.yul\":13919:13998   */\n      tag_373\n      tag_156\n      jump\t// in\n    tag_373:\n        /* \"#utility.yul\":13878:14000   */\n    tag_372:\n        /* \"#utility.yul\":14036:14042   */\n      dup2\n        /* \"#utility.yul\":14023:14043   */\n      calldataload\n        /* \"#utility.yul\":14061:14139   */\n      tag_374\n        /* \"#utility.yul\":14135:14138   */\n      dup5\n        /* \"#utility.yul\":14127:14133   */\n      dup3\n        /* \"#utility.yul\":14120:14124   */\n      0x20\n        /* \"#utility.yul\":14112:14118   */\n      dup7\n        /* \"#utility.yul\":14108:14125   */\n      add\n        /* \"#utility.yul\":14061:14139   */\n      tag_184\n      jump\t// in\n    tag_374:\n        /* \"#utility.yul\":14052:14139   */\n      swap2\n      pop\n        /* \"#utility.yul\":13868:14145   */\n      pop\n        /* \"#utility.yul\":13807:14145   */\n      swap3\n      swap2\n      pop\n      pop\n      jump\t// out\n        /* \"#utility.yul\":14151:14658   */\n    tag_58:\n        /* \"#utility.yul\":14219:14225   */\n      0x00\n        /* \"#utility.yul\":14268:14270   */\n      0x20\n        /* \"#utility.yul\":14256:14265   */\n      dup3\n        /* \"#utility.yul\":14247:14254   */\n      dup5\n        /* \"#utility.yul\":14243:14266   */\n      sub\n        /* \"#utility.yul\":14239:14271   */\n      slt\n        /* \"#utility.yul\":14236:14355   */\n      iszero\n      tag_376\n      jumpi\n        /* \"#utility.yul\":14274:14353   */\n      tag_377\n      tag_147\n      jump\t// in\n    tag_377:\n        /* \"#utility.yul\":14236:14355   */\n    tag_376:\n        /* \"#utility.yul\":14422:14423   */\n      0x00\n        /* \"#utility.yul\":14411:14420   */\n      dup3\n        /* \"#utility.yul\":14407:14424   */\n      add\n        /* \"#utility.yul\":14394:14425   */\n      calldataload\n        /* \"#utility.yul\":14452:14470   */\n      0xffffffffffffffff\n        /* \"#utility.yul\":14444:14450   */\n      dup2\n        /* \"#utility.yul\":14441:14471   */\n      gt\n        /* \"#utility.yul\":14438:14555   */\n      iszero\n      tag_378\n      jumpi\n        /* \"#utility.yul\":14474:14553   */\n      tag_379\n      tag_148\n      jump\t// in\n    tag_379:\n        /* \"#utility.yul\":14438:14555   */\n    tag_378:\n        /* \"#utility.yul\":14579:14641   */\n      tag_380\n        /* \"#utility.yul\":14633:14640   */\n      dup5\n        /* \"#utility.yul\":14624:14630   */\n      dup3\n        /* \"#utility.yul\":14613:14622   */\n      dup6\n        /* \"#utility.yul\":14609:14631   */\n      add\n        /* \"#utility.yul\":14579:14641   */\n      tag_185\n      jump\t// in\n    tag_380:\n        /* \"#utility.yul\":14569:14641   */\n      swap2\n      pop\n        /* \"#utility.yul\":14365:14651   */\n      pop\n        /* \"#utility.yul\":14151:14658   */\n      swap3\n      swap2\n      pop\n      pop\n      jump\t// out\n        /* \"#utility.yul\":14664:14996   */\n    tag_61:\n        /* \"#utility.yul\":14785:14789   */\n      0x00\n        /* \"#utility.yul\":14823:14825   */\n      0x40\n        /* \"#utility.yul\":14812:14821   */\n      dup3\n        /* \"#utility.yul\":14808:14826   */\n      add\n        /* \"#utility.yul\":14800:14826   */\n      swap1\n      pop\n        /* \"#utility.yul\":14836:14907   */\n      tag_382\n        /* \"#utility.yul\":14904:14905   */\n      0x00\n        /* \"#utility.yul\":14893:14902   */\n      dup4\n        /* \"#utility.yul\":14889:14906   */\n      add\n        /* \"#utility.yul\":14880:14886   */\n      dup6\n        /* \"#utility.yul\":14836:14907   */\n      tag_178\n      jump\t// in\n    tag_382:\n        /* \"#utility.yul\":14917:14989   */\n      tag_383\n        /* \"#utility.yul\":14985:14987   */\n      0x20\n        /* \"#utility.yul\":14974:14983   */\n      dup4\n        /* \"#utility.yul\":14970:14988   */\n      add\n        /* \"#utility.yul\":14961:14967   */\n      dup5\n        /* \"#utility.yul\":14917:14989   */\n      tag_179\n      jump\t// in\n    tag_383:\n        /* \"#utility.yul\":14664:14996   */\n      swap4\n      swap3\n      pop\n      pop\n      pop\n      jump\t// out\n        /* \"#utility.yul\":15002:15096   */\n    tag_186:\n        /* \"#utility.yul\":15035:15043   */\n      0x00\n        /* \"#utility.yul\":15083:15088   */\n      dup2\n        /* \"#utility.yul\":15079:15081   */\n      0x60\n        /* \"#utility.yul\":15075:15089   */\n      shl\n        /* \"#utility.yul\":15054:15089   */\n      swap1\n      pop\n        /* \"#utility.yul\":15002:15096   */\n      swap2\n      swap1\n      pop\n      jump\t// out\n        /* \"#utility.yul\":15102:15196   */\n    tag_187:\n        /* \"#utility.yul\":15141:15148   */\n      0x00\n        /* \"#utility.yul\":15170:15190   */\n      tag_386\n        /* \"#utility.yul\":15184:15189   */\n      dup3\n        /* \"#utility.yul\":15170:15190   */\n      tag_186\n      jump\t// in\n    tag_386:\n        /* \"#utility.yul\":15159:15190   */\n      swap1\n      pop\n        /* \"#utility.yul\":15102:15196   */\n      swap2\n      swap1\n      pop\n      jump\t// out\n        /* \"#utility.yul\":15202:15302   */\n    tag_188:\n        /* \"#utility.yul\":15241:15248   */\n      0x00\n        /* \"#utility.yul\":15270:15296   */\n      tag_388\n        /* \"#utility.yul\":15290:15295   */\n      dup3\n        /* \"#utility.yul\":15270:15296   */\n      tag_187\n      jump\t// in\n    tag_388:\n        /* \"#utility.yul\":15259:15296   */\n      swap1\n      pop\n        /* \"#utility.yul\":15202:15302   */\n      swap2\n      swap1\n      pop\n      jump\t// out\n        /* \"#utility.yul\":15308:15465   */\n    tag_189:\n        /* \"#utility.yul\":15413:15458   */\n      tag_390\n        /* \"#utility.yul\":15433:15457   */\n      tag_391\n        /* \"#utility.yul\":15451:15456   */\n      dup3\n        /* \"#utility.yul\":15433:15457   */\n      tag_150\n      jump\t// in\n    tag_391:\n        /* \"#utility.yul\":15413:15458   */\n      tag_188\n      jump\t// in\n    tag_390:\n        /* \"#utility.yul\":15408:15411   */\n      dup3\n        /* \"#utility.yul\":15401:15459   */\n      mstore\n        /* \"#utility.yul\":15308:15465   */\n      pop\n      pop\n      jump\t// out\n        /* \"#utility.yul\":15471:15727   */\n    tag_65:\n        /* \"#utility.yul\":15583:15586   */\n      0x00\n        /* \"#utility.yul\":15598:15673   */\n      tag_393\n        /* \"#utility.yul\":15669:15672   */\n      dup3\n        /* \"#utility.yul\":15660:15666   */\n      dup5\n        /* \"#utility.yul\":15598:15673   */\n      tag_189\n      jump\t// in\n    tag_393:\n        /* \"#utility.yul\":15698:15700   */\n      0x14\n        /* \"#utility.yul\":15693:15696   */\n      dup3\n        /* \"#utility.yul\":15689:15701   */\n      add\n        /* \"#utility.yul\":15682:15701   */\n      swap2\n      pop\n        /* \"#utility.yul\":15718:15721   */\n      dup2\n        /* \"#utility.yul\":15711:15721   */\n      swap1\n      pop\n        /* \"#utility.yul\":15471:15727   */\n      swap3\n      swap2\n      pop\n      pop\n      jump\t// out\n        /* \"#utility.yul\":15733:15913   */\n    tag_68:\n        /* \"#utility.yul\":15781:15858   */\n      0x4e487b7100000000000000000000000000000000000000000000000000000000\n        /* \"#utility.yul\":15778:15779   */\n      0x00\n        /* \"#utility.yul\":15771:15859   */\n      mstore\n        /* \"#utility.yul\":15878:15882   */\n      0x32\n        /* \"#utility.yul\":15875:15876   */\n      0x04\n        /* \"#utility.yul\":15868:15883   */\n      mstore\n        /* \"#utility.yul\":15902:15906   */\n      0x24\n        /* \"#utility.yul\":15899:15900   */\n      0x00\n        /* \"#utility.yul\":15892:15907   */\n      revert\n        /* \"#utility.yul\":15919:16099   */\n    tag_190:\n        /* \"#utility.yul\":15967:16044   */\n      0x4e487b7100000000000000000000000000000000000000000000000000000000\n        /* \"#utility.yul\":15964:15965   */\n      0x00\n        /* \"#utility.yul\":15957:16045   */\n      mstore\n        /* \"#utility.yul\":16064:16068   */\n      0x12\n        /* \"#utility.yul\":16061:16062   */\n      0x04\n        /* \"#utility.yul\":16054:16069   */\n      mstore\n        /* \"#utility.yul\":16088:16092   */\n      0x24\n        /* \"#utility.yul\":16085:16086   */\n      0x00\n        /* \"#utility.yul\":16078:16093   */\n      revert\n        /* \"#utility.yul\":16105:16285   */\n    tag_191:\n        /* \"#utility.yul\":16153:16230   */\n      0x4e487b7100000000000000000000000000000000000000000000000000000000\n        /* \"#utility.yul\":16150:16151   */\n      0x00\n        /* \"#utility.yul\":16143:16231   */\n      mstore\n        /* \"#utility.yul\":16250:16254   */\n      0x11\n        /* \"#utility.yul\":16247:16248   */\n      0x04\n        /* \"#utility.yul\":16240:16255   */\n      mstore\n        /* \"#utility.yul\":16274:16278   */\n      0x24\n        /* \"#utility.yul\":16271:16272   */\n      0x00\n        /* \"#utility.yul\":16264:16279   */\n      revert\n        /* \"#utility.yul\":16291:16476   */\n    tag_71:\n        /* \"#utility.yul\":16331:16332   */\n      0x00\n        /* \"#utility.yul\":16348:16368   */\n      tag_398\n        /* \"#utility.yul\":16366:16367   */\n      dup3\n        /* \"#utility.yul\":16348:16368   */\n      tag_153\n      jump\t// in\n    tag_398:\n        /* \"#utility.yul\":16343:16368   */\n      swap2\n      pop\n        /* \"#utility.yul\":16382:16402   */\n      tag_399\n        /* \"#utility.yul\":16400:16401   */\n      dup4\n        /* \"#utility.yul\":16382:16402   */\n      tag_153\n      jump\t// in\n    tag_399:\n        /* \"#utility.yul\":16377:16402   */\n      swap3\n      pop\n        /* \"#utility.yul\":16421:16422   */\n      dup3\n        /* \"#utility.yul\":16411:16446   */\n      tag_400\n      jumpi\n        /* \"#utility.yul\":16426:16444   */\n      tag_401\n      tag_190\n      jump\t// in\n    tag_401:\n        /* \"#utility.yul\":16411:16446   */\n    tag_400:\n        /* \"#utility.yul\":16468:16469   */\n      dup3\n        /* \"#utility.yul\":16465:16466   */\n      dup3\n        /* \"#utility.yul\":16461:16470   */\n      div\n        /* \"#utility.yul\":16456:16470   */\n      swap1\n      pop\n        /* \"#utility.yul\":16291:16476   */\n      swap3\n      swap2\n      pop\n      pop\n      jump\t// out\n        /* \"#utility.yul\":16482:16580   */\n    tag_192:\n        /* \"#utility.yul\":16533:16539   */\n      0x00\n        /* \"#utility.yul\":16567:16572   */\n      dup2\n        /* \"#utility.yul\":16561:16573   */\n      mload\n        /* \"#utility.yul\":16551:16573   */\n      swap1\n      pop\n        /* \"#utility.yul\":16482:16580   */\n      swap2\n      swap1\n      pop\n      jump\t// out\n        /* \"#utility.yul\":16586:16733   */\n    tag_193:\n        /* \"#utility.yul\":16687:16698   */\n      0x00\n        /* \"#utility.yul\":16724:16727   */\n      dup2\n        /* \"#utility.yul\":16709:16727   */\n      swap1\n      pop\n        /* \"#utility.yul\":16586:16733   */\n      swap3\n      swap2\n      pop\n      pop\n      jump\t// out\n        /* \"#utility.yul\":16739:16878   */\n    tag_194:\n        /* \"#utility.yul\":16828:16834   */\n      dup3\n        /* \"#utility.yul\":16823:16826   */\n      dup2\n        /* \"#utility.yul\":16818:16821   */\n      dup4\n        /* \"#utility.yul\":16812:16835   */\n      mcopy\n        /* \"#utility.yul\":16869:16870   */\n      0x00\n        /* \"#utility.yul\":16860:16866   */\n      dup4\n        /* \"#utility.yul\":16855:16858   */\n      dup4\n        /* \"#utility.yul\":16851:16867   */\n      add\n        /* \"#utility.yul\":16844:16871   */\n      mstore\n        /* \"#utility.yul\":16739:16878   */\n      pop\n      pop\n      pop\n      jump\t// out\n        /* \"#utility.yul\":16884:17270   */\n    tag_195:\n        /* \"#utility.yul\":16988:16991   */\n      0x00\n        /* \"#utility.yul\":17016:17054   */\n      tag_406\n        /* \"#utility.yul\":17048:17053   */\n      dup3\n        /* \"#utility.yul\":17016:17054   */\n      tag_192\n      jump\t// in\n    tag_406:\n        /* \"#utility.yul\":17070:17158   */\n      tag_407\n        /* \"#utility.yul\":17151:17157   */\n      dup2\n        /* \"#utility.yul\":17146:17149   */\n      dup6\n        /* \"#utility.yul\":17070:17158   */\n      tag_193\n      jump\t// in\n    tag_407:\n        /* \"#utility.yul\":17063:17158   */\n      swap4\n      pop\n        /* \"#utility.yul\":17167:17232   */\n      tag_408\n        /* \"#utility.yul\":17225:17231   */\n      dup2\n        /* \"#utility.yul\":17220:17223   */\n      dup6\n        /* \"#utility.yul\":17213:17217   */\n      0x20\n        /* \"#utility.yul\":17206:17211   */\n      dup7\n        /* \"#utility.yul\":17202:17218   */\n      add\n        /* \"#utility.yul\":17167:17232   */\n      tag_194\n      jump\t// in\n    tag_408:\n        /* \"#utility.yul\":17257:17263   */\n      dup1\n        /* \"#utility.yul\":17252:17255   */\n      dup5\n        /* \"#utility.yul\":17248:17264   */\n      add\n        /* \"#utility.yul\":17241:17264   */\n      swap2\n      pop\n        /* \"#utility.yul\":16992:17270   */\n      pop\n        /* \"#utility.yul\":16884:17270   */\n      swap3\n      swap2\n      pop\n      pop\n      jump\t// out\n        /* \"#utility.yul\":17276:17547   */\n    tag_74:\n        /* \"#utility.yul\":17406:17409   */\n      0x00\n        /* \"#utility.yul\":17428:17521   */\n      tag_410\n        /* \"#utility.yul\":17517:17520   */\n      dup3\n        /* \"#utility.yul\":17508:17514   */\n      dup5\n        /* \"#utility.yul\":17428:17521   */\n      tag_195\n      jump\t// in\n    tag_410:\n        /* \"#utility.yul\":17421:17521   */\n      swap2\n      pop\n        /* \"#utility.yul\":17538:17541   */\n      dup2\n        /* \"#utility.yul\":17531:17541   */\n      swap1\n      pop\n        /* \"#utility.yul\":17276:17547   */\n      swap3\n      swap2\n      pop\n      pop\n      jump\t// out\n        /* \"#utility.yul\":17553:17722   */\n    tag_196:\n        /* \"#utility.yul\":17637:17648   */\n      0x00\n        /* \"#utility.yul\":17671:17677   */\n      dup3\n        /* \"#utility.yul\":17666:17669   */\n      dup3\n        /* \"#utility.yul\":17659:17678   */\n      mstore\n        /* \"#utility.yul\":17711:17715   */\n      0x20\n        /* \"#utility.yul\":17706:17709   */\n      dup3\n        /* \"#utility.yul\":17702:17716   */\n      add\n        /* \"#utility.yul\":17687:17716   */\n      swap1\n      pop\n        /* \"#utility.yul\":17553:17722   */\n      swap3\n      swap2\n      pop\n      pop\n      jump\t// out\n        /* \"#utility.yul\":17728:17896   */\n    tag_197:\n        /* \"#utility.yul\":17868:17888   */\n      0x617070726f7665206572633230206661696c0000000000000000000000000000\n        /* \"#utility.yul\":17864:17865   */\n      0x00\n        /* \"#utility.yul\":17856:17862   */\n      dup3\n        /* \"#utility.yul\":17852:17866   */\n      add\n        /* \"#utility.yul\":17845:17889   */\n      mstore\n        /* \"#utility.yul\":17728:17896   */\n      pop\n      jump\t// out\n        /* \"#utility.yul\":17902:18268   */\n    tag_198:\n        /* \"#utility.yul\":18044:18047   */\n      0x00\n        /* \"#utility.yul\":18065:18132   */\n      tag_414\n        /* \"#utility.yul\":18129:18131   */\n      0x12\n        /* \"#utility.yul\":18124:18127   */\n      dup4\n        /* \"#utility.yul\":18065:18132   */\n      tag_196\n      jump\t// in\n    tag_414:\n        /* \"#utility.yul\":18058:18132   */\n      swap2\n      pop\n        /* \"#utility.yul\":18141:18234   */\n      tag_415\n        /* \"#utility.yul\":18230:18233   */\n      dup3\n        /* \"#utility.yul\":18141:18234   */\n      tag_197\n      jump\t// in\n    tag_415:\n        /* \"#utility.yul\":18259:18261   */\n      0x20\n        /* \"#utility.yul\":18254:18257   */\n      dup3\n        /* \"#utility.yul\":18250:18262   */\n      add\n        /* \"#utility.yul\":18243:18262   */\n      swap1\n      pop\n        /* \"#utility.yul\":17902:18268   */\n      swap2\n      swap1\n      pop\n      jump\t// out\n        /* \"#utility.yul\":18274:18693   */\n    tag_80:\n        /* \"#utility.yul\":18440:18444   */\n      0x00\n        /* \"#utility.yul\":18478:18480   */\n      0x20\n        /* \"#utility.yul\":18467:18476   */\n      dup3\n        /* \"#utility.yul\":18463:18481   */\n      add\n        /* \"#utility.yul\":18455:18481   */\n      swap1\n      pop\n        /* \"#utility.yul\":18527:18536   */\n      dup2\n        /* \"#utility.yul\":18521:18525   */\n      dup2\n        /* \"#utility.yul\":18517:18537   */\n      sub\n        /* \"#utility.yul\":18513:18514   */\n      0x00\n        /* \"#utility.yul\":18502:18511   */\n      dup4\n        /* \"#utility.yul\":18498:18515   */\n      add\n        /* \"#utility.yul\":18491:18538   */\n      mstore\n        /* \"#utility.yul\":18555:18686   */\n      tag_417\n        /* \"#utility.yul\":18681:18685   */\n      dup2\n        /* \"#utility.yul\":18555:18686   */\n      tag_198\n      jump\t// in\n    tag_417:\n        /* \"#utility.yul\":18547:18686   */\n      swap1\n      pop\n        /* \"#utility.yul\":18274:18693   */\n      swap2\n      swap1\n      pop\n      jump\t// out\n        /* \"#utility.yul\":18699:19141   */\n    tag_83:\n        /* \"#utility.yul\":18848:18852   */\n      0x00\n        /* \"#utility.yul\":18886:18888   */\n      0x60\n        /* \"#utility.yul\":18875:18884   */\n      dup3\n        /* \"#utility.yul\":18871:18889   */\n      add\n        /* \"#utility.yul\":18863:18889   */\n      swap1\n      pop\n        /* \"#utility.yul\":18899:18970   */\n      tag_419\n        /* \"#utility.yul\":18967:18968   */\n      0x00\n        /* \"#utility.yul\":18956:18965   */\n      dup4\n        /* \"#utility.yul\":18952:18969   */\n      add\n        /* \"#utility.yul\":18943:18949   */\n      dup7\n        /* \"#utility.yul\":18899:18970   */\n      tag_178\n      jump\t// in\n    tag_419:\n        /* \"#utility.yul\":18980:19052   */\n      tag_420\n        /* \"#utility.yul\":19048:19050   */\n      0x20\n        /* \"#utility.yul\":19037:19046   */\n      dup4\n        /* \"#utility.yul\":19033:19051   */\n      add\n        /* \"#utility.yul\":19024:19030   */\n      dup6\n        /* \"#utility.yul\":18980:19052   */\n      tag_178\n      jump\t// in\n    tag_420:\n        /* \"#utility.yul\":19062:19134   */\n      tag_421\n        /* \"#utility.yul\":19130:19132   */\n      0x40\n        /* \"#utility.yul\":19119:19128   */\n      dup4\n        /* \"#utility.yul\":19115:19133   */\n      add\n        /* \"#utility.yul\":19106:19112   */\n      dup5\n        /* \"#utility.yul\":19062:19134   */\n      tag_179\n      jump\t// in\n    tag_421:\n        /* \"#utility.yul\":18699:19141   */\n      swap5\n      swap4\n      pop\n      pop\n      pop\n      pop\n      jump\t// out\n        /* \"#utility.yul\":19147:19284   */\n    tag_199:\n        /* \"#utility.yul\":19201:19206   */\n      0x00\n        /* \"#utility.yul\":19232:19238   */\n      dup2\n        /* \"#utility.yul\":19226:19239   */\n      mload\n        /* \"#utility.yul\":19217:19239   */\n      swap1\n      pop\n        /* \"#utility.yul\":19248:19278   */\n      tag_423\n        /* \"#utility.yul\":19272:19277   */\n      dup2\n        /* \"#utility.yul\":19248:19278   */\n      tag_170\n      jump\t// in\n    tag_423:\n        /* \"#utility.yul\":19147:19284   */\n      swap3\n      swap2\n      pop\n      pop\n      jump\t// out\n        /* \"#utility.yul\":19290:19635   */\n    tag_87:\n        /* \"#utility.yul\":19357:19363   */\n      0x00\n        /* \"#utility.yul\":19406:19408   */\n      0x20\n        /* \"#utility.yul\":19394:19403   */\n      dup3\n        /* \"#utility.yul\":19385:19392   */\n      dup5\n        /* \"#utility.yul\":19381:19404   */\n      sub\n        /* \"#utility.yul\":19377:19409   */\n      slt\n        /* \"#utility.yul\":19374:19493   */\n      iszero\n      tag_425\n      jumpi\n        /* \"#utility.yul\":19412:19491   */\n      tag_426\n      tag_147\n      jump\t// in\n    tag_426:\n        /* \"#utility.yul\":19374:19493   */\n    tag_425:\n        /* \"#utility.yul\":19532:19533   */\n      0x00\n        /* \"#utility.yul\":19557:19618   */\n      tag_427\n        /* \"#utility.yul\":19610:19617   */\n      dup5\n        /* \"#utility.yul\":19601:19607   */\n      dup3\n        /* \"#utility.yul\":19590:19599   */\n      dup6\n        /* \"#utility.yul\":19586:19608   */\n      add\n        /* \"#utility.yul\":19557:19618   */\n      tag_199\n      jump\t// in\n    tag_427:\n        /* \"#utility.yul\":19547:19618   */\n      swap2\n      pop\n        /* \"#utility.yul\":19503:19628   */\n      pop\n        /* \"#utility.yul\":19290:19635   */\n      swap3\n      swap2\n      pop\n      pop\n      jump\t// out\n        /* \"#utility.yul\":19641:19720   */\n    tag_200:\n        /* \"#utility.yul\":19680:19687   */\n      0x00\n        /* \"#utility.yul\":19709:19714   */\n      dup2\n        /* \"#utility.yul\":19698:19714   */\n      swap1\n      pop\n        /* \"#utility.yul\":19641:19720   */\n      swap2\n      swap1\n      pop\n      jump\t// out\n        /* \"#utility.yul\":19726:19883   */\n    tag_201:\n        /* \"#utility.yul\":19831:19876   */\n      tag_430\n        /* \"#utility.yul\":19851:19875   */\n      tag_431\n        /* \"#utility.yul\":19869:19874   */\n      dup3\n        /* \"#utility.yul\":19851:19875   */\n      tag_163\n      jump\t// in\n    tag_431:\n        /* \"#utility.yul\":19831:19876   */\n      tag_200\n      jump\t// in\n    tag_430:\n        /* \"#utility.yul\":19826:19829   */\n      dup3\n        /* \"#utility.yul\":19819:19877   */\n      mstore\n        /* \"#utility.yul\":19726:19883   */\n      pop\n      pop\n      jump\t// out\n        /* \"#utility.yul\":19889:20286   */\n    tag_102:\n        /* \"#utility.yul\":20029:20032   */\n      0x00\n        /* \"#utility.yul\":20044:20119   */\n      tag_433\n        /* \"#utility.yul\":20115:20118   */\n      dup3\n        /* \"#utility.yul\":20106:20112   */\n      dup6\n        /* \"#utility.yul\":20044:20119   */\n      tag_201\n      jump\t// in\n    tag_433:\n        /* \"#utility.yul\":20144:20146   */\n      0x20\n        /* \"#utility.yul\":20139:20142   */\n      dup3\n        /* \"#utility.yul\":20135:20147   */\n      add\n        /* \"#utility.yul\":20128:20147   */\n      swap2\n      pop\n        /* \"#utility.yul\":20157:20232   */\n      tag_434\n        /* \"#utility.yul\":20228:20231   */\n      dup3\n        /* \"#utility.yul\":20219:20225   */\n      dup5\n        /* \"#utility.yul\":20157:20232   */\n      tag_201\n      jump\t// in\n    tag_434:\n        /* \"#utility.yul\":20257:20259   */\n      0x20\n        /* \"#utility.yul\":20252:20255   */\n      dup3\n        /* \"#utility.yul\":20248:20260   */\n      add\n        /* \"#utility.yul\":20241:20260   */\n      swap2\n      pop\n        /* \"#utility.yul\":20277:20280   */\n      dup2\n        /* \"#utility.yul\":20270:20280   */\n      swap1\n      pop\n        /* \"#utility.yul\":19889:20286   */\n      swap4\n      swap3\n      pop\n      pop\n      pop\n      jump\t// out\n        /* \"#utility.yul\":20292:20460   */\n    tag_202:\n        /* \"#utility.yul\":20432:20452   */\n      0x6e6f74206169722064726f7020757365722e0000000000000000000000000000\n        /* \"#utility.yul\":20428:20429   */\n      0x00\n        /* \"#utility.yul\":20420:20426   */\n      dup3\n        /* \"#utility.yul\":20416:20430   */\n      add\n        /* \"#utility.yul\":20409:20453   */\n      mstore\n        /* \"#utility.yul\":20292:20460   */\n      pop\n      jump\t// out\n        /* \"#utility.yul\":20466:20832   */\n    tag_203:\n        /* \"#utility.yul\":20608:20611   */\n      0x00\n        /* \"#utility.yul\":20629:20696   */\n      tag_437\n        /* \"#utility.yul\":20693:20695   */\n      0x12\n        /* \"#utility.yul\":20688:20691   */\n      dup4\n        /* \"#utility.yul\":20629:20696   */\n      tag_196\n      jump\t// in\n    tag_437:\n        /* \"#utility.yul\":20622:20696   */\n      swap2\n      pop\n        /* \"#utility.yul\":20705:20798   */\n      tag_438\n        /* \"#utility.yul\":20794:20797   */\n      dup3\n        /* \"#utility.yul\":20705:20798   */\n      tag_202\n      jump\t// in\n    tag_438:\n        /* \"#utility.yul\":20823:20825   */\n      0x20\n        /* \"#utility.yul\":20818:20821   */\n      dup3\n        /* \"#utility.yul\":20814:20826   */\n      add\n        /* \"#utility.yul\":20807:20826   */\n      swap1\n      pop\n        /* \"#utility.yul\":20466:20832   */\n      swap2\n      swap1\n      pop\n      jump\t// out\n        /* \"#utility.yul\":20838:21257   */\n    tag_107:\n        /* \"#utility.yul\":21004:21008   */\n      0x00\n        /* \"#utility.yul\":21042:21044   */\n      0x20\n        /* \"#utility.yul\":21031:21040   */\n      dup3\n        /* \"#utility.yul\":21027:21045   */\n      add\n        /* \"#utility.yul\":21019:21045   */\n      swap1\n      pop\n        /* \"#utility.yul\":21091:21100   */\n      dup2\n        /* \"#utility.yul\":21085:21089   */\n      dup2\n        /* \"#utility.yul\":21081:21101   */\n      sub\n        /* \"#utility.yul\":21077:21078   */\n      0x00\n        /* \"#utility.yul\":21066:21075   */\n      dup4\n        /* \"#utility.yul\":21062:21079   */\n      add\n        /* \"#utility.yul\":21055:21102   */\n      mstore\n        /* \"#utility.yul\":21119:21250   */\n      tag_440\n        /* \"#utility.yul\":21245:21249   */\n      dup2\n        /* \"#utility.yul\":21119:21250   */\n      tag_203\n      jump\t// in\n    tag_440:\n        /* \"#utility.yul\":21111:21250   */\n      swap1\n      pop\n        /* \"#utility.yul\":20838:21257   */\n      swap2\n      swap1\n      pop\n      jump\t// out\n        /* \"#utility.yul\":21263:21429   */\n    tag_204:\n        /* \"#utility.yul\":21403:21421   */\n      0x616c726561647920696e2073616c652e00000000000000000000000000000000\n        /* \"#utility.yul\":21399:21400   */\n      0x00\n        /* \"#utility.yul\":21391:21397   */\n      dup3\n        /* \"#utility.yul\":21387:21401   */\n      add\n        /* \"#utility.yul\":21380:21422   */\n      mstore\n        /* \"#utility.yul\":21263:21429   */\n      pop\n      jump\t// out\n        /* \"#utility.yul\":21435:21801   */\n    tag_205:\n        /* \"#utility.yul\":21577:21580   */\n      0x00\n        /* \"#utility.yul\":21598:21665   */\n      tag_443\n        /* \"#utility.yul\":21662:21664   */\n      0x10\n        /* \"#utility.yul\":21657:21660   */\n      dup4\n        /* \"#utility.yul\":21598:21665   */\n      tag_196\n      jump\t// in\n    tag_443:\n        /* \"#utility.yul\":21591:21665   */\n      swap2\n      pop\n        /* \"#utility.yul\":21674:21767   */\n      tag_444\n        /* \"#utility.yul\":21763:21766   */\n      dup3\n        /* \"#utility.yul\":21674:21767   */\n      tag_204\n      jump\t// in\n    tag_444:\n        /* \"#utility.yul\":21792:21794   */\n      0x20\n        /* \"#utility.yul\":21787:21790   */\n      dup3\n        /* \"#utility.yul\":21783:21795   */\n      add\n        /* \"#utility.yul\":21776:21795   */\n      swap1\n      pop\n        /* \"#utility.yul\":21435:21801   */\n      swap2\n      swap1\n      pop\n      jump\t// out\n        /* \"#utility.yul\":21807:22226   */\n    tag_111:\n        /* \"#utility.yul\":21973:21977   */\n      0x00\n        /* \"#utility.yul\":22011:22013   */\n      0x20\n        /* \"#utility.yul\":22000:22009   */\n      dup3\n        /* \"#utility.yul\":21996:22014   */\n      add\n        /* \"#utility.yul\":21988:22014   */\n      swap1\n      pop\n        /* \"#utility.yul\":22060:22069   */\n      dup2\n        /* \"#utility.yul\":22054:22058   */\n      dup2\n        /* \"#utility.yul\":22050:22070   */\n      sub\n        /* \"#utility.yul\":22046:22047   */\n      0x00\n        /* \"#utility.yul\":22035:22044   */\n      dup4\n        /* \"#utility.yul\":22031:22048   */\n      add\n        /* \"#utility.yul\":22024:22071   */\n      mstore\n        /* \"#utility.yul\":22088:22219   */\n      tag_446\n        /* \"#utility.yul\":22214:22218   */\n      dup2\n        /* \"#utility.yul\":22088:22219   */\n      tag_205\n      jump\t// in\n    tag_446:\n        /* \"#utility.yul\":22080:22219   */\n      swap1\n      pop\n        /* \"#utility.yul\":21807:22226   */\n      swap2\n      swap1\n      pop\n      jump\t// out\n        /* \"#utility.yul\":22232:22426   */\n    tag_116:\n        /* \"#utility.yul\":22272:22276   */\n      0x00\n        /* \"#utility.yul\":22292:22312   */\n      tag_448\n        /* \"#utility.yul\":22310:22311   */\n      dup3\n        /* \"#utility.yul\":22292:22312   */\n      tag_153\n      jump\t// in\n    tag_448:\n        /* \"#utility.yul\":22287:22312   */\n      swap2\n      pop\n        /* \"#utility.yul\":22326:22346   */\n      tag_449\n        /* \"#utility.yul\":22344:22345   */\n      dup4\n        /* \"#utility.yul\":22326:22346   */\n      tag_153\n      jump\t// in\n    tag_449:\n        /* \"#utility.yul\":22321:22346   */\n      swap3\n      pop\n        /* \"#utility.yul\":22370:22371   */\n      dup3\n        /* \"#utility.yul\":22367:22368   */\n      dup3\n        /* \"#utility.yul\":22363:22372   */\n      sub\n        /* \"#utility.yul\":22355:22372   */\n      swap1\n      pop\n        /* \"#utility.yul\":22394:22395   */\n      dup2\n        /* \"#utility.yul\":22388:22392   */\n      dup2\n        /* \"#utility.yul\":22385:22396   */\n      gt\n        /* \"#utility.yul\":22382:22419   */\n      iszero\n      tag_450\n      jumpi\n        /* \"#utility.yul\":22399:22417   */\n      tag_451\n      tag_191\n      jump\t// in\n    tag_451:\n        /* \"#utility.yul\":22382:22419   */\n    tag_450:\n        /* \"#utility.yul\":22232:22426   */\n      swap3\n      swap2\n      pop\n      pop\n      jump\t// out\n        /* \"#utility.yul\":22432:22601   */\n    tag_206:\n        /* \"#utility.yul\":22572:22593   */\n      0x6e6674206973206e6f7420696e2073616c652e00000000000000000000000000\n        /* \"#utility.yul\":22568:22569   */\n      0x00\n        /* \"#utility.yul\":22560:22566   */\n      dup3\n        /* \"#utility.yul\":22556:22570   */\n      add\n        /* \"#utility.yul\":22549:22594   */\n      mstore\n        /* \"#utility.yul\":22432:22601   */\n      pop\n      jump\t// out\n        /* \"#utility.yul\":22607:22973   */\n    tag_207:\n        /* \"#utility.yul\":22749:22752   */\n      0x00\n        /* \"#utility.yul\":22770:22837   */\n      tag_454\n        /* \"#utility.yul\":22834:22836   */\n      0x13\n        /* \"#utility.yul\":22829:22832   */\n      dup4\n        /* \"#utility.yul\":22770:22837   */\n      tag_196\n      jump\t// in\n    tag_454:\n        /* \"#utility.yul\":22763:22837   */\n      swap2\n      pop\n        /* \"#utility.yul\":22846:22939   */\n      tag_455\n        /* \"#utility.yul\":22935:22938   */\n      dup3\n        /* \"#utility.yul\":22846:22939   */\n      tag_206\n      jump\t// in\n    tag_455:\n        /* \"#utility.yul\":22964:22966   */\n      0x20\n        /* \"#utility.yul\":22959:22962   */\n      dup3\n        /* \"#utility.yul\":22955:22967   */\n      add\n        /* \"#utility.yul\":22948:22967   */\n      swap1\n      pop\n        /* \"#utility.yul\":22607:22973   */\n      swap2\n      swap1\n      pop\n      jump\t// out\n        /* \"#utility.yul\":22979:23398   */\n    tag_123:\n        /* \"#utility.yul\":23145:23149   */\n      0x00\n        /* \"#utility.yul\":23183:23185   */\n      0x20\n        /* \"#utility.yul\":23172:23181   */\n      dup3\n        /* \"#utility.yul\":23168:23186   */\n      add\n        /* \"#utility.yul\":23160:23186   */\n      swap1\n      pop\n        /* \"#utility.yul\":23232:23241   */\n      dup2\n        /* \"#utility.yul\":23226:23230   */\n      dup2\n        /* \"#utility.yul\":23222:23242   */\n      sub\n        /* \"#utility.yul\":23218:23219   */\n      0x00\n        /* \"#utility.yul\":23207:23216   */\n      dup4\n        /* \"#utility.yul\":23203:23220   */\n      add\n        /* \"#utility.yul\":23196:23243   */\n      mstore\n        /* \"#utility.yul\":23260:23391   */\n      tag_457\n        /* \"#utility.yul\":23386:23390   */\n      dup2\n        /* \"#utility.yul\":23260:23391   */\n      tag_207\n      jump\t// in\n    tag_457:\n        /* \"#utility.yul\":23252:23391   */\n      swap1\n      pop\n        /* \"#utility.yul\":22979:23398   */\n      swap2\n      swap1\n      pop\n      jump\t// out\n        /* \"#utility.yul\":23404:23567   */\n    tag_208:\n        /* \"#utility.yul\":23544:23559   */\n      0x4e6f7420796f7572206e66742e00000000000000000000000000000000000000\n        /* \"#utility.yul\":23540:23541   */\n      0x00\n        /* \"#utility.yul\":23532:23538   */\n      dup3\n        /* \"#utility.yul\":23528:23542   */\n      add\n        /* \"#utility.yul\":23521:23560   */\n      mstore\n        /* \"#utility.yul\":23404:23567   */\n      pop\n      jump\t// out\n        /* \"#utility.yul\":23573:23939   */\n    tag_209:\n        /* \"#utility.yul\":23715:23718   */\n      0x00\n        /* \"#utility.yul\":23736:23803   */\n      tag_460\n        /* \"#utility.yul\":23800:23802   */\n      0x0d\n        /* \"#utility.yul\":23795:23798   */\n      dup4\n        /* \"#utility.yul\":23736:23803   */\n      tag_196\n      jump\t// in\n    tag_460:\n        /* \"#utility.yul\":23729:23803   */\n      swap2\n      pop\n        /* \"#utility.yul\":23812:23905   */\n      tag_461\n        /* \"#utility.yul\":23901:23904   */\n      dup3\n        /* \"#utility.yul\":23812:23905   */\n      tag_208\n      jump\t// in\n    tag_461:\n        /* \"#utility.yul\":23930:23932   */\n      0x20\n        /* \"#utility.yul\":23925:23928   */\n      dup3\n        /* \"#utility.yul\":23921:23933   */\n      add\n        /* \"#utility.yul\":23914:23933   */\n      swap1\n      pop\n        /* \"#utility.yul\":23573:23939   */\n      swap2\n      swap1\n      pop\n      jump\t// out\n        /* \"#utility.yul\":23945:24364   */\n    tag_126:\n        /* \"#utility.yul\":24111:24115   */\n      0x00\n        /* \"#utility.yul\":24149:24151   */\n      0x20\n        /* \"#utility.yul\":24138:24147   */\n      dup3\n        /* \"#utility.yul\":24134:24152   */\n      add\n        /* \"#utility.yul\":24126:24152   */\n      swap1\n      pop\n        /* \"#utility.yul\":24198:24207   */\n      dup2\n        /* \"#utility.yul\":24192:24196   */\n      dup2\n        /* \"#utility.yul\":24188:24208   */\n      sub\n        /* \"#utility.yul\":24184:24185   */\n      0x00\n        /* \"#utility.yul\":24173:24182   */\n      dup4\n        /* \"#utility.yul\":24169:24186   */\n      add\n        /* \"#utility.yul\":24162:24209   */\n      mstore\n        /* \"#utility.yul\":24226:24357   */\n      tag_463\n        /* \"#utility.yul\":24352:24356   */\n      dup2\n        /* \"#utility.yul\":24226:24357   */\n      tag_209\n      jump\t// in\n    tag_463:\n        /* \"#utility.yul\":24218:24357   */\n      swap1\n      pop\n        /* \"#utility.yul\":23945:24364   */\n      swap2\n      swap1\n      pop\n      jump\t// out\n        /* \"#utility.yul\":24370:24550   */\n    tag_136:\n        /* \"#utility.yul\":24418:24495   */\n      0x4e487b7100000000000000000000000000000000000000000000000000000000\n        /* \"#utility.yul\":24415:24416   */\n      0x00\n        /* \"#utility.yul\":24408:24496   */\n      mstore\n        /* \"#utility.yul\":24515:24519   */\n      0x31\n        /* \"#utility.yul\":24512:24513   */\n      0x04\n        /* \"#utility.yul\":24505:24520   */\n      mstore\n        /* \"#utility.yul\":24539:24543   */\n      0x24\n        /* \"#utility.yul\":24536:24537   */\n      0x00\n        /* \"#utility.yul\":24529:24544   */\n      revert\n        /* \"#utility.yul\":24556:24660   */\n    tag_210:\n        /* \"#utility.yul\":24601:24608   */\n      0x00\n        /* \"#utility.yul\":24630:24654   */\n      tag_466\n        /* \"#utility.yul\":24648:24653   */\n      dup3\n        /* \"#utility.yul\":24630:24654   */\n      tag_149\n      jump\t// in\n    tag_466:\n        /* \"#utility.yul\":24619:24654   */\n      swap1\n      pop\n        /* \"#utility.yul\":24556:24660   */\n      swap2\n      swap1\n      pop\n      jump\t// out\n        /* \"#utility.yul\":24666:24804   */\n    tag_211:\n        /* \"#utility.yul\":24747:24779   */\n      tag_468\n        /* \"#utility.yul\":24773:24778   */\n      dup2\n        /* \"#utility.yul\":24747:24779   */\n      tag_210\n      jump\t// in\n    tag_468:\n        /* \"#utility.yul\":24740:24745   */\n      dup2\n        /* \"#utility.yul\":24737:24780   */\n      eq\n        /* \"#utility.yul\":24727:24798   */\n      tag_469\n      jumpi\n        /* \"#utility.yul\":24794:24795   */\n      0x00\n        /* \"#utility.yul\":24791:24792   */\n      dup1\n        /* \"#utility.yul\":24784:24796   */\n      revert\n        /* \"#utility.yul\":24727:24798   */\n    tag_469:\n        /* \"#utility.yul\":24666:24804   */\n      pop\n      jump\t// out\n        /* \"#utility.yul\":24810:24969   */\n    tag_212:\n        /* \"#utility.yul\":24875:24880   */\n      0x00\n        /* \"#utility.yul\":24906:24912   */\n      dup2\n        /* \"#utility.yul\":24900:24913   */\n      mload\n        /* \"#utility.yul\":24891:24913   */\n      swap1\n      pop\n        /* \"#utility.yul\":24922:24963   */\n      tag_471\n        /* \"#utility.yul\":24957:24962   */\n      dup2\n        /* \"#utility.yul\":24922:24963   */\n      tag_211\n      jump\t// in\n    tag_471:\n        /* \"#utility.yul\":24810:24969   */\n      swap3\n      swap2\n      pop\n      pop\n      jump\t// out\n        /* \"#utility.yul\":24975:25118   */\n    tag_213:\n        /* \"#utility.yul\":25032:25037   */\n      0x00\n        /* \"#utility.yul\":25063:25069   */\n      dup2\n        /* \"#utility.yul\":25057:25070   */\n      mload\n        /* \"#utility.yul\":25048:25070   */\n      swap1\n      pop\n        /* \"#utility.yul\":25079:25112   */\n      tag_473\n        /* \"#utility.yul\":25106:25111   */\n      dup2\n        /* \"#utility.yul\":25079:25112   */\n      tag_154\n      jump\t// in\n    tag_473:\n        /* \"#utility.yul\":24975:25118   */\n      swap3\n      swap2\n      pop\n      pop\n      jump\t// out\n        /* \"#utility.yul\":25124:25647   */\n    tag_144:\n        /* \"#utility.yul\":25211:25217   */\n      0x00\n        /* \"#utility.yul\":25219:25225   */\n      dup1\n        /* \"#utility.yul\":25268:25270   */\n      0x40\n        /* \"#utility.yul\":25256:25265   */\n      dup4\n        /* \"#utility.yul\":25247:25254   */\n      dup6\n        /* \"#utility.yul\":25243:25266   */\n      sub\n        /* \"#utility.yul\":25239:25271   */\n      slt\n        /* \"#utility.yul\":25236:25355   */\n      iszero\n      tag_475\n      jumpi\n        /* \"#utility.yul\":25274:25353   */\n      tag_476\n      tag_147\n      jump\t// in\n    tag_476:\n        /* \"#utility.yul\":25236:25355   */\n    tag_475:\n        /* \"#utility.yul\":25394:25395   */\n      0x00\n        /* \"#utility.yul\":25419:25491   */\n      tag_477\n        /* \"#utility.yul\":25483:25490   */\n      dup6\n        /* \"#utility.yul\":25474:25480   */\n      dup3\n        /* \"#utility.yul\":25463:25472   */\n      dup7\n        /* \"#utility.yul\":25459:25481   */\n      add\n        /* \"#utility.yul\":25419:25491   */\n      tag_212\n      jump\t// in\n    tag_477:\n        /* \"#utility.yul\":25409:25491   */\n      swap3\n      pop\n        /* \"#utility.yul\":25365:25501   */\n      pop\n        /* \"#utility.yul\":25540:25542   */\n      0x20\n        /* \"#utility.yul\":25566:25630   */\n      tag_478\n        /* \"#utility.yul\":25622:25629   */\n      dup6\n        /* \"#utility.yul\":25613:25619   */\n      dup3\n        /* \"#utility.yul\":25602:25611   */\n      dup7\n        /* \"#utility.yul\":25598:25620   */\n      add\n        /* \"#utility.yul\":25566:25630   */\n      tag_213\n      jump\t// in\n    tag_478:\n        /* \"#utility.yul\":25556:25630   */\n      swap2\n      pop\n        /* \"#utility.yul\":25511:25640   */\n      pop\n        /* \"#utility.yul\":25124:25647   */\n      swap3\n      pop\n      swap3\n      swap1\n      pop\n      jump\t// out\n\n    auxdata: 0xa264697066735822122023dd4c72ecad867afde1c7aff6cf4caafdc3dbb3726ddd1f3a1c1186226f9ded64736f6c634300081a0033\n}\n",
				"bytecode": {
					"linkReferences": {},
					"object": "608060405234801561000f575f80fd5b50604051611ea1380380611ea183398181016040528101906100319190610195565b8160015f6101000a81548173ffffffffffffffffffffffffffffffffffffffff021916908373ffffffffffffffffffffffffffffffffffffffff160217905550815f806101000a81548173ffffffffffffffffffffffffffffffffffffffff021916908373ffffffffffffffffffffffffffffffffffffffff1602179055508060025f6101000a81548173ffffffffffffffffffffffffffffffffffffffff021916908373ffffffffffffffffffffffffffffffffffffffff1602179055508060035f6101000a81548173ffffffffffffffffffffffffffffffffffffffff021916908373ffffffffffffffffffffffffffffffffffffffff16021790555050506101d3565b5f80fd5b5f73ffffffffffffffffffffffffffffffffffffffff82169050919050565b5f6101648261013b565b9050919050565b6101748161015a565b811461017e575f80fd5b50565b5f8151905061018f8161016b565b92915050565b5f80604083850312156101ab576101aa610137565b5b5f6101b885828601610181565b92505060206101c985828601610181565b9150509250929050565b611cc1806101e05f395ff3fe608060405234801561000f575f80fd5b506004361061009c575f3560e01c806350e6bafc1161006457806350e6bafc146101565780635764351f146101745780637f6a645f146101a4578063cee81dc5146101d4578063e8900e12146101f05761009c565b806310638d1e146100a0578063124af571146100bc578063150b7a02146100d857806328861d22146101085780633b00f99f1461013a575b5f80fd5b6100ba60048036038101906100b59190611296565b610221565b005b6100d660048036038101906100d19190611332565b610634565b005b6100f260048036038101906100ed9190611413565b610736565b6040516100ff91906114d1565b60405180910390f35b610122600480360381019061011d91906114ea565b610a12565b60405161013193929190611533565b60405180910390f35b610154600480360381019061014f9190611568565b610a66565b005b61015e610a70565b60405161016b91906115a2565b60405180910390f35b61018e600480360381019061018991906115bb565b610a76565b60405161019b91906115f9565b60405180910390f35b6101be60048036038101906101b991906115bb565b610ab3565b6040516101cb9190611612565b60405180910390f35b6101ee60048036038101906101e991906115bb565b610ad3565b005b61020a600480360381019061020591906116db565b610f45565b604051610218929190611722565b60405180910390f35b610252828233604051602001610237919061178e565b60405160208183030381529060405280519060200120610634565b5f60065f8673ffffffffffffffffffffffffffffffffffffffff1673ffffffffffffffffffffffffffffffffffffffff1681526020019081526020015f205f8581526020019081526020015f205490505f600582815481106102b7576102b66117a8565b5b905f5260205f2090600302016040518060600160405290815f82015f9054906101000a900473ffffffffffffffffffffffffffffffffffffffff1673ffffffffffffffffffffffffffffffffffffffff1673ffffffffffffffffffffffffffffffffffffffff1681526020016001820154815260200160028201548152505090505f306002836040015161034b919061182f565b60405160240161035c929190611722565b6040516020818303038152906040527f095ea7b3000000000000000000000000000000000000000000000000000000007bffffffffffffffffffffffffffffffffffffffffffffffffffffffff19166020820180517bffffffffffffffffffffffffffffffffffffffffffffffffffffffff838183161783525050505090505f60015f9054906101000a900473ffffffffffffffffffffffffffffffffffffffff1673ffffffffffffffffffffffffffffffffffffffff168260405161042291906118b1565b5f60405180830381855af49150503d805f811461045a576040519150601f19603f3d011682016040523d82523d5f602084013e61045f565b606091505b50509050806104a3576040517f08c379a000000000000000000000000000000000000000000000000000000000815260040161049a90611921565b60405180910390fd5b5f60075f8a73ffffffffffffffffffffffffffffffffffffffff1673ffffffffffffffffffffffffffffffffffffffff1681526020019081526020015f205f8981526020019081526020015f205f9054906101000a900473ffffffffffffffffffffffffffffffffffffffff1690505f8054906101000a900473ffffffffffffffffffffffffffffffffffffffff1673ffffffffffffffffffffffffffffffffffffffff166323b872dd338360028860400151610560919061182f565b6040518463ffffffff1660e01b815260040161057e9392919061193f565b6020604051808303815f875af115801561059a573d5f803e3d5ffd5b505050506040513d601f19601f820116820180604052508101906105be9190611988565b508873ffffffffffffffffffffffffffffffffffffffff166342842e0e30338b6040518463ffffffff1660e01b81526004016105fc9392919061193f565b5f604051808303815f87803b158015610613575f80fd5b505af1158015610625573d5f803e3d5ffd5b50505050505050505050505050565b5f8190505f5b84518110156106eb575f858281518110610657576106566117a8565b5b60200260200101519050848281518110610674576106736117a8565b5b6020026020010151156106b15780836040516020016106949291906119d3565b6040516020818303038152906040528051906020012092506106dd565b82816040516020016106c49291906119d3565b6040516020818303038152906040528051906020012092505b50808060010191505061063a565b506004548114610730576040517f08c379a000000000000000000000000000000000000000000000000000000000815260040161072790611a48565b60405180910390fd5b50505050565b5f8060075f3373ffffffffffffffffffffffffffffffffffffffff1673ffffffffffffffffffffffffffffffffffffffff1681526020019081526020015f205f8681526020019081526020015f205f9054906101000a900473ffffffffffffffffffffffffffffffffffffffff1690505f73ffffffffffffffffffffffffffffffffffffffff168173ffffffffffffffffffffffffffffffffffffffff1614610814576040517f08c379a000000000000000000000000000000000000000000000000000000000815260040161080b90611ab0565b60405180910390fd5b600560405180606001604052803373ffffffffffffffffffffffffffffffffffffffff16815260200187815260200161088f87878080601f0160208091040260200160405190810160405280939291908181526020018383808284375f81840152601f19601f82011690508083019250505050505050610f6e565b815250908060018154018082558091505060019003905f5260205f2090600302015f909190919091505f820151815f015f6101000a81548173ffffffffffffffffffffffffffffffffffffffff021916908373ffffffffffffffffffffffffffffffffffffffff1602179055506020820151816001015560408201518160020155505060016005805490506109249190611ace565b60065f3373ffffffffffffffffffffffffffffffffffffffff1673ffffffffffffffffffffffffffffffffffffffff1681526020019081526020015f205f8781526020019081526020015f20819055508560075f3373ffffffffffffffffffffffffffffffffffffffff1673ffffffffffffffffffffffffffffffffffffffff1681526020019081526020015f205f8781526020019081526020015f205f6101000a81548173ffffffffffffffffffffffffffffffffffffffff021916908373ffffffffffffffffffffffffffffffffffffffff16021790555063150b7a0260e01b91505095945050505050565b60058181548110610a21575f80fd5b905f5260205f2090600302015f91509050805f015f9054906101000a900473ffffffffffffffffffffffffffffffffffffffff16908060010154908060020154905083565b8060048190555050565b60045481565b6007602052815f5260405f20602052805f5260405f205f915091509054906101000a900473ffffffffffffffffffffffffffffffffffffffff1681565b6006602052815f5260405f20602052805f5260405f205f91509150505481565b5f60075f8473ffffffffffffffffffffffffffffffffffffffff1673ffffffffffffffffffffffffffffffffffffffff1681526020019081526020015f205f8381526020019081526020015f205f9054906101000a900473ffffffffffffffffffffffffffffffffffffffff1690505f73ffffffffffffffffffffffffffffffffffffffff168173ffffffffffffffffffffffffffffffffffffffff1603610bb0576040517f08c379a0000000000000000000000000000000000000000000000000000000008152600401610ba790611b4b565b60405180910390fd5b8073ffffffffffffffffffffffffffffffffffffffff163373ffffffffffffffffffffffffffffffffffffffff1614610c1e576040517f08c379a0000000000000000000000000000000000000000000000000000000008152600401610c1590611bb3565b60405180910390fd5b5f60065f8573ffffffffffffffffffffffffffffffffffffffff1673ffffffffffffffffffffffffffffffffffffffff1681526020019081526020015f205f8481526020019081526020015f205490505f60056001600580549050610c839190611ace565b81548110610c9457610c936117a8565b5b905f5260205f2090600302016040518060600160405290815f82015f9054906101000a900473ffffffffffffffffffffffffffffffffffffffff1673ffffffffffffffffffffffffffffffffffffffff1673ffffffffffffffffffffffffffffffffffffffff1681526020016001820154815260200160028201548152505090508060058381548110610d2a57610d296117a8565b5b905f5260205f2090600302015f820151815f015f6101000a81548173ffffffffffffffffffffffffffffffffffffffff021916908373ffffffffffffffffffffffffffffffffffffffff16021790555060208201518160010155604082015181600201559050506005805480610da357610da2611bd1565b5b600190038181905f5260205f2090600302015f8082015f6101000a81549073ffffffffffffffffffffffffffffffffffffffff0219169055600182015f9055600282015f9055505090558160065f835f015173ffffffffffffffffffffffffffffffffffffffff1673ffffffffffffffffffffffffffffffffffffffff1681526020019081526020015f205f836020015181526020019081526020015f20819055505f60075f8773ffffffffffffffffffffffffffffffffffffffff1673ffffffffffffffffffffffffffffffffffffffff1681526020019081526020015f205f8681526020019081526020015f205f6101000a81548173ffffffffffffffffffffffffffffffffffffffff021916908373ffffffffffffffffffffffffffffffffffffffff1602179055505f8590508073ffffffffffffffffffffffffffffffffffffffff166342842e0e3086886040518463ffffffff1660e01b8152600401610f109392919061193f565b5f604051808303815f87803b158015610f27575f80fd5b505af1158015610f39573d5f803e3d5ffd5b50505050505050505050565b5f805f8084806020019051810190610f5d9190611c4d565b915091508181935093505050915091565b5f806020830151905080915050919050565b5f604051905090565b5f80fd5b5f80fd5b5f73ffffffffffffffffffffffffffffffffffffffff82169050919050565b5f610fba82610f91565b9050919050565b610fca81610fb0565b8114610fd4575f80fd5b50565b5f81359050610fe581610fc1565b92915050565b5f819050919050565b610ffd81610feb565b8114611007575f80fd5b50565b5f8135905061101881610ff4565b92915050565b5f80fd5b5f601f19601f8301169050919050565b7f4e487b71000000000000000000000000000000000000000000000000000000005f52604160045260245ffd5b61106882611022565b810181811067ffffffffffffffff8211171561108757611086611032565b5b80604052505050565b5f611099610f80565b90506110a5828261105f565b919050565b5f67ffffffffffffffff8211156110c4576110c3611032565b5b602082029050602081019050919050565b5f80fd5b5f819050919050565b6110eb816110d9565b81146110f5575f80fd5b50565b5f81359050611106816110e2565b92915050565b5f61111e611119846110aa565b611090565b90508083825260208201905060208402830185811115611141576111406110d5565b5b835b8181101561116a578061115688826110f8565b845260208401935050602081019050611143565b5050509392505050565b5f82601f8301126111885761118761101e565b5b813561119884826020860161110c565b91505092915050565b5f67ffffffffffffffff8211156111bb576111ba611032565b5b602082029050602081019050919050565b5f8115159050919050565b6111e0816111cc565b81146111ea575f80fd5b50565b5f813590506111fb816111d7565b92915050565b5f61121361120e846111a1565b611090565b90508083825260208201905060208402830185811115611236576112356110d5565b5b835b8181101561125f578061124b88826111ed565b845260208401935050602081019050611238565b5050509392505050565b5f82601f83011261127d5761127c61101e565b5b813561128d848260208601611201565b91505092915050565b5f805f80608085870312156112ae576112ad610f89565b5b5f6112bb87828801610fd7565b94505060206112cc8782880161100a565b935050604085013567ffffffffffffffff8111156112ed576112ec610f8d565b5b6112f987828801611174565b925050606085013567ffffffffffffffff81111561131a57611319610f8d565b5b61132687828801611269565b91505092959194509250565b5f805f6060848603121561134957611348610f89565b5b5f84013567ffffffffffffffff81111561136657611365610f8d565b5b61137286828701611174565b935050602084013567ffffffffffffffff81111561139357611392610f8d565b5b61139f86828701611269565b92505060406113b0868287016110f8565b9150509250925092565b5f80fd5b5f8083601f8401126113d3576113d261101e565b5b8235905067ffffffffffffffff8111156113f0576113ef6113ba565b5b60208301915083600182028301111561140c5761140b6110d5565b5b9250929050565b5f805f805f6080868803121561142c5761142b610f89565b5b5f61143988828901610fd7565b955050602061144a88828901610fd7565b945050604061145b8882890161100a565b935050606086013567ffffffffffffffff81111561147c5761147b610f8d565b5b611488888289016113be565b92509250509295509295909350565b5f7fffffffff0000000000000000000000000000000000000000000000000000000082169050919050565b6114cb81611497565b82525050565b5f6020820190506114e45f8301846114c2565b92915050565b5f602082840312156114ff576114fe610f89565b5b5f61150c8482850161100a565b91505092915050565b61151e81610fb0565b82525050565b61152d81610feb565b82525050565b5f6060820190506115465f830186611515565b6115536020830185611524565b6115606040830184611524565b949350505050565b5f6020828403121561157d5761157c610f89565b5b5f61158a848285016110f8565b91505092915050565b61159c816110d9565b82525050565b5f6020820190506115b55f830184611593565b92915050565b5f80604083850312156115d1576115d0610f89565b5b5f6115de85828601610fd7565b92505060206115ef8582860161100a565b9150509250929050565b5f60208201905061160c5f830184611515565b92915050565b5f6020820190506116255f830184611524565b92915050565b5f80fd5b5f67ffffffffffffffff82111561164957611648611032565b5b61165282611022565b9050602081019050919050565b828183375f83830152505050565b5f61167f61167a8461162f565b611090565b90508281526020810184848401111561169b5761169a61162b565b5b6116a684828561165f565b509392505050565b5f82601f8301126116c2576116c161101e565b5b81356116d284826020860161166d565b91505092915050565b5f602082840312156116f0576116ef610f89565b5b5f82013567ffffffffffffffff81111561170d5761170c610f8d565b5b611719848285016116ae565b91505092915050565b5f6040820190506117355f830185611515565b6117426020830184611524565b9392505050565b5f8160601b9050919050565b5f61175f82611749565b9050919050565b5f61177082611755565b9050919050565b61178861178382610fb0565b611766565b82525050565b5f6117998284611777565b60148201915081905092915050565b7f4e487b71000000000000000000000000000000000000000000000000000000005f52603260045260245ffd5b7f4e487b71000000000000000000000000000000000000000000000000000000005f52601260045260245ffd5b7f4e487b71000000000000000000000000000000000000000000000000000000005f52601160045260245ffd5b5f61183982610feb565b915061184483610feb565b925082611854576118536117d5565b5b828204905092915050565b5f81519050919050565b5f81905092915050565b8281835e5f83830152505050565b5f61188b8261185f565b6118958185611869565b93506118a5818560208601611873565b80840191505092915050565b5f6118bc8284611881565b915081905092915050565b5f82825260208201905092915050565b7f617070726f7665206572633230206661696c00000000000000000000000000005f82015250565b5f61190b6012836118c7565b9150611916826118d7565b602082019050919050565b5f6020820190508181035f830152611938816118ff565b9050919050565b5f6060820190506119525f830186611515565b61195f6020830185611515565b61196c6040830184611524565b949350505050565b5f81519050611982816111d7565b92915050565b5f6020828403121561199d5761199c610f89565b5b5f6119aa84828501611974565b91505092915050565b5f819050919050565b6119cd6119c8826110d9565b6119b3565b82525050565b5f6119de82856119bc565b6020820191506119ee82846119bc565b6020820191508190509392505050565b7f6e6f74206169722064726f7020757365722e00000000000000000000000000005f82015250565b5f611a326012836118c7565b9150611a3d826119fe565b602082019050919050565b5f6020820190508181035f830152611a5f81611a26565b9050919050565b7f616c726561647920696e2073616c652e000000000000000000000000000000005f82015250565b5f611a9a6010836118c7565b9150611aa582611a66565b602082019050919050565b5f6020820190508181035f830152611ac781611a8e565b9050919050565b5f611ad882610feb565b9150611ae383610feb565b9250828203905081811115611afb57611afa611802565b5b92915050565b7f6e6674206973206e6f7420696e2073616c652e000000000000000000000000005f82015250565b5f611b356013836118c7565b9150611b4082611b01565b602082019050919050565b5f6020820190508181035f830152611b6281611b29565b9050919050565b7f4e6f7420796f7572206e66742e000000000000000000000000000000000000005f82015250565b5f611b9d600d836118c7565b9150611ba882611b69565b602082019050919050565b5f6020820190508181035f830152611bca81611b91565b9050919050565b7f4e487b71000000000000000000000000000000000000000000000000000000005f52603160045260245ffd5b5f611c0882610f91565b9050919050565b611c1881611bfe565b8114611c22575f80fd5b50565b5f81519050611c3381611c0f565b92915050565b5f81519050611c4781610ff4565b92915050565b5f8060408385031215611c6357611c62610f89565b5b5f611c7085828601611c25565b9250506020611c8185828601611c39565b915050925092905056fea264697066735822122023dd4c72ecad867afde1c7aff6cf4caafdc3dbb3726ddd1f3a1c1186226f9ded64736f6c634300081a0033",
					"opcodes": "PUSH1 0x80 PUSH1 0x40 MSTORE CALLVALUE DUP1 ISZERO PUSH2 0xF JUMPI PUSH0 DUP1 REVERT JUMPDEST POP PUSH1 0x40 MLOAD PUSH2 0x1EA1 CODESIZE SUB DUP1 PUSH2 0x1EA1 DUP4 CODECOPY DUP2 DUP2 ADD PUSH1 0x40 MSTORE DUP2 ADD SWAP1 PUSH2 0x31 SWAP2 SWAP1 PUSH2 0x195 JUMP JUMPDEST DUP2 PUSH1 0x1 PUSH0 PUSH2 0x100 EXP DUP2 SLOAD DUP2 PUSH20 0xFFFFFFFFFFFFFFFFFFFFFFFFFFFFFFFFFFFFFFFF MUL NOT AND SWAP1 DUP4 PUSH20 0xFFFFFFFFFFFFFFFFFFFFFFFFFFFFFFFFFFFFFFFF AND MUL OR SWAP1 SSTORE POP DUP2 PUSH0 DUP1 PUSH2 0x100 EXP DUP2 SLOAD DUP2 PUSH20 0xFFFFFFFFFFFFFFFFFFFFFFFFFFFFFFFFFFFFFFFF MUL NOT AND SWAP1 DUP4 PUSH20 0xFFFFFFFFFFFFFFFFFFFFFFFFFFFFFFFFFFFFFFFF AND MUL OR SWAP1 SSTORE POP DUP1 PUSH1 0x2 PUSH0 PUSH2 0x100 EXP DUP2 SLOAD DUP2 PUSH20 0xFFFFFFFFFFFFFFFFFFFFFFFFFFFFFFFFFFFFFFFF MUL NOT AND SWAP1 DUP4 PUSH20 0xFFFFFFFFFFFFFFFFFFFFFFFFFFFFFFFFFFFFFFFF AND MUL OR SWAP1 SSTORE POP DUP1 PUSH1 0x3 PUSH0 PUSH2 0x100 EXP DUP2 SLOAD DUP2 PUSH20 0xFFFFFFFFFFFFFFFFFFFFFFFFFFFFFFFFFFFFFFFF MUL NOT AND SWAP1 DUP4 PUSH20 0xFFFFFFFFFFFFFFFFFFFFFFFFFFFFFFFFFFFFFFFF AND MUL OR SWAP1 SSTORE POP POP POP PUSH2 0x1D3 JUMP JUMPDEST PUSH0 DUP1 REVERT JUMPDEST PUSH0 PUSH20 0xFFFFFFFFFFFFFFFFFFFFFFFFFFFFFFFFFFFFFFFF DUP3 AND SWAP1 POP SWAP2 SWAP1 POP JUMP JUMPDEST PUSH0 PUSH2 0x164 DUP3 PUSH2 0x13B JUMP JUMPDEST SWAP1 POP SWAP2 SWAP1 POP JUMP JUMPDEST PUSH2 0x174 DUP2 PUSH2 0x15A JUMP JUMPDEST DUP2 EQ PUSH2 0x17E JUMPI PUSH0 DUP1 REVERT JUMPDEST POP JUMP JUMPDEST PUSH0 DUP2 MLOAD SWAP1 POP PUSH2 0x18F DUP2 PUSH2 0x16B JUMP JUMPDEST SWAP3 SWAP2 POP POP JUMP JUMPDEST PUSH0 DUP1 PUSH1 0x40 DUP4 DUP6 SUB SLT ISZERO PUSH2 0x1AB JUMPI PUSH2 0x1AA PUSH2 0x137 JUMP JUMPDEST JUMPDEST PUSH0 PUSH2 0x1B8 DUP6 DUP3 DUP7 ADD PUSH2 0x181 JUMP JUMPDEST SWAP3 POP POP PUSH1 0x20 PUSH2 0x1C9 DUP6 DUP3 DUP7 ADD PUSH2 0x181 JUMP JUMPDEST SWAP2 POP POP SWAP3 POP SWAP3 SWAP1 POP JUMP JUMPDEST PUSH2 0x1CC1 DUP1 PUSH2 0x1E0 PUSH0 CODECOPY PUSH0 RETURN INVALID PUSH1 0x80 PUSH1 0x40 MSTORE CALLVALUE DUP1 ISZERO PUSH2 0xF JUMPI PUSH0 DUP1 REVERT JUMPDEST POP PUSH1 0x4 CALLDATASIZE LT PUSH2 0x9C JUMPI PUSH0 CALLDATALOAD PUSH1 0xE0 SHR DUP1 PUSH4 0x50E6BAFC GT PUSH2 0x64 JUMPI DUP1 PUSH4 0x50E6BAFC EQ PUSH2 0x156 JUMPI DUP1 PUSH4 0x5764351F EQ PUSH2 0x174 JUMPI DUP1 PUSH4 0x7F6A645F EQ PUSH2 0x1A4 JUMPI DUP1 PUSH4 0xCEE81DC5 EQ PUSH2 0x1D4 JUMPI DUP1 PUSH4 0xE8900E12 EQ PUSH2 0x1F0 JUMPI PUSH2 0x9C JUMP JUMPDEST DUP1 PUSH4 0x10638D1E EQ PUSH2 0xA0 JUMPI DUP1 PUSH4 0x124AF571 EQ PUSH2 0xBC JUMPI DUP1 PUSH4 0x150B7A02 EQ PUSH2 0xD8 JUMPI DUP1 PUSH4 0x28861D22 EQ PUSH2 0x108 JUMPI DUP1 PUSH4 0x3B00F99F EQ PUSH2 0x13A JUMPI JUMPDEST PUSH0 DUP1 REVERT JUMPDEST PUSH2 0xBA PUSH1 0x4 DUP1 CALLDATASIZE SUB DUP2 ADD SWAP1 PUSH2 0xB5 SWAP2 SWAP1 PUSH2 0x1296 JUMP JUMPDEST PUSH2 0x221 JUMP JUMPDEST STOP JUMPDEST PUSH2 0xD6 PUSH1 0x4 DUP1 CALLDATASIZE SUB DUP2 ADD SWAP1 PUSH2 0xD1 SWAP2 SWAP1 PUSH2 0x1332 JUMP JUMPDEST PUSH2 0x634 JUMP JUMPDEST STOP JUMPDEST PUSH2 0xF2 PUSH1 0x4 DUP1 CALLDATASIZE SUB DUP2 ADD SWAP1 PUSH2 0xED SWAP2 SWAP1 PUSH2 0x1413 JUMP JUMPDEST PUSH2 0x736 JUMP JUMPDEST PUSH1 0x40 MLOAD PUSH2 0xFF SWAP2 SWAP1 PUSH2 0x14D1 JUMP JUMPDEST PUSH1 0x40 MLOAD DUP1 SWAP2 SUB SWAP1 RETURN JUMPDEST PUSH2 0x122 PUSH1 0x4 DUP1 CALLDATASIZE SUB DUP2 ADD SWAP1 PUSH2 0x11D SWAP2 SWAP1 PUSH2 0x14EA JUMP JUMPDEST PUSH2 0xA12 JUMP JUMPDEST PUSH1 0x40 MLOAD PUSH2 0x131 SWAP4 SWAP3 SWAP2 SWAP1 PUSH2 0x1533 JUMP JUMPDEST PUSH1 0x40 MLOAD DUP1 SWAP2 SUB SWAP1 RETURN JUMPDEST PUSH2 0x154 PUSH1 0x4 DUP1 CALLDATASIZE SUB DUP2 ADD SWAP1 PUSH2 0x14F SWAP2 SWAP1 PUSH2 0x1568 JUMP JUMPDEST PUSH2 0xA66 JUMP JUMPDEST STOP JUMPDEST PUSH2 0x15E PUSH2 0xA70 JUMP JUMPDEST PUSH1 0x40 MLOAD PUSH2 0x16B SWAP2 SWAP1 PUSH2 0x15A2 JUMP JUMPDEST PUSH1 0x40 MLOAD DUP1 SWAP2 SUB SWAP1 RETURN JUMPDEST PUSH2 0x18E PUSH1 0x4 DUP1 CALLDATASIZE SUB DUP2 ADD SWAP1 PUSH2 0x189 SWAP2 SWAP1 PUSH2 0x15BB JUMP JUMPDEST PUSH2 0xA76 JUMP JUMPDEST PUSH1 0x40 MLOAD PUSH2 0x19B SWAP2 SWAP1 PUSH2 0x15F9 JUMP JUMPDEST PUSH1 0x40 MLOAD DUP1 SWAP2 SUB SWAP1 RETURN JUMPDEST PUSH2 0x1BE PUSH1 0x4 DUP1 CALLDATASIZE SUB DUP2 ADD SWAP1 PUSH2 0x1B9 SWAP2 SWAP1 PUSH2 0x15BB JUMP JUMPDEST PUSH2 0xAB3 JUMP JUMPDEST PUSH1 0x40 MLOAD PUSH2 0x1CB SWAP2 SWAP1 PUSH2 0x1612 JUMP JUMPDEST PUSH1 0x40 MLOAD DUP1 SWAP2 SUB SWAP1 RETURN JUMPDEST PUSH2 0x1EE PUSH1 0x4 DUP1 CALLDATASIZE SUB DUP2 ADD SWAP1 PUSH2 0x1E9 SWAP2 SWAP1 PUSH2 0x15BB JUMP JUMPDEST PUSH2 0xAD3 JUMP JUMPDEST STOP JUMPDEST PUSH2 0x20A PUSH1 0x4 DUP1 CALLDATASIZE SUB DUP2 ADD SWAP1 PUSH2 0x205 SWAP2 SWAP1 PUSH2 0x16DB JUMP JUMPDEST PUSH2 0xF45 JUMP JUMPDEST PUSH1 0x40 MLOAD PUSH2 0x218 SWAP3 SWAP2 SWAP1 PUSH2 0x1722 JUMP JUMPDEST PUSH1 0x40 MLOAD DUP1 SWAP2 SUB SWAP1 RETURN JUMPDEST PUSH2 0x252 DUP3 DUP3 CALLER PUSH1 0x40 MLOAD PUSH1 0x20 ADD PUSH2 0x237 SWAP2 SWAP1 PUSH2 0x178E JUMP JUMPDEST PUSH1 0x40 MLOAD PUSH1 0x20 DUP2 DUP4 SUB SUB DUP2 MSTORE SWAP1 PUSH1 0x40 MSTORE DUP1 MLOAD SWAP1 PUSH1 0x20 ADD KECCAK256 PUSH2 0x634 JUMP JUMPDEST PUSH0 PUSH1 0x6 PUSH0 DUP7 PUSH20 0xFFFFFFFFFFFFFFFFFFFFFFFFFFFFFFFFFFFFFFFF AND PUSH20 0xFFFFFFFFFFFFFFFFFFFFFFFFFFFFFFFFFFFFFFFF AND DUP2 MSTORE PUSH1 0x20 ADD SWAP1 DUP2 MSTORE PUSH1 0x20 ADD PUSH0 KECCAK256 PUSH0 DUP6 DUP2 MSTORE PUSH1 0x20 ADD SWAP1 DUP2 MSTORE PUSH1 0x20 ADD PUSH0 KECCAK256 SLOAD SWAP1 POP PUSH0 PUSH1 0x5 DUP3 DUP2 SLOAD DUP2 LT PUSH2 0x2B7 JUMPI PUSH2 0x2B6 PUSH2 0x17A8 JUMP JUMPDEST JUMPDEST SWAP1 PUSH0 MSTORE PUSH1 0x20 PUSH0 KECCAK256 SWAP1 PUSH1 0x3 MUL ADD PUSH1 0x40 MLOAD DUP1 PUSH1 0x60 ADD PUSH1 0x40 MSTORE SWAP1 DUP2 PUSH0 DUP3 ADD PUSH0 SWAP1 SLOAD SWAP1 PUSH2 0x100 EXP SWAP1 DIV PUSH20 0xFFFFFFFFFFFFFFFFFFFFFFFFFFFFFFFFFFFFFFFF AND PUSH20 0xFFFFFFFFFFFFFFFFFFFFFFFFFFFFFFFFFFFFFFFF AND PUSH20 0xFFFFFFFFFFFFFFFFFFFFFFFFFFFFFFFFFFFFFFFF AND DUP2 MSTORE PUSH1 0x20 ADD PUSH1 0x1 DUP3 ADD SLOAD DUP2 MSTORE PUSH1 0x20 ADD PUSH1 0x2 DUP3 ADD SLOAD DUP2 MSTORE POP POP SWAP1 POP PUSH0 ADDRESS PUSH1 0x2 DUP4 PUSH1 0x40 ADD MLOAD PUSH2 0x34B SWAP2 SWAP1 PUSH2 0x182F JUMP JUMPDEST PUSH1 0x40 MLOAD PUSH1 0x24 ADD PUSH2 0x35C SWAP3 SWAP2 SWAP1 PUSH2 0x1722 JUMP JUMPDEST PUSH1 0x40 MLOAD PUSH1 0x20 DUP2 DUP4 SUB SUB DUP2 MSTORE SWAP1 PUSH1 0x40 MSTORE PUSH32 0x95EA7B300000000000000000000000000000000000000000000000000000000 PUSH28 0xFFFFFFFFFFFFFFFFFFFFFFFFFFFFFFFFFFFFFFFFFFFFFFFFFFFFFFFF NOT AND PUSH1 0x20 DUP3 ADD DUP1 MLOAD PUSH28 0xFFFFFFFFFFFFFFFFFFFFFFFFFFFFFFFFFFFFFFFFFFFFFFFFFFFFFFFF DUP4 DUP2 DUP4 AND OR DUP4 MSTORE POP POP POP POP SWAP1 POP PUSH0 PUSH1 0x1 PUSH0 SWAP1 SLOAD SWAP1 PUSH2 0x100 EXP SWAP1 DIV PUSH20 0xFFFFFFFFFFFFFFFFFFFFFFFFFFFFFFFFFFFFFFFF AND PUSH20 0xFFFFFFFFFFFFFFFFFFFFFFFFFFFFFFFFFFFFFFFF AND DUP3 PUSH1 0x40 MLOAD PUSH2 0x422 SWAP2 SWAP1 PUSH2 0x18B1 JUMP JUMPDEST PUSH0 PUSH1 0x40 MLOAD DUP1 DUP4 SUB DUP2 DUP6 GAS DELEGATECALL SWAP2 POP POP RETURNDATASIZE DUP1 PUSH0 DUP2 EQ PUSH2 0x45A JUMPI PUSH1 0x40 MLOAD SWAP2 POP PUSH1 0x1F NOT PUSH1 0x3F RETURNDATASIZE ADD AND DUP3 ADD PUSH1 0x40 MSTORE RETURNDATASIZE DUP3 MSTORE RETURNDATASIZE PUSH0 PUSH1 0x20 DUP5 ADD RETURNDATACOPY PUSH2 0x45F JUMP JUMPDEST PUSH1 0x60 SWAP2 POP JUMPDEST POP POP SWAP1 POP DUP1 PUSH2 0x4A3 JUMPI PUSH1 0x40 MLOAD PUSH32 0x8C379A000000000000000000000000000000000000000000000000000000000 DUP2 MSTORE PUSH1 0x4 ADD PUSH2 0x49A SWAP1 PUSH2 0x1921 JUMP JUMPDEST PUSH1 0x40 MLOAD DUP1 SWAP2 SUB SWAP1 REVERT JUMPDEST PUSH0 PUSH1 0x7 PUSH0 DUP11 PUSH20 0xFFFFFFFFFFFFFFFFFFFFFFFFFFFFFFFFFFFFFFFF AND PUSH20 0xFFFFFFFFFFFFFFFFFFFFFFFFFFFFFFFFFFFFFFFF AND DUP2 MSTORE PUSH1 0x20 ADD SWAP1 DUP2 MSTORE PUSH1 0x20 ADD PUSH0 KECCAK256 PUSH0 DUP10 DUP2 MSTORE PUSH1 0x20 ADD SWAP1 DUP2 MSTORE PUSH1 0x20 ADD PUSH0 KECCAK256 PUSH0 SWAP1 SLOAD SWAP1 PUSH2 0x100 EXP SWAP1 DIV PUSH20 0xFFFFFFFFFFFFFFFFFFFFFFFFFFFFFFFFFFFFFFFF AND SWAP1 POP PUSH0 DUP1 SLOAD SWAP1 PUSH2 0x100 EXP SWAP1 DIV PUSH20 0xFFFFFFFFFFFFFFFFFFFFFFFFFFFFFFFFFFFFFFFF AND PUSH20 0xFFFFFFFFFFFFFFFFFFFFFFFFFFFFFFFFFFFFFFFF AND PUSH4 0x23B872DD CALLER DUP4 PUSH1 0x2 DUP9 PUSH1 0x40 ADD MLOAD PUSH2 0x560 SWAP2 SWAP1 PUSH2 0x182F JUMP JUMPDEST PUSH1 0x40 MLOAD DUP5 PUSH4 0xFFFFFFFF AND PUSH1 0xE0 SHL DUP2 MSTORE PUSH1 0x4 ADD PUSH2 0x57E SWAP4 SWAP3 SWAP2 SWAP1 PUSH2 0x193F JUMP JUMPDEST PUSH1 0x20 PUSH1 0x40 MLOAD DUP1 DUP4 SUB DUP2 PUSH0 DUP8 GAS CALL ISZERO DUP1 ISZERO PUSH2 0x59A JUMPI RETURNDATASIZE PUSH0 DUP1 RETURNDATACOPY RETURNDATASIZE PUSH0 REVERT JUMPDEST POP POP POP POP PUSH1 0x40 MLOAD RETURNDATASIZE PUSH1 0x1F NOT PUSH1 0x1F DUP3 ADD AND DUP3 ADD DUP1 PUSH1 0x40 MSTORE POP DUP2 ADD SWAP1 PUSH2 0x5BE SWAP2 SWAP1 PUSH2 0x1988 JUMP JUMPDEST POP DUP9 PUSH20 0xFFFFFFFFFFFFFFFFFFFFFFFFFFFFFFFFFFFFFFFF AND PUSH4 0x42842E0E ADDRESS CALLER DUP12 PUSH1 0x40 MLOAD DUP5 PUSH4 0xFFFFFFFF AND PUSH1 0xE0 SHL DUP2 MSTORE PUSH1 0x4 ADD PUSH2 0x5FC SWAP4 SWAP3 SWAP2 SWAP1 PUSH2 0x193F JUMP JUMPDEST PUSH0 PUSH1 0x40 MLOAD DUP1 DUP4 SUB DUP2 PUSH0 DUP8 DUP1 EXTCODESIZE ISZERO DUP1 ISZERO PUSH2 0x613 JUMPI PUSH0 DUP1 REVERT JUMPDEST POP GAS CALL ISZERO DUP1 ISZERO PUSH2 0x625 JUMPI RETURNDATASIZE PUSH0 DUP1 RETURNDATACOPY RETURNDATASIZE PUSH0 REVERT JUMPDEST POP POP POP POP POP POP POP POP POP POP POP POP POP JUMP JUMPDEST PUSH0 DUP2 SWAP1 POP PUSH0 JUMPDEST DUP5 MLOAD DUP2 LT ISZERO PUSH2 0x6EB JUMPI PUSH0 DUP6 DUP3 DUP2 MLOAD DUP2 LT PUSH2 0x657 JUMPI PUSH2 0x656 PUSH2 0x17A8 JUMP JUMPDEST JUMPDEST PUSH1 0x20 MUL PUSH1 0x20 ADD ADD MLOAD SWAP1 POP DUP5 DUP3 DUP2 MLOAD DUP2 LT PUSH2 0x674 JUMPI PUSH2 0x673 PUSH2 0x17A8 JUMP JUMPDEST JUMPDEST PUSH1 0x20 MUL PUSH1 0x20 ADD ADD MLOAD ISZERO PUSH2 0x6B1 JUMPI DUP1 DUP4 PUSH1 0x40 MLOAD PUSH1 0x20 ADD PUSH2 0x694 SWAP3 SWAP2 SWAP1 PUSH2 0x19D3 JUMP JUMPDEST PUSH1 0x40 MLOAD PUSH1 0x20 DUP2 DUP4 SUB SUB DUP2 MSTORE SWAP1 PUSH1 0x40 MSTORE DUP1 MLOAD SWAP1 PUSH1 0x20 ADD KECCAK256 SWAP3 POP PUSH2 0x6DD JUMP JUMPDEST DUP3 DUP2 PUSH1 0x40 MLOAD PUSH1 0x20 ADD PUSH2 0x6C4 SWAP3 SWAP2 SWAP1 PUSH2 0x19D3 JUMP JUMPDEST PUSH1 0x40 MLOAD PUSH1 0x20 DUP2 DUP4 SUB SUB DUP2 MSTORE SWAP1 PUSH1 0x40 MSTORE DUP1 MLOAD SWAP1 PUSH1 0x20 ADD KECCAK256 SWAP3 POP JUMPDEST POP DUP1 DUP1 PUSH1 0x1 ADD SWAP2 POP POP PUSH2 0x63A JUMP JUMPDEST POP PUSH1 0x4 SLOAD DUP2 EQ PUSH2 0x730 JUMPI PUSH1 0x40 MLOAD PUSH32 0x8C379A000000000000000000000000000000000000000000000000000000000 DUP2 MSTORE PUSH1 0x4 ADD PUSH2 0x727 SWAP1 PUSH2 0x1A48 JUMP JUMPDEST PUSH1 0x40 MLOAD DUP1 SWAP2 SUB SWAP1 REVERT JUMPDEST POP POP POP POP JUMP JUMPDEST PUSH0 DUP1 PUSH1 0x7 PUSH0 CALLER PUSH20 0xFFFFFFFFFFFFFFFFFFFFFFFFFFFFFFFFFFFFFFFF AND PUSH20 0xFFFFFFFFFFFFFFFFFFFFFFFFFFFFFFFFFFFFFFFF AND DUP2 MSTORE PUSH1 0x20 ADD SWAP1 DUP2 MSTORE PUSH1 0x20 ADD PUSH0 KECCAK256 PUSH0 DUP7 DUP2 MSTORE PUSH1 0x20 ADD SWAP1 DUP2 MSTORE PUSH1 0x20 ADD PUSH0 KECCAK256 PUSH0 SWAP1 SLOAD SWAP1 PUSH2 0x100 EXP SWAP1 DIV PUSH20 0xFFFFFFFFFFFFFFFFFFFFFFFFFFFFFFFFFFFFFFFF AND SWAP1 POP PUSH0 PUSH20 0xFFFFFFFFFFFFFFFFFFFFFFFFFFFFFFFFFFFFFFFF AND DUP2 PUSH20 0xFFFFFFFFFFFFFFFFFFFFFFFFFFFFFFFFFFFFFFFF AND EQ PUSH2 0x814 JUMPI PUSH1 0x40 MLOAD PUSH32 0x8C379A000000000000000000000000000000000000000000000000000000000 DUP2 MSTORE PUSH1 0x4 ADD PUSH2 0x80B SWAP1 PUSH2 0x1AB0 JUMP JUMPDEST PUSH1 0x40 MLOAD DUP1 SWAP2 SUB SWAP1 REVERT JUMPDEST PUSH1 0x5 PUSH1 0x40 MLOAD DUP1 PUSH1 0x60 ADD PUSH1 0x40 MSTORE DUP1 CALLER PUSH20 0xFFFFFFFFFFFFFFFFFFFFFFFFFFFFFFFFFFFFFFFF AND DUP2 MSTORE PUSH1 0x20 ADD DUP8 DUP2 MSTORE PUSH1 0x20 ADD PUSH2 0x88F DUP8 DUP8 DUP1 DUP1 PUSH1 0x1F ADD PUSH1 0x20 DUP1 SWAP2 DIV MUL PUSH1 0x20 ADD PUSH1 0x40 MLOAD SWAP1 DUP2 ADD PUSH1 0x40 MSTORE DUP1 SWAP4 SWAP3 SWAP2 SWAP1 DUP2 DUP2 MSTORE PUSH1 0x20 ADD DUP4 DUP4 DUP1 DUP3 DUP5 CALLDATACOPY PUSH0 DUP2 DUP5 ADD MSTORE PUSH1 0x1F NOT PUSH1 0x1F DUP3 ADD AND SWAP1 POP DUP1 DUP4 ADD SWAP3 POP POP POP POP POP POP POP PUSH2 0xF6E JUMP JUMPDEST DUP2 MSTORE POP SWAP1 DUP1 PUSH1 0x1 DUP2 SLOAD ADD DUP1 DUP3 SSTORE DUP1 SWAP2 POP POP PUSH1 0x1 SWAP1 SUB SWAP1 PUSH0 MSTORE PUSH1 0x20 PUSH0 KECCAK256 SWAP1 PUSH1 0x3 MUL ADD PUSH0 SWAP1 SWAP2 SWAP1 SWAP2 SWAP1 SWAP2 POP PUSH0 DUP3 ADD MLOAD DUP2 PUSH0 ADD PUSH0 PUSH2 0x100 EXP DUP2 SLOAD DUP2 PUSH20 0xFFFFFFFFFFFFFFFFFFFFFFFFFFFFFFFFFFFFFFFF MUL NOT AND SWAP1 DUP4 PUSH20 0xFFFFFFFFFFFFFFFFFFFFFFFFFFFFFFFFFFFFFFFF AND MUL OR SWAP1 SSTORE POP PUSH1 0x20 DUP3 ADD MLOAD DUP2 PUSH1 0x1 ADD SSTORE PUSH1 0x40 DUP3 ADD MLOAD DUP2 PUSH1 0x2 ADD SSTORE POP POP PUSH1 0x1 PUSH1 0x5 DUP1 SLOAD SWAP1 POP PUSH2 0x924 SWAP2 SWAP1 PUSH2 0x1ACE JUMP JUMPDEST PUSH1 0x6 PUSH0 CALLER PUSH20 0xFFFFFFFFFFFFFFFFFFFFFFFFFFFFFFFFFFFFFFFF AND PUSH20 0xFFFFFFFFFFFFFFFFFFFFFFFFFFFFFFFFFFFFFFFF AND DUP2 MSTORE PUSH1 0x20 ADD SWAP1 DUP2 MSTORE PUSH1 0x20 ADD PUSH0 KECCAK256 PUSH0 DUP8 DUP2 MSTORE PUSH1 0x20 ADD SWAP1 DUP2 MSTORE PUSH1 0x20 ADD PUSH0 KECCAK256 DUP2 SWAP1 SSTORE POP DUP6 PUSH1 0x7 PUSH0 CALLER PUSH20 0xFFFFFFFFFFFFFFFFFFFFFFFFFFFFFFFFFFFFFFFF AND PUSH20 0xFFFFFFFFFFFFFFFFFFFFFFFFFFFFFFFFFFFFFFFF AND DUP2 MSTORE PUSH1 0x20 ADD SWAP1 DUP2 MSTORE PUSH1 0x20 ADD PUSH0 KECCAK256 PUSH0 DUP8 DUP2 MSTORE PUSH1 0x20 ADD SWAP1 DUP2 MSTORE PUSH1 0x20 ADD PUSH0 KECCAK256 PUSH0 PUSH2 0x100 EXP DUP2 SLOAD DUP2 PUSH20 0xFFFFFFFFFFFFFFFFFFFFFFFFFFFFFFFFFFFFFFFF MUL NOT AND SWAP1 DUP4 PUSH20 0xFFFFFFFFFFFFFFFFFFFFFFFFFFFFFFFFFFFFFFFF AND MUL OR SWAP1 SSTORE POP PUSH4 0x150B7A02 PUSH1 0xE0 SHL SWAP2 POP POP SWAP6 SWAP5 POP POP POP POP POP JUMP JUMPDEST PUSH1 0x5 DUP2 DUP2 SLOAD DUP2 LT PUSH2 0xA21 JUMPI PUSH0 DUP1 REVERT JUMPDEST SWAP1 PUSH0 MSTORE PUSH1 0x20 PUSH0 KECCAK256 SWAP1 PUSH1 0x3 MUL ADD PUSH0 SWAP2 POP SWAP1 POP DUP1 PUSH0 ADD PUSH0 SWAP1 SLOAD SWAP1 PUSH2 0x100 EXP SWAP1 DIV PUSH20 0xFFFFFFFFFFFFFFFFFFFFFFFFFFFFFFFFFFFFFFFF AND SWAP1 DUP1 PUSH1 0x1 ADD SLOAD SWAP1 DUP1 PUSH1 0x2 ADD SLOAD SWAP1 POP DUP4 JUMP JUMPDEST DUP1 PUSH1 0x4 DUP2 SWAP1 SSTORE POP POP JUMP JUMPDEST PUSH1 0x4 SLOAD DUP2 JUMP JUMPDEST PUSH1 0x7 PUSH1 0x20 MSTORE DUP2 PUSH0 MSTORE PUSH1 0x40 PUSH0 KECCAK256 PUSH1 0x20 MSTORE DUP1 PUSH0 MSTORE PUSH1 0x40 PUSH0 KECCAK256 PUSH0 SWAP2 POP SWAP2 POP SWAP1 SLOAD SWAP1 PUSH2 0x100 EXP SWAP1 DIV PUSH20 0xFFFFFFFFFFFFFFFFFFFFFFFFFFFFFFFFFFFFFFFF AND DUP2 JUMP JUMPDEST PUSH1 0x6 PUSH1 0x20 MSTORE DUP2 PUSH0 MSTORE PUSH1 0x40 PUSH0 KECCAK256 PUSH1 0x20 MSTORE DUP1 PUSH0 MSTORE PUSH1 0x40 PUSH0 KECCAK256 PUSH0 SWAP2 POP SWAP2 POP POP SLOAD DUP2 JUMP JUMPDEST PUSH0 PUSH1 0x7 PUSH0 DUP5 PUSH20 0xFFFFFFFFFFFFFFFFFFFFFFFFFFFFFFFFFFFFFFFF AND PUSH20 0xFFFFFFFFFFFFFFFFFFFFFFFFFFFFFFFFFFFFFFFF AND DUP2 MSTORE PUSH1 0x20 ADD SWAP1 DUP2 MSTORE PUSH1 0x20 ADD PUSH0 KECCAK256 PUSH0 DUP4 DUP2 MSTORE PUSH1 0x20 ADD SWAP1 DUP2 MSTORE PUSH1 0x20 ADD PUSH0 KECCAK256 PUSH0 SWAP1 SLOAD SWAP1 PUSH2 0x100 EXP SWAP1 DIV PUSH20 0xFFFFFFFFFFFFFFFFFFFFFFFFFFFFFFFFFFFFFFFF AND SWAP1 POP PUSH0 PUSH20 0xFFFFFFFFFFFFFFFFFFFFFFFFFFFFFFFFFFFFFFFF AND DUP2 PUSH20 0xFFFFFFFFFFFFFFFFFFFFFFFFFFFFFFFFFFFFFFFF AND SUB PUSH2 0xBB0 JUMPI PUSH1 0x40 MLOAD PUSH32 0x8C379A000000000000000000000000000000000000000000000000000000000 DUP2 MSTORE PUSH1 0x4 ADD PUSH2 0xBA7 SWAP1 PUSH2 0x1B4B JUMP JUMPDEST PUSH1 0x40 MLOAD DUP1 SWAP2 SUB SWAP1 REVERT JUMPDEST DUP1 PUSH20 0xFFFFFFFFFFFFFFFFFFFFFFFFFFFFFFFFFFFFFFFF AND CALLER PUSH20 0xFFFFFFFFFFFFFFFFFFFFFFFFFFFFFFFFFFFFFFFF AND EQ PUSH2 0xC1E JUMPI PUSH1 0x40 MLOAD PUSH32 0x8C379A000000000000000000000000000000000000000000000000000000000 DUP2 MSTORE PUSH1 0x4 ADD PUSH2 0xC15 SWAP1 PUSH2 0x1BB3 JUMP JUMPDEST PUSH1 0x40 MLOAD DUP1 SWAP2 SUB SWAP1 REVERT JUMPDEST PUSH0 PUSH1 0x6 PUSH0 DUP6 PUSH20 0xFFFFFFFFFFFFFFFFFFFFFFFFFFFFFFFFFFFFFFFF AND PUSH20 0xFFFFFFFFFFFFFFFFFFFFFFFFFFFFFFFFFFFFFFFF AND DUP2 MSTORE PUSH1 0x20 ADD SWAP1 DUP2 MSTORE PUSH1 0x20 ADD PUSH0 KECCAK256 PUSH0 DUP5 DUP2 MSTORE PUSH1 0x20 ADD SWAP1 DUP2 MSTORE PUSH1 0x20 ADD PUSH0 KECCAK256 SLOAD SWAP1 POP PUSH0 PUSH1 0x5 PUSH1 0x1 PUSH1 0x5 DUP1 SLOAD SWAP1 POP PUSH2 0xC83 SWAP2 SWAP1 PUSH2 0x1ACE JUMP JUMPDEST DUP2 SLOAD DUP2 LT PUSH2 0xC94 JUMPI PUSH2 0xC93 PUSH2 0x17A8 JUMP JUMPDEST JUMPDEST SWAP1 PUSH0 MSTORE PUSH1 0x20 PUSH0 KECCAK256 SWAP1 PUSH1 0x3 MUL ADD PUSH1 0x40 MLOAD DUP1 PUSH1 0x60 ADD PUSH1 0x40 MSTORE SWAP1 DUP2 PUSH0 DUP3 ADD PUSH0 SWAP1 SLOAD SWAP1 PUSH2 0x100 EXP SWAP1 DIV PUSH20 0xFFFFFFFFFFFFFFFFFFFFFFFFFFFFFFFFFFFFFFFF AND PUSH20 0xFFFFFFFFFFFFFFFFFFFFFFFFFFFFFFFFFFFFFFFF AND PUSH20 0xFFFFFFFFFFFFFFFFFFFFFFFFFFFFFFFFFFFFFFFF AND DUP2 MSTORE PUSH1 0x20 ADD PUSH1 0x1 DUP3 ADD SLOAD DUP2 MSTORE PUSH1 0x20 ADD PUSH1 0x2 DUP3 ADD SLOAD DUP2 MSTORE POP POP SWAP1 POP DUP1 PUSH1 0x5 DUP4 DUP2 SLOAD DUP2 LT PUSH2 0xD2A JUMPI PUSH2 0xD29 PUSH2 0x17A8 JUMP JUMPDEST JUMPDEST SWAP1 PUSH0 MSTORE PUSH1 0x20 PUSH0 KECCAK256 SWAP1 PUSH1 0x3 MUL ADD PUSH0 DUP3 ADD MLOAD DUP2 PUSH0 ADD PUSH0 PUSH2 0x100 EXP DUP2 SLOAD DUP2 PUSH20 0xFFFFFFFFFFFFFFFFFFFFFFFFFFFFFFFFFFFFFFFF MUL NOT AND SWAP1 DUP4 PUSH20 0xFFFFFFFFFFFFFFFFFFFFFFFFFFFFFFFFFFFFFFFF AND MUL OR SWAP1 SSTORE POP PUSH1 0x20 DUP3 ADD MLOAD DUP2 PUSH1 0x1 ADD SSTORE PUSH1 0x40 DUP3 ADD MLOAD DUP2 PUSH1 0x2 ADD SSTORE SWAP1 POP POP PUSH1 0x5 DUP1 SLOAD DUP1 PUSH2 0xDA3 JUMPI PUSH2 0xDA2 PUSH2 0x1BD1 JUMP JUMPDEST JUMPDEST PUSH1 0x1 SWAP1 SUB DUP2 DUP2 SWAP1 PUSH0 MSTORE PUSH1 0x20 PUSH0 KECCAK256 SWAP1 PUSH1 0x3 MUL ADD PUSH0 DUP1 DUP3 ADD PUSH0 PUSH2 0x100 EXP DUP2 SLOAD SWAP1 PUSH20 0xFFFFFFFFFFFFFFFFFFFFFFFFFFFFFFFFFFFFFFFF MUL NOT AND SWAP1 SSTORE PUSH1 0x1 DUP3 ADD PUSH0 SWAP1 SSTORE PUSH1 0x2 DUP3 ADD PUSH0 SWAP1 SSTORE POP POP SWAP1 SSTORE DUP2 PUSH1 0x6 PUSH0 DUP4 PUSH0 ADD MLOAD PUSH20 0xFFFFFFFFFFFFFFFFFFFFFFFFFFFFFFFFFFFFFFFF AND PUSH20 0xFFFFFFFFFFFFFFFFFFFFFFFFFFFFFFFFFFFFFFFF AND DUP2 MSTORE PUSH1 0x20 ADD SWAP1 DUP2 MSTORE PUSH1 0x20 ADD PUSH0 KECCAK256 PUSH0 DUP4 PUSH1 0x20 ADD MLOAD DUP2 MSTORE PUSH1 0x20 ADD SWAP1 DUP2 MSTORE PUSH1 0x20 ADD PUSH0 KECCAK256 DUP2 SWAP1 SSTORE POP PUSH0 PUSH1 0x7 PUSH0 DUP8 PUSH20 0xFFFFFFFFFFFFFFFFFFFFFFFFFFFFFFFFFFFFFFFF AND PUSH20 0xFFFFFFFFFFFFFFFFFFFFFFFFFFFFFFFFFFFFFFFF AND DUP2 MSTORE PUSH1 0x20 ADD SWAP1 DUP2 MSTORE PUSH1 0x20 ADD PUSH0 KECCAK256 PUSH0 DUP7 DUP2 MSTORE PUSH1 0x20 ADD SWAP1 DUP2 MSTORE PUSH1 0x20 ADD PUSH0 KECCAK256 PUSH0 PUSH2 0x100 EXP DUP2 SLOAD DUP2 PUSH20 0xFFFFFFFFFFFFFFFFFFFFFFFFFFFFFFFFFFFFFFFF MUL NOT AND SWAP1 DUP4 PUSH20 0xFFFFFFFFFFFFFFFFFFFFFFFFFFFFFFFFFFFFFFFF AND MUL OR SWAP1 SSTORE POP PUSH0 DUP6 SWAP1 POP DUP1 PUSH20 0xFFFFFFFFFFFFFFFFFFFFFFFFFFFFFFFFFFFFFFFF AND PUSH4 0x42842E0E ADDRESS DUP7 DUP9 PUSH1 0x40 MLOAD DUP5 PUSH4 0xFFFFFFFF AND PUSH1 0xE0 SHL DUP2 MSTORE PUSH1 0x4 ADD PUSH2 0xF10 SWAP4 SWAP3 SWAP2 SWAP1 PUSH2 0x193F JUMP JUMPDEST PUSH0 PUSH1 0x40 MLOAD DUP1 DUP4 SUB DUP2 PUSH0 DUP8 DUP1 EXTCODESIZE ISZERO DUP1 ISZERO PUSH2 0xF27 JUMPI PUSH0 DUP1 REVERT JUMPDEST POP GAS CALL ISZERO DUP1 ISZERO PUSH2 0xF39 JUMPI RETURNDATASIZE PUSH0 DUP1 RETURNDATACOPY RETURNDATASIZE PUSH0 REVERT JUMPDEST POP POP POP POP POP POP POP POP POP POP JUMP JUMPDEST PUSH0 DUP1 PUSH0 DUP1 DUP5 DUP1 PUSH1 0x20 ADD SWAP1 MLOAD DUP2 ADD SWAP1 PUSH2 0xF5D SWAP2 SWAP1 PUSH2 0x1C4D JUMP JUMPDEST SWAP2 POP SWAP2 POP DUP2 DUP2 SWAP4 POP SWAP4 POP POP POP SWAP2 POP SWAP2 JUMP JUMPDEST PUSH0 DUP1 PUSH1 0x20 DUP4 ADD MLOAD SWAP1 POP DUP1 SWAP2 POP POP SWAP2 SWAP1 POP JUMP JUMPDEST PUSH0 PUSH1 0x40 MLOAD SWAP1 POP SWAP1 JUMP JUMPDEST PUSH0 DUP1 REVERT JUMPDEST PUSH0 DUP1 REVERT JUMPDEST PUSH0 PUSH20 0xFFFFFFFFFFFFFFFFFFFFFFFFFFFFFFFFFFFFFFFF DUP3 AND SWAP1 POP SWAP2 SWAP1 POP JUMP JUMPDEST PUSH0 PUSH2 0xFBA DUP3 PUSH2 0xF91 JUMP JUMPDEST SWAP1 POP SWAP2 SWAP1 POP JUMP JUMPDEST PUSH2 0xFCA DUP2 PUSH2 0xFB0 JUMP JUMPDEST DUP2 EQ PUSH2 0xFD4 JUMPI PUSH0 DUP1 REVERT JUMPDEST POP JUMP JUMPDEST PUSH0 DUP2 CALLDATALOAD SWAP1 POP PUSH2 0xFE5 DUP2 PUSH2 0xFC1 JUMP JUMPDEST SWAP3 SWAP2 POP POP JUMP JUMPDEST PUSH0 DUP2 SWAP1 POP SWAP2 SWAP1 POP JUMP JUMPDEST PUSH2 0xFFD DUP2 PUSH2 0xFEB JUMP JUMPDEST DUP2 EQ PUSH2 0x1007 JUMPI PUSH0 DUP1 REVERT JUMPDEST POP JUMP JUMPDEST PUSH0 DUP2 CALLDATALOAD SWAP1 POP PUSH2 0x1018 DUP2 PUSH2 0xFF4 JUMP JUMPDEST SWAP3 SWAP2 POP POP JUMP JUMPDEST PUSH0 DUP1 REVERT JUMPDEST PUSH0 PUSH1 0x1F NOT PUSH1 0x1F DUP4 ADD AND SWAP1 POP SWAP2 SWAP1 POP JUMP JUMPDEST PUSH32 0x4E487B7100000000000000000000000000000000000000000000000000000000 PUSH0 MSTORE PUSH1 0x41 PUSH1 0x4 MSTORE PUSH1 0x24 PUSH0 REVERT JUMPDEST PUSH2 0x1068 DUP3 PUSH2 0x1022 JUMP JUMPDEST DUP2 ADD DUP2 DUP2 LT PUSH8 0xFFFFFFFFFFFFFFFF DUP3 GT OR ISZERO PUSH2 0x1087 JUMPI PUSH2 0x1086 PUSH2 0x1032 JUMP JUMPDEST JUMPDEST DUP1 PUSH1 0x40 MSTORE POP POP POP JUMP JUMPDEST PUSH0 PUSH2 0x1099 PUSH2 0xF80 JUMP JUMPDEST SWAP1 POP PUSH2 0x10A5 DUP3 DUP3 PUSH2 0x105F JUMP JUMPDEST SWAP2 SWAP1 POP JUMP JUMPDEST PUSH0 PUSH8 0xFFFFFFFFFFFFFFFF DUP3 GT ISZERO PUSH2 0x10C4 JUMPI PUSH2 0x10C3 PUSH2 0x1032 JUMP JUMPDEST JUMPDEST PUSH1 0x20 DUP3 MUL SWAP1 POP PUSH1 0x20 DUP2 ADD SWAP1 POP SWAP2 SWAP1 POP JUMP JUMPDEST PUSH0 DUP1 REVERT JUMPDEST PUSH0 DUP2 SWAP1 POP SWAP2 SWAP1 POP JUMP JUMPDEST PUSH2 0x10EB DUP2 PUSH2 0x10D9 JUMP JUMPDEST DUP2 EQ PUSH2 0x10F5 JUMPI PUSH0 DUP1 REVERT JUMPDEST POP JUMP JUMPDEST PUSH0 DUP2 CALLDATALOAD SWAP1 POP PUSH2 0x1106 DUP2 PUSH2 0x10E2 JUMP JUMPDEST SWAP3 SWAP2 POP POP JUMP JUMPDEST PUSH0 PUSH2 0x111E PUSH2 0x1119 DUP5 PUSH2 0x10AA JUMP JUMPDEST PUSH2 0x1090 JUMP JUMPDEST SWAP1 POP DUP1 DUP4 DUP3 MSTORE PUSH1 0x20 DUP3 ADD SWAP1 POP PUSH1 0x20 DUP5 MUL DUP4 ADD DUP6 DUP2 GT ISZERO PUSH2 0x1141 JUMPI PUSH2 0x1140 PUSH2 0x10D5 JUMP JUMPDEST JUMPDEST DUP4 JUMPDEST DUP2 DUP2 LT ISZERO PUSH2 0x116A JUMPI DUP1 PUSH2 0x1156 DUP9 DUP3 PUSH2 0x10F8 JUMP JUMPDEST DUP5 MSTORE PUSH1 0x20 DUP5 ADD SWAP4 POP POP PUSH1 0x20 DUP2 ADD SWAP1 POP PUSH2 0x1143 JUMP JUMPDEST POP POP POP SWAP4 SWAP3 POP POP POP JUMP JUMPDEST PUSH0 DUP3 PUSH1 0x1F DUP4 ADD SLT PUSH2 0x1188 JUMPI PUSH2 0x1187 PUSH2 0x101E JUMP JUMPDEST JUMPDEST DUP2 CALLDATALOAD PUSH2 0x1198 DUP5 DUP3 PUSH1 0x20 DUP7 ADD PUSH2 0x110C JUMP JUMPDEST SWAP2 POP POP SWAP3 SWAP2 POP POP JUMP JUMPDEST PUSH0 PUSH8 0xFFFFFFFFFFFFFFFF DUP3 GT ISZERO PUSH2 0x11BB JUMPI PUSH2 0x11BA PUSH2 0x1032 JUMP JUMPDEST JUMPDEST PUSH1 0x20 DUP3 MUL SWAP1 POP PUSH1 0x20 DUP2 ADD SWAP1 POP SWAP2 SWAP1 POP JUMP JUMPDEST PUSH0 DUP2 ISZERO ISZERO SWAP1 POP SWAP2 SWAP1 POP JUMP JUMPDEST PUSH2 0x11E0 DUP2 PUSH2 0x11CC JUMP JUMPDEST DUP2 EQ PUSH2 0x11EA JUMPI PUSH0 DUP1 REVERT JUMPDEST POP JUMP JUMPDEST PUSH0 DUP2 CALLDATALOAD SWAP1 POP PUSH2 0x11FB DUP2 PUSH2 0x11D7 JUMP JUMPDEST SWAP3 SWAP2 POP POP JUMP JUMPDEST PUSH0 PUSH2 0x1213 PUSH2 0x120E DUP5 PUSH2 0x11A1 JUMP JUMPDEST PUSH2 0x1090 JUMP JUMPDEST SWAP1 POP DUP1 DUP4 DUP3 MSTORE PUSH1 0x20 DUP3 ADD SWAP1 POP PUSH1 0x20 DUP5 MUL DUP4 ADD DUP6 DUP2 GT ISZERO PUSH2 0x1236 JUMPI PUSH2 0x1235 PUSH2 0x10D5 JUMP JUMPDEST JUMPDEST DUP4 JUMPDEST DUP2 DUP2 LT ISZERO PUSH2 0x125F JUMPI DUP1 PUSH2 0x124B DUP9 DUP3 PUSH2 0x11ED JUMP JUMPDEST DUP5 MSTORE PUSH1 0x20 DUP5 ADD SWAP4 POP POP PUSH1 0x20 DUP2 ADD SWAP1 POP PUSH2 0x1238 JUMP JUMPDEST POP POP POP SWAP4 SWAP3 POP POP POP JUMP JUMPDEST PUSH0 DUP3 PUSH1 0x1F DUP4 ADD SLT PUSH2 0x127D JUMPI PUSH2 0x127C PUSH2 0x101E JUMP JUMPDEST JUMPDEST DUP2 CALLDATALOAD PUSH2 0x128D DUP5 DUP3 PUSH1 0x20 DUP7 ADD PUSH2 0x1201 JUMP JUMPDEST SWAP2 POP POP SWAP3 SWAP2 POP POP JUMP JUMPDEST PUSH0 DUP1 PUSH0 DUP1 PUSH1 0x80 DUP6 DUP8 SUB SLT ISZERO PUSH2 0x12AE JUMPI PUSH2 0x12AD PUSH2 0xF89 JUMP JUMPDEST JUMPDEST PUSH0 PUSH2 0x12BB DUP8 DUP3 DUP9 ADD PUSH2 0xFD7 JUMP JUMPDEST SWAP5 POP POP PUSH1 0x20 PUSH2 0x12CC DUP8 DUP3 DUP9 ADD PUSH2 0x100A JUMP JUMPDEST SWAP4 POP POP PUSH1 0x40 DUP6 ADD CALLDATALOAD PUSH8 0xFFFFFFFFFFFFFFFF DUP2 GT ISZERO PUSH2 0x12ED JUMPI PUSH2 0x12EC PUSH2 0xF8D JUMP JUMPDEST JUMPDEST PUSH2 0x12F9 DUP8 DUP3 DUP9 ADD PUSH2 0x1174 JUMP JUMPDEST SWAP3 POP POP PUSH1 0x60 DUP6 ADD CALLDATALOAD PUSH8 0xFFFFFFFFFFFFFFFF DUP2 GT ISZERO PUSH2 0x131A JUMPI PUSH2 0x1319 PUSH2 0xF8D JUMP JUMPDEST JUMPDEST PUSH2 0x1326 DUP8 DUP3 DUP9 ADD PUSH2 0x1269 JUMP JUMPDEST SWAP2 POP POP SWAP3 SWAP6 SWAP2 SWAP5 POP SWAP3 POP JUMP JUMPDEST PUSH0 DUP1 PUSH0 PUSH1 0x60 DUP5 DUP7 SUB SLT ISZERO PUSH2 0x1349 JUMPI PUSH2 0x1348 PUSH2 0xF89 JUMP JUMPDEST JUMPDEST PUSH0 DUP5 ADD CALLDATALOAD PUSH8 0xFFFFFFFFFFFFFFFF DUP2 GT ISZERO PUSH2 0x1366 JUMPI PUSH2 0x1365 PUSH2 0xF8D JUMP JUMPDEST JUMPDEST PUSH2 0x1372 DUP7 DUP3 DUP8 ADD PUSH2 0x1174 JUMP JUMPDEST SWAP4 POP POP PUSH1 0x20 DUP5 ADD CALLDATALOAD PUSH8 0xFFFFFFFFFFFFFFFF DUP2 GT ISZERO PUSH2 0x1393 JUMPI PUSH2 0x1392 PUSH2 0xF8D JUMP JUMPDEST JUMPDEST PUSH2 0x139F DUP7 DUP3 DUP8 ADD PUSH2 0x1269 JUMP JUMPDEST SWAP3 POP POP PUSH1 0x40 PUSH2 0x13B0 DUP7 DUP3 DUP8 ADD PUSH2 0x10F8 JUMP JUMPDEST SWAP2 POP POP SWAP3 POP SWAP3 POP SWAP3 JUMP JUMPDEST PUSH0 DUP1 REVERT JUMPDEST PUSH0 DUP1 DUP4 PUSH1 0x1F DUP5 ADD SLT PUSH2 0x13D3 JUMPI PUSH2 0x13D2 PUSH2 0x101E JUMP JUMPDEST JUMPDEST DUP3 CALLDATALOAD SWAP1 POP PUSH8 0xFFFFFFFFFFFFFFFF DUP2 GT ISZERO PUSH2 0x13F0 JUMPI PUSH2 0x13EF PUSH2 0x13BA JUMP JUMPDEST JUMPDEST PUSH1 0x20 DUP4 ADD SWAP2 POP DUP4 PUSH1 0x1 DUP3 MUL DUP4 ADD GT ISZERO PUSH2 0x140C JUMPI PUSH2 0x140B PUSH2 0x10D5 JUMP JUMPDEST JUMPDEST SWAP3 POP SWAP3 SWAP1 POP JUMP JUMPDEST PUSH0 DUP1 PUSH0 DUP1 PUSH0 PUSH1 0x80 DUP7 DUP9 SUB SLT ISZERO PUSH2 0x142C JUMPI PUSH2 0x142B PUSH2 0xF89 JUMP JUMPDEST JUMPDEST PUSH0 PUSH2 0x1439 DUP9 DUP3 DUP10 ADD PUSH2 0xFD7 JUMP JUMPDEST SWAP6 POP POP PUSH1 0x20 PUSH2 0x144A DUP9 DUP3 DUP10 ADD PUSH2 0xFD7 JUMP JUMPDEST SWAP5 POP POP PUSH1 0x40 PUSH2 0x145B DUP9 DUP3 DUP10 ADD PUSH2 0x100A JUMP JUMPDEST SWAP4 POP POP PUSH1 0x60 DUP7 ADD CALLDATALOAD PUSH8 0xFFFFFFFFFFFFFFFF DUP2 GT ISZERO PUSH2 0x147C JUMPI PUSH2 0x147B PUSH2 0xF8D JUMP JUMPDEST JUMPDEST PUSH2 0x1488 DUP9 DUP3 DUP10 ADD PUSH2 0x13BE JUMP JUMPDEST SWAP3 POP SWAP3 POP POP SWAP3 SWAP6 POP SWAP3 SWAP6 SWAP1 SWAP4 POP JUMP JUMPDEST PUSH0 PUSH32 0xFFFFFFFF00000000000000000000000000000000000000000000000000000000 DUP3 AND SWAP1 POP SWAP2 SWAP1 POP JUMP JUMPDEST PUSH2 0x14CB DUP2 PUSH2 0x1497 JUMP JUMPDEST DUP3 MSTORE POP POP JUMP JUMPDEST PUSH0 PUSH1 0x20 DUP3 ADD SWAP1 POP PUSH2 0x14E4 PUSH0 DUP4 ADD DUP5 PUSH2 0x14C2 JUMP JUMPDEST SWAP3 SWAP2 POP POP JUMP JUMPDEST PUSH0 PUSH1 0x20 DUP3 DUP5 SUB SLT ISZERO PUSH2 0x14FF JUMPI PUSH2 0x14FE PUSH2 0xF89 JUMP JUMPDEST JUMPDEST PUSH0 PUSH2 0x150C DUP5 DUP3 DUP6 ADD PUSH2 0x100A JUMP JUMPDEST SWAP2 POP POP SWAP3 SWAP2 POP POP JUMP JUMPDEST PUSH2 0x151E DUP2 PUSH2 0xFB0 JUMP JUMPDEST DUP3 MSTORE POP POP JUMP JUMPDEST PUSH2 0x152D DUP2 PUSH2 0xFEB JUMP JUMPDEST DUP3 MSTORE POP POP JUMP JUMPDEST PUSH0 PUSH1 0x60 DUP3 ADD SWAP1 POP PUSH2 0x1546 PUSH0 DUP4 ADD DUP7 PUSH2 0x1515 JUMP JUMPDEST PUSH2 0x1553 PUSH1 0x20 DUP4 ADD DUP6 PUSH2 0x1524 JUMP JUMPDEST PUSH2 0x1560 PUSH1 0x40 DUP4 ADD DUP5 PUSH2 0x1524 JUMP JUMPDEST SWAP5 SWAP4 POP POP POP POP JUMP JUMPDEST PUSH0 PUSH1 0x20 DUP3 DUP5 SUB SLT ISZERO PUSH2 0x157D JUMPI PUSH2 0x157C PUSH2 0xF89 JUMP JUMPDEST JUMPDEST PUSH0 PUSH2 0x158A DUP5 DUP3 DUP6 ADD PUSH2 0x10F8 JUMP JUMPDEST SWAP2 POP POP SWAP3 SWAP2 POP POP JUMP JUMPDEST PUSH2 0x159C DUP2 PUSH2 0x10D9 JUMP JUMPDEST DUP3 MSTORE POP POP JUMP JUMPDEST PUSH0 PUSH1 0x20 DUP3 ADD SWAP1 POP PUSH2 0x15B5 PUSH0 DUP4 ADD DUP5 PUSH2 0x1593 JUMP JUMPDEST SWAP3 SWAP2 POP POP JUMP JUMPDEST PUSH0 DUP1 PUSH1 0x40 DUP4 DUP6 SUB SLT ISZERO PUSH2 0x15D1 JUMPI PUSH2 0x15D0 PUSH2 0xF89 JUMP JUMPDEST JUMPDEST PUSH0 PUSH2 0x15DE DUP6 DUP3 DUP7 ADD PUSH2 0xFD7 JUMP JUMPDEST SWAP3 POP POP PUSH1 0x20 PUSH2 0x15EF DUP6 DUP3 DUP7 ADD PUSH2 0x100A JUMP JUMPDEST SWAP2 POP POP SWAP3 POP SWAP3 SWAP1 POP JUMP JUMPDEST PUSH0 PUSH1 0x20 DUP3 ADD SWAP1 POP PUSH2 0x160C PUSH0 DUP4 ADD DUP5 PUSH2 0x1515 JUMP JUMPDEST SWAP3 SWAP2 POP POP JUMP JUMPDEST PUSH0 PUSH1 0x20 DUP3 ADD SWAP1 POP PUSH2 0x1625 PUSH0 DUP4 ADD DUP5 PUSH2 0x1524 JUMP JUMPDEST SWAP3 SWAP2 POP POP JUMP JUMPDEST PUSH0 DUP1 REVERT JUMPDEST PUSH0 PUSH8 0xFFFFFFFFFFFFFFFF DUP3 GT ISZERO PUSH2 0x1649 JUMPI PUSH2 0x1648 PUSH2 0x1032 JUMP JUMPDEST JUMPDEST PUSH2 0x1652 DUP3 PUSH2 0x1022 JUMP JUMPDEST SWAP1 POP PUSH1 0x20 DUP2 ADD SWAP1 POP SWAP2 SWAP1 POP JUMP JUMPDEST DUP3 DUP2 DUP4 CALLDATACOPY PUSH0 DUP4 DUP4 ADD MSTORE POP POP POP JUMP JUMPDEST PUSH0 PUSH2 0x167F PUSH2 0x167A DUP5 PUSH2 0x162F JUMP JUMPDEST PUSH2 0x1090 JUMP JUMPDEST SWAP1 POP DUP3 DUP2 MSTORE PUSH1 0x20 DUP2 ADD DUP5 DUP5 DUP5 ADD GT ISZERO PUSH2 0x169B JUMPI PUSH2 0x169A PUSH2 0x162B JUMP JUMPDEST JUMPDEST PUSH2 0x16A6 DUP5 DUP3 DUP6 PUSH2 0x165F JUMP JUMPDEST POP SWAP4 SWAP3 POP POP POP JUMP JUMPDEST PUSH0 DUP3 PUSH1 0x1F DUP4 ADD SLT PUSH2 0x16C2 JUMPI PUSH2 0x16C1 PUSH2 0x101E JUMP JUMPDEST JUMPDEST DUP2 CALLDATALOAD PUSH2 0x16D2 DUP5 DUP3 PUSH1 0x20 DUP7 ADD PUSH2 0x166D JUMP JUMPDEST SWAP2 POP POP SWAP3 SWAP2 POP POP JUMP JUMPDEST PUSH0 PUSH1 0x20 DUP3 DUP5 SUB SLT ISZERO PUSH2 0x16F0 JUMPI PUSH2 0x16EF PUSH2 0xF89 JUMP JUMPDEST JUMPDEST PUSH0 DUP3 ADD CALLDATALOAD PUSH8 0xFFFFFFFFFFFFFFFF DUP2 GT ISZERO PUSH2 0x170D JUMPI PUSH2 0x170C PUSH2 0xF8D JUMP JUMPDEST JUMPDEST PUSH2 0x1719 DUP5 DUP3 DUP6 ADD PUSH2 0x16AE JUMP JUMPDEST SWAP2 POP POP SWAP3 SWAP2 POP POP JUMP JUMPDEST PUSH0 PUSH1 0x40 DUP3 ADD SWAP1 POP PUSH2 0x1735 PUSH0 DUP4 ADD DUP6 PUSH2 0x1515 JUMP JUMPDEST PUSH2 0x1742 PUSH1 0x20 DUP4 ADD DUP5 PUSH2 0x1524 JUMP JUMPDEST SWAP4 SWAP3 POP POP POP JUMP JUMPDEST PUSH0 DUP2 PUSH1 0x60 SHL SWAP1 POP SWAP2 SWAP1 POP JUMP JUMPDEST PUSH0 PUSH2 0x175F DUP3 PUSH2 0x1749 JUMP JUMPDEST SWAP1 POP SWAP2 SWAP1 POP JUMP JUMPDEST PUSH0 PUSH2 0x1770 DUP3 PUSH2 0x1755 JUMP JUMPDEST SWAP1 POP SWAP2 SWAP1 POP JUMP JUMPDEST PUSH2 0x1788 PUSH2 0x1783 DUP3 PUSH2 0xFB0 JUMP JUMPDEST PUSH2 0x1766 JUMP JUMPDEST DUP3 MSTORE POP POP JUMP JUMPDEST PUSH0 PUSH2 0x1799 DUP3 DUP5 PUSH2 0x1777 JUMP JUMPDEST PUSH1 0x14 DUP3 ADD SWAP2 POP DUP2 SWAP1 POP SWAP3 SWAP2 POP POP JUMP JUMPDEST PUSH32 0x4E487B7100000000000000000000000000000000000000000000000000000000 PUSH0 MSTORE PUSH1 0x32 PUSH1 0x4 MSTORE PUSH1 0x24 PUSH0 REVERT JUMPDEST PUSH32 0x4E487B7100000000000000000000000000000000000000000000000000000000 PUSH0 MSTORE PUSH1 0x12 PUSH1 0x4 MSTORE PUSH1 0x24 PUSH0 REVERT JUMPDEST PUSH32 0x4E487B7100000000000000000000000000000000000000000000000000000000 PUSH0 MSTORE PUSH1 0x11 PUSH1 0x4 MSTORE PUSH1 0x24 PUSH0 REVERT JUMPDEST PUSH0 PUSH2 0x1839 DUP3 PUSH2 0xFEB JUMP JUMPDEST SWAP2 POP PUSH2 0x1844 DUP4 PUSH2 0xFEB JUMP JUMPDEST SWAP3 POP DUP3 PUSH2 0x1854 JUMPI PUSH2 0x1853 PUSH2 0x17D5 JUMP JUMPDEST JUMPDEST DUP3 DUP3 DIV SWAP1 POP SWAP3 SWAP2 POP POP JUMP JUMPDEST PUSH0 DUP2 MLOAD SWAP1 POP SWAP2 SWAP1 POP JUMP JUMPDEST PUSH0 DUP2 SWAP1 POP SWAP3 SWAP2 POP POP JUMP JUMPDEST DUP3 DUP2 DUP4 MCOPY PUSH0 DUP4 DUP4 ADD MSTORE POP POP POP JUMP JUMPDEST PUSH0 PUSH2 0x188B DUP3 PUSH2 0x185F JUMP JUMPDEST PUSH2 0x1895 DUP2 DUP6 PUSH2 0x1869 JUMP JUMPDEST SWAP4 POP PUSH2 0x18A5 DUP2 DUP6 PUSH1 0x20 DUP7 ADD PUSH2 0x1873 JUMP JUMPDEST DUP1 DUP5 ADD SWAP2 POP POP SWAP3 SWAP2 POP POP JUMP JUMPDEST PUSH0 PUSH2 0x18BC DUP3 DUP5 PUSH2 0x1881 JUMP JUMPDEST SWAP2 POP DUP2 SWAP1 POP SWAP3 SWAP2 POP POP JUMP JUMPDEST PUSH0 DUP3 DUP3 MSTORE PUSH1 0x20 DUP3 ADD SWAP1 POP SWAP3 SWAP2 POP POP JUMP JUMPDEST PUSH32 0x617070726F7665206572633230206661696C0000000000000000000000000000 PUSH0 DUP3 ADD MSTORE POP JUMP JUMPDEST PUSH0 PUSH2 0x190B PUSH1 0x12 DUP4 PUSH2 0x18C7 JUMP JUMPDEST SWAP2 POP PUSH2 0x1916 DUP3 PUSH2 0x18D7 JUMP JUMPDEST PUSH1 0x20 DUP3 ADD SWAP1 POP SWAP2 SWAP1 POP JUMP JUMPDEST PUSH0 PUSH1 0x20 DUP3 ADD SWAP1 POP DUP2 DUP2 SUB PUSH0 DUP4 ADD MSTORE PUSH2 0x1938 DUP2 PUSH2 0x18FF JUMP JUMPDEST SWAP1 POP SWAP2 SWAP1 POP JUMP JUMPDEST PUSH0 PUSH1 0x60 DUP3 ADD SWAP1 POP PUSH2 0x1952 PUSH0 DUP4 ADD DUP7 PUSH2 0x1515 JUMP JUMPDEST PUSH2 0x195F PUSH1 0x20 DUP4 ADD DUP6 PUSH2 0x1515 JUMP JUMPDEST PUSH2 0x196C PUSH1 0x40 DUP4 ADD DUP5 PUSH2 0x1524 JUMP JUMPDEST SWAP5 SWAP4 POP POP POP POP JUMP JUMPDEST PUSH0 DUP2 MLOAD SWAP1 POP PUSH2 0x1982 DUP2 PUSH2 0x11D7 JUMP JUMPDEST SWAP3 SWAP2 POP POP JUMP JUMPDEST PUSH0 PUSH1 0x20 DUP3 DUP5 SUB SLT ISZERO PUSH2 0x199D JUMPI PUSH2 0x199C PUSH2 0xF89 JUMP JUMPDEST JUMPDEST PUSH0 PUSH2 0x19AA DUP5 DUP3 DUP6 ADD PUSH2 0x1974 JUMP JUMPDEST SWAP2 POP POP SWAP3 SWAP2 POP POP JUMP JUMPDEST PUSH0 DUP2 SWAP1 POP SWAP2 SWAP1 POP JUMP JUMPDEST PUSH2 0x19CD PUSH2 0x19C8 DUP3 PUSH2 0x10D9 JUMP JUMPDEST PUSH2 0x19B3 JUMP JUMPDEST DUP3 MSTORE POP POP JUMP JUMPDEST PUSH0 PUSH2 0x19DE DUP3 DUP6 PUSH2 0x19BC JUMP JUMPDEST PUSH1 0x20 DUP3 ADD SWAP2 POP PUSH2 0x19EE DUP3 DUP5 PUSH2 0x19BC JUMP JUMPDEST PUSH1 0x20 DUP3 ADD SWAP2 POP DUP2 SWAP1 POP SWAP4 SWAP3 POP POP POP JUMP JUMPDEST PUSH32 0x6E6F74206169722064726F7020757365722E0000000000000000000000000000 PUSH0 DUP3 ADD MSTORE POP JUMP JUMPDEST PUSH0 PUSH2 0x1A32 PUSH1 0x12 DUP4 PUSH2 0x18C7 JUMP JUMPDEST SWAP2 POP PUSH2 0x1A3D DUP3 PUSH2 0x19FE JUMP JUMPDEST PUSH1 0x20 DUP3 ADD SWAP1 POP SWAP2 SWAP1 POP JUMP JUMPDEST PUSH0 PUSH1 0x20 DUP3 ADD SWAP1 POP DUP2 DUP2 SUB PUSH0 DUP4 ADD MSTORE PUSH2 0x1A5F DUP2 PUSH2 0x1A26 JUMP JUMPDEST SWAP1 POP SWAP2 SWAP1 POP JUMP JUMPDEST PUSH32 0x616C726561647920696E2073616C652E00000000000000000000000000000000 PUSH0 DUP3 ADD MSTORE POP JUMP JUMPDEST PUSH0 PUSH2 0x1A9A PUSH1 0x10 DUP4 PUSH2 0x18C7 JUMP JUMPDEST SWAP2 POP PUSH2 0x1AA5 DUP3 PUSH2 0x1A66 JUMP JUMPDEST PUSH1 0x20 DUP3 ADD SWAP1 POP SWAP2 SWAP1 POP JUMP JUMPDEST PUSH0 PUSH1 0x20 DUP3 ADD SWAP1 POP DUP2 DUP2 SUB PUSH0 DUP4 ADD MSTORE PUSH2 0x1AC7 DUP2 PUSH2 0x1A8E JUMP JUMPDEST SWAP1 POP SWAP2 SWAP1 POP JUMP JUMPDEST PUSH0 PUSH2 0x1AD8 DUP3 PUSH2 0xFEB JUMP JUMPDEST SWAP2 POP PUSH2 0x1AE3 DUP4 PUSH2 0xFEB JUMP JUMPDEST SWAP3 POP DUP3 DUP3 SUB SWAP1 POP DUP2 DUP2 GT ISZERO PUSH2 0x1AFB JUMPI PUSH2 0x1AFA PUSH2 0x1802 JUMP JUMPDEST JUMPDEST SWAP3 SWAP2 POP POP JUMP JUMPDEST PUSH32 0x6E6674206973206E6F7420696E2073616C652E00000000000000000000000000 PUSH0 DUP3 ADD MSTORE POP JUMP JUMPDEST PUSH0 PUSH2 0x1B35 PUSH1 0x13 DUP4 PUSH2 0x18C7 JUMP JUMPDEST SWAP2 POP PUSH2 0x1B40 DUP3 PUSH2 0x1B01 JUMP JUMPDEST PUSH1 0x20 DUP3 ADD SWAP1 POP SWAP2 SWAP1 POP JUMP JUMPDEST PUSH0 PUSH1 0x20 DUP3 ADD SWAP1 POP DUP2 DUP2 SUB PUSH0 DUP4 ADD MSTORE PUSH2 0x1B62 DUP2 PUSH2 0x1B29 JUMP JUMPDEST SWAP1 POP SWAP2 SWAP1 POP JUMP JUMPDEST PUSH32 0x4E6F7420796F7572206E66742E00000000000000000000000000000000000000 PUSH0 DUP3 ADD MSTORE POP JUMP JUMPDEST PUSH0 PUSH2 0x1B9D PUSH1 0xD DUP4 PUSH2 0x18C7 JUMP JUMPDEST SWAP2 POP PUSH2 0x1BA8 DUP3 PUSH2 0x1B69 JUMP JUMPDEST PUSH1 0x20 DUP3 ADD SWAP1 POP SWAP2 SWAP1 POP JUMP JUMPDEST PUSH0 PUSH1 0x20 DUP3 ADD SWAP1 POP DUP2 DUP2 SUB PUSH0 DUP4 ADD MSTORE PUSH2 0x1BCA DUP2 PUSH2 0x1B91 JUMP JUMPDEST SWAP1 POP SWAP2 SWAP1 POP JUMP JUMPDEST PUSH32 0x4E487B7100000000000000000000000000000000000000000000000000000000 PUSH0 MSTORE PUSH1 0x31 PUSH1 0x4 MSTORE PUSH1 0x24 PUSH0 REVERT JUMPDEST PUSH0 PUSH2 0x1C08 DUP3 PUSH2 0xF91 JUMP JUMPDEST SWAP1 POP SWAP2 SWAP1 POP JUMP JUMPDEST PUSH2 0x1C18 DUP2 PUSH2 0x1BFE JUMP JUMPDEST DUP2 EQ PUSH2 0x1C22 JUMPI PUSH0 DUP1 REVERT JUMPDEST POP JUMP JUMPDEST PUSH0 DUP2 MLOAD SWAP1 POP PUSH2 0x1C33 DUP2 PUSH2 0x1C0F JUMP JUMPDEST SWAP3 SWAP2 POP POP JUMP JUMPDEST PUSH0 DUP2 MLOAD SWAP1 POP PUSH2 0x1C47 DUP2 PUSH2 0xFF4 JUMP JUMPDEST SWAP3 SWAP2 POP POP JUMP JUMPDEST PUSH0 DUP1 PUSH1 0x40 DUP4 DUP6 SUB SLT ISZERO PUSH2 0x1C63 JUMPI PUSH2 0x1C62 PUSH2 0xF89 JUMP JUMPDEST JUMPDEST PUSH0 PUSH2 0x1C70 DUP6 DUP3 DUP7 ADD PUSH2 0x1C25 JUMP JUMPDEST SWAP3 POP POP PUSH1 0x20 PUSH2 0x1C81 DUP6 DUP3 DUP7 ADD PUSH2 0x1C39 JUMP JUMPDEST SWAP2 POP POP SWAP3 POP SWAP3 SWAP1 POP JUMP INVALID LOG2 PUSH5 0x6970667358 0x22 SLT KECCAK256 0x23 0xDD 0x4C PUSH19 0xECAD867AFDE1C7AFF6CF4CAAFDC3DBB3726DDD 0x1F GASPRICE SHR GT DUP7 0x22 PUSH16 0x9DED64736F6C634300081A0033000000 "
				},
				"gasEstimates": {
					"creation": {
						"codeDepositCost": "1472200",
						"executionCost": "infinite",
						"totalCost": "infinite"
					},
					"external": {
						"airDropBuy(address,uint256,bytes32[],bool[])": "infinite",
						"bytesToAddrAndUint(bytes)": "infinite",
						"market(uint256)": "infinite",
						"merkelRootHash()": "2425",
						"nftInfoToMarketId(address,uint256)": "infinite",
						"nftInfoToSalerAccount(address,uint256)": "infinite",
						"onERC721Received(address,address,uint256,bytes)": "infinite",
						"setMerkelRootHahs(bytes32)": "22604",
						"unsale(address,uint256)": "infinite",
						"verify(bytes32[],bool[],bytes32)": "infinite"
					},
					"internal": {
						"bytesToUint(bytes memory)": "infinite"
					}
				},
				"methodIdentifiers": {
					"airDropBuy(address,uint256,bytes32[],bool[])": "10638d1e",
					"bytesToAddrAndUint(bytes)": "e8900e12",
					"market(uint256)": "28861d22",
					"merkelRootHash()": "50e6bafc",
					"nftInfoToMarketId(address,uint256)": "7f6a645f",
					"nftInfoToSalerAccount(address,uint256)": "5764351f",
					"onERC721Received(address,address,uint256,bytes)": "150b7a02",
					"setMerkelRootHahs(bytes32)": "3b00f99f",
					"unsale(address,uint256)": "cee81dc5",
					"verify(bytes32[],bool[],bytes32)": "124af571"
				}
			},
			"storageLayout": {
				"storage": [
					{
						"astId": 253,
						"contract": "src/AirDropNFTMarket.sol:AirDropNFTMarket",
						"label": "hulioToken",
						"offset": 0,
						"slot": "0",
						"type": "t_contract(IERC20)95"
					},
					{
						"astId": 255,
						"contract": "src/AirDropNFTMarket.sol:AirDropNFTMarket",
						"label": "hulioTokenAddr",
						"offset": 0,
						"slot": "1",
						"type": "t_address"
					},
					{
						"astId": 258,
						"contract": "src/AirDropNFTMarket.sol:AirDropNFTMarket",
						"label": "hulioNFT",
						"offset": 0,
						"slot": "2",
						"type": "t_contract(IERC721)212"
					},
					{
						"astId": 260,
						"contract": "src/AirDropNFTMarket.sol:AirDropNFTMarket",
						"label": "hulioNFTAddr",
						"offset": 0,
						"slot": "3",
						"type": "t_address"
					},
					{
						"astId": 262,
						"contract": "src/AirDropNFTMarket.sol:AirDropNFTMarket",
						"label": "merkelRootHash",
						"offset": 0,
						"slot": "4",
						"type": "t_bytes32"
					},
					{
						"astId": 311,
						"contract": "src/AirDropNFTMarket.sol:AirDropNFTMarket",
						"label": "market",
						"offset": 0,
						"slot": "5",
						"type": "t_array(t_struct(SaleInfo)307_storage)dyn_storage"
					},
					{
						"astId": 317,
						"contract": "src/AirDropNFTMarket.sol:AirDropNFTMarket",
						"label": "nftInfoToMarketId",
						"offset": 0,
						"slot": "6",
						"type": "t_mapping(t_address,t_mapping(t_uint256,t_uint256))"
					},
					{
						"astId": 323,
						"contract": "src/AirDropNFTMarket.sol:AirDropNFTMarket",
						"label": "nftInfoToSalerAccount",
						"offset": 0,
						"slot": "7",
						"type": "t_mapping(t_address,t_mapping(t_uint256,t_address))"
					}
				],
				"types": {
					"t_address": {
						"encoding": "inplace",
						"label": "address",
						"numberOfBytes": "20"
					},
					"t_array(t_struct(SaleInfo)307_storage)dyn_storage": {
						"base": "t_struct(SaleInfo)307_storage",
						"encoding": "dynamic_array",
						"label": "struct AirDropNFTMarket.SaleInfo[]",
						"numberOfBytes": "32"
					},
					"t_bytes32": {
						"encoding": "inplace",
						"label": "bytes32",
						"numberOfBytes": "32"
					},
					"t_contract(IERC20)95": {
						"encoding": "inplace",
						"label": "contract IERC20",
						"numberOfBytes": "20"
					},
					"t_contract(IERC721)212": {
						"encoding": "inplace",
						"label": "contract IERC721",
						"numberOfBytes": "20"
					},
					"t_mapping(t_address,t_mapping(t_uint256,t_address))": {
						"encoding": "mapping",
						"key": "t_address",
						"label": "mapping(address => mapping(uint256 => address))",
						"numberOfBytes": "32",
						"value": "t_mapping(t_uint256,t_address)"
					},
					"t_mapping(t_address,t_mapping(t_uint256,t_uint256))": {
						"encoding": "mapping",
						"key": "t_address",
						"label": "mapping(address => mapping(uint256 => uint256))",
						"numberOfBytes": "32",
						"value": "t_mapping(t_uint256,t_uint256)"
					},
					"t_mapping(t_uint256,t_address)": {
						"encoding": "mapping",
						"key": "t_uint256",
						"label": "mapping(uint256 => address)",
						"numberOfBytes": "32",
						"value": "t_address"
					},
					"t_mapping(t_uint256,t_uint256)": {
						"encoding": "mapping",
						"key": "t_uint256",
						"label": "mapping(uint256 => uint256)",
						"numberOfBytes": "32",
						"value": "t_uint256"
					},
					"t_struct(SaleInfo)307_storage": {
						"encoding": "inplace",
						"label": "struct AirDropNFTMarket.SaleInfo",
						"members": [
							{
								"astId": 302,
								"contract": "src/AirDropNFTMarket.sol:AirDropNFTMarket",
								"label": "nft",
								"offset": 0,
								"slot": "0",
								"type": "t_address"
							},
							{
								"astId": 304,
								"contract": "src/AirDropNFTMarket.sol:AirDropNFTMarket",
								"label": "nftId",
								"offset": 0,
								"slot": "1",
								"type": "t_uint256"
							},
							{
								"astId": 306,
								"contract": "src/AirDropNFTMarket.sol:AirDropNFTMarket",
								"label": "priceInHulioToken",
								"offset": 0,
								"slot": "2",
								"type": "t_uint256"
							}
						],
						"numberOfBytes": "96"
					},
					"t_uint256": {
						"encoding": "inplace",
						"label": "uint256",
						"numberOfBytes": "32"
					}
				}
			},
			"userdoc": {
				"kind": "user",
				"methods": {},
				"version": 1
			}
		}
	}
}