{
	"src/Hulio.sol": {
		"Hulio": {
			"abi": [
				{
					"inputs": [],
					"stateMutability": "nonpayable",
					"type": "constructor"
				},
				{
					"inputs": [],
					"name": "ECDSAInvalidSignature",
					"type": "error"
				},
				{
					"inputs": [
						{
							"internalType": "uint256",
							"name": "length",
							"type": "uint256"
						}
					],
					"name": "ECDSAInvalidSignatureLength",
					"type": "error"
				},
				{
					"inputs": [
						{
							"internalType": "bytes32",
							"name": "s",
							"type": "bytes32"
						}
					],
					"name": "ECDSAInvalidSignatureS",
					"type": "error"
				},
				{
					"inputs": [
						{
							"internalType": "address",
							"name": "to",
							"type": "address"
						}
					],
					"name": "ERC1363ReceiveFailed",
					"type": "error"
				},
				{
					"inputs": [
						{
							"internalType": "address",
							"name": "to",
							"type": "address"
						},
						{
							"internalType": "uint256",
							"name": "value",
							"type": "uint256"
						}
					],
					"name": "ERC1363TransferFailed",
					"type": "error"
				},
				{
					"inputs": [
						{
							"internalType": "address",
							"name": "spender",
							"type": "address"
						},
						{
							"internalType": "uint256",
							"name": "allowance",
							"type": "uint256"
						},
						{
							"internalType": "uint256",
							"name": "needed",
							"type": "uint256"
						}
					],
					"name": "ERC20InsufficientAllowance",
					"type": "error"
				},
				{
					"inputs": [
						{
							"internalType": "address",
							"name": "sender",
							"type": "address"
						},
						{
							"internalType": "uint256",
							"name": "balance",
							"type": "uint256"
						},
						{
							"internalType": "uint256",
							"name": "needed",
							"type": "uint256"
						}
					],
					"name": "ERC20InsufficientBalance",
					"type": "error"
				},
				{
					"inputs": [
						{
							"internalType": "address",
							"name": "approver",
							"type": "address"
						}
					],
					"name": "ERC20InvalidApprover",
					"type": "error"
				},
				{
					"inputs": [
						{
							"internalType": "address",
							"name": "receiver",
							"type": "address"
						}
					],
					"name": "ERC20InvalidReceiver",
					"type": "error"
				},
				{
					"inputs": [
						{
							"internalType": "address",
							"name": "sender",
							"type": "address"
						}
					],
					"name": "ERC20InvalidSender",
					"type": "error"
				},
				{
					"inputs": [
						{
							"internalType": "address",
							"name": "spender",
							"type": "address"
						}
					],
					"name": "ERC20InvalidSpender",
					"type": "error"
				},
				{
					"inputs": [
						{
							"internalType": "uint256",
							"name": "deadline",
							"type": "uint256"
						}
					],
					"name": "ERC2612ExpiredSignature",
					"type": "error"
				},
				{
					"inputs": [
						{
							"internalType": "address",
							"name": "signer",
							"type": "address"
						},
						{
							"internalType": "address",
							"name": "owner",
							"type": "address"
						}
					],
					"name": "ERC2612InvalidSigner",
					"type": "error"
				},
				{
					"inputs": [
						{
							"internalType": "address",
							"name": "account",
							"type": "address"
						},
						{
							"internalType": "uint256",
							"name": "currentNonce",
							"type": "uint256"
						}
					],
					"name": "InvalidAccountNonce",
					"type": "error"
				},
				{
					"inputs": [],
					"name": "InvalidShortString",
					"type": "error"
				},
				{
					"inputs": [
						{
							"internalType": "string",
							"name": "str",
							"type": "string"
						}
					],
					"name": "StringTooLong",
					"type": "error"
				},
				{
					"anonymous": false,
					"inputs": [
						{
							"indexed": true,
							"internalType": "address",
							"name": "owner",
							"type": "address"
						},
						{
							"indexed": true,
							"internalType": "address",
							"name": "spender",
							"type": "address"
						},
						{
							"indexed": false,
							"internalType": "uint256",
							"name": "value",
							"type": "uint256"
						}
					],
					"name": "Approval",
					"type": "event"
				},
				{
					"anonymous": false,
					"inputs": [],
					"name": "EIP712DomainChanged",
					"type": "event"
				},
				{
					"anonymous": false,
					"inputs": [
						{
							"indexed": true,
							"internalType": "address",
							"name": "from",
							"type": "address"
						},
						{
							"indexed": true,
							"internalType": "address",
							"name": "to",
							"type": "address"
						},
						{
							"indexed": false,
							"internalType": "uint256",
							"name": "value",
							"type": "uint256"
						}
					],
					"name": "Transfer",
					"type": "event"
				},
				{
					"inputs": [],
					"name": "DOMAIN_SEPARATOR",
					"outputs": [
						{
							"internalType": "bytes32",
							"name": "",
							"type": "bytes32"
						}
					],
					"stateMutability": "view",
					"type": "function"
				},
				{
					"inputs": [
						{
							"internalType": "address",
							"name": "owner",
							"type": "address"
						},
						{
							"internalType": "address",
							"name": "spender",
							"type": "address"
						}
					],
					"name": "allowance",
					"outputs": [
						{
							"internalType": "uint256",
							"name": "",
							"type": "uint256"
						}
					],
					"stateMutability": "view",
					"type": "function"
				},
				{
					"inputs": [
						{
							"internalType": "address",
							"name": "spender",
							"type": "address"
						},
						{
							"internalType": "uint256",
							"name": "value",
							"type": "uint256"
						}
					],
					"name": "approve",
					"outputs": [
						{
							"internalType": "bool",
							"name": "",
							"type": "bool"
						}
					],
					"stateMutability": "nonpayable",
					"type": "function"
				},
				{
					"inputs": [
						{
							"internalType": "address",
							"name": "account",
							"type": "address"
						}
					],
					"name": "balanceOf",
					"outputs": [
						{
							"internalType": "uint256",
							"name": "",
							"type": "uint256"
						}
					],
					"stateMutability": "view",
					"type": "function"
				},
				{
					"inputs": [],
					"name": "decimals",
					"outputs": [
						{
							"internalType": "uint8",
							"name": "",
							"type": "uint8"
						}
					],
					"stateMutability": "view",
					"type": "function"
				},
				{
					"inputs": [],
					"name": "eip712Domain",
					"outputs": [
						{
							"internalType": "bytes1",
							"name": "fields",
							"type": "bytes1"
						},
						{
							"internalType": "string",
							"name": "name",
							"type": "string"
						},
						{
							"internalType": "string",
							"name": "version",
							"type": "string"
						},
						{
							"internalType": "uint256",
							"name": "chainId",
							"type": "uint256"
						},
						{
							"internalType": "address",
							"name": "verifyingContract",
							"type": "address"
						},
						{
							"internalType": "bytes32",
							"name": "salt",
							"type": "bytes32"
						},
						{
							"internalType": "uint256[]",
							"name": "extensions",
							"type": "uint256[]"
						}
					],
					"stateMutability": "view",
					"type": "function"
				},
				{
					"inputs": [],
					"name": "mint",
					"outputs": [],
					"stateMutability": "nonpayable",
					"type": "function"
				},
				{
					"inputs": [],
					"name": "name",
					"outputs": [
						{
							"internalType": "string",
							"name": "",
							"type": "string"
						}
					],
					"stateMutability": "view",
					"type": "function"
				},
				{
					"inputs": [
						{
							"internalType": "address",
							"name": "owner",
							"type": "address"
						}
					],
					"name": "nonces",
					"outputs": [
						{
							"internalType": "uint256",
							"name": "",
							"type": "uint256"
						}
					],
					"stateMutability": "view",
					"type": "function"
				},
				{
					"inputs": [
						{
							"internalType": "address",
							"name": "owner",
							"type": "address"
						},
						{
							"internalType": "address",
							"name": "spender",
							"type": "address"
						},
						{
							"internalType": "uint256",
							"name": "value",
							"type": "uint256"
						},
						{
							"internalType": "uint256",
							"name": "deadline",
							"type": "uint256"
						},
						{
							"internalType": "uint8",
							"name": "v",
							"type": "uint8"
						},
						{
							"internalType": "bytes32",
							"name": "r",
							"type": "bytes32"
						},
						{
							"internalType": "bytes32",
							"name": "s",
							"type": "bytes32"
						}
					],
					"name": "permit",
					"outputs": [],
					"stateMutability": "nonpayable",
					"type": "function"
				},
				{
					"inputs": [],
					"name": "symbol",
					"outputs": [
						{
							"internalType": "string",
							"name": "",
							"type": "string"
						}
					],
					"stateMutability": "view",
					"type": "function"
				},
				{
					"inputs": [],
					"name": "totalSupply",
					"outputs": [
						{
							"internalType": "uint256",
							"name": "",
							"type": "uint256"
						}
					],
					"stateMutability": "view",
					"type": "function"
				},
				{
					"inputs": [
						{
							"internalType": "address",
							"name": "to",
							"type": "address"
						},
						{
							"internalType": "uint256",
							"name": "value",
							"type": "uint256"
						}
					],
					"name": "transfer",
					"outputs": [
						{
							"internalType": "bool",
							"name": "",
							"type": "bool"
						}
					],
					"stateMutability": "nonpayable",
					"type": "function"
				},
				{
					"inputs": [
						{
							"internalType": "address",
							"name": "to",
							"type": "address"
						},
						{
							"internalType": "uint256",
							"name": "value",
							"type": "uint256"
						},
						{
							"internalType": "bytes",
							"name": "data",
							"type": "bytes"
						}
					],
					"name": "transferAndCall",
					"outputs": [
						{
							"internalType": "bool",
							"name": "",
							"type": "bool"
						}
					],
					"stateMutability": "nonpayable",
					"type": "function"
				},
				{
					"inputs": [
						{
							"internalType": "address",
							"name": "from",
							"type": "address"
						},
						{
							"internalType": "address",
							"name": "to",
							"type": "address"
						},
						{
							"internalType": "uint256",
							"name": "value",
							"type": "uint256"
						}
					],
					"name": "transferFrom",
					"outputs": [
						{
							"internalType": "bool",
							"name": "",
							"type": "bool"
						}
					],
					"stateMutability": "nonpayable",
					"type": "function"
				}
			],
			"devdoc": {
				"errors": {
					"ECDSAInvalidSignature()": [
						{
							"details": "The signature derives the `address(0)`."
						}
					],
					"ECDSAInvalidSignatureLength(uint256)": [
						{
							"details": "The signature has an invalid length."
						}
					],
					"ECDSAInvalidSignatureS(bytes32)": [
						{
							"details": "The signature has an S value that is in the upper half order."
						}
					],
					"ERC20InsufficientAllowance(address,uint256,uint256)": [
						{
							"details": "Indicates a failure with the `spender`’s `allowance`. Used in transfers.",
							"params": {
								"allowance": "Amount of tokens a `spender` is allowed to operate with.",
								"needed": "Minimum amount required to perform a transfer.",
								"spender": "Address that may be allowed to operate on tokens without being their owner."
							}
						}
					],
					"ERC20InsufficientBalance(address,uint256,uint256)": [
						{
							"details": "Indicates an error related to the current `balance` of a `sender`. Used in transfers.",
							"params": {
								"balance": "Current balance for the interacting account.",
								"needed": "Minimum amount required to perform a transfer.",
								"sender": "Address whose tokens are being transferred."
							}
						}
					],
					"ERC20InvalidApprover(address)": [
						{
							"details": "Indicates a failure with the `approver` of a token to be approved. Used in approvals.",
							"params": {
								"approver": "Address initiating an approval operation."
							}
						}
					],
					"ERC20InvalidReceiver(address)": [
						{
							"details": "Indicates a failure with the token `receiver`. Used in transfers.",
							"params": {
								"receiver": "Address to which tokens are being transferred."
							}
						}
					],
					"ERC20InvalidSender(address)": [
						{
							"details": "Indicates a failure with the token `sender`. Used in transfers.",
							"params": {
								"sender": "Address whose tokens are being transferred."
							}
						}
					],
					"ERC20InvalidSpender(address)": [
						{
							"details": "Indicates a failure with the `spender` to be approved. Used in approvals.",
							"params": {
								"spender": "Address that may be allowed to operate on tokens without being their owner."
							}
						}
					],
					"ERC2612ExpiredSignature(uint256)": [
						{
							"details": "Permit deadline has expired."
						}
					],
					"ERC2612InvalidSigner(address,address)": [
						{
							"details": "Mismatched signature."
						}
					],
					"InvalidAccountNonce(address,uint256)": [
						{
							"details": "The nonce used for an `account` is not the expected current nonce."
						}
					]
				},
				"events": {
					"Approval(address,address,uint256)": {
						"details": "Emitted when the allowance of a `spender` for an `owner` is set by a call to {approve}. `value` is the new allowance."
					},
					"EIP712DomainChanged()": {
						"details": "MAY be emitted to signal that the domain could have changed."
					},
					"Transfer(address,address,uint256)": {
						"details": "Emitted when `value` tokens are moved from one account (`from`) to another (`to`). Note that `value` may be zero."
					}
				},
				"kind": "dev",
				"methods": {
					"DOMAIN_SEPARATOR()": {
						"details": "Returns the domain separator used in the encoding of the signature for {permit}, as defined by {EIP712}."
					},
					"allowance(address,address)": {
						"details": "See {IERC20-allowance}."
					},
					"approve(address,uint256)": {
						"details": "See {IERC20-approve}. NOTE: If `value` is the maximum `uint256`, the allowance is not updated on `transferFrom`. This is semantically equivalent to an infinite approval. Requirements: - `spender` cannot be the zero address."
					},
					"balanceOf(address)": {
						"details": "See {IERC20-balanceOf}."
					},
					"decimals()": {
						"details": "Returns the number of decimals used to get its user representation. For example, if `decimals` equals `2`, a balance of `505` tokens should be displayed to a user as `5.05` (`505 / 10 ** 2`). Tokens usually opt for a value of 18, imitating the relationship between Ether and Wei. This is the default value returned by this function, unless it's overridden. NOTE: This information is only used for _display_ purposes: it in no way affects any of the arithmetic of the contract, including {IERC20-balanceOf} and {IERC20-transfer}."
					},
					"eip712Domain()": {
						"details": "See {IERC-5267}."
					},
					"name()": {
						"details": "Returns the name of the token."
					},
					"nonces(address)": {
						"details": "Returns the current nonce for `owner`. This value must be included whenever a signature is generated for {permit}. Every successful call to {permit} increases ``owner``'s nonce by one. This prevents a signature from being used multiple times."
					},
					"permit(address,address,uint256,uint256,uint8,bytes32,bytes32)": {
						"details": "Sets `value` as the allowance of `spender` over ``owner``'s tokens, given ``owner``'s signed approval. IMPORTANT: The same issues {IERC20-approve} has related to transaction ordering also apply here. Emits an {Approval} event. Requirements: - `spender` cannot be the zero address. - `deadline` must be a timestamp in the future. - `v`, `r` and `s` must be a valid `secp256k1` signature from `owner` over the EIP712-formatted function arguments. - the signature must use ``owner``'s current nonce (see {nonces}). For more information on the signature format, see the https://eips.ethereum.org/EIPS/eip-2612#specification[relevant EIP section]. CAUTION: See Security Considerations above."
					},
					"symbol()": {
						"details": "Returns the symbol of the token, usually a shorter version of the name."
					},
					"totalSupply()": {
						"details": "See {IERC20-totalSupply}."
					},
					"transfer(address,uint256)": {
						"details": "See {IERC20-transfer}. Requirements: - `to` cannot be the zero address. - the caller must have a balance of at least `value`."
					},
					"transferFrom(address,address,uint256)": {
						"details": "See {IERC20-transferFrom}. Emits an {Approval} event indicating the updated allowance. This is not required by the EIP. See the note at the beginning of {ERC20}. NOTE: Does not update the allowance if the current allowance is the maximum `uint256`. Requirements: - `from` and `to` cannot be the zero address. - `from` must have a balance of at least `value`. - the caller must have allowance for ``from``'s tokens of at least `value`."
					}
				},
				"version": 1
			},
			"evm": {
				"assembly": "    /* \"src/Hulio.sol\":233:1855  contract Hulio is ERC20Permit {... */\n  mstore(0x40, 0x0160)\n    /* \"src/Hulio.sol\":306:364  constructor() ERC20(\"Hulio\", \"HU\") ERC20Permit(\"Hulio\") {} */\n  callvalue\n  dup1\n  iszero\n  tag_1\n  jumpi\n  0x00\n  dup1\n  revert\ntag_1:\n  pop\n    /* \"lib/openzeppelin-contracts/contracts/token/ERC20/extensions/ERC20Permit.sol\":1574:1626  constructor(string memory name) EIP712(name, \"1\") {} */\n  mload(0x40)\n  dup1\n  0x40\n  add\n  0x40\n  mstore\n  dup1\n  0x05\n  dup2\n  mstore\n  0x20\n  add\n  0x48756c696f000000000000000000000000000000000000000000000000000000\n  dup2\n  mstore\n  pop\n    /* \"lib/openzeppelin-contracts/contracts/token/ERC20/extensions/ERC20Permit.sol\":1613:1617  name */\n  dup1\n    /* \"lib/openzeppelin-contracts/contracts/utils/cryptography/EIP712.sol\":3328:3759  constructor(string memory name, string memory version) {... */\n  mload(0x40)\n  dup1\n  0x40\n  add\n  0x40\n  mstore\n  dup1\n  0x01\n  dup2\n  mstore\n  0x20\n  add\n  0x3100000000000000000000000000000000000000000000000000000000000000\n  dup2\n  mstore\n  pop\n    /* \"lib/openzeppelin-contracts/contracts/token/ERC20/ERC20.sol\":1896:2009  constructor(string memory name_, string memory symbol_) {... */\n  mload(0x40)\n  dup1\n  0x40\n  add\n  0x40\n  mstore\n  dup1\n  0x05\n  dup2\n  mstore\n  0x20\n  add\n  0x48756c696f000000000000000000000000000000000000000000000000000000\n  dup2\n  mstore\n  pop\n  mload(0x40)\n  dup1\n  0x40\n  add\n  0x40\n  mstore\n  dup1\n  0x02\n  dup2\n  mstore\n  0x20\n  add\n  0x4855000000000000000000000000000000000000000000000000000000000000\n  dup2\n  mstore\n  pop\n    /* \"lib/openzeppelin-contracts/contracts/token/ERC20/ERC20.sol\":1970:1975  name_ */\n  dup2\n    /* \"lib/openzeppelin-contracts/contracts/token/ERC20/ERC20.sol\":1962:1967  _name */\n  0x03\n    /* \"lib/openzeppelin-contracts/contracts/token/ERC20/ERC20.sol\":1962:1975  _name = name_ */\n  swap1\n  dup2\n  tag_7\n  swap2\n  swap1\n  tag_8\n  jump\t// in\ntag_7:\n  pop\n    /* \"lib/openzeppelin-contracts/contracts/token/ERC20/ERC20.sol\":1995:2002  symbol_ */\n  dup1\n    /* \"lib/openzeppelin-contracts/contracts/token/ERC20/ERC20.sol\":1985:1992  _symbol */\n  0x04\n    /* \"lib/openzeppelin-contracts/contracts/token/ERC20/ERC20.sol\":1985:2002  _symbol = symbol_ */\n  swap1\n  dup2\n  tag_9\n  swap2\n  swap1\n  tag_8\n  jump\t// in\ntag_9:\n  pop\n    /* \"lib/openzeppelin-contracts/contracts/token/ERC20/ERC20.sol\":1896:2009  constructor(string memory name_, string memory symbol_) {... */\n  pop\n  pop\n    /* \"lib/openzeppelin-contracts/contracts/utils/cryptography/EIP712.sol\":3401:3446  name.toShortStringWithFallback(_nameFallback) */\n  tag_11\n    /* \"lib/openzeppelin-contracts/contracts/utils/cryptography/EIP712.sol\":3432:3445  _nameFallback */\n  0x05\n    /* \"lib/openzeppelin-contracts/contracts/utils/cryptography/EIP712.sol\":3401:3405  name */\n  dup4\n    /* \"lib/openzeppelin-contracts/contracts/utils/cryptography/EIP712.sol\":3401:3431  name.toShortStringWithFallback */\n  shl(0x20, tag_12)\n  swap1\n    /* \"lib/openzeppelin-contracts/contracts/utils/cryptography/EIP712.sol\":3401:3446  name.toShortStringWithFallback(_nameFallback) */\n  swap2\n  swap1\n  0x20\n  shr\n  jump\t// in\ntag_11:\n    /* \"lib/openzeppelin-contracts/contracts/utils/cryptography/EIP712.sol\":3393:3446  _name = name.toShortStringWithFallback(_nameFallback) */\n  0x0120\n  dup2\n  dup2\n  mstore\n  pop\n  pop\n    /* \"lib/openzeppelin-contracts/contracts/utils/cryptography/EIP712.sol\":3467:3518  version.toShortStringWithFallback(_versionFallback) */\n  tag_13\n    /* \"lib/openzeppelin-contracts/contracts/utils/cryptography/EIP712.sol\":3501:3517  _versionFallback */\n  0x06\n    /* \"lib/openzeppelin-contracts/contracts/utils/cryptography/EIP712.sol\":3467:3474  version */\n  dup3\n    /* \"lib/openzeppelin-contracts/contracts/utils/cryptography/EIP712.sol\":3467:3500  version.toShortStringWithFallback */\n  shl(0x20, tag_12)\n  swap1\n    /* \"lib/openzeppelin-contracts/contracts/utils/cryptography/EIP712.sol\":3467:3518  version.toShortStringWithFallback(_versionFallback) */\n  swap2\n  swap1\n  0x20\n  shr\n  jump\t// in\ntag_13:\n    /* \"lib/openzeppelin-contracts/contracts/utils/cryptography/EIP712.sol\":3456:3518  _version = version.toShortStringWithFallback(_versionFallback) */\n  0x0140\n  dup2\n  dup2\n  mstore\n  pop\n  pop\n    /* \"lib/openzeppelin-contracts/contracts/utils/cryptography/EIP712.sol\":3558:3562  name */\n  dup2\n    /* \"lib/openzeppelin-contracts/contracts/utils/cryptography/EIP712.sol\":3542:3564  keccak256(bytes(name)) */\n  dup1\n  mload\n  swap1\n  0x20\n  add\n  keccak256\n    /* \"lib/openzeppelin-contracts/contracts/utils/cryptography/EIP712.sol\":3528:3564  _hashedName = keccak256(bytes(name)) */\n  0xe0\n  dup2\n  dup2\n  mstore\n  pop\n  pop\n    /* \"lib/openzeppelin-contracts/contracts/utils/cryptography/EIP712.sol\":3607:3614  version */\n  dup1\n    /* \"lib/openzeppelin-contracts/contracts/utils/cryptography/EIP712.sol\":3591:3616  keccak256(bytes(version)) */\n  dup1\n  mload\n  swap1\n  0x20\n  add\n  keccak256\n    /* \"lib/openzeppelin-contracts/contracts/utils/cryptography/EIP712.sol\":3574:3616  _hashedVersion = keccak256(bytes(version)) */\n  0x0100\n  dup2\n  dup2\n  mstore\n  pop\n  pop\n    /* \"lib/openzeppelin-contracts/contracts/utils/cryptography/EIP712.sol\":3644:3657  block.chainid */\n  chainid\n    /* \"lib/openzeppelin-contracts/contracts/utils/cryptography/EIP712.sol\":3627:3657  _cachedChainId = block.chainid */\n  0xa0\n  dup2\n  dup2\n  mstore\n  pop\n  pop\n    /* \"lib/openzeppelin-contracts/contracts/utils/cryptography/EIP712.sol\":3692:3715  _buildDomainSeparator() */\n  tag_14\n    /* \"lib/openzeppelin-contracts/contracts/utils/cryptography/EIP712.sol\":3692:3713  _buildDomainSeparator */\n  shl(0x20, tag_15)\n    /* \"lib/openzeppelin-contracts/contracts/utils/cryptography/EIP712.sol\":3692:3715  _buildDomainSeparator() */\n  0x20\n  shr\n  jump\t// in\ntag_14:\n    /* \"lib/openzeppelin-contracts/contracts/utils/cryptography/EIP712.sol\":3667:3715  _cachedDomainSeparator = _buildDomainSeparator() */\n  0x80\n  dup2\n  dup2\n  mstore\n  pop\n  pop\n    /* \"lib/openzeppelin-contracts/contracts/utils/cryptography/EIP712.sol\":3747:3751  this */\n  address\n    /* \"lib/openzeppelin-contracts/contracts/utils/cryptography/EIP712.sol\":3725:3752  _cachedThis = address(this) */\n  0xffffffffffffffffffffffffffffffffffffffff\n  and\n  0xc0\n  dup2\n  0xffffffffffffffffffffffffffffffffffffffff\n  and\n  dup2\n  mstore\n  pop\n  pop\n    /* \"lib/openzeppelin-contracts/contracts/utils/cryptography/EIP712.sol\":3328:3759  constructor(string memory name, string memory version) {... */\n  pop\n  pop\n    /* \"lib/openzeppelin-contracts/contracts/token/ERC20/extensions/ERC20Permit.sol\":1574:1626  constructor(string memory name) EIP712(name, \"1\") {} */\n  pop\n    /* \"src/Hulio.sol\":233:1855  contract Hulio is ERC20Permit {... */\n  jump(tag_18)\n    /* \"lib/openzeppelin-contracts/contracts/utils/ShortStrings.sol\":2914:3254  function toShortStringWithFallback(string memory value, string storage store) internal returns (ShortString) {... */\ntag_12:\n    /* \"lib/openzeppelin-contracts/contracts/utils/ShortStrings.sol\":3010:3021  ShortString */\n  0x00\n    /* \"lib/openzeppelin-contracts/contracts/utils/ShortStrings.sol\":3059:3061  32 */\n  0x20\n    /* \"lib/openzeppelin-contracts/contracts/utils/ShortStrings.sol\":3043:3048  value */\n  dup4\n    /* \"lib/openzeppelin-contracts/contracts/utils/ShortStrings.sol\":3037:3056  bytes(value).length */\n  mload\n    /* \"lib/openzeppelin-contracts/contracts/utils/ShortStrings.sol\":3037:3061  bytes(value).length < 32 */\n  lt\n    /* \"lib/openzeppelin-contracts/contracts/utils/ShortStrings.sol\":3033:3248  if (bytes(value).length < 32) {... */\n  iszero\n  tag_20\n  jumpi\n    /* \"lib/openzeppelin-contracts/contracts/utils/ShortStrings.sol\":3084:3104  toShortString(value) */\n  tag_21\n    /* \"lib/openzeppelin-contracts/contracts/utils/ShortStrings.sol\":3098:3103  value */\n  dup4\n    /* \"lib/openzeppelin-contracts/contracts/utils/ShortStrings.sol\":3084:3097  toShortString */\n  shl(0x20, tag_22)\n    /* \"lib/openzeppelin-contracts/contracts/utils/ShortStrings.sol\":3084:3104  toShortString(value) */\n  0x20\n  shr\n  jump\t// in\ntag_21:\n    /* \"lib/openzeppelin-contracts/contracts/utils/ShortStrings.sol\":3077:3104  return toShortString(value) */\n  swap1\n  pop\n  jump(tag_19)\n    /* \"lib/openzeppelin-contracts/contracts/utils/ShortStrings.sol\":3033:3248  if (bytes(value).length < 32) {... */\ntag_20:\n    /* \"lib/openzeppelin-contracts/contracts/utils/ShortStrings.sol\":3176:3181  value */\n  dup3\n    /* \"lib/openzeppelin-contracts/contracts/utils/ShortStrings.sol\":3135:3167  StorageSlot.getStringSlot(store) */\n  tag_24\n    /* \"lib/openzeppelin-contracts/contracts/utils/ShortStrings.sol\":3161:3166  store */\n  dup4\n    /* \"lib/openzeppelin-contracts/contracts/utils/ShortStrings.sol\":3135:3160  StorageSlot.getStringSlot */\n  shl(0x20, tag_25)\n    /* \"lib/openzeppelin-contracts/contracts/utils/ShortStrings.sol\":3135:3167  StorageSlot.getStringSlot(store) */\n  0x20\n  shr\n  jump\t// in\ntag_24:\n    /* \"lib/openzeppelin-contracts/contracts/utils/ShortStrings.sol\":3135:3173  StorageSlot.getStringSlot(store).value */\n  0x00\n  add\n    /* \"lib/openzeppelin-contracts/contracts/utils/ShortStrings.sol\":3135:3181  StorageSlot.getStringSlot(store).value = value */\n  swap1\n  dup2\n  tag_26\n  swap2\n  swap1\n  tag_8\n  jump\t// in\ntag_26:\n  pop\n    /* \"lib/openzeppelin-contracts/contracts/utils/ShortStrings.sol\":1390:1456  0x00000000000000000000000000000000000000000000000000000000000000FF */\n  0xff\n    /* \"lib/openzeppelin-contracts/contracts/utils/ShortStrings.sol\":3219:3236  FALLBACK_SENTINEL */\n  0x00\n  shl\n    /* \"lib/openzeppelin-contracts/contracts/utils/ShortStrings.sol\":3195:3237  return ShortString.wrap(FALLBACK_SENTINEL) */\n  swap1\n  pop\n    /* \"lib/openzeppelin-contracts/contracts/utils/ShortStrings.sol\":2914:3254  function toShortStringWithFallback(string memory value, string storage store) internal returns (ShortString) {... */\ntag_19:\n  swap3\n  swap2\n  pop\n  pop\n  jump\t// out\n    /* \"lib/openzeppelin-contracts/contracts/utils/cryptography/EIP712.sol\":4113:4292  function _buildDomainSeparator() private view returns (bytes32) {... */\ntag_15:\n    /* \"lib/openzeppelin-contracts/contracts/utils/cryptography/EIP712.sol\":4168:4175  bytes32 */\n  0x00\n    /* \"lib/openzeppelin-contracts/contracts/utils/cryptography/EIP712.sol\":2079:2174  keccak256(\"EIP712Domain(string name,string version,uint256 chainId,address verifyingContract)\") */\n  0x8b73c3c69bb8fe3d512ecc4cf759cc79239f7b179b0ffacaa9a75d522b39400f\n    /* \"lib/openzeppelin-contracts/contracts/utils/cryptography/EIP712.sol\":4226:4237  _hashedName */\n  mload(0xe0)\n    /* \"lib/openzeppelin-contracts/contracts/utils/cryptography/EIP712.sol\":4239:4253  _hashedVersion */\n  mload(0x0100)\n    /* \"lib/openzeppelin-contracts/contracts/utils/cryptography/EIP712.sol\":4255:4268  block.chainid */\n  chainid\n    /* \"lib/openzeppelin-contracts/contracts/utils/cryptography/EIP712.sol\":4278:4282  this */\n  address\n    /* \"lib/openzeppelin-contracts/contracts/utils/cryptography/EIP712.sol\":4204:4284  abi.encode(TYPE_HASH, _hashedName, _hashedVersion, block.chainid, address(this)) */\n  add(0x20, mload(0x40))\n  tag_28\n  swap6\n  swap5\n  swap4\n  swap3\n  swap2\n  swap1\n  tag_29\n  jump\t// in\ntag_28:\n  mload(0x40)\n  0x20\n  dup2\n  dup4\n  sub\n  sub\n  dup2\n  mstore\n  swap1\n  0x40\n  mstore\n    /* \"lib/openzeppelin-contracts/contracts/utils/cryptography/EIP712.sol\":4194:4285  keccak256(abi.encode(TYPE_HASH, _hashedName, _hashedVersion, block.chainid, address(this))) */\n  dup1\n  mload\n  swap1\n  0x20\n  add\n  keccak256\n    /* \"lib/openzeppelin-contracts/contracts/utils/cryptography/EIP712.sol\":4187:4285  return keccak256(abi.encode(TYPE_HASH, _hashedName, _hashedVersion, block.chainid, address(this))) */\n  swap1\n  pop\n    /* \"lib/openzeppelin-contracts/contracts/utils/cryptography/EIP712.sol\":4113:4292  function _buildDomainSeparator() private view returns (bytes32) {... */\n  swap1\n  jump\t// out\n    /* \"lib/openzeppelin-contracts/contracts/utils/ShortStrings.sol\":1708:1994  function toShortString(string memory str) internal pure returns (ShortString) {... */\ntag_22:\n    /* \"lib/openzeppelin-contracts/contracts/utils/ShortStrings.sol\":1773:1784  ShortString */\n  0x00\n    /* \"lib/openzeppelin-contracts/contracts/utils/ShortStrings.sol\":1796:1813  bytes memory bstr */\n  dup1\n    /* \"lib/openzeppelin-contracts/contracts/utils/ShortStrings.sol\":1822:1825  str */\n  dup3\n    /* \"lib/openzeppelin-contracts/contracts/utils/ShortStrings.sol\":1796:1826  bytes memory bstr = bytes(str) */\n  swap1\n  pop\n    /* \"lib/openzeppelin-contracts/contracts/utils/ShortStrings.sol\":1854:1856  31 */\n  0x1f\n    /* \"lib/openzeppelin-contracts/contracts/utils/ShortStrings.sol\":1840:1844  bstr */\n  dup2\n    /* \"lib/openzeppelin-contracts/contracts/utils/ShortStrings.sol\":1840:1851  bstr.length */\n  mload\n    /* \"lib/openzeppelin-contracts/contracts/utils/ShortStrings.sol\":1840:1856  bstr.length > 31 */\n  gt\n    /* \"lib/openzeppelin-contracts/contracts/utils/ShortStrings.sol\":1836:1908  if (bstr.length > 31) {... */\n  iszero\n  tag_31\n  jumpi\n    /* \"lib/openzeppelin-contracts/contracts/utils/ShortStrings.sol\":1893:1896  str */\n  dup3\n    /* \"lib/openzeppelin-contracts/contracts/utils/ShortStrings.sol\":1879:1897  StringTooLong(str) */\n  mload(0x40)\n  0x305a27a900000000000000000000000000000000000000000000000000000000\n  dup2\n  mstore\n  0x04\n  add\n  tag_32\n  swap2\n  swap1\n  tag_33\n  jump\t// in\ntag_32:\n  mload(0x40)\n  dup1\n  swap2\n  sub\n  swap1\n  revert\n    /* \"lib/openzeppelin-contracts/contracts/utils/ShortStrings.sol\":1836:1908  if (bstr.length > 31) {... */\ntag_31:\n    /* \"lib/openzeppelin-contracts/contracts/utils/ShortStrings.sol\":1974:1978  bstr */\n  dup1\n    /* \"lib/openzeppelin-contracts/contracts/utils/ShortStrings.sol\":1974:1985  bstr.length */\n  mload\n    /* \"lib/openzeppelin-contracts/contracts/utils/ShortStrings.sol\":1965:1969  bstr */\n  dup2\n    /* \"lib/openzeppelin-contracts/contracts/utils/ShortStrings.sol\":1957:1970  bytes32(bstr) */\n  tag_34\n  swap1\n  tag_35\n  jump\t// in\ntag_34:\n    /* \"lib/openzeppelin-contracts/contracts/utils/ShortStrings.sol\":1949:1971  uint256(bytes32(bstr)) */\n  0x00\n  shr\n    /* \"lib/openzeppelin-contracts/contracts/utils/ShortStrings.sol\":1949:1985  uint256(bytes32(bstr)) | bstr.length */\n  or\n    /* \"lib/openzeppelin-contracts/contracts/utils/ShortStrings.sol\":1941:1986  bytes32(uint256(bytes32(bstr)) | bstr.length) */\n  0x00\n  shl\n    /* \"lib/openzeppelin-contracts/contracts/utils/ShortStrings.sol\":1917:1987  return ShortString.wrap(bytes32(uint256(bytes32(bstr)) | bstr.length)) */\n  swap2\n  pop\n  pop\n    /* \"lib/openzeppelin-contracts/contracts/utils/ShortStrings.sol\":1708:1994  function toShortString(string memory str) internal pure returns (ShortString) {... */\n  swap2\n  swap1\n  pop\n  jump\t// out\n    /* \"lib/openzeppelin-contracts/contracts/utils/StorageSlot.sol\":3135:3337  function getStringSlot(string storage store) internal pure returns (StringSlot storage r) {... */\ntag_25:\n    /* \"lib/openzeppelin-contracts/contracts/utils/StorageSlot.sol\":3203:3223  StringSlot storage r */\n  0x00\n    /* \"lib/openzeppelin-contracts/contracts/utils/StorageSlot.sol\":3311:3321  store.slot */\n  dup2\n    /* \"lib/openzeppelin-contracts/contracts/utils/StorageSlot.sol\":3301:3321  r.slot := store.slot */\n  swap1\n  pop\n    /* \"lib/openzeppelin-contracts/contracts/utils/StorageSlot.sol\":3135:3337  function getStringSlot(string storage store) internal pure returns (StringSlot storage r) {... */\n  swap2\n  swap1\n  pop\n  jump\t// out\n    /* \"#utility.yul\":7:106   */\ntag_37:\n    /* \"#utility.yul\":59:65   */\n  0x00\n    /* \"#utility.yul\":93:98   */\n  dup2\n    /* \"#utility.yul\":87:99   */\n  mload\n    /* \"#utility.yul\":77:99   */\n  swap1\n  pop\n    /* \"#utility.yul\":7:106   */\n  swap2\n  swap1\n  pop\n  jump\t// out\n    /* \"#utility.yul\":112:292   */\ntag_38:\n    /* \"#utility.yul\":160:237   */\n  0x4e487b7100000000000000000000000000000000000000000000000000000000\n    /* \"#utility.yul\":157:158   */\n  0x00\n    /* \"#utility.yul\":150:238   */\n  mstore\n    /* \"#utility.yul\":257:261   */\n  0x41\n    /* \"#utility.yul\":254:255   */\n  0x04\n    /* \"#utility.yul\":247:262   */\n  mstore\n    /* \"#utility.yul\":281:285   */\n  0x24\n    /* \"#utility.yul\":278:279   */\n  0x00\n    /* \"#utility.yul\":271:286   */\n  revert\n    /* \"#utility.yul\":298:478   */\ntag_39:\n    /* \"#utility.yul\":346:423   */\n  0x4e487b7100000000000000000000000000000000000000000000000000000000\n    /* \"#utility.yul\":343:344   */\n  0x00\n    /* \"#utility.yul\":336:424   */\n  mstore\n    /* \"#utility.yul\":443:447   */\n  0x22\n    /* \"#utility.yul\":440:441   */\n  0x04\n    /* \"#utility.yul\":433:448   */\n  mstore\n    /* \"#utility.yul\":467:471   */\n  0x24\n    /* \"#utility.yul\":464:465   */\n  0x00\n    /* \"#utility.yul\":457:472   */\n  revert\n    /* \"#utility.yul\":484:804   */\ntag_40:\n    /* \"#utility.yul\":528:534   */\n  0x00\n    /* \"#utility.yul\":565:566   */\n  0x02\n    /* \"#utility.yul\":559:563   */\n  dup3\n    /* \"#utility.yul\":555:567   */\n  div\n    /* \"#utility.yul\":545:567   */\n  swap1\n  pop\n    /* \"#utility.yul\":612:613   */\n  0x01\n    /* \"#utility.yul\":606:610   */\n  dup3\n    /* \"#utility.yul\":602:614   */\n  and\n    /* \"#utility.yul\":633:651   */\n  dup1\n    /* \"#utility.yul\":623:704   */\n  tag_75\n  jumpi\n    /* \"#utility.yul\":689:693   */\n  0x7f\n    /* \"#utility.yul\":681:687   */\n  dup3\n    /* \"#utility.yul\":677:694   */\n  and\n    /* \"#utility.yul\":667:694   */\n  swap2\n  pop\n    /* \"#utility.yul\":623:704   */\ntag_75:\n    /* \"#utility.yul\":751:753   */\n  0x20\n    /* \"#utility.yul\":743:749   */\n  dup3\n    /* \"#utility.yul\":740:754   */\n  lt\n    /* \"#utility.yul\":720:738   */\n  dup2\n    /* \"#utility.yul\":717:755   */\n  sub\n    /* \"#utility.yul\":714:798   */\n  tag_76\n  jumpi\n    /* \"#utility.yul\":770:788   */\n  tag_77\n  tag_39\n  jump\t// in\ntag_77:\n    /* \"#utility.yul\":714:798   */\ntag_76:\n    /* \"#utility.yul\":535:804   */\n  pop\n    /* \"#utility.yul\":484:804   */\n  swap2\n  swap1\n  pop\n  jump\t// out\n    /* \"#utility.yul\":810:951   */\ntag_41:\n    /* \"#utility.yul\":859:863   */\n  0x00\n    /* \"#utility.yul\":882:885   */\n  dup2\n    /* \"#utility.yul\":874:885   */\n  swap1\n  pop\n    /* \"#utility.yul\":905:908   */\n  dup2\n    /* \"#utility.yul\":902:903   */\n  0x00\n    /* \"#utility.yul\":895:909   */\n  mstore\n    /* \"#utility.yul\":939:943   */\n  0x20\n    /* \"#utility.yul\":936:937   */\n  0x00\n    /* \"#utility.yul\":926:944   */\n  keccak256\n    /* \"#utility.yul\":918:944   */\n  swap1\n  pop\n    /* \"#utility.yul\":810:951   */\n  swap2\n  swap1\n  pop\n  jump\t// out\n    /* \"#utility.yul\":957:1050   */\ntag_42:\n    /* \"#utility.yul\":994:1000   */\n  0x00\n    /* \"#utility.yul\":1041:1043   */\n  0x20\n    /* \"#utility.yul\":1036:1038   */\n  0x1f\n    /* \"#utility.yul\":1029:1034   */\n  dup4\n    /* \"#utility.yul\":1025:1039   */\n  add\n    /* \"#utility.yul\":1021:1044   */\n  div\n    /* \"#utility.yul\":1011:1044   */\n  swap1\n  pop\n    /* \"#utility.yul\":957:1050   */\n  swap2\n  swap1\n  pop\n  jump\t// out\n    /* \"#utility.yul\":1056:1163   */\ntag_43:\n    /* \"#utility.yul\":1100:1108   */\n  0x00\n    /* \"#utility.yul\":1150:1155   */\n  dup3\n    /* \"#utility.yul\":1144:1148   */\n  dup3\n    /* \"#utility.yul\":1140:1156   */\n  shl\n    /* \"#utility.yul\":1119:1156   */\n  swap1\n  pop\n    /* \"#utility.yul\":1056:1163   */\n  swap3\n  swap2\n  pop\n  pop\n  jump\t// out\n    /* \"#utility.yul\":1169:1562   */\ntag_44:\n    /* \"#utility.yul\":1238:1244   */\n  0x00\n    /* \"#utility.yul\":1288:1289   */\n  0x08\n    /* \"#utility.yul\":1276:1286   */\n  dup4\n    /* \"#utility.yul\":1272:1290   */\n  mul\n    /* \"#utility.yul\":1311:1408   */\n  tag_82\n    /* \"#utility.yul\":1341:1407   */\n  0xffffffffffffffffffffffffffffffffffffffffffffffffffffffffffffffff\n    /* \"#utility.yul\":1330:1339   */\n  dup3\n    /* \"#utility.yul\":1311:1408   */\n  tag_43\n  jump\t// in\ntag_82:\n    /* \"#utility.yul\":1429:1468   */\n  tag_83\n    /* \"#utility.yul\":1459:1467   */\n  dup7\n    /* \"#utility.yul\":1448:1457   */\n  dup4\n    /* \"#utility.yul\":1429:1468   */\n  tag_43\n  jump\t// in\ntag_83:\n    /* \"#utility.yul\":1417:1468   */\n  swap6\n  pop\n    /* \"#utility.yul\":1501:1505   */\n  dup1\n    /* \"#utility.yul\":1497:1506   */\n  not\n    /* \"#utility.yul\":1490:1495   */\n  dup5\n    /* \"#utility.yul\":1486:1507   */\n  and\n    /* \"#utility.yul\":1477:1507   */\n  swap4\n  pop\n    /* \"#utility.yul\":1550:1554   */\n  dup1\n    /* \"#utility.yul\":1540:1548   */\n  dup7\n    /* \"#utility.yul\":1536:1555   */\n  and\n    /* \"#utility.yul\":1529:1534   */\n  dup5\n    /* \"#utility.yul\":1526:1556   */\n  or\n    /* \"#utility.yul\":1516:1556   */\n  swap3\n  pop\n    /* \"#utility.yul\":1245:1562   */\n  pop\n  pop\n    /* \"#utility.yul\":1169:1562   */\n  swap4\n  swap3\n  pop\n  pop\n  pop\n  jump\t// out\n    /* \"#utility.yul\":1568:1645   */\ntag_45:\n    /* \"#utility.yul\":1605:1612   */\n  0x00\n    /* \"#utility.yul\":1634:1639   */\n  dup2\n    /* \"#utility.yul\":1623:1639   */\n  swap1\n  pop\n    /* \"#utility.yul\":1568:1645   */\n  swap2\n  swap1\n  pop\n  jump\t// out\n    /* \"#utility.yul\":1651:1711   */\ntag_46:\n    /* \"#utility.yul\":1679:1682   */\n  0x00\n    /* \"#utility.yul\":1700:1705   */\n  dup2\n    /* \"#utility.yul\":1693:1705   */\n  swap1\n  pop\n    /* \"#utility.yul\":1651:1711   */\n  swap2\n  swap1\n  pop\n  jump\t// out\n    /* \"#utility.yul\":1717:1859   */\ntag_47:\n    /* \"#utility.yul\":1767:1776   */\n  0x00\n    /* \"#utility.yul\":1800:1853   */\n  tag_87\n    /* \"#utility.yul\":1818:1852   */\n  tag_88\n    /* \"#utility.yul\":1827:1851   */\n  tag_89\n    /* \"#utility.yul\":1845:1850   */\n  dup5\n    /* \"#utility.yul\":1827:1851   */\n  tag_45\n  jump\t// in\ntag_89:\n    /* \"#utility.yul\":1818:1852   */\n  tag_46\n  jump\t// in\ntag_88:\n    /* \"#utility.yul\":1800:1853   */\n  tag_45\n  jump\t// in\ntag_87:\n    /* \"#utility.yul\":1787:1853   */\n  swap1\n  pop\n    /* \"#utility.yul\":1717:1859   */\n  swap2\n  swap1\n  pop\n  jump\t// out\n    /* \"#utility.yul\":1865:1940   */\ntag_48:\n    /* \"#utility.yul\":1908:1911   */\n  0x00\n    /* \"#utility.yul\":1929:1934   */\n  dup2\n    /* \"#utility.yul\":1922:1934   */\n  swap1\n  pop\n    /* \"#utility.yul\":1865:1940   */\n  swap2\n  swap1\n  pop\n  jump\t// out\n    /* \"#utility.yul\":1946:2215   */\ntag_49:\n    /* \"#utility.yul\":2056:2095   */\n  tag_92\n    /* \"#utility.yul\":2087:2094   */\n  dup4\n    /* \"#utility.yul\":2056:2095   */\n  tag_47\n  jump\t// in\ntag_92:\n    /* \"#utility.yul\":2117:2208   */\n  tag_93\n    /* \"#utility.yul\":2166:2207   */\n  tag_94\n    /* \"#utility.yul\":2190:2206   */\n  dup3\n    /* \"#utility.yul\":2166:2207   */\n  tag_48\n  jump\t// in\ntag_94:\n    /* \"#utility.yul\":2158:2164   */\n  dup5\n    /* \"#utility.yul\":2151:2155   */\n  dup5\n    /* \"#utility.yul\":2145:2156   */\n  sload\n    /* \"#utility.yul\":2117:2208   */\n  tag_44\n  jump\t// in\ntag_93:\n    /* \"#utility.yul\":2111:2115   */\n  dup3\n    /* \"#utility.yul\":2104:2209   */\n  sstore\n    /* \"#utility.yul\":2022:2215   */\n  pop\n    /* \"#utility.yul\":1946:2215   */\n  pop\n  pop\n  pop\n  jump\t// out\n    /* \"#utility.yul\":2221:2294   */\ntag_50:\n    /* \"#utility.yul\":2266:2269   */\n  0x00\n    /* \"#utility.yul\":2221:2294   */\n  swap1\n  jump\t// out\n    /* \"#utility.yul\":2300:2489   */\ntag_51:\n    /* \"#utility.yul\":2377:2409   */\n  tag_97\n  tag_50\n  jump\t// in\ntag_97:\n    /* \"#utility.yul\":2418:2483   */\n  tag_98\n    /* \"#utility.yul\":2476:2482   */\n  dup2\n    /* \"#utility.yul\":2468:2474   */\n  dup5\n    /* \"#utility.yul\":2462:2466   */\n  dup5\n    /* \"#utility.yul\":2418:2483   */\n  tag_49\n  jump\t// in\ntag_98:\n    /* \"#utility.yul\":2353:2489   */\n  pop\n    /* \"#utility.yul\":2300:2489   */\n  pop\n  pop\n  jump\t// out\n    /* \"#utility.yul\":2495:2681   */\ntag_52:\n    /* \"#utility.yul\":2555:2675   */\ntag_100:\n    /* \"#utility.yul\":2572:2575   */\n  dup2\n    /* \"#utility.yul\":2565:2570   */\n  dup2\n    /* \"#utility.yul\":2562:2576   */\n  lt\n    /* \"#utility.yul\":2555:2675   */\n  iszero\n  tag_102\n  jumpi\n    /* \"#utility.yul\":2626:2665   */\n  tag_103\n    /* \"#utility.yul\":2663:2664   */\n  0x00\n    /* \"#utility.yul\":2656:2661   */\n  dup3\n    /* \"#utility.yul\":2626:2665   */\n  tag_51\n  jump\t// in\ntag_103:\n    /* \"#utility.yul\":2599:2600   */\n  0x01\n    /* \"#utility.yul\":2592:2597   */\n  dup2\n    /* \"#utility.yul\":2588:2601   */\n  add\n    /* \"#utility.yul\":2579:2601   */\n  swap1\n  pop\n    /* \"#utility.yul\":2555:2675   */\n  jump(tag_100)\ntag_102:\n    /* \"#utility.yul\":2495:2681   */\n  pop\n  pop\n  jump\t// out\n    /* \"#utility.yul\":2687:3230   */\ntag_53:\n    /* \"#utility.yul\":2788:2790   */\n  0x1f\n    /* \"#utility.yul\":2783:2786   */\n  dup3\n    /* \"#utility.yul\":2780:2791   */\n  gt\n    /* \"#utility.yul\":2777:3223   */\n  iszero\n  tag_105\n  jumpi\n    /* \"#utility.yul\":2822:2860   */\n  tag_106\n    /* \"#utility.yul\":2854:2859   */\n  dup2\n    /* \"#utility.yul\":2822:2860   */\n  tag_41\n  jump\t// in\ntag_106:\n    /* \"#utility.yul\":2906:2935   */\n  tag_107\n    /* \"#utility.yul\":2924:2934   */\n  dup5\n    /* \"#utility.yul\":2906:2935   */\n  tag_42\n  jump\t// in\ntag_107:\n    /* \"#utility.yul\":2896:2904   */\n  dup2\n    /* \"#utility.yul\":2892:2936   */\n  add\n    /* \"#utility.yul\":3089:3091   */\n  0x20\n    /* \"#utility.yul\":3077:3087   */\n  dup6\n    /* \"#utility.yul\":3074:3092   */\n  lt\n    /* \"#utility.yul\":3071:3120   */\n  iszero\n  tag_108\n  jumpi\n    /* \"#utility.yul\":3110:3118   */\n  dup2\n    /* \"#utility.yul\":3095:3118   */\n  swap1\n  pop\n    /* \"#utility.yul\":3071:3120   */\ntag_108:\n    /* \"#utility.yul\":3133:3213   */\n  tag_109\n    /* \"#utility.yul\":3189:3211   */\n  tag_110\n    /* \"#utility.yul\":3207:3210   */\n  dup6\n    /* \"#utility.yul\":3189:3211   */\n  tag_42\n  jump\t// in\ntag_110:\n    /* \"#utility.yul\":3179:3187   */\n  dup4\n    /* \"#utility.yul\":3175:3212   */\n  add\n    /* \"#utility.yul\":3162:3173   */\n  dup3\n    /* \"#utility.yul\":3133:3213   */\n  tag_52\n  jump\t// in\ntag_109:\n    /* \"#utility.yul\":2792:3223   */\n  pop\n  pop\n    /* \"#utility.yul\":2777:3223   */\ntag_105:\n    /* \"#utility.yul\":2687:3230   */\n  pop\n  pop\n  pop\n  jump\t// out\n    /* \"#utility.yul\":3236:3353   */\ntag_54:\n    /* \"#utility.yul\":3290:3298   */\n  0x00\n    /* \"#utility.yul\":3340:3345   */\n  dup3\n    /* \"#utility.yul\":3334:3338   */\n  dup3\n    /* \"#utility.yul\":3330:3346   */\n  shr\n    /* \"#utility.yul\":3309:3346   */\n  swap1\n  pop\n    /* \"#utility.yul\":3236:3353   */\n  swap3\n  swap2\n  pop\n  pop\n  jump\t// out\n    /* \"#utility.yul\":3359:3528   */\ntag_55:\n    /* \"#utility.yul\":3403:3409   */\n  0x00\n    /* \"#utility.yul\":3436:3487   */\n  tag_113\n    /* \"#utility.yul\":3484:3485   */\n  0x00\n    /* \"#utility.yul\":3480:3486   */\n  not\n    /* \"#utility.yul\":3472:3477   */\n  dup5\n    /* \"#utility.yul\":3469:3470   */\n  0x08\n    /* \"#utility.yul\":3465:3478   */\n  mul\n    /* \"#utility.yul\":3436:3487   */\n  tag_54\n  jump\t// in\ntag_113:\n    /* \"#utility.yul\":3432:3488   */\n  not\n    /* \"#utility.yul\":3517:3521   */\n  dup1\n    /* \"#utility.yul\":3511:3515   */\n  dup4\n    /* \"#utility.yul\":3507:3522   */\n  and\n    /* \"#utility.yul\":3497:3522   */\n  swap2\n  pop\n    /* \"#utility.yul\":3410:3528   */\n  pop\n    /* \"#utility.yul\":3359:3528   */\n  swap3\n  swap2\n  pop\n  pop\n  jump\t// out\n    /* \"#utility.yul\":3533:3828   */\ntag_56:\n    /* \"#utility.yul\":3609:3613   */\n  0x00\n    /* \"#utility.yul\":3755:3784   */\n  tag_115\n    /* \"#utility.yul\":3780:3783   */\n  dup4\n    /* \"#utility.yul\":3774:3778   */\n  dup4\n    /* \"#utility.yul\":3755:3784   */\n  tag_55\n  jump\t// in\ntag_115:\n    /* \"#utility.yul\":3747:3784   */\n  swap2\n  pop\n    /* \"#utility.yul\":3817:3820   */\n  dup3\n    /* \"#utility.yul\":3814:3815   */\n  0x02\n    /* \"#utility.yul\":3810:3821   */\n  mul\n    /* \"#utility.yul\":3804:3808   */\n  dup3\n    /* \"#utility.yul\":3801:3822   */\n  or\n    /* \"#utility.yul\":3793:3822   */\n  swap1\n  pop\n    /* \"#utility.yul\":3533:3828   */\n  swap3\n  swap2\n  pop\n  pop\n  jump\t// out\n    /* \"#utility.yul\":3833:5228   */\ntag_8:\n    /* \"#utility.yul\":3950:3987   */\n  tag_117\n    /* \"#utility.yul\":3983:3986   */\n  dup3\n    /* \"#utility.yul\":3950:3987   */\n  tag_37\n  jump\t// in\ntag_117:\n    /* \"#utility.yul\":4052:4070   */\n  0xffffffffffffffff\n    /* \"#utility.yul\":4044:4050   */\n  dup2\n    /* \"#utility.yul\":4041:4071   */\n  gt\n    /* \"#utility.yul\":4038:4094   */\n  iszero\n  tag_118\n  jumpi\n    /* \"#utility.yul\":4074:4092   */\n  tag_119\n  tag_38\n  jump\t// in\ntag_119:\n    /* \"#utility.yul\":4038:4094   */\ntag_118:\n    /* \"#utility.yul\":4118:4156   */\n  tag_120\n    /* \"#utility.yul\":4150:4154   */\n  dup3\n    /* \"#utility.yul\":4144:4155   */\n  sload\n    /* \"#utility.yul\":4118:4156   */\n  tag_40\n  jump\t// in\ntag_120:\n    /* \"#utility.yul\":4203:4270   */\n  tag_121\n    /* \"#utility.yul\":4263:4269   */\n  dup3\n    /* \"#utility.yul\":4255:4261   */\n  dup3\n    /* \"#utility.yul\":4249:4253   */\n  dup6\n    /* \"#utility.yul\":4203:4270   */\n  tag_53\n  jump\t// in\ntag_121:\n    /* \"#utility.yul\":4297:4298   */\n  0x00\n    /* \"#utility.yul\":4321:4325   */\n  0x20\n    /* \"#utility.yul\":4308:4325   */\n  swap1\n  pop\n    /* \"#utility.yul\":4353:4355   */\n  0x1f\n    /* \"#utility.yul\":4345:4351   */\n  dup4\n    /* \"#utility.yul\":4342:4356   */\n  gt\n    /* \"#utility.yul\":4370:4371   */\n  0x01\n    /* \"#utility.yul\":4365:4983   */\n  dup2\n  eq\n  tag_123\n  jumpi\n    /* \"#utility.yul\":5027:5028   */\n  0x00\n    /* \"#utility.yul\":5044:5050   */\n  dup5\n    /* \"#utility.yul\":5041:5118   */\n  iszero\n  tag_124\n  jumpi\n    /* \"#utility.yul\":5093:5102   */\n  dup3\n    /* \"#utility.yul\":5088:5091   */\n  dup8\n    /* \"#utility.yul\":5084:5103   */\n  add\n    /* \"#utility.yul\":5078:5104   */\n  mload\n    /* \"#utility.yul\":5069:5104   */\n  swap1\n  pop\n    /* \"#utility.yul\":5041:5118   */\ntag_124:\n    /* \"#utility.yul\":5144:5211   */\n  tag_125\n    /* \"#utility.yul\":5204:5210   */\n  dup6\n    /* \"#utility.yul\":5197:5202   */\n  dup3\n    /* \"#utility.yul\":5144:5211   */\n  tag_56\n  jump\t// in\ntag_125:\n    /* \"#utility.yul\":5138:5142   */\n  dup7\n    /* \"#utility.yul\":5131:5212   */\n  sstore\n    /* \"#utility.yul\":5000:5222   */\n  pop\n    /* \"#utility.yul\":4335:5222   */\n  jump(tag_122)\n    /* \"#utility.yul\":4365:4983   */\ntag_123:\n    /* \"#utility.yul\":4417:4421   */\n  0x1f\n    /* \"#utility.yul\":4413:4422   */\n  not\n    /* \"#utility.yul\":4405:4411   */\n  dup5\n    /* \"#utility.yul\":4401:4423   */\n  and\n    /* \"#utility.yul\":4451:4488   */\n  tag_126\n    /* \"#utility.yul\":4483:4487   */\n  dup7\n    /* \"#utility.yul\":4451:4488   */\n  tag_41\n  jump\t// in\ntag_126:\n    /* \"#utility.yul\":4510:4511   */\n  0x00\n    /* \"#utility.yul\":4524:4732   */\ntag_127:\n    /* \"#utility.yul\":4538:4545   */\n  dup3\n    /* \"#utility.yul\":4535:4536   */\n  dup2\n    /* \"#utility.yul\":4532:4546   */\n  lt\n    /* \"#utility.yul\":4524:4732   */\n  iszero\n  tag_129\n  jumpi\n    /* \"#utility.yul\":4617:4626   */\n  dup5\n    /* \"#utility.yul\":4612:4615   */\n  dup10\n    /* \"#utility.yul\":4608:4627   */\n  add\n    /* \"#utility.yul\":4602:4628   */\n  mload\n    /* \"#utility.yul\":4594:4600   */\n  dup3\n    /* \"#utility.yul\":4587:4629   */\n  sstore\n    /* \"#utility.yul\":4668:4669   */\n  0x01\n    /* \"#utility.yul\":4660:4666   */\n  dup3\n    /* \"#utility.yul\":4656:4670   */\n  add\n    /* \"#utility.yul\":4646:4670   */\n  swap2\n  pop\n    /* \"#utility.yul\":4715:4717   */\n  0x20\n    /* \"#utility.yul\":4704:4713   */\n  dup6\n    /* \"#utility.yul\":4700:4718   */\n  add\n    /* \"#utility.yul\":4687:4718   */\n  swap5\n  pop\n    /* \"#utility.yul\":4561:4565   */\n  0x20\n    /* \"#utility.yul\":4558:4559   */\n  dup2\n    /* \"#utility.yul\":4554:4566   */\n  add\n    /* \"#utility.yul\":4549:4566   */\n  swap1\n  pop\n    /* \"#utility.yul\":4524:4732   */\n  jump(tag_127)\ntag_129:\n    /* \"#utility.yul\":4760:4766   */\n  dup7\n    /* \"#utility.yul\":4751:4758   */\n  dup4\n    /* \"#utility.yul\":4748:4767   */\n  lt\n    /* \"#utility.yul\":4745:4924   */\n  iszero\n  tag_130\n  jumpi\n    /* \"#utility.yul\":4818:4827   */\n  dup5\n    /* \"#utility.yul\":4813:4816   */\n  dup10\n    /* \"#utility.yul\":4809:4828   */\n  add\n    /* \"#utility.yul\":4803:4829   */\n  mload\n    /* \"#utility.yul\":4861:4909   */\n  tag_131\n    /* \"#utility.yul\":4903:4907   */\n  0x1f\n    /* \"#utility.yul\":4895:4901   */\n  dup10\n    /* \"#utility.yul\":4891:4908   */\n  and\n    /* \"#utility.yul\":4880:4889   */\n  dup3\n    /* \"#utility.yul\":4861:4909   */\n  tag_55\n  jump\t// in\ntag_131:\n    /* \"#utility.yul\":4853:4859   */\n  dup4\n    /* \"#utility.yul\":4846:4910   */\n  sstore\n    /* \"#utility.yul\":4768:4924   */\n  pop\n    /* \"#utility.yul\":4745:4924   */\ntag_130:\n    /* \"#utility.yul\":4970:4971   */\n  0x01\n    /* \"#utility.yul\":4966:4967   */\n  0x02\n    /* \"#utility.yul\":4958:4964   */\n  dup9\n    /* \"#utility.yul\":4954:4968   */\n  mul\n    /* \"#utility.yul\":4950:4972   */\n  add\n    /* \"#utility.yul\":4944:4948   */\n  dup9\n    /* \"#utility.yul\":4937:4973   */\n  sstore\n    /* \"#utility.yul\":4372:4983   */\n  pop\n  pop\n  pop\n    /* \"#utility.yul\":4335:5222   */\ntag_122:\n  pop\n    /* \"#utility.yul\":3925:5228   */\n  pop\n  pop\n  pop\n    /* \"#utility.yul\":3833:5228   */\n  pop\n  pop\n  jump\t// out\n    /* \"#utility.yul\":5234:5311   */\ntag_57:\n    /* \"#utility.yul\":5271:5278   */\n  0x00\n    /* \"#utility.yul\":5300:5305   */\n  dup2\n    /* \"#utility.yul\":5289:5305   */\n  swap1\n  pop\n    /* \"#utility.yul\":5234:5311   */\n  swap2\n  swap1\n  pop\n  jump\t// out\n    /* \"#utility.yul\":5317:5435   */\ntag_58:\n    /* \"#utility.yul\":5404:5428   */\n  tag_134\n    /* \"#utility.yul\":5422:5427   */\n  dup2\n    /* \"#utility.yul\":5404:5428   */\n  tag_57\n  jump\t// in\ntag_134:\n    /* \"#utility.yul\":5399:5402   */\n  dup3\n    /* \"#utility.yul\":5392:5429   */\n  mstore\n    /* \"#utility.yul\":5317:5435   */\n  pop\n  pop\n  jump\t// out\n    /* \"#utility.yul\":5441:5559   */\ntag_59:\n    /* \"#utility.yul\":5528:5552   */\n  tag_136\n    /* \"#utility.yul\":5546:5551   */\n  dup2\n    /* \"#utility.yul\":5528:5552   */\n  tag_45\n  jump\t// in\ntag_136:\n    /* \"#utility.yul\":5523:5526   */\n  dup3\n    /* \"#utility.yul\":5516:5553   */\n  mstore\n    /* \"#utility.yul\":5441:5559   */\n  pop\n  pop\n  jump\t// out\n    /* \"#utility.yul\":5565:5691   */\ntag_60:\n    /* \"#utility.yul\":5602:5609   */\n  0x00\n    /* \"#utility.yul\":5642:5684   */\n  0xffffffffffffffffffffffffffffffffffffffff\n    /* \"#utility.yul\":5635:5640   */\n  dup3\n    /* \"#utility.yul\":5631:5685   */\n  and\n    /* \"#utility.yul\":5620:5685   */\n  swap1\n  pop\n    /* \"#utility.yul\":5565:5691   */\n  swap2\n  swap1\n  pop\n  jump\t// out\n    /* \"#utility.yul\":5697:5793   */\ntag_61:\n    /* \"#utility.yul\":5734:5741   */\n  0x00\n    /* \"#utility.yul\":5763:5787   */\n  tag_139\n    /* \"#utility.yul\":5781:5786   */\n  dup3\n    /* \"#utility.yul\":5763:5787   */\n  tag_60\n  jump\t// in\ntag_139:\n    /* \"#utility.yul\":5752:5787   */\n  swap1\n  pop\n    /* \"#utility.yul\":5697:5793   */\n  swap2\n  swap1\n  pop\n  jump\t// out\n    /* \"#utility.yul\":5799:5917   */\ntag_62:\n    /* \"#utility.yul\":5886:5910   */\n  tag_141\n    /* \"#utility.yul\":5904:5909   */\n  dup2\n    /* \"#utility.yul\":5886:5910   */\n  tag_61\n  jump\t// in\ntag_141:\n    /* \"#utility.yul\":5881:5884   */\n  dup3\n    /* \"#utility.yul\":5874:5911   */\n  mstore\n    /* \"#utility.yul\":5799:5917   */\n  pop\n  pop\n  jump\t// out\n    /* \"#utility.yul\":5923:6587   */\ntag_29:\n    /* \"#utility.yul\":6128:6132   */\n  0x00\n    /* \"#utility.yul\":6166:6169   */\n  0xa0\n    /* \"#utility.yul\":6155:6164   */\n  dup3\n    /* \"#utility.yul\":6151:6170   */\n  add\n    /* \"#utility.yul\":6143:6170   */\n  swap1\n  pop\n    /* \"#utility.yul\":6180:6251   */\n  tag_143\n    /* \"#utility.yul\":6248:6249   */\n  0x00\n    /* \"#utility.yul\":6237:6246   */\n  dup4\n    /* \"#utility.yul\":6233:6250   */\n  add\n    /* \"#utility.yul\":6224:6230   */\n  dup9\n    /* \"#utility.yul\":6180:6251   */\n  tag_58\n  jump\t// in\ntag_143:\n    /* \"#utility.yul\":6261:6333   */\n  tag_144\n    /* \"#utility.yul\":6329:6331   */\n  0x20\n    /* \"#utility.yul\":6318:6327   */\n  dup4\n    /* \"#utility.yul\":6314:6332   */\n  add\n    /* \"#utility.yul\":6305:6311   */\n  dup8\n    /* \"#utility.yul\":6261:6333   */\n  tag_58\n  jump\t// in\ntag_144:\n    /* \"#utility.yul\":6343:6415   */\n  tag_145\n    /* \"#utility.yul\":6411:6413   */\n  0x40\n    /* \"#utility.yul\":6400:6409   */\n  dup4\n    /* \"#utility.yul\":6396:6414   */\n  add\n    /* \"#utility.yul\":6387:6393   */\n  dup7\n    /* \"#utility.yul\":6343:6415   */\n  tag_58\n  jump\t// in\ntag_145:\n    /* \"#utility.yul\":6425:6497   */\n  tag_146\n    /* \"#utility.yul\":6493:6495   */\n  0x60\n    /* \"#utility.yul\":6482:6491   */\n  dup4\n    /* \"#utility.yul\":6478:6496   */\n  add\n    /* \"#utility.yul\":6469:6475   */\n  dup6\n    /* \"#utility.yul\":6425:6497   */\n  tag_59\n  jump\t// in\ntag_146:\n    /* \"#utility.yul\":6507:6580   */\n  tag_147\n    /* \"#utility.yul\":6575:6578   */\n  0x80\n    /* \"#utility.yul\":6564:6573   */\n  dup4\n    /* \"#utility.yul\":6560:6579   */\n  add\n    /* \"#utility.yul\":6551:6557   */\n  dup5\n    /* \"#utility.yul\":6507:6580   */\n  tag_62\n  jump\t// in\ntag_147:\n    /* \"#utility.yul\":5923:6587   */\n  swap7\n  swap6\n  pop\n  pop\n  pop\n  pop\n  pop\n  pop\n  jump\t// out\n    /* \"#utility.yul\":6593:6762   */\ntag_63:\n    /* \"#utility.yul\":6677:6688   */\n  0x00\n    /* \"#utility.yul\":6711:6717   */\n  dup3\n    /* \"#utility.yul\":6706:6709   */\n  dup3\n    /* \"#utility.yul\":6699:6718   */\n  mstore\n    /* \"#utility.yul\":6751:6755   */\n  0x20\n    /* \"#utility.yul\":6746:6749   */\n  dup3\n    /* \"#utility.yul\":6742:6756   */\n  add\n    /* \"#utility.yul\":6727:6756   */\n  swap1\n  pop\n    /* \"#utility.yul\":6593:6762   */\n  swap3\n  swap2\n  pop\n  pop\n  jump\t// out\n    /* \"#utility.yul\":6768:6907   */\ntag_64:\n    /* \"#utility.yul\":6857:6863   */\n  dup3\n    /* \"#utility.yul\":6852:6855   */\n  dup2\n    /* \"#utility.yul\":6847:6850   */\n  dup4\n    /* \"#utility.yul\":6841:6864   */\n  mcopy\n    /* \"#utility.yul\":6898:6899   */\n  0x00\n    /* \"#utility.yul\":6889:6895   */\n  dup4\n    /* \"#utility.yul\":6884:6887   */\n  dup4\n    /* \"#utility.yul\":6880:6896   */\n  add\n    /* \"#utility.yul\":6873:6900   */\n  mstore\n    /* \"#utility.yul\":6768:6907   */\n  pop\n  pop\n  pop\n  jump\t// out\n    /* \"#utility.yul\":6913:7015   */\ntag_65:\n    /* \"#utility.yul\":6954:6960   */\n  0x00\n    /* \"#utility.yul\":7005:7007   */\n  0x1f\n    /* \"#utility.yul\":7001:7008   */\n  not\n    /* \"#utility.yul\":6996:6998   */\n  0x1f\n    /* \"#utility.yul\":6989:6994   */\n  dup4\n    /* \"#utility.yul\":6985:6999   */\n  add\n    /* \"#utility.yul\":6981:7009   */\n  and\n    /* \"#utility.yul\":6971:7009   */\n  swap1\n  pop\n    /* \"#utility.yul\":6913:7015   */\n  swap2\n  swap1\n  pop\n  jump\t// out\n    /* \"#utility.yul\":7021:7398   */\ntag_66:\n    /* \"#utility.yul\":7109:7112   */\n  0x00\n    /* \"#utility.yul\":7137:7176   */\n  tag_152\n    /* \"#utility.yul\":7170:7175   */\n  dup3\n    /* \"#utility.yul\":7137:7176   */\n  tag_37\n  jump\t// in\ntag_152:\n    /* \"#utility.yul\":7192:7263   */\n  tag_153\n    /* \"#utility.yul\":7256:7262   */\n  dup2\n    /* \"#utility.yul\":7251:7254   */\n  dup6\n    /* \"#utility.yul\":7192:7263   */\n  tag_63\n  jump\t// in\ntag_153:\n    /* \"#utility.yul\":7185:7263   */\n  swap4\n  pop\n    /* \"#utility.yul\":7272:7337   */\n  tag_154\n    /* \"#utility.yul\":7330:7336   */\n  dup2\n    /* \"#utility.yul\":7325:7328   */\n  dup6\n    /* \"#utility.yul\":7318:7322   */\n  0x20\n    /* \"#utility.yul\":7311:7316   */\n  dup7\n    /* \"#utility.yul\":7307:7323   */\n  add\n    /* \"#utility.yul\":7272:7337   */\n  tag_64\n  jump\t// in\ntag_154:\n    /* \"#utility.yul\":7362:7391   */\n  tag_155\n    /* \"#utility.yul\":7384:7390   */\n  dup2\n    /* \"#utility.yul\":7362:7391   */\n  tag_65\n  jump\t// in\ntag_155:\n    /* \"#utility.yul\":7357:7360   */\n  dup5\n    /* \"#utility.yul\":7353:7392   */\n  add\n    /* \"#utility.yul\":7346:7392   */\n  swap2\n  pop\n    /* \"#utility.yul\":7113:7398   */\n  pop\n    /* \"#utility.yul\":7021:7398   */\n  swap3\n  swap2\n  pop\n  pop\n  jump\t// out\n    /* \"#utility.yul\":7404:7717   */\ntag_33:\n    /* \"#utility.yul\":7517:7521   */\n  0x00\n    /* \"#utility.yul\":7555:7557   */\n  0x20\n    /* \"#utility.yul\":7544:7553   */\n  dup3\n    /* \"#utility.yul\":7540:7558   */\n  add\n    /* \"#utility.yul\":7532:7558   */\n  swap1\n  pop\n    /* \"#utility.yul\":7604:7613   */\n  dup2\n    /* \"#utility.yul\":7598:7602   */\n  dup2\n    /* \"#utility.yul\":7594:7614   */\n  sub\n    /* \"#utility.yul\":7590:7591   */\n  0x00\n    /* \"#utility.yul\":7579:7588   */\n  dup4\n    /* \"#utility.yul\":7575:7592   */\n  add\n    /* \"#utility.yul\":7568:7615   */\n  mstore\n    /* \"#utility.yul\":7632:7710   */\n  tag_157\n    /* \"#utility.yul\":7705:7709   */\n  dup2\n    /* \"#utility.yul\":7696:7702   */\n  dup5\n    /* \"#utility.yul\":7632:7710   */\n  tag_66\n  jump\t// in\ntag_157:\n    /* \"#utility.yul\":7624:7710   */\n  swap1\n  pop\n    /* \"#utility.yul\":7404:7717   */\n  swap3\n  swap2\n  pop\n  pop\n  jump\t// out\n    /* \"#utility.yul\":7723:7821   */\ntag_67:\n    /* \"#utility.yul\":7774:7780   */\n  0x00\n    /* \"#utility.yul\":7808:7813   */\n  dup2\n    /* \"#utility.yul\":7802:7814   */\n  mload\n    /* \"#utility.yul\":7792:7814   */\n  swap1\n  pop\n    /* \"#utility.yul\":7723:7821   */\n  swap2\n  swap1\n  pop\n  jump\t// out\n    /* \"#utility.yul\":7827:7943   */\ntag_68:\n    /* \"#utility.yul\":7878:7882   */\n  0x00\n    /* \"#utility.yul\":7901:7904   */\n  dup2\n    /* \"#utility.yul\":7893:7904   */\n  swap1\n  pop\n    /* \"#utility.yul\":7931:7935   */\n  0x20\n    /* \"#utility.yul\":7926:7929   */\n  dup3\n    /* \"#utility.yul\":7922:7936   */\n  add\n    /* \"#utility.yul\":7914:7936   */\n  swap1\n  pop\n    /* \"#utility.yul\":7827:7943   */\n  swap2\n  swap1\n  pop\n  jump\t// out\n    /* \"#utility.yul\":7949:8103   */\ntag_69:\n    /* \"#utility.yul\":7992:8003   */\n  0x00\n    /* \"#utility.yul\":8028:8057   */\n  tag_161\n    /* \"#utility.yul\":8052:8055   */\n  dup3\n    /* \"#utility.yul\":8046:8056   */\n  mload\n    /* \"#utility.yul\":8028:8057   */\n  tag_57\n  jump\t// in\ntag_161:\n    /* \"#utility.yul\":8091:8096   */\n  dup1\n    /* \"#utility.yul\":8067:8096   */\n  swap2\n  pop\n    /* \"#utility.yul\":8004:8103   */\n  pop\n    /* \"#utility.yul\":7949:8103   */\n  swap2\n  swap1\n  pop\n  jump\t// out\n    /* \"#utility.yul\":8109:8703   */\ntag_35:\n    /* \"#utility.yul\":8193:8198   */\n  0x00\n    /* \"#utility.yul\":8224:8262   */\n  tag_163\n    /* \"#utility.yul\":8256:8261   */\n  dup3\n    /* \"#utility.yul\":8224:8262   */\n  tag_67\n  jump\t// in\ntag_163:\n    /* \"#utility.yul\":8287:8292   */\n  dup3\n    /* \"#utility.yul\":8314:8354   */\n  tag_164\n    /* \"#utility.yul\":8348:8353   */\n  dup5\n    /* \"#utility.yul\":8314:8354   */\n  tag_68\n  jump\t// in\ntag_164:\n    /* \"#utility.yul\":8302:8354   */\n  swap1\n  pop\n    /* \"#utility.yul\":8373:8408   */\n  tag_165\n    /* \"#utility.yul\":8399:8407   */\n  dup2\n    /* \"#utility.yul\":8373:8408   */\n  tag_69\n  jump\t// in\ntag_165:\n    /* \"#utility.yul\":8364:8408   */\n  swap3\n  pop\n    /* \"#utility.yul\":8432:8434   */\n  0x20\n    /* \"#utility.yul\":8424:8430   */\n  dup3\n    /* \"#utility.yul\":8421:8435   */\n  lt\n    /* \"#utility.yul\":8418:8696   */\n  iszero\n  tag_166\n  jumpi\n    /* \"#utility.yul\":8503:8672   */\n  tag_167\n    /* \"#utility.yul\":8588:8654   */\n  0xffffffffffffffffffffffffffffffffffffffffffffffffffffffffffffffff\n    /* \"#utility.yul\":8558:8564   */\n  dup4\n    /* \"#utility.yul\":8554:8556   */\n  0x20\n    /* \"#utility.yul\":8550:8565   */\n  sub\n    /* \"#utility.yul\":8547:8548   */\n  0x08\n    /* \"#utility.yul\":8543:8566   */\n  mul\n    /* \"#utility.yul\":8503:8672   */\n  tag_43\n  jump\t// in\ntag_167:\n    /* \"#utility.yul\":8480:8485   */\n  dup4\n    /* \"#utility.yul\":8459:8686   */\n  and\n    /* \"#utility.yul\":8450:8686   */\n  swap3\n  pop\n    /* \"#utility.yul\":8418:8696   */\ntag_166:\n    /* \"#utility.yul\":8199:8703   */\n  pop\n  pop\n    /* \"#utility.yul\":8109:8703   */\n  swap2\n  swap1\n  pop\n  jump\t// out\n    /* \"src/Hulio.sol\":233:1855  contract Hulio is ERC20Permit {... */\ntag_18:\n  mload(0x80)\n  mload(0xa0)\n  mload(0xc0)\n  mload(0xe0)\n  mload(0x0100)\n  mload(0x0120)\n  mload(0x0140)\n  codecopy(0x00, dataOffset(sub_0), dataSize(sub_0))\n  0x00\n  assignImmutable(\"0x0576ac738f6eb5dec558d18c8c4e9cf880acab01cda20f603a3d5950554aeaa1\")\n  0x00\n  assignImmutable(\"0xe64fdd85c4abae7e17a3b10cd3c6103a9078ecff4005141468b48a65e9465227\")\n  0x00\n  assignImmutable(\"0xd745e4bbce3c217445e330bc909a038062e0d634734834832d66437076f9dbe0\")\n  0x00\n  assignImmutable(\"0xfa139e0a4d7fbc5ae6f4faedf7906c4e534aedb3537f8e2acf261d5a583cbcdb\")\n  0x00\n  assignImmutable(\"0xabe81aba69caf56d9ad05a099a77be906867489058d7b123f1c5d7f3daf0f7cb\")\n  0x00\n  assignImmutable(\"0xb1d581e758c3ac2789b5f345ebac061bf856141aca0183e5321140fe641707f8\")\n  0x00\n  assignImmutable(\"0xd5d4d8ff606dd724e00b29cb5d74ae94fd0e1e5922b3936ddb7fb7747e1fb956\")\n  return(0x00, dataSize(sub_0))\nstop\n\nsub_0: assembly {\n        /* \"src/Hulio.sol\":233:1855  contract Hulio is ERC20Permit {... */\n      mstore(0x40, 0x80)\n      callvalue\n      dup1\n      iszero\n      tag_1\n      jumpi\n      0x00\n      dup1\n      revert\n    tag_1:\n      pop\n      jumpi(tag_2, lt(calldatasize, 0x04))\n      shr(0xe0, calldataload(0x00))\n      dup1\n      0x4000aea0\n      gt\n      tag_18\n      jumpi\n      dup1\n      0x95d89b41\n      gt\n      tag_19\n      jumpi\n      dup1\n      0x95d89b41\n      eq\n      tag_14\n      jumpi\n      dup1\n      0xa9059cbb\n      eq\n      tag_15\n      jumpi\n      dup1\n      0xd505accf\n      eq\n      tag_16\n      jumpi\n      dup1\n      0xdd62ed3e\n      eq\n      tag_17\n      jumpi\n      jump(tag_2)\n    tag_19:\n      dup1\n      0x4000aea0\n      eq\n      tag_10\n      jumpi\n      dup1\n      0x70a08231\n      eq\n      tag_11\n      jumpi\n      dup1\n      0x7ecebe00\n      eq\n      tag_12\n      jumpi\n      dup1\n      0x84b0196e\n      eq\n      tag_13\n      jumpi\n      jump(tag_2)\n    tag_18:\n      dup1\n      0x18160ddd\n      gt\n      tag_20\n      jumpi\n      dup1\n      0x18160ddd\n      eq\n      tag_6\n      jumpi\n      dup1\n      0x23b872dd\n      eq\n      tag_7\n      jumpi\n      dup1\n      0x313ce567\n      eq\n      tag_8\n      jumpi\n      dup1\n      0x3644e515\n      eq\n      tag_9\n      jumpi\n      jump(tag_2)\n    tag_20:\n      dup1\n      0x06fdde03\n      eq\n      tag_3\n      jumpi\n      dup1\n      0x095ea7b3\n      eq\n      tag_4\n      jumpi\n      dup1\n      0x1249c58b\n      eq\n      tag_5\n      jumpi\n    tag_2:\n      0x00\n      dup1\n      revert\n        /* \"lib/openzeppelin-contracts/contracts/token/ERC20/ERC20.sol\":2074:2163  function name() public view virtual returns (string memory) {... */\n    tag_3:\n      tag_21\n      tag_22\n      jump\t// in\n    tag_21:\n      mload(0x40)\n      tag_23\n      swap2\n      swap1\n      tag_24\n      jump\t// in\n    tag_23:\n      mload(0x40)\n      dup1\n      swap2\n      sub\n      swap1\n      return\n        /* \"lib/openzeppelin-contracts/contracts/token/ERC20/ERC20.sol\":4293:4479  function approve(address spender, uint256 value) public virtual returns (bool) {... */\n    tag_4:\n      tag_25\n      0x04\n      dup1\n      calldatasize\n      sub\n      dup2\n      add\n      swap1\n      tag_26\n      swap2\n      swap1\n      tag_27\n      jump\t// in\n    tag_26:\n      tag_28\n      jump\t// in\n    tag_25:\n      mload(0x40)\n      tag_29\n      swap2\n      swap1\n      tag_30\n      jump\t// in\n    tag_29:\n      mload(0x40)\n      dup1\n      swap2\n      sub\n      swap1\n      return\n        /* \"src/Hulio.sol\":593:661  function mint() external {... */\n    tag_5:\n      tag_31\n      tag_32\n      jump\t// in\n    tag_31:\n      stop\n        /* \"lib/openzeppelin-contracts/contracts/token/ERC20/ERC20.sol\":3144:3241  function totalSupply() public view virtual returns (uint256) {... */\n    tag_6:\n      tag_33\n      tag_34\n      jump\t// in\n    tag_33:\n      mload(0x40)\n      tag_35\n      swap2\n      swap1\n      tag_36\n      jump\t// in\n    tag_35:\n      mload(0x40)\n      dup1\n      swap2\n      sub\n      swap1\n      return\n        /* \"lib/openzeppelin-contracts/contracts/token/ERC20/ERC20.sol\":5039:5283  function transferFrom(address from, address to, uint256 value) public virtual returns (bool) {... */\n    tag_7:\n      tag_37\n      0x04\n      dup1\n      calldatasize\n      sub\n      dup2\n      add\n      swap1\n      tag_38\n      swap2\n      swap1\n      tag_39\n      jump\t// in\n    tag_38:\n      tag_40\n      jump\t// in\n    tag_37:\n      mload(0x40)\n      tag_41\n      swap2\n      swap1\n      tag_30\n      jump\t// in\n    tag_41:\n      mload(0x40)\n      dup1\n      swap2\n      sub\n      swap1\n      return\n        /* \"lib/openzeppelin-contracts/contracts/token/ERC20/ERC20.sol\":3002:3084  function decimals() public view virtual returns (uint8) {... */\n    tag_8:\n      tag_42\n      tag_43\n      jump\t// in\n    tag_42:\n      mload(0x40)\n      tag_44\n      swap2\n      swap1\n      tag_45\n      jump\t// in\n    tag_44:\n      mload(0x40)\n      dup1\n      swap2\n      sub\n      swap1\n      return\n        /* \"lib/openzeppelin-contracts/contracts/token/ERC20/extensions/ERC20Permit.sol\":2656:2768  function DOMAIN_SEPARATOR() external view virtual returns (bytes32) {... */\n    tag_9:\n      tag_46\n      tag_47\n      jump\t// in\n    tag_46:\n      mload(0x40)\n      tag_48\n      swap2\n      swap1\n      tag_49\n      jump\t// in\n    tag_48:\n      mload(0x40)\n      dup1\n      swap2\n      sub\n      swap1\n      return\n        /* \"src/Hulio.sol\":737:1103  function transferAndCall(... */\n    tag_10:\n      tag_50\n      0x04\n      dup1\n      calldatasize\n      sub\n      dup2\n      add\n      swap1\n      tag_51\n      swap2\n      swap1\n      tag_52\n      jump\t// in\n    tag_51:\n      tag_53\n      jump\t// in\n    tag_50:\n      mload(0x40)\n      tag_54\n      swap2\n      swap1\n      tag_30\n      jump\t// in\n    tag_54:\n      mload(0x40)\n      dup1\n      swap2\n      sub\n      swap1\n      return\n        /* \"lib/openzeppelin-contracts/contracts/token/ERC20/ERC20.sol\":3299:3415  function balanceOf(address account) public view virtual returns (uint256) {... */\n    tag_11:\n      tag_55\n      0x04\n      dup1\n      calldatasize\n      sub\n      dup2\n      add\n      swap1\n      tag_56\n      swap2\n      swap1\n      tag_57\n      jump\t// in\n    tag_56:\n      tag_58\n      jump\t// in\n    tag_55:\n      mload(0x40)\n      tag_59\n      swap2\n      swap1\n      tag_36\n      jump\t// in\n    tag_59:\n      mload(0x40)\n      dup1\n      swap2\n      sub\n      swap1\n      return\n        /* \"lib/openzeppelin-contracts/contracts/token/ERC20/extensions/ERC20Permit.sol\":2406:2549  function nonces(address owner) public view virtual override(IERC20Permit, Nonces) returns (uint256) {... */\n    tag_12:\n      tag_60\n      0x04\n      dup1\n      calldatasize\n      sub\n      dup2\n      add\n      swap1\n      tag_61\n      swap2\n      swap1\n      tag_57\n      jump\t// in\n    tag_61:\n      tag_62\n      jump\t// in\n    tag_60:\n      mload(0x40)\n      tag_63\n      swap2\n      swap1\n      tag_36\n      jump\t// in\n    tag_63:\n      mload(0x40)\n      dup1\n      swap2\n      sub\n      swap1\n      return\n        /* \"lib/openzeppelin-contracts/contracts/utils/cryptography/EIP712.sol\":5144:5701  function eip712Domain()... */\n    tag_13:\n      tag_64\n      tag_65\n      jump\t// in\n    tag_64:\n      mload(0x40)\n      tag_66\n      swap8\n      swap7\n      swap6\n      swap5\n      swap4\n      swap3\n      swap2\n      swap1\n      tag_67\n      jump\t// in\n    tag_66:\n      mload(0x40)\n      dup1\n      swap2\n      sub\n      swap1\n      return\n        /* \"lib/openzeppelin-contracts/contracts/token/ERC20/ERC20.sol\":2276:2369  function symbol() public view virtual returns (string memory) {... */\n    tag_14:\n      tag_68\n      tag_69\n      jump\t// in\n    tag_68:\n      mload(0x40)\n      tag_70\n      swap2\n      swap1\n      tag_24\n      jump\t// in\n    tag_70:\n      mload(0x40)\n      dup1\n      swap2\n      sub\n      swap1\n      return\n        /* \"lib/openzeppelin-contracts/contracts/token/ERC20/ERC20.sol\":3610:3788  function transfer(address to, uint256 value) public virtual returns (bool) {... */\n    tag_15:\n      tag_71\n      0x04\n      dup1\n      calldatasize\n      sub\n      dup2\n      add\n      swap1\n      tag_72\n      swap2\n      swap1\n      tag_27\n      jump\t// in\n    tag_72:\n      tag_73\n      jump\t// in\n    tag_71:\n      mload(0x40)\n      tag_74\n      swap2\n      swap1\n      tag_30\n      jump\t// in\n    tag_74:\n      mload(0x40)\n      dup1\n      swap2\n      sub\n      swap1\n      return\n        /* \"lib/openzeppelin-contracts/contracts/token/ERC20/extensions/ERC20Permit.sol\":1680:2352  function permit(... */\n    tag_16:\n      tag_75\n      0x04\n      dup1\n      calldatasize\n      sub\n      dup2\n      add\n      swap1\n      tag_76\n      swap2\n      swap1\n      tag_77\n      jump\t// in\n    tag_76:\n      tag_78\n      jump\t// in\n    tag_75:\n      stop\n        /* \"lib/openzeppelin-contracts/contracts/token/ERC20/ERC20.sol\":3846:3986  function allowance(address owner, address spender) public view virtual returns (uint256) {... */\n    tag_17:\n      tag_79\n      0x04\n      dup1\n      calldatasize\n      sub\n      dup2\n      add\n      swap1\n      tag_80\n      swap2\n      swap1\n      tag_81\n      jump\t// in\n    tag_80:\n      tag_82\n      jump\t// in\n    tag_79:\n      mload(0x40)\n      tag_83\n      swap2\n      swap1\n      tag_36\n      jump\t// in\n    tag_83:\n      mload(0x40)\n      dup1\n      swap2\n      sub\n      swap1\n      return\n        /* \"lib/openzeppelin-contracts/contracts/token/ERC20/ERC20.sol\":2074:2163  function name() public view virtual returns (string memory) {... */\n    tag_22:\n        /* \"lib/openzeppelin-contracts/contracts/token/ERC20/ERC20.sol\":2119:2132  string memory */\n      0x60\n        /* \"lib/openzeppelin-contracts/contracts/token/ERC20/ERC20.sol\":2151:2156  _name */\n      0x03\n        /* \"lib/openzeppelin-contracts/contracts/token/ERC20/ERC20.sol\":2144:2156  return _name */\n      dup1\n      sload\n      tag_85\n      swap1\n      tag_86\n      jump\t// in\n    tag_85:\n      dup1\n      0x1f\n      add\n      0x20\n      dup1\n      swap2\n      div\n      mul\n      0x20\n      add\n      mload(0x40)\n      swap1\n      dup2\n      add\n      0x40\n      mstore\n      dup1\n      swap3\n      swap2\n      swap1\n      dup2\n      dup2\n      mstore\n      0x20\n      add\n      dup3\n      dup1\n      sload\n      tag_87\n      swap1\n      tag_86\n      jump\t// in\n    tag_87:\n      dup1\n      iszero\n      tag_88\n      jumpi\n      dup1\n      0x1f\n      lt\n      tag_89\n      jumpi\n      0x0100\n      dup1\n      dup4\n      sload\n      div\n      mul\n      dup4\n      mstore\n      swap2\n      0x20\n      add\n      swap2\n      jump(tag_88)\n    tag_89:\n      dup3\n      add\n      swap2\n      swap1\n      0x00\n      mstore\n      keccak256(0x00, 0x20)\n      swap1\n    tag_90:\n      dup2\n      sload\n      dup2\n      mstore\n      swap1\n      0x01\n      add\n      swap1\n      0x20\n      add\n      dup1\n      dup4\n      gt\n      tag_90\n      jumpi\n      dup3\n      swap1\n      sub\n      0x1f\n      and\n      dup3\n      add\n      swap2\n    tag_88:\n      pop\n      pop\n      pop\n      pop\n      pop\n      swap1\n      pop\n        /* \"lib/openzeppelin-contracts/contracts/token/ERC20/ERC20.sol\":2074:2163  function name() public view virtual returns (string memory) {... */\n      swap1\n      jump\t// out\n        /* \"lib/openzeppelin-contracts/contracts/token/ERC20/ERC20.sol\":4293:4479  function approve(address spender, uint256 value) public virtual returns (bool) {... */\n    tag_28:\n        /* \"lib/openzeppelin-contracts/contracts/token/ERC20/ERC20.sol\":4366:4370  bool */\n      0x00\n        /* \"lib/openzeppelin-contracts/contracts/token/ERC20/ERC20.sol\":4382:4395  address owner */\n      dup1\n        /* \"lib/openzeppelin-contracts/contracts/token/ERC20/ERC20.sol\":4398:4410  _msgSender() */\n      tag_92\n        /* \"lib/openzeppelin-contracts/contracts/token/ERC20/ERC20.sol\":4398:4408  _msgSender */\n      tag_93\n        /* \"lib/openzeppelin-contracts/contracts/token/ERC20/ERC20.sol\":4398:4410  _msgSender() */\n      jump\t// in\n    tag_92:\n        /* \"lib/openzeppelin-contracts/contracts/token/ERC20/ERC20.sol\":4382:4410  address owner = _msgSender() */\n      swap1\n      pop\n        /* \"lib/openzeppelin-contracts/contracts/token/ERC20/ERC20.sol\":4420:4451  _approve(owner, spender, value) */\n      tag_94\n        /* \"lib/openzeppelin-contracts/contracts/token/ERC20/ERC20.sol\":4429:4434  owner */\n      dup2\n        /* \"lib/openzeppelin-contracts/contracts/token/ERC20/ERC20.sol\":4436:4443  spender */\n      dup6\n        /* \"lib/openzeppelin-contracts/contracts/token/ERC20/ERC20.sol\":4445:4450  value */\n      dup6\n        /* \"lib/openzeppelin-contracts/contracts/token/ERC20/ERC20.sol\":4420:4428  _approve */\n      tag_95\n        /* \"lib/openzeppelin-contracts/contracts/token/ERC20/ERC20.sol\":4420:4451  _approve(owner, spender, value) */\n      jump\t// in\n    tag_94:\n        /* \"lib/openzeppelin-contracts/contracts/token/ERC20/ERC20.sol\":4468:4472  true */\n      0x01\n        /* \"lib/openzeppelin-contracts/contracts/token/ERC20/ERC20.sol\":4461:4472  return true */\n      swap2\n      pop\n      pop\n        /* \"lib/openzeppelin-contracts/contracts/token/ERC20/ERC20.sol\":4293:4479  function approve(address spender, uint256 value) public virtual returns (bool) {... */\n      swap3\n      swap2\n      pop\n      pop\n      jump\t// out\n        /* \"src/Hulio.sol\":593:661  function mint() external {... */\n    tag_32:\n        /* \"src/Hulio.sol\":628:654  _mint(msg.sender, 10 ** 9) */\n      tag_97\n        /* \"src/Hulio.sol\":634:644  msg.sender */\n      caller\n        /* \"src/Hulio.sol\":646:653  10 ** 9 */\n      0x3b9aca00\n        /* \"src/Hulio.sol\":628:633  _mint */\n      tag_98\n        /* \"src/Hulio.sol\":628:654  _mint(msg.sender, 10 ** 9) */\n      jump\t// in\n    tag_97:\n        /* \"src/Hulio.sol\":593:661  function mint() external {... */\n      jump\t// out\n        /* \"lib/openzeppelin-contracts/contracts/token/ERC20/ERC20.sol\":3144:3241  function totalSupply() public view virtual returns (uint256) {... */\n    tag_34:\n        /* \"lib/openzeppelin-contracts/contracts/token/ERC20/ERC20.sol\":3196:3203  uint256 */\n      0x00\n        /* \"lib/openzeppelin-contracts/contracts/token/ERC20/ERC20.sol\":3222:3234  _totalSupply */\n      sload(0x02)\n        /* \"lib/openzeppelin-contracts/contracts/token/ERC20/ERC20.sol\":3215:3234  return _totalSupply */\n      swap1\n      pop\n        /* \"lib/openzeppelin-contracts/contracts/token/ERC20/ERC20.sol\":3144:3241  function totalSupply() public view virtual returns (uint256) {... */\n      swap1\n      jump\t// out\n        /* \"lib/openzeppelin-contracts/contracts/token/ERC20/ERC20.sol\":5039:5283  function transferFrom(address from, address to, uint256 value) public virtual returns (bool) {... */\n    tag_40:\n        /* \"lib/openzeppelin-contracts/contracts/token/ERC20/ERC20.sol\":5126:5130  bool */\n      0x00\n        /* \"lib/openzeppelin-contracts/contracts/token/ERC20/ERC20.sol\":5142:5157  address spender */\n      dup1\n        /* \"lib/openzeppelin-contracts/contracts/token/ERC20/ERC20.sol\":5160:5172  _msgSender() */\n      tag_101\n        /* \"lib/openzeppelin-contracts/contracts/token/ERC20/ERC20.sol\":5160:5170  _msgSender */\n      tag_93\n        /* \"lib/openzeppelin-contracts/contracts/token/ERC20/ERC20.sol\":5160:5172  _msgSender() */\n      jump\t// in\n    tag_101:\n        /* \"lib/openzeppelin-contracts/contracts/token/ERC20/ERC20.sol\":5142:5172  address spender = _msgSender() */\n      swap1\n      pop\n        /* \"lib/openzeppelin-contracts/contracts/token/ERC20/ERC20.sol\":5182:5219  _spendAllowance(from, spender, value) */\n      tag_102\n        /* \"lib/openzeppelin-contracts/contracts/token/ERC20/ERC20.sol\":5198:5202  from */\n      dup6\n        /* \"lib/openzeppelin-contracts/contracts/token/ERC20/ERC20.sol\":5204:5211  spender */\n      dup3\n        /* \"lib/openzeppelin-contracts/contracts/token/ERC20/ERC20.sol\":5213:5218  value */\n      dup6\n        /* \"lib/openzeppelin-contracts/contracts/token/ERC20/ERC20.sol\":5182:5197  _spendAllowance */\n      tag_103\n        /* \"lib/openzeppelin-contracts/contracts/token/ERC20/ERC20.sol\":5182:5219  _spendAllowance(from, spender, value) */\n      jump\t// in\n    tag_102:\n        /* \"lib/openzeppelin-contracts/contracts/token/ERC20/ERC20.sol\":5229:5255  _transfer(from, to, value) */\n      tag_104\n        /* \"lib/openzeppelin-contracts/contracts/token/ERC20/ERC20.sol\":5239:5243  from */\n      dup6\n        /* \"lib/openzeppelin-contracts/contracts/token/ERC20/ERC20.sol\":5245:5247  to */\n      dup6\n        /* \"lib/openzeppelin-contracts/contracts/token/ERC20/ERC20.sol\":5249:5254  value */\n      dup6\n        /* \"lib/openzeppelin-contracts/contracts/token/ERC20/ERC20.sol\":5229:5238  _transfer */\n      tag_105\n        /* \"lib/openzeppelin-contracts/contracts/token/ERC20/ERC20.sol\":5229:5255  _transfer(from, to, value) */\n      jump\t// in\n    tag_104:\n        /* \"lib/openzeppelin-contracts/contracts/token/ERC20/ERC20.sol\":5272:5276  true */\n      0x01\n        /* \"lib/openzeppelin-contracts/contracts/token/ERC20/ERC20.sol\":5265:5276  return true */\n      swap2\n      pop\n      pop\n        /* \"lib/openzeppelin-contracts/contracts/token/ERC20/ERC20.sol\":5039:5283  function transferFrom(address from, address to, uint256 value) public virtual returns (bool) {... */\n      swap4\n      swap3\n      pop\n      pop\n      pop\n      jump\t// out\n        /* \"lib/openzeppelin-contracts/contracts/token/ERC20/ERC20.sol\":3002:3084  function decimals() public view virtual returns (uint8) {... */\n    tag_43:\n        /* \"lib/openzeppelin-contracts/contracts/token/ERC20/ERC20.sol\":3051:3056  uint8 */\n      0x00\n        /* \"lib/openzeppelin-contracts/contracts/token/ERC20/ERC20.sol\":3075:3077  18 */\n      0x12\n        /* \"lib/openzeppelin-contracts/contracts/token/ERC20/ERC20.sol\":3068:3077  return 18 */\n      swap1\n      pop\n        /* \"lib/openzeppelin-contracts/contracts/token/ERC20/ERC20.sol\":3002:3084  function decimals() public view virtual returns (uint8) {... */\n      swap1\n      jump\t// out\n        /* \"lib/openzeppelin-contracts/contracts/token/ERC20/extensions/ERC20Permit.sol\":2656:2768  function DOMAIN_SEPARATOR() external view virtual returns (bytes32) {... */\n    tag_47:\n        /* \"lib/openzeppelin-contracts/contracts/token/ERC20/extensions/ERC20Permit.sol\":2715:2722  bytes32 */\n      0x00\n        /* \"lib/openzeppelin-contracts/contracts/token/ERC20/extensions/ERC20Permit.sol\":2741:2761  _domainSeparatorV4() */\n      tag_108\n        /* \"lib/openzeppelin-contracts/contracts/token/ERC20/extensions/ERC20Permit.sol\":2741:2759  _domainSeparatorV4 */\n      tag_109\n        /* \"lib/openzeppelin-contracts/contracts/token/ERC20/extensions/ERC20Permit.sol\":2741:2761  _domainSeparatorV4() */\n      jump\t// in\n    tag_108:\n        /* \"lib/openzeppelin-contracts/contracts/token/ERC20/extensions/ERC20Permit.sol\":2734:2761  return _domainSeparatorV4() */\n      swap1\n      pop\n        /* \"lib/openzeppelin-contracts/contracts/token/ERC20/extensions/ERC20Permit.sol\":2656:2768  function DOMAIN_SEPARATOR() external view virtual returns (bytes32) {... */\n      swap1\n      jump\t// out\n        /* \"src/Hulio.sol\":737:1103  function transferAndCall(... */\n    tag_53:\n        /* \"src/Hulio.sol\":856:860  bool */\n      0x00\n        /* \"src/Hulio.sol\":899:918  transfer(to, value) */\n      tag_111\n        /* \"src/Hulio.sol\":908:910  to */\n      dup6\n        /* \"src/Hulio.sol\":912:917  value */\n      dup6\n        /* \"src/Hulio.sol\":899:907  transfer */\n      tag_73\n        /* \"src/Hulio.sol\":899:918  transfer(to, value) */\n      jump\t// in\n    tag_111:\n        /* \"src/Hulio.sol\":894:984  if (!transfer(to, value)) {... */\n      tag_112\n      jumpi\n        /* \"src/Hulio.sol\":963:965  to */\n      dup5\n        /* \"src/Hulio.sol\":967:972  value */\n      dup5\n        /* \"src/Hulio.sol\":941:973  ERC1363TransferFailed(to, value) */\n      mload(0x40)\n      0x231b03ae00000000000000000000000000000000000000000000000000000000\n      dup2\n      mstore\n      0x04\n      add\n      tag_113\n      swap3\n      swap2\n      swap1\n      tag_114\n      jump\t// in\n    tag_113:\n      mload(0x40)\n      dup1\n      swap2\n      sub\n      swap1\n      revert\n        /* \"src/Hulio.sol\":894:984  if (!transfer(to, value)) {... */\n    tag_112:\n        /* \"src/Hulio.sol\":1019:1074  _checkOnTransferReceived(_msgSender(), to, value, data) */\n      tag_115\n        /* \"src/Hulio.sol\":1044:1056  _msgSender() */\n      tag_116\n        /* \"src/Hulio.sol\":1044:1054  _msgSender */\n      tag_93\n        /* \"src/Hulio.sol\":1044:1056  _msgSender() */\n      jump\t// in\n    tag_116:\n        /* \"src/Hulio.sol\":1058:1060  to */\n      dup7\n        /* \"src/Hulio.sol\":1062:1067  value */\n      dup7\n        /* \"src/Hulio.sol\":1069:1073  data */\n      dup7\n      dup7\n        /* \"src/Hulio.sol\":1019:1074  _checkOnTransferReceived(_msgSender(), to, value, data) */\n      dup1\n      dup1\n      0x1f\n      add\n      0x20\n      dup1\n      swap2\n      div\n      mul\n      0x20\n      add\n      mload(0x40)\n      swap1\n      dup2\n      add\n      0x40\n      mstore\n      dup1\n      swap4\n      swap3\n      swap2\n      swap1\n      dup2\n      dup2\n      mstore\n      0x20\n      add\n      dup4\n      dup4\n      dup1\n      dup3\n      dup5\n      calldatacopy\n      0x00\n      dup2\n      dup5\n      add\n      mstore\n      not(0x1f)\n      0x1f\n      dup3\n      add\n      and\n      swap1\n      pop\n      dup1\n      dup4\n      add\n      swap3\n      pop\n      pop\n      pop\n      pop\n      pop\n      pop\n      pop\n        /* \"src/Hulio.sol\":1019:1043  _checkOnTransferReceived */\n      tag_117\n        /* \"src/Hulio.sol\":1019:1074  _checkOnTransferReceived(_msgSender(), to, value, data) */\n      jump\t// in\n    tag_115:\n        /* \"src/Hulio.sol\":1092:1096  true */\n      0x01\n        /* \"src/Hulio.sol\":1085:1096  return true */\n      swap1\n      pop\n        /* \"src/Hulio.sol\":737:1103  function transferAndCall(... */\n      swap5\n      swap4\n      pop\n      pop\n      pop\n      pop\n      jump\t// out\n        /* \"lib/openzeppelin-contracts/contracts/token/ERC20/ERC20.sol\":3299:3415  function balanceOf(address account) public view virtual returns (uint256) {... */\n    tag_58:\n        /* \"lib/openzeppelin-contracts/contracts/token/ERC20/ERC20.sol\":3364:3371  uint256 */\n      0x00\n        /* \"lib/openzeppelin-contracts/contracts/token/ERC20/ERC20.sol\":3390:3399  _balances */\n      dup1\n        /* \"lib/openzeppelin-contracts/contracts/token/ERC20/ERC20.sol\":3390:3408  _balances[account] */\n      0x00\n        /* \"lib/openzeppelin-contracts/contracts/token/ERC20/ERC20.sol\":3400:3407  account */\n      dup4\n        /* \"lib/openzeppelin-contracts/contracts/token/ERC20/ERC20.sol\":3390:3408  _balances[account] */\n      0xffffffffffffffffffffffffffffffffffffffff\n      and\n      0xffffffffffffffffffffffffffffffffffffffff\n      and\n      dup2\n      mstore\n      0x20\n      add\n      swap1\n      dup2\n      mstore\n      0x20\n      add\n      0x00\n      keccak256\n      sload\n        /* \"lib/openzeppelin-contracts/contracts/token/ERC20/ERC20.sol\":3383:3408  return _balances[account] */\n      swap1\n      pop\n        /* \"lib/openzeppelin-contracts/contracts/token/ERC20/ERC20.sol\":3299:3415  function balanceOf(address account) public view virtual returns (uint256) {... */\n      swap2\n      swap1\n      pop\n      jump\t// out\n        /* \"lib/openzeppelin-contracts/contracts/token/ERC20/extensions/ERC20Permit.sol\":2406:2549  function nonces(address owner) public view virtual override(IERC20Permit, Nonces) returns (uint256) {... */\n    tag_62:\n        /* \"lib/openzeppelin-contracts/contracts/token/ERC20/extensions/ERC20Permit.sol\":2497:2504  uint256 */\n      0x00\n        /* \"lib/openzeppelin-contracts/contracts/token/ERC20/extensions/ERC20Permit.sol\":2523:2542  super.nonces(owner) */\n      tag_120\n        /* \"lib/openzeppelin-contracts/contracts/token/ERC20/extensions/ERC20Permit.sol\":2536:2541  owner */\n      dup3\n        /* \"lib/openzeppelin-contracts/contracts/token/ERC20/extensions/ERC20Permit.sol\":2523:2535  super.nonces */\n      tag_121\n        /* \"lib/openzeppelin-contracts/contracts/token/ERC20/extensions/ERC20Permit.sol\":2523:2542  super.nonces(owner) */\n      jump\t// in\n    tag_120:\n        /* \"lib/openzeppelin-contracts/contracts/token/ERC20/extensions/ERC20Permit.sol\":2516:2542  return super.nonces(owner) */\n      swap1\n      pop\n        /* \"lib/openzeppelin-contracts/contracts/token/ERC20/extensions/ERC20Permit.sol\":2406:2549  function nonces(address owner) public view virtual override(IERC20Permit, Nonces) returns (uint256) {... */\n      swap2\n      swap1\n      pop\n      jump\t// out\n        /* \"lib/openzeppelin-contracts/contracts/utils/cryptography/EIP712.sol\":5144:5701  function eip712Domain()... */\n    tag_65:\n        /* \"lib/openzeppelin-contracts/contracts/utils/cryptography/EIP712.sol\":5242:5255  bytes1 fields */\n      0x00\n        /* \"lib/openzeppelin-contracts/contracts/utils/cryptography/EIP712.sol\":5269:5287  string memory name */\n      0x60\n        /* \"lib/openzeppelin-contracts/contracts/utils/cryptography/EIP712.sol\":5301:5322  string memory version */\n      dup1\n        /* \"lib/openzeppelin-contracts/contracts/utils/cryptography/EIP712.sol\":5336:5351  uint256 chainId */\n      0x00\n        /* \"lib/openzeppelin-contracts/contracts/utils/cryptography/EIP712.sol\":5365:5390  address verifyingContract */\n      dup1\n        /* \"lib/openzeppelin-contracts/contracts/utils/cryptography/EIP712.sol\":5404:5416  bytes32 salt */\n      0x00\n        /* \"lib/openzeppelin-contracts/contracts/utils/cryptography/EIP712.sol\":5430:5457  uint256[] memory extensions */\n      0x60\n        /* \"lib/openzeppelin-contracts/contracts/utils/cryptography/EIP712.sol\":5533:5546  _EIP712Name() */\n      tag_123\n        /* \"lib/openzeppelin-contracts/contracts/utils/cryptography/EIP712.sol\":5533:5544  _EIP712Name */\n      tag_124\n        /* \"lib/openzeppelin-contracts/contracts/utils/cryptography/EIP712.sol\":5533:5546  _EIP712Name() */\n      jump\t// in\n    tag_123:\n        /* \"lib/openzeppelin-contracts/contracts/utils/cryptography/EIP712.sol\":5560:5576  _EIP712Version() */\n      tag_125\n        /* \"lib/openzeppelin-contracts/contracts/utils/cryptography/EIP712.sol\":5560:5574  _EIP712Version */\n      tag_126\n        /* \"lib/openzeppelin-contracts/contracts/utils/cryptography/EIP712.sol\":5560:5576  _EIP712Version() */\n      jump\t// in\n    tag_125:\n        /* \"lib/openzeppelin-contracts/contracts/utils/cryptography/EIP712.sol\":5590:5603  block.chainid */\n      chainid\n        /* \"lib/openzeppelin-contracts/contracts/utils/cryptography/EIP712.sol\":5625:5629  this */\n      address\n        /* \"lib/openzeppelin-contracts/contracts/utils/cryptography/EIP712.sol\":5652:5653  0 */\n      0x00\n        /* \"lib/openzeppelin-contracts/contracts/utils/cryptography/EIP712.sol\":5644:5654  bytes32(0) */\n      dup1\n      shl\n        /* \"lib/openzeppelin-contracts/contracts/utils/cryptography/EIP712.sol\":5682:5683  0 */\n      0x00\n        /* \"lib/openzeppelin-contracts/contracts/utils/cryptography/EIP712.sol\":5668:5684  new uint256[](0) */\n      0xffffffffffffffff\n      dup2\n      gt\n      iszero\n      tag_127\n      jumpi\n      tag_128\n      tag_129\n      jump\t// in\n    tag_128:\n    tag_127:\n      mload(0x40)\n      swap1\n      dup1\n      dup3\n      mstore\n      dup1\n      0x20\n      mul\n      0x20\n      add\n      dup3\n      add\n      0x40\n      mstore\n      dup1\n      iszero\n      tag_130\n      jumpi\n      dup2\n      0x20\n      add\n      0x20\n      dup3\n      mul\n      dup1\n      calldatasize\n      dup4\n      calldatacopy\n      dup1\n      dup3\n      add\n      swap2\n      pop\n      pop\n      swap1\n      pop\n    tag_130:\n      pop\n        /* \"lib/openzeppelin-contracts/contracts/utils/cryptography/EIP712.sol\":5482:5694  return (... */\n      0x0f00000000000000000000000000000000000000000000000000000000000000\n      swap6\n      swap5\n      swap4\n      swap3\n      swap2\n      swap1\n      swap7\n      pop\n      swap7\n      pop\n      swap7\n      pop\n      swap7\n      pop\n      swap7\n      pop\n      swap7\n      pop\n      swap7\n      pop\n        /* \"lib/openzeppelin-contracts/contracts/utils/cryptography/EIP712.sol\":5144:5701  function eip712Domain()... */\n      swap1\n      swap2\n      swap3\n      swap4\n      swap5\n      swap6\n      swap7\n      jump\t// out\n        /* \"lib/openzeppelin-contracts/contracts/token/ERC20/ERC20.sol\":2276:2369  function symbol() public view virtual returns (string memory) {... */\n    tag_69:\n        /* \"lib/openzeppelin-contracts/contracts/token/ERC20/ERC20.sol\":2323:2336  string memory */\n      0x60\n        /* \"lib/openzeppelin-contracts/contracts/token/ERC20/ERC20.sol\":2355:2362  _symbol */\n      0x04\n        /* \"lib/openzeppelin-contracts/contracts/token/ERC20/ERC20.sol\":2348:2362  return _symbol */\n      dup1\n      sload\n      tag_132\n      swap1\n      tag_86\n      jump\t// in\n    tag_132:\n      dup1\n      0x1f\n      add\n      0x20\n      dup1\n      swap2\n      div\n      mul\n      0x20\n      add\n      mload(0x40)\n      swap1\n      dup2\n      add\n      0x40\n      mstore\n      dup1\n      swap3\n      swap2\n      swap1\n      dup2\n      dup2\n      mstore\n      0x20\n      add\n      dup3\n      dup1\n      sload\n      tag_133\n      swap1\n      tag_86\n      jump\t// in\n    tag_133:\n      dup1\n      iszero\n      tag_134\n      jumpi\n      dup1\n      0x1f\n      lt\n      tag_135\n      jumpi\n      0x0100\n      dup1\n      dup4\n      sload\n      div\n      mul\n      dup4\n      mstore\n      swap2\n      0x20\n      add\n      swap2\n      jump(tag_134)\n    tag_135:\n      dup3\n      add\n      swap2\n      swap1\n      0x00\n      mstore\n      keccak256(0x00, 0x20)\n      swap1\n    tag_136:\n      dup2\n      sload\n      dup2\n      mstore\n      swap1\n      0x01\n      add\n      swap1\n      0x20\n      add\n      dup1\n      dup4\n      gt\n      tag_136\n      jumpi\n      dup3\n      swap1\n      sub\n      0x1f\n      and\n      dup3\n      add\n      swap2\n    tag_134:\n      pop\n      pop\n      pop\n      pop\n      pop\n      swap1\n      pop\n        /* \"lib/openzeppelin-contracts/contracts/token/ERC20/ERC20.sol\":2276:2369  function symbol() public view virtual returns (string memory) {... */\n      swap1\n      jump\t// out\n        /* \"lib/openzeppelin-contracts/contracts/token/ERC20/ERC20.sol\":3610:3788  function transfer(address to, uint256 value) public virtual returns (bool) {... */\n    tag_73:\n        /* \"lib/openzeppelin-contracts/contracts/token/ERC20/ERC20.sol\":3679:3683  bool */\n      0x00\n        /* \"lib/openzeppelin-contracts/contracts/token/ERC20/ERC20.sol\":3695:3708  address owner */\n      dup1\n        /* \"lib/openzeppelin-contracts/contracts/token/ERC20/ERC20.sol\":3711:3723  _msgSender() */\n      tag_138\n        /* \"lib/openzeppelin-contracts/contracts/token/ERC20/ERC20.sol\":3711:3721  _msgSender */\n      tag_93\n        /* \"lib/openzeppelin-contracts/contracts/token/ERC20/ERC20.sol\":3711:3723  _msgSender() */\n      jump\t// in\n    tag_138:\n        /* \"lib/openzeppelin-contracts/contracts/token/ERC20/ERC20.sol\":3695:3723  address owner = _msgSender() */\n      swap1\n      pop\n        /* \"lib/openzeppelin-contracts/contracts/token/ERC20/ERC20.sol\":3733:3760  _transfer(owner, to, value) */\n      tag_139\n        /* \"lib/openzeppelin-contracts/contracts/token/ERC20/ERC20.sol\":3743:3748  owner */\n      dup2\n        /* \"lib/openzeppelin-contracts/contracts/token/ERC20/ERC20.sol\":3750:3752  to */\n      dup6\n        /* \"lib/openzeppelin-contracts/contracts/token/ERC20/ERC20.sol\":3754:3759  value */\n      dup6\n        /* \"lib/openzeppelin-contracts/contracts/token/ERC20/ERC20.sol\":3733:3742  _transfer */\n      tag_105\n        /* \"lib/openzeppelin-contracts/contracts/token/ERC20/ERC20.sol\":3733:3760  _transfer(owner, to, value) */\n      jump\t// in\n    tag_139:\n        /* \"lib/openzeppelin-contracts/contracts/token/ERC20/ERC20.sol\":3777:3781  true */\n      0x01\n        /* \"lib/openzeppelin-contracts/contracts/token/ERC20/ERC20.sol\":3770:3781  return true */\n      swap2\n      pop\n      pop\n        /* \"lib/openzeppelin-contracts/contracts/token/ERC20/ERC20.sol\":3610:3788  function transfer(address to, uint256 value) public virtual returns (bool) {... */\n      swap3\n      swap2\n      pop\n      pop\n      jump\t// out\n        /* \"lib/openzeppelin-contracts/contracts/token/ERC20/extensions/ERC20Permit.sol\":1680:2352  function permit(... */\n    tag_78:\n        /* \"lib/openzeppelin-contracts/contracts/token/ERC20/extensions/ERC20Permit.sol\":1901:1909  deadline */\n      dup4\n        /* \"lib/openzeppelin-contracts/contracts/token/ERC20/extensions/ERC20Permit.sol\":1883:1898  block.timestamp */\n      timestamp\n        /* \"lib/openzeppelin-contracts/contracts/token/ERC20/extensions/ERC20Permit.sol\":1883:1909  block.timestamp > deadline */\n      gt\n        /* \"lib/openzeppelin-contracts/contracts/token/ERC20/extensions/ERC20Permit.sol\":1879:1976  if (block.timestamp > deadline) {... */\n      iszero\n      tag_141\n      jumpi\n        /* \"lib/openzeppelin-contracts/contracts/token/ERC20/extensions/ERC20Permit.sol\":1956:1964  deadline */\n      dup4\n        /* \"lib/openzeppelin-contracts/contracts/token/ERC20/extensions/ERC20Permit.sol\":1932:1965  ERC2612ExpiredSignature(deadline) */\n      mload(0x40)\n      0x6279130200000000000000000000000000000000000000000000000000000000\n      dup2\n      mstore\n      0x04\n      add\n      tag_142\n      swap2\n      swap1\n      tag_36\n      jump\t// in\n    tag_142:\n      mload(0x40)\n      dup1\n      swap2\n      sub\n      swap1\n      revert\n        /* \"lib/openzeppelin-contracts/contracts/token/ERC20/extensions/ERC20Permit.sol\":1879:1976  if (block.timestamp > deadline) {... */\n    tag_141:\n        /* \"lib/openzeppelin-contracts/contracts/token/ERC20/extensions/ERC20Permit.sol\":1986:2004  bytes32 structHash */\n      0x00\n        /* \"lib/openzeppelin-contracts/contracts/token/ERC20/extensions/ERC20Permit.sol\":1022:1117  keccak256(\"Permit(address owner,address spender,uint256 value,uint256 nonce,uint256 deadline)\") */\n      0x6e71edae12b1b97f4d1f60370fef10105fa2faae0126114a169c64845d6126c9\n        /* \"lib/openzeppelin-contracts/contracts/token/ERC20/extensions/ERC20Permit.sol\":2045:2050  owner */\n      dup9\n        /* \"lib/openzeppelin-contracts/contracts/token/ERC20/extensions/ERC20Permit.sol\":2052:2059  spender */\n      dup9\n        /* \"lib/openzeppelin-contracts/contracts/token/ERC20/extensions/ERC20Permit.sol\":2061:2066  value */\n      dup9\n        /* \"lib/openzeppelin-contracts/contracts/token/ERC20/extensions/ERC20Permit.sol\":2068:2084  _useNonce(owner) */\n      tag_143\n        /* \"lib/openzeppelin-contracts/contracts/token/ERC20/extensions/ERC20Permit.sol\":2078:2083  owner */\n      dup13\n        /* \"lib/openzeppelin-contracts/contracts/token/ERC20/extensions/ERC20Permit.sol\":2068:2077  _useNonce */\n      tag_144\n        /* \"lib/openzeppelin-contracts/contracts/token/ERC20/extensions/ERC20Permit.sol\":2068:2084  _useNonce(owner) */\n      jump\t// in\n    tag_143:\n        /* \"lib/openzeppelin-contracts/contracts/token/ERC20/extensions/ERC20Permit.sol\":2086:2094  deadline */\n      dup10\n        /* \"lib/openzeppelin-contracts/contracts/token/ERC20/extensions/ERC20Permit.sol\":2017:2095  abi.encode(PERMIT_TYPEHASH, owner, spender, value, _useNonce(owner), deadline) */\n      add(0x20, mload(0x40))\n      tag_145\n      swap7\n      swap6\n      swap5\n      swap4\n      swap3\n      swap2\n      swap1\n      tag_146\n      jump\t// in\n    tag_145:\n      mload(0x40)\n      0x20\n      dup2\n      dup4\n      sub\n      sub\n      dup2\n      mstore\n      swap1\n      0x40\n      mstore\n        /* \"lib/openzeppelin-contracts/contracts/token/ERC20/extensions/ERC20Permit.sol\":2007:2096  keccak256(abi.encode(PERMIT_TYPEHASH, owner, spender, value, _useNonce(owner), deadline)) */\n      dup1\n      mload\n      swap1\n      0x20\n      add\n      keccak256\n        /* \"lib/openzeppelin-contracts/contracts/token/ERC20/extensions/ERC20Permit.sol\":1986:2096  bytes32 structHash = keccak256(abi.encode(PERMIT_TYPEHASH, owner, spender, value, _useNonce(owner), deadline)) */\n      swap1\n      pop\n        /* \"lib/openzeppelin-contracts/contracts/token/ERC20/extensions/ERC20Permit.sol\":2107:2119  bytes32 hash */\n      0x00\n        /* \"lib/openzeppelin-contracts/contracts/token/ERC20/extensions/ERC20Permit.sol\":2122:2150  _hashTypedDataV4(structHash) */\n      tag_147\n        /* \"lib/openzeppelin-contracts/contracts/token/ERC20/extensions/ERC20Permit.sol\":2139:2149  structHash */\n      dup3\n        /* \"lib/openzeppelin-contracts/contracts/token/ERC20/extensions/ERC20Permit.sol\":2122:2138  _hashTypedDataV4 */\n      tag_148\n        /* \"lib/openzeppelin-contracts/contracts/token/ERC20/extensions/ERC20Permit.sol\":2122:2150  _hashTypedDataV4(structHash) */\n      jump\t// in\n    tag_147:\n        /* \"lib/openzeppelin-contracts/contracts/token/ERC20/extensions/ERC20Permit.sol\":2107:2150  bytes32 hash = _hashTypedDataV4(structHash) */\n      swap1\n      pop\n        /* \"lib/openzeppelin-contracts/contracts/token/ERC20/extensions/ERC20Permit.sol\":2161:2175  address signer */\n      0x00\n        /* \"lib/openzeppelin-contracts/contracts/token/ERC20/extensions/ERC20Permit.sol\":2178:2206  ECDSA.recover(hash, v, r, s) */\n      tag_149\n        /* \"lib/openzeppelin-contracts/contracts/token/ERC20/extensions/ERC20Permit.sol\":2192:2196  hash */\n      dup3\n        /* \"lib/openzeppelin-contracts/contracts/token/ERC20/extensions/ERC20Permit.sol\":2198:2199  v */\n      dup8\n        /* \"lib/openzeppelin-contracts/contracts/token/ERC20/extensions/ERC20Permit.sol\":2201:2202  r */\n      dup8\n        /* \"lib/openzeppelin-contracts/contracts/token/ERC20/extensions/ERC20Permit.sol\":2204:2205  s */\n      dup8\n        /* \"lib/openzeppelin-contracts/contracts/token/ERC20/extensions/ERC20Permit.sol\":2178:2191  ECDSA.recover */\n      tag_150\n        /* \"lib/openzeppelin-contracts/contracts/token/ERC20/extensions/ERC20Permit.sol\":2178:2206  ECDSA.recover(hash, v, r, s) */\n      jump\t// in\n    tag_149:\n        /* \"lib/openzeppelin-contracts/contracts/token/ERC20/extensions/ERC20Permit.sol\":2161:2206  address signer = ECDSA.recover(hash, v, r, s) */\n      swap1\n      pop\n        /* \"lib/openzeppelin-contracts/contracts/token/ERC20/extensions/ERC20Permit.sol\":2230:2235  owner */\n      dup10\n        /* \"lib/openzeppelin-contracts/contracts/token/ERC20/extensions/ERC20Permit.sol\":2220:2235  signer != owner */\n      0xffffffffffffffffffffffffffffffffffffffff\n      and\n        /* \"lib/openzeppelin-contracts/contracts/token/ERC20/extensions/ERC20Permit.sol\":2220:2226  signer */\n      dup2\n        /* \"lib/openzeppelin-contracts/contracts/token/ERC20/extensions/ERC20Permit.sol\":2220:2235  signer != owner */\n      0xffffffffffffffffffffffffffffffffffffffff\n      and\n      eq\n        /* \"lib/openzeppelin-contracts/contracts/token/ERC20/extensions/ERC20Permit.sol\":2216:2304  if (signer != owner) {... */\n      tag_151\n      jumpi\n        /* \"lib/openzeppelin-contracts/contracts/token/ERC20/extensions/ERC20Permit.sol\":2279:2285  signer */\n      dup1\n        /* \"lib/openzeppelin-contracts/contracts/token/ERC20/extensions/ERC20Permit.sol\":2287:2292  owner */\n      dup11\n        /* \"lib/openzeppelin-contracts/contracts/token/ERC20/extensions/ERC20Permit.sol\":2258:2293  ERC2612InvalidSigner(signer, owner) */\n      mload(0x40)\n      0x4b800e4600000000000000000000000000000000000000000000000000000000\n      dup2\n      mstore\n      0x04\n      add\n      tag_152\n      swap3\n      swap2\n      swap1\n      tag_153\n      jump\t// in\n    tag_152:\n      mload(0x40)\n      dup1\n      swap2\n      sub\n      swap1\n      revert\n        /* \"lib/openzeppelin-contracts/contracts/token/ERC20/extensions/ERC20Permit.sol\":2216:2304  if (signer != owner) {... */\n    tag_151:\n        /* \"lib/openzeppelin-contracts/contracts/token/ERC20/extensions/ERC20Permit.sol\":2314:2345  _approve(owner, spender, value) */\n      tag_154\n        /* \"lib/openzeppelin-contracts/contracts/token/ERC20/extensions/ERC20Permit.sol\":2323:2328  owner */\n      dup11\n        /* \"lib/openzeppelin-contracts/contracts/token/ERC20/extensions/ERC20Permit.sol\":2330:2337  spender */\n      dup11\n        /* \"lib/openzeppelin-contracts/contracts/token/ERC20/extensions/ERC20Permit.sol\":2339:2344  value */\n      dup11\n        /* \"lib/openzeppelin-contracts/contracts/token/ERC20/extensions/ERC20Permit.sol\":2314:2322  _approve */\n      tag_95\n        /* \"lib/openzeppelin-contracts/contracts/token/ERC20/extensions/ERC20Permit.sol\":2314:2345  _approve(owner, spender, value) */\n      jump\t// in\n    tag_154:\n        /* \"lib/openzeppelin-contracts/contracts/token/ERC20/extensions/ERC20Permit.sol\":1869:2352  {... */\n      pop\n      pop\n      pop\n        /* \"lib/openzeppelin-contracts/contracts/token/ERC20/extensions/ERC20Permit.sol\":1680:2352  function permit(... */\n      pop\n      pop\n      pop\n      pop\n      pop\n      pop\n      pop\n      jump\t// out\n        /* \"lib/openzeppelin-contracts/contracts/token/ERC20/ERC20.sol\":3846:3986  function allowance(address owner, address spender) public view virtual returns (uint256) {... */\n    tag_82:\n        /* \"lib/openzeppelin-contracts/contracts/token/ERC20/ERC20.sol\":3926:3933  uint256 */\n      0x00\n        /* \"lib/openzeppelin-contracts/contracts/token/ERC20/ERC20.sol\":3952:3963  _allowances */\n      0x01\n        /* \"lib/openzeppelin-contracts/contracts/token/ERC20/ERC20.sol\":3952:3970  _allowances[owner] */\n      0x00\n        /* \"lib/openzeppelin-contracts/contracts/token/ERC20/ERC20.sol\":3964:3969  owner */\n      dup5\n        /* \"lib/openzeppelin-contracts/contracts/token/ERC20/ERC20.sol\":3952:3970  _allowances[owner] */\n      0xffffffffffffffffffffffffffffffffffffffff\n      and\n      0xffffffffffffffffffffffffffffffffffffffff\n      and\n      dup2\n      mstore\n      0x20\n      add\n      swap1\n      dup2\n      mstore\n      0x20\n      add\n      0x00\n      keccak256\n        /* \"lib/openzeppelin-contracts/contracts/token/ERC20/ERC20.sol\":3952:3979  _allowances[owner][spender] */\n      0x00\n        /* \"lib/openzeppelin-contracts/contracts/token/ERC20/ERC20.sol\":3971:3978  spender */\n      dup4\n        /* \"lib/openzeppelin-contracts/contracts/token/ERC20/ERC20.sol\":3952:3979  _allowances[owner][spender] */\n      0xffffffffffffffffffffffffffffffffffffffff\n      and\n      0xffffffffffffffffffffffffffffffffffffffff\n      and\n      dup2\n      mstore\n      0x20\n      add\n      swap1\n      dup2\n      mstore\n      0x20\n      add\n      0x00\n      keccak256\n      sload\n        /* \"lib/openzeppelin-contracts/contracts/token/ERC20/ERC20.sol\":3945:3979  return _allowances[owner][spender] */\n      swap1\n      pop\n        /* \"lib/openzeppelin-contracts/contracts/token/ERC20/ERC20.sol\":3846:3986  function allowance(address owner, address spender) public view virtual returns (uint256) {... */\n      swap3\n      swap2\n      pop\n      pop\n      jump\t// out\n        /* \"lib/openzeppelin-contracts/contracts/utils/Context.sol\":656:752  function _msgSender() internal view virtual returns (address) {... */\n    tag_93:\n        /* \"lib/openzeppelin-contracts/contracts/utils/Context.sol\":709:716  address */\n      0x00\n        /* \"lib/openzeppelin-contracts/contracts/utils/Context.sol\":735:745  msg.sender */\n      caller\n        /* \"lib/openzeppelin-contracts/contracts/utils/Context.sol\":728:745  return msg.sender */\n      swap1\n      pop\n        /* \"lib/openzeppelin-contracts/contracts/utils/Context.sol\":656:752  function _msgSender() internal view virtual returns (address) {... */\n      swap1\n      jump\t// out\n        /* \"lib/openzeppelin-contracts/contracts/token/ERC20/ERC20.sol\":8989:9117  function _approve(address owner, address spender, uint256 value) internal {... */\n    tag_95:\n        /* \"lib/openzeppelin-contracts/contracts/token/ERC20/ERC20.sol\":9073:9110  _approve(owner, spender, value, true) */\n      tag_158\n        /* \"lib/openzeppelin-contracts/contracts/token/ERC20/ERC20.sol\":9082:9087  owner */\n      dup4\n        /* \"lib/openzeppelin-contracts/contracts/token/ERC20/ERC20.sol\":9089:9096  spender */\n      dup4\n        /* \"lib/openzeppelin-contracts/contracts/token/ERC20/ERC20.sol\":9098:9103  value */\n      dup4\n        /* \"lib/openzeppelin-contracts/contracts/token/ERC20/ERC20.sol\":9105:9109  true */\n      0x01\n        /* \"lib/openzeppelin-contracts/contracts/token/ERC20/ERC20.sol\":9073:9081  _approve */\n      tag_159\n        /* \"lib/openzeppelin-contracts/contracts/token/ERC20/ERC20.sol\":9073:9110  _approve(owner, spender, value, true) */\n      jump\t// in\n    tag_158:\n        /* \"lib/openzeppelin-contracts/contracts/token/ERC20/ERC20.sol\":8989:9117  function _approve(address owner, address spender, uint256 value) internal {... */\n      pop\n      pop\n      pop\n      jump\t// out\n        /* \"lib/openzeppelin-contracts/contracts/token/ERC20/ERC20.sol\":7721:7929  function _mint(address account, uint256 value) internal {... */\n    tag_98:\n        /* \"lib/openzeppelin-contracts/contracts/token/ERC20/ERC20.sol\":7810:7811  0 */\n      0x00\n        /* \"lib/openzeppelin-contracts/contracts/token/ERC20/ERC20.sol\":7791:7812  account == address(0) */\n      0xffffffffffffffffffffffffffffffffffffffff\n      and\n        /* \"lib/openzeppelin-contracts/contracts/token/ERC20/ERC20.sol\":7791:7798  account */\n      dup3\n        /* \"lib/openzeppelin-contracts/contracts/token/ERC20/ERC20.sol\":7791:7812  account == address(0) */\n      0xffffffffffffffffffffffffffffffffffffffff\n      and\n      sub\n        /* \"lib/openzeppelin-contracts/contracts/token/ERC20/ERC20.sol\":7787:7878  if (account == address(0)) {... */\n      tag_161\n      jumpi\n        /* \"lib/openzeppelin-contracts/contracts/token/ERC20/ERC20.sol\":7864:7865  0 */\n      0x00\n        /* \"lib/openzeppelin-contracts/contracts/token/ERC20/ERC20.sol\":7835:7867  ERC20InvalidReceiver(address(0)) */\n      mload(0x40)\n      0xec442f0500000000000000000000000000000000000000000000000000000000\n      dup2\n      mstore\n      0x04\n      add\n      tag_162\n      swap2\n      swap1\n      tag_163\n      jump\t// in\n    tag_162:\n      mload(0x40)\n      dup1\n      swap2\n      sub\n      swap1\n      revert\n        /* \"lib/openzeppelin-contracts/contracts/token/ERC20/ERC20.sol\":7787:7878  if (account == address(0)) {... */\n    tag_161:\n        /* \"lib/openzeppelin-contracts/contracts/token/ERC20/ERC20.sol\":7887:7922  _update(address(0), account, value) */\n      tag_164\n        /* \"lib/openzeppelin-contracts/contracts/token/ERC20/ERC20.sol\":7903:7904  0 */\n      0x00\n        /* \"lib/openzeppelin-contracts/contracts/token/ERC20/ERC20.sol\":7907:7914  account */\n      dup4\n        /* \"lib/openzeppelin-contracts/contracts/token/ERC20/ERC20.sol\":7916:7921  value */\n      dup4\n        /* \"lib/openzeppelin-contracts/contracts/token/ERC20/ERC20.sol\":7887:7894  _update */\n      tag_165\n        /* \"lib/openzeppelin-contracts/contracts/token/ERC20/ERC20.sol\":7887:7922  _update(address(0), account, value) */\n      jump\t// in\n    tag_164:\n        /* \"lib/openzeppelin-contracts/contracts/token/ERC20/ERC20.sol\":7721:7929  function _mint(address account, uint256 value) internal {... */\n      pop\n      pop\n      jump\t// out\n        /* \"lib/openzeppelin-contracts/contracts/token/ERC20/ERC20.sol\":10663:11140  function _spendAllowance(address owner, address spender, uint256 value) internal virtual {... */\n    tag_103:\n        /* \"lib/openzeppelin-contracts/contracts/token/ERC20/ERC20.sol\":10762:10786  uint256 currentAllowance */\n      0x00\n        /* \"lib/openzeppelin-contracts/contracts/token/ERC20/ERC20.sol\":10789:10814  allowance(owner, spender) */\n      tag_167\n        /* \"lib/openzeppelin-contracts/contracts/token/ERC20/ERC20.sol\":10799:10804  owner */\n      dup5\n        /* \"lib/openzeppelin-contracts/contracts/token/ERC20/ERC20.sol\":10806:10813  spender */\n      dup5\n        /* \"lib/openzeppelin-contracts/contracts/token/ERC20/ERC20.sol\":10789:10798  allowance */\n      tag_82\n        /* \"lib/openzeppelin-contracts/contracts/token/ERC20/ERC20.sol\":10789:10814  allowance(owner, spender) */\n      jump\t// in\n    tag_167:\n        /* \"lib/openzeppelin-contracts/contracts/token/ERC20/ERC20.sol\":10762:10814  uint256 currentAllowance = allowance(owner, spender) */\n      swap1\n      pop\n        /* \"lib/openzeppelin-contracts/contracts/token/ERC20/ERC20.sol\":10848:10865  type(uint256).max */\n      0xffffffffffffffffffffffffffffffffffffffffffffffffffffffffffffffff\n        /* \"lib/openzeppelin-contracts/contracts/token/ERC20/ERC20.sol\":10828:10844  currentAllowance */\n      dup2\n        /* \"lib/openzeppelin-contracts/contracts/token/ERC20/ERC20.sol\":10828:10865  currentAllowance != type(uint256).max */\n      eq\n        /* \"lib/openzeppelin-contracts/contracts/token/ERC20/ERC20.sol\":10824:11134  if (currentAllowance != type(uint256).max) {... */\n      tag_168\n      jumpi\n        /* \"lib/openzeppelin-contracts/contracts/token/ERC20/ERC20.sol\":10904:10909  value */\n      dup2\n        /* \"lib/openzeppelin-contracts/contracts/token/ERC20/ERC20.sol\":10885:10901  currentAllowance */\n      dup2\n        /* \"lib/openzeppelin-contracts/contracts/token/ERC20/ERC20.sol\":10885:10909  currentAllowance < value */\n      lt\n        /* \"lib/openzeppelin-contracts/contracts/token/ERC20/ERC20.sol\":10881:11011  if (currentAllowance < value) {... */\n      iszero\n      tag_169\n      jumpi\n        /* \"lib/openzeppelin-contracts/contracts/token/ERC20/ERC20.sol\":10963:10970  spender */\n      dup3\n        /* \"lib/openzeppelin-contracts/contracts/token/ERC20/ERC20.sol\":10972:10988  currentAllowance */\n      dup2\n        /* \"lib/openzeppelin-contracts/contracts/token/ERC20/ERC20.sol\":10990:10995  value */\n      dup4\n        /* \"lib/openzeppelin-contracts/contracts/token/ERC20/ERC20.sol\":10936:10996  ERC20InsufficientAllowance(spender, currentAllowance, value) */\n      mload(0x40)\n      0xfb8f41b200000000000000000000000000000000000000000000000000000000\n      dup2\n      mstore\n      0x04\n      add\n      tag_170\n      swap4\n      swap3\n      swap2\n      swap1\n      tag_171\n      jump\t// in\n    tag_170:\n      mload(0x40)\n      dup1\n      swap2\n      sub\n      swap1\n      revert\n        /* \"lib/openzeppelin-contracts/contracts/token/ERC20/ERC20.sol\":10881:11011  if (currentAllowance < value) {... */\n    tag_169:\n        /* \"lib/openzeppelin-contracts/contracts/token/ERC20/ERC20.sol\":11052:11109  _approve(owner, spender, currentAllowance - value, false) */\n      tag_172\n        /* \"lib/openzeppelin-contracts/contracts/token/ERC20/ERC20.sol\":11061:11066  owner */\n      dup5\n        /* \"lib/openzeppelin-contracts/contracts/token/ERC20/ERC20.sol\":11068:11075  spender */\n      dup5\n        /* \"lib/openzeppelin-contracts/contracts/token/ERC20/ERC20.sol\":11096:11101  value */\n      dup5\n        /* \"lib/openzeppelin-contracts/contracts/token/ERC20/ERC20.sol\":11077:11093  currentAllowance */\n      dup5\n        /* \"lib/openzeppelin-contracts/contracts/token/ERC20/ERC20.sol\":11077:11101  currentAllowance - value */\n      sub\n        /* \"lib/openzeppelin-contracts/contracts/token/ERC20/ERC20.sol\":11103:11108  false */\n      0x00\n        /* \"lib/openzeppelin-contracts/contracts/token/ERC20/ERC20.sol\":11052:11060  _approve */\n      tag_159\n        /* \"lib/openzeppelin-contracts/contracts/token/ERC20/ERC20.sol\":11052:11109  _approve(owner, spender, currentAllowance - value, false) */\n      jump\t// in\n    tag_172:\n        /* \"lib/openzeppelin-contracts/contracts/token/ERC20/ERC20.sol\":10824:11134  if (currentAllowance != type(uint256).max) {... */\n    tag_168:\n        /* \"lib/openzeppelin-contracts/contracts/token/ERC20/ERC20.sol\":10752:11140  {... */\n      pop\n        /* \"lib/openzeppelin-contracts/contracts/token/ERC20/ERC20.sol\":10663:11140  function _spendAllowance(address owner, address spender, uint256 value) internal virtual {... */\n      pop\n      pop\n      pop\n      jump\t// out\n        /* \"lib/openzeppelin-contracts/contracts/token/ERC20/ERC20.sol\":5656:5956  function _transfer(address from, address to, uint256 value) internal {... */\n    tag_105:\n        /* \"lib/openzeppelin-contracts/contracts/token/ERC20/ERC20.sol\":5755:5756  0 */\n      0x00\n        /* \"lib/openzeppelin-contracts/contracts/token/ERC20/ERC20.sol\":5739:5757  from == address(0) */\n      0xffffffffffffffffffffffffffffffffffffffff\n      and\n        /* \"lib/openzeppelin-contracts/contracts/token/ERC20/ERC20.sol\":5739:5743  from */\n      dup4\n        /* \"lib/openzeppelin-contracts/contracts/token/ERC20/ERC20.sol\":5739:5757  from == address(0) */\n      0xffffffffffffffffffffffffffffffffffffffff\n      and\n      sub\n        /* \"lib/openzeppelin-contracts/contracts/token/ERC20/ERC20.sol\":5735:5821  if (from == address(0)) {... */\n      tag_174\n      jumpi\n        /* \"lib/openzeppelin-contracts/contracts/token/ERC20/ERC20.sol\":5807:5808  0 */\n      0x00\n        /* \"lib/openzeppelin-contracts/contracts/token/ERC20/ERC20.sol\":5780:5810  ERC20InvalidSender(address(0)) */\n      mload(0x40)\n      0x96c6fd1e00000000000000000000000000000000000000000000000000000000\n      dup2\n      mstore\n      0x04\n      add\n      tag_175\n      swap2\n      swap1\n      tag_163\n      jump\t// in\n    tag_175:\n      mload(0x40)\n      dup1\n      swap2\n      sub\n      swap1\n      revert\n        /* \"lib/openzeppelin-contracts/contracts/token/ERC20/ERC20.sol\":5735:5821  if (from == address(0)) {... */\n    tag_174:\n        /* \"lib/openzeppelin-contracts/contracts/token/ERC20/ERC20.sol\":5848:5849  0 */\n      0x00\n        /* \"lib/openzeppelin-contracts/contracts/token/ERC20/ERC20.sol\":5834:5850  to == address(0) */\n      0xffffffffffffffffffffffffffffffffffffffff\n      and\n        /* \"lib/openzeppelin-contracts/contracts/token/ERC20/ERC20.sol\":5834:5836  to */\n      dup3\n        /* \"lib/openzeppelin-contracts/contracts/token/ERC20/ERC20.sol\":5834:5850  to == address(0) */\n      0xffffffffffffffffffffffffffffffffffffffff\n      and\n      sub\n        /* \"lib/openzeppelin-contracts/contracts/token/ERC20/ERC20.sol\":5830:5916  if (to == address(0)) {... */\n      tag_176\n      jumpi\n        /* \"lib/openzeppelin-contracts/contracts/token/ERC20/ERC20.sol\":5902:5903  0 */\n      0x00\n        /* \"lib/openzeppelin-contracts/contracts/token/ERC20/ERC20.sol\":5873:5905  ERC20InvalidReceiver(address(0)) */\n      mload(0x40)\n      0xec442f0500000000000000000000000000000000000000000000000000000000\n      dup2\n      mstore\n      0x04\n      add\n      tag_177\n      swap2\n      swap1\n      tag_163\n      jump\t// in\n    tag_177:\n      mload(0x40)\n      dup1\n      swap2\n      sub\n      swap1\n      revert\n        /* \"lib/openzeppelin-contracts/contracts/token/ERC20/ERC20.sol\":5830:5916  if (to == address(0)) {... */\n    tag_176:\n        /* \"lib/openzeppelin-contracts/contracts/token/ERC20/ERC20.sol\":5925:5949  _update(from, to, value) */\n      tag_178\n        /* \"lib/openzeppelin-contracts/contracts/token/ERC20/ERC20.sol\":5933:5937  from */\n      dup4\n        /* \"lib/openzeppelin-contracts/contracts/token/ERC20/ERC20.sol\":5939:5941  to */\n      dup4\n        /* \"lib/openzeppelin-contracts/contracts/token/ERC20/ERC20.sol\":5943:5948  value */\n      dup4\n        /* \"lib/openzeppelin-contracts/contracts/token/ERC20/ERC20.sol\":5925:5932  _update */\n      tag_165\n        /* \"lib/openzeppelin-contracts/contracts/token/ERC20/ERC20.sol\":5925:5949  _update(from, to, value) */\n      jump\t// in\n    tag_178:\n        /* \"lib/openzeppelin-contracts/contracts/token/ERC20/ERC20.sol\":5656:5956  function _transfer(address from, address to, uint256 value) internal {... */\n      pop\n      pop\n      pop\n      jump\t// out\n        /* \"lib/openzeppelin-contracts/contracts/utils/cryptography/EIP712.sol\":3845:4107  function _domainSeparatorV4() internal view returns (bytes32) {... */\n    tag_109:\n        /* \"lib/openzeppelin-contracts/contracts/utils/cryptography/EIP712.sol\":3898:3905  bytes32 */\n      0x00\n        /* \"lib/openzeppelin-contracts/contracts/utils/cryptography/EIP712.sol\":3938:3949  _cachedThis */\n      immutable(\"0xabe81aba69caf56d9ad05a099a77be906867489058d7b123f1c5d7f3daf0f7cb\")\n        /* \"lib/openzeppelin-contracts/contracts/utils/cryptography/EIP712.sol\":3921:3949  address(this) == _cachedThis */\n      0xffffffffffffffffffffffffffffffffffffffff\n      and\n        /* \"lib/openzeppelin-contracts/contracts/utils/cryptography/EIP712.sol\":3929:3933  this */\n      address\n        /* \"lib/openzeppelin-contracts/contracts/utils/cryptography/EIP712.sol\":3921:3949  address(this) == _cachedThis */\n      0xffffffffffffffffffffffffffffffffffffffff\n      and\n      eq\n        /* \"lib/openzeppelin-contracts/contracts/utils/cryptography/EIP712.sol\":3921:3984  address(this) == _cachedThis && block.chainid == _cachedChainId */\n      dup1\n      iszero\n      tag_180\n      jumpi\n      pop\n        /* \"lib/openzeppelin-contracts/contracts/utils/cryptography/EIP712.sol\":3970:3984  _cachedChainId */\n      immutable(\"0xb1d581e758c3ac2789b5f345ebac061bf856141aca0183e5321140fe641707f8\")\n        /* \"lib/openzeppelin-contracts/contracts/utils/cryptography/EIP712.sol\":3953:3966  block.chainid */\n      chainid\n        /* \"lib/openzeppelin-contracts/contracts/utils/cryptography/EIP712.sol\":3953:3984  block.chainid == _cachedChainId */\n      eq\n        /* \"lib/openzeppelin-contracts/contracts/utils/cryptography/EIP712.sol\":3921:3984  address(this) == _cachedThis && block.chainid == _cachedChainId */\n    tag_180:\n        /* \"lib/openzeppelin-contracts/contracts/utils/cryptography/EIP712.sol\":3917:4101  if (address(this) == _cachedThis && block.chainid == _cachedChainId) {... */\n      iszero\n      tag_181\n      jumpi\n        /* \"lib/openzeppelin-contracts/contracts/utils/cryptography/EIP712.sol\":4007:4029  _cachedDomainSeparator */\n      immutable(\"0xd5d4d8ff606dd724e00b29cb5d74ae94fd0e1e5922b3936ddb7fb7747e1fb956\")\n        /* \"lib/openzeppelin-contracts/contracts/utils/cryptography/EIP712.sol\":4000:4029  return _cachedDomainSeparator */\n      swap1\n      pop\n      jump(tag_179)\n        /* \"lib/openzeppelin-contracts/contracts/utils/cryptography/EIP712.sol\":3917:4101  if (address(this) == _cachedThis && block.chainid == _cachedChainId) {... */\n    tag_181:\n        /* \"lib/openzeppelin-contracts/contracts/utils/cryptography/EIP712.sol\":4067:4090  _buildDomainSeparator() */\n      tag_183\n        /* \"lib/openzeppelin-contracts/contracts/utils/cryptography/EIP712.sol\":4067:4088  _buildDomainSeparator */\n      tag_184\n        /* \"lib/openzeppelin-contracts/contracts/utils/cryptography/EIP712.sol\":4067:4090  _buildDomainSeparator() */\n      jump\t// in\n    tag_183:\n        /* \"lib/openzeppelin-contracts/contracts/utils/cryptography/EIP712.sol\":4060:4090  return _buildDomainSeparator() */\n      swap1\n      pop\n        /* \"lib/openzeppelin-contracts/contracts/utils/cryptography/EIP712.sol\":3845:4107  function _domainSeparatorV4() internal view returns (bytes32) {... */\n    tag_179:\n      swap1\n      jump\t// out\n        /* \"src/Hulio.sol\":1144:1853  function _checkOnTransferReceived(... */\n    tag_117:\n        /* \"src/Hulio.sol\":1349:1350  0 */\n      0x00\n        /* \"src/Hulio.sol\":1331:1333  to */\n      dup4\n        /* \"src/Hulio.sol\":1331:1345  to.code.length */\n      0xffffffffffffffffffffffffffffffffffffffff\n      and\n      extcodesize\n        /* \"src/Hulio.sol\":1331:1350  to.code.length == 0 */\n      sub\n        /* \"src/Hulio.sol\":1327:1383  if (to.code.length == 0) {... */\n      iszero\n        /* \"src/Hulio.sol\":1366:1373  return; */\n      tag_185\n        /* \"src/Hulio.sol\":1327:1383  if (to.code.length == 0) {... */\n      jumpi\n        /* \"src/Hulio.sol\":1448:1450  to */\n      dup3\n        /* \"src/Hulio.sol\":1431:1470  IERC1363Receiver(to).onTransferReceived */\n      0xffffffffffffffffffffffffffffffffffffffff\n      and\n      0x88a7ca5c\n        /* \"src/Hulio.sol\":1488:1500  _msgSender() */\n      tag_187\n        /* \"src/Hulio.sol\":1488:1498  _msgSender */\n      tag_93\n        /* \"src/Hulio.sol\":1488:1500  _msgSender() */\n      jump\t// in\n    tag_187:\n        /* \"src/Hulio.sol\":1518:1522  from */\n      dup7\n        /* \"src/Hulio.sol\":1540:1545  value */\n      dup6\n        /* \"src/Hulio.sol\":1563:1567  data */\n      dup6\n        /* \"src/Hulio.sol\":1431:1581  IERC1363Receiver(to).onTransferReceived(... */\n      mload(0x40)\n      dup6\n      0xffffffff\n      and\n      0xe0\n      shl\n      dup2\n      mstore\n      0x04\n      add\n      tag_188\n      swap5\n      swap4\n      swap3\n      swap2\n      swap1\n      tag_189\n      jump\t// in\n    tag_188:\n      0x20\n      mload(0x40)\n      dup1\n      dup4\n      sub\n      dup2\n      0x00\n      dup8\n      gas\n      call\n      swap3\n      pop\n      pop\n      pop\n      dup1\n      iszero\n      tag_190\n      jumpi\n      pop\n      mload(0x40)\n      returndatasize\n      not(0x1f)\n      0x1f\n      dup3\n      add\n      and\n      dup3\n      add\n      dup1\n      0x40\n      mstore\n      pop\n      dup2\n      add\n      swap1\n      tag_191\n      swap2\n      swap1\n      tag_192\n      jump\t// in\n    tag_191:\n      0x01\n    tag_190:\n        /* \"src/Hulio.sol\":1415:1847  try... */\n      tag_193\n      jumpi\n      returndatasize\n      dup1\n      0x00\n      dup2\n      eq\n      tag_198\n      jumpi\n      mload(0x40)\n      swap2\n      pop\n      and(add(returndatasize, 0x3f), not(0x1f))\n      dup3\n      add\n      0x40\n      mstore\n      returndatasize\n      dup3\n      mstore\n      returndatasize\n      0x00\n      0x20\n      dup5\n      add\n      returndatacopy\n      jump(tag_197)\n    tag_198:\n      0x60\n      swap2\n      pop\n    tag_197:\n      pop\n        /* \"src/Hulio.sol\":1833:1835  to */\n      dup4\n        /* \"src/Hulio.sol\":1812:1836  ERC1363ReceiveFailed(to) */\n      mload(0x40)\n      0x373c5c7800000000000000000000000000000000000000000000000000000000\n      dup2\n      mstore\n      0x04\n      add\n      tag_199\n      swap2\n      swap1\n      tag_163\n      jump\t// in\n    tag_199:\n      mload(0x40)\n      dup1\n      swap2\n      sub\n      swap1\n      revert\n        /* \"src/Hulio.sol\":1415:1847  try... */\n    tag_193:\n        /* \"src/Hulio.sol\":1642:1686  IERC1363Receiver.onTransferReceived.selector */\n      shl(0xe0, 0x88a7ca5c)\n        /* \"src/Hulio.sol\":1632:1686  retval != IERC1363Receiver.onTransferReceived.selector */\n      not(0xffffffffffffffffffffffffffffffffffffffffffffffffffffffff)\n      and\n        /* \"src/Hulio.sol\":1632:1638  retval */\n      dup2\n        /* \"src/Hulio.sol\":1632:1686  retval != IERC1363Receiver.onTransferReceived.selector */\n      not(0xffffffffffffffffffffffffffffffffffffffffffffffffffffffff)\n      and\n      eq\n        /* \"src/Hulio.sol\":1628:1752  if (retval != IERC1363Receiver.onTransferReceived.selector) {... */\n      tag_201\n      jumpi\n        /* \"src/Hulio.sol\":1734:1736  to */\n      dup4\n        /* \"src/Hulio.sol\":1713:1737  ERC1363ReceiveFailed(to) */\n      mload(0x40)\n      0x373c5c7800000000000000000000000000000000000000000000000000000000\n      dup2\n      mstore\n      0x04\n      add\n      tag_202\n      swap2\n      swap1\n      tag_163\n      jump\t// in\n    tag_202:\n      mload(0x40)\n      dup1\n      swap2\n      sub\n      swap1\n      revert\n        /* \"src/Hulio.sol\":1628:1752  if (retval != IERC1363Receiver.onTransferReceived.selector) {... */\n    tag_201:\n        /* \"src/Hulio.sol\":1590:1762  returns (bytes4 retval) {... */\n      pop\n        /* \"src/Hulio.sol\":1144:1853  function _checkOnTransferReceived(... */\n    tag_185:\n      pop\n      pop\n      pop\n      pop\n      jump\t// out\n        /* \"lib/openzeppelin-contracts/contracts/utils/Nonces.sol\":538:645  function nonces(address owner) public view virtual returns (uint256) {... */\n    tag_121:\n        /* \"lib/openzeppelin-contracts/contracts/utils/Nonces.sol\":598:605  uint256 */\n      0x00\n        /* \"lib/openzeppelin-contracts/contracts/utils/Nonces.sol\":624:631  _nonces */\n      0x07\n        /* \"lib/openzeppelin-contracts/contracts/utils/Nonces.sol\":624:638  _nonces[owner] */\n      0x00\n        /* \"lib/openzeppelin-contracts/contracts/utils/Nonces.sol\":632:637  owner */\n      dup4\n        /* \"lib/openzeppelin-contracts/contracts/utils/Nonces.sol\":624:638  _nonces[owner] */\n      0xffffffffffffffffffffffffffffffffffffffff\n      and\n      0xffffffffffffffffffffffffffffffffffffffff\n      and\n      dup2\n      mstore\n      0x20\n      add\n      swap1\n      dup2\n      mstore\n      0x20\n      add\n      0x00\n      keccak256\n      sload\n        /* \"lib/openzeppelin-contracts/contracts/utils/Nonces.sol\":617:638  return _nonces[owner] */\n      swap1\n      pop\n        /* \"lib/openzeppelin-contracts/contracts/utils/Nonces.sol\":538:645  function nonces(address owner) public view virtual returns (uint256) {... */\n      swap2\n      swap1\n      pop\n      jump\t// out\n        /* \"lib/openzeppelin-contracts/contracts/utils/cryptography/EIP712.sol\":6021:6147  function _EIP712Name() internal view returns (string memory) {... */\n    tag_124:\n        /* \"lib/openzeppelin-contracts/contracts/utils/cryptography/EIP712.sol\":6067:6080  string memory */\n      0x60\n        /* \"lib/openzeppelin-contracts/contracts/utils/cryptography/EIP712.sol\":6099:6140  _name.toStringWithFallback(_nameFallback) */\n      tag_205\n        /* \"lib/openzeppelin-contracts/contracts/utils/cryptography/EIP712.sol\":6126:6139  _nameFallback */\n      0x05\n        /* \"lib/openzeppelin-contracts/contracts/utils/cryptography/EIP712.sol\":6099:6104  _name */\n      immutable(\"0xe64fdd85c4abae7e17a3b10cd3c6103a9078ecff4005141468b48a65e9465227\")\n        /* \"lib/openzeppelin-contracts/contracts/utils/cryptography/EIP712.sol\":6099:6125  _name.toStringWithFallback */\n      tag_206\n      swap1\n        /* \"lib/openzeppelin-contracts/contracts/utils/cryptography/EIP712.sol\":6099:6140  _name.toStringWithFallback(_nameFallback) */\n      swap2\n      swap1\n      0xffffffff\n      and\n      jump\t// in\n    tag_205:\n        /* \"lib/openzeppelin-contracts/contracts/utils/cryptography/EIP712.sol\":6092:6140  return _name.toStringWithFallback(_nameFallback) */\n      swap1\n      pop\n        /* \"lib/openzeppelin-contracts/contracts/utils/cryptography/EIP712.sol\":6021:6147  function _EIP712Name() internal view returns (string memory) {... */\n      swap1\n      jump\t// out\n        /* \"lib/openzeppelin-contracts/contracts/utils/cryptography/EIP712.sol\":6473:6608  function _EIP712Version() internal view returns (string memory) {... */\n    tag_126:\n        /* \"lib/openzeppelin-contracts/contracts/utils/cryptography/EIP712.sol\":6522:6535  string memory */\n      0x60\n        /* \"lib/openzeppelin-contracts/contracts/utils/cryptography/EIP712.sol\":6554:6601  _version.toStringWithFallback(_versionFallback) */\n      tag_208\n        /* \"lib/openzeppelin-contracts/contracts/utils/cryptography/EIP712.sol\":6584:6600  _versionFallback */\n      0x06\n        /* \"lib/openzeppelin-contracts/contracts/utils/cryptography/EIP712.sol\":6554:6562  _version */\n      immutable(\"0x0576ac738f6eb5dec558d18c8c4e9cf880acab01cda20f603a3d5950554aeaa1\")\n        /* \"lib/openzeppelin-contracts/contracts/utils/cryptography/EIP712.sol\":6554:6583  _version.toStringWithFallback */\n      tag_206\n      swap1\n        /* \"lib/openzeppelin-contracts/contracts/utils/cryptography/EIP712.sol\":6554:6601  _version.toStringWithFallback(_versionFallback) */\n      swap2\n      swap1\n      0xffffffff\n      and\n      jump\t// in\n    tag_208:\n        /* \"lib/openzeppelin-contracts/contracts/utils/cryptography/EIP712.sol\":6547:6601  return _version.toStringWithFallback(_versionFallback) */\n      swap1\n      pop\n        /* \"lib/openzeppelin-contracts/contracts/utils/cryptography/EIP712.sol\":6473:6608  function _EIP712Version() internal view returns (string memory) {... */\n      swap1\n      jump\t// out\n        /* \"lib/openzeppelin-contracts/contracts/utils/Nonces.sol\":759:1154  function _useNonce(address owner) internal virtual returns (uint256) {... */\n    tag_144:\n        /* \"lib/openzeppelin-contracts/contracts/utils/Nonces.sol\":819:826  uint256 */\n      0x00\n        /* \"lib/openzeppelin-contracts/contracts/utils/Nonces.sol\":1121:1128  _nonces */\n      0x07\n        /* \"lib/openzeppelin-contracts/contracts/utils/Nonces.sol\":1121:1135  _nonces[owner] */\n      0x00\n        /* \"lib/openzeppelin-contracts/contracts/utils/Nonces.sol\":1129:1134  owner */\n      dup4\n        /* \"lib/openzeppelin-contracts/contracts/utils/Nonces.sol\":1121:1135  _nonces[owner] */\n      0xffffffffffffffffffffffffffffffffffffffff\n      and\n      0xffffffffffffffffffffffffffffffffffffffff\n      and\n      dup2\n      mstore\n      0x20\n      add\n      swap1\n      dup2\n      mstore\n      0x20\n      add\n      0x00\n      keccak256\n      0x00\n        /* \"lib/openzeppelin-contracts/contracts/utils/Nonces.sol\":1121:1137  _nonces[owner]++ */\n      dup2\n      sload\n      dup1\n      swap3\n      swap2\n      swap1\n      0x01\n      add\n      swap2\n      swap1\n      pop\n      sstore\n        /* \"lib/openzeppelin-contracts/contracts/utils/Nonces.sol\":1114:1137  return _nonces[owner]++ */\n      swap1\n      pop\n        /* \"lib/openzeppelin-contracts/contracts/utils/Nonces.sol\":759:1154  function _useNonce(address owner) internal virtual returns (uint256) {... */\n      swap2\n      swap1\n      pop\n      jump\t// out\n        /* \"lib/openzeppelin-contracts/contracts/utils/cryptography/EIP712.sol\":4917:5093  function _hashTypedDataV4(bytes32 structHash) internal view virtual returns (bytes32) {... */\n    tag_148:\n        /* \"lib/openzeppelin-contracts/contracts/utils/cryptography/EIP712.sol\":4994:5001  bytes32 */\n      0x00\n        /* \"lib/openzeppelin-contracts/contracts/utils/cryptography/EIP712.sol\":5020:5086  MessageHashUtils.toTypedDataHash(_domainSeparatorV4(), structHash) */\n      tag_211\n        /* \"lib/openzeppelin-contracts/contracts/utils/cryptography/EIP712.sol\":5053:5073  _domainSeparatorV4() */\n      tag_212\n        /* \"lib/openzeppelin-contracts/contracts/utils/cryptography/EIP712.sol\":5053:5071  _domainSeparatorV4 */\n      tag_109\n        /* \"lib/openzeppelin-contracts/contracts/utils/cryptography/EIP712.sol\":5053:5073  _domainSeparatorV4() */\n      jump\t// in\n    tag_212:\n        /* \"lib/openzeppelin-contracts/contracts/utils/cryptography/EIP712.sol\":5075:5085  structHash */\n      dup4\n        /* \"lib/openzeppelin-contracts/contracts/utils/cryptography/EIP712.sol\":5020:5052  MessageHashUtils.toTypedDataHash */\n      tag_213\n        /* \"lib/openzeppelin-contracts/contracts/utils/cryptography/EIP712.sol\":5020:5086  MessageHashUtils.toTypedDataHash(_domainSeparatorV4(), structHash) */\n      jump\t// in\n    tag_211:\n        /* \"lib/openzeppelin-contracts/contracts/utils/cryptography/EIP712.sol\":5013:5086  return MessageHashUtils.toTypedDataHash(_domainSeparatorV4(), structHash) */\n      swap1\n      pop\n        /* \"lib/openzeppelin-contracts/contracts/utils/cryptography/EIP712.sol\":4917:5093  function _hashTypedDataV4(bytes32 structHash) internal view virtual returns (bytes32) {... */\n      swap2\n      swap1\n      pop\n      jump\t// out\n        /* \"lib/openzeppelin-contracts/contracts/utils/cryptography/ECDSA.sol\":6803:7063  function recover(bytes32 hash, uint8 v, bytes32 r, bytes32 s) internal pure returns (address) {... */\n    tag_150:\n        /* \"lib/openzeppelin-contracts/contracts/utils/cryptography/ECDSA.sol\":6888:6895  address */\n      0x00\n        /* \"lib/openzeppelin-contracts/contracts/utils/cryptography/ECDSA.sol\":6908:6925  address recovered */\n      dup1\n        /* \"lib/openzeppelin-contracts/contracts/utils/cryptography/ECDSA.sol\":6927:6945  RecoverError error */\n      0x00\n        /* \"lib/openzeppelin-contracts/contracts/utils/cryptography/ECDSA.sol\":6947:6963  bytes32 errorArg */\n      dup1\n        /* \"lib/openzeppelin-contracts/contracts/utils/cryptography/ECDSA.sol\":6967:6992  tryRecover(hash, v, r, s) */\n      tag_215\n        /* \"lib/openzeppelin-contracts/contracts/utils/cryptography/ECDSA.sol\":6978:6982  hash */\n      dup9\n        /* \"lib/openzeppelin-contracts/contracts/utils/cryptography/ECDSA.sol\":6984:6985  v */\n      dup9\n        /* \"lib/openzeppelin-contracts/contracts/utils/cryptography/ECDSA.sol\":6987:6988  r */\n      dup9\n        /* \"lib/openzeppelin-contracts/contracts/utils/cryptography/ECDSA.sol\":6990:6991  s */\n      dup9\n        /* \"lib/openzeppelin-contracts/contracts/utils/cryptography/ECDSA.sol\":6967:6977  tryRecover */\n      tag_216\n        /* \"lib/openzeppelin-contracts/contracts/utils/cryptography/ECDSA.sol\":6967:6992  tryRecover(hash, v, r, s) */\n      jump\t// in\n    tag_215:\n        /* \"lib/openzeppelin-contracts/contracts/utils/cryptography/ECDSA.sol\":6907:6992  (address recovered, RecoverError error, bytes32 errorArg) = tryRecover(hash, v, r, s) */\n      swap3\n      pop\n      swap3\n      pop\n      swap3\n      pop\n        /* \"lib/openzeppelin-contracts/contracts/utils/cryptography/ECDSA.sol\":7002:7030  _throwError(error, errorArg) */\n      tag_217\n        /* \"lib/openzeppelin-contracts/contracts/utils/cryptography/ECDSA.sol\":7014:7019  error */\n      dup3\n        /* \"lib/openzeppelin-contracts/contracts/utils/cryptography/ECDSA.sol\":7021:7029  errorArg */\n      dup3\n        /* \"lib/openzeppelin-contracts/contracts/utils/cryptography/ECDSA.sol\":7002:7013  _throwError */\n      tag_218\n        /* \"lib/openzeppelin-contracts/contracts/utils/cryptography/ECDSA.sol\":7002:7030  _throwError(error, errorArg) */\n      jump\t// in\n    tag_217:\n        /* \"lib/openzeppelin-contracts/contracts/utils/cryptography/ECDSA.sol\":7047:7056  recovered */\n      dup3\n        /* \"lib/openzeppelin-contracts/contracts/utils/cryptography/ECDSA.sol\":7040:7056  return recovered */\n      swap4\n      pop\n      pop\n      pop\n      pop\n        /* \"lib/openzeppelin-contracts/contracts/utils/cryptography/ECDSA.sol\":6803:7063  function recover(bytes32 hash, uint8 v, bytes32 r, bytes32 s) internal pure returns (address) {... */\n      swap5\n      swap4\n      pop\n      pop\n      pop\n      pop\n      jump\t// out\n        /* \"lib/openzeppelin-contracts/contracts/token/ERC20/ERC20.sol\":9949:10381  function _approve(address owner, address spender, uint256 value, bool emitEvent) internal virtual {... */\n    tag_159:\n        /* \"lib/openzeppelin-contracts/contracts/token/ERC20/ERC20.sol\":10078:10079  0 */\n      0x00\n        /* \"lib/openzeppelin-contracts/contracts/token/ERC20/ERC20.sol\":10061:10080  owner == address(0) */\n      0xffffffffffffffffffffffffffffffffffffffff\n      and\n        /* \"lib/openzeppelin-contracts/contracts/token/ERC20/ERC20.sol\":10061:10066  owner */\n      dup5\n        /* \"lib/openzeppelin-contracts/contracts/token/ERC20/ERC20.sol\":10061:10080  owner == address(0) */\n      0xffffffffffffffffffffffffffffffffffffffff\n      and\n      sub\n        /* \"lib/openzeppelin-contracts/contracts/token/ERC20/ERC20.sol\":10057:10146  if (owner == address(0)) {... */\n      tag_220\n      jumpi\n        /* \"lib/openzeppelin-contracts/contracts/token/ERC20/ERC20.sol\":10132:10133  0 */\n      0x00\n        /* \"lib/openzeppelin-contracts/contracts/token/ERC20/ERC20.sol\":10103:10135  ERC20InvalidApprover(address(0)) */\n      mload(0x40)\n      0xe602df0500000000000000000000000000000000000000000000000000000000\n      dup2\n      mstore\n      0x04\n      add\n      tag_221\n      swap2\n      swap1\n      tag_163\n      jump\t// in\n    tag_221:\n      mload(0x40)\n      dup1\n      swap2\n      sub\n      swap1\n      revert\n        /* \"lib/openzeppelin-contracts/contracts/token/ERC20/ERC20.sol\":10057:10146  if (owner == address(0)) {... */\n    tag_220:\n        /* \"lib/openzeppelin-contracts/contracts/token/ERC20/ERC20.sol\":10178:10179  0 */\n      0x00\n        /* \"lib/openzeppelin-contracts/contracts/token/ERC20/ERC20.sol\":10159:10180  spender == address(0) */\n      0xffffffffffffffffffffffffffffffffffffffff\n      and\n        /* \"lib/openzeppelin-contracts/contracts/token/ERC20/ERC20.sol\":10159:10166  spender */\n      dup4\n        /* \"lib/openzeppelin-contracts/contracts/token/ERC20/ERC20.sol\":10159:10180  spender == address(0) */\n      0xffffffffffffffffffffffffffffffffffffffff\n      and\n      sub\n        /* \"lib/openzeppelin-contracts/contracts/token/ERC20/ERC20.sol\":10155:10245  if (spender == address(0)) {... */\n      tag_222\n      jumpi\n        /* \"lib/openzeppelin-contracts/contracts/token/ERC20/ERC20.sol\":10231:10232  0 */\n      0x00\n        /* \"lib/openzeppelin-contracts/contracts/token/ERC20/ERC20.sol\":10203:10234  ERC20InvalidSpender(address(0)) */\n      mload(0x40)\n      0x94280d6200000000000000000000000000000000000000000000000000000000\n      dup2\n      mstore\n      0x04\n      add\n      tag_223\n      swap2\n      swap1\n      tag_163\n      jump\t// in\n    tag_223:\n      mload(0x40)\n      dup1\n      swap2\n      sub\n      swap1\n      revert\n        /* \"lib/openzeppelin-contracts/contracts/token/ERC20/ERC20.sol\":10155:10245  if (spender == address(0)) {... */\n    tag_222:\n        /* \"lib/openzeppelin-contracts/contracts/token/ERC20/ERC20.sol\":10284:10289  value */\n      dup2\n        /* \"lib/openzeppelin-contracts/contracts/token/ERC20/ERC20.sol\":10254:10265  _allowances */\n      0x01\n        /* \"lib/openzeppelin-contracts/contracts/token/ERC20/ERC20.sol\":10254:10272  _allowances[owner] */\n      0x00\n        /* \"lib/openzeppelin-contracts/contracts/token/ERC20/ERC20.sol\":10266:10271  owner */\n      dup7\n        /* \"lib/openzeppelin-contracts/contracts/token/ERC20/ERC20.sol\":10254:10272  _allowances[owner] */\n      0xffffffffffffffffffffffffffffffffffffffff\n      and\n      0xffffffffffffffffffffffffffffffffffffffff\n      and\n      dup2\n      mstore\n      0x20\n      add\n      swap1\n      dup2\n      mstore\n      0x20\n      add\n      0x00\n      keccak256\n        /* \"lib/openzeppelin-contracts/contracts/token/ERC20/ERC20.sol\":10254:10281  _allowances[owner][spender] */\n      0x00\n        /* \"lib/openzeppelin-contracts/contracts/token/ERC20/ERC20.sol\":10273:10280  spender */\n      dup6\n        /* \"lib/openzeppelin-contracts/contracts/token/ERC20/ERC20.sol\":10254:10281  _allowances[owner][spender] */\n      0xffffffffffffffffffffffffffffffffffffffff\n      and\n      0xffffffffffffffffffffffffffffffffffffffff\n      and\n      dup2\n      mstore\n      0x20\n      add\n      swap1\n      dup2\n      mstore\n      0x20\n      add\n      0x00\n      keccak256\n        /* \"lib/openzeppelin-contracts/contracts/token/ERC20/ERC20.sol\":10254:10289  _allowances[owner][spender] = value */\n      dup2\n      swap1\n      sstore\n      pop\n        /* \"lib/openzeppelin-contracts/contracts/token/ERC20/ERC20.sol\":10303:10312  emitEvent */\n      dup1\n        /* \"lib/openzeppelin-contracts/contracts/token/ERC20/ERC20.sol\":10299:10375  if (emitEvent) {... */\n      iszero\n      tag_224\n      jumpi\n        /* \"lib/openzeppelin-contracts/contracts/token/ERC20/ERC20.sol\":10349:10356  spender */\n      dup3\n        /* \"lib/openzeppelin-contracts/contracts/token/ERC20/ERC20.sol\":10333:10364  Approval(owner, spender, value) */\n      0xffffffffffffffffffffffffffffffffffffffff\n      and\n        /* \"lib/openzeppelin-contracts/contracts/token/ERC20/ERC20.sol\":10342:10347  owner */\n      dup5\n        /* \"lib/openzeppelin-contracts/contracts/token/ERC20/ERC20.sol\":10333:10364  Approval(owner, spender, value) */\n      0xffffffffffffffffffffffffffffffffffffffff\n      and\n      0x8c5be1e5ebec7d5bd14f71427d1e84f3dd0314c0f7b2291e5b200ac8c7c3b925\n        /* \"lib/openzeppelin-contracts/contracts/token/ERC20/ERC20.sol\":10358:10363  value */\n      dup5\n        /* \"lib/openzeppelin-contracts/contracts/token/ERC20/ERC20.sol\":10333:10364  Approval(owner, spender, value) */\n      mload(0x40)\n      tag_225\n      swap2\n      swap1\n      tag_36\n      jump\t// in\n    tag_225:\n      mload(0x40)\n      dup1\n      swap2\n      sub\n      swap1\n      log3\n        /* \"lib/openzeppelin-contracts/contracts/token/ERC20/ERC20.sol\":10299:10375  if (emitEvent) {... */\n    tag_224:\n        /* \"lib/openzeppelin-contracts/contracts/token/ERC20/ERC20.sol\":9949:10381  function _approve(address owner, address spender, uint256 value, bool emitEvent) internal virtual {... */\n      pop\n      pop\n      pop\n      pop\n      jump\t// out\n        /* \"lib/openzeppelin-contracts/contracts/token/ERC20/ERC20.sol\":6271:7378  function _update(address from, address to, uint256 value) internal virtual {... */\n    tag_165:\n        /* \"lib/openzeppelin-contracts/contracts/token/ERC20/ERC20.sol\":6376:6377  0 */\n      0x00\n        /* \"lib/openzeppelin-contracts/contracts/token/ERC20/ERC20.sol\":6360:6378  from == address(0) */\n      0xffffffffffffffffffffffffffffffffffffffff\n      and\n        /* \"lib/openzeppelin-contracts/contracts/token/ERC20/ERC20.sol\":6360:6364  from */\n      dup4\n        /* \"lib/openzeppelin-contracts/contracts/token/ERC20/ERC20.sol\":6360:6378  from == address(0) */\n      0xffffffffffffffffffffffffffffffffffffffff\n      and\n      sub\n        /* \"lib/openzeppelin-contracts/contracts/token/ERC20/ERC20.sol\":6356:6896  if (from == address(0)) {... */\n      tag_227\n      jumpi\n        /* \"lib/openzeppelin-contracts/contracts/token/ERC20/ERC20.sol\":6512:6517  value */\n      dup1\n        /* \"lib/openzeppelin-contracts/contracts/token/ERC20/ERC20.sol\":6496:6508  _totalSupply */\n      0x02\n      0x00\n        /* \"lib/openzeppelin-contracts/contracts/token/ERC20/ERC20.sol\":6496:6517  _totalSupply += value */\n      dup3\n      dup3\n      sload\n      tag_228\n      swap2\n      swap1\n      tag_229\n      jump\t// in\n    tag_228:\n      swap3\n      pop\n      pop\n      dup2\n      swap1\n      sstore\n      pop\n        /* \"lib/openzeppelin-contracts/contracts/token/ERC20/ERC20.sol\":6356:6896  if (from == address(0)) {... */\n      jump(tag_230)\n    tag_227:\n        /* \"lib/openzeppelin-contracts/contracts/token/ERC20/ERC20.sol\":6548:6567  uint256 fromBalance */\n      0x00\n        /* \"lib/openzeppelin-contracts/contracts/token/ERC20/ERC20.sol\":6570:6579  _balances */\n      dup1\n        /* \"lib/openzeppelin-contracts/contracts/token/ERC20/ERC20.sol\":6570:6585  _balances[from] */\n      0x00\n        /* \"lib/openzeppelin-contracts/contracts/token/ERC20/ERC20.sol\":6580:6584  from */\n      dup6\n        /* \"lib/openzeppelin-contracts/contracts/token/ERC20/ERC20.sol\":6570:6585  _balances[from] */\n      0xffffffffffffffffffffffffffffffffffffffff\n      and\n      0xffffffffffffffffffffffffffffffffffffffff\n      and\n      dup2\n      mstore\n      0x20\n      add\n      swap1\n      dup2\n      mstore\n      0x20\n      add\n      0x00\n      keccak256\n      sload\n        /* \"lib/openzeppelin-contracts/contracts/token/ERC20/ERC20.sol\":6548:6585  uint256 fromBalance = _balances[from] */\n      swap1\n      pop\n        /* \"lib/openzeppelin-contracts/contracts/token/ERC20/ERC20.sol\":6617:6622  value */\n      dup2\n        /* \"lib/openzeppelin-contracts/contracts/token/ERC20/ERC20.sol\":6603:6614  fromBalance */\n      dup2\n        /* \"lib/openzeppelin-contracts/contracts/token/ERC20/ERC20.sol\":6603:6622  fromBalance < value */\n      lt\n        /* \"lib/openzeppelin-contracts/contracts/token/ERC20/ERC20.sol\":6599:6714  if (fromBalance < value) {... */\n      iszero\n      tag_231\n      jumpi\n        /* \"lib/openzeppelin-contracts/contracts/token/ERC20/ERC20.sol\":6674:6678  from */\n      dup4\n        /* \"lib/openzeppelin-contracts/contracts/token/ERC20/ERC20.sol\":6680:6691  fromBalance */\n      dup2\n        /* \"lib/openzeppelin-contracts/contracts/token/ERC20/ERC20.sol\":6693:6698  value */\n      dup4\n        /* \"lib/openzeppelin-contracts/contracts/token/ERC20/ERC20.sol\":6649:6699  ERC20InsufficientBalance(from, fromBalance, value) */\n      mload(0x40)\n      0xe450d38c00000000000000000000000000000000000000000000000000000000\n      dup2\n      mstore\n      0x04\n      add\n      tag_232\n      swap4\n      swap3\n      swap2\n      swap1\n      tag_171\n      jump\t// in\n    tag_232:\n      mload(0x40)\n      dup1\n      swap2\n      sub\n      swap1\n      revert\n        /* \"lib/openzeppelin-contracts/contracts/token/ERC20/ERC20.sol\":6599:6714  if (fromBalance < value) {... */\n    tag_231:\n        /* \"lib/openzeppelin-contracts/contracts/token/ERC20/ERC20.sol\":6866:6871  value */\n      dup2\n        /* \"lib/openzeppelin-contracts/contracts/token/ERC20/ERC20.sol\":6852:6863  fromBalance */\n      dup2\n        /* \"lib/openzeppelin-contracts/contracts/token/ERC20/ERC20.sol\":6852:6871  fromBalance - value */\n      sub\n        /* \"lib/openzeppelin-contracts/contracts/token/ERC20/ERC20.sol\":6834:6843  _balances */\n      0x00\n        /* \"lib/openzeppelin-contracts/contracts/token/ERC20/ERC20.sol\":6834:6849  _balances[from] */\n      dup1\n        /* \"lib/openzeppelin-contracts/contracts/token/ERC20/ERC20.sol\":6844:6848  from */\n      dup7\n        /* \"lib/openzeppelin-contracts/contracts/token/ERC20/ERC20.sol\":6834:6849  _balances[from] */\n      0xffffffffffffffffffffffffffffffffffffffff\n      and\n      0xffffffffffffffffffffffffffffffffffffffff\n      and\n      dup2\n      mstore\n      0x20\n      add\n      swap1\n      dup2\n      mstore\n      0x20\n      add\n      0x00\n      keccak256\n        /* \"lib/openzeppelin-contracts/contracts/token/ERC20/ERC20.sol\":6834:6871  _balances[from] = fromBalance - value */\n      dup2\n      swap1\n      sstore\n      pop\n        /* \"lib/openzeppelin-contracts/contracts/token/ERC20/ERC20.sol\":6534:6896  {... */\n      pop\n        /* \"lib/openzeppelin-contracts/contracts/token/ERC20/ERC20.sol\":6356:6896  if (from == address(0)) {... */\n    tag_230:\n        /* \"lib/openzeppelin-contracts/contracts/token/ERC20/ERC20.sol\":6924:6925  0 */\n      0x00\n        /* \"lib/openzeppelin-contracts/contracts/token/ERC20/ERC20.sol\":6910:6926  to == address(0) */\n      0xffffffffffffffffffffffffffffffffffffffff\n      and\n        /* \"lib/openzeppelin-contracts/contracts/token/ERC20/ERC20.sol\":6910:6912  to */\n      dup3\n        /* \"lib/openzeppelin-contracts/contracts/token/ERC20/ERC20.sol\":6910:6926  to == address(0) */\n      0xffffffffffffffffffffffffffffffffffffffff\n      and\n      sub\n        /* \"lib/openzeppelin-contracts/contracts/token/ERC20/ERC20.sol\":6906:7331  if (to == address(0)) {... */\n      tag_233\n      jumpi\n        /* \"lib/openzeppelin-contracts/contracts/token/ERC20/ERC20.sol\":7089:7094  value */\n      dup1\n        /* \"lib/openzeppelin-contracts/contracts/token/ERC20/ERC20.sol\":7073:7085  _totalSupply */\n      0x02\n      0x00\n        /* \"lib/openzeppelin-contracts/contracts/token/ERC20/ERC20.sol\":7073:7094  _totalSupply -= value */\n      dup3\n      dup3\n      sload\n      sub\n      swap3\n      pop\n      pop\n      dup2\n      swap1\n      sstore\n      pop\n        /* \"lib/openzeppelin-contracts/contracts/token/ERC20/ERC20.sol\":6906:7331  if (to == address(0)) {... */\n      jump(tag_234)\n    tag_233:\n        /* \"lib/openzeppelin-contracts/contracts/token/ERC20/ERC20.sol\":7301:7306  value */\n      dup1\n        /* \"lib/openzeppelin-contracts/contracts/token/ERC20/ERC20.sol\":7284:7293  _balances */\n      0x00\n        /* \"lib/openzeppelin-contracts/contracts/token/ERC20/ERC20.sol\":7284:7297  _balances[to] */\n      dup1\n        /* \"lib/openzeppelin-contracts/contracts/token/ERC20/ERC20.sol\":7294:7296  to */\n      dup5\n        /* \"lib/openzeppelin-contracts/contracts/token/ERC20/ERC20.sol\":7284:7297  _balances[to] */\n      0xffffffffffffffffffffffffffffffffffffffff\n      and\n      0xffffffffffffffffffffffffffffffffffffffff\n      and\n      dup2\n      mstore\n      0x20\n      add\n      swap1\n      dup2\n      mstore\n      0x20\n      add\n      0x00\n      keccak256\n      0x00\n        /* \"lib/openzeppelin-contracts/contracts/token/ERC20/ERC20.sol\":7284:7306  _balances[to] += value */\n      dup3\n      dup3\n      sload\n      add\n      swap3\n      pop\n      pop\n      dup2\n      swap1\n      sstore\n      pop\n        /* \"lib/openzeppelin-contracts/contracts/token/ERC20/ERC20.sol\":6906:7331  if (to == address(0)) {... */\n    tag_234:\n        /* \"lib/openzeppelin-contracts/contracts/token/ERC20/ERC20.sol\":7361:7363  to */\n      dup2\n        /* \"lib/openzeppelin-contracts/contracts/token/ERC20/ERC20.sol\":7346:7371  Transfer(from, to, value) */\n      0xffffffffffffffffffffffffffffffffffffffff\n      and\n        /* \"lib/openzeppelin-contracts/contracts/token/ERC20/ERC20.sol\":7355:7359  from */\n      dup4\n        /* \"lib/openzeppelin-contracts/contracts/token/ERC20/ERC20.sol\":7346:7371  Transfer(from, to, value) */\n      0xffffffffffffffffffffffffffffffffffffffff\n      and\n      0xddf252ad1be2c89b69c2b068fc378daa952ba7f163c4a11628f55a4df523b3ef\n        /* \"lib/openzeppelin-contracts/contracts/token/ERC20/ERC20.sol\":7365:7370  value */\n      dup4\n        /* \"lib/openzeppelin-contracts/contracts/token/ERC20/ERC20.sol\":7346:7371  Transfer(from, to, value) */\n      mload(0x40)\n      tag_235\n      swap2\n      swap1\n      tag_36\n      jump\t// in\n    tag_235:\n      mload(0x40)\n      dup1\n      swap2\n      sub\n      swap1\n      log3\n        /* \"lib/openzeppelin-contracts/contracts/token/ERC20/ERC20.sol\":6271:7378  function _update(address from, address to, uint256 value) internal virtual {... */\n      pop\n      pop\n      pop\n      jump\t// out\n        /* \"lib/openzeppelin-contracts/contracts/utils/cryptography/EIP712.sol\":4113:4292  function _buildDomainSeparator() private view returns (bytes32) {... */\n    tag_184:\n        /* \"lib/openzeppelin-contracts/contracts/utils/cryptography/EIP712.sol\":4168:4175  bytes32 */\n      0x00\n        /* \"lib/openzeppelin-contracts/contracts/utils/cryptography/EIP712.sol\":2079:2174  keccak256(\"EIP712Domain(string name,string version,uint256 chainId,address verifyingContract)\") */\n      0x8b73c3c69bb8fe3d512ecc4cf759cc79239f7b179b0ffacaa9a75d522b39400f\n        /* \"lib/openzeppelin-contracts/contracts/utils/cryptography/EIP712.sol\":4226:4237  _hashedName */\n      immutable(\"0xfa139e0a4d7fbc5ae6f4faedf7906c4e534aedb3537f8e2acf261d5a583cbcdb\")\n        /* \"lib/openzeppelin-contracts/contracts/utils/cryptography/EIP712.sol\":4239:4253  _hashedVersion */\n      immutable(\"0xd745e4bbce3c217445e330bc909a038062e0d634734834832d66437076f9dbe0\")\n        /* \"lib/openzeppelin-contracts/contracts/utils/cryptography/EIP712.sol\":4255:4268  block.chainid */\n      chainid\n        /* \"lib/openzeppelin-contracts/contracts/utils/cryptography/EIP712.sol\":4278:4282  this */\n      address\n        /* \"lib/openzeppelin-contracts/contracts/utils/cryptography/EIP712.sol\":4204:4284  abi.encode(TYPE_HASH, _hashedName, _hashedVersion, block.chainid, address(this)) */\n      add(0x20, mload(0x40))\n      tag_237\n      swap6\n      swap5\n      swap4\n      swap3\n      swap2\n      swap1\n      tag_238\n      jump\t// in\n    tag_237:\n      mload(0x40)\n      0x20\n      dup2\n      dup4\n      sub\n      sub\n      dup2\n      mstore\n      swap1\n      0x40\n      mstore\n        /* \"lib/openzeppelin-contracts/contracts/utils/cryptography/EIP712.sol\":4194:4285  keccak256(abi.encode(TYPE_HASH, _hashedName, _hashedVersion, block.chainid, address(this))) */\n      dup1\n      mload\n      swap1\n      0x20\n      add\n      keccak256\n        /* \"lib/openzeppelin-contracts/contracts/utils/cryptography/EIP712.sol\":4187:4285  return keccak256(abi.encode(TYPE_HASH, _hashedName, _hashedVersion, block.chainid, address(this))) */\n      swap1\n      pop\n        /* \"lib/openzeppelin-contracts/contracts/utils/cryptography/EIP712.sol\":4113:4292  function _buildDomainSeparator() private view returns (bytes32) {... */\n      swap1\n      jump\t// out\n        /* \"lib/openzeppelin-contracts/contracts/utils/ShortStrings.sol\":3385:3652  function toStringWithFallback(ShortString value, string storage store) internal pure returns (string memory) {... */\n    tag_206:\n        /* \"lib/openzeppelin-contracts/contracts/utils/ShortStrings.sol\":3479:3492  string memory */\n      0x60\n        /* \"lib/openzeppelin-contracts/contracts/utils/ShortStrings.sol\":1390:1456  0x00000000000000000000000000000000000000000000000000000000000000FF */\n      0xff\n        /* \"lib/openzeppelin-contracts/contracts/utils/ShortStrings.sol\":3537:3554  FALLBACK_SENTINEL */\n      0x00\n      shl\n        /* \"lib/openzeppelin-contracts/contracts/utils/ShortStrings.sol\":3527:3532  value */\n      dup4\n        /* \"lib/openzeppelin-contracts/contracts/utils/ShortStrings.sol\":3508:3554  ShortString.unwrap(value) != FALLBACK_SENTINEL */\n      eq\n        /* \"lib/openzeppelin-contracts/contracts/utils/ShortStrings.sol\":3504:3646  if (ShortString.unwrap(value) != FALLBACK_SENTINEL) {... */\n      tag_240\n      jumpi\n        /* \"lib/openzeppelin-contracts/contracts/utils/ShortStrings.sol\":3577:3592  toString(value) */\n      tag_241\n        /* \"lib/openzeppelin-contracts/contracts/utils/ShortStrings.sol\":3586:3591  value */\n      dup4\n        /* \"lib/openzeppelin-contracts/contracts/utils/ShortStrings.sol\":3577:3585  toString */\n      tag_242\n        /* \"lib/openzeppelin-contracts/contracts/utils/ShortStrings.sol\":3577:3592  toString(value) */\n      jump\t// in\n    tag_241:\n        /* \"lib/openzeppelin-contracts/contracts/utils/ShortStrings.sol\":3570:3592  return toString(value) */\n      swap1\n      pop\n      jump(tag_239)\n        /* \"lib/openzeppelin-contracts/contracts/utils/ShortStrings.sol\":3504:3646  if (ShortString.unwrap(value) != FALLBACK_SENTINEL) {... */\n    tag_240:\n        /* \"lib/openzeppelin-contracts/contracts/utils/ShortStrings.sol\":3630:3635  store */\n      dup2\n        /* \"lib/openzeppelin-contracts/contracts/utils/ShortStrings.sol\":3623:3635  return store */\n      dup1\n      sload\n      tag_244\n      swap1\n      tag_86\n      jump\t// in\n    tag_244:\n      dup1\n      0x1f\n      add\n      0x20\n      dup1\n      swap2\n      div\n      mul\n      0x20\n      add\n      mload(0x40)\n      swap1\n      dup2\n      add\n      0x40\n      mstore\n      dup1\n      swap3\n      swap2\n      swap1\n      dup2\n      dup2\n      mstore\n      0x20\n      add\n      dup3\n      dup1\n      sload\n      tag_245\n      swap1\n      tag_86\n      jump\t// in\n    tag_245:\n      dup1\n      iszero\n      tag_246\n      jumpi\n      dup1\n      0x1f\n      lt\n      tag_247\n      jumpi\n      0x0100\n      dup1\n      dup4\n      sload\n      div\n      mul\n      dup4\n      mstore\n      swap2\n      0x20\n      add\n      swap2\n      jump(tag_246)\n    tag_247:\n      dup3\n      add\n      swap2\n      swap1\n      0x00\n      mstore\n      keccak256(0x00, 0x20)\n      swap1\n    tag_248:\n      dup2\n      sload\n      dup2\n      mstore\n      swap1\n      0x01\n      add\n      swap1\n      0x20\n      add\n      dup1\n      dup4\n      gt\n      tag_248\n      jumpi\n      dup3\n      swap1\n      sub\n      0x1f\n      and\n      dup3\n      add\n      swap2\n    tag_246:\n      pop\n      pop\n      pop\n      pop\n      pop\n      swap1\n      pop\n        /* \"lib/openzeppelin-contracts/contracts/utils/ShortStrings.sol\":3385:3652  function toStringWithFallback(ShortString value, string storage store) internal pure returns (string memory) {... */\n    tag_239:\n      swap3\n      swap2\n      pop\n      pop\n      jump\t// out\n        /* \"lib/openzeppelin-contracts/contracts/utils/cryptography/MessageHashUtils.sol\":3353:3754  function toTypedDataHash(bytes32 domainSeparator, bytes32 structHash) internal pure returns (bytes32 digest) {... */\n    tag_213:\n        /* \"lib/openzeppelin-contracts/contracts/utils/cryptography/MessageHashUtils.sol\":3446:3460  bytes32 digest */\n      0x00\n        /* \"lib/openzeppelin-contracts/contracts/utils/cryptography/MessageHashUtils.sol\":3555:3559  0x40 */\n      0x40\n        /* \"lib/openzeppelin-contracts/contracts/utils/cryptography/MessageHashUtils.sol\":3549:3560  mload(0x40) */\n      mload\n        /* \"lib/openzeppelin-contracts/contracts/utils/cryptography/MessageHashUtils.sol\":3585:3595  hex\"19_01\" */\n      0x1901000000000000000000000000000000000000000000000000000000000000\n        /* \"lib/openzeppelin-contracts/contracts/utils/cryptography/MessageHashUtils.sol\":3580:3583  ptr */\n      dup2\n        /* \"lib/openzeppelin-contracts/contracts/utils/cryptography/MessageHashUtils.sol\":3573:3596  mstore(ptr, hex\"19_01\") */\n      mstore\n        /* \"lib/openzeppelin-contracts/contracts/utils/cryptography/MessageHashUtils.sol\":3632:3647  domainSeparator */\n      dup4\n        /* \"lib/openzeppelin-contracts/contracts/utils/cryptography/MessageHashUtils.sol\":3625:3629  0x02 */\n      0x02\n        /* \"lib/openzeppelin-contracts/contracts/utils/cryptography/MessageHashUtils.sol\":3620:3623  ptr */\n      dup3\n        /* \"lib/openzeppelin-contracts/contracts/utils/cryptography/MessageHashUtils.sol\":3616:3630  add(ptr, 0x02) */\n      add\n        /* \"lib/openzeppelin-contracts/contracts/utils/cryptography/MessageHashUtils.sol\":3609:3648  mstore(add(ptr, 0x02), domainSeparator) */\n      mstore\n        /* \"lib/openzeppelin-contracts/contracts/utils/cryptography/MessageHashUtils.sol\":3684:3694  structHash */\n      dup3\n        /* \"lib/openzeppelin-contracts/contracts/utils/cryptography/MessageHashUtils.sol\":3677:3681  0x22 */\n      0x22\n        /* \"lib/openzeppelin-contracts/contracts/utils/cryptography/MessageHashUtils.sol\":3672:3675  ptr */\n      dup3\n        /* \"lib/openzeppelin-contracts/contracts/utils/cryptography/MessageHashUtils.sol\":3668:3682  add(ptr, 0x22) */\n      add\n        /* \"lib/openzeppelin-contracts/contracts/utils/cryptography/MessageHashUtils.sol\":3661:3695  mstore(add(ptr, 0x22), structHash) */\n      mstore\n        /* \"lib/openzeppelin-contracts/contracts/utils/cryptography/MessageHashUtils.sol\":3733:3737  0x42 */\n      0x42\n        /* \"lib/openzeppelin-contracts/contracts/utils/cryptography/MessageHashUtils.sol\":3728:3731  ptr */\n      dup2\n        /* \"lib/openzeppelin-contracts/contracts/utils/cryptography/MessageHashUtils.sol\":3718:3738  keccak256(ptr, 0x42) */\n      keccak256\n        /* \"lib/openzeppelin-contracts/contracts/utils/cryptography/MessageHashUtils.sol\":3708:3738  digest := keccak256(ptr, 0x42) */\n      swap2\n      pop\n        /* \"lib/openzeppelin-contracts/contracts/utils/cryptography/MessageHashUtils.sol\":3524:3748  {... */\n      pop\n        /* \"lib/openzeppelin-contracts/contracts/utils/cryptography/MessageHashUtils.sol\":3353:3754  function toTypedDataHash(bytes32 domainSeparator, bytes32 structHash) internal pure returns (bytes32 digest) {... */\n      swap3\n      swap2\n      pop\n      pop\n      jump\t// out\n        /* \"lib/openzeppelin-contracts/contracts/utils/cryptography/ECDSA.sol\":5140:6670  function tryRecover(... */\n    tag_216:\n        /* \"lib/openzeppelin-contracts/contracts/utils/cryptography/ECDSA.sol\":5266:5273  address */\n      0x00\n        /* \"lib/openzeppelin-contracts/contracts/utils/cryptography/ECDSA.sol\":5275:5287  RecoverError */\n      dup1\n        /* \"lib/openzeppelin-contracts/contracts/utils/cryptography/ECDSA.sol\":5289:5296  bytes32 */\n      0x00\n        /* \"lib/openzeppelin-contracts/contracts/utils/cryptography/ECDSA.sol\":6199:6265  0x7FFFFFFFFFFFFFFFFFFFFFFFFFFFFFFF5D576E7357A4501DDFE92F46681B20A0 */\n      0x7fffffffffffffffffffffffffffffff5d576e7357a4501ddfe92f46681b20a0\n        /* \"lib/openzeppelin-contracts/contracts/utils/cryptography/ECDSA.sol\":6194:6195  s */\n      dup5\n        /* \"lib/openzeppelin-contracts/contracts/utils/cryptography/ECDSA.sol\":6186:6196  uint256(s) */\n      0x00\n      shr\n        /* \"lib/openzeppelin-contracts/contracts/utils/cryptography/ECDSA.sol\":6186:6265  uint256(s) > 0x7FFFFFFFFFFFFFFFFFFFFFFFFFFFFFFF5D576E7357A4501DDFE92F46681B20A0 */\n      gt\n        /* \"lib/openzeppelin-contracts/contracts/utils/cryptography/ECDSA.sol\":6182:6346  if (uint256(s) > 0x7FFFFFFFFFFFFFFFFFFFFFFFFFFFFFFF5D576E7357A4501DDFE92F46681B20A0) {... */\n      iszero\n      tag_251\n      jumpi\n        /* \"lib/openzeppelin-contracts/contracts/utils/cryptography/ECDSA.sol\":6297:6298  0 */\n      0x00\n        /* \"lib/openzeppelin-contracts/contracts/utils/cryptography/ECDSA.sol\":6301:6331  RecoverError.InvalidSignatureS */\n      0x03\n        /* \"lib/openzeppelin-contracts/contracts/utils/cryptography/ECDSA.sol\":6333:6334  s */\n      dup6\n        /* \"lib/openzeppelin-contracts/contracts/utils/cryptography/ECDSA.sol\":6281:6335  return (address(0), RecoverError.InvalidSignatureS, s) */\n      swap3\n      pop\n      swap3\n      pop\n      swap3\n      pop\n      jump(tag_250)\n        /* \"lib/openzeppelin-contracts/contracts/utils/cryptography/ECDSA.sol\":6182:6346  if (uint256(s) > 0x7FFFFFFFFFFFFFFFFFFFFFFFFFFFFFFF5D576E7357A4501DDFE92F46681B20A0) {... */\n    tag_251:\n        /* \"lib/openzeppelin-contracts/contracts/utils/cryptography/ECDSA.sol\":6440:6454  address signer */\n      0x00\n        /* \"lib/openzeppelin-contracts/contracts/utils/cryptography/ECDSA.sol\":6457:6481  ecrecover(hash, v, r, s) */\n      0x01\n        /* \"lib/openzeppelin-contracts/contracts/utils/cryptography/ECDSA.sol\":6467:6471  hash */\n      dup9\n        /* \"lib/openzeppelin-contracts/contracts/utils/cryptography/ECDSA.sol\":6473:6474  v */\n      dup9\n        /* \"lib/openzeppelin-contracts/contracts/utils/cryptography/ECDSA.sol\":6476:6477  r */\n      dup9\n        /* \"lib/openzeppelin-contracts/contracts/utils/cryptography/ECDSA.sol\":6479:6480  s */\n      dup9\n        /* \"lib/openzeppelin-contracts/contracts/utils/cryptography/ECDSA.sol\":6457:6481  ecrecover(hash, v, r, s) */\n      mload(0x40)\n      0x00\n      dup2\n      mstore\n      0x20\n      add\n      0x40\n      mstore\n      mload(0x40)\n      tag_252\n      swap5\n      swap4\n      swap3\n      swap2\n      swap1\n      tag_253\n      jump\t// in\n    tag_252:\n      0x20\n      mload(0x40)\n      0x20\n      dup2\n      sub\n      swap1\n      dup1\n      dup5\n      sub\n      swap1\n      dup6\n      gas\n      staticcall\n      iszero\n      dup1\n      iszero\n      tag_255\n      jumpi\n      returndatasize\n      0x00\n      dup1\n      returndatacopy\n      revert(0x00, returndatasize)\n    tag_255:\n      pop\n      pop\n      pop\n      mload(sub(mload(0x40), 0x20))\n        /* \"lib/openzeppelin-contracts/contracts/utils/cryptography/ECDSA.sol\":6440:6481  address signer = ecrecover(hash, v, r, s) */\n      swap1\n      pop\n        /* \"lib/openzeppelin-contracts/contracts/utils/cryptography/ECDSA.sol\":6513:6514  0 */\n      0x00\n        /* \"lib/openzeppelin-contracts/contracts/utils/cryptography/ECDSA.sol\":6495:6515  signer == address(0) */\n      0xffffffffffffffffffffffffffffffffffffffff\n      and\n        /* \"lib/openzeppelin-contracts/contracts/utils/cryptography/ECDSA.sol\":6495:6501  signer */\n      dup2\n        /* \"lib/openzeppelin-contracts/contracts/utils/cryptography/ECDSA.sol\":6495:6515  signer == address(0) */\n      0xffffffffffffffffffffffffffffffffffffffff\n      and\n      sub\n        /* \"lib/openzeppelin-contracts/contracts/utils/cryptography/ECDSA.sol\":6491:6604  if (signer == address(0)) {... */\n      tag_256\n      jumpi\n        /* \"lib/openzeppelin-contracts/contracts/utils/cryptography/ECDSA.sol\":6547:6548  0 */\n      0x00\n        /* \"lib/openzeppelin-contracts/contracts/utils/cryptography/ECDSA.sol\":6551:6580  RecoverError.InvalidSignature */\n      0x01\n        /* \"lib/openzeppelin-contracts/contracts/utils/cryptography/ECDSA.sol\":6590:6591  0 */\n      0x00\n        /* \"lib/openzeppelin-contracts/contracts/utils/cryptography/ECDSA.sol\":6582:6592  bytes32(0) */\n      dup1\n      shl\n        /* \"lib/openzeppelin-contracts/contracts/utils/cryptography/ECDSA.sol\":6531:6593  return (address(0), RecoverError.InvalidSignature, bytes32(0)) */\n      swap4\n      pop\n      swap4\n      pop\n      swap4\n      pop\n      pop\n      jump(tag_250)\n        /* \"lib/openzeppelin-contracts/contracts/utils/cryptography/ECDSA.sol\":6491:6604  if (signer == address(0)) {... */\n    tag_256:\n        /* \"lib/openzeppelin-contracts/contracts/utils/cryptography/ECDSA.sol\":6622:6628  signer */\n      dup1\n        /* \"lib/openzeppelin-contracts/contracts/utils/cryptography/ECDSA.sol\":6630:6650  RecoverError.NoError */\n      0x00\n        /* \"lib/openzeppelin-contracts/contracts/utils/cryptography/ECDSA.sol\":6660:6661  0 */\n      dup1\n        /* \"lib/openzeppelin-contracts/contracts/utils/cryptography/ECDSA.sol\":6652:6662  bytes32(0) */\n      0x00\n      shl\n        /* \"lib/openzeppelin-contracts/contracts/utils/cryptography/ECDSA.sol\":6614:6663  return (signer, RecoverError.NoError, bytes32(0)) */\n      swap4\n      pop\n      swap4\n      pop\n      swap4\n      pop\n      pop\n        /* \"lib/openzeppelin-contracts/contracts/utils/cryptography/ECDSA.sol\":5140:6670  function tryRecover(... */\n    tag_250:\n      swap5\n      pop\n      swap5\n      pop\n      swap5\n      swap2\n      pop\n      pop\n      jump\t// out\n        /* \"lib/openzeppelin-contracts/contracts/utils/cryptography/ECDSA.sol\":7196:7728  function _throwError(RecoverError error, bytes32 errorArg) private pure {... */\n    tag_218:\n        /* \"lib/openzeppelin-contracts/contracts/utils/cryptography/ECDSA.sol\":7291:7311  RecoverError.NoError */\n      0x00\n        /* \"lib/openzeppelin-contracts/contracts/utils/cryptography/ECDSA.sol\":7282:7311  error == RecoverError.NoError */\n      0x03\n      dup2\n      gt\n      iszero\n      tag_258\n      jumpi\n      tag_259\n      tag_260\n      jump\t// in\n    tag_259:\n    tag_258:\n        /* \"lib/openzeppelin-contracts/contracts/utils/cryptography/ECDSA.sol\":7282:7287  error */\n      dup3\n        /* \"lib/openzeppelin-contracts/contracts/utils/cryptography/ECDSA.sol\":7282:7311  error == RecoverError.NoError */\n      0x03\n      dup2\n      gt\n      iszero\n      tag_261\n      jumpi\n      tag_262\n      tag_260\n      jump\t// in\n    tag_262:\n    tag_261:\n      sub\n        /* \"lib/openzeppelin-contracts/contracts/utils/cryptography/ECDSA.sol\":7278:7722  if (error == RecoverError.NoError) {... */\n      iszero\n        /* \"lib/openzeppelin-contracts/contracts/utils/cryptography/ECDSA.sol\":7327:7334  return; */\n      tag_257\n        /* \"lib/openzeppelin-contracts/contracts/utils/cryptography/ECDSA.sol\":7278:7722  if (error == RecoverError.NoError) {... */\n      jumpi\n        /* \"lib/openzeppelin-contracts/contracts/utils/cryptography/ECDSA.sol\":7387:7416  RecoverError.InvalidSignature */\n      0x01\n        /* \"lib/openzeppelin-contracts/contracts/utils/cryptography/ECDSA.sol\":7378:7416  error == RecoverError.InvalidSignature */\n      0x03\n      dup2\n      gt\n      iszero\n      tag_265\n      jumpi\n      tag_266\n      tag_260\n      jump\t// in\n    tag_266:\n    tag_265:\n        /* \"lib/openzeppelin-contracts/contracts/utils/cryptography/ECDSA.sol\":7378:7383  error */\n      dup3\n        /* \"lib/openzeppelin-contracts/contracts/utils/cryptography/ECDSA.sol\":7378:7416  error == RecoverError.InvalidSignature */\n      0x03\n      dup2\n      gt\n      iszero\n      tag_267\n      jumpi\n      tag_268\n      tag_260\n      jump\t// in\n    tag_268:\n    tag_267:\n      sub\n        /* \"lib/openzeppelin-contracts/contracts/utils/cryptography/ECDSA.sol\":7374:7722  if (error == RecoverError.InvalidSignature) {... */\n      tag_269\n      jumpi\n        /* \"lib/openzeppelin-contracts/contracts/utils/cryptography/ECDSA.sol\":7439:7462  ECDSAInvalidSignature() */\n      mload(0x40)\n      0xf645eedf00000000000000000000000000000000000000000000000000000000\n      dup2\n      mstore\n      0x04\n      add\n      mload(0x40)\n      dup1\n      swap2\n      sub\n      swap1\n      revert\n        /* \"lib/openzeppelin-contracts/contracts/utils/cryptography/ECDSA.sol\":7374:7722  if (error == RecoverError.InvalidSignature) {... */\n    tag_269:\n        /* \"lib/openzeppelin-contracts/contracts/utils/cryptography/ECDSA.sol\":7492:7527  RecoverError.InvalidSignatureLength */\n      0x02\n        /* \"lib/openzeppelin-contracts/contracts/utils/cryptography/ECDSA.sol\":7483:7527  error == RecoverError.InvalidSignatureLength */\n      0x03\n      dup2\n      gt\n      iszero\n      tag_271\n      jumpi\n      tag_272\n      tag_260\n      jump\t// in\n    tag_272:\n    tag_271:\n        /* \"lib/openzeppelin-contracts/contracts/utils/cryptography/ECDSA.sol\":7483:7488  error */\n      dup3\n        /* \"lib/openzeppelin-contracts/contracts/utils/cryptography/ECDSA.sol\":7483:7527  error == RecoverError.InvalidSignatureLength */\n      0x03\n      dup2\n      gt\n      iszero\n      tag_273\n      jumpi\n      tag_274\n      tag_260\n      jump\t// in\n    tag_274:\n    tag_273:\n      sub\n        /* \"lib/openzeppelin-contracts/contracts/utils/cryptography/ECDSA.sol\":7479:7722  if (error == RecoverError.InvalidSignatureLength) {... */\n      tag_275\n      jumpi\n        /* \"lib/openzeppelin-contracts/contracts/utils/cryptography/ECDSA.sol\":7586:7594  errorArg */\n      dup1\n        /* \"lib/openzeppelin-contracts/contracts/utils/cryptography/ECDSA.sol\":7578:7595  uint256(errorArg) */\n      0x00\n      shr\n        /* \"lib/openzeppelin-contracts/contracts/utils/cryptography/ECDSA.sol\":7550:7596  ECDSAInvalidSignatureLength(uint256(errorArg)) */\n      mload(0x40)\n      0xfce698f700000000000000000000000000000000000000000000000000000000\n      dup2\n      mstore\n      0x04\n      add\n      tag_276\n      swap2\n      swap1\n      tag_36\n      jump\t// in\n    tag_276:\n      mload(0x40)\n      dup1\n      swap2\n      sub\n      swap1\n      revert\n        /* \"lib/openzeppelin-contracts/contracts/utils/cryptography/ECDSA.sol\":7479:7722  if (error == RecoverError.InvalidSignatureLength) {... */\n    tag_275:\n        /* \"lib/openzeppelin-contracts/contracts/utils/cryptography/ECDSA.sol\":7626:7656  RecoverError.InvalidSignatureS */\n      0x03\n        /* \"lib/openzeppelin-contracts/contracts/utils/cryptography/ECDSA.sol\":7617:7656  error == RecoverError.InvalidSignatureS */\n      dup1\n      dup2\n      gt\n      iszero\n      tag_278\n      jumpi\n      tag_279\n      tag_260\n      jump\t// in\n    tag_279:\n    tag_278:\n        /* \"lib/openzeppelin-contracts/contracts/utils/cryptography/ECDSA.sol\":7617:7622  error */\n      dup3\n        /* \"lib/openzeppelin-contracts/contracts/utils/cryptography/ECDSA.sol\":7617:7656  error == RecoverError.InvalidSignatureS */\n      0x03\n      dup2\n      gt\n      iszero\n      tag_280\n      jumpi\n      tag_281\n      tag_260\n      jump\t// in\n    tag_281:\n    tag_280:\n      sub\n        /* \"lib/openzeppelin-contracts/contracts/utils/cryptography/ECDSA.sol\":7613:7722  if (error == RecoverError.InvalidSignatureS) {... */\n      tag_282\n      jumpi\n        /* \"lib/openzeppelin-contracts/contracts/utils/cryptography/ECDSA.sol\":7702:7710  errorArg */\n      dup1\n        /* \"lib/openzeppelin-contracts/contracts/utils/cryptography/ECDSA.sol\":7679:7711  ECDSAInvalidSignatureS(errorArg) */\n      mload(0x40)\n      0xd78bce0c00000000000000000000000000000000000000000000000000000000\n      dup2\n      mstore\n      0x04\n      add\n      tag_283\n      swap2\n      swap1\n      tag_49\n      jump\t// in\n    tag_283:\n      mload(0x40)\n      dup1\n      swap2\n      sub\n      swap1\n      revert\n        /* \"lib/openzeppelin-contracts/contracts/utils/cryptography/ECDSA.sol\":7613:7722  if (error == RecoverError.InvalidSignatureS) {... */\n    tag_282:\n        /* \"lib/openzeppelin-contracts/contracts/utils/cryptography/ECDSA.sol\":7196:7728  function _throwError(RecoverError error, bytes32 errorArg) private pure {... */\n    tag_257:\n      pop\n      pop\n      jump\t// out\n        /* \"lib/openzeppelin-contracts/contracts/utils/ShortStrings.sol\":2078:2483  function toString(ShortString sstr) internal pure returns (string memory) {... */\n    tag_242:\n        /* \"lib/openzeppelin-contracts/contracts/utils/ShortStrings.sol\":2137:2150  string memory */\n      0x60\n        /* \"lib/openzeppelin-contracts/contracts/utils/ShortStrings.sol\":2162:2173  uint256 len */\n      0x00\n        /* \"lib/openzeppelin-contracts/contracts/utils/ShortStrings.sol\":2176:2192  byteLength(sstr) */\n      tag_285\n        /* \"lib/openzeppelin-contracts/contracts/utils/ShortStrings.sol\":2187:2191  sstr */\n      dup4\n        /* \"lib/openzeppelin-contracts/contracts/utils/ShortStrings.sol\":2176:2186  byteLength */\n      tag_286\n        /* \"lib/openzeppelin-contracts/contracts/utils/ShortStrings.sol\":2176:2192  byteLength(sstr) */\n      jump\t// in\n    tag_285:\n        /* \"lib/openzeppelin-contracts/contracts/utils/ShortStrings.sol\":2162:2192  uint256 len = byteLength(sstr) */\n      swap1\n      pop\n        /* \"lib/openzeppelin-contracts/contracts/utils/ShortStrings.sol\":2280:2297  string memory str */\n      0x00\n        /* \"lib/openzeppelin-contracts/contracts/utils/ShortStrings.sol\":2311:2313  32 */\n      0x20\n        /* \"lib/openzeppelin-contracts/contracts/utils/ShortStrings.sol\":2300:2314  new string(32) */\n      0xffffffffffffffff\n      dup2\n      gt\n      iszero\n      tag_287\n      jumpi\n      tag_288\n      tag_129\n      jump\t// in\n    tag_288:\n    tag_287:\n      mload(0x40)\n      swap1\n      dup1\n      dup3\n      mstore\n      dup1\n      0x1f\n      add\n      not(0x1f)\n      and\n      0x20\n      add\n      dup3\n      add\n      0x40\n      mstore\n      dup1\n      iszero\n      tag_289\n      jumpi\n      dup2\n      0x20\n      add\n      0x01\n      dup3\n      mul\n      dup1\n      calldatasize\n      dup4\n      calldatacopy\n      dup1\n      dup3\n      add\n      swap2\n      pop\n      pop\n      swap1\n      pop\n    tag_289:\n      pop\n        /* \"lib/openzeppelin-contracts/contracts/utils/ShortStrings.sol\":2280:2314  string memory str = new string(32) */\n      swap1\n      pop\n        /* \"lib/openzeppelin-contracts/contracts/utils/ShortStrings.sol\":2402:2405  len */\n      dup2\n        /* \"lib/openzeppelin-contracts/contracts/utils/ShortStrings.sol\":2397:2400  str */\n      dup2\n        /* \"lib/openzeppelin-contracts/contracts/utils/ShortStrings.sol\":2390:2406  mstore(str, len) */\n      mstore\n        /* \"lib/openzeppelin-contracts/contracts/utils/ShortStrings.sol\":2442:2446  sstr */\n      dup4\n        /* \"lib/openzeppelin-contracts/contracts/utils/ShortStrings.sol\":2435:2439  0x20 */\n      0x20\n        /* \"lib/openzeppelin-contracts/contracts/utils/ShortStrings.sol\":2430:2433  str */\n      dup3\n        /* \"lib/openzeppelin-contracts/contracts/utils/ShortStrings.sol\":2426:2440  add(str, 0x20) */\n      add\n        /* \"lib/openzeppelin-contracts/contracts/utils/ShortStrings.sol\":2419:2447  mstore(add(str, 0x20), sstr) */\n      mstore\n        /* \"lib/openzeppelin-contracts/contracts/utils/ShortStrings.sol\":2473:2476  str */\n      dup1\n        /* \"lib/openzeppelin-contracts/contracts/utils/ShortStrings.sol\":2466:2476  return str */\n      swap3\n      pop\n      pop\n      pop\n        /* \"lib/openzeppelin-contracts/contracts/utils/ShortStrings.sol\":2078:2483  function toString(ShortString sstr) internal pure returns (string memory) {... */\n      swap2\n      swap1\n      pop\n      jump\t// out\n        /* \"lib/openzeppelin-contracts/contracts/utils/ShortStrings.sol\":2555:2800  function byteLength(ShortString sstr) internal pure returns (uint256) {... */\n    tag_286:\n        /* \"lib/openzeppelin-contracts/contracts/utils/ShortStrings.sol\":2616:2623  uint256 */\n      0x00\n        /* \"lib/openzeppelin-contracts/contracts/utils/ShortStrings.sol\":2635:2649  uint256 result */\n      dup1\n        /* \"lib/openzeppelin-contracts/contracts/utils/ShortStrings.sol\":2688:2692  0xFF */\n      0xff\n        /* \"lib/openzeppelin-contracts/contracts/utils/ShortStrings.sol\":2679:2683  sstr */\n      dup4\n        /* \"lib/openzeppelin-contracts/contracts/utils/ShortStrings.sol\":2652:2685  uint256(ShortString.unwrap(sstr)) */\n      0x00\n      shr\n        /* \"lib/openzeppelin-contracts/contracts/utils/ShortStrings.sol\":2652:2692  uint256(ShortString.unwrap(sstr)) & 0xFF */\n      and\n        /* \"lib/openzeppelin-contracts/contracts/utils/ShortStrings.sol\":2635:2692  uint256 result = uint256(ShortString.unwrap(sstr)) & 0xFF */\n      swap1\n      pop\n        /* \"lib/openzeppelin-contracts/contracts/utils/ShortStrings.sol\":2715:2717  31 */\n      0x1f\n        /* \"lib/openzeppelin-contracts/contracts/utils/ShortStrings.sol\":2706:2712  result */\n      dup2\n        /* \"lib/openzeppelin-contracts/contracts/utils/ShortStrings.sol\":2706:2717  result > 31 */\n      gt\n        /* \"lib/openzeppelin-contracts/contracts/utils/ShortStrings.sol\":2702:2771  if (result > 31) {... */\n      iszero\n      tag_291\n      jumpi\n        /* \"lib/openzeppelin-contracts/contracts/utils/ShortStrings.sol\":2740:2760  InvalidShortString() */\n      mload(0x40)\n      0xb3512b0c00000000000000000000000000000000000000000000000000000000\n      dup2\n      mstore\n      0x04\n      add\n      mload(0x40)\n      dup1\n      swap2\n      sub\n      swap1\n      revert\n        /* \"lib/openzeppelin-contracts/contracts/utils/ShortStrings.sol\":2702:2771  if (result > 31) {... */\n    tag_291:\n        /* \"lib/openzeppelin-contracts/contracts/utils/ShortStrings.sol\":2787:2793  result */\n      dup1\n        /* \"lib/openzeppelin-contracts/contracts/utils/ShortStrings.sol\":2780:2793  return result */\n      swap2\n      pop\n      pop\n        /* \"lib/openzeppelin-contracts/contracts/utils/ShortStrings.sol\":2555:2800  function byteLength(ShortString sstr) internal pure returns (uint256) {... */\n      swap2\n      swap1\n      pop\n      jump\t// out\n        /* \"#utility.yul\":7:106   */\n    tag_292:\n        /* \"#utility.yul\":59:65   */\n      0x00\n        /* \"#utility.yul\":93:98   */\n      dup2\n        /* \"#utility.yul\":87:99   */\n      mload\n        /* \"#utility.yul\":77:99   */\n      swap1\n      pop\n        /* \"#utility.yul\":7:106   */\n      swap2\n      swap1\n      pop\n      jump\t// out\n        /* \"#utility.yul\":112:281   */\n    tag_293:\n        /* \"#utility.yul\":196:207   */\n      0x00\n        /* \"#utility.yul\":230:236   */\n      dup3\n        /* \"#utility.yul\":225:228   */\n      dup3\n        /* \"#utility.yul\":218:237   */\n      mstore\n        /* \"#utility.yul\":270:274   */\n      0x20\n        /* \"#utility.yul\":265:268   */\n      dup3\n        /* \"#utility.yul\":261:275   */\n      add\n        /* \"#utility.yul\":246:275   */\n      swap1\n      pop\n        /* \"#utility.yul\":112:281   */\n      swap3\n      swap2\n      pop\n      pop\n      jump\t// out\n        /* \"#utility.yul\":287:426   */\n    tag_294:\n        /* \"#utility.yul\":376:382   */\n      dup3\n        /* \"#utility.yul\":371:374   */\n      dup2\n        /* \"#utility.yul\":366:369   */\n      dup4\n        /* \"#utility.yul\":360:383   */\n      mcopy\n        /* \"#utility.yul\":417:418   */\n      0x00\n        /* \"#utility.yul\":408:414   */\n      dup4\n        /* \"#utility.yul\":403:406   */\n      dup4\n        /* \"#utility.yul\":399:415   */\n      add\n        /* \"#utility.yul\":392:419   */\n      mstore\n        /* \"#utility.yul\":287:426   */\n      pop\n      pop\n      pop\n      jump\t// out\n        /* \"#utility.yul\":432:534   */\n    tag_295:\n        /* \"#utility.yul\":473:479   */\n      0x00\n        /* \"#utility.yul\":524:526   */\n      0x1f\n        /* \"#utility.yul\":520:527   */\n      not\n        /* \"#utility.yul\":515:517   */\n      0x1f\n        /* \"#utility.yul\":508:513   */\n      dup4\n        /* \"#utility.yul\":504:518   */\n      add\n        /* \"#utility.yul\":500:528   */\n      and\n        /* \"#utility.yul\":490:528   */\n      swap1\n      pop\n        /* \"#utility.yul\":432:534   */\n      swap2\n      swap1\n      pop\n      jump\t// out\n        /* \"#utility.yul\":540:917   */\n    tag_296:\n        /* \"#utility.yul\":628:631   */\n      0x00\n        /* \"#utility.yul\":656:695   */\n      tag_346\n        /* \"#utility.yul\":689:694   */\n      dup3\n        /* \"#utility.yul\":656:695   */\n      tag_292\n      jump\t// in\n    tag_346:\n        /* \"#utility.yul\":711:782   */\n      tag_347\n        /* \"#utility.yul\":775:781   */\n      dup2\n        /* \"#utility.yul\":770:773   */\n      dup6\n        /* \"#utility.yul\":711:782   */\n      tag_293\n      jump\t// in\n    tag_347:\n        /* \"#utility.yul\":704:782   */\n      swap4\n      pop\n        /* \"#utility.yul\":791:856   */\n      tag_348\n        /* \"#utility.yul\":849:855   */\n      dup2\n        /* \"#utility.yul\":844:847   */\n      dup6\n        /* \"#utility.yul\":837:841   */\n      0x20\n        /* \"#utility.yul\":830:835   */\n      dup7\n        /* \"#utility.yul\":826:842   */\n      add\n        /* \"#utility.yul\":791:856   */\n      tag_294\n      jump\t// in\n    tag_348:\n        /* \"#utility.yul\":881:910   */\n      tag_349\n        /* \"#utility.yul\":903:909   */\n      dup2\n        /* \"#utility.yul\":881:910   */\n      tag_295\n      jump\t// in\n    tag_349:\n        /* \"#utility.yul\":876:879   */\n      dup5\n        /* \"#utility.yul\":872:911   */\n      add\n        /* \"#utility.yul\":865:911   */\n      swap2\n      pop\n        /* \"#utility.yul\":632:917   */\n      pop\n        /* \"#utility.yul\":540:917   */\n      swap3\n      swap2\n      pop\n      pop\n      jump\t// out\n        /* \"#utility.yul\":923:1236   */\n    tag_24:\n        /* \"#utility.yul\":1036:1040   */\n      0x00\n        /* \"#utility.yul\":1074:1076   */\n      0x20\n        /* \"#utility.yul\":1063:1072   */\n      dup3\n        /* \"#utility.yul\":1059:1077   */\n      add\n        /* \"#utility.yul\":1051:1077   */\n      swap1\n      pop\n        /* \"#utility.yul\":1123:1132   */\n      dup2\n        /* \"#utility.yul\":1117:1121   */\n      dup2\n        /* \"#utility.yul\":1113:1133   */\n      sub\n        /* \"#utility.yul\":1109:1110   */\n      0x00\n        /* \"#utility.yul\":1098:1107   */\n      dup4\n        /* \"#utility.yul\":1094:1111   */\n      add\n        /* \"#utility.yul\":1087:1134   */\n      mstore\n        /* \"#utility.yul\":1151:1229   */\n      tag_351\n        /* \"#utility.yul\":1224:1228   */\n      dup2\n        /* \"#utility.yul\":1215:1221   */\n      dup5\n        /* \"#utility.yul\":1151:1229   */\n      tag_296\n      jump\t// in\n    tag_351:\n        /* \"#utility.yul\":1143:1229   */\n      swap1\n      pop\n        /* \"#utility.yul\":923:1236   */\n      swap3\n      swap2\n      pop\n      pop\n      jump\t// out\n        /* \"#utility.yul\":1323:1440   */\n    tag_298:\n        /* \"#utility.yul\":1432:1433   */\n      0x00\n        /* \"#utility.yul\":1429:1430   */\n      dup1\n        /* \"#utility.yul\":1422:1434   */\n      revert\n        /* \"#utility.yul\":1446:1563   */\n    tag_299:\n        /* \"#utility.yul\":1555:1556   */\n      0x00\n        /* \"#utility.yul\":1552:1553   */\n      dup1\n        /* \"#utility.yul\":1545:1557   */\n      revert\n        /* \"#utility.yul\":1569:1695   */\n    tag_300:\n        /* \"#utility.yul\":1606:1613   */\n      0x00\n        /* \"#utility.yul\":1646:1688   */\n      0xffffffffffffffffffffffffffffffffffffffff\n        /* \"#utility.yul\":1639:1644   */\n      dup3\n        /* \"#utility.yul\":1635:1689   */\n      and\n        /* \"#utility.yul\":1624:1689   */\n      swap1\n      pop\n        /* \"#utility.yul\":1569:1695   */\n      swap2\n      swap1\n      pop\n      jump\t// out\n        /* \"#utility.yul\":1701:1797   */\n    tag_301:\n        /* \"#utility.yul\":1738:1745   */\n      0x00\n        /* \"#utility.yul\":1767:1791   */\n      tag_357\n        /* \"#utility.yul\":1785:1790   */\n      dup3\n        /* \"#utility.yul\":1767:1791   */\n      tag_300\n      jump\t// in\n    tag_357:\n        /* \"#utility.yul\":1756:1791   */\n      swap1\n      pop\n        /* \"#utility.yul\":1701:1797   */\n      swap2\n      swap1\n      pop\n      jump\t// out\n        /* \"#utility.yul\":1803:1925   */\n    tag_302:\n        /* \"#utility.yul\":1876:1900   */\n      tag_359\n        /* \"#utility.yul\":1894:1899   */\n      dup2\n        /* \"#utility.yul\":1876:1900   */\n      tag_301\n      jump\t// in\n    tag_359:\n        /* \"#utility.yul\":1869:1874   */\n      dup2\n        /* \"#utility.yul\":1866:1901   */\n      eq\n        /* \"#utility.yul\":1856:1919   */\n      tag_360\n      jumpi\n        /* \"#utility.yul\":1915:1916   */\n      0x00\n        /* \"#utility.yul\":1912:1913   */\n      dup1\n        /* \"#utility.yul\":1905:1917   */\n      revert\n        /* \"#utility.yul\":1856:1919   */\n    tag_360:\n        /* \"#utility.yul\":1803:1925   */\n      pop\n      jump\t// out\n        /* \"#utility.yul\":1931:2070   */\n    tag_303:\n        /* \"#utility.yul\":1977:1982   */\n      0x00\n        /* \"#utility.yul\":2015:2021   */\n      dup2\n        /* \"#utility.yul\":2002:2022   */\n      calldataload\n        /* \"#utility.yul\":1993:2022   */\n      swap1\n      pop\n        /* \"#utility.yul\":2031:2064   */\n      tag_362\n        /* \"#utility.yul\":2058:2063   */\n      dup2\n        /* \"#utility.yul\":2031:2064   */\n      tag_302\n      jump\t// in\n    tag_362:\n        /* \"#utility.yul\":1931:2070   */\n      swap3\n      swap2\n      pop\n      pop\n      jump\t// out\n        /* \"#utility.yul\":2076:2153   */\n    tag_304:\n        /* \"#utility.yul\":2113:2120   */\n      0x00\n        /* \"#utility.yul\":2142:2147   */\n      dup2\n        /* \"#utility.yul\":2131:2147   */\n      swap1\n      pop\n        /* \"#utility.yul\":2076:2153   */\n      swap2\n      swap1\n      pop\n      jump\t// out\n        /* \"#utility.yul\":2159:2281   */\n    tag_305:\n        /* \"#utility.yul\":2232:2256   */\n      tag_365\n        /* \"#utility.yul\":2250:2255   */\n      dup2\n        /* \"#utility.yul\":2232:2256   */\n      tag_304\n      jump\t// in\n    tag_365:\n        /* \"#utility.yul\":2225:2230   */\n      dup2\n        /* \"#utility.yul\":2222:2257   */\n      eq\n        /* \"#utility.yul\":2212:2275   */\n      tag_366\n      jumpi\n        /* \"#utility.yul\":2271:2272   */\n      0x00\n        /* \"#utility.yul\":2268:2269   */\n      dup1\n        /* \"#utility.yul\":2261:2273   */\n      revert\n        /* \"#utility.yul\":2212:2275   */\n    tag_366:\n        /* \"#utility.yul\":2159:2281   */\n      pop\n      jump\t// out\n        /* \"#utility.yul\":2287:2426   */\n    tag_306:\n        /* \"#utility.yul\":2333:2338   */\n      0x00\n        /* \"#utility.yul\":2371:2377   */\n      dup2\n        /* \"#utility.yul\":2358:2378   */\n      calldataload\n        /* \"#utility.yul\":2349:2378   */\n      swap1\n      pop\n        /* \"#utility.yul\":2387:2420   */\n      tag_368\n        /* \"#utility.yul\":2414:2419   */\n      dup2\n        /* \"#utility.yul\":2387:2420   */\n      tag_305\n      jump\t// in\n    tag_368:\n        /* \"#utility.yul\":2287:2426   */\n      swap3\n      swap2\n      pop\n      pop\n      jump\t// out\n        /* \"#utility.yul\":2432:2906   */\n    tag_27:\n        /* \"#utility.yul\":2500:2506   */\n      0x00\n        /* \"#utility.yul\":2508:2514   */\n      dup1\n        /* \"#utility.yul\":2557:2559   */\n      0x40\n        /* \"#utility.yul\":2545:2554   */\n      dup4\n        /* \"#utility.yul\":2536:2543   */\n      dup6\n        /* \"#utility.yul\":2532:2555   */\n      sub\n        /* \"#utility.yul\":2528:2560   */\n      slt\n        /* \"#utility.yul\":2525:2644   */\n      iszero\n      tag_370\n      jumpi\n        /* \"#utility.yul\":2563:2642   */\n      tag_371\n      tag_298\n      jump\t// in\n    tag_371:\n        /* \"#utility.yul\":2525:2644   */\n    tag_370:\n        /* \"#utility.yul\":2683:2684   */\n      0x00\n        /* \"#utility.yul\":2708:2761   */\n      tag_372\n        /* \"#utility.yul\":2753:2760   */\n      dup6\n        /* \"#utility.yul\":2744:2750   */\n      dup3\n        /* \"#utility.yul\":2733:2742   */\n      dup7\n        /* \"#utility.yul\":2729:2751   */\n      add\n        /* \"#utility.yul\":2708:2761   */\n      tag_303\n      jump\t// in\n    tag_372:\n        /* \"#utility.yul\":2698:2761   */\n      swap3\n      pop\n        /* \"#utility.yul\":2654:2771   */\n      pop\n        /* \"#utility.yul\":2810:2812   */\n      0x20\n        /* \"#utility.yul\":2836:2889   */\n      tag_373\n        /* \"#utility.yul\":2881:2888   */\n      dup6\n        /* \"#utility.yul\":2872:2878   */\n      dup3\n        /* \"#utility.yul\":2861:2870   */\n      dup7\n        /* \"#utility.yul\":2857:2879   */\n      add\n        /* \"#utility.yul\":2836:2889   */\n      tag_306\n      jump\t// in\n    tag_373:\n        /* \"#utility.yul\":2826:2889   */\n      swap2\n      pop\n        /* \"#utility.yul\":2781:2899   */\n      pop\n        /* \"#utility.yul\":2432:2906   */\n      swap3\n      pop\n      swap3\n      swap1\n      pop\n      jump\t// out\n        /* \"#utility.yul\":2912:3002   */\n    tag_307:\n        /* \"#utility.yul\":2946:2953   */\n      0x00\n        /* \"#utility.yul\":2989:2994   */\n      dup2\n        /* \"#utility.yul\":2982:2995   */\n      iszero\n        /* \"#utility.yul\":2975:2996   */\n      iszero\n        /* \"#utility.yul\":2964:2996   */\n      swap1\n      pop\n        /* \"#utility.yul\":2912:3002   */\n      swap2\n      swap1\n      pop\n      jump\t// out\n        /* \"#utility.yul\":3008:3117   */\n    tag_308:\n        /* \"#utility.yul\":3089:3110   */\n      tag_376\n        /* \"#utility.yul\":3104:3109   */\n      dup2\n        /* \"#utility.yul\":3089:3110   */\n      tag_307\n      jump\t// in\n    tag_376:\n        /* \"#utility.yul\":3084:3087   */\n      dup3\n        /* \"#utility.yul\":3077:3111   */\n      mstore\n        /* \"#utility.yul\":3008:3117   */\n      pop\n      pop\n      jump\t// out\n        /* \"#utility.yul\":3123:3333   */\n    tag_30:\n        /* \"#utility.yul\":3210:3214   */\n      0x00\n        /* \"#utility.yul\":3248:3250   */\n      0x20\n        /* \"#utility.yul\":3237:3246   */\n      dup3\n        /* \"#utility.yul\":3233:3251   */\n      add\n        /* \"#utility.yul\":3225:3251   */\n      swap1\n      pop\n        /* \"#utility.yul\":3261:3326   */\n      tag_378\n        /* \"#utility.yul\":3323:3324   */\n      0x00\n        /* \"#utility.yul\":3312:3321   */\n      dup4\n        /* \"#utility.yul\":3308:3325   */\n      add\n        /* \"#utility.yul\":3299:3305   */\n      dup5\n        /* \"#utility.yul\":3261:3326   */\n      tag_308\n      jump\t// in\n    tag_378:\n        /* \"#utility.yul\":3123:3333   */\n      swap3\n      swap2\n      pop\n      pop\n      jump\t// out\n        /* \"#utility.yul\":3339:3457   */\n    tag_309:\n        /* \"#utility.yul\":3426:3450   */\n      tag_380\n        /* \"#utility.yul\":3444:3449   */\n      dup2\n        /* \"#utility.yul\":3426:3450   */\n      tag_304\n      jump\t// in\n    tag_380:\n        /* \"#utility.yul\":3421:3424   */\n      dup3\n        /* \"#utility.yul\":3414:3451   */\n      mstore\n        /* \"#utility.yul\":3339:3457   */\n      pop\n      pop\n      jump\t// out\n        /* \"#utility.yul\":3463:3685   */\n    tag_36:\n        /* \"#utility.yul\":3556:3560   */\n      0x00\n        /* \"#utility.yul\":3594:3596   */\n      0x20\n        /* \"#utility.yul\":3583:3592   */\n      dup3\n        /* \"#utility.yul\":3579:3597   */\n      add\n        /* \"#utility.yul\":3571:3597   */\n      swap1\n      pop\n        /* \"#utility.yul\":3607:3678   */\n      tag_382\n        /* \"#utility.yul\":3675:3676   */\n      0x00\n        /* \"#utility.yul\":3664:3673   */\n      dup4\n        /* \"#utility.yul\":3660:3677   */\n      add\n        /* \"#utility.yul\":3651:3657   */\n      dup5\n        /* \"#utility.yul\":3607:3678   */\n      tag_309\n      jump\t// in\n    tag_382:\n        /* \"#utility.yul\":3463:3685   */\n      swap3\n      swap2\n      pop\n      pop\n      jump\t// out\n        /* \"#utility.yul\":3691:4310   */\n    tag_39:\n        /* \"#utility.yul\":3768:3774   */\n      0x00\n        /* \"#utility.yul\":3776:3782   */\n      dup1\n        /* \"#utility.yul\":3784:3790   */\n      0x00\n        /* \"#utility.yul\":3833:3835   */\n      0x60\n        /* \"#utility.yul\":3821:3830   */\n      dup5\n        /* \"#utility.yul\":3812:3819   */\n      dup7\n        /* \"#utility.yul\":3808:3831   */\n      sub\n        /* \"#utility.yul\":3804:3836   */\n      slt\n        /* \"#utility.yul\":3801:3920   */\n      iszero\n      tag_384\n      jumpi\n        /* \"#utility.yul\":3839:3918   */\n      tag_385\n      tag_298\n      jump\t// in\n    tag_385:\n        /* \"#utility.yul\":3801:3920   */\n    tag_384:\n        /* \"#utility.yul\":3959:3960   */\n      0x00\n        /* \"#utility.yul\":3984:4037   */\n      tag_386\n        /* \"#utility.yul\":4029:4036   */\n      dup7\n        /* \"#utility.yul\":4020:4026   */\n      dup3\n        /* \"#utility.yul\":4009:4018   */\n      dup8\n        /* \"#utility.yul\":4005:4027   */\n      add\n        /* \"#utility.yul\":3984:4037   */\n      tag_303\n      jump\t// in\n    tag_386:\n        /* \"#utility.yul\":3974:4037   */\n      swap4\n      pop\n        /* \"#utility.yul\":3930:4047   */\n      pop\n        /* \"#utility.yul\":4086:4088   */\n      0x20\n        /* \"#utility.yul\":4112:4165   */\n      tag_387\n        /* \"#utility.yul\":4157:4164   */\n      dup7\n        /* \"#utility.yul\":4148:4154   */\n      dup3\n        /* \"#utility.yul\":4137:4146   */\n      dup8\n        /* \"#utility.yul\":4133:4155   */\n      add\n        /* \"#utility.yul\":4112:4165   */\n      tag_303\n      jump\t// in\n    tag_387:\n        /* \"#utility.yul\":4102:4165   */\n      swap3\n      pop\n        /* \"#utility.yul\":4057:4175   */\n      pop\n        /* \"#utility.yul\":4214:4216   */\n      0x40\n        /* \"#utility.yul\":4240:4293   */\n      tag_388\n        /* \"#utility.yul\":4285:4292   */\n      dup7\n        /* \"#utility.yul\":4276:4282   */\n      dup3\n        /* \"#utility.yul\":4265:4274   */\n      dup8\n        /* \"#utility.yul\":4261:4283   */\n      add\n        /* \"#utility.yul\":4240:4293   */\n      tag_306\n      jump\t// in\n    tag_388:\n        /* \"#utility.yul\":4230:4293   */\n      swap2\n      pop\n        /* \"#utility.yul\":4185:4303   */\n      pop\n        /* \"#utility.yul\":3691:4310   */\n      swap3\n      pop\n      swap3\n      pop\n      swap3\n      jump\t// out\n        /* \"#utility.yul\":4316:4402   */\n    tag_310:\n        /* \"#utility.yul\":4351:4358   */\n      0x00\n        /* \"#utility.yul\":4391:4395   */\n      0xff\n        /* \"#utility.yul\":4384:4389   */\n      dup3\n        /* \"#utility.yul\":4380:4396   */\n      and\n        /* \"#utility.yul\":4369:4396   */\n      swap1\n      pop\n        /* \"#utility.yul\":4316:4402   */\n      swap2\n      swap1\n      pop\n      jump\t// out\n        /* \"#utility.yul\":4408:4520   */\n    tag_311:\n        /* \"#utility.yul\":4491:4513   */\n      tag_391\n        /* \"#utility.yul\":4507:4512   */\n      dup2\n        /* \"#utility.yul\":4491:4513   */\n      tag_310\n      jump\t// in\n    tag_391:\n        /* \"#utility.yul\":4486:4489   */\n      dup3\n        /* \"#utility.yul\":4479:4514   */\n      mstore\n        /* \"#utility.yul\":4408:4520   */\n      pop\n      pop\n      jump\t// out\n        /* \"#utility.yul\":4526:4740   */\n    tag_45:\n        /* \"#utility.yul\":4615:4619   */\n      0x00\n        /* \"#utility.yul\":4653:4655   */\n      0x20\n        /* \"#utility.yul\":4642:4651   */\n      dup3\n        /* \"#utility.yul\":4638:4656   */\n      add\n        /* \"#utility.yul\":4630:4656   */\n      swap1\n      pop\n        /* \"#utility.yul\":4666:4733   */\n      tag_393\n        /* \"#utility.yul\":4730:4731   */\n      0x00\n        /* \"#utility.yul\":4719:4728   */\n      dup4\n        /* \"#utility.yul\":4715:4732   */\n      add\n        /* \"#utility.yul\":4706:4712   */\n      dup5\n        /* \"#utility.yul\":4666:4733   */\n      tag_311\n      jump\t// in\n    tag_393:\n        /* \"#utility.yul\":4526:4740   */\n      swap3\n      swap2\n      pop\n      pop\n      jump\t// out\n        /* \"#utility.yul\":4746:4823   */\n    tag_312:\n        /* \"#utility.yul\":4783:4790   */\n      0x00\n        /* \"#utility.yul\":4812:4817   */\n      dup2\n        /* \"#utility.yul\":4801:4817   */\n      swap1\n      pop\n        /* \"#utility.yul\":4746:4823   */\n      swap2\n      swap1\n      pop\n      jump\t// out\n        /* \"#utility.yul\":4829:4947   */\n    tag_313:\n        /* \"#utility.yul\":4916:4940   */\n      tag_396\n        /* \"#utility.yul\":4934:4939   */\n      dup2\n        /* \"#utility.yul\":4916:4940   */\n      tag_312\n      jump\t// in\n    tag_396:\n        /* \"#utility.yul\":4911:4914   */\n      dup3\n        /* \"#utility.yul\":4904:4941   */\n      mstore\n        /* \"#utility.yul\":4829:4947   */\n      pop\n      pop\n      jump\t// out\n        /* \"#utility.yul\":4953:5175   */\n    tag_49:\n        /* \"#utility.yul\":5046:5050   */\n      0x00\n        /* \"#utility.yul\":5084:5086   */\n      0x20\n        /* \"#utility.yul\":5073:5082   */\n      dup3\n        /* \"#utility.yul\":5069:5087   */\n      add\n        /* \"#utility.yul\":5061:5087   */\n      swap1\n      pop\n        /* \"#utility.yul\":5097:5168   */\n      tag_398\n        /* \"#utility.yul\":5165:5166   */\n      0x00\n        /* \"#utility.yul\":5154:5163   */\n      dup4\n        /* \"#utility.yul\":5150:5167   */\n      add\n        /* \"#utility.yul\":5141:5147   */\n      dup5\n        /* \"#utility.yul\":5097:5168   */\n      tag_313\n      jump\t// in\n    tag_398:\n        /* \"#utility.yul\":4953:5175   */\n      swap3\n      swap2\n      pop\n      pop\n      jump\t// out\n        /* \"#utility.yul\":5181:5298   */\n    tag_314:\n        /* \"#utility.yul\":5290:5291   */\n      0x00\n        /* \"#utility.yul\":5287:5288   */\n      dup1\n        /* \"#utility.yul\":5280:5292   */\n      revert\n        /* \"#utility.yul\":5304:5421   */\n    tag_315:\n        /* \"#utility.yul\":5413:5414   */\n      0x00\n        /* \"#utility.yul\":5410:5411   */\n      dup1\n        /* \"#utility.yul\":5403:5415   */\n      revert\n        /* \"#utility.yul\":5427:5544   */\n    tag_316:\n        /* \"#utility.yul\":5536:5537   */\n      0x00\n        /* \"#utility.yul\":5533:5534   */\n      dup1\n        /* \"#utility.yul\":5526:5538   */\n      revert\n        /* \"#utility.yul\":5563:6115   */\n    tag_317:\n        /* \"#utility.yul\":5620:5628   */\n      0x00\n        /* \"#utility.yul\":5630:5636   */\n      dup1\n        /* \"#utility.yul\":5680:5683   */\n      dup4\n        /* \"#utility.yul\":5673:5677   */\n      0x1f\n        /* \"#utility.yul\":5665:5671   */\n      dup5\n        /* \"#utility.yul\":5661:5678   */\n      add\n        /* \"#utility.yul\":5657:5684   */\n      slt\n        /* \"#utility.yul\":5647:5769   */\n      tag_403\n      jumpi\n        /* \"#utility.yul\":5688:5767   */\n      tag_404\n      tag_314\n      jump\t// in\n    tag_404:\n        /* \"#utility.yul\":5647:5769   */\n    tag_403:\n        /* \"#utility.yul\":5801:5807   */\n      dup3\n        /* \"#utility.yul\":5788:5808   */\n      calldataload\n        /* \"#utility.yul\":5778:5808   */\n      swap1\n      pop\n        /* \"#utility.yul\":5831:5849   */\n      0xffffffffffffffff\n        /* \"#utility.yul\":5823:5829   */\n      dup2\n        /* \"#utility.yul\":5820:5850   */\n      gt\n        /* \"#utility.yul\":5817:5934   */\n      iszero\n      tag_405\n      jumpi\n        /* \"#utility.yul\":5853:5932   */\n      tag_406\n      tag_315\n      jump\t// in\n    tag_406:\n        /* \"#utility.yul\":5817:5934   */\n    tag_405:\n        /* \"#utility.yul\":5967:5971   */\n      0x20\n        /* \"#utility.yul\":5959:5965   */\n      dup4\n        /* \"#utility.yul\":5955:5972   */\n      add\n        /* \"#utility.yul\":5943:5972   */\n      swap2\n      pop\n        /* \"#utility.yul\":6021:6024   */\n      dup4\n        /* \"#utility.yul\":6013:6017   */\n      0x01\n        /* \"#utility.yul\":6005:6011   */\n      dup3\n        /* \"#utility.yul\":6001:6018   */\n      mul\n        /* \"#utility.yul\":5991:5999   */\n      dup4\n        /* \"#utility.yul\":5987:6019   */\n      add\n        /* \"#utility.yul\":5984:6025   */\n      gt\n        /* \"#utility.yul\":5981:6109   */\n      iszero\n      tag_407\n      jumpi\n        /* \"#utility.yul\":6028:6107   */\n      tag_408\n      tag_316\n      jump\t// in\n    tag_408:\n        /* \"#utility.yul\":5981:6109   */\n    tag_407:\n        /* \"#utility.yul\":5563:6115   */\n      swap3\n      pop\n      swap3\n      swap1\n      pop\n      jump\t// out\n        /* \"#utility.yul\":6121:6938   */\n    tag_52:\n        /* \"#utility.yul\":6209:6215   */\n      0x00\n        /* \"#utility.yul\":6217:6223   */\n      dup1\n        /* \"#utility.yul\":6225:6231   */\n      0x00\n        /* \"#utility.yul\":6233:6239   */\n      dup1\n        /* \"#utility.yul\":6282:6284   */\n      0x60\n        /* \"#utility.yul\":6270:6279   */\n      dup6\n        /* \"#utility.yul\":6261:6268   */\n      dup8\n        /* \"#utility.yul\":6257:6280   */\n      sub\n        /* \"#utility.yul\":6253:6285   */\n      slt\n        /* \"#utility.yul\":6250:6369   */\n      iszero\n      tag_410\n      jumpi\n        /* \"#utility.yul\":6288:6367   */\n      tag_411\n      tag_298\n      jump\t// in\n    tag_411:\n        /* \"#utility.yul\":6250:6369   */\n    tag_410:\n        /* \"#utility.yul\":6408:6409   */\n      0x00\n        /* \"#utility.yul\":6433:6486   */\n      tag_412\n        /* \"#utility.yul\":6478:6485   */\n      dup8\n        /* \"#utility.yul\":6469:6475   */\n      dup3\n        /* \"#utility.yul\":6458:6467   */\n      dup9\n        /* \"#utility.yul\":6454:6476   */\n      add\n        /* \"#utility.yul\":6433:6486   */\n      tag_303\n      jump\t// in\n    tag_412:\n        /* \"#utility.yul\":6423:6486   */\n      swap5\n      pop\n        /* \"#utility.yul\":6379:6496   */\n      pop\n        /* \"#utility.yul\":6535:6537   */\n      0x20\n        /* \"#utility.yul\":6561:6614   */\n      tag_413\n        /* \"#utility.yul\":6606:6613   */\n      dup8\n        /* \"#utility.yul\":6597:6603   */\n      dup3\n        /* \"#utility.yul\":6586:6595   */\n      dup9\n        /* \"#utility.yul\":6582:6604   */\n      add\n        /* \"#utility.yul\":6561:6614   */\n      tag_306\n      jump\t// in\n    tag_413:\n        /* \"#utility.yul\":6551:6614   */\n      swap4\n      pop\n        /* \"#utility.yul\":6506:6624   */\n      pop\n        /* \"#utility.yul\":6691:6693   */\n      0x40\n        /* \"#utility.yul\":6680:6689   */\n      dup6\n        /* \"#utility.yul\":6676:6694   */\n      add\n        /* \"#utility.yul\":6663:6695   */\n      calldataload\n        /* \"#utility.yul\":6722:6740   */\n      0xffffffffffffffff\n        /* \"#utility.yul\":6714:6720   */\n      dup2\n        /* \"#utility.yul\":6711:6741   */\n      gt\n        /* \"#utility.yul\":6708:6825   */\n      iszero\n      tag_414\n      jumpi\n        /* \"#utility.yul\":6744:6823   */\n      tag_415\n      tag_299\n      jump\t// in\n    tag_415:\n        /* \"#utility.yul\":6708:6825   */\n    tag_414:\n        /* \"#utility.yul\":6857:6921   */\n      tag_416\n        /* \"#utility.yul\":6913:6920   */\n      dup8\n        /* \"#utility.yul\":6904:6910   */\n      dup3\n        /* \"#utility.yul\":6893:6902   */\n      dup9\n        /* \"#utility.yul\":6889:6911   */\n      add\n        /* \"#utility.yul\":6857:6921   */\n      tag_317\n      jump\t// in\n    tag_416:\n        /* \"#utility.yul\":6839:6921   */\n      swap3\n      pop\n      swap3\n      pop\n        /* \"#utility.yul\":6634:6931   */\n      pop\n        /* \"#utility.yul\":6121:6938   */\n      swap3\n      swap6\n      swap2\n      swap5\n      pop\n      swap3\n      pop\n      jump\t// out\n        /* \"#utility.yul\":6944:7273   */\n    tag_57:\n        /* \"#utility.yul\":7003:7009   */\n      0x00\n        /* \"#utility.yul\":7052:7054   */\n      0x20\n        /* \"#utility.yul\":7040:7049   */\n      dup3\n        /* \"#utility.yul\":7031:7038   */\n      dup5\n        /* \"#utility.yul\":7027:7050   */\n      sub\n        /* \"#utility.yul\":7023:7055   */\n      slt\n        /* \"#utility.yul\":7020:7139   */\n      iszero\n      tag_418\n      jumpi\n        /* \"#utility.yul\":7058:7137   */\n      tag_419\n      tag_298\n      jump\t// in\n    tag_419:\n        /* \"#utility.yul\":7020:7139   */\n    tag_418:\n        /* \"#utility.yul\":7178:7179   */\n      0x00\n        /* \"#utility.yul\":7203:7256   */\n      tag_420\n        /* \"#utility.yul\":7248:7255   */\n      dup5\n        /* \"#utility.yul\":7239:7245   */\n      dup3\n        /* \"#utility.yul\":7228:7237   */\n      dup6\n        /* \"#utility.yul\":7224:7246   */\n      add\n        /* \"#utility.yul\":7203:7256   */\n      tag_303\n      jump\t// in\n    tag_420:\n        /* \"#utility.yul\":7193:7256   */\n      swap2\n      pop\n        /* \"#utility.yul\":7149:7266   */\n      pop\n        /* \"#utility.yul\":6944:7273   */\n      swap3\n      swap2\n      pop\n      pop\n      jump\t// out\n        /* \"#utility.yul\":7279:7428   */\n    tag_318:\n        /* \"#utility.yul\":7315:7322   */\n      0x00\n        /* \"#utility.yul\":7355:7421   */\n      0xff00000000000000000000000000000000000000000000000000000000000000\n        /* \"#utility.yul\":7348:7353   */\n      dup3\n        /* \"#utility.yul\":7344:7422   */\n      and\n        /* \"#utility.yul\":7333:7422   */\n      swap1\n      pop\n        /* \"#utility.yul\":7279:7428   */\n      swap2\n      swap1\n      pop\n      jump\t// out\n        /* \"#utility.yul\":7434:7549   */\n    tag_319:\n        /* \"#utility.yul\":7519:7542   */\n      tag_423\n        /* \"#utility.yul\":7536:7541   */\n      dup2\n        /* \"#utility.yul\":7519:7542   */\n      tag_318\n      jump\t// in\n    tag_423:\n        /* \"#utility.yul\":7514:7517   */\n      dup3\n        /* \"#utility.yul\":7507:7543   */\n      mstore\n        /* \"#utility.yul\":7434:7549   */\n      pop\n      pop\n      jump\t// out\n        /* \"#utility.yul\":7555:7673   */\n    tag_320:\n        /* \"#utility.yul\":7642:7666   */\n      tag_425\n        /* \"#utility.yul\":7660:7665   */\n      dup2\n        /* \"#utility.yul\":7642:7666   */\n      tag_301\n      jump\t// in\n    tag_425:\n        /* \"#utility.yul\":7637:7640   */\n      dup3\n        /* \"#utility.yul\":7630:7667   */\n      mstore\n        /* \"#utility.yul\":7555:7673   */\n      pop\n      pop\n      jump\t// out\n        /* \"#utility.yul\":7679:7793   */\n    tag_321:\n        /* \"#utility.yul\":7746:7752   */\n      0x00\n        /* \"#utility.yul\":7780:7785   */\n      dup2\n        /* \"#utility.yul\":7774:7786   */\n      mload\n        /* \"#utility.yul\":7764:7786   */\n      swap1\n      pop\n        /* \"#utility.yul\":7679:7793   */\n      swap2\n      swap1\n      pop\n      jump\t// out\n        /* \"#utility.yul\":7799:7983   */\n    tag_322:\n        /* \"#utility.yul\":7898:7909   */\n      0x00\n        /* \"#utility.yul\":7932:7938   */\n      dup3\n        /* \"#utility.yul\":7927:7930   */\n      dup3\n        /* \"#utility.yul\":7920:7939   */\n      mstore\n        /* \"#utility.yul\":7972:7976   */\n      0x20\n        /* \"#utility.yul\":7967:7970   */\n      dup3\n        /* \"#utility.yul\":7963:7977   */\n      add\n        /* \"#utility.yul\":7948:7977   */\n      swap1\n      pop\n        /* \"#utility.yul\":7799:7983   */\n      swap3\n      swap2\n      pop\n      pop\n      jump\t// out\n        /* \"#utility.yul\":7989:8121   */\n    tag_323:\n        /* \"#utility.yul\":8056:8060   */\n      0x00\n        /* \"#utility.yul\":8079:8082   */\n      dup2\n        /* \"#utility.yul\":8071:8082   */\n      swap1\n      pop\n        /* \"#utility.yul\":8109:8113   */\n      0x20\n        /* \"#utility.yul\":8104:8107   */\n      dup3\n        /* \"#utility.yul\":8100:8114   */\n      add\n        /* \"#utility.yul\":8092:8114   */\n      swap1\n      pop\n        /* \"#utility.yul\":7989:8121   */\n      swap2\n      swap1\n      pop\n      jump\t// out\n        /* \"#utility.yul\":8127:8235   */\n    tag_324:\n        /* \"#utility.yul\":8204:8228   */\n      tag_430\n        /* \"#utility.yul\":8222:8227   */\n      dup2\n        /* \"#utility.yul\":8204:8228   */\n      tag_304\n      jump\t// in\n    tag_430:\n        /* \"#utility.yul\":8199:8202   */\n      dup3\n        /* \"#utility.yul\":8192:8229   */\n      mstore\n        /* \"#utility.yul\":8127:8235   */\n      pop\n      pop\n      jump\t// out\n        /* \"#utility.yul\":8241:8420   */\n    tag_325:\n        /* \"#utility.yul\":8310:8320   */\n      0x00\n        /* \"#utility.yul\":8331:8377   */\n      tag_432\n        /* \"#utility.yul\":8373:8376   */\n      dup4\n        /* \"#utility.yul\":8365:8371   */\n      dup4\n        /* \"#utility.yul\":8331:8377   */\n      tag_324\n      jump\t// in\n    tag_432:\n        /* \"#utility.yul\":8409:8413   */\n      0x20\n        /* \"#utility.yul\":8404:8407   */\n      dup4\n        /* \"#utility.yul\":8400:8414   */\n      add\n        /* \"#utility.yul\":8386:8414   */\n      swap1\n      pop\n        /* \"#utility.yul\":8241:8420   */\n      swap3\n      swap2\n      pop\n      pop\n      jump\t// out\n        /* \"#utility.yul\":8426:8539   */\n    tag_326:\n        /* \"#utility.yul\":8496:8500   */\n      0x00\n        /* \"#utility.yul\":8528:8532   */\n      0x20\n        /* \"#utility.yul\":8523:8526   */\n      dup3\n        /* \"#utility.yul\":8519:8533   */\n      add\n        /* \"#utility.yul\":8511:8533   */\n      swap1\n      pop\n        /* \"#utility.yul\":8426:8539   */\n      swap2\n      swap1\n      pop\n      jump\t// out\n        /* \"#utility.yul\":8575:9307   */\n    tag_327:\n        /* \"#utility.yul\":8694:8697   */\n      0x00\n        /* \"#utility.yul\":8723:8777   */\n      tag_435\n        /* \"#utility.yul\":8771:8776   */\n      dup3\n        /* \"#utility.yul\":8723:8777   */\n      tag_321\n      jump\t// in\n    tag_435:\n        /* \"#utility.yul\":8793:8879   */\n      tag_436\n        /* \"#utility.yul\":8872:8878   */\n      dup2\n        /* \"#utility.yul\":8867:8870   */\n      dup6\n        /* \"#utility.yul\":8793:8879   */\n      tag_322\n      jump\t// in\n    tag_436:\n        /* \"#utility.yul\":8786:8879   */\n      swap4\n      pop\n        /* \"#utility.yul\":8903:8959   */\n      tag_437\n        /* \"#utility.yul\":8953:8958   */\n      dup4\n        /* \"#utility.yul\":8903:8959   */\n      tag_323\n      jump\t// in\n    tag_437:\n        /* \"#utility.yul\":8982:8989   */\n      dup1\n        /* \"#utility.yul\":9013:9014   */\n      0x00\n        /* \"#utility.yul\":8998:9282   */\n    tag_438:\n        /* \"#utility.yul\":9023:9029   */\n      dup4\n        /* \"#utility.yul\":9020:9021   */\n      dup2\n        /* \"#utility.yul\":9017:9030   */\n      lt\n        /* \"#utility.yul\":8998:9282   */\n      iszero\n      tag_440\n      jumpi\n        /* \"#utility.yul\":9099:9105   */\n      dup2\n        /* \"#utility.yul\":9093:9106   */\n      mload\n        /* \"#utility.yul\":9126:9189   */\n      tag_441\n        /* \"#utility.yul\":9185:9188   */\n      dup9\n        /* \"#utility.yul\":9170:9183   */\n      dup3\n        /* \"#utility.yul\":9126:9189   */\n      tag_325\n      jump\t// in\n    tag_441:\n        /* \"#utility.yul\":9119:9189   */\n      swap8\n      pop\n        /* \"#utility.yul\":9212:9272   */\n      tag_442\n        /* \"#utility.yul\":9265:9271   */\n      dup4\n        /* \"#utility.yul\":9212:9272   */\n      tag_326\n      jump\t// in\n    tag_442:\n        /* \"#utility.yul\":9202:9272   */\n      swap3\n      pop\n        /* \"#utility.yul\":9058:9282   */\n      pop\n        /* \"#utility.yul\":9045:9046   */\n      0x01\n        /* \"#utility.yul\":9042:9043   */\n      dup2\n        /* \"#utility.yul\":9038:9047   */\n      add\n        /* \"#utility.yul\":9033:9047   */\n      swap1\n      pop\n        /* \"#utility.yul\":8998:9282   */\n      jump(tag_438)\n    tag_440:\n        /* \"#utility.yul\":9002:9016   */\n      pop\n        /* \"#utility.yul\":9298:9301   */\n      dup6\n        /* \"#utility.yul\":9291:9301   */\n      swap4\n      pop\n        /* \"#utility.yul\":8699:9307   */\n      pop\n      pop\n      pop\n        /* \"#utility.yul\":8575:9307   */\n      swap3\n      swap2\n      pop\n      pop\n      jump\t// out\n        /* \"#utility.yul\":9313:10528   */\n    tag_67:\n        /* \"#utility.yul\":9662:9666   */\n      0x00\n        /* \"#utility.yul\":9700:9703   */\n      0xe0\n        /* \"#utility.yul\":9689:9698   */\n      dup3\n        /* \"#utility.yul\":9685:9704   */\n      add\n        /* \"#utility.yul\":9677:9704   */\n      swap1\n      pop\n        /* \"#utility.yul\":9714:9783   */\n      tag_444\n        /* \"#utility.yul\":9780:9781   */\n      0x00\n        /* \"#utility.yul\":9769:9778   */\n      dup4\n        /* \"#utility.yul\":9765:9782   */\n      add\n        /* \"#utility.yul\":9756:9762   */\n      dup11\n        /* \"#utility.yul\":9714:9783   */\n      tag_319\n      jump\t// in\n    tag_444:\n        /* \"#utility.yul\":9830:9839   */\n      dup2\n        /* \"#utility.yul\":9824:9828   */\n      dup2\n        /* \"#utility.yul\":9820:9840   */\n      sub\n        /* \"#utility.yul\":9815:9817   */\n      0x20\n        /* \"#utility.yul\":9804:9813   */\n      dup4\n        /* \"#utility.yul\":9800:9818   */\n      add\n        /* \"#utility.yul\":9793:9841   */\n      mstore\n        /* \"#utility.yul\":9858:9936   */\n      tag_445\n        /* \"#utility.yul\":9931:9935   */\n      dup2\n        /* \"#utility.yul\":9922:9928   */\n      dup10\n        /* \"#utility.yul\":9858:9936   */\n      tag_296\n      jump\t// in\n    tag_445:\n        /* \"#utility.yul\":9850:9936   */\n      swap1\n      pop\n        /* \"#utility.yul\":9983:9992   */\n      dup2\n        /* \"#utility.yul\":9977:9981   */\n      dup2\n        /* \"#utility.yul\":9973:9993   */\n      sub\n        /* \"#utility.yul\":9968:9970   */\n      0x40\n        /* \"#utility.yul\":9957:9966   */\n      dup4\n        /* \"#utility.yul\":9953:9971   */\n      add\n        /* \"#utility.yul\":9946:9994   */\n      mstore\n        /* \"#utility.yul\":10011:10089   */\n      tag_446\n        /* \"#utility.yul\":10084:10088   */\n      dup2\n        /* \"#utility.yul\":10075:10081   */\n      dup9\n        /* \"#utility.yul\":10011:10089   */\n      tag_296\n      jump\t// in\n    tag_446:\n        /* \"#utility.yul\":10003:10089   */\n      swap1\n      pop\n        /* \"#utility.yul\":10099:10171   */\n      tag_447\n        /* \"#utility.yul\":10167:10169   */\n      0x60\n        /* \"#utility.yul\":10156:10165   */\n      dup4\n        /* \"#utility.yul\":10152:10170   */\n      add\n        /* \"#utility.yul\":10143:10149   */\n      dup8\n        /* \"#utility.yul\":10099:10171   */\n      tag_309\n      jump\t// in\n    tag_447:\n        /* \"#utility.yul\":10181:10254   */\n      tag_448\n        /* \"#utility.yul\":10249:10252   */\n      0x80\n        /* \"#utility.yul\":10238:10247   */\n      dup4\n        /* \"#utility.yul\":10234:10253   */\n      add\n        /* \"#utility.yul\":10225:10231   */\n      dup7\n        /* \"#utility.yul\":10181:10254   */\n      tag_320\n      jump\t// in\n    tag_448:\n        /* \"#utility.yul\":10264:10337   */\n      tag_449\n        /* \"#utility.yul\":10332:10335   */\n      0xa0\n        /* \"#utility.yul\":10321:10330   */\n      dup4\n        /* \"#utility.yul\":10317:10336   */\n      add\n        /* \"#utility.yul\":10308:10314   */\n      dup6\n        /* \"#utility.yul\":10264:10337   */\n      tag_313\n      jump\t// in\n    tag_449:\n        /* \"#utility.yul\":10385:10394   */\n      dup2\n        /* \"#utility.yul\":10379:10383   */\n      dup2\n        /* \"#utility.yul\":10375:10395   */\n      sub\n        /* \"#utility.yul\":10369:10372   */\n      0xc0\n        /* \"#utility.yul\":10358:10367   */\n      dup4\n        /* \"#utility.yul\":10354:10373   */\n      add\n        /* \"#utility.yul\":10347:10396   */\n      mstore\n        /* \"#utility.yul\":10413:10521   */\n      tag_450\n        /* \"#utility.yul\":10516:10520   */\n      dup2\n        /* \"#utility.yul\":10507:10513   */\n      dup5\n        /* \"#utility.yul\":10413:10521   */\n      tag_327\n      jump\t// in\n    tag_450:\n        /* \"#utility.yul\":10405:10521   */\n      swap1\n      pop\n        /* \"#utility.yul\":9313:10528   */\n      swap9\n      swap8\n      pop\n      pop\n      pop\n      pop\n      pop\n      pop\n      pop\n      pop\n      jump\t// out\n        /* \"#utility.yul\":10534:10652   */\n    tag_328:\n        /* \"#utility.yul\":10605:10627   */\n      tag_452\n        /* \"#utility.yul\":10621:10626   */\n      dup2\n        /* \"#utility.yul\":10605:10627   */\n      tag_310\n      jump\t// in\n    tag_452:\n        /* \"#utility.yul\":10598:10603   */\n      dup2\n        /* \"#utility.yul\":10595:10628   */\n      eq\n        /* \"#utility.yul\":10585:10646   */\n      tag_453\n      jumpi\n        /* \"#utility.yul\":10642:10643   */\n      0x00\n        /* \"#utility.yul\":10639:10640   */\n      dup1\n        /* \"#utility.yul\":10632:10644   */\n      revert\n        /* \"#utility.yul\":10585:10646   */\n    tag_453:\n        /* \"#utility.yul\":10534:10652   */\n      pop\n      jump\t// out\n        /* \"#utility.yul\":10658:10793   */\n    tag_329:\n        /* \"#utility.yul\":10702:10707   */\n      0x00\n        /* \"#utility.yul\":10740:10746   */\n      dup2\n        /* \"#utility.yul\":10727:10747   */\n      calldataload\n        /* \"#utility.yul\":10718:10747   */\n      swap1\n      pop\n        /* \"#utility.yul\":10756:10787   */\n      tag_455\n        /* \"#utility.yul\":10781:10786   */\n      dup2\n        /* \"#utility.yul\":10756:10787   */\n      tag_328\n      jump\t// in\n    tag_455:\n        /* \"#utility.yul\":10658:10793   */\n      swap3\n      swap2\n      pop\n      pop\n      jump\t// out\n        /* \"#utility.yul\":10799:10921   */\n    tag_330:\n        /* \"#utility.yul\":10872:10896   */\n      tag_457\n        /* \"#utility.yul\":10890:10895   */\n      dup2\n        /* \"#utility.yul\":10872:10896   */\n      tag_312\n      jump\t// in\n    tag_457:\n        /* \"#utility.yul\":10865:10870   */\n      dup2\n        /* \"#utility.yul\":10862:10897   */\n      eq\n        /* \"#utility.yul\":10852:10915   */\n      tag_458\n      jumpi\n        /* \"#utility.yul\":10911:10912   */\n      0x00\n        /* \"#utility.yul\":10908:10909   */\n      dup1\n        /* \"#utility.yul\":10901:10913   */\n      revert\n        /* \"#utility.yul\":10852:10915   */\n    tag_458:\n        /* \"#utility.yul\":10799:10921   */\n      pop\n      jump\t// out\n        /* \"#utility.yul\":10927:11066   */\n    tag_331:\n        /* \"#utility.yul\":10973:10978   */\n      0x00\n        /* \"#utility.yul\":11011:11017   */\n      dup2\n        /* \"#utility.yul\":10998:11018   */\n      calldataload\n        /* \"#utility.yul\":10989:11018   */\n      swap1\n      pop\n        /* \"#utility.yul\":11027:11060   */\n      tag_460\n        /* \"#utility.yul\":11054:11059   */\n      dup2\n        /* \"#utility.yul\":11027:11060   */\n      tag_330\n      jump\t// in\n    tag_460:\n        /* \"#utility.yul\":10927:11066   */\n      swap3\n      swap2\n      pop\n      pop\n      jump\t// out\n        /* \"#utility.yul\":11072:12271   */\n    tag_77:\n        /* \"#utility.yul\":11183:11189   */\n      0x00\n        /* \"#utility.yul\":11191:11197   */\n      dup1\n        /* \"#utility.yul\":11199:11205   */\n      0x00\n        /* \"#utility.yul\":11207:11213   */\n      dup1\n        /* \"#utility.yul\":11215:11221   */\n      0x00\n        /* \"#utility.yul\":11223:11229   */\n      dup1\n        /* \"#utility.yul\":11231:11237   */\n      0x00\n        /* \"#utility.yul\":11280:11283   */\n      0xe0\n        /* \"#utility.yul\":11268:11277   */\n      dup9\n        /* \"#utility.yul\":11259:11266   */\n      dup11\n        /* \"#utility.yul\":11255:11278   */\n      sub\n        /* \"#utility.yul\":11251:11284   */\n      slt\n        /* \"#utility.yul\":11248:11368   */\n      iszero\n      tag_462\n      jumpi\n        /* \"#utility.yul\":11287:11366   */\n      tag_463\n      tag_298\n      jump\t// in\n    tag_463:\n        /* \"#utility.yul\":11248:11368   */\n    tag_462:\n        /* \"#utility.yul\":11407:11408   */\n      0x00\n        /* \"#utility.yul\":11432:11485   */\n      tag_464\n        /* \"#utility.yul\":11477:11484   */\n      dup11\n        /* \"#utility.yul\":11468:11474   */\n      dup3\n        /* \"#utility.yul\":11457:11466   */\n      dup12\n        /* \"#utility.yul\":11453:11475   */\n      add\n        /* \"#utility.yul\":11432:11485   */\n      tag_303\n      jump\t// in\n    tag_464:\n        /* \"#utility.yul\":11422:11485   */\n      swap8\n      pop\n        /* \"#utility.yul\":11378:11495   */\n      pop\n        /* \"#utility.yul\":11534:11536   */\n      0x20\n        /* \"#utility.yul\":11560:11613   */\n      tag_465\n        /* \"#utility.yul\":11605:11612   */\n      dup11\n        /* \"#utility.yul\":11596:11602   */\n      dup3\n        /* \"#utility.yul\":11585:11594   */\n      dup12\n        /* \"#utility.yul\":11581:11603   */\n      add\n        /* \"#utility.yul\":11560:11613   */\n      tag_303\n      jump\t// in\n    tag_465:\n        /* \"#utility.yul\":11550:11613   */\n      swap7\n      pop\n        /* \"#utility.yul\":11505:11623   */\n      pop\n        /* \"#utility.yul\":11662:11664   */\n      0x40\n        /* \"#utility.yul\":11688:11741   */\n      tag_466\n        /* \"#utility.yul\":11733:11740   */\n      dup11\n        /* \"#utility.yul\":11724:11730   */\n      dup3\n        /* \"#utility.yul\":11713:11722   */\n      dup12\n        /* \"#utility.yul\":11709:11731   */\n      add\n        /* \"#utility.yul\":11688:11741   */\n      tag_306\n      jump\t// in\n    tag_466:\n        /* \"#utility.yul\":11678:11741   */\n      swap6\n      pop\n        /* \"#utility.yul\":11633:11751   */\n      pop\n        /* \"#utility.yul\":11790:11792   */\n      0x60\n        /* \"#utility.yul\":11816:11869   */\n      tag_467\n        /* \"#utility.yul\":11861:11868   */\n      dup11\n        /* \"#utility.yul\":11852:11858   */\n      dup3\n        /* \"#utility.yul\":11841:11850   */\n      dup12\n        /* \"#utility.yul\":11837:11859   */\n      add\n        /* \"#utility.yul\":11816:11869   */\n      tag_306\n      jump\t// in\n    tag_467:\n        /* \"#utility.yul\":11806:11869   */\n      swap5\n      pop\n        /* \"#utility.yul\":11761:11879   */\n      pop\n        /* \"#utility.yul\":11918:11921   */\n      0x80\n        /* \"#utility.yul\":11945:11996   */\n      tag_468\n        /* \"#utility.yul\":11988:11995   */\n      dup11\n        /* \"#utility.yul\":11979:11985   */\n      dup3\n        /* \"#utility.yul\":11968:11977   */\n      dup12\n        /* \"#utility.yul\":11964:11986   */\n      add\n        /* \"#utility.yul\":11945:11996   */\n      tag_329\n      jump\t// in\n    tag_468:\n        /* \"#utility.yul\":11935:11996   */\n      swap4\n      pop\n        /* \"#utility.yul\":11889:12006   */\n      pop\n        /* \"#utility.yul\":12045:12048   */\n      0xa0\n        /* \"#utility.yul\":12072:12125   */\n      tag_469\n        /* \"#utility.yul\":12117:12124   */\n      dup11\n        /* \"#utility.yul\":12108:12114   */\n      dup3\n        /* \"#utility.yul\":12097:12106   */\n      dup12\n        /* \"#utility.yul\":12093:12115   */\n      add\n        /* \"#utility.yul\":12072:12125   */\n      tag_331\n      jump\t// in\n    tag_469:\n        /* \"#utility.yul\":12062:12125   */\n      swap3\n      pop\n        /* \"#utility.yul\":12016:12135   */\n      pop\n        /* \"#utility.yul\":12174:12177   */\n      0xc0\n        /* \"#utility.yul\":12201:12254   */\n      tag_470\n        /* \"#utility.yul\":12246:12253   */\n      dup11\n        /* \"#utility.yul\":12237:12243   */\n      dup3\n        /* \"#utility.yul\":12226:12235   */\n      dup12\n        /* \"#utility.yul\":12222:12244   */\n      add\n        /* \"#utility.yul\":12201:12254   */\n      tag_331\n      jump\t// in\n    tag_470:\n        /* \"#utility.yul\":12191:12254   */\n      swap2\n      pop\n        /* \"#utility.yul\":12145:12264   */\n      pop\n        /* \"#utility.yul\":11072:12271   */\n      swap3\n      swap6\n      swap9\n      swap2\n      swap5\n      swap8\n      pop\n      swap3\n      swap6\n      pop\n      jump\t// out\n        /* \"#utility.yul\":12277:12751   */\n    tag_81:\n        /* \"#utility.yul\":12345:12351   */\n      0x00\n        /* \"#utility.yul\":12353:12359   */\n      dup1\n        /* \"#utility.yul\":12402:12404   */\n      0x40\n        /* \"#utility.yul\":12390:12399   */\n      dup4\n        /* \"#utility.yul\":12381:12388   */\n      dup6\n        /* \"#utility.yul\":12377:12400   */\n      sub\n        /* \"#utility.yul\":12373:12405   */\n      slt\n        /* \"#utility.yul\":12370:12489   */\n      iszero\n      tag_472\n      jumpi\n        /* \"#utility.yul\":12408:12487   */\n      tag_473\n      tag_298\n      jump\t// in\n    tag_473:\n        /* \"#utility.yul\":12370:12489   */\n    tag_472:\n        /* \"#utility.yul\":12528:12529   */\n      0x00\n        /* \"#utility.yul\":12553:12606   */\n      tag_474\n        /* \"#utility.yul\":12598:12605   */\n      dup6\n        /* \"#utility.yul\":12589:12595   */\n      dup3\n        /* \"#utility.yul\":12578:12587   */\n      dup7\n        /* \"#utility.yul\":12574:12596   */\n      add\n        /* \"#utility.yul\":12553:12606   */\n      tag_303\n      jump\t// in\n    tag_474:\n        /* \"#utility.yul\":12543:12606   */\n      swap3\n      pop\n        /* \"#utility.yul\":12499:12616   */\n      pop\n        /* \"#utility.yul\":12655:12657   */\n      0x20\n        /* \"#utility.yul\":12681:12734   */\n      tag_475\n        /* \"#utility.yul\":12726:12733   */\n      dup6\n        /* \"#utility.yul\":12717:12723   */\n      dup3\n        /* \"#utility.yul\":12706:12715   */\n      dup7\n        /* \"#utility.yul\":12702:12724   */\n      add\n        /* \"#utility.yul\":12681:12734   */\n      tag_303\n      jump\t// in\n    tag_475:\n        /* \"#utility.yul\":12671:12734   */\n      swap2\n      pop\n        /* \"#utility.yul\":12626:12744   */\n      pop\n        /* \"#utility.yul\":12277:12751   */\n      swap3\n      pop\n      swap3\n      swap1\n      pop\n      jump\t// out\n        /* \"#utility.yul\":12757:12937   */\n    tag_332:\n        /* \"#utility.yul\":12805:12882   */\n      0x4e487b7100000000000000000000000000000000000000000000000000000000\n        /* \"#utility.yul\":12802:12803   */\n      0x00\n        /* \"#utility.yul\":12795:12883   */\n      mstore\n        /* \"#utility.yul\":12902:12906   */\n      0x22\n        /* \"#utility.yul\":12899:12900   */\n      0x04\n        /* \"#utility.yul\":12892:12907   */\n      mstore\n        /* \"#utility.yul\":12926:12930   */\n      0x24\n        /* \"#utility.yul\":12923:12924   */\n      0x00\n        /* \"#utility.yul\":12916:12931   */\n      revert\n        /* \"#utility.yul\":12943:13263   */\n    tag_86:\n        /* \"#utility.yul\":12987:12993   */\n      0x00\n        /* \"#utility.yul\":13024:13025   */\n      0x02\n        /* \"#utility.yul\":13018:13022   */\n      dup3\n        /* \"#utility.yul\":13014:13026   */\n      div\n        /* \"#utility.yul\":13004:13026   */\n      swap1\n      pop\n        /* \"#utility.yul\":13071:13072   */\n      0x01\n        /* \"#utility.yul\":13065:13069   */\n      dup3\n        /* \"#utility.yul\":13061:13073   */\n      and\n        /* \"#utility.yul\":13092:13110   */\n      dup1\n        /* \"#utility.yul\":13082:13163   */\n      tag_478\n      jumpi\n        /* \"#utility.yul\":13148:13152   */\n      0x7f\n        /* \"#utility.yul\":13140:13146   */\n      dup3\n        /* \"#utility.yul\":13136:13153   */\n      and\n        /* \"#utility.yul\":13126:13153   */\n      swap2\n      pop\n        /* \"#utility.yul\":13082:13163   */\n    tag_478:\n        /* \"#utility.yul\":13210:13212   */\n      0x20\n        /* \"#utility.yul\":13202:13208   */\n      dup3\n        /* \"#utility.yul\":13199:13213   */\n      lt\n        /* \"#utility.yul\":13179:13197   */\n      dup2\n        /* \"#utility.yul\":13176:13214   */\n      sub\n        /* \"#utility.yul\":13173:13257   */\n      tag_479\n      jumpi\n        /* \"#utility.yul\":13229:13247   */\n      tag_480\n      tag_332\n      jump\t// in\n    tag_480:\n        /* \"#utility.yul\":13173:13257   */\n    tag_479:\n        /* \"#utility.yul\":12994:13263   */\n      pop\n        /* \"#utility.yul\":12943:13263   */\n      swap2\n      swap1\n      pop\n      jump\t// out\n        /* \"#utility.yul\":13269:13601   */\n    tag_114:\n        /* \"#utility.yul\":13390:13394   */\n      0x00\n        /* \"#utility.yul\":13428:13430   */\n      0x40\n        /* \"#utility.yul\":13417:13426   */\n      dup3\n        /* \"#utility.yul\":13413:13431   */\n      add\n        /* \"#utility.yul\":13405:13431   */\n      swap1\n      pop\n        /* \"#utility.yul\":13441:13512   */\n      tag_482\n        /* \"#utility.yul\":13509:13510   */\n      0x00\n        /* \"#utility.yul\":13498:13507   */\n      dup4\n        /* \"#utility.yul\":13494:13511   */\n      add\n        /* \"#utility.yul\":13485:13491   */\n      dup6\n        /* \"#utility.yul\":13441:13512   */\n      tag_320\n      jump\t// in\n    tag_482:\n        /* \"#utility.yul\":13522:13594   */\n      tag_483\n        /* \"#utility.yul\":13590:13592   */\n      0x20\n        /* \"#utility.yul\":13579:13588   */\n      dup4\n        /* \"#utility.yul\":13575:13593   */\n      add\n        /* \"#utility.yul\":13566:13572   */\n      dup5\n        /* \"#utility.yul\":13522:13594   */\n      tag_309\n      jump\t// in\n    tag_483:\n        /* \"#utility.yul\":13269:13601   */\n      swap4\n      swap3\n      pop\n      pop\n      pop\n      jump\t// out\n        /* \"#utility.yul\":13607:13787   */\n    tag_129:\n        /* \"#utility.yul\":13655:13732   */\n      0x4e487b7100000000000000000000000000000000000000000000000000000000\n        /* \"#utility.yul\":13652:13653   */\n      0x00\n        /* \"#utility.yul\":13645:13733   */\n      mstore\n        /* \"#utility.yul\":13752:13756   */\n      0x41\n        /* \"#utility.yul\":13749:13750   */\n      0x04\n        /* \"#utility.yul\":13742:13757   */\n      mstore\n        /* \"#utility.yul\":13776:13780   */\n      0x24\n        /* \"#utility.yul\":13773:13774   */\n      0x00\n        /* \"#utility.yul\":13766:13781   */\n      revert\n        /* \"#utility.yul\":13793:14568   */\n    tag_146:\n        /* \"#utility.yul\":14026:14030   */\n      0x00\n        /* \"#utility.yul\":14064:14067   */\n      0xc0\n        /* \"#utility.yul\":14053:14062   */\n      dup3\n        /* \"#utility.yul\":14049:14068   */\n      add\n        /* \"#utility.yul\":14041:14068   */\n      swap1\n      pop\n        /* \"#utility.yul\":14078:14149   */\n      tag_486\n        /* \"#utility.yul\":14146:14147   */\n      0x00\n        /* \"#utility.yul\":14135:14144   */\n      dup4\n        /* \"#utility.yul\":14131:14148   */\n      add\n        /* \"#utility.yul\":14122:14128   */\n      dup10\n        /* \"#utility.yul\":14078:14149   */\n      tag_313\n      jump\t// in\n    tag_486:\n        /* \"#utility.yul\":14159:14231   */\n      tag_487\n        /* \"#utility.yul\":14227:14229   */\n      0x20\n        /* \"#utility.yul\":14216:14225   */\n      dup4\n        /* \"#utility.yul\":14212:14230   */\n      add\n        /* \"#utility.yul\":14203:14209   */\n      dup9\n        /* \"#utility.yul\":14159:14231   */\n      tag_320\n      jump\t// in\n    tag_487:\n        /* \"#utility.yul\":14241:14313   */\n      tag_488\n        /* \"#utility.yul\":14309:14311   */\n      0x40\n        /* \"#utility.yul\":14298:14307   */\n      dup4\n        /* \"#utility.yul\":14294:14312   */\n      add\n        /* \"#utility.yul\":14285:14291   */\n      dup8\n        /* \"#utility.yul\":14241:14313   */\n      tag_320\n      jump\t// in\n    tag_488:\n        /* \"#utility.yul\":14323:14395   */\n      tag_489\n        /* \"#utility.yul\":14391:14393   */\n      0x60\n        /* \"#utility.yul\":14380:14389   */\n      dup4\n        /* \"#utility.yul\":14376:14394   */\n      add\n        /* \"#utility.yul\":14367:14373   */\n      dup7\n        /* \"#utility.yul\":14323:14395   */\n      tag_309\n      jump\t// in\n    tag_489:\n        /* \"#utility.yul\":14405:14478   */\n      tag_490\n        /* \"#utility.yul\":14473:14476   */\n      0x80\n        /* \"#utility.yul\":14462:14471   */\n      dup4\n        /* \"#utility.yul\":14458:14477   */\n      add\n        /* \"#utility.yul\":14449:14455   */\n      dup6\n        /* \"#utility.yul\":14405:14478   */\n      tag_309\n      jump\t// in\n    tag_490:\n        /* \"#utility.yul\":14488:14561   */\n      tag_491\n        /* \"#utility.yul\":14556:14559   */\n      0xa0\n        /* \"#utility.yul\":14545:14554   */\n      dup4\n        /* \"#utility.yul\":14541:14560   */\n      add\n        /* \"#utility.yul\":14532:14538   */\n      dup5\n        /* \"#utility.yul\":14488:14561   */\n      tag_309\n      jump\t// in\n    tag_491:\n        /* \"#utility.yul\":13793:14568   */\n      swap8\n      swap7\n      pop\n      pop\n      pop\n      pop\n      pop\n      pop\n      pop\n      jump\t// out\n        /* \"#utility.yul\":14574:14906   */\n    tag_153:\n        /* \"#utility.yul\":14695:14699   */\n      0x00\n        /* \"#utility.yul\":14733:14735   */\n      0x40\n        /* \"#utility.yul\":14722:14731   */\n      dup3\n        /* \"#utility.yul\":14718:14736   */\n      add\n        /* \"#utility.yul\":14710:14736   */\n      swap1\n      pop\n        /* \"#utility.yul\":14746:14817   */\n      tag_493\n        /* \"#utility.yul\":14814:14815   */\n      0x00\n        /* \"#utility.yul\":14803:14812   */\n      dup4\n        /* \"#utility.yul\":14799:14816   */\n      add\n        /* \"#utility.yul\":14790:14796   */\n      dup6\n        /* \"#utility.yul\":14746:14817   */\n      tag_320\n      jump\t// in\n    tag_493:\n        /* \"#utility.yul\":14827:14899   */\n      tag_494\n        /* \"#utility.yul\":14895:14897   */\n      0x20\n        /* \"#utility.yul\":14884:14893   */\n      dup4\n        /* \"#utility.yul\":14880:14898   */\n      add\n        /* \"#utility.yul\":14871:14877   */\n      dup5\n        /* \"#utility.yul\":14827:14899   */\n      tag_320\n      jump\t// in\n    tag_494:\n        /* \"#utility.yul\":14574:14906   */\n      swap4\n      swap3\n      pop\n      pop\n      pop\n      jump\t// out\n        /* \"#utility.yul\":14912:15134   */\n    tag_163:\n        /* \"#utility.yul\":15005:15009   */\n      0x00\n        /* \"#utility.yul\":15043:15045   */\n      0x20\n        /* \"#utility.yul\":15032:15041   */\n      dup3\n        /* \"#utility.yul\":15028:15046   */\n      add\n        /* \"#utility.yul\":15020:15046   */\n      swap1\n      pop\n        /* \"#utility.yul\":15056:15127   */\n      tag_496\n        /* \"#utility.yul\":15124:15125   */\n      0x00\n        /* \"#utility.yul\":15113:15122   */\n      dup4\n        /* \"#utility.yul\":15109:15126   */\n      add\n        /* \"#utility.yul\":15100:15106   */\n      dup5\n        /* \"#utility.yul\":15056:15127   */\n      tag_320\n      jump\t// in\n    tag_496:\n        /* \"#utility.yul\":14912:15134   */\n      swap3\n      swap2\n      pop\n      pop\n      jump\t// out\n        /* \"#utility.yul\":15140:15582   */\n    tag_171:\n        /* \"#utility.yul\":15289:15293   */\n      0x00\n        /* \"#utility.yul\":15327:15329   */\n      0x60\n        /* \"#utility.yul\":15316:15325   */\n      dup3\n        /* \"#utility.yul\":15312:15330   */\n      add\n        /* \"#utility.yul\":15304:15330   */\n      swap1\n      pop\n        /* \"#utility.yul\":15340:15411   */\n      tag_498\n        /* \"#utility.yul\":15408:15409   */\n      0x00\n        /* \"#utility.yul\":15397:15406   */\n      dup4\n        /* \"#utility.yul\":15393:15410   */\n      add\n        /* \"#utility.yul\":15384:15390   */\n      dup7\n        /* \"#utility.yul\":15340:15411   */\n      tag_320\n      jump\t// in\n    tag_498:\n        /* \"#utility.yul\":15421:15493   */\n      tag_499\n        /* \"#utility.yul\":15489:15491   */\n      0x20\n        /* \"#utility.yul\":15478:15487   */\n      dup4\n        /* \"#utility.yul\":15474:15492   */\n      add\n        /* \"#utility.yul\":15465:15471   */\n      dup6\n        /* \"#utility.yul\":15421:15493   */\n      tag_309\n      jump\t// in\n    tag_499:\n        /* \"#utility.yul\":15503:15575   */\n      tag_500\n        /* \"#utility.yul\":15571:15573   */\n      0x40\n        /* \"#utility.yul\":15560:15569   */\n      dup4\n        /* \"#utility.yul\":15556:15574   */\n      add\n        /* \"#utility.yul\":15547:15553   */\n      dup5\n        /* \"#utility.yul\":15503:15575   */\n      tag_309\n      jump\t// in\n    tag_500:\n        /* \"#utility.yul\":15140:15582   */\n      swap5\n      swap4\n      pop\n      pop\n      pop\n      pop\n      jump\t// out\n        /* \"#utility.yul\":15588:15686   */\n    tag_333:\n        /* \"#utility.yul\":15639:15645   */\n      0x00\n        /* \"#utility.yul\":15673:15678   */\n      dup2\n        /* \"#utility.yul\":15667:15679   */\n      mload\n        /* \"#utility.yul\":15657:15679   */\n      swap1\n      pop\n        /* \"#utility.yul\":15588:15686   */\n      swap2\n      swap1\n      pop\n      jump\t// out\n        /* \"#utility.yul\":15692:15860   */\n    tag_334:\n        /* \"#utility.yul\":15775:15786   */\n      0x00\n        /* \"#utility.yul\":15809:15815   */\n      dup3\n        /* \"#utility.yul\":15804:15807   */\n      dup3\n        /* \"#utility.yul\":15797:15816   */\n      mstore\n        /* \"#utility.yul\":15849:15853   */\n      0x20\n        /* \"#utility.yul\":15844:15847   */\n      dup3\n        /* \"#utility.yul\":15840:15854   */\n      add\n        /* \"#utility.yul\":15825:15854   */\n      swap1\n      pop\n        /* \"#utility.yul\":15692:15860   */\n      swap3\n      swap2\n      pop\n      pop\n      jump\t// out\n        /* \"#utility.yul\":15866:16239   */\n    tag_335:\n        /* \"#utility.yul\":15952:15955   */\n      0x00\n        /* \"#utility.yul\":15980:16018   */\n      tag_504\n        /* \"#utility.yul\":16012:16017   */\n      dup3\n        /* \"#utility.yul\":15980:16018   */\n      tag_333\n      jump\t// in\n    tag_504:\n        /* \"#utility.yul\":16034:16104   */\n      tag_505\n        /* \"#utility.yul\":16097:16103   */\n      dup2\n        /* \"#utility.yul\":16092:16095   */\n      dup6\n        /* \"#utility.yul\":16034:16104   */\n      tag_334\n      jump\t// in\n    tag_505:\n        /* \"#utility.yul\":16027:16104   */\n      swap4\n      pop\n        /* \"#utility.yul\":16113:16178   */\n      tag_506\n        /* \"#utility.yul\":16171:16177   */\n      dup2\n        /* \"#utility.yul\":16166:16169   */\n      dup6\n        /* \"#utility.yul\":16159:16163   */\n      0x20\n        /* \"#utility.yul\":16152:16157   */\n      dup7\n        /* \"#utility.yul\":16148:16164   */\n      add\n        /* \"#utility.yul\":16113:16178   */\n      tag_294\n      jump\t// in\n    tag_506:\n        /* \"#utility.yul\":16203:16232   */\n      tag_507\n        /* \"#utility.yul\":16225:16231   */\n      dup2\n        /* \"#utility.yul\":16203:16232   */\n      tag_295\n      jump\t// in\n    tag_507:\n        /* \"#utility.yul\":16198:16201   */\n      dup5\n        /* \"#utility.yul\":16194:16233   */\n      add\n        /* \"#utility.yul\":16187:16233   */\n      swap2\n      pop\n        /* \"#utility.yul\":15956:16239   */\n      pop\n        /* \"#utility.yul\":15866:16239   */\n      swap3\n      swap2\n      pop\n      pop\n      jump\t// out\n        /* \"#utility.yul\":16245:16885   */\n    tag_189:\n        /* \"#utility.yul\":16440:16444   */\n      0x00\n        /* \"#utility.yul\":16478:16481   */\n      0x80\n        /* \"#utility.yul\":16467:16476   */\n      dup3\n        /* \"#utility.yul\":16463:16482   */\n      add\n        /* \"#utility.yul\":16455:16482   */\n      swap1\n      pop\n        /* \"#utility.yul\":16492:16563   */\n      tag_509\n        /* \"#utility.yul\":16560:16561   */\n      0x00\n        /* \"#utility.yul\":16549:16558   */\n      dup4\n        /* \"#utility.yul\":16545:16562   */\n      add\n        /* \"#utility.yul\":16536:16542   */\n      dup8\n        /* \"#utility.yul\":16492:16563   */\n      tag_320\n      jump\t// in\n    tag_509:\n        /* \"#utility.yul\":16573:16645   */\n      tag_510\n        /* \"#utility.yul\":16641:16643   */\n      0x20\n        /* \"#utility.yul\":16630:16639   */\n      dup4\n        /* \"#utility.yul\":16626:16644   */\n      add\n        /* \"#utility.yul\":16617:16623   */\n      dup7\n        /* \"#utility.yul\":16573:16645   */\n      tag_320\n      jump\t// in\n    tag_510:\n        /* \"#utility.yul\":16655:16727   */\n      tag_511\n        /* \"#utility.yul\":16723:16725   */\n      0x40\n        /* \"#utility.yul\":16712:16721   */\n      dup4\n        /* \"#utility.yul\":16708:16726   */\n      add\n        /* \"#utility.yul\":16699:16705   */\n      dup6\n        /* \"#utility.yul\":16655:16727   */\n      tag_309\n      jump\t// in\n    tag_511:\n        /* \"#utility.yul\":16774:16783   */\n      dup2\n        /* \"#utility.yul\":16768:16772   */\n      dup2\n        /* \"#utility.yul\":16764:16784   */\n      sub\n        /* \"#utility.yul\":16759:16761   */\n      0x60\n        /* \"#utility.yul\":16748:16757   */\n      dup4\n        /* \"#utility.yul\":16744:16762   */\n      add\n        /* \"#utility.yul\":16737:16785   */\n      mstore\n        /* \"#utility.yul\":16802:16878   */\n      tag_512\n        /* \"#utility.yul\":16873:16877   */\n      dup2\n        /* \"#utility.yul\":16864:16870   */\n      dup5\n        /* \"#utility.yul\":16802:16878   */\n      tag_335\n      jump\t// in\n    tag_512:\n        /* \"#utility.yul\":16794:16878   */\n      swap1\n      pop\n        /* \"#utility.yul\":16245:16885   */\n      swap6\n      swap5\n      pop\n      pop\n      pop\n      pop\n      pop\n      jump\t// out\n        /* \"#utility.yul\":16891:17040   */\n    tag_336:\n        /* \"#utility.yul\":16927:16934   */\n      0x00\n        /* \"#utility.yul\":16967:17033   */\n      0xffffffff00000000000000000000000000000000000000000000000000000000\n        /* \"#utility.yul\":16960:16965   */\n      dup3\n        /* \"#utility.yul\":16956:17034   */\n      and\n        /* \"#utility.yul\":16945:17034   */\n      swap1\n      pop\n        /* \"#utility.yul\":16891:17040   */\n      swap2\n      swap1\n      pop\n      jump\t// out\n        /* \"#utility.yul\":17046:17166   */\n    tag_337:\n        /* \"#utility.yul\":17118:17141   */\n      tag_515\n        /* \"#utility.yul\":17135:17140   */\n      dup2\n        /* \"#utility.yul\":17118:17141   */\n      tag_336\n      jump\t// in\n    tag_515:\n        /* \"#utility.yul\":17111:17116   */\n      dup2\n        /* \"#utility.yul\":17108:17142   */\n      eq\n        /* \"#utility.yul\":17098:17160   */\n      tag_516\n      jumpi\n        /* \"#utility.yul\":17156:17157   */\n      0x00\n        /* \"#utility.yul\":17153:17154   */\n      dup1\n        /* \"#utility.yul\":17146:17158   */\n      revert\n        /* \"#utility.yul\":17098:17160   */\n    tag_516:\n        /* \"#utility.yul\":17046:17166   */\n      pop\n      jump\t// out\n        /* \"#utility.yul\":17172:17313   */\n    tag_338:\n        /* \"#utility.yul\":17228:17233   */\n      0x00\n        /* \"#utility.yul\":17259:17265   */\n      dup2\n        /* \"#utility.yul\":17253:17266   */\n      mload\n        /* \"#utility.yul\":17244:17266   */\n      swap1\n      pop\n        /* \"#utility.yul\":17275:17307   */\n      tag_518\n        /* \"#utility.yul\":17301:17306   */\n      dup2\n        /* \"#utility.yul\":17275:17307   */\n      tag_337\n      jump\t// in\n    tag_518:\n        /* \"#utility.yul\":17172:17313   */\n      swap3\n      swap2\n      pop\n      pop\n      jump\t// out\n        /* \"#utility.yul\":17319:17668   */\n    tag_192:\n        /* \"#utility.yul\":17388:17394   */\n      0x00\n        /* \"#utility.yul\":17437:17439   */\n      0x20\n        /* \"#utility.yul\":17425:17434   */\n      dup3\n        /* \"#utility.yul\":17416:17423   */\n      dup5\n        /* \"#utility.yul\":17412:17435   */\n      sub\n        /* \"#utility.yul\":17408:17440   */\n      slt\n        /* \"#utility.yul\":17405:17524   */\n      iszero\n      tag_520\n      jumpi\n        /* \"#utility.yul\":17443:17522   */\n      tag_521\n      tag_298\n      jump\t// in\n    tag_521:\n        /* \"#utility.yul\":17405:17524   */\n    tag_520:\n        /* \"#utility.yul\":17563:17564   */\n      0x00\n        /* \"#utility.yul\":17588:17651   */\n      tag_522\n        /* \"#utility.yul\":17643:17650   */\n      dup5\n        /* \"#utility.yul\":17634:17640   */\n      dup3\n        /* \"#utility.yul\":17623:17632   */\n      dup6\n        /* \"#utility.yul\":17619:17641   */\n      add\n        /* \"#utility.yul\":17588:17651   */\n      tag_338\n      jump\t// in\n    tag_522:\n        /* \"#utility.yul\":17578:17651   */\n      swap2\n      pop\n        /* \"#utility.yul\":17534:17661   */\n      pop\n        /* \"#utility.yul\":17319:17668   */\n      swap3\n      swap2\n      pop\n      pop\n      jump\t// out\n        /* \"#utility.yul\":17674:17854   */\n    tag_339:\n        /* \"#utility.yul\":17722:17799   */\n      0x4e487b7100000000000000000000000000000000000000000000000000000000\n        /* \"#utility.yul\":17719:17720   */\n      0x00\n        /* \"#utility.yul\":17712:17800   */\n      mstore\n        /* \"#utility.yul\":17819:17823   */\n      0x11\n        /* \"#utility.yul\":17816:17817   */\n      0x04\n        /* \"#utility.yul\":17809:17824   */\n      mstore\n        /* \"#utility.yul\":17843:17847   */\n      0x24\n        /* \"#utility.yul\":17840:17841   */\n      0x00\n        /* \"#utility.yul\":17833:17848   */\n      revert\n        /* \"#utility.yul\":17860:18051   */\n    tag_229:\n        /* \"#utility.yul\":17900:17903   */\n      0x00\n        /* \"#utility.yul\":17919:17939   */\n      tag_525\n        /* \"#utility.yul\":17937:17938   */\n      dup3\n        /* \"#utility.yul\":17919:17939   */\n      tag_304\n      jump\t// in\n    tag_525:\n        /* \"#utility.yul\":17914:17939   */\n      swap2\n      pop\n        /* \"#utility.yul\":17953:17973   */\n      tag_526\n        /* \"#utility.yul\":17971:17972   */\n      dup4\n        /* \"#utility.yul\":17953:17973   */\n      tag_304\n      jump\t// in\n    tag_526:\n        /* \"#utility.yul\":17948:17973   */\n      swap3\n      pop\n        /* \"#utility.yul\":17996:17997   */\n      dup3\n        /* \"#utility.yul\":17993:17994   */\n      dup3\n        /* \"#utility.yul\":17989:17998   */\n      add\n        /* \"#utility.yul\":17982:17998   */\n      swap1\n      pop\n        /* \"#utility.yul\":18017:18020   */\n      dup1\n        /* \"#utility.yul\":18014:18015   */\n      dup3\n        /* \"#utility.yul\":18011:18021   */\n      gt\n        /* \"#utility.yul\":18008:18044   */\n      iszero\n      tag_527\n      jumpi\n        /* \"#utility.yul\":18024:18042   */\n      tag_528\n      tag_339\n      jump\t// in\n    tag_528:\n        /* \"#utility.yul\":18008:18044   */\n    tag_527:\n        /* \"#utility.yul\":17860:18051   */\n      swap3\n      swap2\n      pop\n      pop\n      jump\t// out\n        /* \"#utility.yul\":18057:18721   */\n    tag_238:\n        /* \"#utility.yul\":18262:18266   */\n      0x00\n        /* \"#utility.yul\":18300:18303   */\n      0xa0\n        /* \"#utility.yul\":18289:18298   */\n      dup3\n        /* \"#utility.yul\":18285:18304   */\n      add\n        /* \"#utility.yul\":18277:18304   */\n      swap1\n      pop\n        /* \"#utility.yul\":18314:18385   */\n      tag_530\n        /* \"#utility.yul\":18382:18383   */\n      0x00\n        /* \"#utility.yul\":18371:18380   */\n      dup4\n        /* \"#utility.yul\":18367:18384   */\n      add\n        /* \"#utility.yul\":18358:18364   */\n      dup9\n        /* \"#utility.yul\":18314:18385   */\n      tag_313\n      jump\t// in\n    tag_530:\n        /* \"#utility.yul\":18395:18467   */\n      tag_531\n        /* \"#utility.yul\":18463:18465   */\n      0x20\n        /* \"#utility.yul\":18452:18461   */\n      dup4\n        /* \"#utility.yul\":18448:18466   */\n      add\n        /* \"#utility.yul\":18439:18445   */\n      dup8\n        /* \"#utility.yul\":18395:18467   */\n      tag_313\n      jump\t// in\n    tag_531:\n        /* \"#utility.yul\":18477:18549   */\n      tag_532\n        /* \"#utility.yul\":18545:18547   */\n      0x40\n        /* \"#utility.yul\":18534:18543   */\n      dup4\n        /* \"#utility.yul\":18530:18548   */\n      add\n        /* \"#utility.yul\":18521:18527   */\n      dup7\n        /* \"#utility.yul\":18477:18549   */\n      tag_313\n      jump\t// in\n    tag_532:\n        /* \"#utility.yul\":18559:18631   */\n      tag_533\n        /* \"#utility.yul\":18627:18629   */\n      0x60\n        /* \"#utility.yul\":18616:18625   */\n      dup4\n        /* \"#utility.yul\":18612:18630   */\n      add\n        /* \"#utility.yul\":18603:18609   */\n      dup6\n        /* \"#utility.yul\":18559:18631   */\n      tag_309\n      jump\t// in\n    tag_533:\n        /* \"#utility.yul\":18641:18714   */\n      tag_534\n        /* \"#utility.yul\":18709:18712   */\n      0x80\n        /* \"#utility.yul\":18698:18707   */\n      dup4\n        /* \"#utility.yul\":18694:18713   */\n      add\n        /* \"#utility.yul\":18685:18691   */\n      dup5\n        /* \"#utility.yul\":18641:18714   */\n      tag_320\n      jump\t// in\n    tag_534:\n        /* \"#utility.yul\":18057:18721   */\n      swap7\n      swap6\n      pop\n      pop\n      pop\n      pop\n      pop\n      pop\n      jump\t// out\n        /* \"#utility.yul\":18727:19272   */\n    tag_253:\n        /* \"#utility.yul\":18900:18904   */\n      0x00\n        /* \"#utility.yul\":18938:18941   */\n      0x80\n        /* \"#utility.yul\":18927:18936   */\n      dup3\n        /* \"#utility.yul\":18923:18942   */\n      add\n        /* \"#utility.yul\":18915:18942   */\n      swap1\n      pop\n        /* \"#utility.yul\":18952:19023   */\n      tag_536\n        /* \"#utility.yul\":19020:19021   */\n      0x00\n        /* \"#utility.yul\":19009:19018   */\n      dup4\n        /* \"#utility.yul\":19005:19022   */\n      add\n        /* \"#utility.yul\":18996:19002   */\n      dup8\n        /* \"#utility.yul\":18952:19023   */\n      tag_313\n      jump\t// in\n    tag_536:\n        /* \"#utility.yul\":19033:19101   */\n      tag_537\n        /* \"#utility.yul\":19097:19099   */\n      0x20\n        /* \"#utility.yul\":19086:19095   */\n      dup4\n        /* \"#utility.yul\":19082:19100   */\n      add\n        /* \"#utility.yul\":19073:19079   */\n      dup7\n        /* \"#utility.yul\":19033:19101   */\n      tag_311\n      jump\t// in\n    tag_537:\n        /* \"#utility.yul\":19111:19183   */\n      tag_538\n        /* \"#utility.yul\":19179:19181   */\n      0x40\n        /* \"#utility.yul\":19168:19177   */\n      dup4\n        /* \"#utility.yul\":19164:19182   */\n      add\n        /* \"#utility.yul\":19155:19161   */\n      dup6\n        /* \"#utility.yul\":19111:19183   */\n      tag_313\n      jump\t// in\n    tag_538:\n        /* \"#utility.yul\":19193:19265   */\n      tag_539\n        /* \"#utility.yul\":19261:19263   */\n      0x60\n        /* \"#utility.yul\":19250:19259   */\n      dup4\n        /* \"#utility.yul\":19246:19264   */\n      add\n        /* \"#utility.yul\":19237:19243   */\n      dup5\n        /* \"#utility.yul\":19193:19265   */\n      tag_313\n      jump\t// in\n    tag_539:\n        /* \"#utility.yul\":18727:19272   */\n      swap6\n      swap5\n      pop\n      pop\n      pop\n      pop\n      pop\n      jump\t// out\n        /* \"#utility.yul\":19278:19458   */\n    tag_260:\n        /* \"#utility.yul\":19326:19403   */\n      0x4e487b7100000000000000000000000000000000000000000000000000000000\n        /* \"#utility.yul\":19323:19324   */\n      0x00\n        /* \"#utility.yul\":19316:19404   */\n      mstore\n        /* \"#utility.yul\":19423:19427   */\n      0x21\n        /* \"#utility.yul\":19420:19421   */\n      0x04\n        /* \"#utility.yul\":19413:19428   */\n      mstore\n        /* \"#utility.yul\":19447:19451   */\n      0x24\n        /* \"#utility.yul\":19444:19445   */\n      0x00\n        /* \"#utility.yul\":19437:19452   */\n      revert\n\n    auxdata: 0xa26469706673582212209ddafa135386abba5ba78338fda4996acca7096094d4cf3202ceb960f9a8c79b64736f6c634300081a0033\n}\n",
				"bytecode": {
					"linkReferences": {},
					"object": "610160604052348015610010575f80fd5b506040518060400160405280600581526020017f48756c696f000000000000000000000000000000000000000000000000000000815250806040518060400160405280600181526020017f31000000000000000000000000000000000000000000000000000000000000008152506040518060400160405280600581526020017f48756c696f0000000000000000000000000000000000000000000000000000008152506040518060400160405280600281526020017f485500000000000000000000000000000000000000000000000000000000000081525081600390816100f9919061050b565b508060049081610109919061050b565b5050506101206005836101bc60201b90919060201c565b610120818152505061013c6006826101bc60201b90919060201c565b6101408181525050818051906020012060e08181525050808051906020012061010081815250504660a0818152505061017961020960201b60201c565b608081815250503073ffffffffffffffffffffffffffffffffffffffff1660c08173ffffffffffffffffffffffffffffffffffffffff16815250505050506107aa565b5f6020835110156101dd576101d68361026360201b60201c565b9050610203565b826101ed836102c860201b60201c565b5f0190816101fb919061050b565b5060ff5f1b90505b92915050565b5f7f8b73c3c69bb8fe3d512ecc4cf759cc79239f7b179b0ffacaa9a75d522b39400f60e051610100514630604051602001610248959493929190610640565b60405160208183030381529060405280519060200120905090565b5f80829050601f815111156102af57826040517f305a27a90000000000000000000000000000000000000000000000000000000081526004016102a691906106f7565b60405180910390fd5b8051816102bb90610744565b5f1c175f1b915050919050565b5f819050919050565b5f81519050919050565b7f4e487b71000000000000000000000000000000000000000000000000000000005f52604160045260245ffd5b7f4e487b71000000000000000000000000000000000000000000000000000000005f52602260045260245ffd5b5f600282049050600182168061034c57607f821691505b60208210810361035f5761035e610308565b5b50919050565b5f819050815f5260205f209050919050565b5f6020601f8301049050919050565b5f82821b905092915050565b5f600883026103c17fffffffffffffffffffffffffffffffffffffffffffffffffffffffffffffffff82610386565b6103cb8683610386565b95508019841693508086168417925050509392505050565b5f819050919050565b5f819050919050565b5f61040f61040a610405846103e3565b6103ec565b6103e3565b9050919050565b5f819050919050565b610428836103f5565b61043c61043482610416565b848454610392565b825550505050565b5f90565b610450610444565b61045b81848461041f565b505050565b5b8181101561047e576104735f82610448565b600181019050610461565b5050565b601f8211156104c35761049481610365565b61049d84610377565b810160208510156104ac578190505b6104c06104b885610377565b830182610460565b50505b505050565b5f82821c905092915050565b5f6104e35f19846008026104c8565b1980831691505092915050565b5f6104fb83836104d4565b9150826002028217905092915050565b610514826102d1565b67ffffffffffffffff81111561052d5761052c6102db565b5b6105378254610335565b610542828285610482565b5f60209050601f831160018114610573575f8415610561578287015190505b61056b85826104f0565b8655506105d2565b601f19841661058186610365565b5f5b828110156105a857848901518255600182019150602085019450602081019050610583565b868310156105c557848901516105c1601f8916826104d4565b8355505b6001600288020188555050505b505050505050565b5f819050919050565b6105ec816105da565b82525050565b6105fb816103e3565b82525050565b5f73ffffffffffffffffffffffffffffffffffffffff82169050919050565b5f61062a82610601565b9050919050565b61063a81610620565b82525050565b5f60a0820190506106535f8301886105e3565b61066060208301876105e3565b61066d60408301866105e3565b61067a60608301856105f2565b6106876080830184610631565b9695505050505050565b5f82825260208201905092915050565b8281835e5f83830152505050565b5f601f19601f8301169050919050565b5f6106c9826102d1565b6106d38185610691565b93506106e38185602086016106a1565b6106ec816106af565b840191505092915050565b5f6020820190508181035f83015261070f81846106bf565b905092915050565b5f81519050919050565b5f819050602082019050919050565b5f61073b82516105da565b80915050919050565b5f61074e82610717565b8261075884610721565b905061076381610730565b925060208210156107a35761079e7fffffffffffffffffffffffffffffffffffffffffffffffffffffffffffffffff83602003600802610386565b831692505b5050919050565b60805160a05160c05160e0516101005161012051610140516120ae6107fb5f395f610d5601525f610d1b01525f61124f01525f61122e01525f610a7701525f610acd01525f610af601526120ae5ff3fe608060405234801561000f575f80fd5b50600436106100f3575f3560e01c80634000aea01161009557806395d89b411161006457806395d89b411461028d578063a9059cbb146102ab578063d505accf146102db578063dd62ed3e146102f7576100f3565b80634000aea0146101d957806370a08231146102095780637ecebe001461023957806384b0196e14610269576100f3565b806318160ddd116100d157806318160ddd1461014f57806323b872dd1461016d578063313ce5671461019d5780633644e515146101bb576100f3565b806306fdde03146100f7578063095ea7b3146101155780631249c58b14610145575b5f80fd5b6100ff610327565b60405161010c9190611705565b60405180910390f35b61012f600480360381019061012a91906117ba565b6103b7565b60405161013c9190611812565b60405180910390f35b61014d6103d9565b005b6101576103e9565b604051610164919061183a565b60405180910390f35b61018760048036038101906101829190611853565b6103f2565b6040516101949190611812565b60405180910390f35b6101a5610420565b6040516101b291906118be565b60405180910390f35b6101c3610428565b6040516101d091906118ef565b60405180910390f35b6101f360048036038101906101ee9190611969565b610436565b6040516102009190611812565b60405180910390f35b610223600480360381019061021e91906119da565b6104e6565b604051610230919061183a565b60405180910390f35b610253600480360381019061024e91906119da565b61052b565b604051610260919061183a565b60405180910390f35b61027161053c565b6040516102849796959493929190611b05565b60405180910390f35b6102956105e1565b6040516102a29190611705565b60405180910390f35b6102c560048036038101906102c091906117ba565b610671565b6040516102d29190611812565b60405180910390f35b6102f560048036038101906102f09190611bdb565b610693565b005b610311600480360381019061030c9190611c78565b6107d8565b60405161031e919061183a565b60405180910390f35b60606003805461033690611ce3565b80601f016020809104026020016040519081016040528092919081815260200182805461036290611ce3565b80156103ad5780601f10610384576101008083540402835291602001916103ad565b820191905f5260205f20905b81548152906001019060200180831161039057829003601f168201915b5050505050905090565b5f806103c161085a565b90506103ce818585610861565b600191505092915050565b6103e733633b9aca00610873565b565b5f600254905090565b5f806103fc61085a565b90506104098582856108f2565b610414858585610984565b60019150509392505050565b5f6012905090565b5f610431610a74565b905090565b5f6104418585610671565b6104845784846040517f231b03ae00000000000000000000000000000000000000000000000000000000815260040161047b929190611d13565b60405180910390fd5b6104da61048f61085a565b868686868080601f0160208091040260200160405190810160405280939291908181526020018383808284375f81840152601f19601f82011690508083019250505050505050610b2a565b60019050949350505050565b5f805f8373ffffffffffffffffffffffffffffffffffffffff1673ffffffffffffffffffffffffffffffffffffffff1681526020019081526020015f20549050919050565b5f61053582610ccc565b9050919050565b5f6060805f805f606061054d610d12565b610555610d4d565b46305f801b5f67ffffffffffffffff81111561057457610573611d3a565b5b6040519080825280602002602001820160405280156105a25781602001602082028036833780820191505090505b507f0f00000000000000000000000000000000000000000000000000000000000000959493929190965096509650965096509650965090919293949596565b6060600480546105f090611ce3565b80601f016020809104026020016040519081016040528092919081815260200182805461061c90611ce3565b80156106675780601f1061063e57610100808354040283529160200191610667565b820191905f5260205f20905b81548152906001019060200180831161064a57829003601f168201915b5050505050905090565b5f8061067b61085a565b9050610688818585610984565b600191505092915050565b834211156106d857836040517f627913020000000000000000000000000000000000000000000000000000000081526004016106cf919061183a565b60405180910390fd5b5f7f6e71edae12b1b97f4d1f60370fef10105fa2faae0126114a169c64845d6126c98888886107068c610d88565b8960405160200161071c96959493929190611d67565b6040516020818303038152906040528051906020012090505f61073e82610ddb565b90505f61074d82878787610df4565b90508973ffffffffffffffffffffffffffffffffffffffff168173ffffffffffffffffffffffffffffffffffffffff16146107c157808a6040517f4b800e460000000000000000000000000000000000000000000000000000000081526004016107b8929190611dc6565b60405180910390fd5b6107cc8a8a8a610861565b50505050505050505050565b5f60015f8473ffffffffffffffffffffffffffffffffffffffff1673ffffffffffffffffffffffffffffffffffffffff1681526020019081526020015f205f8373ffffffffffffffffffffffffffffffffffffffff1673ffffffffffffffffffffffffffffffffffffffff1681526020019081526020015f2054905092915050565b5f33905090565b61086e8383836001610e22565b505050565b5f73ffffffffffffffffffffffffffffffffffffffff168273ffffffffffffffffffffffffffffffffffffffff16036108e3575f6040517fec442f050000000000000000000000000000000000000000000000000000000081526004016108da9190611ded565b60405180910390fd5b6108ee5f8383610ff1565b5050565b5f6108fd84846107d8565b90507fffffffffffffffffffffffffffffffffffffffffffffffffffffffffffffffff811461097e578181101561096f578281836040517ffb8f41b200000000000000000000000000000000000000000000000000000000815260040161096693929190611e06565b60405180910390fd5b61097d84848484035f610e22565b5b50505050565b5f73ffffffffffffffffffffffffffffffffffffffff168373ffffffffffffffffffffffffffffffffffffffff16036109f4575f6040517f96c6fd1e0000000000000000000000000000000000000000000000000000000081526004016109eb9190611ded565b60405180910390fd5b5f73ffffffffffffffffffffffffffffffffffffffff168273ffffffffffffffffffffffffffffffffffffffff1603610a64575f6040517fec442f05000000000000000000000000000000000000000000000000000000008152600401610a5b9190611ded565b60405180910390fd5b610a6f838383610ff1565b505050565b5f7f000000000000000000000000000000000000000000000000000000000000000073ffffffffffffffffffffffffffffffffffffffff163073ffffffffffffffffffffffffffffffffffffffff16148015610aef57507f000000000000000000000000000000000000000000000000000000000000000046145b15610b1c577f00000000000000000000000000000000000000000000000000000000000000009050610b27565b610b2461120a565b90505b90565b5f8373ffffffffffffffffffffffffffffffffffffffff163b0315610cc6578273ffffffffffffffffffffffffffffffffffffffff166388a7ca5c610b6d61085a565b8685856040518563ffffffff1660e01b8152600401610b8f9493929190611e8d565b6020604051808303815f875af1925050508015610bca57506040513d601f19601f82011682018060405250810190610bc79190611f2c565b60015b610c3b573d805f8114610bf8576040519150601f19603f3d011682016040523d82523d5f602084013e610bfd565b606091505b50836040517f373c5c78000000000000000000000000000000000000000000000000000000008152600401610c329190611ded565b60405180910390fd5b6388a7ca5c60e01b7bffffffffffffffffffffffffffffffffffffffffffffffffffffffff1916817bffffffffffffffffffffffffffffffffffffffffffffffffffffffff191614610cc457836040517f373c5c78000000000000000000000000000000000000000000000000000000008152600401610cbb9190611ded565b60405180910390fd5b505b50505050565b5f60075f8373ffffffffffffffffffffffffffffffffffffffff1673ffffffffffffffffffffffffffffffffffffffff1681526020019081526020015f20549050919050565b6060610d4860057f000000000000000000000000000000000000000000000000000000000000000061129f90919063ffffffff16565b905090565b6060610d8360067f000000000000000000000000000000000000000000000000000000000000000061129f90919063ffffffff16565b905090565b5f60075f8373ffffffffffffffffffffffffffffffffffffffff1673ffffffffffffffffffffffffffffffffffffffff1681526020019081526020015f205f815480929190600101919050559050919050565b5f610ded610de7610a74565b8361134c565b9050919050565b5f805f80610e048888888861138c565b925092509250610e148282611473565b829350505050949350505050565b5f73ffffffffffffffffffffffffffffffffffffffff168473ffffffffffffffffffffffffffffffffffffffff1603610e92575f6040517fe602df05000000000000000000000000000000000000000000000000000000008152600401610e899190611ded565b60405180910390fd5b5f73ffffffffffffffffffffffffffffffffffffffff168373ffffffffffffffffffffffffffffffffffffffff1603610f02575f6040517f94280d62000000000000000000000000000000000000000000000000000000008152600401610ef99190611ded565b60405180910390fd5b8160015f8673ffffffffffffffffffffffffffffffffffffffff1673ffffffffffffffffffffffffffffffffffffffff1681526020019081526020015f205f8573ffffffffffffffffffffffffffffffffffffffff1673ffffffffffffffffffffffffffffffffffffffff1681526020019081526020015f20819055508015610feb578273ffffffffffffffffffffffffffffffffffffffff168473ffffffffffffffffffffffffffffffffffffffff167f8c5be1e5ebec7d5bd14f71427d1e84f3dd0314c0f7b2291e5b200ac8c7c3b92584604051610fe2919061183a565b60405180910390a35b50505050565b5f73ffffffffffffffffffffffffffffffffffffffff168373ffffffffffffffffffffffffffffffffffffffff1603611041578060025f8282546110359190611f84565b9250508190555061110f565b5f805f8573ffffffffffffffffffffffffffffffffffffffff1673ffffffffffffffffffffffffffffffffffffffff1681526020019081526020015f20549050818110156110ca578381836040517fe450d38c0000000000000000000000000000000000000000000000000000000081526004016110c193929190611e06565b60405180910390fd5b8181035f808673ffffffffffffffffffffffffffffffffffffffff1673ffffffffffffffffffffffffffffffffffffffff1681526020019081526020015f2081905550505b5f73ffffffffffffffffffffffffffffffffffffffff168273ffffffffffffffffffffffffffffffffffffffff1603611156578060025f82825403925050819055506111a0565b805f808473ffffffffffffffffffffffffffffffffffffffff1673ffffffffffffffffffffffffffffffffffffffff1681526020019081526020015f205f82825401925050819055505b8173ffffffffffffffffffffffffffffffffffffffff168373ffffffffffffffffffffffffffffffffffffffff167fddf252ad1be2c89b69c2b068fc378daa952ba7f163c4a11628f55a4df523b3ef836040516111fd919061183a565b60405180910390a3505050565b5f7f8b73c3c69bb8fe3d512ecc4cf759cc79239f7b179b0ffacaa9a75d522b39400f7f00000000000000000000000000000000000000000000000000000000000000007f00000000000000000000000000000000000000000000000000000000000000004630604051602001611284959493929190611fb7565b60405160208183030381529060405280519060200120905090565b606060ff5f1b83146112bb576112b4836115d5565b9050611346565b8180546112c790611ce3565b80601f01602080910402602001604051908101604052809291908181526020018280546112f390611ce3565b801561133e5780601f106113155761010080835404028352916020019161133e565b820191905f5260205f20905b81548152906001019060200180831161132157829003601f168201915b505050505090505b92915050565b5f6040517f190100000000000000000000000000000000000000000000000000000000000081528360028201528260228201526042812091505092915050565b5f805f7f7fffffffffffffffffffffffffffffff5d576e7357a4501ddfe92f46681b20a0845f1c11156113c8575f600385925092509250611469565b5f6001888888886040515f81526020016040526040516113eb9493929190612008565b6020604051602081039080840390855afa15801561140b573d5f803e3d5ffd5b5050506020604051035190505f73ffffffffffffffffffffffffffffffffffffffff168173ffffffffffffffffffffffffffffffffffffffff160361145c575f60015f801b93509350935050611469565b805f805f1b935093509350505b9450945094915050565b5f60038111156114865761148561204b565b5b8260038111156114995761149861204b565b5b03156115d157600160038111156114b3576114b261204b565b5b8260038111156114c6576114c561204b565b5b036114fd576040517ff645eedf00000000000000000000000000000000000000000000000000000000815260040160405180910390fd5b600260038111156115115761151061204b565b5b8260038111156115245761152361204b565b5b0361156857805f1c6040517ffce698f700000000000000000000000000000000000000000000000000000000815260040161155f919061183a565b60405180910390fd5b60038081111561157b5761157a61204b565b5b82600381111561158e5761158d61204b565b5b036115d057806040517fd78bce0c0000000000000000000000000000000000000000000000000000000081526004016115c791906118ef565b60405180910390fd5b5b5050565b60605f6115e183611647565b90505f602067ffffffffffffffff8111156115ff576115fe611d3a565b5b6040519080825280601f01601f1916602001820160405280156116315781602001600182028036833780820191505090505b5090508181528360208201528092505050919050565b5f8060ff835f1c169050601f81111561168c576040517fb3512b0c00000000000000000000000000000000000000000000000000000000815260040160405180910390fd5b80915050919050565b5f81519050919050565b5f82825260208201905092915050565b8281835e5f83830152505050565b5f601f19601f8301169050919050565b5f6116d782611695565b6116e1818561169f565b93506116f18185602086016116af565b6116fa816116bd565b840191505092915050565b5f6020820190508181035f83015261171d81846116cd565b905092915050565b5f80fd5b5f80fd5b5f73ffffffffffffffffffffffffffffffffffffffff82169050919050565b5f6117568261172d565b9050919050565b6117668161174c565b8114611770575f80fd5b50565b5f813590506117818161175d565b92915050565b5f819050919050565b61179981611787565b81146117a3575f80fd5b50565b5f813590506117b481611790565b92915050565b5f80604083850312156117d0576117cf611725565b5b5f6117dd85828601611773565b92505060206117ee858286016117a6565b9150509250929050565b5f8115159050919050565b61180c816117f8565b82525050565b5f6020820190506118255f830184611803565b92915050565b61183481611787565b82525050565b5f60208201905061184d5f83018461182b565b92915050565b5f805f6060848603121561186a57611869611725565b5b5f61187786828701611773565b935050602061188886828701611773565b9250506040611899868287016117a6565b9150509250925092565b5f60ff82169050919050565b6118b8816118a3565b82525050565b5f6020820190506118d15f8301846118af565b92915050565b5f819050919050565b6118e9816118d7565b82525050565b5f6020820190506119025f8301846118e0565b92915050565b5f80fd5b5f80fd5b5f80fd5b5f8083601f84011261192957611928611908565b5b8235905067ffffffffffffffff8111156119465761194561190c565b5b60208301915083600182028301111561196257611961611910565b5b9250929050565b5f805f806060858703121561198157611980611725565b5b5f61198e87828801611773565b945050602061199f878288016117a6565b935050604085013567ffffffffffffffff8111156119c0576119bf611729565b5b6119cc87828801611914565b925092505092959194509250565b5f602082840312156119ef576119ee611725565b5b5f6119fc84828501611773565b91505092915050565b5f7fff0000000000000000000000000000000000000000000000000000000000000082169050919050565b611a3981611a05565b82525050565b611a488161174c565b82525050565b5f81519050919050565b5f82825260208201905092915050565b5f819050602082019050919050565b611a8081611787565b82525050565b5f611a918383611a77565b60208301905092915050565b5f602082019050919050565b5f611ab382611a4e565b611abd8185611a58565b9350611ac883611a68565b805f5b83811015611af8578151611adf8882611a86565b9750611aea83611a9d565b925050600181019050611acb565b5085935050505092915050565b5f60e082019050611b185f83018a611a30565b8181036020830152611b2a81896116cd565b90508181036040830152611b3e81886116cd565b9050611b4d606083018761182b565b611b5a6080830186611a3f565b611b6760a08301856118e0565b81810360c0830152611b798184611aa9565b905098975050505050505050565b611b90816118a3565b8114611b9a575f80fd5b50565b5f81359050611bab81611b87565b92915050565b611bba816118d7565b8114611bc4575f80fd5b50565b5f81359050611bd581611bb1565b92915050565b5f805f805f805f60e0888a031215611bf657611bf5611725565b5b5f611c038a828b01611773565b9750506020611c148a828b01611773565b9650506040611c258a828b016117a6565b9550506060611c368a828b016117a6565b9450506080611c478a828b01611b9d565b93505060a0611c588a828b01611bc7565b92505060c0611c698a828b01611bc7565b91505092959891949750929550565b5f8060408385031215611c8e57611c8d611725565b5b5f611c9b85828601611773565b9250506020611cac85828601611773565b9150509250929050565b7f4e487b71000000000000000000000000000000000000000000000000000000005f52602260045260245ffd5b5f6002820490506001821680611cfa57607f821691505b602082108103611d0d57611d0c611cb6565b5b50919050565b5f604082019050611d265f830185611a3f565b611d33602083018461182b565b9392505050565b7f4e487b71000000000000000000000000000000000000000000000000000000005f52604160045260245ffd5b5f60c082019050611d7a5f8301896118e0565b611d876020830188611a3f565b611d946040830187611a3f565b611da1606083018661182b565b611dae608083018561182b565b611dbb60a083018461182b565b979650505050505050565b5f604082019050611dd95f830185611a3f565b611de66020830184611a3f565b9392505050565b5f602082019050611e005f830184611a3f565b92915050565b5f606082019050611e195f830186611a3f565b611e26602083018561182b565b611e33604083018461182b565b949350505050565b5f81519050919050565b5f82825260208201905092915050565b5f611e5f82611e3b565b611e698185611e45565b9350611e798185602086016116af565b611e82816116bd565b840191505092915050565b5f608082019050611ea05f830187611a3f565b611ead6020830186611a3f565b611eba604083018561182b565b8181036060830152611ecc8184611e55565b905095945050505050565b5f7fffffffff0000000000000000000000000000000000000000000000000000000082169050919050565b611f0b81611ed7565b8114611f15575f80fd5b50565b5f81519050611f2681611f02565b92915050565b5f60208284031215611f4157611f40611725565b5b5f611f4e84828501611f18565b91505092915050565b7f4e487b71000000000000000000000000000000000000000000000000000000005f52601160045260245ffd5b5f611f8e82611787565b9150611f9983611787565b9250828201905080821115611fb157611fb0611f57565b5b92915050565b5f60a082019050611fca5f8301886118e0565b611fd760208301876118e0565b611fe460408301866118e0565b611ff1606083018561182b565b611ffe6080830184611a3f565b9695505050505050565b5f60808201905061201b5f8301876118e0565b61202860208301866118af565b61203560408301856118e0565b61204260608301846118e0565b95945050505050565b7f4e487b71000000000000000000000000000000000000000000000000000000005f52602160045260245ffdfea26469706673582212209ddafa135386abba5ba78338fda4996acca7096094d4cf3202ceb960f9a8c79b64736f6c634300081a0033",
					"opcodes": "PUSH2 0x160 PUSH1 0x40 MSTORE CALLVALUE DUP1 ISZERO PUSH2 0x10 JUMPI PUSH0 DUP1 REVERT JUMPDEST POP PUSH1 0x40 MLOAD DUP1 PUSH1 0x40 ADD PUSH1 0x40 MSTORE DUP1 PUSH1 0x5 DUP2 MSTORE PUSH1 0x20 ADD PUSH32 0x48756C696F000000000000000000000000000000000000000000000000000000 DUP2 MSTORE POP DUP1 PUSH1 0x40 MLOAD DUP1 PUSH1 0x40 ADD PUSH1 0x40 MSTORE DUP1 PUSH1 0x1 DUP2 MSTORE PUSH1 0x20 ADD PUSH32 0x3100000000000000000000000000000000000000000000000000000000000000 DUP2 MSTORE POP PUSH1 0x40 MLOAD DUP1 PUSH1 0x40 ADD PUSH1 0x40 MSTORE DUP1 PUSH1 0x5 DUP2 MSTORE PUSH1 0x20 ADD PUSH32 0x48756C696F000000000000000000000000000000000000000000000000000000 DUP2 MSTORE POP PUSH1 0x40 MLOAD DUP1 PUSH1 0x40 ADD PUSH1 0x40 MSTORE DUP1 PUSH1 0x2 DUP2 MSTORE PUSH1 0x20 ADD PUSH32 0x4855000000000000000000000000000000000000000000000000000000000000 DUP2 MSTORE POP DUP2 PUSH1 0x3 SWAP1 DUP2 PUSH2 0xF9 SWAP2 SWAP1 PUSH2 0x50B JUMP JUMPDEST POP DUP1 PUSH1 0x4 SWAP1 DUP2 PUSH2 0x109 SWAP2 SWAP1 PUSH2 0x50B JUMP JUMPDEST POP POP POP PUSH2 0x120 PUSH1 0x5 DUP4 PUSH2 0x1BC PUSH1 0x20 SHL SWAP1 SWAP2 SWAP1 PUSH1 0x20 SHR JUMP JUMPDEST PUSH2 0x120 DUP2 DUP2 MSTORE POP POP PUSH2 0x13C PUSH1 0x6 DUP3 PUSH2 0x1BC PUSH1 0x20 SHL SWAP1 SWAP2 SWAP1 PUSH1 0x20 SHR JUMP JUMPDEST PUSH2 0x140 DUP2 DUP2 MSTORE POP POP DUP2 DUP1 MLOAD SWAP1 PUSH1 0x20 ADD KECCAK256 PUSH1 0xE0 DUP2 DUP2 MSTORE POP POP DUP1 DUP1 MLOAD SWAP1 PUSH1 0x20 ADD KECCAK256 PUSH2 0x100 DUP2 DUP2 MSTORE POP POP CHAINID PUSH1 0xA0 DUP2 DUP2 MSTORE POP POP PUSH2 0x179 PUSH2 0x209 PUSH1 0x20 SHL PUSH1 0x20 SHR JUMP JUMPDEST PUSH1 0x80 DUP2 DUP2 MSTORE POP POP ADDRESS PUSH20 0xFFFFFFFFFFFFFFFFFFFFFFFFFFFFFFFFFFFFFFFF AND PUSH1 0xC0 DUP2 PUSH20 0xFFFFFFFFFFFFFFFFFFFFFFFFFFFFFFFFFFFFFFFF AND DUP2 MSTORE POP POP POP POP POP PUSH2 0x7AA JUMP JUMPDEST PUSH0 PUSH1 0x20 DUP4 MLOAD LT ISZERO PUSH2 0x1DD JUMPI PUSH2 0x1D6 DUP4 PUSH2 0x263 PUSH1 0x20 SHL PUSH1 0x20 SHR JUMP JUMPDEST SWAP1 POP PUSH2 0x203 JUMP JUMPDEST DUP3 PUSH2 0x1ED DUP4 PUSH2 0x2C8 PUSH1 0x20 SHL PUSH1 0x20 SHR JUMP JUMPDEST PUSH0 ADD SWAP1 DUP2 PUSH2 0x1FB SWAP2 SWAP1 PUSH2 0x50B JUMP JUMPDEST POP PUSH1 0xFF PUSH0 SHL SWAP1 POP JUMPDEST SWAP3 SWAP2 POP POP JUMP JUMPDEST PUSH0 PUSH32 0x8B73C3C69BB8FE3D512ECC4CF759CC79239F7B179B0FFACAA9A75D522B39400F PUSH1 0xE0 MLOAD PUSH2 0x100 MLOAD CHAINID ADDRESS PUSH1 0x40 MLOAD PUSH1 0x20 ADD PUSH2 0x248 SWAP6 SWAP5 SWAP4 SWAP3 SWAP2 SWAP1 PUSH2 0x640 JUMP JUMPDEST PUSH1 0x40 MLOAD PUSH1 0x20 DUP2 DUP4 SUB SUB DUP2 MSTORE SWAP1 PUSH1 0x40 MSTORE DUP1 MLOAD SWAP1 PUSH1 0x20 ADD KECCAK256 SWAP1 POP SWAP1 JUMP JUMPDEST PUSH0 DUP1 DUP3 SWAP1 POP PUSH1 0x1F DUP2 MLOAD GT ISZERO PUSH2 0x2AF JUMPI DUP3 PUSH1 0x40 MLOAD PUSH32 0x305A27A900000000000000000000000000000000000000000000000000000000 DUP2 MSTORE PUSH1 0x4 ADD PUSH2 0x2A6 SWAP2 SWAP1 PUSH2 0x6F7 JUMP JUMPDEST PUSH1 0x40 MLOAD DUP1 SWAP2 SUB SWAP1 REVERT JUMPDEST DUP1 MLOAD DUP2 PUSH2 0x2BB SWAP1 PUSH2 0x744 JUMP JUMPDEST PUSH0 SHR OR PUSH0 SHL SWAP2 POP POP SWAP2 SWAP1 POP JUMP JUMPDEST PUSH0 DUP2 SWAP1 POP SWAP2 SWAP1 POP JUMP JUMPDEST PUSH0 DUP2 MLOAD SWAP1 POP SWAP2 SWAP1 POP JUMP JUMPDEST PUSH32 0x4E487B7100000000000000000000000000000000000000000000000000000000 PUSH0 MSTORE PUSH1 0x41 PUSH1 0x4 MSTORE PUSH1 0x24 PUSH0 REVERT JUMPDEST PUSH32 0x4E487B7100000000000000000000000000000000000000000000000000000000 PUSH0 MSTORE PUSH1 0x22 PUSH1 0x4 MSTORE PUSH1 0x24 PUSH0 REVERT JUMPDEST PUSH0 PUSH1 0x2 DUP3 DIV SWAP1 POP PUSH1 0x1 DUP3 AND DUP1 PUSH2 0x34C JUMPI PUSH1 0x7F DUP3 AND SWAP2 POP JUMPDEST PUSH1 0x20 DUP3 LT DUP2 SUB PUSH2 0x35F JUMPI PUSH2 0x35E PUSH2 0x308 JUMP JUMPDEST JUMPDEST POP SWAP2 SWAP1 POP JUMP JUMPDEST PUSH0 DUP2 SWAP1 POP DUP2 PUSH0 MSTORE PUSH1 0x20 PUSH0 KECCAK256 SWAP1 POP SWAP2 SWAP1 POP JUMP JUMPDEST PUSH0 PUSH1 0x20 PUSH1 0x1F DUP4 ADD DIV SWAP1 POP SWAP2 SWAP1 POP JUMP JUMPDEST PUSH0 DUP3 DUP3 SHL SWAP1 POP SWAP3 SWAP2 POP POP JUMP JUMPDEST PUSH0 PUSH1 0x8 DUP4 MUL PUSH2 0x3C1 PUSH32 0xFFFFFFFFFFFFFFFFFFFFFFFFFFFFFFFFFFFFFFFFFFFFFFFFFFFFFFFFFFFFFFFF DUP3 PUSH2 0x386 JUMP JUMPDEST PUSH2 0x3CB DUP7 DUP4 PUSH2 0x386 JUMP JUMPDEST SWAP6 POP DUP1 NOT DUP5 AND SWAP4 POP DUP1 DUP7 AND DUP5 OR SWAP3 POP POP POP SWAP4 SWAP3 POP POP POP JUMP JUMPDEST PUSH0 DUP2 SWAP1 POP SWAP2 SWAP1 POP JUMP JUMPDEST PUSH0 DUP2 SWAP1 POP SWAP2 SWAP1 POP JUMP JUMPDEST PUSH0 PUSH2 0x40F PUSH2 0x40A PUSH2 0x405 DUP5 PUSH2 0x3E3 JUMP JUMPDEST PUSH2 0x3EC JUMP JUMPDEST PUSH2 0x3E3 JUMP JUMPDEST SWAP1 POP SWAP2 SWAP1 POP JUMP JUMPDEST PUSH0 DUP2 SWAP1 POP SWAP2 SWAP1 POP JUMP JUMPDEST PUSH2 0x428 DUP4 PUSH2 0x3F5 JUMP JUMPDEST PUSH2 0x43C PUSH2 0x434 DUP3 PUSH2 0x416 JUMP JUMPDEST DUP5 DUP5 SLOAD PUSH2 0x392 JUMP JUMPDEST DUP3 SSTORE POP POP POP POP JUMP JUMPDEST PUSH0 SWAP1 JUMP JUMPDEST PUSH2 0x450 PUSH2 0x444 JUMP JUMPDEST PUSH2 0x45B DUP2 DUP5 DUP5 PUSH2 0x41F JUMP JUMPDEST POP POP POP JUMP JUMPDEST JUMPDEST DUP2 DUP2 LT ISZERO PUSH2 0x47E JUMPI PUSH2 0x473 PUSH0 DUP3 PUSH2 0x448 JUMP JUMPDEST PUSH1 0x1 DUP2 ADD SWAP1 POP PUSH2 0x461 JUMP JUMPDEST POP POP JUMP JUMPDEST PUSH1 0x1F DUP3 GT ISZERO PUSH2 0x4C3 JUMPI PUSH2 0x494 DUP2 PUSH2 0x365 JUMP JUMPDEST PUSH2 0x49D DUP5 PUSH2 0x377 JUMP JUMPDEST DUP2 ADD PUSH1 0x20 DUP6 LT ISZERO PUSH2 0x4AC JUMPI DUP2 SWAP1 POP JUMPDEST PUSH2 0x4C0 PUSH2 0x4B8 DUP6 PUSH2 0x377 JUMP JUMPDEST DUP4 ADD DUP3 PUSH2 0x460 JUMP JUMPDEST POP POP JUMPDEST POP POP POP JUMP JUMPDEST PUSH0 DUP3 DUP3 SHR SWAP1 POP SWAP3 SWAP2 POP POP JUMP JUMPDEST PUSH0 PUSH2 0x4E3 PUSH0 NOT DUP5 PUSH1 0x8 MUL PUSH2 0x4C8 JUMP JUMPDEST NOT DUP1 DUP4 AND SWAP2 POP POP SWAP3 SWAP2 POP POP JUMP JUMPDEST PUSH0 PUSH2 0x4FB DUP4 DUP4 PUSH2 0x4D4 JUMP JUMPDEST SWAP2 POP DUP3 PUSH1 0x2 MUL DUP3 OR SWAP1 POP SWAP3 SWAP2 POP POP JUMP JUMPDEST PUSH2 0x514 DUP3 PUSH2 0x2D1 JUMP JUMPDEST PUSH8 0xFFFFFFFFFFFFFFFF DUP2 GT ISZERO PUSH2 0x52D JUMPI PUSH2 0x52C PUSH2 0x2DB JUMP JUMPDEST JUMPDEST PUSH2 0x537 DUP3 SLOAD PUSH2 0x335 JUMP JUMPDEST PUSH2 0x542 DUP3 DUP3 DUP6 PUSH2 0x482 JUMP JUMPDEST PUSH0 PUSH1 0x20 SWAP1 POP PUSH1 0x1F DUP4 GT PUSH1 0x1 DUP2 EQ PUSH2 0x573 JUMPI PUSH0 DUP5 ISZERO PUSH2 0x561 JUMPI DUP3 DUP8 ADD MLOAD SWAP1 POP JUMPDEST PUSH2 0x56B DUP6 DUP3 PUSH2 0x4F0 JUMP JUMPDEST DUP7 SSTORE POP PUSH2 0x5D2 JUMP JUMPDEST PUSH1 0x1F NOT DUP5 AND PUSH2 0x581 DUP7 PUSH2 0x365 JUMP JUMPDEST PUSH0 JUMPDEST DUP3 DUP2 LT ISZERO PUSH2 0x5A8 JUMPI DUP5 DUP10 ADD MLOAD DUP3 SSTORE PUSH1 0x1 DUP3 ADD SWAP2 POP PUSH1 0x20 DUP6 ADD SWAP5 POP PUSH1 0x20 DUP2 ADD SWAP1 POP PUSH2 0x583 JUMP JUMPDEST DUP7 DUP4 LT ISZERO PUSH2 0x5C5 JUMPI DUP5 DUP10 ADD MLOAD PUSH2 0x5C1 PUSH1 0x1F DUP10 AND DUP3 PUSH2 0x4D4 JUMP JUMPDEST DUP4 SSTORE POP JUMPDEST PUSH1 0x1 PUSH1 0x2 DUP9 MUL ADD DUP9 SSTORE POP POP POP JUMPDEST POP POP POP POP POP POP JUMP JUMPDEST PUSH0 DUP2 SWAP1 POP SWAP2 SWAP1 POP JUMP JUMPDEST PUSH2 0x5EC DUP2 PUSH2 0x5DA JUMP JUMPDEST DUP3 MSTORE POP POP JUMP JUMPDEST PUSH2 0x5FB DUP2 PUSH2 0x3E3 JUMP JUMPDEST DUP3 MSTORE POP POP JUMP JUMPDEST PUSH0 PUSH20 0xFFFFFFFFFFFFFFFFFFFFFFFFFFFFFFFFFFFFFFFF DUP3 AND SWAP1 POP SWAP2 SWAP1 POP JUMP JUMPDEST PUSH0 PUSH2 0x62A DUP3 PUSH2 0x601 JUMP JUMPDEST SWAP1 POP SWAP2 SWAP1 POP JUMP JUMPDEST PUSH2 0x63A DUP2 PUSH2 0x620 JUMP JUMPDEST DUP3 MSTORE POP POP JUMP JUMPDEST PUSH0 PUSH1 0xA0 DUP3 ADD SWAP1 POP PUSH2 0x653 PUSH0 DUP4 ADD DUP9 PUSH2 0x5E3 JUMP JUMPDEST PUSH2 0x660 PUSH1 0x20 DUP4 ADD DUP8 PUSH2 0x5E3 JUMP JUMPDEST PUSH2 0x66D PUSH1 0x40 DUP4 ADD DUP7 PUSH2 0x5E3 JUMP JUMPDEST PUSH2 0x67A PUSH1 0x60 DUP4 ADD DUP6 PUSH2 0x5F2 JUMP JUMPDEST PUSH2 0x687 PUSH1 0x80 DUP4 ADD DUP5 PUSH2 0x631 JUMP JUMPDEST SWAP7 SWAP6 POP POP POP POP POP POP JUMP JUMPDEST PUSH0 DUP3 DUP3 MSTORE PUSH1 0x20 DUP3 ADD SWAP1 POP SWAP3 SWAP2 POP POP JUMP JUMPDEST DUP3 DUP2 DUP4 MCOPY PUSH0 DUP4 DUP4 ADD MSTORE POP POP POP JUMP JUMPDEST PUSH0 PUSH1 0x1F NOT PUSH1 0x1F DUP4 ADD AND SWAP1 POP SWAP2 SWAP1 POP JUMP JUMPDEST PUSH0 PUSH2 0x6C9 DUP3 PUSH2 0x2D1 JUMP JUMPDEST PUSH2 0x6D3 DUP2 DUP6 PUSH2 0x691 JUMP JUMPDEST SWAP4 POP PUSH2 0x6E3 DUP2 DUP6 PUSH1 0x20 DUP7 ADD PUSH2 0x6A1 JUMP JUMPDEST PUSH2 0x6EC DUP2 PUSH2 0x6AF JUMP JUMPDEST DUP5 ADD SWAP2 POP POP SWAP3 SWAP2 POP POP JUMP JUMPDEST PUSH0 PUSH1 0x20 DUP3 ADD SWAP1 POP DUP2 DUP2 SUB PUSH0 DUP4 ADD MSTORE PUSH2 0x70F DUP2 DUP5 PUSH2 0x6BF JUMP JUMPDEST SWAP1 POP SWAP3 SWAP2 POP POP JUMP JUMPDEST PUSH0 DUP2 MLOAD SWAP1 POP SWAP2 SWAP1 POP JUMP JUMPDEST PUSH0 DUP2 SWAP1 POP PUSH1 0x20 DUP3 ADD SWAP1 POP SWAP2 SWAP1 POP JUMP JUMPDEST PUSH0 PUSH2 0x73B DUP3 MLOAD PUSH2 0x5DA JUMP JUMPDEST DUP1 SWAP2 POP POP SWAP2 SWAP1 POP JUMP JUMPDEST PUSH0 PUSH2 0x74E DUP3 PUSH2 0x717 JUMP JUMPDEST DUP3 PUSH2 0x758 DUP5 PUSH2 0x721 JUMP JUMPDEST SWAP1 POP PUSH2 0x763 DUP2 PUSH2 0x730 JUMP JUMPDEST SWAP3 POP PUSH1 0x20 DUP3 LT ISZERO PUSH2 0x7A3 JUMPI PUSH2 0x79E PUSH32 0xFFFFFFFFFFFFFFFFFFFFFFFFFFFFFFFFFFFFFFFFFFFFFFFFFFFFFFFFFFFFFFFF DUP4 PUSH1 0x20 SUB PUSH1 0x8 MUL PUSH2 0x386 JUMP JUMPDEST DUP4 AND SWAP3 POP JUMPDEST POP POP SWAP2 SWAP1 POP JUMP JUMPDEST PUSH1 0x80 MLOAD PUSH1 0xA0 MLOAD PUSH1 0xC0 MLOAD PUSH1 0xE0 MLOAD PUSH2 0x100 MLOAD PUSH2 0x120 MLOAD PUSH2 0x140 MLOAD PUSH2 0x20AE PUSH2 0x7FB PUSH0 CODECOPY PUSH0 PUSH2 0xD56 ADD MSTORE PUSH0 PUSH2 0xD1B ADD MSTORE PUSH0 PUSH2 0x124F ADD MSTORE PUSH0 PUSH2 0x122E ADD MSTORE PUSH0 PUSH2 0xA77 ADD MSTORE PUSH0 PUSH2 0xACD ADD MSTORE PUSH0 PUSH2 0xAF6 ADD MSTORE PUSH2 0x20AE PUSH0 RETURN INVALID PUSH1 0x80 PUSH1 0x40 MSTORE CALLVALUE DUP1 ISZERO PUSH2 0xF JUMPI PUSH0 DUP1 REVERT JUMPDEST POP PUSH1 0x4 CALLDATASIZE LT PUSH2 0xF3 JUMPI PUSH0 CALLDATALOAD PUSH1 0xE0 SHR DUP1 PUSH4 0x4000AEA0 GT PUSH2 0x95 JUMPI DUP1 PUSH4 0x95D89B41 GT PUSH2 0x64 JUMPI DUP1 PUSH4 0x95D89B41 EQ PUSH2 0x28D JUMPI DUP1 PUSH4 0xA9059CBB EQ PUSH2 0x2AB JUMPI DUP1 PUSH4 0xD505ACCF EQ PUSH2 0x2DB JUMPI DUP1 PUSH4 0xDD62ED3E EQ PUSH2 0x2F7 JUMPI PUSH2 0xF3 JUMP JUMPDEST DUP1 PUSH4 0x4000AEA0 EQ PUSH2 0x1D9 JUMPI DUP1 PUSH4 0x70A08231 EQ PUSH2 0x209 JUMPI DUP1 PUSH4 0x7ECEBE00 EQ PUSH2 0x239 JUMPI DUP1 PUSH4 0x84B0196E EQ PUSH2 0x269 JUMPI PUSH2 0xF3 JUMP JUMPDEST DUP1 PUSH4 0x18160DDD GT PUSH2 0xD1 JUMPI DUP1 PUSH4 0x18160DDD EQ PUSH2 0x14F JUMPI DUP1 PUSH4 0x23B872DD EQ PUSH2 0x16D JUMPI DUP1 PUSH4 0x313CE567 EQ PUSH2 0x19D JUMPI DUP1 PUSH4 0x3644E515 EQ PUSH2 0x1BB JUMPI PUSH2 0xF3 JUMP JUMPDEST DUP1 PUSH4 0x6FDDE03 EQ PUSH2 0xF7 JUMPI DUP1 PUSH4 0x95EA7B3 EQ PUSH2 0x115 JUMPI DUP1 PUSH4 0x1249C58B EQ PUSH2 0x145 JUMPI JUMPDEST PUSH0 DUP1 REVERT JUMPDEST PUSH2 0xFF PUSH2 0x327 JUMP JUMPDEST PUSH1 0x40 MLOAD PUSH2 0x10C SWAP2 SWAP1 PUSH2 0x1705 JUMP JUMPDEST PUSH1 0x40 MLOAD DUP1 SWAP2 SUB SWAP1 RETURN JUMPDEST PUSH2 0x12F PUSH1 0x4 DUP1 CALLDATASIZE SUB DUP2 ADD SWAP1 PUSH2 0x12A SWAP2 SWAP1 PUSH2 0x17BA JUMP JUMPDEST PUSH2 0x3B7 JUMP JUMPDEST PUSH1 0x40 MLOAD PUSH2 0x13C SWAP2 SWAP1 PUSH2 0x1812 JUMP JUMPDEST PUSH1 0x40 MLOAD DUP1 SWAP2 SUB SWAP1 RETURN JUMPDEST PUSH2 0x14D PUSH2 0x3D9 JUMP JUMPDEST STOP JUMPDEST PUSH2 0x157 PUSH2 0x3E9 JUMP JUMPDEST PUSH1 0x40 MLOAD PUSH2 0x164 SWAP2 SWAP1 PUSH2 0x183A JUMP JUMPDEST PUSH1 0x40 MLOAD DUP1 SWAP2 SUB SWAP1 RETURN JUMPDEST PUSH2 0x187 PUSH1 0x4 DUP1 CALLDATASIZE SUB DUP2 ADD SWAP1 PUSH2 0x182 SWAP2 SWAP1 PUSH2 0x1853 JUMP JUMPDEST PUSH2 0x3F2 JUMP JUMPDEST PUSH1 0x40 MLOAD PUSH2 0x194 SWAP2 SWAP1 PUSH2 0x1812 JUMP JUMPDEST PUSH1 0x40 MLOAD DUP1 SWAP2 SUB SWAP1 RETURN JUMPDEST PUSH2 0x1A5 PUSH2 0x420 JUMP JUMPDEST PUSH1 0x40 MLOAD PUSH2 0x1B2 SWAP2 SWAP1 PUSH2 0x18BE JUMP JUMPDEST PUSH1 0x40 MLOAD DUP1 SWAP2 SUB SWAP1 RETURN JUMPDEST PUSH2 0x1C3 PUSH2 0x428 JUMP JUMPDEST PUSH1 0x40 MLOAD PUSH2 0x1D0 SWAP2 SWAP1 PUSH2 0x18EF JUMP JUMPDEST PUSH1 0x40 MLOAD DUP1 SWAP2 SUB SWAP1 RETURN JUMPDEST PUSH2 0x1F3 PUSH1 0x4 DUP1 CALLDATASIZE SUB DUP2 ADD SWAP1 PUSH2 0x1EE SWAP2 SWAP1 PUSH2 0x1969 JUMP JUMPDEST PUSH2 0x436 JUMP JUMPDEST PUSH1 0x40 MLOAD PUSH2 0x200 SWAP2 SWAP1 PUSH2 0x1812 JUMP JUMPDEST PUSH1 0x40 MLOAD DUP1 SWAP2 SUB SWAP1 RETURN JUMPDEST PUSH2 0x223 PUSH1 0x4 DUP1 CALLDATASIZE SUB DUP2 ADD SWAP1 PUSH2 0x21E SWAP2 SWAP1 PUSH2 0x19DA JUMP JUMPDEST PUSH2 0x4E6 JUMP JUMPDEST PUSH1 0x40 MLOAD PUSH2 0x230 SWAP2 SWAP1 PUSH2 0x183A JUMP JUMPDEST PUSH1 0x40 MLOAD DUP1 SWAP2 SUB SWAP1 RETURN JUMPDEST PUSH2 0x253 PUSH1 0x4 DUP1 CALLDATASIZE SUB DUP2 ADD SWAP1 PUSH2 0x24E SWAP2 SWAP1 PUSH2 0x19DA JUMP JUMPDEST PUSH2 0x52B JUMP JUMPDEST PUSH1 0x40 MLOAD PUSH2 0x260 SWAP2 SWAP1 PUSH2 0x183A JUMP JUMPDEST PUSH1 0x40 MLOAD DUP1 SWAP2 SUB SWAP1 RETURN JUMPDEST PUSH2 0x271 PUSH2 0x53C JUMP JUMPDEST PUSH1 0x40 MLOAD PUSH2 0x284 SWAP8 SWAP7 SWAP6 SWAP5 SWAP4 SWAP3 SWAP2 SWAP1 PUSH2 0x1B05 JUMP JUMPDEST PUSH1 0x40 MLOAD DUP1 SWAP2 SUB SWAP1 RETURN JUMPDEST PUSH2 0x295 PUSH2 0x5E1 JUMP JUMPDEST PUSH1 0x40 MLOAD PUSH2 0x2A2 SWAP2 SWAP1 PUSH2 0x1705 JUMP JUMPDEST PUSH1 0x40 MLOAD DUP1 SWAP2 SUB SWAP1 RETURN JUMPDEST PUSH2 0x2C5 PUSH1 0x4 DUP1 CALLDATASIZE SUB DUP2 ADD SWAP1 PUSH2 0x2C0 SWAP2 SWAP1 PUSH2 0x17BA JUMP JUMPDEST PUSH2 0x671 JUMP JUMPDEST PUSH1 0x40 MLOAD PUSH2 0x2D2 SWAP2 SWAP1 PUSH2 0x1812 JUMP JUMPDEST PUSH1 0x40 MLOAD DUP1 SWAP2 SUB SWAP1 RETURN JUMPDEST PUSH2 0x2F5 PUSH1 0x4 DUP1 CALLDATASIZE SUB DUP2 ADD SWAP1 PUSH2 0x2F0 SWAP2 SWAP1 PUSH2 0x1BDB JUMP JUMPDEST PUSH2 0x693 JUMP JUMPDEST STOP JUMPDEST PUSH2 0x311 PUSH1 0x4 DUP1 CALLDATASIZE SUB DUP2 ADD SWAP1 PUSH2 0x30C SWAP2 SWAP1 PUSH2 0x1C78 JUMP JUMPDEST PUSH2 0x7D8 JUMP JUMPDEST PUSH1 0x40 MLOAD PUSH2 0x31E SWAP2 SWAP1 PUSH2 0x183A JUMP JUMPDEST PUSH1 0x40 MLOAD DUP1 SWAP2 SUB SWAP1 RETURN JUMPDEST PUSH1 0x60 PUSH1 0x3 DUP1 SLOAD PUSH2 0x336 SWAP1 PUSH2 0x1CE3 JUMP JUMPDEST DUP1 PUSH1 0x1F ADD PUSH1 0x20 DUP1 SWAP2 DIV MUL PUSH1 0x20 ADD PUSH1 0x40 MLOAD SWAP1 DUP2 ADD PUSH1 0x40 MSTORE DUP1 SWAP3 SWAP2 SWAP1 DUP2 DUP2 MSTORE PUSH1 0x20 ADD DUP3 DUP1 SLOAD PUSH2 0x362 SWAP1 PUSH2 0x1CE3 JUMP JUMPDEST DUP1 ISZERO PUSH2 0x3AD JUMPI DUP1 PUSH1 0x1F LT PUSH2 0x384 JUMPI PUSH2 0x100 DUP1 DUP4 SLOAD DIV MUL DUP4 MSTORE SWAP2 PUSH1 0x20 ADD SWAP2 PUSH2 0x3AD JUMP JUMPDEST DUP3 ADD SWAP2 SWAP1 PUSH0 MSTORE PUSH1 0x20 PUSH0 KECCAK256 SWAP1 JUMPDEST DUP2 SLOAD DUP2 MSTORE SWAP1 PUSH1 0x1 ADD SWAP1 PUSH1 0x20 ADD DUP1 DUP4 GT PUSH2 0x390 JUMPI DUP3 SWAP1 SUB PUSH1 0x1F AND DUP3 ADD SWAP2 JUMPDEST POP POP POP POP POP SWAP1 POP SWAP1 JUMP JUMPDEST PUSH0 DUP1 PUSH2 0x3C1 PUSH2 0x85A JUMP JUMPDEST SWAP1 POP PUSH2 0x3CE DUP2 DUP6 DUP6 PUSH2 0x861 JUMP JUMPDEST PUSH1 0x1 SWAP2 POP POP SWAP3 SWAP2 POP POP JUMP JUMPDEST PUSH2 0x3E7 CALLER PUSH4 0x3B9ACA00 PUSH2 0x873 JUMP JUMPDEST JUMP JUMPDEST PUSH0 PUSH1 0x2 SLOAD SWAP1 POP SWAP1 JUMP JUMPDEST PUSH0 DUP1 PUSH2 0x3FC PUSH2 0x85A JUMP JUMPDEST SWAP1 POP PUSH2 0x409 DUP6 DUP3 DUP6 PUSH2 0x8F2 JUMP JUMPDEST PUSH2 0x414 DUP6 DUP6 DUP6 PUSH2 0x984 JUMP JUMPDEST PUSH1 0x1 SWAP2 POP POP SWAP4 SWAP3 POP POP POP JUMP JUMPDEST PUSH0 PUSH1 0x12 SWAP1 POP SWAP1 JUMP JUMPDEST PUSH0 PUSH2 0x431 PUSH2 0xA74 JUMP JUMPDEST SWAP1 POP SWAP1 JUMP JUMPDEST PUSH0 PUSH2 0x441 DUP6 DUP6 PUSH2 0x671 JUMP JUMPDEST PUSH2 0x484 JUMPI DUP5 DUP5 PUSH1 0x40 MLOAD PUSH32 0x231B03AE00000000000000000000000000000000000000000000000000000000 DUP2 MSTORE PUSH1 0x4 ADD PUSH2 0x47B SWAP3 SWAP2 SWAP1 PUSH2 0x1D13 JUMP JUMPDEST PUSH1 0x40 MLOAD DUP1 SWAP2 SUB SWAP1 REVERT JUMPDEST PUSH2 0x4DA PUSH2 0x48F PUSH2 0x85A JUMP JUMPDEST DUP7 DUP7 DUP7 DUP7 DUP1 DUP1 PUSH1 0x1F ADD PUSH1 0x20 DUP1 SWAP2 DIV MUL PUSH1 0x20 ADD PUSH1 0x40 MLOAD SWAP1 DUP2 ADD PUSH1 0x40 MSTORE DUP1 SWAP4 SWAP3 SWAP2 SWAP1 DUP2 DUP2 MSTORE PUSH1 0x20 ADD DUP4 DUP4 DUP1 DUP3 DUP5 CALLDATACOPY PUSH0 DUP2 DUP5 ADD MSTORE PUSH1 0x1F NOT PUSH1 0x1F DUP3 ADD AND SWAP1 POP DUP1 DUP4 ADD SWAP3 POP POP POP POP POP POP POP PUSH2 0xB2A JUMP JUMPDEST PUSH1 0x1 SWAP1 POP SWAP5 SWAP4 POP POP POP POP JUMP JUMPDEST PUSH0 DUP1 PUSH0 DUP4 PUSH20 0xFFFFFFFFFFFFFFFFFFFFFFFFFFFFFFFFFFFFFFFF AND PUSH20 0xFFFFFFFFFFFFFFFFFFFFFFFFFFFFFFFFFFFFFFFF AND DUP2 MSTORE PUSH1 0x20 ADD SWAP1 DUP2 MSTORE PUSH1 0x20 ADD PUSH0 KECCAK256 SLOAD SWAP1 POP SWAP2 SWAP1 POP JUMP JUMPDEST PUSH0 PUSH2 0x535 DUP3 PUSH2 0xCCC JUMP JUMPDEST SWAP1 POP SWAP2 SWAP1 POP JUMP JUMPDEST PUSH0 PUSH1 0x60 DUP1 PUSH0 DUP1 PUSH0 PUSH1 0x60 PUSH2 0x54D PUSH2 0xD12 JUMP JUMPDEST PUSH2 0x555 PUSH2 0xD4D JUMP JUMPDEST CHAINID ADDRESS PUSH0 DUP1 SHL PUSH0 PUSH8 0xFFFFFFFFFFFFFFFF DUP2 GT ISZERO PUSH2 0x574 JUMPI PUSH2 0x573 PUSH2 0x1D3A JUMP JUMPDEST JUMPDEST PUSH1 0x40 MLOAD SWAP1 DUP1 DUP3 MSTORE DUP1 PUSH1 0x20 MUL PUSH1 0x20 ADD DUP3 ADD PUSH1 0x40 MSTORE DUP1 ISZERO PUSH2 0x5A2 JUMPI DUP2 PUSH1 0x20 ADD PUSH1 0x20 DUP3 MUL DUP1 CALLDATASIZE DUP4 CALLDATACOPY DUP1 DUP3 ADD SWAP2 POP POP SWAP1 POP JUMPDEST POP PUSH32 0xF00000000000000000000000000000000000000000000000000000000000000 SWAP6 SWAP5 SWAP4 SWAP3 SWAP2 SWAP1 SWAP7 POP SWAP7 POP SWAP7 POP SWAP7 POP SWAP7 POP SWAP7 POP SWAP7 POP SWAP1 SWAP2 SWAP3 SWAP4 SWAP5 SWAP6 SWAP7 JUMP JUMPDEST PUSH1 0x60 PUSH1 0x4 DUP1 SLOAD PUSH2 0x5F0 SWAP1 PUSH2 0x1CE3 JUMP JUMPDEST DUP1 PUSH1 0x1F ADD PUSH1 0x20 DUP1 SWAP2 DIV MUL PUSH1 0x20 ADD PUSH1 0x40 MLOAD SWAP1 DUP2 ADD PUSH1 0x40 MSTORE DUP1 SWAP3 SWAP2 SWAP1 DUP2 DUP2 MSTORE PUSH1 0x20 ADD DUP3 DUP1 SLOAD PUSH2 0x61C SWAP1 PUSH2 0x1CE3 JUMP JUMPDEST DUP1 ISZERO PUSH2 0x667 JUMPI DUP1 PUSH1 0x1F LT PUSH2 0x63E JUMPI PUSH2 0x100 DUP1 DUP4 SLOAD DIV MUL DUP4 MSTORE SWAP2 PUSH1 0x20 ADD SWAP2 PUSH2 0x667 JUMP JUMPDEST DUP3 ADD SWAP2 SWAP1 PUSH0 MSTORE PUSH1 0x20 PUSH0 KECCAK256 SWAP1 JUMPDEST DUP2 SLOAD DUP2 MSTORE SWAP1 PUSH1 0x1 ADD SWAP1 PUSH1 0x20 ADD DUP1 DUP4 GT PUSH2 0x64A JUMPI DUP3 SWAP1 SUB PUSH1 0x1F AND DUP3 ADD SWAP2 JUMPDEST POP POP POP POP POP SWAP1 POP SWAP1 JUMP JUMPDEST PUSH0 DUP1 PUSH2 0x67B PUSH2 0x85A JUMP JUMPDEST SWAP1 POP PUSH2 0x688 DUP2 DUP6 DUP6 PUSH2 0x984 JUMP JUMPDEST PUSH1 0x1 SWAP2 POP POP SWAP3 SWAP2 POP POP JUMP JUMPDEST DUP4 TIMESTAMP GT ISZERO PUSH2 0x6D8 JUMPI DUP4 PUSH1 0x40 MLOAD PUSH32 0x6279130200000000000000000000000000000000000000000000000000000000 DUP2 MSTORE PUSH1 0x4 ADD PUSH2 0x6CF SWAP2 SWAP1 PUSH2 0x183A JUMP JUMPDEST PUSH1 0x40 MLOAD DUP1 SWAP2 SUB SWAP1 REVERT JUMPDEST PUSH0 PUSH32 0x6E71EDAE12B1B97F4D1F60370FEF10105FA2FAAE0126114A169C64845D6126C9 DUP9 DUP9 DUP9 PUSH2 0x706 DUP13 PUSH2 0xD88 JUMP JUMPDEST DUP10 PUSH1 0x40 MLOAD PUSH1 0x20 ADD PUSH2 0x71C SWAP7 SWAP6 SWAP5 SWAP4 SWAP3 SWAP2 SWAP1 PUSH2 0x1D67 JUMP JUMPDEST PUSH1 0x40 MLOAD PUSH1 0x20 DUP2 DUP4 SUB SUB DUP2 MSTORE SWAP1 PUSH1 0x40 MSTORE DUP1 MLOAD SWAP1 PUSH1 0x20 ADD KECCAK256 SWAP1 POP PUSH0 PUSH2 0x73E DUP3 PUSH2 0xDDB JUMP JUMPDEST SWAP1 POP PUSH0 PUSH2 0x74D DUP3 DUP8 DUP8 DUP8 PUSH2 0xDF4 JUMP JUMPDEST SWAP1 POP DUP10 PUSH20 0xFFFFFFFFFFFFFFFFFFFFFFFFFFFFFFFFFFFFFFFF AND DUP2 PUSH20 0xFFFFFFFFFFFFFFFFFFFFFFFFFFFFFFFFFFFFFFFF AND EQ PUSH2 0x7C1 JUMPI DUP1 DUP11 PUSH1 0x40 MLOAD PUSH32 0x4B800E4600000000000000000000000000000000000000000000000000000000 DUP2 MSTORE PUSH1 0x4 ADD PUSH2 0x7B8 SWAP3 SWAP2 SWAP1 PUSH2 0x1DC6 JUMP JUMPDEST PUSH1 0x40 MLOAD DUP1 SWAP2 SUB SWAP1 REVERT JUMPDEST PUSH2 0x7CC DUP11 DUP11 DUP11 PUSH2 0x861 JUMP JUMPDEST POP POP POP POP POP POP POP POP POP POP JUMP JUMPDEST PUSH0 PUSH1 0x1 PUSH0 DUP5 PUSH20 0xFFFFFFFFFFFFFFFFFFFFFFFFFFFFFFFFFFFFFFFF AND PUSH20 0xFFFFFFFFFFFFFFFFFFFFFFFFFFFFFFFFFFFFFFFF AND DUP2 MSTORE PUSH1 0x20 ADD SWAP1 DUP2 MSTORE PUSH1 0x20 ADD PUSH0 KECCAK256 PUSH0 DUP4 PUSH20 0xFFFFFFFFFFFFFFFFFFFFFFFFFFFFFFFFFFFFFFFF AND PUSH20 0xFFFFFFFFFFFFFFFFFFFFFFFFFFFFFFFFFFFFFFFF AND DUP2 MSTORE PUSH1 0x20 ADD SWAP1 DUP2 MSTORE PUSH1 0x20 ADD PUSH0 KECCAK256 SLOAD SWAP1 POP SWAP3 SWAP2 POP POP JUMP JUMPDEST PUSH0 CALLER SWAP1 POP SWAP1 JUMP JUMPDEST PUSH2 0x86E DUP4 DUP4 DUP4 PUSH1 0x1 PUSH2 0xE22 JUMP JUMPDEST POP POP POP JUMP JUMPDEST PUSH0 PUSH20 0xFFFFFFFFFFFFFFFFFFFFFFFFFFFFFFFFFFFFFFFF AND DUP3 PUSH20 0xFFFFFFFFFFFFFFFFFFFFFFFFFFFFFFFFFFFFFFFF AND SUB PUSH2 0x8E3 JUMPI PUSH0 PUSH1 0x40 MLOAD PUSH32 0xEC442F0500000000000000000000000000000000000000000000000000000000 DUP2 MSTORE PUSH1 0x4 ADD PUSH2 0x8DA SWAP2 SWAP1 PUSH2 0x1DED JUMP JUMPDEST PUSH1 0x40 MLOAD DUP1 SWAP2 SUB SWAP1 REVERT JUMPDEST PUSH2 0x8EE PUSH0 DUP4 DUP4 PUSH2 0xFF1 JUMP JUMPDEST POP POP JUMP JUMPDEST PUSH0 PUSH2 0x8FD DUP5 DUP5 PUSH2 0x7D8 JUMP JUMPDEST SWAP1 POP PUSH32 0xFFFFFFFFFFFFFFFFFFFFFFFFFFFFFFFFFFFFFFFFFFFFFFFFFFFFFFFFFFFFFFFF DUP2 EQ PUSH2 0x97E JUMPI DUP2 DUP2 LT ISZERO PUSH2 0x96F JUMPI DUP3 DUP2 DUP4 PUSH1 0x40 MLOAD PUSH32 0xFB8F41B200000000000000000000000000000000000000000000000000000000 DUP2 MSTORE PUSH1 0x4 ADD PUSH2 0x966 SWAP4 SWAP3 SWAP2 SWAP1 PUSH2 0x1E06 JUMP JUMPDEST PUSH1 0x40 MLOAD DUP1 SWAP2 SUB SWAP1 REVERT JUMPDEST PUSH2 0x97D DUP5 DUP5 DUP5 DUP5 SUB PUSH0 PUSH2 0xE22 JUMP JUMPDEST JUMPDEST POP POP POP POP JUMP JUMPDEST PUSH0 PUSH20 0xFFFFFFFFFFFFFFFFFFFFFFFFFFFFFFFFFFFFFFFF AND DUP4 PUSH20 0xFFFFFFFFFFFFFFFFFFFFFFFFFFFFFFFFFFFFFFFF AND SUB PUSH2 0x9F4 JUMPI PUSH0 PUSH1 0x40 MLOAD PUSH32 0x96C6FD1E00000000000000000000000000000000000000000000000000000000 DUP2 MSTORE PUSH1 0x4 ADD PUSH2 0x9EB SWAP2 SWAP1 PUSH2 0x1DED JUMP JUMPDEST PUSH1 0x40 MLOAD DUP1 SWAP2 SUB SWAP1 REVERT JUMPDEST PUSH0 PUSH20 0xFFFFFFFFFFFFFFFFFFFFFFFFFFFFFFFFFFFFFFFF AND DUP3 PUSH20 0xFFFFFFFFFFFFFFFFFFFFFFFFFFFFFFFFFFFFFFFF AND SUB PUSH2 0xA64 JUMPI PUSH0 PUSH1 0x40 MLOAD PUSH32 0xEC442F0500000000000000000000000000000000000000000000000000000000 DUP2 MSTORE PUSH1 0x4 ADD PUSH2 0xA5B SWAP2 SWAP1 PUSH2 0x1DED JUMP JUMPDEST PUSH1 0x40 MLOAD DUP1 SWAP2 SUB SWAP1 REVERT JUMPDEST PUSH2 0xA6F DUP4 DUP4 DUP4 PUSH2 0xFF1 JUMP JUMPDEST POP POP POP JUMP JUMPDEST PUSH0 PUSH32 0x0 PUSH20 0xFFFFFFFFFFFFFFFFFFFFFFFFFFFFFFFFFFFFFFFF AND ADDRESS PUSH20 0xFFFFFFFFFFFFFFFFFFFFFFFFFFFFFFFFFFFFFFFF AND EQ DUP1 ISZERO PUSH2 0xAEF JUMPI POP PUSH32 0x0 CHAINID EQ JUMPDEST ISZERO PUSH2 0xB1C JUMPI PUSH32 0x0 SWAP1 POP PUSH2 0xB27 JUMP JUMPDEST PUSH2 0xB24 PUSH2 0x120A JUMP JUMPDEST SWAP1 POP JUMPDEST SWAP1 JUMP JUMPDEST PUSH0 DUP4 PUSH20 0xFFFFFFFFFFFFFFFFFFFFFFFFFFFFFFFFFFFFFFFF AND EXTCODESIZE SUB ISZERO PUSH2 0xCC6 JUMPI DUP3 PUSH20 0xFFFFFFFFFFFFFFFFFFFFFFFFFFFFFFFFFFFFFFFF AND PUSH4 0x88A7CA5C PUSH2 0xB6D PUSH2 0x85A JUMP JUMPDEST DUP7 DUP6 DUP6 PUSH1 0x40 MLOAD DUP6 PUSH4 0xFFFFFFFF AND PUSH1 0xE0 SHL DUP2 MSTORE PUSH1 0x4 ADD PUSH2 0xB8F SWAP5 SWAP4 SWAP3 SWAP2 SWAP1 PUSH2 0x1E8D JUMP JUMPDEST PUSH1 0x20 PUSH1 0x40 MLOAD DUP1 DUP4 SUB DUP2 PUSH0 DUP8 GAS CALL SWAP3 POP POP POP DUP1 ISZERO PUSH2 0xBCA JUMPI POP PUSH1 0x40 MLOAD RETURNDATASIZE PUSH1 0x1F NOT PUSH1 0x1F DUP3 ADD AND DUP3 ADD DUP1 PUSH1 0x40 MSTORE POP DUP2 ADD SWAP1 PUSH2 0xBC7 SWAP2 SWAP1 PUSH2 0x1F2C JUMP JUMPDEST PUSH1 0x1 JUMPDEST PUSH2 0xC3B JUMPI RETURNDATASIZE DUP1 PUSH0 DUP2 EQ PUSH2 0xBF8 JUMPI PUSH1 0x40 MLOAD SWAP2 POP PUSH1 0x1F NOT PUSH1 0x3F RETURNDATASIZE ADD AND DUP3 ADD PUSH1 0x40 MSTORE RETURNDATASIZE DUP3 MSTORE RETURNDATASIZE PUSH0 PUSH1 0x20 DUP5 ADD RETURNDATACOPY PUSH2 0xBFD JUMP JUMPDEST PUSH1 0x60 SWAP2 POP JUMPDEST POP DUP4 PUSH1 0x40 MLOAD PUSH32 0x373C5C7800000000000000000000000000000000000000000000000000000000 DUP2 MSTORE PUSH1 0x4 ADD PUSH2 0xC32 SWAP2 SWAP1 PUSH2 0x1DED JUMP JUMPDEST PUSH1 0x40 MLOAD DUP1 SWAP2 SUB SWAP1 REVERT JUMPDEST PUSH4 0x88A7CA5C PUSH1 0xE0 SHL PUSH28 0xFFFFFFFFFFFFFFFFFFFFFFFFFFFFFFFFFFFFFFFFFFFFFFFFFFFFFFFF NOT AND DUP2 PUSH28 0xFFFFFFFFFFFFFFFFFFFFFFFFFFFFFFFFFFFFFFFFFFFFFFFFFFFFFFFF NOT AND EQ PUSH2 0xCC4 JUMPI DUP4 PUSH1 0x40 MLOAD PUSH32 0x373C5C7800000000000000000000000000000000000000000000000000000000 DUP2 MSTORE PUSH1 0x4 ADD PUSH2 0xCBB SWAP2 SWAP1 PUSH2 0x1DED JUMP JUMPDEST PUSH1 0x40 MLOAD DUP1 SWAP2 SUB SWAP1 REVERT JUMPDEST POP JUMPDEST POP POP POP POP JUMP JUMPDEST PUSH0 PUSH1 0x7 PUSH0 DUP4 PUSH20 0xFFFFFFFFFFFFFFFFFFFFFFFFFFFFFFFFFFFFFFFF AND PUSH20 0xFFFFFFFFFFFFFFFFFFFFFFFFFFFFFFFFFFFFFFFF AND DUP2 MSTORE PUSH1 0x20 ADD SWAP1 DUP2 MSTORE PUSH1 0x20 ADD PUSH0 KECCAK256 SLOAD SWAP1 POP SWAP2 SWAP1 POP JUMP JUMPDEST PUSH1 0x60 PUSH2 0xD48 PUSH1 0x5 PUSH32 0x0 PUSH2 0x129F SWAP1 SWAP2 SWAP1 PUSH4 0xFFFFFFFF AND JUMP JUMPDEST SWAP1 POP SWAP1 JUMP JUMPDEST PUSH1 0x60 PUSH2 0xD83 PUSH1 0x6 PUSH32 0x0 PUSH2 0x129F SWAP1 SWAP2 SWAP1 PUSH4 0xFFFFFFFF AND JUMP JUMPDEST SWAP1 POP SWAP1 JUMP JUMPDEST PUSH0 PUSH1 0x7 PUSH0 DUP4 PUSH20 0xFFFFFFFFFFFFFFFFFFFFFFFFFFFFFFFFFFFFFFFF AND PUSH20 0xFFFFFFFFFFFFFFFFFFFFFFFFFFFFFFFFFFFFFFFF AND DUP2 MSTORE PUSH1 0x20 ADD SWAP1 DUP2 MSTORE PUSH1 0x20 ADD PUSH0 KECCAK256 PUSH0 DUP2 SLOAD DUP1 SWAP3 SWAP2 SWAP1 PUSH1 0x1 ADD SWAP2 SWAP1 POP SSTORE SWAP1 POP SWAP2 SWAP1 POP JUMP JUMPDEST PUSH0 PUSH2 0xDED PUSH2 0xDE7 PUSH2 0xA74 JUMP JUMPDEST DUP4 PUSH2 0x134C JUMP JUMPDEST SWAP1 POP SWAP2 SWAP1 POP JUMP JUMPDEST PUSH0 DUP1 PUSH0 DUP1 PUSH2 0xE04 DUP9 DUP9 DUP9 DUP9 PUSH2 0x138C JUMP JUMPDEST SWAP3 POP SWAP3 POP SWAP3 POP PUSH2 0xE14 DUP3 DUP3 PUSH2 0x1473 JUMP JUMPDEST DUP3 SWAP4 POP POP POP POP SWAP5 SWAP4 POP POP POP POP JUMP JUMPDEST PUSH0 PUSH20 0xFFFFFFFFFFFFFFFFFFFFFFFFFFFFFFFFFFFFFFFF AND DUP5 PUSH20 0xFFFFFFFFFFFFFFFFFFFFFFFFFFFFFFFFFFFFFFFF AND SUB PUSH2 0xE92 JUMPI PUSH0 PUSH1 0x40 MLOAD PUSH32 0xE602DF0500000000000000000000000000000000000000000000000000000000 DUP2 MSTORE PUSH1 0x4 ADD PUSH2 0xE89 SWAP2 SWAP1 PUSH2 0x1DED JUMP JUMPDEST PUSH1 0x40 MLOAD DUP1 SWAP2 SUB SWAP1 REVERT JUMPDEST PUSH0 PUSH20 0xFFFFFFFFFFFFFFFFFFFFFFFFFFFFFFFFFFFFFFFF AND DUP4 PUSH20 0xFFFFFFFFFFFFFFFFFFFFFFFFFFFFFFFFFFFFFFFF AND SUB PUSH2 0xF02 JUMPI PUSH0 PUSH1 0x40 MLOAD PUSH32 0x94280D6200000000000000000000000000000000000000000000000000000000 DUP2 MSTORE PUSH1 0x4 ADD PUSH2 0xEF9 SWAP2 SWAP1 PUSH2 0x1DED JUMP JUMPDEST PUSH1 0x40 MLOAD DUP1 SWAP2 SUB SWAP1 REVERT JUMPDEST DUP2 PUSH1 0x1 PUSH0 DUP7 PUSH20 0xFFFFFFFFFFFFFFFFFFFFFFFFFFFFFFFFFFFFFFFF AND PUSH20 0xFFFFFFFFFFFFFFFFFFFFFFFFFFFFFFFFFFFFFFFF AND DUP2 MSTORE PUSH1 0x20 ADD SWAP1 DUP2 MSTORE PUSH1 0x20 ADD PUSH0 KECCAK256 PUSH0 DUP6 PUSH20 0xFFFFFFFFFFFFFFFFFFFFFFFFFFFFFFFFFFFFFFFF AND PUSH20 0xFFFFFFFFFFFFFFFFFFFFFFFFFFFFFFFFFFFFFFFF AND DUP2 MSTORE PUSH1 0x20 ADD SWAP1 DUP2 MSTORE PUSH1 0x20 ADD PUSH0 KECCAK256 DUP2 SWAP1 SSTORE POP DUP1 ISZERO PUSH2 0xFEB JUMPI DUP3 PUSH20 0xFFFFFFFFFFFFFFFFFFFFFFFFFFFFFFFFFFFFFFFF AND DUP5 PUSH20 0xFFFFFFFFFFFFFFFFFFFFFFFFFFFFFFFFFFFFFFFF AND PUSH32 0x8C5BE1E5EBEC7D5BD14F71427D1E84F3DD0314C0F7B2291E5B200AC8C7C3B925 DUP5 PUSH1 0x40 MLOAD PUSH2 0xFE2 SWAP2 SWAP1 PUSH2 0x183A JUMP JUMPDEST PUSH1 0x40 MLOAD DUP1 SWAP2 SUB SWAP1 LOG3 JUMPDEST POP POP POP POP JUMP JUMPDEST PUSH0 PUSH20 0xFFFFFFFFFFFFFFFFFFFFFFFFFFFFFFFFFFFFFFFF AND DUP4 PUSH20 0xFFFFFFFFFFFFFFFFFFFFFFFFFFFFFFFFFFFFFFFF AND SUB PUSH2 0x1041 JUMPI DUP1 PUSH1 0x2 PUSH0 DUP3 DUP3 SLOAD PUSH2 0x1035 SWAP2 SWAP1 PUSH2 0x1F84 JUMP JUMPDEST SWAP3 POP POP DUP2 SWAP1 SSTORE POP PUSH2 0x110F JUMP JUMPDEST PUSH0 DUP1 PUSH0 DUP6 PUSH20 0xFFFFFFFFFFFFFFFFFFFFFFFFFFFFFFFFFFFFFFFF AND PUSH20 0xFFFFFFFFFFFFFFFFFFFFFFFFFFFFFFFFFFFFFFFF AND DUP2 MSTORE PUSH1 0x20 ADD SWAP1 DUP2 MSTORE PUSH1 0x20 ADD PUSH0 KECCAK256 SLOAD SWAP1 POP DUP2 DUP2 LT ISZERO PUSH2 0x10CA JUMPI DUP4 DUP2 DUP4 PUSH1 0x40 MLOAD PUSH32 0xE450D38C00000000000000000000000000000000000000000000000000000000 DUP2 MSTORE PUSH1 0x4 ADD PUSH2 0x10C1 SWAP4 SWAP3 SWAP2 SWAP1 PUSH2 0x1E06 JUMP JUMPDEST PUSH1 0x40 MLOAD DUP1 SWAP2 SUB SWAP1 REVERT JUMPDEST DUP2 DUP2 SUB PUSH0 DUP1 DUP7 PUSH20 0xFFFFFFFFFFFFFFFFFFFFFFFFFFFFFFFFFFFFFFFF AND PUSH20 0xFFFFFFFFFFFFFFFFFFFFFFFFFFFFFFFFFFFFFFFF AND DUP2 MSTORE PUSH1 0x20 ADD SWAP1 DUP2 MSTORE PUSH1 0x20 ADD PUSH0 KECCAK256 DUP2 SWAP1 SSTORE POP POP JUMPDEST PUSH0 PUSH20 0xFFFFFFFFFFFFFFFFFFFFFFFFFFFFFFFFFFFFFFFF AND DUP3 PUSH20 0xFFFFFFFFFFFFFFFFFFFFFFFFFFFFFFFFFFFFFFFF AND SUB PUSH2 0x1156 JUMPI DUP1 PUSH1 0x2 PUSH0 DUP3 DUP3 SLOAD SUB SWAP3 POP POP DUP2 SWAP1 SSTORE POP PUSH2 0x11A0 JUMP JUMPDEST DUP1 PUSH0 DUP1 DUP5 PUSH20 0xFFFFFFFFFFFFFFFFFFFFFFFFFFFFFFFFFFFFFFFF AND PUSH20 0xFFFFFFFFFFFFFFFFFFFFFFFFFFFFFFFFFFFFFFFF AND DUP2 MSTORE PUSH1 0x20 ADD SWAP1 DUP2 MSTORE PUSH1 0x20 ADD PUSH0 KECCAK256 PUSH0 DUP3 DUP3 SLOAD ADD SWAP3 POP POP DUP2 SWAP1 SSTORE POP JUMPDEST DUP2 PUSH20 0xFFFFFFFFFFFFFFFFFFFFFFFFFFFFFFFFFFFFFFFF AND DUP4 PUSH20 0xFFFFFFFFFFFFFFFFFFFFFFFFFFFFFFFFFFFFFFFF AND PUSH32 0xDDF252AD1BE2C89B69C2B068FC378DAA952BA7F163C4A11628F55A4DF523B3EF DUP4 PUSH1 0x40 MLOAD PUSH2 0x11FD SWAP2 SWAP1 PUSH2 0x183A JUMP JUMPDEST PUSH1 0x40 MLOAD DUP1 SWAP2 SUB SWAP1 LOG3 POP POP POP JUMP JUMPDEST PUSH0 PUSH32 0x8B73C3C69BB8FE3D512ECC4CF759CC79239F7B179B0FFACAA9A75D522B39400F PUSH32 0x0 PUSH32 0x0 CHAINID ADDRESS PUSH1 0x40 MLOAD PUSH1 0x20 ADD PUSH2 0x1284 SWAP6 SWAP5 SWAP4 SWAP3 SWAP2 SWAP1 PUSH2 0x1FB7 JUMP JUMPDEST PUSH1 0x40 MLOAD PUSH1 0x20 DUP2 DUP4 SUB SUB DUP2 MSTORE SWAP1 PUSH1 0x40 MSTORE DUP1 MLOAD SWAP1 PUSH1 0x20 ADD KECCAK256 SWAP1 POP SWAP1 JUMP JUMPDEST PUSH1 0x60 PUSH1 0xFF PUSH0 SHL DUP4 EQ PUSH2 0x12BB JUMPI PUSH2 0x12B4 DUP4 PUSH2 0x15D5 JUMP JUMPDEST SWAP1 POP PUSH2 0x1346 JUMP JUMPDEST DUP2 DUP1 SLOAD PUSH2 0x12C7 SWAP1 PUSH2 0x1CE3 JUMP JUMPDEST DUP1 PUSH1 0x1F ADD PUSH1 0x20 DUP1 SWAP2 DIV MUL PUSH1 0x20 ADD PUSH1 0x40 MLOAD SWAP1 DUP2 ADD PUSH1 0x40 MSTORE DUP1 SWAP3 SWAP2 SWAP1 DUP2 DUP2 MSTORE PUSH1 0x20 ADD DUP3 DUP1 SLOAD PUSH2 0x12F3 SWAP1 PUSH2 0x1CE3 JUMP JUMPDEST DUP1 ISZERO PUSH2 0x133E JUMPI DUP1 PUSH1 0x1F LT PUSH2 0x1315 JUMPI PUSH2 0x100 DUP1 DUP4 SLOAD DIV MUL DUP4 MSTORE SWAP2 PUSH1 0x20 ADD SWAP2 PUSH2 0x133E JUMP JUMPDEST DUP3 ADD SWAP2 SWAP1 PUSH0 MSTORE PUSH1 0x20 PUSH0 KECCAK256 SWAP1 JUMPDEST DUP2 SLOAD DUP2 MSTORE SWAP1 PUSH1 0x1 ADD SWAP1 PUSH1 0x20 ADD DUP1 DUP4 GT PUSH2 0x1321 JUMPI DUP3 SWAP1 SUB PUSH1 0x1F AND DUP3 ADD SWAP2 JUMPDEST POP POP POP POP POP SWAP1 POP JUMPDEST SWAP3 SWAP2 POP POP JUMP JUMPDEST PUSH0 PUSH1 0x40 MLOAD PUSH32 0x1901000000000000000000000000000000000000000000000000000000000000 DUP2 MSTORE DUP4 PUSH1 0x2 DUP3 ADD MSTORE DUP3 PUSH1 0x22 DUP3 ADD MSTORE PUSH1 0x42 DUP2 KECCAK256 SWAP2 POP POP SWAP3 SWAP2 POP POP JUMP JUMPDEST PUSH0 DUP1 PUSH0 PUSH32 0x7FFFFFFFFFFFFFFFFFFFFFFFFFFFFFFF5D576E7357A4501DDFE92F46681B20A0 DUP5 PUSH0 SHR GT ISZERO PUSH2 0x13C8 JUMPI PUSH0 PUSH1 0x3 DUP6 SWAP3 POP SWAP3 POP SWAP3 POP PUSH2 0x1469 JUMP JUMPDEST PUSH0 PUSH1 0x1 DUP9 DUP9 DUP9 DUP9 PUSH1 0x40 MLOAD PUSH0 DUP2 MSTORE PUSH1 0x20 ADD PUSH1 0x40 MSTORE PUSH1 0x40 MLOAD PUSH2 0x13EB SWAP5 SWAP4 SWAP3 SWAP2 SWAP1 PUSH2 0x2008 JUMP JUMPDEST PUSH1 0x20 PUSH1 0x40 MLOAD PUSH1 0x20 DUP2 SUB SWAP1 DUP1 DUP5 SUB SWAP1 DUP6 GAS STATICCALL ISZERO DUP1 ISZERO PUSH2 0x140B JUMPI RETURNDATASIZE PUSH0 DUP1 RETURNDATACOPY RETURNDATASIZE PUSH0 REVERT JUMPDEST POP POP POP PUSH1 0x20 PUSH1 0x40 MLOAD SUB MLOAD SWAP1 POP PUSH0 PUSH20 0xFFFFFFFFFFFFFFFFFFFFFFFFFFFFFFFFFFFFFFFF AND DUP2 PUSH20 0xFFFFFFFFFFFFFFFFFFFFFFFFFFFFFFFFFFFFFFFF AND SUB PUSH2 0x145C JUMPI PUSH0 PUSH1 0x1 PUSH0 DUP1 SHL SWAP4 POP SWAP4 POP SWAP4 POP POP PUSH2 0x1469 JUMP JUMPDEST DUP1 PUSH0 DUP1 PUSH0 SHL SWAP4 POP SWAP4 POP SWAP4 POP POP JUMPDEST SWAP5 POP SWAP5 POP SWAP5 SWAP2 POP POP JUMP JUMPDEST PUSH0 PUSH1 0x3 DUP2 GT ISZERO PUSH2 0x1486 JUMPI PUSH2 0x1485 PUSH2 0x204B JUMP JUMPDEST JUMPDEST DUP3 PUSH1 0x3 DUP2 GT ISZERO PUSH2 0x1499 JUMPI PUSH2 0x1498 PUSH2 0x204B JUMP JUMPDEST JUMPDEST SUB ISZERO PUSH2 0x15D1 JUMPI PUSH1 0x1 PUSH1 0x3 DUP2 GT ISZERO PUSH2 0x14B3 JUMPI PUSH2 0x14B2 PUSH2 0x204B JUMP JUMPDEST JUMPDEST DUP3 PUSH1 0x3 DUP2 GT ISZERO PUSH2 0x14C6 JUMPI PUSH2 0x14C5 PUSH2 0x204B JUMP JUMPDEST JUMPDEST SUB PUSH2 0x14FD JUMPI PUSH1 0x40 MLOAD PUSH32 0xF645EEDF00000000000000000000000000000000000000000000000000000000 DUP2 MSTORE PUSH1 0x4 ADD PUSH1 0x40 MLOAD DUP1 SWAP2 SUB SWAP1 REVERT JUMPDEST PUSH1 0x2 PUSH1 0x3 DUP2 GT ISZERO PUSH2 0x1511 JUMPI PUSH2 0x1510 PUSH2 0x204B JUMP JUMPDEST JUMPDEST DUP3 PUSH1 0x3 DUP2 GT ISZERO PUSH2 0x1524 JUMPI PUSH2 0x1523 PUSH2 0x204B JUMP JUMPDEST JUMPDEST SUB PUSH2 0x1568 JUMPI DUP1 PUSH0 SHR PUSH1 0x40 MLOAD PUSH32 0xFCE698F700000000000000000000000000000000000000000000000000000000 DUP2 MSTORE PUSH1 0x4 ADD PUSH2 0x155F SWAP2 SWAP1 PUSH2 0x183A JUMP JUMPDEST PUSH1 0x40 MLOAD DUP1 SWAP2 SUB SWAP1 REVERT JUMPDEST PUSH1 0x3 DUP1 DUP2 GT ISZERO PUSH2 0x157B JUMPI PUSH2 0x157A PUSH2 0x204B JUMP JUMPDEST JUMPDEST DUP3 PUSH1 0x3 DUP2 GT ISZERO PUSH2 0x158E JUMPI PUSH2 0x158D PUSH2 0x204B JUMP JUMPDEST JUMPDEST SUB PUSH2 0x15D0 JUMPI DUP1 PUSH1 0x40 MLOAD PUSH32 0xD78BCE0C00000000000000000000000000000000000000000000000000000000 DUP2 MSTORE PUSH1 0x4 ADD PUSH2 0x15C7 SWAP2 SWAP1 PUSH2 0x18EF JUMP JUMPDEST PUSH1 0x40 MLOAD DUP1 SWAP2 SUB SWAP1 REVERT JUMPDEST JUMPDEST POP POP JUMP JUMPDEST PUSH1 0x60 PUSH0 PUSH2 0x15E1 DUP4 PUSH2 0x1647 JUMP JUMPDEST SWAP1 POP PUSH0 PUSH1 0x20 PUSH8 0xFFFFFFFFFFFFFFFF DUP2 GT ISZERO PUSH2 0x15FF JUMPI PUSH2 0x15FE PUSH2 0x1D3A JUMP JUMPDEST JUMPDEST PUSH1 0x40 MLOAD SWAP1 DUP1 DUP3 MSTORE DUP1 PUSH1 0x1F ADD PUSH1 0x1F NOT AND PUSH1 0x20 ADD DUP3 ADD PUSH1 0x40 MSTORE DUP1 ISZERO PUSH2 0x1631 JUMPI DUP2 PUSH1 0x20 ADD PUSH1 0x1 DUP3 MUL DUP1 CALLDATASIZE DUP4 CALLDATACOPY DUP1 DUP3 ADD SWAP2 POP POP SWAP1 POP JUMPDEST POP SWAP1 POP DUP2 DUP2 MSTORE DUP4 PUSH1 0x20 DUP3 ADD MSTORE DUP1 SWAP3 POP POP POP SWAP2 SWAP1 POP JUMP JUMPDEST PUSH0 DUP1 PUSH1 0xFF DUP4 PUSH0 SHR AND SWAP1 POP PUSH1 0x1F DUP2 GT ISZERO PUSH2 0x168C JUMPI PUSH1 0x40 MLOAD PUSH32 0xB3512B0C00000000000000000000000000000000000000000000000000000000 DUP2 MSTORE PUSH1 0x4 ADD PUSH1 0x40 MLOAD DUP1 SWAP2 SUB SWAP1 REVERT JUMPDEST DUP1 SWAP2 POP POP SWAP2 SWAP1 POP JUMP JUMPDEST PUSH0 DUP2 MLOAD SWAP1 POP SWAP2 SWAP1 POP JUMP JUMPDEST PUSH0 DUP3 DUP3 MSTORE PUSH1 0x20 DUP3 ADD SWAP1 POP SWAP3 SWAP2 POP POP JUMP JUMPDEST DUP3 DUP2 DUP4 MCOPY PUSH0 DUP4 DUP4 ADD MSTORE POP POP POP JUMP JUMPDEST PUSH0 PUSH1 0x1F NOT PUSH1 0x1F DUP4 ADD AND SWAP1 POP SWAP2 SWAP1 POP JUMP JUMPDEST PUSH0 PUSH2 0x16D7 DUP3 PUSH2 0x1695 JUMP JUMPDEST PUSH2 0x16E1 DUP2 DUP6 PUSH2 0x169F JUMP JUMPDEST SWAP4 POP PUSH2 0x16F1 DUP2 DUP6 PUSH1 0x20 DUP7 ADD PUSH2 0x16AF JUMP JUMPDEST PUSH2 0x16FA DUP2 PUSH2 0x16BD JUMP JUMPDEST DUP5 ADD SWAP2 POP POP SWAP3 SWAP2 POP POP JUMP JUMPDEST PUSH0 PUSH1 0x20 DUP3 ADD SWAP1 POP DUP2 DUP2 SUB PUSH0 DUP4 ADD MSTORE PUSH2 0x171D DUP2 DUP5 PUSH2 0x16CD JUMP JUMPDEST SWAP1 POP SWAP3 SWAP2 POP POP JUMP JUMPDEST PUSH0 DUP1 REVERT JUMPDEST PUSH0 DUP1 REVERT JUMPDEST PUSH0 PUSH20 0xFFFFFFFFFFFFFFFFFFFFFFFFFFFFFFFFFFFFFFFF DUP3 AND SWAP1 POP SWAP2 SWAP1 POP JUMP JUMPDEST PUSH0 PUSH2 0x1756 DUP3 PUSH2 0x172D JUMP JUMPDEST SWAP1 POP SWAP2 SWAP1 POP JUMP JUMPDEST PUSH2 0x1766 DUP2 PUSH2 0x174C JUMP JUMPDEST DUP2 EQ PUSH2 0x1770 JUMPI PUSH0 DUP1 REVERT JUMPDEST POP JUMP JUMPDEST PUSH0 DUP2 CALLDATALOAD SWAP1 POP PUSH2 0x1781 DUP2 PUSH2 0x175D JUMP JUMPDEST SWAP3 SWAP2 POP POP JUMP JUMPDEST PUSH0 DUP2 SWAP1 POP SWAP2 SWAP1 POP JUMP JUMPDEST PUSH2 0x1799 DUP2 PUSH2 0x1787 JUMP JUMPDEST DUP2 EQ PUSH2 0x17A3 JUMPI PUSH0 DUP1 REVERT JUMPDEST POP JUMP JUMPDEST PUSH0 DUP2 CALLDATALOAD SWAP1 POP PUSH2 0x17B4 DUP2 PUSH2 0x1790 JUMP JUMPDEST SWAP3 SWAP2 POP POP JUMP JUMPDEST PUSH0 DUP1 PUSH1 0x40 DUP4 DUP6 SUB SLT ISZERO PUSH2 0x17D0 JUMPI PUSH2 0x17CF PUSH2 0x1725 JUMP JUMPDEST JUMPDEST PUSH0 PUSH2 0x17DD DUP6 DUP3 DUP7 ADD PUSH2 0x1773 JUMP JUMPDEST SWAP3 POP POP PUSH1 0x20 PUSH2 0x17EE DUP6 DUP3 DUP7 ADD PUSH2 0x17A6 JUMP JUMPDEST SWAP2 POP POP SWAP3 POP SWAP3 SWAP1 POP JUMP JUMPDEST PUSH0 DUP2 ISZERO ISZERO SWAP1 POP SWAP2 SWAP1 POP JUMP JUMPDEST PUSH2 0x180C DUP2 PUSH2 0x17F8 JUMP JUMPDEST DUP3 MSTORE POP POP JUMP JUMPDEST PUSH0 PUSH1 0x20 DUP3 ADD SWAP1 POP PUSH2 0x1825 PUSH0 DUP4 ADD DUP5 PUSH2 0x1803 JUMP JUMPDEST SWAP3 SWAP2 POP POP JUMP JUMPDEST PUSH2 0x1834 DUP2 PUSH2 0x1787 JUMP JUMPDEST DUP3 MSTORE POP POP JUMP JUMPDEST PUSH0 PUSH1 0x20 DUP3 ADD SWAP1 POP PUSH2 0x184D PUSH0 DUP4 ADD DUP5 PUSH2 0x182B JUMP JUMPDEST SWAP3 SWAP2 POP POP JUMP JUMPDEST PUSH0 DUP1 PUSH0 PUSH1 0x60 DUP5 DUP7 SUB SLT ISZERO PUSH2 0x186A JUMPI PUSH2 0x1869 PUSH2 0x1725 JUMP JUMPDEST JUMPDEST PUSH0 PUSH2 0x1877 DUP7 DUP3 DUP8 ADD PUSH2 0x1773 JUMP JUMPDEST SWAP4 POP POP PUSH1 0x20 PUSH2 0x1888 DUP7 DUP3 DUP8 ADD PUSH2 0x1773 JUMP JUMPDEST SWAP3 POP POP PUSH1 0x40 PUSH2 0x1899 DUP7 DUP3 DUP8 ADD PUSH2 0x17A6 JUMP JUMPDEST SWAP2 POP POP SWAP3 POP SWAP3 POP SWAP3 JUMP JUMPDEST PUSH0 PUSH1 0xFF DUP3 AND SWAP1 POP SWAP2 SWAP1 POP JUMP JUMPDEST PUSH2 0x18B8 DUP2 PUSH2 0x18A3 JUMP JUMPDEST DUP3 MSTORE POP POP JUMP JUMPDEST PUSH0 PUSH1 0x20 DUP3 ADD SWAP1 POP PUSH2 0x18D1 PUSH0 DUP4 ADD DUP5 PUSH2 0x18AF JUMP JUMPDEST SWAP3 SWAP2 POP POP JUMP JUMPDEST PUSH0 DUP2 SWAP1 POP SWAP2 SWAP1 POP JUMP JUMPDEST PUSH2 0x18E9 DUP2 PUSH2 0x18D7 JUMP JUMPDEST DUP3 MSTORE POP POP JUMP JUMPDEST PUSH0 PUSH1 0x20 DUP3 ADD SWAP1 POP PUSH2 0x1902 PUSH0 DUP4 ADD DUP5 PUSH2 0x18E0 JUMP JUMPDEST SWAP3 SWAP2 POP POP JUMP JUMPDEST PUSH0 DUP1 REVERT JUMPDEST PUSH0 DUP1 REVERT JUMPDEST PUSH0 DUP1 REVERT JUMPDEST PUSH0 DUP1 DUP4 PUSH1 0x1F DUP5 ADD SLT PUSH2 0x1929 JUMPI PUSH2 0x1928 PUSH2 0x1908 JUMP JUMPDEST JUMPDEST DUP3 CALLDATALOAD SWAP1 POP PUSH8 0xFFFFFFFFFFFFFFFF DUP2 GT ISZERO PUSH2 0x1946 JUMPI PUSH2 0x1945 PUSH2 0x190C JUMP JUMPDEST JUMPDEST PUSH1 0x20 DUP4 ADD SWAP2 POP DUP4 PUSH1 0x1 DUP3 MUL DUP4 ADD GT ISZERO PUSH2 0x1962 JUMPI PUSH2 0x1961 PUSH2 0x1910 JUMP JUMPDEST JUMPDEST SWAP3 POP SWAP3 SWAP1 POP JUMP JUMPDEST PUSH0 DUP1 PUSH0 DUP1 PUSH1 0x60 DUP6 DUP8 SUB SLT ISZERO PUSH2 0x1981 JUMPI PUSH2 0x1980 PUSH2 0x1725 JUMP JUMPDEST JUMPDEST PUSH0 PUSH2 0x198E DUP8 DUP3 DUP9 ADD PUSH2 0x1773 JUMP JUMPDEST SWAP5 POP POP PUSH1 0x20 PUSH2 0x199F DUP8 DUP3 DUP9 ADD PUSH2 0x17A6 JUMP JUMPDEST SWAP4 POP POP PUSH1 0x40 DUP6 ADD CALLDATALOAD PUSH8 0xFFFFFFFFFFFFFFFF DUP2 GT ISZERO PUSH2 0x19C0 JUMPI PUSH2 0x19BF PUSH2 0x1729 JUMP JUMPDEST JUMPDEST PUSH2 0x19CC DUP8 DUP3 DUP9 ADD PUSH2 0x1914 JUMP JUMPDEST SWAP3 POP SWAP3 POP POP SWAP3 SWAP6 SWAP2 SWAP5 POP SWAP3 POP JUMP JUMPDEST PUSH0 PUSH1 0x20 DUP3 DUP5 SUB SLT ISZERO PUSH2 0x19EF JUMPI PUSH2 0x19EE PUSH2 0x1725 JUMP JUMPDEST JUMPDEST PUSH0 PUSH2 0x19FC DUP5 DUP3 DUP6 ADD PUSH2 0x1773 JUMP JUMPDEST SWAP2 POP POP SWAP3 SWAP2 POP POP JUMP JUMPDEST PUSH0 PUSH32 0xFF00000000000000000000000000000000000000000000000000000000000000 DUP3 AND SWAP1 POP SWAP2 SWAP1 POP JUMP JUMPDEST PUSH2 0x1A39 DUP2 PUSH2 0x1A05 JUMP JUMPDEST DUP3 MSTORE POP POP JUMP JUMPDEST PUSH2 0x1A48 DUP2 PUSH2 0x174C JUMP JUMPDEST DUP3 MSTORE POP POP JUMP JUMPDEST PUSH0 DUP2 MLOAD SWAP1 POP SWAP2 SWAP1 POP JUMP JUMPDEST PUSH0 DUP3 DUP3 MSTORE PUSH1 0x20 DUP3 ADD SWAP1 POP SWAP3 SWAP2 POP POP JUMP JUMPDEST PUSH0 DUP2 SWAP1 POP PUSH1 0x20 DUP3 ADD SWAP1 POP SWAP2 SWAP1 POP JUMP JUMPDEST PUSH2 0x1A80 DUP2 PUSH2 0x1787 JUMP JUMPDEST DUP3 MSTORE POP POP JUMP JUMPDEST PUSH0 PUSH2 0x1A91 DUP4 DUP4 PUSH2 0x1A77 JUMP JUMPDEST PUSH1 0x20 DUP4 ADD SWAP1 POP SWAP3 SWAP2 POP POP JUMP JUMPDEST PUSH0 PUSH1 0x20 DUP3 ADD SWAP1 POP SWAP2 SWAP1 POP JUMP JUMPDEST PUSH0 PUSH2 0x1AB3 DUP3 PUSH2 0x1A4E JUMP JUMPDEST PUSH2 0x1ABD DUP2 DUP6 PUSH2 0x1A58 JUMP JUMPDEST SWAP4 POP PUSH2 0x1AC8 DUP4 PUSH2 0x1A68 JUMP JUMPDEST DUP1 PUSH0 JUMPDEST DUP4 DUP2 LT ISZERO PUSH2 0x1AF8 JUMPI DUP2 MLOAD PUSH2 0x1ADF DUP9 DUP3 PUSH2 0x1A86 JUMP JUMPDEST SWAP8 POP PUSH2 0x1AEA DUP4 PUSH2 0x1A9D JUMP JUMPDEST SWAP3 POP POP PUSH1 0x1 DUP2 ADD SWAP1 POP PUSH2 0x1ACB JUMP JUMPDEST POP DUP6 SWAP4 POP POP POP POP SWAP3 SWAP2 POP POP JUMP JUMPDEST PUSH0 PUSH1 0xE0 DUP3 ADD SWAP1 POP PUSH2 0x1B18 PUSH0 DUP4 ADD DUP11 PUSH2 0x1A30 JUMP JUMPDEST DUP2 DUP2 SUB PUSH1 0x20 DUP4 ADD MSTORE PUSH2 0x1B2A DUP2 DUP10 PUSH2 0x16CD JUMP JUMPDEST SWAP1 POP DUP2 DUP2 SUB PUSH1 0x40 DUP4 ADD MSTORE PUSH2 0x1B3E DUP2 DUP9 PUSH2 0x16CD JUMP JUMPDEST SWAP1 POP PUSH2 0x1B4D PUSH1 0x60 DUP4 ADD DUP8 PUSH2 0x182B JUMP JUMPDEST PUSH2 0x1B5A PUSH1 0x80 DUP4 ADD DUP7 PUSH2 0x1A3F JUMP JUMPDEST PUSH2 0x1B67 PUSH1 0xA0 DUP4 ADD DUP6 PUSH2 0x18E0 JUMP JUMPDEST DUP2 DUP2 SUB PUSH1 0xC0 DUP4 ADD MSTORE PUSH2 0x1B79 DUP2 DUP5 PUSH2 0x1AA9 JUMP JUMPDEST SWAP1 POP SWAP9 SWAP8 POP POP POP POP POP POP POP POP JUMP JUMPDEST PUSH2 0x1B90 DUP2 PUSH2 0x18A3 JUMP JUMPDEST DUP2 EQ PUSH2 0x1B9A JUMPI PUSH0 DUP1 REVERT JUMPDEST POP JUMP JUMPDEST PUSH0 DUP2 CALLDATALOAD SWAP1 POP PUSH2 0x1BAB DUP2 PUSH2 0x1B87 JUMP JUMPDEST SWAP3 SWAP2 POP POP JUMP JUMPDEST PUSH2 0x1BBA DUP2 PUSH2 0x18D7 JUMP JUMPDEST DUP2 EQ PUSH2 0x1BC4 JUMPI PUSH0 DUP1 REVERT JUMPDEST POP JUMP JUMPDEST PUSH0 DUP2 CALLDATALOAD SWAP1 POP PUSH2 0x1BD5 DUP2 PUSH2 0x1BB1 JUMP JUMPDEST SWAP3 SWAP2 POP POP JUMP JUMPDEST PUSH0 DUP1 PUSH0 DUP1 PUSH0 DUP1 PUSH0 PUSH1 0xE0 DUP9 DUP11 SUB SLT ISZERO PUSH2 0x1BF6 JUMPI PUSH2 0x1BF5 PUSH2 0x1725 JUMP JUMPDEST JUMPDEST PUSH0 PUSH2 0x1C03 DUP11 DUP3 DUP12 ADD PUSH2 0x1773 JUMP JUMPDEST SWAP8 POP POP PUSH1 0x20 PUSH2 0x1C14 DUP11 DUP3 DUP12 ADD PUSH2 0x1773 JUMP JUMPDEST SWAP7 POP POP PUSH1 0x40 PUSH2 0x1C25 DUP11 DUP3 DUP12 ADD PUSH2 0x17A6 JUMP JUMPDEST SWAP6 POP POP PUSH1 0x60 PUSH2 0x1C36 DUP11 DUP3 DUP12 ADD PUSH2 0x17A6 JUMP JUMPDEST SWAP5 POP POP PUSH1 0x80 PUSH2 0x1C47 DUP11 DUP3 DUP12 ADD PUSH2 0x1B9D JUMP JUMPDEST SWAP4 POP POP PUSH1 0xA0 PUSH2 0x1C58 DUP11 DUP3 DUP12 ADD PUSH2 0x1BC7 JUMP JUMPDEST SWAP3 POP POP PUSH1 0xC0 PUSH2 0x1C69 DUP11 DUP3 DUP12 ADD PUSH2 0x1BC7 JUMP JUMPDEST SWAP2 POP POP SWAP3 SWAP6 SWAP9 SWAP2 SWAP5 SWAP8 POP SWAP3 SWAP6 POP JUMP JUMPDEST PUSH0 DUP1 PUSH1 0x40 DUP4 DUP6 SUB SLT ISZERO PUSH2 0x1C8E JUMPI PUSH2 0x1C8D PUSH2 0x1725 JUMP JUMPDEST JUMPDEST PUSH0 PUSH2 0x1C9B DUP6 DUP3 DUP7 ADD PUSH2 0x1773 JUMP JUMPDEST SWAP3 POP POP PUSH1 0x20 PUSH2 0x1CAC DUP6 DUP3 DUP7 ADD PUSH2 0x1773 JUMP JUMPDEST SWAP2 POP POP SWAP3 POP SWAP3 SWAP1 POP JUMP JUMPDEST PUSH32 0x4E487B7100000000000000000000000000000000000000000000000000000000 PUSH0 MSTORE PUSH1 0x22 PUSH1 0x4 MSTORE PUSH1 0x24 PUSH0 REVERT JUMPDEST PUSH0 PUSH1 0x2 DUP3 DIV SWAP1 POP PUSH1 0x1 DUP3 AND DUP1 PUSH2 0x1CFA JUMPI PUSH1 0x7F DUP3 AND SWAP2 POP JUMPDEST PUSH1 0x20 DUP3 LT DUP2 SUB PUSH2 0x1D0D JUMPI PUSH2 0x1D0C PUSH2 0x1CB6 JUMP JUMPDEST JUMPDEST POP SWAP2 SWAP1 POP JUMP JUMPDEST PUSH0 PUSH1 0x40 DUP3 ADD SWAP1 POP PUSH2 0x1D26 PUSH0 DUP4 ADD DUP6 PUSH2 0x1A3F JUMP JUMPDEST PUSH2 0x1D33 PUSH1 0x20 DUP4 ADD DUP5 PUSH2 0x182B JUMP JUMPDEST SWAP4 SWAP3 POP POP POP JUMP JUMPDEST PUSH32 0x4E487B7100000000000000000000000000000000000000000000000000000000 PUSH0 MSTORE PUSH1 0x41 PUSH1 0x4 MSTORE PUSH1 0x24 PUSH0 REVERT JUMPDEST PUSH0 PUSH1 0xC0 DUP3 ADD SWAP1 POP PUSH2 0x1D7A PUSH0 DUP4 ADD DUP10 PUSH2 0x18E0 JUMP JUMPDEST PUSH2 0x1D87 PUSH1 0x20 DUP4 ADD DUP9 PUSH2 0x1A3F JUMP JUMPDEST PUSH2 0x1D94 PUSH1 0x40 DUP4 ADD DUP8 PUSH2 0x1A3F JUMP JUMPDEST PUSH2 0x1DA1 PUSH1 0x60 DUP4 ADD DUP7 PUSH2 0x182B JUMP JUMPDEST PUSH2 0x1DAE PUSH1 0x80 DUP4 ADD DUP6 PUSH2 0x182B JUMP JUMPDEST PUSH2 0x1DBB PUSH1 0xA0 DUP4 ADD DUP5 PUSH2 0x182B JUMP JUMPDEST SWAP8 SWAP7 POP POP POP POP POP POP POP JUMP JUMPDEST PUSH0 PUSH1 0x40 DUP3 ADD SWAP1 POP PUSH2 0x1DD9 PUSH0 DUP4 ADD DUP6 PUSH2 0x1A3F JUMP JUMPDEST PUSH2 0x1DE6 PUSH1 0x20 DUP4 ADD DUP5 PUSH2 0x1A3F JUMP JUMPDEST SWAP4 SWAP3 POP POP POP JUMP JUMPDEST PUSH0 PUSH1 0x20 DUP3 ADD SWAP1 POP PUSH2 0x1E00 PUSH0 DUP4 ADD DUP5 PUSH2 0x1A3F JUMP JUMPDEST SWAP3 SWAP2 POP POP JUMP JUMPDEST PUSH0 PUSH1 0x60 DUP3 ADD SWAP1 POP PUSH2 0x1E19 PUSH0 DUP4 ADD DUP7 PUSH2 0x1A3F JUMP JUMPDEST PUSH2 0x1E26 PUSH1 0x20 DUP4 ADD DUP6 PUSH2 0x182B JUMP JUMPDEST PUSH2 0x1E33 PUSH1 0x40 DUP4 ADD DUP5 PUSH2 0x182B JUMP JUMPDEST SWAP5 SWAP4 POP POP POP POP JUMP JUMPDEST PUSH0 DUP2 MLOAD SWAP1 POP SWAP2 SWAP1 POP JUMP JUMPDEST PUSH0 DUP3 DUP3 MSTORE PUSH1 0x20 DUP3 ADD SWAP1 POP SWAP3 SWAP2 POP POP JUMP JUMPDEST PUSH0 PUSH2 0x1E5F DUP3 PUSH2 0x1E3B JUMP JUMPDEST PUSH2 0x1E69 DUP2 DUP6 PUSH2 0x1E45 JUMP JUMPDEST SWAP4 POP PUSH2 0x1E79 DUP2 DUP6 PUSH1 0x20 DUP7 ADD PUSH2 0x16AF JUMP JUMPDEST PUSH2 0x1E82 DUP2 PUSH2 0x16BD JUMP JUMPDEST DUP5 ADD SWAP2 POP POP SWAP3 SWAP2 POP POP JUMP JUMPDEST PUSH0 PUSH1 0x80 DUP3 ADD SWAP1 POP PUSH2 0x1EA0 PUSH0 DUP4 ADD DUP8 PUSH2 0x1A3F JUMP JUMPDEST PUSH2 0x1EAD PUSH1 0x20 DUP4 ADD DUP7 PUSH2 0x1A3F JUMP JUMPDEST PUSH2 0x1EBA PUSH1 0x40 DUP4 ADD DUP6 PUSH2 0x182B JUMP JUMPDEST DUP2 DUP2 SUB PUSH1 0x60 DUP4 ADD MSTORE PUSH2 0x1ECC DUP2 DUP5 PUSH2 0x1E55 JUMP JUMPDEST SWAP1 POP SWAP6 SWAP5 POP POP POP POP POP JUMP JUMPDEST PUSH0 PUSH32 0xFFFFFFFF00000000000000000000000000000000000000000000000000000000 DUP3 AND SWAP1 POP SWAP2 SWAP1 POP JUMP JUMPDEST PUSH2 0x1F0B DUP2 PUSH2 0x1ED7 JUMP JUMPDEST DUP2 EQ PUSH2 0x1F15 JUMPI PUSH0 DUP1 REVERT JUMPDEST POP JUMP JUMPDEST PUSH0 DUP2 MLOAD SWAP1 POP PUSH2 0x1F26 DUP2 PUSH2 0x1F02 JUMP JUMPDEST SWAP3 SWAP2 POP POP JUMP JUMPDEST PUSH0 PUSH1 0x20 DUP3 DUP5 SUB SLT ISZERO PUSH2 0x1F41 JUMPI PUSH2 0x1F40 PUSH2 0x1725 JUMP JUMPDEST JUMPDEST PUSH0 PUSH2 0x1F4E DUP5 DUP3 DUP6 ADD PUSH2 0x1F18 JUMP JUMPDEST SWAP2 POP POP SWAP3 SWAP2 POP POP JUMP JUMPDEST PUSH32 0x4E487B7100000000000000000000000000000000000000000000000000000000 PUSH0 MSTORE PUSH1 0x11 PUSH1 0x4 MSTORE PUSH1 0x24 PUSH0 REVERT JUMPDEST PUSH0 PUSH2 0x1F8E DUP3 PUSH2 0x1787 JUMP JUMPDEST SWAP2 POP PUSH2 0x1F99 DUP4 PUSH2 0x1787 JUMP JUMPDEST SWAP3 POP DUP3 DUP3 ADD SWAP1 POP DUP1 DUP3 GT ISZERO PUSH2 0x1FB1 JUMPI PUSH2 0x1FB0 PUSH2 0x1F57 JUMP JUMPDEST JUMPDEST SWAP3 SWAP2 POP POP JUMP JUMPDEST PUSH0 PUSH1 0xA0 DUP3 ADD SWAP1 POP PUSH2 0x1FCA PUSH0 DUP4 ADD DUP9 PUSH2 0x18E0 JUMP JUMPDEST PUSH2 0x1FD7 PUSH1 0x20 DUP4 ADD DUP8 PUSH2 0x18E0 JUMP JUMPDEST PUSH2 0x1FE4 PUSH1 0x40 DUP4 ADD DUP7 PUSH2 0x18E0 JUMP JUMPDEST PUSH2 0x1FF1 PUSH1 0x60 DUP4 ADD DUP6 PUSH2 0x182B JUMP JUMPDEST PUSH2 0x1FFE PUSH1 0x80 DUP4 ADD DUP5 PUSH2 0x1A3F JUMP JUMPDEST SWAP7 SWAP6 POP POP POP POP POP POP JUMP JUMPDEST PUSH0 PUSH1 0x80 DUP3 ADD SWAP1 POP PUSH2 0x201B PUSH0 DUP4 ADD DUP8 PUSH2 0x18E0 JUMP JUMPDEST PUSH2 0x2028 PUSH1 0x20 DUP4 ADD DUP7 PUSH2 0x18AF JUMP JUMPDEST PUSH2 0x2035 PUSH1 0x40 DUP4 ADD DUP6 PUSH2 0x18E0 JUMP JUMPDEST PUSH2 0x2042 PUSH1 0x60 DUP4 ADD DUP5 PUSH2 0x18E0 JUMP JUMPDEST SWAP6 SWAP5 POP POP POP POP POP JUMP JUMPDEST PUSH32 0x4E487B7100000000000000000000000000000000000000000000000000000000 PUSH0 MSTORE PUSH1 0x21 PUSH1 0x4 MSTORE PUSH1 0x24 PUSH0 REVERT INVALID LOG2 PUSH5 0x6970667358 0x22 SLT KECCAK256 SWAP14 0xDA STATICCALL SGT MSTORE8 DUP7 0xAB 0xBA JUMPDEST 0xA7 DUP4 CODESIZE REVERT LOG4 SWAP10 PUSH11 0xCCA7096094D4CF3202CEB9 PUSH1 0xF9 0xA8 0xC7 SWAP12 PUSH5 0x736F6C6343 STOP ADDMOD BYTE STOP CALLER "
				},
				"gasEstimates": {
					"creation": {
						"codeDepositCost": "1673200",
						"executionCost": "infinite",
						"totalCost": "infinite"
					},
					"external": {
						"DOMAIN_SEPARATOR()": "infinite",
						"allowance(address,address)": "infinite",
						"approve(address,uint256)": "infinite",
						"balanceOf(address)": "2874",
						"decimals()": "405",
						"eip712Domain()": "infinite",
						"mint()": "infinite",
						"name()": "infinite",
						"nonces(address)": "2938",
						"permit(address,address,uint256,uint256,uint8,bytes32,bytes32)": "infinite",
						"symbol()": "infinite",
						"totalSupply()": "2455",
						"transfer(address,uint256)": "infinite",
						"transferAndCall(address,uint256,bytes)": "infinite",
						"transferFrom(address,address,uint256)": "infinite"
					},
					"internal": {
						"_checkOnTransferReceived(address,address,uint256,bytes memory)": "infinite"
					}
				},
				"methodIdentifiers": {
					"DOMAIN_SEPARATOR()": "3644e515",
					"allowance(address,address)": "dd62ed3e",
					"approve(address,uint256)": "095ea7b3",
					"balanceOf(address)": "70a08231",
					"decimals()": "313ce567",
					"eip712Domain()": "84b0196e",
					"mint()": "1249c58b",
					"name()": "06fdde03",
					"nonces(address)": "7ecebe00",
					"permit(address,address,uint256,uint256,uint8,bytes32,bytes32)": "d505accf",
					"symbol()": "95d89b41",
					"totalSupply()": "18160ddd",
					"transfer(address,uint256)": "a9059cbb",
					"transferAndCall(address,uint256,bytes)": "4000aea0",
					"transferFrom(address,address,uint256)": "23b872dd"
				}
			},
			"storageLayout": {
				"storage": [
					{
						"astId": 202,
						"contract": "src/Hulio.sol:Hulio",
						"label": "_balances",
						"offset": 0,
						"slot": "0",
						"type": "t_mapping(t_address,t_uint256)"
					},
					{
						"astId": 208,
						"contract": "src/Hulio.sol:Hulio",
						"label": "_allowances",
						"offset": 0,
						"slot": "1",
						"type": "t_mapping(t_address,t_mapping(t_address,t_uint256))"
					},
					{
						"astId": 210,
						"contract": "src/Hulio.sol:Hulio",
						"label": "_totalSupply",
						"offset": 0,
						"slot": "2",
						"type": "t_uint256"
					},
					{
						"astId": 212,
						"contract": "src/Hulio.sol:Hulio",
						"label": "_name",
						"offset": 0,
						"slot": "3",
						"type": "t_string_storage"
					},
					{
						"astId": 214,
						"contract": "src/Hulio.sol:Hulio",
						"label": "_symbol",
						"offset": 0,
						"slot": "4",
						"type": "t_string_storage"
					},
					{
						"astId": 2053,
						"contract": "src/Hulio.sol:Hulio",
						"label": "_nameFallback",
						"offset": 0,
						"slot": "5",
						"type": "t_string_storage"
					},
					{
						"astId": 2055,
						"contract": "src/Hulio.sol:Hulio",
						"label": "_versionFallback",
						"offset": 0,
						"slot": "6",
						"type": "t_string_storage"
					},
					{
						"astId": 1032,
						"contract": "src/Hulio.sol:Hulio",
						"label": "_nonces",
						"offset": 0,
						"slot": "7",
						"type": "t_mapping(t_address,t_uint256)"
					}
				],
				"types": {
					"t_address": {
						"encoding": "inplace",
						"label": "address",
						"numberOfBytes": "20"
					},
					"t_mapping(t_address,t_mapping(t_address,t_uint256))": {
						"encoding": "mapping",
						"key": "t_address",
						"label": "mapping(address => mapping(address => uint256))",
						"numberOfBytes": "32",
						"value": "t_mapping(t_address,t_uint256)"
					},
					"t_mapping(t_address,t_uint256)": {
						"encoding": "mapping",
						"key": "t_address",
						"label": "mapping(address => uint256)",
						"numberOfBytes": "32",
						"value": "t_uint256"
					},
					"t_string_storage": {
						"encoding": "bytes",
						"label": "string",
						"numberOfBytes": "32"
					},
					"t_uint256": {
						"encoding": "inplace",
						"label": "uint256",
						"numberOfBytes": "32"
					}
				}
			},
			"userdoc": {
				"kind": "user",
				"methods": {
					"constructor": {
						"notice": "构造函数"
					},
					"mint()": {
						"notice": "mint, 暂时允许所有人挖"
					},
					"transferAndCall(address,uint256,bytes)": {
						"notice": "transfer and invoke hook (if to is a contract)"
					}
				},
				"notice": "erc20代币合约",
				"version": 1
			}
		}
	}
}